:100000000C942A000C9447000C9447000C94470071
:100010000C94181B0C9447000C9404040C94470097
:100020000C9447000C9447000C9447000C94470034
:100030000C9447000C9447000C9447000C94470024
:100040000C9447000C9447000C9447000C94470014
:100050000C94470011241FBECFE5D8E0DEBFCDBF12
:1000600013E0A0E6B0E0E0EAF4E402C005900D92EF
:10007000A434B107D9F723E0A4E4B3E001C01D9292
:10008000A939B207E1F70E94301B0C944E220C9460
:100090000000009741F0EFE9FFE03197F1F700C071
:1000A00000000197F6CF0895009731F025E02A95DA
:1000B000F1F700000197F8CF08958F929F92AF92C9
:1000C000BF92CF92DF92EF92FF924B015C0120E052
:1000D00030E04AE755E40E94681D6B017C0120E096
:1000E00030E040E85FE30E94151C87FD24C020E05B
:1000F0003FEF4FE757E4C701B6010E94641D181691
:10010000ACF420E030E040E251E4C501B4010E94CB
:10011000681D0E94861C20E931E06115710581F09F
:10012000C9010197F1F761507109F7CFC701B60115
:100130000E94861C02C061E070E0CB010197F1F7DC
:10014000FF90EF90DF90CF90BF90AF909F908F90F7
:1001500008958F929F92AF92BF92CF92DF92EF92CB
:10016000FF924B015C012BEA3AEA4AEA50E40E9412
:10017000681D6B017C0120E030E040E85FE30E94F5
:10018000151C87FD21C020E030E04FE753E4C70194
:10019000B6010E94641D181694F420E030E04AE78E
:1001A00054E4C501B4010E94191CFF90EF90DF9048
:1001B000CF90BF90AF909F908F900C945D00C7013F
:1001C000B6010E94861C01C061E06A95F1F7FF90BC
:1001D000EF90DF90CF90BF90AF909F908F90089559
:1001E0001F93CF93DF931F92CDB7DEB7182F0E94D6
:1001F000CF038CEA0E94DB03812F0E94DB030E9465
:10020000CF038DEA0E94DB0380E00E94E203898332
:100210000E94D50389810F90DF91CF911F9108959E
:100220001F93CF93DF931F92CDB7DEB7182F69834B
:100230000E94CF038CEA0E94DB03812F0E94DB0324
:100240006981862F0E94DB030E94D50385E090E040
:100250000F90DF91CF911F910C9449001F93CF9382
:10026000DF931F92CDB7DEB7182F79830E9410015C
:100270007981672F81E0810F0F90DF91CF911F91DE
:100280000C9410011F93CF93DF93182F0E94F0005E
:10029000C82FD0E081E0810F0E94F0009E01382B32
:1002A000C901DF91CF911F91089580FF02C0DC9AB0
:1002B00001C0DC9881FF02C0DD9A01C0DD9882FF99
:1002C00002C0DE9A01C0DE9883FF02C0DF9A089563
:1002D000DF98089589B382958170CD998260CE9917
:1002E0008460CF9988600895CF93DF93D498D59890
:1002F000D698D798DA9ADB9A0E946A0190E1899F92
:10030000E0011124DB98DB9A0E946A01DB98E7EC9C
:10031000F0E03197F1F700C000008C2BDF91CF9116
:100320000895D9980C947401CF93C82FD49AD59A74
:10033000D69AD79ADA98DB9A82958F700E945501E7
:10034000DB98DB9A8C2F0E945501DB980E9491016B
:1003500087FDFCCFCF910895D9980C949401D99A38
:100360000C949401D99A0C947401CF93DF93EC010F
:100370008991882319F00E94AF01FACFDF91CF91C4
:10038000089590E4699F800D112480680C94AC015D
:1003900081E00E94AC018FE39FE10197F1F700C07B
:1003A0000000089582E00E94AC018FE39FE1019775
:1003B000F1F700C000000895C09A0895CF93D49A31
:1003C000D59AD69AD79AD39AD19AD29A8FE59AEE9D
:1003D0000197F1F700C00000D998DB98DA98C3E0E4
:1003E000DB9A83E00E945501DB988FE19EE4019740
:1003F000F1F700C00000C15099F7DB9A82E00E943B
:100400005501DB988FE99FE00197F1F700C00000EC
:1004100088E20E94AC0188E00E94AC0181E00E9469
:10042000AC0186E00E94AC018CE00E94AC01B89A5D
:10043000CF910C94DC01C0980895CF93DF93CDB792
:10044000DEB761970FB6F894DEBF0FBECDBF4AE0AE
:10045000BE016F5F7F4F0E94F21E0E94B501619640
:100460000FB6F894DEBF0FBECDBFDF91CF910895D8
:100470006F927F928F929F92AF92BF92CF92DF92B4
:10048000EF92FF920F931F93CF93DF9300D0CDB7DE
:10049000DEB76B017C0149835A830E94861C9B0155
:1004A00049815A8177FF04C022273327261B370B47
:1004B000293E334008F09EC08A014530510510F0B6
:1004C00004E010E0C701B6010E94811C4B015C01F1
:1004D000CB010E941D0281E090E02AE0622E712C87
:1004E0002AE08017910740F4F3012E9F30012F9FDF
:1004F000700C11240196F5CF012B09F47BC084E127
:1005000093E00E94B501840197FE04C000271127E3
:1005100008191909B30180E090E00E94B21C9B0108
:10052000AC01C701B6010E94681D0E94811C9B019D
:1005300077FF04C022273327261B370BB9018827F2
:1005400077FD8095982F0E94B41C6B017C0193016C
:10055000D8010E949A1B0E94B21C9B01AC01C701EA
:10056000B6010E94B01B0E94861C6B017C01AB018E
:1005700081E090E02AE030E06AE04217530740F063
:100580000196F9016E9F90016F9F300D1124F5CFF8
:1005900041E02AE030E05AE06216730640F04F5F17
:1005A000B901569F9001579F300D1124F5CF01E0FE
:1005B00010E0A42EB12CA81AB90A0A151B0538F4AC
:1005C00080E090E00E941D020F5F1F4FF6CFC60132
:1005D0000F900F90DF91CF911F910F91FF90EF90AF
:1005E000DF90CF90BF90AF909F908F907F906F9053
:1005F0000C941D020F900F90DF91CF911F910F91DE
:10060000FF90EF90DF90CF90BF90AF909F908F9032
:100610007F906F900895CF93DF93CDB7DEB761974A
:100620000FB6F894DEBF0FBECDBF40E1BE016F5FD5
:100630007F4F0E94F21E0E94B50161960FB6F8949A
:10064000DEBF0FBECDBFDF91CF910895CF92DF9275
:10065000EF92FF920F931F93CF93DF938C016B0167
:100660007A01C0E0D0E0CC15DD0581F0E114F104A1
:1006700011F08CE101C084E10E94AC01011511056B
:1006800019F0C8010E9449002196EDCFDF91CF916A
:100690001F910F91FF90EF90DF90CF900895CF9230
:1006A000DF92EF92FF920F931F93CF93DF938C0112
:1006B0006B017A01C0E0D0E0CC15DD0581F0E114DA
:1006C000F10411F088E101C080E10E94AC01011544
:1006D000110519F0C8010E9449002196EDCFDF9164
:1006E000CF911F910F91FF90EF90DF90CF900895E1
:1006F0000F931F93CF93DF93EC018230910520F08D
:1007000082309105D9F40FC080E80E94AC0108E264
:1007100010E080E20E94AF0101501109011511059E
:10072000C1F7CD2B59F480EC0E94AC01C8E2D0E0B7
:1007300080E20E94AF0121972097D1F7DF91CF91FE
:100740001F910F9108958330910589F030F4813025
:10075000910549F0029749F008958430910549F0D8
:10076000059749F008958CE007C088E005C08EE049
:1007700003C08DE001C08FE00C94AC01BC0180E8A7
:100780009EE30E94861B862F603138F07727CB01CD
:10079000409797FD01969595879580B9089584EACD
:1007A00086BF06B607FEFDCF089584E986BF06B66C
:1007B00004FCFDCF089583B984E886BF06B607FE22
:1007C000FDCF089520E4829FC0011124846886BF74
:1007D00006B607FEFDCF83B108958EB5887F8EBD26
:1007E00008958EB585608EBD08958E98969A8EB5C3
:1007F0008F7B8EBD1092540389B7806289BF10929F
:100800005503BC98C49A08951F920F920FB60F9289
:1008100011242F933F938F939F9386B597B5209183
:10082000480330914903821B930B26B537B53093AB
:100830004903209348032EB530E423272EBD8F3182
:10084000910510F01092540320915403222319F0C3
:1008500021E02093470320915403211111C01092ED
:10086000460310924503109244032EB520642EBD1A
:10087000209154032F5F2093540322E020934703D9
:1008800020914703213009F05AC09C012A503109B8
:100890002531310510F01092470320914703213094
:1008A00009F04DC0429728F0809154038F5F8093E8
:1008B0005403809154038230E8F18091540380FD09
:1008C00039C08091450390914603880F991F9093FA
:1008D0004603809345030EB406FE05C081609093E5
:1008E000460380934503809144038F5F80934403C4
:1008F0008D3000F18091450390914603282F2F738E
:10090000209353039C01207C3770689415F836952A
:1009100027951694E1F72093520388279870892F22
:10092000869586958695809351031092470381E0C2
:1009300080935503809154038F5F8093540380917B
:100940004703811105C0109254038EB58F7B8EBD75
:100950009F918F913F912F910F900FBE0F901F90FD
:10096000189586B382958F7091E08927817090E009
:100970000895109255038FEF809353038093520391
:100980000895CF93C82F8A3019F48DE00E94C104D6
:100990005D9BFECFCCB9CF9108955F9BFECF8CB10C
:1009A000089561E08BEF0C949D1760E08BEF0C9441
:1009B0009D1780E0089590BD89B988E18AB986E8DD
:1009C00080BD08955F9B02C08CB1089580E00895BA
:1009D00080EA089580E2089580E8089523E09695DE
:1009E00087952A95E1F70895CF93DF9398E0899F43
:1009F000E0011124803250F58C2F0E94F00080938A
:100A000078038C2F8F5F0E94F000809379038C2FE6
:100A10008E5F0E94F00080937A038C2F8D5F0E947E
:100A2000F00080937B038C2F8C5F0E94F0008093FA
:100A30007C038C2F8B5F0E94420190937E038093F6
:100A40007D038C2F895F0E94F00032C0CE019A9501
:100A5000E199FECF0E94312180937803CE018F5F10
:100A600091090E94312180937903CE018E5F910913
:100A70000E94312180937A03CE018D5F91090E94FB
:100A8000312180937B03CE018C5F91090E9431213B
:100A900080937C03CE018B5F91090E943921909352
:100AA0007E0380937D03CE01895F91090E943121ED
:100AB00080937F03DF91CF910895CF9360E070E042
:100AC00080E09FE30E94130980917E038F938091C1
:100AD0007D038F9380917C031F928F9380917B0382
:100AE0001F928F93809178031F928F938091790347
:100AF0001F928F9380917A031F928F9387ED90E0DE
:100B00009F938F930E94171F80917F03C4E66C2FE1
:100B10000E947A1B2DB73EB7225F3F4F0FB6F89465
:100B20003EBF0FBE2DBF992301F11F929F9383EF0C
:100B300090E09F938F930E94171F80917F036C2FEB
:100B40000E947A1B0F900F900F900F90813019F434
:100B500083E091E004C0823041F48CE091E09F9307
:100B60008F930E94171F0F900F908AE090E0CF9113
:100B70000C942B1F0E94D5040E944B1A8091850370
:100B80008F93809184038F9320917503822F9927EF
:100B900087FD90959F932F9320918C03822F992707
:100BA00087FD90959F932F9320918303822F992700
:100BB00087FD90959F932F9320917403822F9927FF
:100BC00087FD90959F932F9320917303822F9927F0
:100BD00087FD90959F932F9387E191E09F938F934B
:100BE0000E94171F8DB79EB70E960FB6F8949EBF42
:100BF0000FBE8DBF08958EEF0E943D1833E096958D
:100C000087953A95E1F708958CEF0E943D1843E0EF
:100C1000969587954A95E1F70895CF93C82F0E943E
:100C2000040690E08C0F911D803A910510F0805AD7
:100C30009109CF910C94F404FF920F931F93CF93DB
:100C4000DF93F82E882329F0C0E0D0E000E411E023
:100C500009C084E391E0DF91CF911F910F91FF9044
:100C60000C94321F8C2F21969C2F91509F1578F455
:100C70000E940D06DF93CF931F930F930E94171FBF
:100C80000E945D050F900F900F900F90EBCFDF91BA
:100C9000CF911F910F91FF90089585E491E09F936C
:100CA0008F930E94171F0E94BA050F900F9080EA41
:100CB0000C941C068EEF0E943D18BC018CEF0C9426
:100CC00029180E940406813A70F060E070E08EEF0F
:100CD0000E9429180E945A0660E070E08AE794E4B6
:100CE0000E94130904C00E94FB05813A70F78A989C
:100CF000929A8B98939A8D98959A8C98949AA29898
:100D0000AA9AA398AB9AA498AC9AA598AD9AA698DB
:100D1000AE9AA798AF9A87E690E00E94DB048EE631
:100D200090E0909396038093950380E690E09093F3
:100D30009403809393030895CF930E940406C82FD1
:100D40000E94FB058C1740F40E94FB05C82F0E94EF
:100D5000040690EA9C0F06C00E94FB05C82F0E9463
:100D600004069C2F981B892FCF91089587E591E069
:100D70009F938F930E94171F0E94BA050E949C06A2
:100D80000E941C060F900F900C945A06DF92EF926F
:100D9000FF920F931F93CF93DF93D62E38E0839F5C
:100DA000E0011124803258F4EE24EA94F12CC701BA
:100DB0008C1B9D0B07970CF055C0C0E0D1E0E1996A
:100DC000FECF8E010F5F110960918303CE019A95CA
:100DD0000E943F21E199FECF7E018EEFE81AF108D3
:100DE00060917403C8010E943F21E199FECF8E01FA
:100DF0000D5F110960917303C7010E943F21E199C2
:100E0000FECF7E019CEFE91AF10860918C03C801C6
:100E10000E943F21E199FECF8E010B5F1109609185
:100E20007503C7010E943F21E199FECF60918403C1
:100E300070918503C8010E944C21CE01895F910900
:100E4000ED2DF0E0EC59FC4F208161E06D0D34E6B2
:100E5000239F600D1124E199FECFC85FD1090E9444
:100E60003F2145C0609183038C2F0E941001609147
:100E700074038C2F8F5F0E941001609173038C2F7D
:100E80008E5F0E94100160918C038C2F8D5F0E94F9
:100E90001001609175038C2F8C5F0E94100160918E
:100EA0008403709185038C2F8B5F0E942E01ED2DA2
:100EB000F0E0EC59FC4F80818E01085F1F4F61E02C
:100EC0006D0D94E6899F600D11248C2F895F0E941F
:100ED0001001E01AF10A37E0E316F104B4F460E01F
:100EE00070E088EC92E40E941309C0E0D0E08FEF3C
:100EF00093E08C1B9D0B079754F460E070E08AEF41
:100F000093E40E94130900E010E0B80102C0BE01A2
:100F100073958EEFDF91CF911F910F91FF90EF901E
:100F2000DF900C9429180F931F93CF93DF930E94A7
:100F3000D1040E944B1AC4E6D3E010E089918823C3
:100F400019F10E940A0985E090E00E9449000E9480
:100F5000FB058F3929F40E9404068823F9F00FC09D
:100F60000E940406082F0E94FB05202F30E090E02D
:100F700001962817390719F411C00E94B6060E947D
:100F8000FB05612F0E94C6061F5F1A30B9F682E08A
:100F9000DF91CF911F910F910C94220980918A03C8
:100FA000813059F760E070E88BE395E40E94130903
:100FB000EBCF10928903829903C081E0809389036B
:100FC00080918903089510928903839903C081E079
:100FD00080938903809189030895109289038599EC
:100FE00003C081E080938903809189030895109262
:100FF0008903849903C081E08093890380918903E8
:101000000895109289039A9903C081E0809389031F
:10101000809189030895109289039B9903C081E010
:1010200080938903809189030895109289039C9984
:1010300003C081E080938903809189030895109211
:1010400089039D9903C081E080938903809189037E
:101050000895109289039E9903C081E080938903CB
:10106000809189030895109289039F9903C081E0BC
:1010700080938903809189030895811102C00C94A3
:10108000D907813011F40C94E307823011F40C94E9
:10109000ED07833011F40C94F707843011F40C94AD
:1010A0000108853011F40C940B08863011F40C946F
:1010B0001508873011F40C941F08883011F40C9433
:1010C0002908893011F40C9433088FEF08951F9389
:1010D000CF93DF93CAE5D3E010E0812F0E943D0853
:1010E00089931F5F1A30C9F7DF91CF911F9108953F
:1010F000BF92CF92DF92EF92FF920F931F93CF9305
:10110000DF936AE5E62E63E0F62EC4E6D3E0D12C49
:1011100000E010E0CC24C39472E0B72E8D2D0E9425
:101120003D08F7019081891741F0813011F4B882B0
:1011300006C0811104C0C88202C0188202C001E04A
:1011400010E0F70181937F01D3942196FAE0DF123A
:10115000E5CF012B59F0DF91CF911F910F91FF90B7
:10116000EF90DF90CF90BF900C949307DF91CF91D9
:101170001F910F91FF90EF90DF90CF90BF90089557
:10118000CF93DF93C0E0D0E060E08C2F0E9410018D
:101190002196C11581E0D807B9F7C0E0D0E0E19908
:1011A000FECF60E0CE010E943F212196C11584E070
:1011B000D807A9F7DF91CF910C945A062F923F924E
:1011C0001092570310925603809156039091570343
:1011D000209176033091770382179307C4F4D101ED
:1011E000ED91FC91E80FF91F80810E94AF0160E052
:1011F00070E088E492E40E945D0080915603909133
:10120000570301969093570380935603DDCF3F9089
:101210002F900895979A60E070E080E89FE30E9425
:101220005D0097980895979A0E945D009798089599
:1012300060E070E080E490E40E94130982E3809310
:101240007C000895811103C010927C0008958130C4
:1012500021F48FEF80937C000895823011F40C9478
:10126000180908950F931F93CF93DF932AE030E07E
:10127000C1E04AE08217930740F0CF5FB901469F73
:101280009001479F300D1124F5CF309357032093E1
:101290005603909382038093810380E090E00E9444
:1012A000780310925703109256038C2F90E0C7E2F8
:1012B000D0E0C81BD90B8C010D5F1F4F80915603E6
:1012C000909157038C179D07FCF460E00E94C101C8
:1012D00080918103909182030E941D0261E08091C0
:1012E00056030E94C10180918103909182030E9464
:1012F0001D028091560390915703800F911F909388
:10130000570380935603DACF60E070E08AEF93E4EE
:101310000E945D0081E080934D03DF91CF911F918A
:101320000F91089520918103309182034AE0429FFA
:10133000C001439F900D1124893E23E0920710F0D5
:1013400088EE93E0909382038093810380918103E0
:10135000909182030C9432098091810390918203D1
:101360006AE070E00E94861B6115710529F0709398
:1013700082036093810306C081E090E09093820332
:101380008093810380918103909182030C943209B0
:10139000CF93DF93EC0110924D0380918A0381304B
:1013A00009F460C00E94C80180E691E00E94B50186
:1013B000CE010E941D0261E080E00E94C1012097E1
:1013C00019F48AE691E01CC0C130D10519F489E70F
:1013D00091E016C0C230D10519F489E891E010C03F
:1013E000C330D10519F482E991E00AC0C430D105B7
:1013F00019F480EA91E004C0259721F480EB91E094
:101400000E94B50110925703109256038091560323
:10141000909157030597B4F460E070E080EF91E499
:101420000E945D0060E070E080EA90E40E94130991
:1014300080915603909157030196909357038093A0
:101440005603E4CF60E070E08AEF93E40E945D0011
:1014500041E050E06FE070E084E190E00E942603FC
:101460000E94C80181E080934D03DF91CF910895E0
:10147000811103C08FEB91E01DC0813019F483EC22
:1014800091E018C0823019F487EC91E013C08330EA
:1014900019F48BEC91E00EC0843019F48FEC91E0DC
:1014A00009C0853019F483ED91E004C0863021F441
:1014B00087ED91E00C94B501089560E080914F03B1
:1014C0000E94C101809173038A3024F480E090E08F
:1014D0000E941D0280917303992787FD90950E94B9
:1014E0001D0282EE92E00E94B501809174038A3061
:1014F00024F480E090E00E941D02809174039927FB
:1015000087FD90950E941D0282EE92E00E94B50137
:10151000809183038A3024F480E090E00E941D02D1
:1015200080918303992787FD90950E941D0282EE8A
:1015300092E00E94B501809172038A3024F480E029
:1015400090E00E941D0280917203992787FD90957B
:101550000C941D020E945D0A61E080914F030E947D
:10156000C10180918C038A3024F480E090E00E94D5
:101570001D0280918C03992787FD90950E941D0282
:1015800082EE92E00E94B501809175038A3024F4C6
:1015900080E090E00E941D0280917503992787FDED
:1015A00090950E941D0282EE92E00E94B50180910A
:1015B0008403909185030E941D0261E08DE00E94EA
:1015C000C101809186030C94380ACF93C82F8111F2
:1015D0000E945D0A61E080914F030E94C101C23008
:1015E000C1F580917503811103C08BED91E02EC090
:1015F00010925703109256032091560330915703CF
:10160000273031050CF580917503992787FD90955A
:1016100002C0959587952A95E2F780FF0BC083EE6F
:1016200091E00E94B5018091560390915703019675
:101630000E941D028091560390915703019690934A
:10164000570380935603D8CF83EE91E0CF910C944B
:10165000B501C33019F580918C038A3024F480E001
:1016600090E00E941D0280918C03992787FD909540
:101670000E941D0282EE92E00E94B50180917503E6
:101680008A3024F480E090E00E941D02809175036E
:10169000992787FD9095CF910C941D02CF910895C5
:1016A000423041F42091810330918203319521959C
:1016B000310909C0413029F420918103309182031E
:1016C00002C020E030E0611106C090917303920FD8
:1016D0009093730317C0613031F490917403920FAB
:1016E000909374030FC0623031F490918303920F92
:1016F0009093830307C0633029F490917203920F93
:1017000090937203882311F0833031F5643031F403
:1017100080918C03820F80938C030895653021F4AF
:1017200080917503820F7EC081117EC0663059F4AE
:101730008091840390918503820F931F909385037A
:10174000809384030895673009F06EC0809186030A
:10175000820F809386030895823009F065C064305B
:1017600069F4413021F48091750381605BC042309F
:1017700009F05AC0809175038E7F54C0653069F4BA
:10178000413021F48091750382604CC0423009F0F1
:101790004BC0809175038D7F45C0663061F4413048
:1017A00021F48091750384603DC04230E9F5809159
:1017B00075038B7F37C0673061F4413021F480912D
:1017C000750388602FC0423079F580917503877F5B
:1017D00029C0683061F4413021F480917503806143
:1017E00021C0423009F5809175038F7E1BC069309E
:1017F00061F4413021F480917503806213C042305E
:1018000099F4809175038F7D0DC06A3069F4413081
:1018100021F480917503806405C0423029F48091E1
:1018200075038F7B809375030895CF93DF93D82F33
:10183000C62F6F3F51F420918103309182032230F3
:10184000310580F081E090E00BC0643058F42091C5
:101850008103309182032B30310520F08AE090E043
:101860000E943209DD2311F0D330F9F48CEF8C0F94
:10187000823058F420918103309182032B3031055E
:1018800020F08AE090E00E943209D1110EC0C730EA
:1018900061F48091810390918203029730F081E09E
:1018A00090E0DF91CF910C943209DF91CF910895B0
:1018B000882361F0813061F0823021F0833021F49F
:1018C00086E008958BE0089580E0089588E008950B
:1018D00084E00895CF93DF93D82FC62F10924D0345
:1018E00080E090E00E94780360E080914F030E94C6
:1018F000C1018D2F0E94580C4C2F552747FD509544
:10190000282F30E04217530769F4D11103C085EE48
:1019100091E05BC0D53019F486EF91E056C086E0C7
:1019200092E053C0C11103C088EA91E00EC0C130FB
:1019300019F485E192E009C0C23019F48CE192E01B
:1019400004C0C33021F484E292E00E94B501DD239B
:1019500011F0D330B1F4C43019F481E392E035C012
:10196000C53019F487E392E030C0D11130C0C630E1
:1019700019F48FE392E029C0C73049F583E492E07F
:1019800024C0D23021F5C43019F482E592E01DC0A4
:10199000C53019F48FE592E018C0C63019F486E618
:1019A00092E013C0C73019F48CE692E00EC0C83044
:1019B00019F485E792E009C0C93019F48CE792E088
:1019C00004C0CA3021F483E892E00E94B50180E9A6
:1019D00091E00E94490081E080934D03DF91CF9117
:1019E0000895811103C08DE892E00EC0813019F492
:1019F0008DE992E009C0823019F48DEA92E004C0CA
:101A0000833021F48EEB92E00C94B501089580911F
:101A1000730387FF04C087E18093730304C0883198
:101A200014F0109273038091740387FF04C08BE35A
:101A30008093740304C08C3314F01092740380916B
:101A4000830387FF04C08BE38093830304C08C333C
:101A500014F0109283038091720387FF04C083E621
:101A6000809372030895843614F0109272030895DF
:101A700090917503191624F0823049F09CE005C05E
:101A80009D302CF0823019F091E090937503909185
:101A90007503492F4D7F2091840330918503413098
:101AA000C9F09530B9F059EF590F523098F09A308B
:101AB00089F09C3079F0443079F0493069F0923007
:101AC00069F4A90143705527452B41F0811106C0E7
:101AD0008CE105C08FE103C08EE101C08DE1409132
:101AE0008C03141644F4552747FD509590E0841755
:101AF00095071CF481E080938C03213F88ED380723
:101B00001CF48FE097E205C02031374234F081EFBA
:101B100098ED90938503809384038091860387FFDB
:101B200004C086E0809386030895873014F01092F5
:101B3000860308951F93CF93DF930E941D0284E1D3
:101B400093E00E94B50180917A038A3020F480E00E
:101B500090E00E941D0280917A0390E00E941D0295
:101B600082EE92E00E94B501809179038A3020F4E0
:101B700080E090E00E941D028091790390E00E9435
:101B80001D0282EE92E00E94B501809178038A30B6
:101B900020F480E090E00E941D028091780390E0A4
:101BA0000E941D0283E491E00E94B50180917B03B5
:101BB0008A3020F480E090E00E941D0280917B0337
:101BC00090E00E941D0282EE92E00E94B501809199
:101BD0007C038A3020F480E090E00E941D02809116
:101BE0007C0390E00E941D0282EE92E00E94B5010B
:101BF00080917D0390917E030E941D0283E491E019
:101C00000E94B50180917F0314E6612F0E947A1B28
:101C1000C92FD0E0209721F18FEC92E00E94B5010E
:101C2000CE010E941D0283E491E00E94B5018091E3
:101C30007F03612F0E947A1B90E09093570380935B
:101C400056038130910519F483E091E004C00297B6
:101C500039F48CE091E0DF91CF911F910C94B501A4
:101C6000DF91CF911F910895CF93DF93EC01809185
:101C70005003833049F48C2F0E940D06CE0101964B
:101C8000DF91CF910C949A0D853029F48C2FDF9140
:101C9000CF910C94F10CDF91CF9108950F931F9386
:101CA000CF93DF93EC018B016F3F8FEF780761F4E7
:101CB00060E080E00E94C10184E391E0DF91CF9178
:101CC0001F910F910C94B501CF3F8FEFD80761F4AE
:101CD00061E080E00E94C101CE010196DF91CF91C9
:101CE0001F910F910C94340E60E080E00E94C101BE
:101CF000CE010E94340EC017D10751F7DF91CF916A
:101D00001F910F9108958091810390918203029712
:101D100020F081E090E00E94320980914C038630EF
:101D20001CF010924C0305C087FF03C085E0809330
:101D30004C0380E090E00E94780360E080E00E9425
:101D4000C10183ED92E00E94B50161E080E00E9454
:101D5000C10184EE92E00E94B50180914C03992765
:101D600087FD90950E941D0288EE92E00C94B501CB
:101D700080E090E00E94780360E080E00E94C10172
:101D80008091530390E00E941D0260E086E00E9473
:101D9000C1018091520390E00E941D0261E080E049
:101DA0000E94C1018091510390E00C941D02109299
:101DB0004F030E944B1A80E090E00E94780360E09D
:101DC0008BE00E94C10180914E03811103C081EF1D
:101DD00092E004C0813021F483EE91E00E94B501CD
:101DE0000E94AA0A80918B038823F1F00E943B1A7B
:101DF00085E180934F0360E082E10E94C10183EEA0
:101E000091E00E94B50161E082E10E94C10183EE90
:101E100091E00E94B50161E080914F030E94C101F1
:101E200080918B030E94E50A60E08CE00E94C10172
:101E30000E94E11A41E050E00C94380280E090E00A
:101E40000E94780380918103909182030B9720F088
:101E50008AE090E00E9432098091700390917103B2
:101E60008F3F9F4F2CF40E949C0690E001970CC07E
:101E70000E949C0690E02091700330917103281716
:101E8000390734F08FEF9FEF9093710380937003C5
:101E90000E949C06682F70E0615071098091700368
:101EA000909171030C944E0E80918B0387FD1092DC
:101EB0008B0360918B0380E00E94150C80E090E022
:101EC0000E94780380918B038830F9F4209172038B
:101ED0004091830360917403809173030E94C11841
:101EE00020918403309185034091750360918603AE
:101EF00080918C030E944A1910924D030E94C801E0
:101F000081E08093590380937E00409180034423B5
:101F100039F060918B0380E00E94500B1092800397
:101F20000E94070D80E00E94380D10924F030E941E
:101F3000AA0A80915903813039F460918B0380E0C3
:101F40000E946A0C109259030895EF920F93CF9359
:101F5000DF9380918B038F3F1CF48FEF80938B0373
:101F600060918B03809170030E94150C80918B030C
:101F70008F3F19F580E090E00E9478038091700314
:101F8000909171038F3F2FEF92071CF483E090E054
:101F900004C0049734F08FEF9FEF90937103809308
:101FA000700363E070E08091700390917103DF91A2
:101FB000CF910F91EF900C944E0E80E090E00E9434
:101FC0007803C0917003D09171038C2F0E94580C3C
:101FD00020918B03332727FD309590E02817390790
:101FE00029F0CE010196029708F044C081E0809369
:101FF0007E0080935903CF3F8FEFD807D9F1209708
:1020000029F40E94C7190E94191834C0C130D105A3
:1020100069F40E94CF19209172034091830360916B
:102020007403809173030E94F71924C0C230D10554
:1020300079F40E94DF19009172032091830340918B
:10204000740360917303809175030E94171A12C084
:10205000239781F40E94EF19E090720300918303AB
:1020600020917403409173036091750380918C03F8
:102070000E94271A40918003442341F060918B0312
:10208000809170030E94500B109280030E94070DF4
:10209000809170030E94380D10924F03809170035D
:1020A0000E94E50A809159038130A1F48091700368
:1020B00090917103892B31F485E090E09093710346
:1020C0008093700360918B03809170030E946A0C6F
:1020D00010925903DF91CF910F91EF90089580E016
:1020E00090E00C94780380915003811102C00C940D
:1020F000830E813011F40C94B80E823011F40C94DC
:10210000D70E833011F40C941E0F843011F40C940C
:10211000540F853011F40C94A50F863011F40C94F3
:102120006F1008952F923F92AF92BF92CF92DF929D
:10213000EF92FF920F931F93CF93DF93CDB7DEB74C
:10214000C055D1090FB6F894DEBF0FBECDBF6C01EC
:102150008932910509F0F7C10E94ED0310924D03F9
:102160000E94C80188E290E0909377038093760301
:1021700080E5E5E8F0E0DE01119601900D928A9588
:10218000E1F784E090E00E94CB1D7C0110925703A0
:102190001092560358E2B52E009156031091570342
:1021A00002301105ACF580E590E00E94CB1DF801EE
:1021B000EE0FFF1FEE0DFF1D9183808310928B03A6
:1021C00040E0B09E9001B19E300D1124542FE42FB9
:1021D000FF27E7FDF0954F5FE832F10584F4DC015D
:1021E000A50FB11D57FDBA95E20FF31F61E070E036
:1021F0006C0F7D1FE60FF71F50815C93E7CF509364
:102200008B030F5F1F4F1093570300935603C4CFE8
:1022100010925703109256038091560390915703E2
:102220008832910594F4D701ED91FC91E80FF91FE4
:1022300080810E94AF0180915603909157030196CF
:102240009093570380935603E7CF61E080E00E94AC
:10225000C10110925703109256038091560390913A
:10226000570388329105A4F4D7011296ED91FC91A1
:102270001397E80FF91F80810E94AF0180915603E8
:102280009091570301969093570380935603E5CF9F
:1022900088E290E0909377038093760381E08093C7
:1022A0008B0380918B03882309F41CC184E090E0A8
:1022B0000E94CB1D8C011092570310925603A090E0
:1022C0005603B0905703E2E0AE16B104BCF480911F
:1022D000760390917703880F991F0E94CB1DF5011B
:1022E000EE0FFF1FE00FF11F91838083BFEFAB1A4A
:1022F000BB0AB0925703A0925603E1CF0E94D201CD
:1023000010925703109256038091560390915703F1
:102310002091760330917703821793079CF4D801BC
:10232000AD90BC90A80EB91E0E94B201F501808349
:102330008091560390915703019690935703809391
:102340005603E2CF61E080E00E94C1011092570382
:102350001092560380915603909157032091760373
:102360003091770382179307ACF4D8011296AD90A1
:10237000BC901397A80EB91E0E94B201F50180838C
:102380008091560390915703019690935703809341
:102390005603E0CF0E94C8018091760390917703A5
:1023A00040918B0320E030E0281739070CF5F80145
:1023B000A081B181A20FB31FF701A080B180A20E4E
:1023C000B31E6C91D5015C9165130EC0F801A2811A
:1023D000B381A20FB31FF701A280B380A20EB31E78
:1023E0006C91D5015C91651340E02F5F3F4FDCCFCE
:1023F00040938B0330935703209356030E94B104FC
:10240000892B11F010928B0380918B03811105C0F1
:10241000109257031092560348C01092570310921F
:102420005603809156039091570320917603309183
:1024300077038217930794F4D801ED91FC91E80F8C
:10244000F91F80810E94AF0180915603909157033C
:1024500001969093570380935603E3CF61E080E0A9
:102460000E94C101109257031092560380915603A7
:102470009091570320917603309177038217930749
:102480003CF6D8011296ED91FC911397E80FF91FD5
:1024900080810E94AF01809156039091570301966D
:1024A0009093570380935603E1CFA0905603B090CA
:1024B0005703E2E0AE16B1048CF4F501EE0FFF1FF6
:1024C000E00FF11F808191810E94631EBFEFAB1A64
:1024D000BB0AB0925703A0925603E7CFC8010E94EF
:1024E000631EDFCE109257031092560300915603DD
:1024F000109157030230110584F4F801EE0FFF1F0D
:10250000EE0DFF1D808191810E94631E0F5F1F4FA2
:102510001093570300935603E9CFC7010E94631E2F
:102520000E940A0960E070E080E291E40E945D0090
:102530000E940A0960E070E080E291E40E945D0080
:102540000E940A0958C18C30910509F056C10E94B9
:10255000ED0310924D030E94C80184E090E00E94B8
:10256000A30361E089E00E94C1018CEE92E00E9429
:10257000B50160E070E08AEF93E40E945D000E9484
:10258000D20183EF92E00E94B50160E070E08AEF33
:1025900093E40E945D0041E050E061E070E080E083
:1025A00090E00E94260360E070E08FE294E40E94D5
:1025B0005D0082E090E00E94A30360E070E08FE2A3
:1025C00094E40E945D0081E090E00E94A30360E03B
:1025D00070E08FE294E40E945D0082E090E00E944F
:1025E000A30360E070E08FE294E40E945D0085E068
:1025F00090E00E94A30360E070E08AE794E40E9408
:102600005D0084E090E00E94A30340E050E061E0C0
:1026100070E080E090E00E94260360E070E08AE7CE
:1026200094E40E945D0040E050E061E070E080E0F2
:1026300090E00E944F0383E090E00E94A30360E0DB
:1026400070E08AE794E40E945D0085E090E00E94DB
:10265000A30361E080E00E94C1018FEF92E00E943D
:10266000B50160E070E88BEB94E40E945D0061E0EE
:1026700089E00E94C10186E090E090937703809307
:1026800076030E94CB1D9A83898310925703109280
:102690005603809156039091570320917603309111
:1026A000770382179307C4F409811A81080F191F51
:1026B0000E94B201D8018C9360E070E088EC92E453
:1026C0000E945D008091560390915703019690936C
:1026D000570380935603DDCF41E050E061E070E0A6
:1026E00080E090E00E944F0360E070E88BEB94E4A0
:1026F0000E945D0083E090E00E94A30380E090E0F0
:102700000E94780360E070E88BEB94E40E945D0027
:1027100061E080E00E94C101FE0131961F010E942C
:10272000DE0884E090E00E94A30360E089E00E945C
:10273000C1010E94DE0861E088E00E94C10185E0DD
:1027400090E00E94A3030E94DE0860E081E00E9406
:10275000C1010E94DE0889819A810E94631E83E084
:1027600090E00E94A30360E070E88BEB94E40E9489
:102770005D0041E050E06FE070E084E190E00E9495
:10278000260341E050E06FE070E084E190E00E94B9
:102790004F0381E090E00E94780384E090E00E9483
:1027A000A30360E070E08AE794E40E945D0041E0EA
:1027B00050E06FE070E084E190E00E944F0341E060
:1027C00050E06FE070E084E190E00E94260383E037
:1027D00090E00E94A30382E090E00E94780360E012
:1027E00070E08AEF93E40E945D000E94C80181E0DE
:1027F00090E00E94A3030E94F103C6010E94A3037C
:102800000E947310C05BDF4F0FB6F894DEBF0FBE9F
:10281000CDBFDF91CF911F910F91FF90EF90DF908F
:10282000CF90BF90AF903F902F9008958A3291053E
:1028300019F40E94211825C08B33910519F40E94C8
:1028400019181FC084369105E1F480914E03813040
:1028500039F410924E0380917C00882391F00FC0D0
:1028600081110FC080918A03813039F081E080931B
:102870004E038FEF80937C0004C010928A030E9465
:10288000180981E080934D0308958C30910561F41F
:102890006130710569F50E94C80187E093E00E94EC
:1028A000B5010E94C00824C08932910519F40E9424
:1028B0004D061EC08032910559F4809170039091AD
:1028C00071032091810330918203821B930B0CC012
:1028D000819771F48091700390917103209181032D
:1028E00030918203820F931F909371038093700342
:1028F00081E080934D0308958031910521F480910A
:102900008B038F5F06C08131910549F480918B0361
:10291000815080938B0381E08093590311C08032F2
:10292000910511F481E004C08132910521F482E027
:102930008093800305C0CB9719F488E080938B03C4
:1029400081E080934D0308958031910521F48091B9
:102950008B038F5F06C08131910549F480918B0311
:10296000815080938B0381E08093590336C080327D
:10297000910589F480918B038F3F59F48091700306
:10298000909171032091810330918203821B930BFC
:1029900013C081E017C081329105B9F480918B0397
:1029A0008F3F79F48091700390917103209181039E
:1029B00030918203820F931F909371038093700371
:1029C0000CC082E08093800308C0CB9731F48091E3
:1029D00070030E94580C80938B0381E080934D0319
:1029E00008950F931F93CF93DF93EC018B010E9407
:1029F0000A0980915003811105C0B801CE010E94DF
:102A0000BD1522C0813029F4B801CE010E94921078
:102A10001BC0823029F4B801CE010E94161414C0E4
:102A2000833029F4B801CE010E9445140DC08430D2
:102A300029F4B801CE010E947C1406C0853021F42F
:102A4000B801CE010E94A414C632D10551F51092EE
:102A50004D030E94C80186E193E00E94B50161E048
:102A600080E00E94C10182E293E00E94B50160E033
:102A700070E08AE793E40E945D0041E050E06FE07F
:102A800070E084E190E00E94260341E050E06FE0B6
:102A900070E084E190E00E944F0381E080934D0359
:102AA0003EC0CF30D105A1F40115110551F480913C
:102AB0007C00882319F010927C0031C00E94180914
:102AC0002EC00130110559F58FEF80937C0027C08F
:102AD000CE32D10549F441E050E061E070E080E0A1
:102AE00090E00E9426032AC0C232D10549F441E099
:102AF00050E061E070E080E090E00E944F0330C061
:102B0000C432D10561F441E050E06FE070E084E14F
:102B100090E0DF91CF911F910F910C942603C33267
:102B2000D10561F441E050E06FE070E084E190E0B5
:102B3000DF91CF911F910F910C944F03CC32D105AF
:102B400031F4DF91CF911F910F910C949209CD3206
:102B5000D10531F4DF91CF911F910F910C94AC0905
:102B60002E9731F40130110519F481E080937E0035
:102B7000DF91CF911F910F910895CF93DF93EB01D8
:102B80008B33910509F041C080914C038093500331
:102B900090E00E94C80980915003813009F447C039
:102BA000823061F40E9467080E949D1980938B0314
:102BB000BE0184E690E00E94F11439C0833029F40C
:102BC000109271031092700332C0843051F410924D
:102BD0008B0381E080935903109280030E944B1A6B
:102BE00026C0853021F50E943B1A8FEF80938B031E
:102BF00081E080935903109280030E949D1990E018
:102C0000909371038093700312C08032910531F468
:102C100080914C0390918103890F07C0819739F40B
:102C200080914C0390918103891B80934C0381E038
:102C300080934D03DF91CF910895CF93DF9300D020
:102C400000D0CDB7DEB720914E03213051F46B8315
:102C50007C8389839A830E94ED039A8189817C8198
:102C60006B810E94F11480914E03813041F40F90EA
:102C70000F900F900F90DF91CF910C94F1030F9074
:102C80000F900F900F90DF91CF91089510925703FE
:102C90001092560320917D0080915103223079F0EB
:102CA000332727FD309590E02817390731F481E06C
:102CB00090E0909357038093560380915103809343
:102CC0007D000895CF9380916E03813009F04EC04E
:102CD0001092580310926E0380918A03813029F478
:102CE0000E940A090E94180928C00E94D904813054
:102CF00031F480918A03811102C00E944D0682E066
:102D000080938A030E94E204893419F40E944D06DC
:102D100007C0893619F40E94B60602C0882319F04C
:102D200081E080934D030E94C119813031F40E94EB
:102D30000A090E94B6060E94191880915003823039
:102D400029F40E94780881E080934D0380917C00F3
:102D500018161CF4815080937C0080917C008111B6
:102D600003C00E941B0202C00E94DC0180914D033F
:102D7000813021F410924D030E947310C0917E00A7
:102D8000C130E1F410927E008091500380938B0358
:102D90001092500310924C0381E090E090938203D4
:102DA0008093810360E070E08BE390E00E941D1649
:102DB00080918B0380934C03C0934D030E94B10418
:102DC000892B91F08EE190E00E9449000E94B104AD
:102DD000892B51F060E070E084E690E00E941D16BF
:102DE00084E690E00E94490080915503882391F089
:102DF0008091520381110EC00E94461680915303A8
:102E0000609156037091570390E00E941D16CF9178
:102E10000C94B904CF910895982F92959F708F705C
:102E20002AE0929F800D112408956AE00E947A1B87
:102E3000292F30E1839FC0011124822B08951F9315
:102E4000CF93DF931F92CDB7DEB7182F0E94CF0329
:102E500082EA0E94DB03812F0E94DB030E94CF03E2
:102E600083EA0E94DB0380E00E94E20389830E94E0
:102E7000D50389810F90DF91CF911F910895EF9233
:102E8000FF921F93CF93DF9300D0CDB7DEB7F82E1C
:102E9000162F49835A830E94CF0382EA0E94DB03E4
:102EA0008F2D0E94DB034981E42E5A81F52E140FE9
:102EB0001E1531F0F70181917F010E94DB03F8CFED
:102EC0000F900F90DF91CF911F91FF90EF900C9496
:102ED000D503EF92FF921F93CF93DF9300D0CDB72E
:102EE000DEB7F82E162F49835A830E94CF0382EA59
:102EF0000E94DB038F2D0E94DB030E94CF0383EA35
:102F00000E94DB0311504981E42E5A81F52E1F3FA8
:102F100059F081E0111101C080E00E94E203F70145
:102F200081937F011150F3CF0F900F90DF91CF91DC
:102F30001F91FF90EF900C94D5031F93CF93DF93D5
:102F40001F92CDB7DEB7182F69830E94CF0382EAA4
:102F50000E94DB03812F0E94DB036981862F0E9480
:102F6000DB030F90DF91CF911F910C94D5030E944A
:102F70001F170C940C17CF93C82F862F0E9415177C
:102F8000682F8C2FCF910C949D1780E00E941F1703
:102F9000682F606880E00C949D1780E00E941F17E6
:102FA000682F6F7780E00C949D1780E00E941F17B8
:102FB000682F6F7B80E00C949D1780E00E941F17A4
:102FC000682F606480E00C949D1780E00E941F17BA
:102FD000682F677F80E00C949D1780E00E941F1788
:102FE000682F627080E00E949D1780E00E941F178A
:102FF000682F646080E00E949D170E94D5170E9490
:10300000E51784E00E941F17682F6F7384E00E9409
:103010009D1788E00E941F17682F606888E00C9455
:103020009D1780E00E941F17682F686080E00C9455
:103030009D1780E00E941F17682F6D7F80E00C9421
:103040009D1780E00E941F17682F626080E00C943B
:103050009D171F93CF93DF931F92CDB7DEB7182F25
:1030600079830E949D177981672F81E0810F0F90EE
:10307000DF91CF911F910C949D171F93CF93DF93F6
:10308000182F0E941F17C82FD0E081E0810F0E94E7
:103090001F179E01382BC901DF91CF911F91089511
:1030A0001F93CF93DF931F92CDB7DEB7182F862FD4
:1030B00049830E9415174981642F6295660F660F38
:1030C000607C682B812F0F90DF91CF911F910C9422
:1030D0009D171F93CF93DF931F92CDB7DEB7182FA5
:1030E000862F49830E941517498190E2499FB001BC
:1030F0001124682B812F0F90DF91CF911F910C9499
:103100009D17AF92BF92CF92DF92EF92FF920F93F3
:103110001F93CF93DF9300D000D0CDB7DEB78C01E3
:103120007B016A0159010E94DD17AE014F5F5F4FBD
:1031300064E081E00E94691789810E940C17F50103
:1031400080838A810E940C17F60180838B810E9404
:103150000C17F70180838C810E940C17F801808383
:103160000E94D5170F900F900F900F90DF91CF9185
:103170001F910F91FF90EF90DF90CF90BF90AF9095
:1031800008951F93CF93DF93CDB7DEB727970FB680
:10319000F894DEBF0FBECDBF182F4E836F832D83F3
:1031A0000E94C5178D810E94151789834E81842F37
:1031B0000E9415178A836F81862F0E9415178B83B3
:1031C000812F0E9415178C83AE014F5F5F4F64E023
:1031D00081E00E943F170E94CD1727960FB6F89402
:1031E000DEBF0FBECDBFDF91CF911F910895CF926B
:1031F000DF92EF92FF920F931F93CF93DF93EC0137
:103200007B016A0189010E9411180E94DD1785E087
:103210000E941F170E940C17888386E00E941F17C8
:103220000E940C17F60180830E94E51786E00E9439
:103230001F17829586958770F701808385E00E942D
:103240001F17F82E80E10E941F17C82F81E10E94EE
:103250001F17D0E0D82B9E0123703327F294F694E9
:10326000F69483E0F8228F2D90E02817390729F093
:103270002196BE0180E10E942918F801D183C08304
:10328000DF91CF911F910F91FF90EF90DF90CF9042
:103290000C94D517FF920F931F93CF93DF93F82EC3
:1032A000062F142FE901B90180E10E9429180E941C
:1032B000C517AE016F2D85E00E945018402F612F79
:1032C00086E00E946918DF91CF911F910F91FF90C6
:1032D0000C94CD17CF92DF92EF92FF920F931F9332
:1032E000CF93DF93EC017B016A01890189E00E94A1
:1032F000B717F80180838AE00E94B717F601808330
:103300008BE00E94B717F70180838CE00E94B7170B
:103310008883DF91CF911F910F91FF90EF90DF9005
:10332000CF900895CF93C62F682F8DE00E94BB17D2
:103330006C2F8EE0CF910C94BB1788E00E941F1772
:10334000807382958F7008950F931F93CF93DF93AF
:103350008C01EB018DE00E94B717F80180830E9479
:103360009D19823029F48EE00E941F178F7703C0C9
:103370008EE00E94B7178883DF91CF911F910F9144
:10338000089580E00E941F1786958170089588E057
:103390000E941F17682F6F7C88E00C949D1788E0AF
:1033A0000E941F17682F606188E00E949D1788E0C7
:1033B0000E941F17682F6F7D88E00C949D1788E08E
:1033C0000E941F17682F6F7E88E00E949D1788E07B
:1033D0000E941F17682F606288E00C949D1788E098
:1033E0000E941F17682F606388E00C949D170F934D
:1033F0001F93CF93DF931F92CDB7DEB7182F062F01
:10340000622F89E049830E94BB174981642F8AE0BB
:103410000E94BB17602F8BE00E94BB17612F8CE0CE
:103420000F90DF91CF911F910F910C94BB170F93C9
:10343000CF93C82F862F642F422F202F0E94F71979
:103440006C2F6F778EE0CF910F910C949D17EF92B8
:103450000F93CF93DF93C82FD62F842F622F402F47
:103460002E2D0E94F7196D2F8C2FDF91CF910F9188
:10347000EF900C94921922E733E043E853E064E7BD
:1034800073E083E793E00E946A1965E773E08CE8D4
:1034900093E00C94A41922E733E043E853E064E797
:1034A00073E083E793E00E94811824E833E045E766
:1034B00053E066E873E08CE893E00C94F7188823F7
:1034C00019F0D89AD09A0895D0980895D89899B3B9
:1034D000892F817090FF15C0D09A84EF91E00E94EF
:1034E0005400D09886E490E00E94540084EF91E06C
:1034F000C89904C00E94540081E008950E945400BD
:1035000080E00895CF93DF93D82FD898C8E0D09A61
:10351000D0FF08C087E090E00E945400D09886E475
:1035200090E007C086E490E00E945400D09887E0C5
:1035300090E00E945400D695C15049F7DF91CF9199
:1035400008950E94661A882339F08CEC0E94821A32
:1035500084E40E94821A8FEF0895CF93DF93D0986E
:10356000D8E0C0E0D09A87E090E00E945400D09864
:1035700087E090E00E945400C695C899C06886E430
:1035800090E00E945400D15069F78C2FDF91CF91C9
:1035900008950E94661A882389F08CEC0E94821A92
:1035A0008EEB0E94821A0E94AD1A809387030E94BC
:1035B000AD1A8093880381E090E0089580E090E068
:1035C00008950E94A11A8823F1F087E893E00E94F1
:1035D000C91A6091880370E0762F6627809187036F
:1035E000680F711D882777FD8095982F0E94B41C65
:1035F00020E030E040E85DE30E94681D1092870300
:1036000010928803089560E070E0CB01089585B5BD
:10361000886085BD8FEF83BD89B7806889BF0895B5
:1036200085B5876085BD089585B58E7F85BD089574
:103630001F920F920FB60F9211248F93809158030F
:10364000843119F481E080936E03809158038F5F79
:10365000809358038F910F900FBE0F901F90189575
:103660008F9A0E94DE0184E690E00E94BE030E94D1
:10367000ED170E94E11A0E94071B0E94101B0E9476
:10368000F5030E9461060E94F10381E080934E03DE
:103690009FEF90937C0080938A038CE293E00E94DA
:1036A000B5018CED95E00E94490061E088E00E9440
:1036B000C1018AE393E00E94B50188EE93E00E9485
:1036C000490041E050E06FE070E084E190E00E944A
:1036D00026030E94C8010E94621682E080934C0378
:1036E00060E070E08BE390E00E941D1678940E94E9
:1036F0006216FDCF991B79E004C0991F961708F058
:10370000961B881F7A95C9F780950895AA1BBB1B45
:1037100051E107C0AA1FBB1FA617B70710F0A61BD1
:10372000B70B881F991F5A95A9F780959095BC01F2
:10373000CD0108950E94A11BB7FF0895821B930B32
:103740000895A29FB001B39FC001A39F700D811D7A
:103750001124911DB29F700D811D1124911D08959A
:103760005058BB27AA270ED075C166D130F06BD157
:1037700020F031F49F3F11F41EF45BC10EF4E0958C
:10378000E7FB51C1E92F77D180F3BA1762077307BE
:103790008407950718F071F49EF58FC10EF4E0953B
:1037A0000B2EBA2FA02D0B01B90190010C01CA01FB
:1037B000A0011124FF27591B99F0593F50F4503EA6
:1037C00068F11A16F040A22F232F342F4427585F98
:1037D000F3CF469537952795A795F0405395C9F7B0
:1037E0007EF41F16BA0B620B730B840BBAF0915068
:1037F000A1F0FF0FBB1F661F771F881FC2F70EC007
:10380000BA0F621F731F841F48F4879577956795D9
:10381000B795F7959E3F08F0B3CF9395880F08F0C2
:103820009927EE0F979587950895D9D008F481E0F0
:1038300008950CD00FC107D140F0FED030F021F434
:103840005F3F19F0F0C0511139C1F3C014D198F3A2
:103850009923C9F35523B1F3951B550BBB27AA2711
:1038600062177307840738F09F5F5F4F220F331F83
:10387000441FAA1FA9F333D00E2E3AF0E0E830D04F
:1038800091505040E695001CCAF729D0FE2F27D052
:10389000660F771F881FBB1F261737074807AB0720
:1038A000B0E809F0BB0B802DBF01FF2793585F4F95
:1038B0002AF09E3F510568F0B6C000C15F3FECF3AF
:1038C000983EDCF3869577956795B795F7959F5F5A
:1038D000C9F7880F911D9695879597F90895E1E0AE
:1038E000660F771F881FBB1F621773078407BA070D
:1038F00020F0621B730B840BBA0BEE1F88F7E09568
:10390000089504D06894B111D9C00895BCD088F04E
:103910009F5790F0B92F9927B751A0F0D1F0660FBB
:10392000771F881F991F1AF0BA95C9F712C0B130D6
:1039300081F0C3D0B1E00895C0C0672F782F8827E9
:10394000B85F39F0B93FCCF3869577956795B39515
:10395000D9F73EF490958095709561957F4F8F4F84
:103960009F4F0895E89409C097FB3EF49095809589
:10397000709561957F4F8F4F9F4F9923A9F0F92F35
:1039800096E9BB279395F695879577956795B795B3
:10399000F111F8CFFAF4BB0F11F460FF1BC06F5F99
:1039A0007F4F8F4F9F4F16C0882311F096E911C0AB
:1039B000772321F09EE8872F762F05C0662371F0CC
:1039C00096E8862F70E060E02AF09A95660F771FE0
:1039D000881FDAF7880F9695879597F90895990FBC
:1039E0000008550FAA0BE0E8FEEF16161706E807C9
:1039F000F907C0F012161306E407F50798F0621BEA
:103A0000730B840B950B39F40A2661F0232B242BBE
:103A1000252B21F408950A2609F4A140A6958FEFDD
:103A2000811D811D089597F99F6780E870E060E02F
:103A300008959FEF80EC089500240A941616170647
:103A400018060906089500240A941216130614068F
:103A500005060895092E0394000C11F4882352F0F2
:103A6000BB0F40F4BF2B11F460FF04C06F5F7F4FAA
:103A70008F4F9F4F089557FD9058440F551F59F091
:103A80005F3F71F04795880F97FB991F61F09F3F4B
:103A900079F087950895121613061406551FF2CF74
:103AA0004695F1DF08C0161617061806991FF1CFC4
:103AB00086957105610508940895E894BB276627EB
:103AC0007727CB0197F908958ADF08F48FEF0895DF
:103AD0000BD0C0CFB1DF28F0B6DF18F0952309F086
:103AE000A2CFA7CF1124EACFC6DFA0F3959FD1F3D1
:103AF000950F50E0551F629FF001729FBB27F00D9C
:103B0000B11D639FAA27F00DB11DAA1F649F6627F0
:103B1000B00DA11D661F829F2227B00DA11D621F3F
:103B2000739FB00DA11D621F839FA00D611D221FF9
:103B3000749F3327A00D611D231F849F600D211DDD
:103B4000822F762F6A2F11249F5750408AF0E1F080
:103B500088234AF0EE0FFF1FBB1F661F771F881FC9
:103B600091505040A9F79E3F510570F05CCFA6CF11
:103B70005F3FECF3983EDCF3869577956795B795B4
:103B8000F795E7959F5FC1F7FE2B880F911D9695DE
:103B9000879597F90895CF93DF938230910510F4BC
:103BA00082E090E0E0919103F091920320E030E018
:103BB000A0E0B0E0309739F14081518148175907B2
:103BC000B8F04817590771F482819381109729F052
:103BD00013969C938E9312972CC09093920380938C
:103BE000910327C02115310531F04217530718F012
:103BF000A901DB0101C0EF019A01BD01DF010280D3
:103C0000F381E02DD7CF21153105F9F0281B390BB1
:103C10002430310580F48A819B816115710521F082
:103C2000FB019383828304C090939203809391035A
:103C3000FE01329644C0FE01E20FF31F819391937F
:103C400022503109398328833AC020918F03309163
:103C50009003232B41F42091810030918200309316
:103C6000900320938F0320917F00309180002115D5
:103C7000310541F42DB73EB7409183005091840047
:103C8000241B350BE0918F03F0919003E217F307AB
:103C9000A0F42E1B3F0B2817390778F0AC014E5FBC
:103CA0005F4F2417350748F04E0F5F1F5093900366
:103CB00040938F038193919302C0E0E0F0E0CF0145
:103CC000DF91CF910895CF93DF93009709F487C0D8
:103CD000FC01329713821282C0919103D09192031A
:103CE000209781F420813181280F391F80918F0323
:103CF000909190038217930779F5F0939003E093E6
:103D00008F036DC0DE0120E030E0AE17BF0750F436
:103D100012964D915C9113979D014115510509F142
:103D2000DA01F3CFB383A28340815181840F951FC1
:103D30008A179B0771F48D919C911197840F951FA1
:103D400002969183808312968D919C911397938311
:103D500082832115310529F4F0939203E0939103B6
:103D60003EC0D9011396FC93EE9312974D915D914D
:103D7000A40FB51FEA17FB0779F480819181840FA6
:103D8000951F0296D90111969C938E9382819381FF
:103D900013969C938E931297E0E0F0E08A819B81CA
:103DA000009719F0FE01EC01F9CFCE0102962881AF
:103DB0003981820F931F20918F0330919003281730
:103DC000390769F4309729F4109292031092910305
:103DD00002C013821282D0939003C0938F03DF91AD
:103DE000CF910895BB274A3031F4992322F4BDE2E4
:103DF000909581959F4F0C94FE1EBB27FB01552784
:103E0000AA27880F991FAA1FA41710F0A41B839537
:103E10005051B9F7A05DAA3308F0A95DA1930097AE
:103E200079F7B111B1931192CB010C946721A0E005
:103E3000B0E0EDE1FFE10C942722FE01359661919F
:103E40007191AF0180919503909196030E945F1F3D
:103E5000E2E00C94432260919503709196030E94D6
:103E6000772108950F931F93CF93DF93E0919503EC
:103E7000F0919603238121FF1BC0EC0100E010E0CC
:103E800089916091950370919603DB011896ED91ED
:103E9000FC911997882331F00995892B89F30FEF4D
:103EA0001FEFEECF8AE00995892B11F4C80102C0FB
:103EB0008FEF9FEFDF91CF911F910F910895ACE0AD
:103EC000B0E0E5E6FFE10C9417227C016B018A016A
:103ED000FC0117821682838181FFBDC1CE0101964C
:103EE0004C01F7019381F60193FD859193FF819138
:103EF0006F01882309F4ABC1853239F493FD8591B4
:103F000093FF81916F01853229F4B70190E00E94FF
:103F10007721E7CF512C312C20E02032A0F48B32D6
:103F200069F030F4803259F0833269F420612CC09A
:103F30008D3239F0803339F4216026C0226024604C
:103F400023C0286021C027FD27C030ED380F3A304C
:103F500078F426FF06C0FAE05F9E300D1124532E40
:103F600013C08AE0389E300D1124332E20620CC01D
:103F70008E3221F426FD6BC1206406C08C3611F40C
:103F8000206802C0883641F4F60193FD859193FFC5
:103F900081916F018111C1CF982F9F7D95549330EE
:103FA00028F40C5F1F4FFFE3F9830DC0833631F017
:103FB000833771F0833509F05BC022C0F80180813E
:103FC00089830E5F1F4F44244394512C540115C024
:103FD0003801F2E06F0E711CF801A080B18026FF5D
:103FE00003C0652D70E002C06FEF7FEFC5012C8725
:103FF0000E945C212C0183012C852F77222E17C073
:104000003801F2E06F0E711CF801A080B18026FF2C
:1040100003C0652D70E002C06FEF7FEFC5012C87F4
:104020000E9451212C012C852068222E830123FC23
:104030001BC0832D90E048165906B0F4B70180E20A
:1040400090E00E9477213A94F4CFF50127FC859106
:1040500027FE81915F01B70190E00E947721311026
:104060003A94F1E04F1A51084114510471F7E5C038
:10407000843611F0893639F5F80127FF07C06081D1
:104080007181828193810C5F1F4F08C060817181B3
:10409000882777FD8095982F0E5F1F4F2F76B22EC1
:1040A00097FF09C090958095709561957F4F8F4FD0
:1040B0009F4F2068B22E2AE030E0A4010E94A9217F
:1040C000A82EA81844C0853729F42F7EB22E2AE0E6
:1040D00030E025C0F22FF97FBF2E8F36C1F018F4E3
:1040E000883579F0B4C0803719F0883721F0AFC037
:1040F0002F2F2061B22EB4FE0DC08B2D8460B82E00
:1041000009C024FF0AC09F2F9660B92E06C028E080
:1041100030E005C020E130E002C020E132E0F801EB
:10412000B7FE07C060817181828193810C5F1F4F50
:1041300006C06081718180E090E00E5F1F4FA40196
:104140000E94A921A82EA818FB2DFF77BF2EB6FE2E
:104150000BC02B2D2E7FA51450F4B4FE0AC0B2FC68
:1041600008C02B2D2E7E05C07A2C2B2D03C07A2C57
:1041700001C0752C24FF0DC0FE01EA0DF11D8081E8
:10418000803311F4297E09C022FF06C07394739412
:1041900004C0822F867809F0739423FD13C020FF9A
:1041A00006C05A2C731418F4530C5718732C73143C
:1041B00068F4B70180E290E02C870E947721739425
:1041C0002C85F5CF731410F4371801C0312C24FF5F
:1041D00012C0B70180E390E02C870E9477212C85E4
:1041E00022FF17C021FF03C088E590E002C088E7E6
:1041F00090E0B7010CC0822F867859F021FD02C0F3
:1042000080E201C08BE227FD8DE2B70190E00E94C1
:104210007721A51438F4B70180E390E00E9477215C
:104220005A94F7CFAA94F401EA0DF11D8081B701E9
:1042300090E00E947721A110F5CF332009F451CEF0
:10424000B70180E290E00E9477213A94F6CFF7011F
:104250008681978102C08FEF9FEF2C96E2E10C944C
:104260003322E199FECF9FBB8EBBE09A99278DB395
:104270000895A8E1B0E042E050E00C940922262F16
:10428000E199FECF9FBB8EBB2DBB0FB6F894E29A8F
:10429000E19A0FBE019608950E943F21272F0C94AA
:1042A0004021FC010590615070400110D8F78095C5
:1042B00090958E0F9F1F0895FC01615070400190F2
:1042C0000110D8F7809590958E0F9F1F0895DC01FF
:1042D000FC01672F71917723E1F7329704C07C913D
:1042E0006D9370836291AE17BF07C8F308950F9363
:1042F0001F93CF93DF93182F092FEB018B8181FD43
:1043000003C08FEF9FEF20C082FF10C04E815F81FE
:104310002C813D81421753077CF4E881F9819F018C
:104320002F5F3F4F39832883108306C0E885F985C6
:10433000812F0995892B29F72E813F812F5F3F4FD0
:104340003F832E83812F902FDF91CF911F910F916B
:104350000895FA01AA27283051F1203181F1E8941B
:104360006F936E7F6E5F7F4F8F4F9F4FAF4FB1E068
:104370003ED0B4E03CD0670F781F891F9A1FA11D63
:10438000680F791F8A1F911DA11D6A0F711D811D64
:10439000911DA11D20D009F468943F912AE0269F29
:1043A00011243019305D3193DEF6CF010895462F88
:1043B0004770405D4193B3E00FD0C9F7F6CF462F69
:1043C0004F70405D4A3318F0495D31FD40524193D2
:1043D00002D0A9F7EACFB4E0A6959795879577958F
:1043E0006795BA95C9F700976105710508959B0116
:1043F000AC010A2E06945795479537952795BA959F
:10440000C9F7620F731F841F951FA01D0895DC015B
:10441000CB01FC01E199FECF06C0FFBBEEBBE09AE9
:1044200031960DB20D9241505040B8F708952F9239
:104430003F924F925F926F927F928F929F92AF9234
:10444000BF92CF92DF92EF92FF920F931F93CF9381
:10445000DF93CDB7DEB7CA1BDB0B0FB6F894DEBF18
:104460000FBECDBF09942A88398848885F846E843E
:104470007D848C849B84AA84B984C884DF80EE8088
:10448000FD800C811B81AA81B981CE0FD11D0FB691
:10449000F894DEBF0FBECDBFED010895F894FFCFB5
:1044A00000000001000000000000CD04000000003A
:1044B000000200000000C10400000000FF02010033
:1044C000009903200041546D65676133322070729A
:1044D0006F6772616D6162636465666768696A6B64
:1044E0006C6D6E6F707172737475767778446172EB
:1044F0006975737A204D2E2070726F6A2E797A3129
:104500003233343536373839303938373635343355
:1045100032312140240500253032643A253032649E
:104520003A2530326420253032643A253032643AFC
:1045300025640020535A41464B41204E523A2025D3
:104540006420004F54574152434945005A414D4B56
:104550004E494543494500253032643A253032649E
:104560003A2530326420253032643A253032643ABC
:1045700025640A004272616B2064616E7963680091
:1045800025642E20005261706F7274206177617211
:10459000796A6E792E20005261706F72742E20003D
:1045A00050726F6772616D3A200050524F4752410E
:1045B0004D20474C4F574E590050524F4752414D96
:1045C00020544553544F575900435A5557414E496B
:1045D000450044414E45202D20454550524F4D0049
:1045E0004E41535441574120474F445A494E590078
:1045F0004E41535441574120414C41524D5500507A
:104600006E2E0057742E0053722E00437A2E0050E7
:10461000742E00536F2E004E642E002D2D2D2D2D47
:104620002D2D007C005A41504953414E4F20474F99
:10463000445A494E450057594C41435A4F4E4F201A
:10464000414C41524D005A41504953414E4F204137
:104650004C41524D004D494E5554590053454B5510
:104660004E4459005345544E452053454B554E44F6
:1046700000445A49454E004D494553494143005273
:104680004F4B00445A49454E205459474F444E49D8
:104690004100504F4E4945445A49414C454B005703
:1046A000544F52454B0053524F444100435A5741D7
:1046B0005254454B0050494154454B00534F424FD3
:1046C0005441004E4945445A49454C4100416C61B2
:1046D000726D2077796C61637A6F6E7900416C61DD
:1046E000726D20636F647A69656E6E7900416C61EA
:1046F000726D207479676F646E696F777900416CB1
:1047000061726D206D6965736965637A6E79004EBB
:104710005220005779626965727A2070726F6772F1
:10472000616D3A003E3E3E003C3C3C00576974617E
:104730006A21004C43442048443434373830004325
:104740007A7974616D3A00437A79737A637A656E27
:1047500069652E2E2E004E6120706F637A6174653C
:104760006B00656B72616E752E2E2E0041565220C5
:10477000494E53504543544F5200446172656B207B
:044780004D2E0000BA
:040000050080007EF9
:00000001FF
