:100000000C942A000C9447000C9447000C94470071
:100010000C9435190C9447000C9404040C9447007C
:100020000C9447000C9447000C9447000C94470034
:100030000C9447000C9447000C9447000C94470024
:100040000C9447000C9447000C9447000C94470014
:100050000C94470011241FBECFE5D8E0DEBFCDBF12
:1000600012E0A0E6B0E0E0E9F1E402C005900D92F4
:10007000A83EB107D9F723E0A8EEB2E001C01D9277
:10008000AC33B207E1F70E94F5190C94C6200C942A
:100090000000009741F0EFE9FFE03197F1F700C071
:1000A00000000197F6CF0895009731F025E02A95DA
:1000B000F1F700000197F8CF08958F929F92AF92C9
:1000C000BF92CF92DF92EF92FF924B015C0120E052
:1000D00030E04AE755E40E940D1C6B017C0120E0F2
:1000E00030E040E85FE30E94BA1A87FD24C020E0B8
:1000F0003FEF4FE757E4C701B6010E94091C1816ED
:10010000ACF420E030E040E251E4C501B4010E94CB
:100110000D1C0E942B1B20E931E06115710581F057
:10012000C9010197F1F761507109F7CFC701B60115
:100130000E942B1B02C061E070E0CB010197F1F738
:10014000FF90EF90DF90CF90BF90AF909F908F90F7
:1001500008958F929F92AF92BF92CF92DF92EF92CB
:10016000FF924B015C012BEA3AEA4AEA50E40E9412
:100170000D1C6B017C0120E030E040E85FE30E9451
:10018000BA1A87FD21C020E030E04FE753E4C701F1
:10019000B6010E94091C181694F420E030E04AE7EA
:1001A00054E4C501B4010E94BE1AFF90EF90DF90A5
:1001B000CF90BF90AF909F908F900C945D00C7013F
:1001C000B6010E942B1B01C061E06A95F1F7FF9018
:1001D000EF90DF90CF90BF90AF909F908F90089559
:1001E0001F93CF93DF931F92CDB7DEB7182F0E94D6
:1001F000CF038CEA0E94DB03812F0E94DB030E9465
:10020000CF038DEA0E94DB0380E00E94E203898332
:100210000E94D50389810F90DF91CF911F9108959E
:100220001F93CF93DF931F92CDB7DEB7182F69834B
:100230000E94CF038CEA0E94DB03812F0E94DB0324
:100240006981862F0E94DB030E94D50385E090E040
:100250000F90DF91CF911F910C9449001F93CF9382
:10026000DF931F92CDB7DEB7182F79830E9410015C
:100270007981672F81E0810F0F90DF91CF911F91DE
:100280000C9410011F93CF93DF93182F0E94F0005E
:10029000C82FD0E081E0810F0E94F0009E01382B32
:1002A000C901DF91CF911F91089580FF02C0DC9AB0
:1002B00001C0DC9881FF02C0DD9A01C0DD9882FF99
:1002C00002C0DE9A01C0DE9883FF02C0DF9A089563
:1002D000DF98089589B382958170CD998260CE9917
:1002E0008460CF9988600895CF93DF93D498D59890
:1002F000D698D798DA9ADB9A0E946A0190E1899F92
:10030000E0011124DB98DB9A0E946A01DB98E7EC9C
:10031000F0E03197F1F700C000008C2BDF91CF9116
:100320000895D9980C947401CF93C82FD49AD59A74
:10033000D69AD79ADA98DB9A82958F700E945501E7
:10034000DB98DB9A8C2F0E945501DB980E9491016B
:1003500087FDFCCFCF910895D9980C949401D99A38
:100360000C949401D99A0C947401CF93DF93EC010F
:100370008991882319F00E94AF01FACFDF91CF91C4
:10038000089590E4699F800D112480680C94AC015D
:1003900081E00E94AC018FE39FE10197F1F700C07B
:1003A0000000089582E00E94AC018FE39FE1019775
:1003B000F1F700C000000895C09A0895CF93D49A31
:1003C000D59AD69AD79AD39AD19AD29A8FE59AEE9D
:1003D0000197F1F700C00000D998DB98DA98C3E0E4
:1003E000DB9A83E00E945501DB988FE19EE4019740
:1003F000F1F700C00000C15099F7DB9A82E00E943B
:100400005501DB988FE99FE00197F1F700C00000EC
:1004100088E20E94AC0188E00E94AC0181E00E9469
:10042000AC0186E00E94AC018CE00E94AC01B89A5D
:10043000CF910C94DC01C0980895CF93DF93CDB792
:10044000DEB761970FB6F894DEBF0FBECDBF4AE0AE
:10045000BE016F5F7F4F0E94971D0E94B50161969C
:100460000FB6F894DEBF0FBECDBFDF91CF910895D8
:100470006F927F928F929F92AF92BF92CF92DF92B4
:10048000EF92FF920F931F93CF93DF9300D0CDB7DE
:10049000DEB76B017C0149835A830E942B1B9B01B1
:1004A00049815A8177FF04C022273327261B370B47
:1004B000293E334008F09EC08A014530510510F0B6
:1004C00004E010E0C701B6010E94261B4B015C014D
:1004D000CB010E941D0281E090E02AE0622E712C87
:1004E0002AE08017910740F4F3012E9F30012F9FDF
:1004F000700C11240196F5CF012B09F47BC080ED1F
:1005000092E00E94B501840197FE04C000271127E4
:1005100008191909B30180E090E00E94571B9B0164
:10052000AC01C701B6010E940D1C0E94261B9B0155
:1005300077FF04C022273327261B370BB9018827F2
:1005400077FD8095982F0E94591B6B017C019301C8
:10055000D8010E943F1A0E94571B9B01AC01C701A2
:10056000B6010E94551A0E942B1B6B017C01AB0146
:1005700081E090E02AE030E06AE04217530740F063
:100580000196F9016E9F90016F9F300D1124F5CFF8
:1005900041E02AE030E05AE06216730640F04F5F17
:1005A000B901569F9001579F300D1124F5CF01E0FE
:1005B00010E0A42EB12CA81AB90A0A151B0538F4AC
:1005C00080E090E00E941D020F5F1F4FF6CFC60132
:1005D0000F900F90DF91CF911F910F91FF90EF90AF
:1005E000DF90CF90BF90AF909F908F907F906F9053
:1005F0000C941D020F900F90DF91CF911F910F91DE
:10060000FF90EF90DF90CF90BF90AF909F908F9032
:100610007F906F900895CF93DF93CDB7DEB761974A
:100620000FB6F894DEBF0FBECDBF40E1BE016F5FD5
:100630007F4F0E94971D0E94B50161960FB6F894F6
:10064000DEBF0FBECDBFDF91CF910895CF92DF9275
:10065000EF92FF920F931F93CF93DF938C016B0167
:100660007A01C0E0D0E0CC15DD0581F0E114F104A1
:1006700011F08CE101C084E10E94AC01011511056B
:1006800019F0C8010E9449002196EDCFDF91CF916A
:100690001F910F91FF90EF90DF90CF900895CF9230
:1006A000DF92EF92FF920F931F93CF93DF938C0112
:1006B0006B017A01C0E0D0E0CC15DD0581F0E114DA
:1006C000F10411F088E101C080E10E94AC01011544
:1006D000110519F0C8010E9449002196EDCFDF9164
:1006E000CF911F910F91FF90EF90DF90CF900895E1
:1006F0000F931F93CF93DF93EC018230910520F08D
:1007000082309105D9F40FC080E80E94AC0108E264
:1007100010E080E20E94AF0101501109011511059E
:10072000C1F7CD2B59F480EC0E94AC01C8E2D0E0B7
:1007300080E20E94AF0121972097D1F7DF91CF91FE
:100740001F910F9108958330910589F030F4813025
:10075000910549F0029749F008958430910549F0D8
:10076000059749F008958CE007C088E005C08EE049
:1007700003C08DE001C08FE00C94AC01BC0180E8A7
:100780009EE30E942B1A862F603138F07727CB0129
:10079000409797FD01969595879580B9089584EACD
:1007A00086BF06B607FEFDCF089584E986BF06B66C
:1007B00004FCFDCF089583B984E886BF06B607FE22
:1007C000FDCF089520E4829FC0011124846886BF74
:1007D00006B607FEFDCF83B108958EB5887F8EBD26
:1007E00008958EB585608EBD08958E98969A8EB5C3
:1007F0008F7B8EBD1092F80289B7806289BF1092FC
:10080000F902BC98C49A08951F920F920FB60F92E6
:1008100011242F933F938F939F9386B597B5209183
:10082000EC023091ED02821B930B26B537B5309365
:10083000ED022093EC022EB530E423272EBD8F313C
:10084000910510F01092F8022091F802222319F07D
:1008500021E02093EB022091F802211111C01092A7
:10086000EA021092E9021092E8022EB520642EBD31
:100870002091F8022F5F2093F80222E02093EB02F0
:100880002091EB02213009F05AC09C012A50310915
:100890002531310510F01092EB022091EB0221304E
:1008A00009F04DC0429728F08091F8028F5F809345
:1008B000F8028091F8028230E8F18091F80280FD20
:1008C00039C08091E9029091EA02880F991F9093B4
:1008D000EA028093E9020EB406FE05C0816090939F
:1008E000EA028093E9028091E8028F5F8093E80238
:1008F0008D3000F18091E9029091EA02282F2F7348
:100900002093F7029C01207C3770689415F8369587
:1009100027951694E1F72093F60288279870892F7F
:100920008695869586958093F5021092EB0281E07C
:100930008093F9028091F8028F5F8093F802809192
:10094000EB02811105C01092F8028EB58F7B8EBD2F
:100950009F918F913F912F910F900FBE0F901F90FD
:10096000189586B382958F7091E08927817090E009
:1009700008951092F9028FEF8093F7028093F602A8
:100980000895CF93C82F8A3019F48DE00E94C104D6
:100990005D9BFECFCCB9CF9108955F9BFECF8CB10C
:1009A000089590BD89B988E18AB986E880BD089527
:1009B0005F9B02C08CB1089580E008958A98929A56
:1009C0008B98939A8D98959A8C98949AA298AA9AB3
:1009D000A398AB9AA498AC9AA598AD9AA698AE9A0B
:1009E000A798AF9A87E690E00E94D1048EE690E047
:1009F000909339038093380380E690E09093370317
:100A000080933603089580EA089580E2089580E88F
:100A1000089523E0969587952A95E1F70895CF9359
:100A2000DF9398E0899FE0011124803250F58C2FEC
:100A30000E94F00080931C038C2F8F5F0E94F000B7
:100A400080931D038C2F8E5F0E94F00080931E0305
:100A50008C2F8D5F0E94F00080931F038C2F8C5F82
:100A60000E94F000809320038C2F8B5F0E94420134
:100A700090932203809321038C2F895F0E94F000C2
:100A800032C0CE019A95E199FECF0E94A91F8093B2
:100A90001C03CE018F5F91090E94A91F80931D0343
:100AA000CE018E5F91090E94A91F80931E03CE0183
:100AB0008D5F91090E94A91F80931F03CE018C5F57
:100AC00091090E94A91F80932003CE018B5F910999
:100AD0000E94B11F9093220380932103CE01895F6E
:100AE00091090E94A91F80932303DF91CF9108955C
:100AF000CF9360E070E080E09FE30E9474088091F3
:100B000022038F93809121038F93809120031F9262
:100B10008F9380911F031F928F9380911C031F92CC
:100B20008F9380911D031F928F9380911E031F92BC
:100B30008F9387ED90E09F938F930E94BC1D8091CF
:100B40002303C4E66C2F0E941F1A2DB73EB7225F05
:100B50003F4F0FB6F8943EBF0FBE2DBF992301F152
:100B60001F929F9383EF90E09F938F930E94BC1DF1
:100B7000809123036C2F0E941F1A0F900F900F90EB
:100B80000F90813019F483E091E004C0823041F489
:100B90008CE091E09F938F930E94BC1D0F900F906B
:100BA0008AE090E0CF910C94D01DFF920F931F9399
:100BB000CF93DF93F82EC0E0D0E007E111E08C2F57
:100BC00021969C2F91509F1578F40E940F05DF937A
:100BD000CF931F930F930E94BC1D0E9478050F9026
:100BE0000F900F900F90EBCFDF91CF911F910F914E
:100BF000FF9008958EEF0E94261733E09695879513
:100C00003A95E1F708958CEF0E94261743E09695F8
:100C100087954A95E1F708958EEF0E942617BC014B
:100C20008CEF0C9412178CEF0E94261753E09695C8
:100C300087955A95E1F70E94D5050C940C06CF9341
:100C40000E940306C82F0E94FA058C1740F40E94E8
:100C5000FA05C82F0E94030691EA9C0F06C00E9465
:100C6000FA05C82F0E9403069C2F981B892FCF914D
:100C700008950E941F06815008950E9439060C9421
:100C8000D5056F927F928F929F92AF92BF92CF9233
:100C9000DF92EF92FF920F931F93CF93DF9308E0C1
:100CA00013E077247394CC24CA9473E0D72EE4E63F
:100CB0006E2EEE24EA94F12CF8018081882309F449
:100CC000BFC00E946B0885E090E00E9449000E942E
:100CD00010198EEF0E942617EC0163E09695879518
:100CE0006A95E1F7803240F4C7018C1B9D0B079792
:100CF0000CF053C0C0E0D1E0E199FECF5E01FFEF00
:100D0000AF1AB10860912703CE019A950E94B71FD0
:100D1000E199FECF4E018EEF881A91086091180379
:100D2000C5010E94B71FE199FECF5E019DEFA91A90
:100D3000B10860911703C4010E94B71FE199FECF6B
:100D40004E01ECEF8E1A910860912F03C5010E94AD
:100D5000B71FE199FECF5E01FBEFAF1AB1086091BA
:100D60001903C4010E94B71FE199FECF60912803C7
:100D700070912903C5010E94C41FCE01895F9109AA
:100D8000F8012081672D269D600D1124E199FECF89
:100D9000C85FD1090E94B71F40C0609127038C2F04
:100DA0000E941001609118038C2F8F5F0E94100128
:100DB000609117038C2F8E5F0E94100160912F03AA
:100DC0008C2F8D5F0E941001609119038C2F8C5F16
:100DD0000E94100160912803709129038C2F8B5F72
:100DE0000E942E01F80180815E01F8E0AF0EB11C77
:100DF000672D869D600D11248C2F895F0E94100144
:100E0000C7018A199B090797BCF460E070E088EC81
:100E100092E40E947408C0E0D0E0C6018C1B9D0BD8
:100E200007972CF560E070E08AEF93E40E94740865
:100E30000E943D06A12CB12CB5018EEF0E94121725
:100E400073940F5F1F4FFBE07F1236CF82E0DF917C
:100E5000CF911F910F91FF90EF90DF90CF90BF90B7
:100E6000AF909F908F907F906F900C948308BE01FD
:100E70007395E3CF10922D03829903C081E0809394
:100E80002D0380912D03089510922D03839903C0A3
:100E900081E080932D0380912D03089510922D03FE
:100EA000859903C081E080932D0380912D030895DF
:100EB00010922D03849903C081E080932D038091CB
:100EC0002D03089510922D039A9903C081E0809319
:100ED0002D0380912D03089510922D039B9903C03B
:100EE00081E080932D0380912D03089510922D03AE
:100EF0009C9903C081E080932D0380912D03089578
:100F000010922D039D9903C081E080932D03809161
:100F10002D03089510922D039E9903C081E08093C4
:100F20002D0380912D03089510922D039F9903C0E6
:100F300081E080932D0380912D030895811102C0DB
:100F40000C943A07813011F40C944407823011F468
:100F50000C944E07833011F40C945807843011F42C
:100F60000C946207853011F40C946C07863011F4F0
:100F70000C947607873011F40C948007883011F4B4
:100F80000C948A07893011F40C9494078FEF08951C
:100F90001F93CF93DF93CEEFD2E010E0812F0E941A
:100FA0009E0789931F5F1A30C9F7DF91CF911F9178
:100FB0000895BF92CF92DF92EF92FF920F931F930B
:100FC000CF93DF93AEEFEA2EA2E0FA2EC8E0D3E093
:100FD000D12C00E010E0CC24C394B2E0BB2E8D2DC8
:100FE0000E949E07F7019081891741F0813011F42A
:100FF000B88206C0811104C0C88202C0188202C033
:1010000001E010E0F70181937F01D3942196FAE08B
:10101000DF12E5CF012B59F0DF91CF911F910F9196
:10102000FF90EF90DF90CF90BF900C944106DF913E
:10103000CF911F910F91FF90EF90DF90CF90BF90D5
:101040000895CF93DF93C0E0D0E060E08C2F0E9442
:1010500010012196C11581E0D807B9F7C0E0D0E0B2
:10106000E199FECF60E0CE010E94B71F2196C11525
:1010700084E0D807A9F7DF91CF910C940C062F924A
:101080003F921092FB021092FA028091FA02909124
:10109000FB0220911A0330911B0382179307C4F4BB
:1010A000D101ED91FC91E80FF91F80810E94AF0101
:1010B00060E070E088E492E40E945D008091FA02B2
:1010C0009091FB0201969093FB028093FA02DDCF90
:1010D0003F902F900895979A60E070E080E89FE33A
:1010E0000E945D0097980895979A0E945D009798D6
:1010F000089560E070E080E291E40E94740884E664
:1011000080937C000895811103C010927C000895A3
:10111000813021F48FEF80937C000895823011F4A8
:101120000C94790808950F931F93CF93DF932AE0CF
:1011300030E0C1E04AE08217930740F0CF5FB90189
:10114000469F9001479F300D1124F5CF3093FB024D
:101150002093FA02909326038093250380E090E089
:101160000E9478031092FB021092FA028C2F90E0FA
:10117000C7E2D0E0C81BD90B8C010D5F1F4F8091D7
:10118000FA029091FB028C179D07FCF460E00E942C
:10119000C10180912503909126030E941D0261E008
:1011A0008091FA020E94C10180912503909126034B
:1011B0000E941D028091FA029091FB02800F911F04
:1011C0009093FB028093FA02DACF60E070E08AEF3E
:1011D00093E40E945D0081E08093F102DF91CF9162
:1011E0001F910F91089520912503309126034AE025
:1011F000429FC001439F900D1124893E23E0920736
:1012000010F088EE93E0909326038093250380915D
:101210002503909126030C949308809125039091C7
:1012200026036AE070E00E942B1A6115710529F00F
:10123000709326036093250306C081E090E09093AD
:1012400026038093250380912503909126030C9417
:101250009308CF93DF93EC011092F1020E94C80132
:101260008CE191E00E94B501CE010E941D0261E077
:1012700080E00E94C101209719F486E291E022C02B
:10128000C130D10519F485E391E01CC0C230D1050D
:1012900019F485E491E016C0C330D10519F48EE449
:1012A00091E010C0C430D10519F48CE591E00AC07A
:1012B000C530D10519F48CE691E004C0269721F4DD
:1012C0008BE191E00E94B5011092FB021092FA02AC
:1012D0008091FA029091FB020597B4F460E070E00F
:1012E00080EF91E40E945D0060E070E080EA90E4AD
:1012F0000E9474088091FA029091FB0201969093EB
:10130000FB028093FA02E4CF60E070E08AEF93E49E
:101310000E945D0041E050E06FE070E084E190E009
:101320000E9426030E94C80181E08093F102DF91B0
:10133000CF910895811103C08BE791E01DC08130EA
:1013400019F48FE791E018C0823019F483E891E036
:1013500013C0833019F487E891E00EC0843019F48B
:101360008BE891E009C0853019F48FE891E004C062
:10137000863021F483E991E00C94B501089560E092
:101380008091F3020E94C101809117038A3024F4F6
:1013900080E090E00E941D0280911703992787FD4D
:1013A00090950E941D028EE992E00E94B501809105
:1013B00018038A3024F480E090E00E941D0280919E
:1013C0001803992787FD90950E941D028EE992E0EF
:1013D0000E94B501809127038A3024F480E090E0D8
:1013E0000E941D0280912703992787FD90950E94F6
:1013F0001D028EE992E00E94B501809116038A30A9
:1014000024F480E090E00E941D0280911603992749
:1014100087FD90950C941D020E94BF0961E08091A8
:10142000F3020E94C10180912F038A3024F480E0EE
:1014300090E00E941D0280912F03992787FD9095CF
:101440000E941D028EE992E00E94B501809119036D
:101450008A3024F480E090E00E941D0280911903FC
:10146000992787FD90950E941D028EE992E00E94C7
:10147000B50180912803909129030E941D0261E02B
:101480008DE00E94C10180912A030C949A09CF93A8
:10149000C82F81110E94BF0961E08091F3020E9470
:1014A000C101C230C1F580911903811103C087E9E0
:1014B00091E02EC01092FB021092FA022091FA02E3
:1014C0003091FB02273031050CF5809119039927E3
:1014D00087FD909502C0959587952A95E2F780FF44
:1014E0000BC08FE991E00E94B5018091FA029091C2
:1014F000FB0201960E941D028091FA029091FB026C
:1015000001969093FB028093FA02D8CF8FE991E085
:10151000CF910C94B501C33019F580912F038A3017
:1015200024F480E090E00E941D0280912F0399270F
:1015300087FD90950E941D028EE992E00E94B50100
:10154000809119038A3024F480E090E00E941D020B
:1015500080911903992787FD9095CF910C941D02D6
:10156000CF910895423041F4209125033091260314
:1015700031952195310909C0413029F42091250385
:101580003091260302C020E030E0611106C0909146
:101590001703920F9093170317C0613031F49091A5
:1015A0001803920F909318030FC0623031F490919A
:1015B0002703920F9093270307C0633029F490917B
:1015C0001603920F90931603882311F0833031F5A0
:1015D000643031F480912F03820F80932F0308959C
:1015E000653021F480911903820F7EC081117EC085
:1015F000663059F48091280390912903820F931F3C
:1016000090932903809328030895673009F06EC0F2
:1016100080912A03820F80932A030895823009F073
:1016200065C0643069F4413021F480911903816010
:101630005BC0423009F05AC0809119038E7F54C0BC
:10164000653069F4413021F48091190382604CC007
:10165000423009F04BC0809119038D7F45C0663040
:1016600061F4413021F48091190384603DC042301F
:10167000E9F5809119038B7F37C0673061F4413001
:1016800021F48091190388602FC0423079F5809150
:101690001903877F29C0683061F4413021F48091BB
:1016A0001903806121C0423009F5809119038F7EB2
:1016B0001BC0693061F4413021F4809119038062CC
:1016C00013C0423099F4809119038F7D0DC06A30A8
:1016D00069F4413021F480911903806405C04230DF
:1016E00029F4809119038F7B809319030895CF9378
:1016F000DF93D82FC62F6F3F51F4209125033091EF
:1017000026032230310580F081E090E00BC0643088
:1017100058F420912503309126032B30310520F019
:101720008AE090E00E949308DD2311F0D330F9F4B1
:101730008CEF8C0F823058F42091250330912603D2
:101740002B30310520F08AE090E00E949308D111FF
:101750000EC0C73061F48091250390912603029753
:1017600030F081E090E0DF91CF910C949308DF910D
:10177000CF910895882361F0813061F0823021F0AB
:10178000833021F486E008958BE0089580E0089589
:1017900088E0089584E00895CF93DF93D82FC62F73
:1017A0001092F10280E090E00E94780360E0809166
:1017B000F3020E94C1018D2F0E94BA0B4C2F5527B6
:1017C00047FD5095282F30E04217530769F4D11197
:1017D00003C081EA91E05BC0D53019F482EB91E05F
:1017E00056C082EC91E053C0C11103C084E691E081
:1017F0000EC0C13019F481ED91E009C0C23019F476
:1018000088ED91E004C0C33021F480EE91E00E94A5
:10181000B501DD2311F0D330B1F4C43019F48DEEED
:1018200091E035C0C53019F483EF91E030C0D1119B
:1018300030C0C63019F48BEF91E029C0C73049F5AC
:101840008FEF91E024C0D23021F5C43019F48EE03E
:1018500092E01DC0C53019F48BE192E018C0C6308B
:1018600019F482E292E013C0C73019F488E292E0E2
:101870000EC0C83019F481E392E009C0C93019F4F0
:1018800088E392E004C0CA3021F48FE392E00E9422
:10189000B50180E991E00E94490081E08093F10266
:1018A000DF91CF910895811103C089E492E00EC0C9
:1018B000813019F489E592E009C0823019F489E693
:1018C00092E004C0833021F48AE792E00C94B501E1
:1018D00008958091170387FF04C087E18093170361
:1018E00004C0883114F0109217038091180387FF09
:1018F00004C08BE38093180304C08C3314F010925F
:1019000018038091270387FF04C08BE3809327038C
:1019100004C08C3314F0109227038091160387FFC4
:1019200004C083E6809316030895843614F0109261
:101930001603089590911903191624F0823049F086
:101940009CE005C09D302CF0823019F091E090931E
:10195000190390911903492F4D7F2091280330914D
:1019600029034130C9F09530B9F059EF590F523081
:1019700098F09A3089F09C3079F0443079F0493011
:1019800069F0923069F4A90143705527452B41F065
:10199000811106C08CE105C08FE103C08EE101C05A
:1019A0008DE140912F03141644F4552747FD5095BF
:1019B00090E0841795071CF481E080932F03213F6A
:1019C00088ED38071CF48FE097E205C020313742DC
:1019D00034F081EF98ED9093290380932803809150
:1019E0002A0387FF04C086E080932A030895873086
:1019F00014F010922A0308951F93CF93DF930E944F
:101A00001D0280ED92E00E94B50180911E038A3094
:101A100020F480E090E00E941D0280911E0390E07F
:101A20000E941D028EE992E00E94B50180911D0383
:101A30008A3020F480E090E00E941D0280911D0316
:101A400090E00E941D028EE992E00E94B501809113
:101A50001C038A3020F480E090E00E941D028091F7
:101A60001C0390E00E941D028AE191E00E94B501F2
:101A700080911F038A3020F480E090E00E941D02D4
:101A800080911F0390E00E941D028EE992E00E9467
:101A9000B501809120038A3020F480E090E00E941C
:101AA0001D028091200390E00E941D028EE992E0C9
:101AB0000E94B50180912103909122030E941D0292
:101AC0008AE191E00E94B5018091230314E6612F21
:101AD0000E941F1AC92FD0E0209721F18BE892E0D5
:101AE0000E94B501CE010E941D028AE191E00E9490
:101AF000B50180912303612F0E941F1A90E09093FB
:101B0000FB028093FA028130910519F483E091E0A1
:101B100004C0029739F48CE091E0DF91CF911F91DE
:101B20000C94B501DF91CF911F910895CF93DF936E
:101B3000EC018091F402833049F48C2F0E940F0550
:101B4000CE010196DF91CF910C94FC0C853029F4E5
:101B50008C2FDF91CF910C94530CDF91CF9108958E
:101B60000F931F93CF93DF93EC018B01CF3F8FEF48
:101B7000D80739F060E080E00E94C101CE010E94E8
:101B8000960DC017D10761F061E080E00E94C101AD
:101B9000CE010196DF91CF911F910F910C94960D7C
:101BA000DF91CF911F910F9108958091250390911E
:101BB0002603029720F081E090E00E949308809134
:101BC000F00287301CF01092F00205C087FF03C0BE
:101BD00086E08093F00280E090E00E94780360E06D
:101BE00080E00E94C1018FE892E00E94B50161E0AF
:101BF00080E00E94C10180EA92E00E94B5018091DC
:101C0000F002992787FD90950E941D0284EA92E0D8
:101C10000C94B50180E090E00E94780360E080E0E1
:101C20000E94C1018091F70290E00E941D0260E0D5
:101C300086E00E94C1018091F60290E00E941D02A0
:101C400061E080E00E94C1018091F50290E00C9477
:101C50001D021092F3020E94101980E090E00E9491
:101C6000780360E08BE00E94C1018091F202811153
:101C700003C08DEA92E004C0813021F48FE991E045
:101C80000E94B5010E940C0A80912E038823F1F076
:101C90000E94001985E18093F30260E082E10E94D6
:101CA000C1018FE991E00E94B50161E082E10E94EB
:101CB000C1018FE991E00E94B50161E08091F302DA
:101CC0000E94C10180912E030E94470A60E08CE0CF
:101CD0000E94C1010E94CF1941E050E00C943802EB
:101CE00080E090E00E947803809125039091260384
:101CF0000B9720F08AE090E00E94930880911403F3
:101D0000909115038F3F9F4F2CF40E94390690E06D
:101D100001970CC00E94390690E020911403309185
:101D200015032817390734F08FEF9FEF90931503B1
:101D3000809314030E943906682F70E06150710986
:101D400080911403909115030C94B00D80912E0393
:101D500087FD10922E0360912E0380E00E94770B86
:101D600080E090E00E94780380912E038830F9F49F
:101D70002091160340912703609118038091170367
:101D80000E9495172091280330912903409119034F
:101D900060912A0380912F030E940F181092F10284
:101DA0000E94C80181E08093FD0280937E004091F3
:101DB0002403442339F060912E0380E00E94B20A8C
:101DC000109224030E94690C80E00E949A0C1092E9
:101DD000F3020E940C0A8091FD02813039F4609177
:101DE0002E0380E00E94CC0B1092FD020895EF922A
:101DF0000F93CF93DF9380912E038F3F1CF48FEFCF
:101E000080932E0360912E03809114030E94770B20
:101E100080912E038F3F19F580E090E00E947803B7
:101E200080911403909115038F3F2FEF92071CF4BC
:101E300083E090E004C0049734F08FEF9FEF90931D
:101E400015038093140363E070E080911403909174
:101E50001503DF91CF910F91EF900C94B00D80E0BE
:101E600090E00E947803C0911403D09115038C2F49
:101E70000E94BA0B20912E03332727FD309590E066
:101E80002817390729F0CE010196029708F044C0BF
:101E900081E080937E008093FD02CF3F8FEFD807D3
:101EA000D9F1209729F40E948C180E94021734C09F
:101EB000C130D10569F40E94941820911603409115
:101EC000270360911803809117030E94BC1824C057
:101ED000C230D10579F40E94A41800911603209114
:101EE00027034091180360911703809119030E9402
:101EF000DC1812C0239781F40E94B418E0901603F6
:101F00000091270320911803409117036091190352
:101F100080912F030E94EC1840912403442341F048
:101F200060912E03809114030E94B20A1092240340
:101F30000E94690C809114030E949A0C1092F30283
:101F4000809114030E94470A8091FD028130A1F420
:101F50008091140390911503892B31F485E090E072
:101F6000909315038093140360912E0380911403C2
:101F70000E94CC0B1092FD02DF91CF910F91EF9058
:101F8000089580E090E00C9478038091F402811130
:101F900002C00C94D50D813011F40C940A0E8230DD
:101FA00011F40C94290E833011F40C94700E8430CB
:101FB00011F40C94A60E853011F40C94F70E8630B3
:101FC00011F40C94C10F08952F923F92AF92BF92DB
:101FD000CF92DF92EF92FF920F931F93CF93DF93F5
:101FE000CDB7DEB7C055D1090FB6F894DEBF0FBE2E
:101FF000CDBF6C018932910509F0F7C10E94ED0354
:102000001092F1020E94C80188E290E090931B03B5
:1020100080931A0380E5E5E8F0E0DE011196019077
:102020000D928A95E1F784E090E00E94701C7C019B
:102030001092FB021092FA0258E2B52E0091FA02B9
:102040001091FB0202301105ACF580E590E00E9492
:10205000701CF801EE0FFF1FEE0DFF1D91838083B2
:1020600010922E0340E0B09E9001B19E300D1124DD
:10207000542FE42FFF27E7FDF0954F5FE832F1057D
:1020800084F4DC01A50FB11D57FDBA95E20FF31FD3
:1020900061E070E06C0F7D1FE60FF71F50815C93CD
:1020A000E7CF50932E030F5F1F4F1093FB02009357
:1020B000FA02C4CF1092FB021092FA028091FA0247
:1020C0009091FB028832910594F4D701ED91FC9137
:1020D000E80FF91F80810E94AF018091FA02909170
:1020E000FB0201969093FB028093FA02E7CF61E036
:1020F00080E00E94C1011092FB021092FA028091CE
:10210000FA029091FB0288329105A4F4D70112964D
:10211000ED91FC911397E80FF91F80810E94AF01A8
:102120008091FA029091FB0201969093FB028093BA
:10213000FA02E5CF88E290E090931B0380931A03A4
:1021400081E080932E0380912E03882309F41CC123
:1021500084E090E00E94701C8C011092FB021092AF
:10216000FA02A090FA02B090FB02E2E0AE16B104CF
:10217000BCF480911A0390911B03880F991F0E9451
:10218000701CF501EE0FFF1FE00FF11F918380839C
:10219000BFEFAB1ABB0AB092FB02A092FA02E1CFEA
:1021A0000E94D2011092FB021092FA028091FA0270
:1021B0009091FB0220911A0330911B038217930721
:1021C0009CF4D801AD90BC90A80EB91E0E94B2013B
:1021D000F50180838091FA029091FB020196909321
:1021E000FB028093FA02E2CF61E080E00E94C1012D
:1021F0001092FB021092FA028091FA029091FB0277
:1022000020911A0330911B0382179307ACF4D80175
:102210001296AD90BC901397A80EB91E0E94B20101
:10222000F50180838091FA029091FB0201969093D0
:10223000FB028093FA02E0CF0E94C80180911A034A
:1022400090911B0340912E0320E030E028173907BE
:102250000CF5F801A081B181A20FB31FF701A08096
:10226000B180A20EB31E6C91D5015C9165130EC0B6
:10227000F801A281B381A20FB31FF701A280B3803E
:10228000A20EB31E6C91D5015C91651340E02F5FE7
:102290003F4FDCCF40932E033093FB022093FA0292
:1022A0000E94B104892B11F010922E0380912E030D
:1022B000811105C01092FB021092FA0248C01092E0
:1022C000FB021092FA028091FA029091FB02209197
:1022D0001A0330911B038217930794F4D801ED91F0
:1022E000FC91E80FF91F80810E94AF018091FA02F2
:1022F0009091FB0201969093FB028093FA02E3CF48
:1023000061E080E00E94C1011092FB021092FA028B
:102310008091FA029091FB0220911A0330911B03E5
:10232000821793073CF6D8011296ED91FC91139712
:10233000E80FF91F80810E94AF018091FA0290910D
:10234000FB0201969093FB028093FA02E1CFA090EA
:10235000FA02B090FB02E2E0AE16B1048CF4F50193
:10236000EE0FFF1FE00FF11F808191810E94081D79
:10237000BFEFAB1ABB0AB092FB02A092FA02E7CF02
:10238000C8010E94081DDFCE1092FB021092FA02D3
:102390000091FA021091FB020230110584F4F80159
:1023A000EE0FFF1FEE0DFF1D808191810E94081D21
:1023B0000F5F1F4F1093FB020093FA02E9CFC70192
:1023C0000E94081D0E946B0860E070E080E291E4CA
:1023D0000E945D000E946B0860E070E080E291E482
:1023E0000E945D000E946B0858C18C30910509F075
:1023F00056C10E94ED031092F1020E94C80184E0D0
:1024000090E00E94A30361E089E00E94C10188EA94
:1024100092E00E94B50160E070E08AEF93E40E94D0
:102420005D000E94D2018FEA92E00E94B50160E057
:1024300070E08AEF93E40E945D0041E050E061E0CB
:1024400070E080E090E00E94260360E070E08FE2A0
:1024500094E40E945D0082E090E00E94A30360E0AB
:1024600070E08FE294E40E945D0081E090E00E94C1
:10247000A30360E070E08FE294E40E945D0082E0DC
:1024800090E00E94A30360E070E08FE294E40E9479
:102490005D0085E090E00E94A30360E070E08AE7C1
:1024A00094E40E945D0084E090E00E94A30340E079
:1024B00050E061E070E080E090E00E94260360E080
:1024C00070E08AE794E40E945D0040E050E061E043
:1024D00070E080E090E00E944F0383E090E00E9473
:1024E000A30360E070E08AE794E40E945D0085E069
:1024F00090E00E94A30361E080E00E94C1018BEBA9
:1025000092E00E94B50160E070E88BEB94E40E94D9
:102510005D0061E089E00E94C10186E090E0909357
:102520001B0380931A030E94701C9A838983109264
:10253000FB021092FA028091FA029091FB02209124
:102540001A0330911B0382179307C4F409811A817F
:10255000080F191F0E94B201D8018C9360E070E04F
:1025600088EC92E40E945D008091FA029091FB0257
:1025700001969093FB028093FA02DDCF41E050E098
:1025800061E070E080E090E00E944F0360E070E85E
:102590008BEB94E40E945D0083E090E00E94A30333
:1025A00080E090E00E94780360E070E88BEB94E4B8
:1025B0000E945D0061E080E00E94C101FE01319651
:1025C0001F010E943F0884E090E00E94A30360E0A6
:1025D00089E00E94C1010E943F0861E088E00E94FA
:1025E000C10185E090E00E94A3030E943F0860E0E3
:1025F00081E00E94C1010E943F0889819A810E9466
:10260000081D83E090E00E94A30360E070E88BEB7C
:1026100094E40E945D0041E050E06FE070E084E1EE
:1026200090E00E94260341E050E06FE070E084E11A
:1026300090E00E944F0381E090E00E94780384E0E4
:1026400090E00E94A30360E070E08AE794E40E94B7
:102650005D0041E050E06FE070E084E190E00E94B6
:102660004F0341E050E06FE070E084E190E00E94B1
:10267000260383E090E00E94A30382E090E00E94A2
:10268000780360E070E08AEF93E40E945D000E94AE
:10269000C80181E090E00E94A3030E94F103C601FB
:1026A0000E94A3030E94C50FC05BDF4F0FB6F894D2
:1026B000DEBF0FBECDBFDF91CF911F910F91FF9075
:1026C000EF90DF90CF90BF90AF903F902F90089504
:1026D0008A32910519F40E940A171EC08B339105A6
:1026E00019F40E94021718C084369105A9F480914C
:1026F000F202813049F41092F20280917C0088232A
:1027000059F00E94790808C0811106C081E08093C9
:10271000F2028FEF80937C0081E08093F1020895B4
:102720008C30910561F461307105A9F50E94C801F2
:1027300083EC92E00E94B5010E94210828C08932F2
:10274000910519F40E943D0626C08032910559F486
:102750008091140390911503209125033091260355
:10276000821B930B0DC08132910579F48091140383
:10277000909115032091250330912603820F931F1A
:10278000909315038093140306C0CB9721F4109205
:1027900015031092140381E08093F10208958031B3
:1027A000910521F480912E038F5F06C08131910540
:1027B00049F480912E03815080932E0381E0809311
:1027C000FD0211C08032910511F481E004C0813214
:1027D000910521F482E08093240305C0CB9719F47E
:1027E00088E080932E0381E08093F1020895803188
:1027F000910521F480912E038F5F06C081319105F0
:1028000049F480912E03815080932E0381E08093C0
:10281000FD0236C08032910589F480912E038F3FEE
:1028200059F4809114039091150320912503309160
:102830002603821B930B13C081E017C081329105E0
:10284000B9F480912E038F3F79F480911403909115
:1028500015032091250330912603820F931F909337
:102860001503809314030CC082E08093240308C0F6
:10287000CB9731F4809114030E94BA0B80932E03FE
:1028800081E08093F102089581E08093F102089540
:102890000F931F93CF93DF93EC018B010E946B0882
:1028A0008091F402811105C0B801CE010E941A1571
:1028B00028C0813029F4B801CE010E94E40F21C064
:1028C000823029F4B801CE010E9468131AC0833007
:1028D00029F4B801CE010E94901313C0843029F46A
:1028E000B801CE010E94CF130CC0853029F4B80185
:1028F000CE010E94F71305C0863019F481E0809361
:10290000F102C632D10551F51092F1020E94C801C0
:1029100082ED92E00E94B50161E080E00E94C10179
:102920008EED92E00E94B50160E070E08AE793E4EA
:102930000E945D0041E050E06FE070E084E190E0D3
:102940000E94260341E050E06FE070E084E190E0F7
:102950000E944F0381E08093F1023EC0CF30D10549
:10296000A1F40115110551F480917C008F3F19F4F9
:1029700010927C0031C00E9479082EC001301105F0
:1029800059F58FEF80937C0027C0CE32D10549F4F2
:1029900041E050E061E070E080E090E00E942603BA
:1029A0002AC0C232D10549F441E050E061E070E054
:1029B00080E090E00E944F0330C0C432D10561F442
:1029C00041E050E06FE070E084E190E0DF91CF9172
:1029D0001F910F910C942603C332D10561F441E09D
:1029E00050E06FE070E084E190E0DF91CF911F91C3
:1029F0000F910C944F03CC32D10531F4DF91CF917C
:102A00001F910F910C94F308CD32D10531F4DF9171
:102A1000CF911F910F910C940D092E9731F4013035
:102A2000110519F481E080937E00DF91CF911F9111
:102A30000F910895CF93DF93EB018B33910509F04C
:102A400041C08091F0028093F40290E00E94290935
:102A50008091F402813009F447C0823061F40E9411
:102A6000C8070E94621880932E03BE0184E690E09E
:102A70000E94481439C0833029F410921503109233
:102A8000140332C0843051F410922E0381E08093FD
:102A9000FD02109224030E94101926C0853021F5F2
:102AA0000E9400198FEF80932E0381E08093FD0236
:102AB000109224030E94621890E090931503809373
:102AC000140312C08032910531F48091F00290918C
:102AD0002503890F07C0819739F48091F002909106
:102AE0002503891B8093F00281E08093F102DF913E
:102AF000CF910895CF93DF9300D000D0CDB7DEB74C
:102B00002091F202213051F46B837C8389839A8374
:102B10000E94ED039A8189817C816B810E94481417
:102B20008091F202813041F40F900F900F900F903E
:102B3000DF91CF910C94F1030F900F900F900F90B5
:102B4000DF91CF9108951092FB021092FA0220912A
:102B50007D008091F502223079F0332727FD3095F2
:102B600090E02817390731F481E090E09093FB0260
:102B70008093FA028091F50280937D000895CF93AF
:102B8000809112038130C9F51092FC021092120359
:102B90000E94D804823519F40E943D0607C082378E
:102BA00019F40E94130602C0882319F081E0809373
:102BB000F1028091F402823081F40E94D90781E011
:102BC0008093F1020E948618813071F40E946B0894
:102BD0000E9413060E94021707C080917C001816FD
:102BE0001CF4815080937C0080917C00811103C093
:102BF0000E941B0202C00E94DC018091F102813020
:102C000021F41092F1020E94C50FC0917E00C130E4
:102C1000E1F410927E008091F40280932E031092D2
:102C2000F4021092F00281E090E0909326038093EA
:102C3000250360E070E08BE390E00E947A158091BC
:102C40002E038093F002C093F1020E94B104892BFD
:102C500091F08EE190E00E9449000E94B104892B1E
:102C600051F060E070E084E690E00E947A1584E61E
:102C700090E00E9449008091F902882391F08091B0
:102C8000F60281110EC00E94A3158091F702609197
:102C9000FA027091FB0290E00E947A15CF910C9499
:102CA000B904CF910895982F92959F708F702AE064
:102CB000929F800D112408956AE00E941F1A292F07
:102CC00030E1839FC0011124822B08951F93CF937D
:102CD000DF931F92CDB7DEB7182F0E94CF0382EA91
:102CE0000E94DB03812F0E94DB030E94CF0383EA53
:102CF0000E94DB0380E00E94E20389830E94D503E7
:102D000089810F90DF91CF911F9108951F93CF93E9
:102D1000DF931F92CDB7DEB7182F69830E94CF03D0
:102D200082EA0E94DB03812F0E94DB036981862FE8
:102D30000E94DB030F90DF91CF911F910C94D5037C
:102D40000E9466160C945316CF93C82F862F0E94AC
:102D50005C16682F8C2FCF910C94861680E00E9411
:102D60006616682F606880E00C94861680E00E94EA
:102D70006616682F6F7780E00C94861680E00E94BC
:102D80006616682F6F7B80E00C94861680E00E94A8
:102D90006616682F606480E00C94861680E00E94BE
:102DA0006616682F677F80E00C94861680E00E948C
:102DB0006616682F627080E00E94861680E00E948E
:102DC0006616682F646080E00E9486160E94BE1618
:102DD0000E94CE1684E00E946616682F6F7384E00E
:102DE0000E94861688E00E946616682F606888E058
:102DF0000C94861680E00E946616682F686080E05A
:102E00000C94861680E00E946616682F6D7F80E025
:102E10000C94861680E00E946616682F626080E03F
:102E20000C9486161F93CF93DF931F92CDB7DEB716
:102E3000182F79830E9486167981672F81E0810F90
:102E40000F90DF91CF911F910C9486161F93CF9313
:102E5000DF93182F0E946616C82FD0E081E0810F03
:102E60000E9466169E01382BC901DF91CF911F91F8
:102E700008951F93CF93DF931F92CDB7DEB7182F1E
:102E8000862F49830E945C164981642F6295660FE4
:102E9000660F607C682B812F0F90DF91CF911F917F
:102EA0000C9486161F93CF93DF931F92CDB7DEB796
:102EB000182F862F49830E945C16498190E2499F12
:102EC000B0011124682B812F0F90DF91CF911F91BA
:102ED0000C948616CF92DF92EF92FF920F931F937E
:102EE000CF93DF93EC017B016A0189010E94C61632
:102EF00081E00E94A016F801808382E00E94A01663
:102F0000F601808383E00E94A016F701808384E0AD
:102F10000E94A0168883DF91CF911F910F91FF909F
:102F2000EF90DF90CF900C94BE160F931F93CF932A
:102F3000DF9300D0CDB7DEB7182F062F29834A8341
:102F40000E94AE162981622F81E00E94A4164A8158
:102F5000642F82E00E94A416602F83E00E94A416D2
:102F6000612F84E00E94A4160F900F90DF91CF9103
:102F70001F910F910C94B616CF92DF92EF92FF92B1
:102F80000F931F93CF93DF93EC017B016A018901BB
:102F90000E94FA160E94C61685E00E9466160E94DC
:102FA0005316888386E00E9466160E945316F60127
:102FB00080830E94CE1686E00E94661682958695D2
:102FC0008770F701808385E00E946616F82E80E105
:102FD0000E946616C82F81E10E946616D0E0D82BA9
:102FE0009E0123703327F294F694F69483E0F8223E
:102FF0008F2D90E02817390729F02196BE0180E136
:103000000E941217F801D183C083DF91CF911F91E5
:103010000F91FF90EF90DF90CF900C94BE16FF922F
:103020000F931F93CF93DF93F82E062F142FE901F0
:10303000B90180E10E9412170E94AE16AE016F2DF9
:1030400085E00E943917402F612F86E00E945217B9
:10305000DF91CF911F910F91FF900C94B616CF92F4
:10306000DF92EF92FF920F931F93CF93DF93EC01C8
:103070007B016A01890189E00E94A016F801808322
:103080008AE00E94A016F60180838BE00E94A016C1
:10309000F70180838CE00E94A0168883DF91CF9196
:1030A0001F910F91FF90EF90DF90CF900895CF93F5
:1030B000C62F682F8DE00E94A4166C2F8EE0CF9152
:1030C0000C94A41688E00E946616807382958F7017
:1030D00008950F931F93CF93DF938C01EB018DE045
:1030E0000E94A016F80180830E946218823029F4A1
:1030F0008EE00E9466168F7703C08EE00E94A016B5
:103100008883DF91CF911F910F91089580E00E94F5
:10311000661686958170089588E00E946616682F6D
:103120006F7C88E00C94861688E00E946616682FF3
:10313000606188E00E94861688E00E946616682F0B
:103140006F7D88E00C94861688E00E946616682FD2
:103150006F7E88E00E94861688E00E946616682FBF
:10316000606288E00C94861688E00E946616682FDC
:10317000606388E00C9486160F931F93CF93DF93C0
:103180001F92CDB7DEB7182F062F622F89E0498333
:103190000E94A4164981642F8AE00E94A416602F21
:1031A0008BE00E94A416612F8CE00F90DF91CF91ED
:1031B0001F910F910C94A4160F93CF93C82F862FB5
:1031C000642F422F202F0E94BC186C2F6F778EE047
:1031D000CF910F910C948616EF920F93CF93DF93BC
:1031E000C82FD62F842F622F402F2E2D0E94BC185F
:1031F0006D2F8C2FDF91CF910F91EF900C9457187A
:1032000026E133E047E253E068E173E087E193E0D1
:103210000E942F1869E173E08FE293E00C94691823
:1032200026E133E047E253E068E173E087E193E0B1
:103230000E946A1728E233E049E153E06AE273E052
:103240008FE293E00C94BC1785B5886085BD8FEF45
:1032500083BD89B7806889BF089585B5876085BDBE
:10326000089585B58E7F85BD08951F920F920FB684
:103270000F9211248F938091FC028A3019F481E01F
:10328000809312038091FC028F5F8093FC028F91E8
:103290000F900FBE0F901F901895882319F0D89AA1
:1032A000D09A0895D0980895D89899B3892F8170AD
:1032B00090FF15C0D09A84EF91E00E945400D098FE
:1032C00086E490E00E94540084EF91E0C89904C025
:1032D0000E94540081E008950E94540080E0089507
:1032E000CF93DF93D82FD898C8E0D09AD0FF08C0EA
:1032F00087E090E00E945400D09886E490E007C0F8
:1033000086E490E00E945400D09887E090E00E940C
:103310005400D695C15049F7DF91CF9108950E948E
:103320005419882339F08CEC0E94701984E40E94AF
:1033300070198FEF0895CF93DF93D098D8E0C0E055
:10334000D09A87E090E00E945400D09887E090E007
:103350000E945400C695C899C06886E490E00E9417
:103360005400D15069F78C2FDF91CF9108950E94BE
:103370005419882389F08CEC0E9470198EEB0E94FE
:1033800070190E949B1980932B030E949B198093B4
:103390002C0381E090E0089580E090E008950E9481
:1033A0008F198823F1F08BE293E00E94B7196091A6
:1033B0002C0370E0762F662780912B03680F711D18
:1033C000882777FD8095982F0E94591B20E030E0D8
:1033D00040E85DE30E940D1C10922B0310922C0319
:1033E000089560E070E0CB0108950E94DE0184E65C
:1033F00090E00E94BE030E94D6168F9A0E94CF19B9
:103400000E9424190E942D190E94F5030E94DE04D7
:103410000E94F10381E08093F2028FEF80937C00A1
:1034200078940E94BF1582E08093F00260E070E023
:103430008BE390E00E947A150E94BF15FDCF991B87
:1034400079E004C0991F961708F0961B881F7A959B
:10345000C9F780950895AA1BBB1B51E107C0AA1F9D
:10346000BB1FA617B70710F0A61BB70B881F991F25
:103470005A95A9F780959095BC01CD0108950E94B9
:10348000461AB7FF0895821B930B0895A29FB001BF
:10349000B39FC001A39F700D811D1124911DB29F88
:1034A000700D811D1124911D08955058BB27AA2726
:1034B0000ED075C166D130F06BD120F031F49F3F52
:1034C00011F41EF45BC10EF4E095E7FB51C1E92F46
:1034D00077D180F3BA17620773078407950718F04E
:1034E00071F49EF58FC10EF4E0950B2EBA2FA02D2E
:1034F0000B01B90190010C01CA01A0011124FF27A1
:10350000591B99F0593F50F4503E68F11A16F0409B
:10351000A22F232F342F4427585FF3CF469537959A
:103520002795A795F0405395C9F77EF41F16BA0B5F
:10353000620B730B840BBAF09150A1F0FF0FBB1F0D
:10354000661F771F881FC2F70EC0BA0F621F731F56
:10355000841F48F4879577956795B795F7959E3FB3
:1035600008F0B3CF9395880F08F09927EE0F979541
:1035700087950895D9D008F481E008950CD00FC143
:1035800007D140F0FED030F021F45F3F19F0F0C0D9
:10359000511139C1F3C014D198F39923C9F35523BC
:1035A000B1F3951B550BBB27AA2762177307840736
:1035B00038F09F5F5F4F220F331F441FAA1FA9F3EC
:1035C00033D00E2E3AF0E0E830D091505040E695DE
:1035D000001CCAF729D0FE2F27D0660F771F881F3F
:1035E000BB1F261737074807AB07B0E809F0BB0B2E
:1035F000802DBF01FF2793585F4F2AF09E3F510552
:1036000068F0B6C000C15F3FECF3983EDCF38695EE
:1036100077956795B795F7959F5FC9F7880F911DC7
:103620009695879597F90895E1E0660F771F881FB3
:10363000BB1F621773078407BA0720F0621B730B66
:10364000840BBA0BEE1F88F7E095089504D06894B8
:10365000B111D9C00895BCD088F09F5790F0B92F10
:103660009927B751A0F0D1F0660F771F881F991FD7
:103670001AF0BA95C9F712C0B13081F0C3D0B1E0E9
:103680000895C0C0672F782F8827B85F39F0B93FF9
:10369000CCF3869577956795B395D9F73EF49095D9
:1036A0008095709561957F4F8F4F9F4F0895E89457
:1036B00009C097FB3EF490958095709561957F4F7A
:1036C0008F4F9F4F9923A9F0F92F96E9BB27939528
:1036D000F695879577956795B795F111F8CFFAF438
:1036E000BB0F11F460FF1BC06F5F7F4F8F4F9F4F69
:1036F00016C0882311F096E911C0772321F09EE8C7
:10370000872F762F05C0662371F096E8862F70E02C
:1037100060E02AF09A95660F771F881FDAF7880F06
:103720009695879597F90895990F0008550FAA0B5C
:10373000E0E8FEEF16161706E807F907C0F01216C4
:103740001306E407F50798F0621B730B840B950BC7
:1037500039F40A2661F0232B242B252B21F408951C
:103760000A2609F4A140A6958FEF811D811D0895B9
:1037700097F99F6780E870E060E008959FEF80EC24
:10378000089500240A9416161706180609060895C7
:1037900000240A9412161306140605060895092E2D
:1037A0000394000C11F4882352F0BB0F40F4BF2B9C
:1037B00011F460FF04C06F5F7F4F8F4F9F4F0895DC
:1037C00057FD9058440F551F59F05F3F71F04795D2
:1037D000880F97FB991F61F09F3F79F087950895B7
:1037E000121613061406551FF2CF4695F1DF08C0D6
:1037F000161617061806991FF1CF869571056105F3
:1038000008940895E894BB2766277727CB0197F99A
:1038100008958ADF08F48FEF08950BD0C0CFB1DF91
:1038200028F0B6DF18F0952309F0A2CFA7CF112416
:10383000EACFC6DFA0F3959FD1F3950F50E0551F57
:10384000629FF001729FBB27F00DB11D639FAA27F5
:10385000F00DB11DAA1F649F6627B00DA11D661F44
:10386000829F2227B00DA11D621F739FB00DA11D65
:10387000621F839FA00D611D221F749F3327A00D1F
:10388000611D231F849F600D211D822F762F6A2FBB
:1038900011249F5750408AF0E1F088234AF0EE0F40
:1038A000FF1FBB1F661F771F881F91505040A9F74D
:1038B0009E3F510570F05CCFA6CF5F3FECF3983E82
:1038C000DCF3869577956795B795F795E7959F5FB4
:1038D000C1F7FE2B880F911D9695879597F908954E
:1038E000CF93DF938230910510F482E090E0E09175
:1038F0003403F091350320E030E0A0E0B0E03097F1
:1039000039F14081518148175907B8F048175907D4
:1039100071F482819381109729F013969C938E9372
:1039200012972CC0909335038093340327C0211540
:10393000310531F04217530718F0A901DB0101C02E
:10394000EF019A01BD01DF010280F381E02DD7CFA5
:1039500021153105F9F0281B390B2430310580F48D
:103960008A819B816115710521F0FB01938382831C
:1039700004C09093350380933403FE01329644C013
:10398000FE01E20FF31F8193919322503109398395
:1039900028833AC02091320330913303232B41F422
:1039A00020918100309182003093330320933203C1
:1039B00020917F00309180002115310541F42DB711
:1039C0003EB74091830050918400241B350BE09159
:1039D0003203F0913303E217F307A0F42E1B3F0BE1
:1039E0002817390778F0AC014E5F5F4F2417350771
:1039F00048F04E0F5F1F509333034093320381937F
:103A0000919302C0E0E0F0E0CF01DF91CF91089503
:103A1000CF93DF93009709F487C0FC01329713829C
:103A20001282C0913403D0913503209781F4208114
:103A30003181280F391F809132039091330382170F
:103A4000930779F5F0933303E09332036DC0DE0101
:103A500020E030E0AE17BF0750F412964D915C9114
:103A600013979D014115510509F1DA01F3CFB38395
:103A7000A28340815181840F951F8A179B0771F49F
:103A80008D919C911197840F951F0296918380834D
:103A900012968D919C911397938382832115310502
:103AA00029F4F0933503E09334033EC0D901139613
:103AB000FC93EE9312974D915D91A40FB51FEA17F9
:103AC000FB0779F480819181840F951F0296D901BB
:103AD00011969C938E938281938113969C938E93DF
:103AE0001297E0E0F0E08A819B81009719F0FE01D7
:103AF000EC01F9CFCE01029628813981820F931F04
:103B000020913203309133032817390769F4309735
:103B100029F4109235031092340302C013821282EA
:103B2000D0933303C0933203DF91CF910895BB2725
:103B30004A3031F4992322F4BDE2909581959F4F4C
:103B40000C94A31DBB27FB015527AA27880F991F9B
:103B5000AA1FA41710F0A41B83955051B9F7A05DBC
:103B6000AA3308F0A95DA193009779F7B111B19339
:103B70001192CB010C94DF1FA0E0B0E0E2ECFDE17C
:103B80000C949F20FE01359661917191AF01809157
:103B90003803909139030E94D71DE2E00C94BB20BA
:103BA00060913803709139030E94EF1F0895ACE0D3
:103BB000B0E0EDEDFDE10C948F207C016B018A01FA
:103BC000FC0117821682838181FFBDC1CE0101965F
:103BD0004C01F7019381F60193FD859193FF81914B
:103BE0006F01882309F4ABC1853239F493FD8591C7
:103BF00093FF81916F01853229F4B70190E00E9413
:103C0000EF1FE7CF512C312C20E02032A0F48B3273
:103C100069F030F4803259F0833269F420612CC0AD
:103C20008D3239F0803339F4216026C0226024605F
:103C300023C0286021C027FD27C030ED380F3A305F
:103C400078F426FF06C0FAE05F9E300D1124532E53
:103C500013C08AE0389E300D1124332E20620CC030
:103C60008E3221F426FD6BC1206406C08C3611F41F
:103C7000206802C0883641F4F60193FD859193FFD8
:103C800081916F018111C1CF982F9F7D9554933001
:103C900028F40C5F1F4FFFE3F9830DC0833631F02A
:103CA000833771F0833509F05BC022C0F801808151
:103CB00089830E5F1F4F44244394512C540115C037
:103CC0003801F2E06F0E711CF801A080B18026FF70
:103CD00003C0652D70E002C06FEF7FEFC5012C8738
:103CE0000E94D41F2C0183012C852F77222E17C010
:103CF0003801F2E06F0E711CF801A080B18026FF40
:103D000003C0652D70E002C06FEF7FEFC5012C8707
:103D10000E94C91F2C012C852068222E830123FCC0
:103D20001BC0832D90E048165906B0F4B70180E21D
:103D300090E00E94EF1F3A94F4CFF50127FC8591A3
:103D400027FE81915F01B70190E00E94EF1F3110C3
:103D50003A94F1E04F1A51084114510471F7E5C04B
:103D6000843611F0893639F5F80127FF07C06081E4
:103D70007181828193810C5F1F4F08C060817181C6
:103D8000882777FD8095982F0E5F1F4F2F76B22ED4
:103D900097FF09C090958095709561957F4F8F4FE3
:103DA0009F4F2068B22E2AE030E0A4010E9421201B
:103DB000A82EA81844C0853729F42F7EB22E2AE0F9
:103DC00030E025C0F22FF97FBF2E8F36C1F018F4F6
:103DD000883579F0B4C0803719F0883721F0AFC04A
:103DE0002F2F2061B22EB4FE0DC08B2D8460B82E13
:103DF00009C024FF0AC09F2F9660B92E06C028E094
:103E000030E005C020E130E002C020E132E0F801FE
:103E1000B7FE07C060817181828193810C5F1F4F63
:103E200006C06081718180E090E00E5F1F4FA401A9
:103E30000E942120A82EA818FB2DFF77BF2EB6FECA
:103E40000BC02B2D2E7FA51450F4B4FE0AC0B2FC7B
:103E500008C02B2D2E7E05C07A2C2B2D03C07A2C6A
:103E600001C0752C24FF0DC0FE01EA0DF11D8081FB
:103E7000803311F4297E09C022FF06C07394739425
:103E800004C0822F867809F0739423FD13C020FFAD
:103E900006C05A2C731418F4530C5718732C73144F
:103EA00068F4B70180E290E02C870E94EF1F7394C2
:103EB0002C85F5CF731410F4371801C0312C24FF72
:103EC00012C0B70180E390E02C870E94EF1F2C8581
:103ED00022FF17C021FF03C088E590E002C088E7F9
:103EE00090E0B7010CC0822F867859F021FD02C006
:103EF00080E201C08BE227FD8DE2B70190E00E94D5
:103F0000EF1FA51438F4B70180E390E00E94EF1F83
:103F10005A94F7CFAA94F401EA0DF11D8081B701FC
:103F200090E00E94EF1FA110F5CF332009F451CE8D
:103F3000B70180E290E00E94EF1F3A94F6CFF701BC
:103F40008681978102C08FEF9FEF2C96E2E10C945F
:103F5000AB20E199FECF9FBB8EBBE09A99278DB332
:103F60000895A8E1B0E042E050E00C948120262FB3
:103F7000E199FECF9FBB8EBB2DBB0FB6F894E29AA2
:103F8000E19A0FBE019608950E94B71F272F0C9447
:103F9000B81FFC010590615070400110D8F7809562
:103FA00090958E0F9F1F0895FC0161507040019005
:103FB0000110D8F7809590958E0F9F1F0895DC0112
:103FC000FC01672F71917723E1F7329704C07C9150
:103FD0006D9370836291AE17BF07C8F308950F9376
:103FE0001F93CF93DF93182F092FEB018B8181FD56
:103FF00003C08FEF9FEF20C082FF10C04E815F8112
:104000002C813D81421753077CF4E881F9819F019F
:104010002F5F3F4F39832883108306C0E885F985D9
:10402000812F0995892B29F72E813F812F5F3F4FE3
:104030003F832E83812F902FDF91CF911F910F917E
:104040000895FA01AA27283051F1203181F1E8942E
:104050006F936E7F6E5F7F4F8F4F9F4FAF4FB1E07B
:104060003ED0B4E03CD0670F781F891F9A1FA11D76
:10407000680F791F8A1F911DA11D6A0F711D811D77
:10408000911DA11D20D009F468943F912AE0269F3C
:1040900011243019305D3193DEF6CF010895462F9B
:1040A0004770405D4193B3E00FD0C9F7F6CF462F7C
:1040B0004F70405D4A3318F0495D31FD40524193E5
:1040C00002D0A9F7EACFB4E0A695979587957795A2
:1040D0006795BA95C9F700976105710508959B0129
:1040E000AC010A2E06945795479537952795BA95B2
:1040F000C9F7620F731F841F951FA01D0895DC016F
:10410000CB01FC01E199FECF06C0FFBBEEBBE09AFC
:1041100031960DB20D9241505040B8F708952F924C
:104120003F924F925F926F927F928F929F92AF9247
:10413000BF92CF92DF92EF92FF920F931F93CF9394
:10414000DF93CDB7DEB7CA1BDB0B0FB6F894DEBF2B
:104150000FBECDBF09942A88398848885F846E8451
:104160007D848C849B84AA84B984C884DF80EE809B
:10417000FD800C811B81AA81B981CE0FD11D0FB6A4
:10418000F894DEBF0FBECDBFED010895F894FFCFC8
:1041900000000001000000000000CD04000000004D
:1041A000000200000000C10400000000FF02010046
:1041B000003C03200041546D65676133322070720A
:1041C0006F6772616D6162636465666768696A6B77
:1041D0006C6D6E6F707172737475767778446172FE
:1041E0006975737A204D2E2070726F6A2E797A313C
:1041F0003233343536373839303938373635343369
:1042000032312140240600253032643A25303264B0
:104210003A2530326420253032643A253032643A0F
:1042200025640020535A41464B41204E523A2025E6
:104230006420004F54574152434945005A414D4B69
:104240004E49454349450025642E200050726F6752
:1042500072616D3A200050524F4752414D20474CF9
:104260004F574E590050524F4752414D20544553DD
:10427000544F575900435A5557414E494500444100
:104280004E45202D20454550524F4D004E41535430
:1042900041574120474F445A494E59004E415354CB
:1042A00041574120414C41524D5500506E2E005710
:1042B000742E0053722E00437A2E0050742E005339
:1042C0006F2E004E642E002D2D2D2D2D2D2D007CBA
:1042D000005A41504953414E4F20474F445A494E8E
:1042E000450057594C41435A4F4E4F20414C415283
:1042F0004D005A41504953414E4F20414C41524D7F
:10430000004D494E5554590053454B554E445900A4
:104310005345544E452053454B554E4400445A494D
:10432000454E004D49455349414300524F4B0044CF
:104330005A49454E205459474F444E494100504F29
:104340004E4945445A49414C454B0057544F5245FC
:104350004B0053524F444100435A57415254454B2E
:104360000050494154454B00534F424F5441004E79
:104370004945445A49454C4100416C61726D207772
:10438000796C61637A6F6E7900416C61726D206344
:104390006F647A69656E6E7900416C61726D20742C
:1043A00079676F646E696F777900416C61726D2017
:1043B0006D6965736965637A6E79004E52200057A6
:1043C00079626965727A2070726F6772616D3A0006
:1043D0003E3E3E003C3C3C00576974616A21004C03
:1043E0004344204844343437383000437A79746188
:1043F0006D3A00437A79737A637A656E69652E2E19
:104400002E004E6120706F637A6174656B00656B7E
:0844100072616E752E2E2E0064
:040000050080007EF9
:00000001FF
