:100000000C942A000C9447000C9447000C94470071
:100010000C94EF1B0C9447000C949F030C94470026
:100020000C9447000C9447000C9447000C94470034
:100030000C9447000C9447000C9447000C94470024
:100040000C9447000C9447000C9447000C94470014
:100050000C94470011241FBECFE5D8E0DEBFCDBF12
:1000600013E0A0E6B0E0E0E6F6E402C005900D92F1
:10007000A23CB107D9F724E0A2ECB3E001C01D9285
:10008000AA31B207E1F70E94071C0C942E230C94AE
:100090000000009741F0EFE9FFE03197F1F700C071
:1000A00000000197F6CF0895009731F025E02A95DA
:1000B000F1F700000197F8CF08958F929F92AF92C9
:1000C000BF92CF92DF92EF92FF924B015C0120E052
:1000D00030E04AE755E40E94471E6B017C0120E0B6
:1000E00030E040E85FE30E94F41C87FD24C020E07C
:1000F0003FEF4FE757E4C701B6010E94431E1816B1
:10010000ACF420E030E040E251E4C501B4010E94CB
:10011000471E0E94651D20E931E06115710581F0DF
:10012000C9010197F1F761507109F7CFC701B60115
:100130000E94651D02C061E070E0CB010197F1F7FC
:10014000FF90EF90DF90CF90BF90AF909F908F90F7
:1001500008958F929F92AF92BF92CF92DF92EF92CB
:10016000FF924B015C012BEA3AEA4AEA50E40E9412
:10017000471E6B017C0120E030E040E85FE30E9415
:10018000F41C87FD21C020E030E04FE753E4C701B5
:10019000B6010E94431E181694F420E030E04AE7AE
:1001A00054E4C501B4010E94F81CFF90EF90DF9069
:1001B000CF90BF90AF909F908F900C945D00C7013F
:1001C000B6010E94651D01C061E06A95F1F7FF90DC
:1001D000EF90DF90CF90BF90AF909F908F90089559
:1001E00080FF02C0DC9A01C0DC9881FF02C0DD9A6A
:1001F00001C0DD9882FF02C0DE9A01C0DE9883FF55
:1002000002C0DF9A0895DF98089589B382958170BE
:10021000CD998260CE998460CF9988600895CF93FC
:10022000DF93D498D598D698D798DA9ADB9A0E941B
:10023000050190E1899FE0011124DB98DB9A0E947F
:100240000501DB98E7ECF0E03197F1F700C0000022
:100250008C2BDF91CF910895D9980C940F01CF93F7
:10026000C82FD49AD59AD69AD79ADA98DB9A8295DB
:100270008F700E94F000DB98DB9A8C2F0E94F000B8
:10028000DB980E942C0187FDFCCFCF910895D9986F
:100290000C942F01D99A0C942F01D99A0C940F0128
:1002A000CF93DF93EC018991882319F00E944A01D2
:1002B000FACFDF91CF91089590E4699F800D1124CA
:1002C00080680C94470181E00E9447018FE39FE121
:1002D0000197F1F700C00000089582E00E944701F5
:1002E0008FE39FE10197F1F700C000000895C09AE5
:1002F0000895CF93D49AD59AD69AD79AD39AD19A69
:10030000D29A8FE59AEE0197F1F700C00000D998D4
:10031000DB98DA98C3E0DB9A83E00E94F000DB9878
:100320008FE19EE40197F1F700C00000C15099F7FA
:10033000DB9A82E00E94F000DB988FE99FE0019752
:10034000F1F700C0000088E20E94470188E00E94A7
:10035000470181E00E94470186E00E9447018CE04E
:100360000E944701B89ACF910C947701C0980895E4
:10037000CF93DF93CDB7DEB761970FB6F894DEBFAA
:100380000FBECDBF4AE0BE016F5F7F4F0E94D11FFD
:100390000E94500161960FB6F894DEBF0FBECDBF2C
:1003A000DF91CF9108956F927F928F929F92AF923B
:1003B000BF92CF92DF92EF92FF920F931F93CF9352
:1003C000DF9300D0CDB7DEB76B017C0149835A8340
:1003D0000E94651D9B0149815A8177FF04C0222735
:1003E0003327261B370B293E334008F09EC08A0175
:1003F0004530510510F004E010E0C701B6010E943D
:10040000601D4B015C01CB010E94B80181E090E0CE
:100410002AE0622E712C2AE08017910740F4F30144
:100420002E9F30012F9F700C11240196F5CF012BC8
:1004300009F47BC083E893E00E945001840197FE99
:1004400004C00027112708191909B30180E090E0C2
:100450000E94911D9B01AC01C701B6010E94471E7D
:100460000E94601D9B0177FF04C022273327261BB3
:10047000370BB901882777FD8095982F0E94931D2F
:100480006B017C019301D8010E94791C0E94911D8F
:100490009B01AC01C701B6010E948F1C0E94651D23
:1004A0006B017C01AB0181E090E02AE030E06AE082
:1004B0004217530740F00196F9016E9F90016F9F1C
:1004C000300D1124F5CF41E02AE030E05AE0621609
:1004D000730640F04F5FB901569F9001579F300D52
:1004E0001124F5CF01E010E0A42EB12CA81AB90A0E
:1004F0000A151B0538F480E090E00E94B8010F5FF8
:100500001F4FF6CFC6010F900F90DF91CF911F9133
:100510000F91FF90EF90DF90CF90BF90AF909F90A2
:100520008F907F906F900C94B8010F900F90DF9197
:10053000CF911F910F91FF90EF90DF90CF90BF90E0
:10054000AF909F908F907F906F900895CF93DF939F
:10055000CDB7DEB761970FB6F894DEBF0FBECDBF43
:1005600040E1BE016F5F7F4F0E94D11F0E9450018A
:1005700061960FB6F894DEBF0FBECDBFDF91CF916D
:100580000895CF92DF92EF92FF920F931F93CF9334
:10059000DF938C016B017A01C0E0D0E0CC15DD0562
:1005A00081F0E114F10411F08CE101C084E10E94BA
:1005B00047010115110519F0C8010E944900219653
:1005C000EDCFDF91CF911F910F91FF90EF90DF90D2
:1005D000CF900895CF92DF92EF92FF920F931F93E7
:1005E000CF93DF938C016B017A01C0E0D0E0CC1592
:1005F000DD0581F0E114F10411F088E101C080E132
:100600000E9447010115110519F0C8010E94490017
:100610002196EDCFDF91CF911F910F91FF90EF9039
:10062000DF90CF9008950F931F93CF93DF93EC014A
:100630008230910520F082309105D9F40FC080E816
:100640000E94470108E210E080E20E944A01015046
:10065000110901151105C1F7CD2B59F480EC0E9449
:100660004701C8E2D0E080E20E944A01219720972A
:10067000D1F7DF91CF911F910F91089583309105AC
:1006800089F030F48130910549F0029749F00895DE
:100690008430910549F0059749F008958CE007C032
:1006A00088E005C08EE003C08DE001C08FE00C94AF
:1006B0004701BC0180E89EE30E94651C862F6031E3
:1006C00038F07727CB01409797FD01969595879550
:1006D00080B9089584EA86BF06B607FEFDCF089567
:1006E00084E986BF06B604FCFDCF089583B984E88B
:1006F00086BF06B607FEFDCF089520E4829FC001A5
:100700001124846886BF06B607FEFDCF83B1089525
:100710008EB5887F8EBD08958EB585608EBD089597
:100720008E98969A8EB58F7B8EBD1092D20389B724
:10073000806289BF1092D303BC98C49A08951F9217
:100740000F920FB60F9211242F933F938F939F9385
:1007500086B597B52091C6033091C703821B930BD2
:1007600026B537B53093C7032093C6032EB530E4C2
:1007700023272EBD8F31910510F01092D2032091C6
:10078000D203222319F021E02093C5032091D20344
:10079000211111C01092C4031092C3031092C2031E
:1007A0002EB520642EBD2091D2032F5F2093D2035B
:1007B00022E02093C5032091C503213009F05AC0DF
:1007C0009C012A5031092531310510F01092C503E2
:1007D0002091C503213009F04DC0429728F0809147
:1007E000D2038F5F8093D2038091D2038230E8F1ED
:1007F0008091D20380FD39C08091C3039091C403DE
:10080000880F991F9093C4038093C3030EB406FE10
:1008100005C081609093C4038093C3038091C20399
:100820008F5F8093C2038D3000F18091C30390915C
:10083000C403282F2F732093D1039C01207C377091
:10084000689415F8369527951694E1F72093D00310
:1008500088279870892F8695869586958093CF03F3
:100860001092C50381E08093D3038091D2038F5F00
:100870008093D2038091C503811105C01092D203E9
:100880008EB58F7B8EBD9F918F913F912F910F9051
:100890000FBE0F901F9018951092D3038FEF809387
:1008A000D1038093D003089586B382958F7091E031
:1008B0008927817090E00895CF93C82F8A3019F46A
:1008C0008DE00E945C045D9BFECFCCB9CF91089572
:1008D0005F9BFECF8CB1089561E08BEF0C94C11744
:1008E00060E08BEF0C94C1178BEF0E94051891E02C
:1008F000811101C090E0892F089590BD89B988E1E8
:100900008AB986E880BD08955F9B02C08CB10895C6
:1009100080E0089580E8089523E0969587952A95CC
:10092000E1F7089528E0829FC0011124089598E01E
:10093000899FB0011124E199FECF48E050E088EF93
:1009400093E00C941022CF9360E070E080E09FE38E
:100950000E94E9078091F8031F928F938091F90319
:100960001F928F938091FA031F928F938091FB03C4
:100970001F928F938091FC031F928F938091FE03AF
:100980008F938091FD038F9387ED90E09F938F93DA
:100990000E94F61F8091FF03C4E66C2F0E94591C31
:1009A0002DB73EB7225F3F4F0FB6F8943EBF0FBE44
:1009B0002DBF992301F11F929F9383EF90E09F93A6
:1009C0008F930E94F61F8091FF036C2F0E94591C89
:1009D0000F900F900F900F90813019F483E091E009
:1009E00004C0823041F48CE091E09F938F930E9489
:1009F000F61F0F900F908AE090E0CF910C940A20A0
:100A00000E94051B20910304822F992787FD909552
:100A10009F932F932091F403822F992787FD909520
:100A20009F932F932091F203822F992787FD909512
:100A30009F932F9320910D04822F992787FD9095E6
:100A40009F932F932091F503822F992787FD9095EF
:100A50009F932F93809105048F93809104048F932B
:100A600087E191E09F938F930E94F61F8DB79EB709
:100A70000E960FB6F8949EBF0FBE8DBF08958EEFF1
:100A80000E94921833E0969587953A95E1F708957C
:100A90008CEF0E94921843E0969587954A95E1F76E
:100AA0000895CF93C82F0E94480590E08C0F911DA8
:100AB0008038910510F080589109CF910C949704DB
:100AC000FF920F931F93CF93DF93F82E811109C0EC
:100AD00084E391E0DF91CF911F910F91FF900C94EF
:100AE000112081E08093CB03C0E0D0E000E411E06E
:100AF0008C2F21969C2F91509F1578F40E945105C0
:100B0000DF93CF931F930F930E94F61F0E94A304BD
:100B10000F900F900F900F90EBCFDF91CF911F911F
:100B20000F91FF90089585E491E09F938F930E9429
:100B3000F61F0E9400050F900F9080E80C9460054E
:100B40008EEF0E949218BC018CEF0C947E188CEFF3
:100B50000E9492188130944068F48EEF0E9492189F
:100B60008130944038F48CEF0E9492188EEF0E94EE
:100B700092180DC060E070E08EEF0E947E180E9417
:100B8000A00560E070E08AE794E40E94E9078A9893
:100B9000929A8B98939A8D98959A8C98949AA298F9
:100BA000AA9AA398AB9AA498AC9AA598AD9AA6983D
:100BB000AE9AA798AF9A87E690E00E947D048EE6F1
:100BC00090E0909317048093160480E690E0909351
:100BD0001504809314040895CF930E944805C82FEC
:100BE0000E943F0591E0C81390E0892FCF910895AE
:100BF000CF930E944805C82F0E943F058C1740F4F0
:100C00000E943F05C82F0E94480590E89C0F06C02F
:100C10000E943F05C82F0E9448059C2F981B892FD2
:100C2000CF9108950E94EC05811110C087E591E0F5
:100C30009F938F930E94F61F0E9400050E94F80563
:100C40000E9460050F900F900C94A00560E070E08A
:100C500080EA90E40C94E907CF93DF93909103042A
:100C60009093F8039091F4039093F9039091F20319
:100C70009093FA0390910D049093FB039091F503E8
:100C80009093FC0320910404309105043093FE03FB
:100C90002093FD0391E0960FE62FF0E0ED51FC4F1D
:100CA000208134E6239F900D11249093FF0398E058
:100CB000899FE0011124E199FECF48E050E0BE0198
:100CC00088EF93E00E942022BE01685F7F4F8FEF84
:100CD00093E0861B970B079744F460E070E08AEF7F
:100CE00093E40E94E90760E070E08EEFDF91CF911E
:100CF0000C947E180F931F93CF93DF930E94051BD4
:100D0000C3EED3E010E08991882319F10E94E00737
:100D100085E090E00E9449000E943F058F3729F44A
:100D20000E9448058823F9F00FC00E944805082F4B
:100D30000E943F05202F30E090E0019628173907E8
:100D400019F411C00E9412060E943F05612F0E94F3
:100D50002C061F5F1A30B9F682E0DF91CF911F9108
:100D60000F910C94F80780910B04833059F760E0E1
:100D700070E88BE395E40E94E9070E946C04E9CFD8
:100D800010920904829903C081E080930904809144
:100D90000904089510920904839903C081E08093A7
:100DA000090480910904089510920904859903C0EB
:100DB00081E0809309048091090408951092090448
:100DC000849903C081E08093090480910904089507
:100DD000109209049A9903C081E0809309048091DC
:100DE00009040895109209049B9903C081E080933F
:100DF0000904809109040895109209049C9903C084
:100E000081E08093090480910904089510920904F7
:100E10009D9903C081E0809309048091090408959D
:100E2000109209049E9903C081E080930904809187
:100E300009040895109209049F9903C081E08093EA
:100E40000904809109040895811102C00C94C00620
:100E5000813011F40C94CA06823011F40C94D4063B
:100E6000833011F40C94DE06843011F40C94E806FF
:100E7000853011F40C94F206863011F40C94FC06C3
:100E8000873011F40C940607883011F40C94100785
:100E9000893011F40C941A078FEF08951F93CF93A4
:100EA000DF93C9EDD3E010E0812F0E9424078993DE
:100EB0001F5F1A30C9F7DF91CF911F910895BF923C
:100EC000CF92DF92EF92FF920F931F93CF93DF9316
:100ED00059EDE52E53E0F52EC3EED3E0D12C00E022
:100EE00010E0CC24C39462E0B62E8D2D0E9424071E
:100EF000F7019081891741F0813011F4B88206C062
:100F0000811104C0C88202C0188202C001E010E052
:100F1000F70181937F01D3942196FAE0DF12E5CFA8
:100F2000012B29F00E947A0681E08093CB03DF91A8
:100F3000CF911F910F91FF90EF90DF90CF90BF90D6
:100F40000895CF93DF93C0E0D0E0E199FECF60E059
:100F5000CE010E9430222196C11584E0D807A9F75E
:100F6000DF91CF910C94A0052F923F921092D50360
:100F70001092D4038091D4039091D5032091F6036D
:100F80003091F70382179307C4F4D101ED91FC91DE
:100F9000E80FF91F80810E944A0160E070E088E458
:100FA00092E40E945D008091D4039091D503019654
:100FB0009093D5038093D403DDCF3F902F90089575
:100FC000979A60E070E080E89FE30E945D00979848
:100FD0000895979A0E945D009798089560E070E0E8
:100FE00080E490E40E94E9078FEF80937C000895ED
:100FF000CF93DF931F92CDB7DEB7811103C010925C
:101000007C0010C089830E9477018981813029F496
:101010000F90DF91CF910C94EE07823019F482E3A8
:1010200080937C000F90DF91CF9108950F931F93D1
:10103000CF93DF932AE030E0C1E04AE082179307C4
:1010400040F0CF5FB901469F9001479F300D1124BA
:10105000F5CF3093D5032093D4039093020480936B
:10106000010480E090E00E9413031092D5031092D7
:10107000D4038C2F90E0C7E2D0E0C81BD90B8C01C1
:101080000D5F1F4F8091D4039091D5038C179D075E
:10109000FCF460E00E945C018091010490910204E4
:1010A0000E94B80161E08091D4030E945C018091AC
:1010B0000104909102040E94B8018091D4039091A0
:1010C000D503800F911F9093D5038093D403DACF7B
:1010D00060E070E08AEF93E40E945D000E944C049F
:1010E00081E08093CB03DF91CF911F910F91089501
:1010F00020910104309102044AE0429FC001439FC5
:10110000900D1124893E23E0920710F088EE93E0C1
:101110009093020480930104809101049091020451
:101120000C94160880910104909102046AE070E02A
:101130000E94651C6115710529F07093020460938B
:10114000010406C081E090E09093020480930104C2
:1011500080910104909102040C941608CF93DF93C0
:10116000EC011092CB0380910B04813009F460C034
:101170000E94630180E691E00E945001CE010E942E
:10118000B80161E080E00E945C01209719F48AE6D2
:1011900091E01CC0C130D10519F489E791E016C077
:1011A000C230D10519F489E891E010C0C330D105EF
:1011B00019F482E991E00AC0C430D10519F480EA3B
:1011C00091E004C0259721F480EB91E00E9450014A
:1011D0001092D5031092D4038091D4039091D5033B
:1011E0000597B4F460E070E080EF91E40E945D0048
:1011F00060E070E080EA90E40E94E9078091D40307
:101200009091D50301969093D5038093D403E4CFB6
:1012100060E070E08AEF93E40E945D0041E050E0FE
:101220006FE070E084E190E00E94C1020E946301DF
:101230000E944C0481E08093CB03DF91CF9108950D
:10124000811103C08FEB91E01DC0813019F482EC55
:1012500091E018C0823019F485EC91E013C083301E
:1012600019F488EC91E00EC0843019F48BEC91E015
:1012700009C0853019F48EEC91E004C0863021F469
:1012800081ED91E00C945001089560E08091CD03D0
:101290000E945C018091F2038A3024F480E090E0A7
:1012A0000E94B8018091F203992787FD90950E94D2
:1012B000B80183E393E00E9450018091F4038A30E7
:1012C00024F480E090E00E94B8018091F403992713
:1012D00087FD90950E94B80183E393E00E9450013E
:1012E000809103048A3024F480E090E00E94B801E9
:1012F00080910304992787FD90950E94B80183E3AC
:1013000093E00E9450018091F1038A3024F480E040
:1013100090E00E94B8018091F103992787FD909594
:101320000C94B8010E94450961E08091CD030E94B0
:101330005C0180910D048A3024F480E090E00E94EA
:10134000B80180910D04992787FD90950E94B801FE
:1013500083E393E00E9450018091F5038A3024F4E6
:1013600080E090E00E94B8018091F503992787FD05
:1013700090950E94B80183E393E00E945001809110
:101380000404909105040E94B80184ED91E00E944C
:101390005001809106040E94200984ED91E00E9492
:1013A00050018091D6038A3024F480E090E00E94BE
:1013B000B8018091D603992787FD90950C94B801C8
:1013C00060E08091CD030E945C018091D6038A3059
:1013D00024F480E090E00E94B8018091D603992720
:1013E00087FD90950C94B801CF93C82F81110E946E
:1013F000450961E08091CD030E945C01C230C1F5D6
:101400008091F503811103C086ED91E02EC010920A
:10141000D5031092D4032091D4033091D503273003
:1014200031050CF58091F503992787FD909502C051
:10143000959587952A95E2F780FF0BC084ED91E0A2
:101440000E9450018091D4039091D50301960E948F
:10145000B8018091D4039091D50301969093D50360
:101460008093D403D8CF84ED91E0CF910C945001B8
:10147000C33019F580910D048A3024F480E090E0A7
:101480000E94B80180910D04992787FD90950E94D4
:10149000B80183E393E00E9450018091F5038A3004
:1014A00024F480E090E00E94B8018091F503992730
:1014B00087FD9095CF910C94B801CF9108955091EC
:1014C0000004523041F480910104909102049195FE
:1014D0008195910909C0513029F4809101049091BE
:1014E000020402C080E090E040910C0420910A04C4
:1014F0004E3F21F4281B20930A0408952111CAC0ED
:101500002091EF033091F0034F3F39F4281B390B42
:101510003093F0032093EF030895411106C06091CA
:10152000F203680F6093F20317C0413031F4609109
:10153000F403680F6093F4030FC0423031F46091FC
:101540000304680F6093030407C0433029F46091DB
:10155000F103680F6093F1032115310519F0233071
:10156000310561F5443031F490910D04980F90935A
:101570000D040895453031F49091F503980F909340
:10158000F5030895232B09F096C0463059F42091B5
:10159000040430910504280F391F3093050420936B
:1015A00004040895473031F490910604980F909305
:1015B00006040895483009F07EC078C02230310515
:1015C00009F079C0443079F4513021F48091F50369
:1015D000816006C0523009F06EC08091F5038E7FA5
:1015E0008093F5030895453069F4513021F48091DA
:1015F000F5038260F5CF523009F05DC08091F503AC
:101600008D7FEECF463069F4513021F48091F5039F
:101610008460E6CF523009F04EC08091F5038B7F95
:10162000DFCF473069F4513021F48091F5038860B1
:10163000D7CF523009F03FC08091F503877FD0CFDC
:10164000483061F4513021F48091F5038061C8CFB6
:10165000523089F58091F5038F7EC2CF493061F415
:10166000513021F48091F5038062BACF523019F5E0
:101670008091F5038F7DB4CF4A30E9F4513021F4E5
:101680008091F5038064ACCF5230A9F48091F503CA
:101690008F7BA6CF213079F44F3F31F49091F30343
:1016A000981B9093F3030895411105C09091D603C0
:1016B000980F9093D603089580910C048E5F82302A
:1016C00050F48091010490910204029720F081E08F
:1016D00090E00E94160880910A04811138C0809120
:1016E0000C04843050F480910104909102040B9713
:1016F00020F08AE090E00E9416088091EF0390911C
:10170000F003009711F0039791F580910C04845039
:10171000823050F480910104909102040B9720F0E4
:101720008AE090E00E9416088091EF039091F00308
:10173000892BE9F480910C048730C9F4809101046D
:1017400090910204029798F081E090E00EC0813001
:1017500071F480910C0481110AC080910104909170
:1017600002040B9720F08AE090E00C94160808958C
:101770008091CE038430E9F0853009F580910A0428
:10178000811110C08091EF039091F0030097B9F0A0
:101790008130910581F08230910579F0039779F4D9
:1017A00086E00895813059F49091F303913039F433
:1017B00007C089E0089584E008958BE0089580E0F3
:1017C0000895CF931092CB0380E090E00E94130322
:1017D00060E080E00E945C0180910A04811190C069
:1017E000C0910C040E94B80B2C2F332727FD309595
:1017F00090E028173907B1F48091EF039091F0033E
:10180000892B69F48091CE03843019F48EED91E038
:101810005BC0853009F091C08FEE91E055C08FEF2D
:1018200091E052C0C11103C088EA91E00EC0C130FE
:1018300019F48EE092E009C0C23019F485E192E01B
:1018400004C0C33021F48DE192E00E9450018091E8
:10185000EF039091F003009719F08330910531F573
:1018600080910C04843019F48AE292E004C085303F
:1018700021F480E392E00E9450018091EF03909167
:10188000F003892B09F059C080910C04863019F4BB
:1018900088E392E019C0873019F48CE392E014C019
:1018A000883009F04AC08BE492E00EC0029709F03C
:1018B00044C080910C04843019F481E592E004C0A6
:1018C000853029F48EE592E00E94500136C08630C2
:1018D00019F485E692E0F8CF873019F48BE692E0B0
:1018E000F3CF883019F484E792E0EECF893019F411
:1018F0008BE792E0E9CF8A3001F582E892E0E4CF0D
:101900008130D9F4C0910C040E94B80B2C2F3327DE
:1019100027FD309590E02817390761F48091F30393
:10192000811103C08CE892E0CFCF813031F48AE995
:1019300092E0CACFCC2309F4B6CF80E991E00E94AF
:1019400049000E944C0481E08093CB03CF9108951D
:10195000811103C087EA92E004C0813021F483EB57
:1019600092E00C9450010895811103C08FEB92E036
:1019700004C0813021F48FEC92E00C945001089562
:10198000811103C08EED92E00EC0813019F48EEE0D
:1019900092E009C0823019F48EEF92E004C08330E7
:1019A00021F48FE093E00C94500108958091F203AC
:1019B00087FF04C087E18093F20304C0883114F0EC
:1019C0001092F2038091F40387FF04C08BE38093AD
:1019D000F40304C08C3314F01092F40380910304D8
:1019E00087FF04C08BE38093030404C08C3314F09E
:1019F000109203048091F10387FF04C083E6809373
:101A0000F1030895843614F01092F1030895909133
:101A1000F503191624F0823049F09CE005C09D3092
:101A20002CF0823019F091E09093F5039091F5033A
:101A3000492F4D7F20910404309105044130C9F0B5
:101A40009530B9F059EF590F523098F09A3089F02B
:101A50009C3079F0443079F0493069F0923069F483
:101A6000A90143705527452B41F0811106C08CE137
:101A700005C08FE103C08EE101C08DE140910D04EE
:101A8000141644F4552747FD509590E084179507A8
:101A90001CF481E080930D0429318CEF38071CF48D
:101AA0008FE097E205C02031374234F089E19CEFA6
:101AB00090930504809304048091060487FF04C07A
:101AC00086E08093060404C0873014F01092060468
:101AD0008091D60387FF04C083E68093D6030895E0
:101AE000843614F01092D60308951F93CF93DF939A
:101AF0000E94B80183E893E00E9450018091FD03A9
:101B00009091FE030E94B80183E393E00E9450018C
:101B10008091FC038A3020F480E090E00E94B801BC
:101B20008091FC0390E00E94B80183E393E00E945F
:101B300050018091FB038A3020F480E090E00E9405
:101B4000B8018091FB0390E00E94B80189EA93E01C
:101B50000E9450018091FA038A3020F480E090E0E6
:101B60000E94B8018091FA0390E00E94B80183E3DB
:101B700093E00E9450018091F9038A3020F480E0C4
:101B800090E00E94B8018091F90390E00E94B801B2
:101B900083E393E00E9450018091F8038A3020F49F
:101BA00080E090E00E94B8018091F80390E00E94EC
:101BB000B80189EA93E00E9450018091FF0314E686
:101BC000612F0E94591CC92FD0E0209721F180E29B
:101BD00093E00E945001CE010E94B80189EA93E08F
:101BE0000E9450018091FF03612F0E94591C90E0D8
:101BF0009093D5038093D4038130910519F483E049
:101C000091E004C0029739F48CE091E0DF91CF912C
:101C10001F910C945001DF91CF911F910895CF93A4
:101C2000DF93EC018091CE03833049F48C2F0E9426
:101C30005105CE010196DF91CF910C94750D853041
:101C4000E9F480910C048E3F29F48C2FDF91CF9121
:101C50000C94A80C90910A04911107C08F3F71F465
:101C60008C2FDF91CF910C94C00C913039F48F3FC1
:101C700029F48C2FDF91CF910C94B40CDF91CF918C
:101C800008950F931F93CF93DF93EC018B016F3F68
:101C90008FEF780761F460E080E00E945C0184E3EC
:101CA00091E0DF91CF911F910F910C945001CF3FA4
:101CB0008FEFD80761F461E080E00E945C01CE0103
:101CC0000196DF91CF911F910F910C940F0E60E060
:101CD00080E00E945C01CE010E940F0EC017D10768
:101CE00051F7DF91CF911F910F91089580910104D9
:101CF00090910204029720F081E090E00E94160883
:101D00008091CA0387301CF01092CA0305C087FF78
:101D100003C086E08093CA0380E090E00E94130332
:101D200060E080E00E945C0184E293E00E94500148
:101D300061E080E00E945C0185E393E00E94500135
:101D40008091CA03992787FD90950E94B80189E385
:101D500093E00C94500180E090E00E94130360E057
:101D600080E00E945C018091D10390E00E94B80164
:101D700060E086E00E945C018091D00390E00E94C8
:101D8000B80161E080E00E945C018091CF0390E0A7
:101D90000C94B8011092CD030E94051B80E090E0E6
:101DA0000E94130360E08BE00E945C018091CC03F1
:101DB000811103C080E693E004C0813021F484EDFA
:101DC00091E00E9450010E94920980910C048111BF
:101DD00003C08091D80381110E94E41A80910C0401
:101DE0008823F1F083E18093CD0360E081E10E94DC
:101DF0005C0184ED91E00E9450018091CD0361E08F
:101E000082500E945C0184ED91E00E94500161E0EB
:101E10008091CD030E945C0180910C040E94F40922
:101E20008091D8038823B9F085E28093CD0360E0E8
:101E300083E20E945C0184ED91E00E945001809158
:101E4000CD0361E082500E945C0184ED91E00E942C
:101E500050010E94E00960E08CE00E945C010E9459
:101E6000B81B41E050E00C94D30180E090E00E9468
:101E7000130380910104909102040B9720F08AE0F3
:101E800090E00E9416088091EF039091F0038F3F3D
:101E90009F4F2CF40E94F80590E001970CC00E941F
:101EA000F80590E02091EF033091F00328173907EF
:101EB00034F08FEF9FEF9093F0038093EF030E9435
:101EC000F805682F70E0615071098091EF039091DF
:101ED000F0030C94410E8F92AF92BF92CF92EF928B
:101EE0000F9380910C0487FD10920C040E945C0BF0
:101EF00080E090E00E94130380910004882321F089
:101F00000E945F0A109200040E94B80B20910C04FA
:101F1000332727FD309590E02817390711F5A09059
:101F20000404B09005048090D603C090F503E090BF
:101F3000060400910D042091F10340910304609187
:101F4000F4038091F2030E943D190E941D18109223
:101F5000CB030E94630181E08093D80380937E00CD
:101F600009C00E94D60C80E00E94070D1092CD039C
:101F70000E9492098091D803813021F40E94E10BE4
:101F80001092D8030F91EF90CF90BF90AF908F90A9
:101F90000895CF92EF920F931F93CF93DF93809189
:101FA0000C048E3F1CF48EEF80930C048091D803B8
:101FB000813089F580910C048E3F69F40E94E41A07
:101FC0000E94D21A8093F3030E94161A90E0909315
:101FD000F0038093EF0380910C048F3F31F48091E4
:101FE0000A0487FF18C08EEF0DC0811114C08091C4
:101FF0000A0481110AC08091EF039091F00397FFCA
:102000000AC08FEF80930C0406C0813021F48091C8
:10201000F30387FDF6CF0E945C0B80E090E00E9406
:10202000130380910004882321F00E945F0A10921C
:10203000000410910C0480910A041E3F61F48F3F4C
:1020400014F481E003C082301CF08FEF80930A0407
:1020500080910A046FC081115BC0C091EF03D091E1
:10206000F0031F3FB1F4CF3F8FEFD8071CF483E09C
:1020700090E004C0249734F08FEF9FEF9093F0032B
:102080008093EF0363E070E08091EF039091F003A1
:1020900056C00E94B80B212F332727FD309590E0C2
:1020A0002817390711F0209731F581E080937E00E1
:1020B0008093D803219609F474C0C090D603E090B1
:1020C000F50300910D042091F10340910304609108
:1020D000F4038091F2030E94811A8091EF030E9421
:1020E000051A8091EF039091F003892B09F059C0F4
:1020F0000E946E1856C00E94D60C8091EF030E9479
:10210000070D1092CD038091EF030E94F40949C09E
:10211000813009F046C0C091F3031F3F99F4CF3FCF
:102120001CF48093F30304C0C23014F01093F30343
:102130008091F30361E070E0992787FD90950E94FC
:10214000410E2FC00E94B80B212F332727FD309559
:1021500090E02817390711F0C1111FC081E080936A
:102160007E008093D803C11103C00E949C1919C03E
:10217000C130B9F4C090D603E090F50300910D048E
:102180002091F103409103046091F4038091F203E4
:102190000E94811A0E94A41904C01092CD030E94CB
:1021A000E0098091D803813041F480910C0487FDCF
:1021B00004C00E94E10B1092D803DF91CF911F91D0
:1021C0000F91EF90CF90089580E090E00C9413036E
:1021D00080910B04833081F480E090E00E9413032F
:1021E0008DE393E00E94500161E080E00E945C0179
:1021F0008DE493E00C9450018091CE03811102C0D4
:102200000C94760E813011F40C94AB0E823011F4E4
:102210000C94CA0E833011F40C94350F843011F4F1
:102220000C946B0F853011F40C94C90F863011F4A7
:102230000C94E41008958B339105F1F58091CA0355
:102240008093CE0390E00E94AE088091CE0381304F
:1022500009F444C0823059F40E944E070E94161AB5
:1022600080930C040E94D21A8093D80337C0833025
:10227000F1F0843071F410920C041092F00310927B
:10228000EF0381E08093D803109200040E94051BA5
:1022900025C0853019F58EEF80930C0481E0809382
:1022A000D8031092000410920A041092F3031092C3
:1022B000F0031092EF0312C08032910531F4809147
:1022C000CA0390910104890F07C0819739F4809166
:1022D000CA0390910104891B8093CA0381E0809313
:1022E000CB0308952F923F92AF92BF92CF92DF928D
:1022F000EF92FF920F931F93CF93DF93CDB7DEB78B
:10230000C055D1090FB6F894DEBF0FBECDBF6C012A
:102310008932910509F0F7C10E9488031092CB031E
:102320000E94630188E290E09093F7038093F603A4
:1023300080E5E5E8F0E0DE01119601900D928A95C6
:10234000E1F784E090E00E94AA1E7C011092D50380
:102350001092D40358E2B52E0091D4031091D50306
:1023600002301105ACF580E590E00E94AA1EF8014C
:10237000EE0FFF1FEE0DFF1D9183808310920C0462
:1023800040E0B09E9001B19E300D1124542FE42FF7
:10239000FF27E7FDF0954F5FE832F10584F4DC019B
:1023A000A50FB11D57FDBA95E20FF31F61E070E074
:1023B0006C0F7D1FE60FF71F50815C93E7CF5093A2
:1023C0000C040F5F1F4F1093D5030093D403C4CFA9
:1023D0001092D5031092D4038091D4039091D50329
:1023E0008832910594F4D701ED91FC91E80FF91F23
:1023F00080810E944A018091D4039091D503019677
:102400009093D5038093D403E7CF61E080E00E94EE
:102410005C011092D5031092D4038091D403909163
:10242000D50388329105A4F4D7011296ED91FC9161
:102430001397E80FF91F80810E944A018091D4030D
:102440009091D50301969093D5038093D403E5CF63
:1024500088E290E09093F7038093F60381E0809305
:102460000C0480910C04882309F41CC184E090E0E2
:102470000E94AA1E8C011092D5031092D403A09042
:10248000D403B090D503E2E0AE16B104BCF4809161
:10249000F6039091F703880F991F0E94AA1EF50179
:1024A000EE0FFF1FE00FF11F91838083BFEFAB1A88
:1024B000BB0AB092D503A092D403E1CF0E946D0174
:1024C0001092D5031092D4038091D4039091D50338
:1024D0002091F6033091F703821793079CF4D801FB
:1024E000AD90BC90A80EB91E0E944D01F5018083ED
:1024F0008091D4039091D50301969093D503809356
:10250000D403E2CF61E080E00E945C011092D50329
:102510001092D4038091D4039091D5032091F603B7
:102520003091F70382179307ACF4D8011296AD905F
:10253000BC901397A80EB91E0E944D01F50180832F
:102540008091D4039091D50301969093D503809305
:10255000D403E0CF0E9463018091F6039091F703CA
:1025600040910C0420E030E0281739070CF5F80101
:10257000A081B181A20FB31FF701A080B180A20E8C
:10258000B31E6C91D5015C9165130EC0F801A28158
:10259000B381A20FB31FF701A280B380A20EB31EB6
:1025A0006C91D5015C91651340E02F5F3F4FDCCF0C
:1025B00040930C043093D5032093D4030E94540419
:1025C000892B11F010920C0480910C04811105C02C
:1025D0001092D5031092D40348C01092D5031092E4
:1025E000D4038091D4039091D5032091F6033091C8
:1025F000F7038217930794F4D801ED91FC91E80F4B
:10260000F91F80810E944A018091D4039091D503E3
:1026100001969093D5038093D403E3CF61E080E0EB
:102620000E945C011092D5031092D4038091D403D0
:102630009091D5032091F6033091F7038217930709
:102640003CF6D8011296ED91FC911397E80FF91F13
:1026500080810E944A018091D4039091D503019614
:102660009093D5038093D403E1CFA090D403B0908E
:10267000D503E2E0AE16B1048CF4F501EE0FFF1FB6
:10268000E00FF11F808191810E94421FBFEFAB1AC2
:10269000BB0AB092D503A092D403E7CFC8010E9431
:1026A000421FDFCE1092D5031092D4030091D403C1
:1026B0001091D5030230110584F4F801EE0FFF1FCD
:1026C000EE0DFF1D808191810E94421F0F5F1F4F01
:1026D0001093D5030093D403E9CFC7010E94421F92
:1026E0000E94E00760E070E080E291E40E945D00FB
:1026F0000E94E00760E070E080E291E40E945D00EB
:102700000E94E00758C18C30910509F056C10E9423
:1027100088031092CB030E94630184E090E00E9442
:102720003E0361E089E00E945C018BE593E00E943A
:10273000500160E070E08AEF93E40E945D000E9427
:102740006D0182E693E00E94500160E070E08AEF44
:1027500093E40E945D0041E050E061E070E080E0C1
:1027600090E00E94C10260E070E08FE294E40E9479
:102770005D0082E090E00E943E0360E070E08FE246
:1027800094E40E945D0081E090E00E943E0360E0DE
:1027900070E08FE294E40E945D0082E090E00E948D
:1027A0003E0360E070E08FE294E40E945D0085E00B
:1027B00090E00E943E0360E070E08AE794E40E94AB
:1027C0005D0084E090E00E943E0340E050E061E064
:1027D00070E080E090E00E94C10260E070E08AE773
:1027E00094E40E945D0040E050E061E070E080E031
:1027F00090E00E94EA0283E090E00E943E0360E0E5
:1028000070E08AE794E40E945D0085E090E00E9419
:102810003E0361E080E00E945C018EE693E00E944E
:10282000500160E070E88BEB94E40E945D0061E091
:1028300089E00E945C0186E090E09093F70380932A
:10284000F6030E94AA1E9A8389831092D5031092E0
:10285000D4038091D4039091D5032091F603309155
:10286000F70382179307C4F409811A81080F191F0F
:102870000E944D01D8018C9360E070E088EC92E4F6
:102880000E945D008091D4039091D50301969093AE
:10289000D5038093D403DDCF41E050E061E070E0E8
:1028A00080E090E00E94EA0260E070E88BEB94E444
:1028B0000E945D0083E090E00E943E0380E090E093
:1028C0000E94130360E070E88BEB94E40E945D00CB
:1028D00061E080E00E945C01FE0131961F010E94D0
:1028E000B40784E090E00E943E0360E089E00E942B
:1028F0005C010E94B40761E088E00E945C0185E011
:1029000090E00E943E030E94B40760E081E00E94D4
:102910005C010E94B40789819A810E94421F83E072
:1029200090E00E943E0360E070E88BEB94E40E942C
:102930005D0041E050E06FE070E084E190E00E94D3
:10294000C10241E050E06FE070E084E190E00E945D
:10295000EA0281E090E00E94130384E090E00E948C
:102960003E0360E070E08AE794E40E945D0041E08D
:1029700050E06FE070E084E190E00E94EA0241E004
:1029800050E06FE070E084E190E00E94C10283E0DB
:1029900090E00E943E0382E090E00E94130360E01A
:1029A00070E08AEF93E40E945D000E94630181E081
:1029B00090E00E943E030E948C03C6010E943E03E9
:1029C0000E94E810C05BDF4F0FB6F894DEBF0FBE69
:1029D000CDBFDF91CF911F910F91FF90EF90DF90CE
:1029E000CF90BF90AF903F902F9008958A3291057D
:1029F00019F40E9476180AC08932910519F40E94D0
:102A0000661804C0CB9711F40E946E1881E0809381
:102A1000CB0308958C30910561F46130710569F53F
:102A20000E94630186E793E00E9450010E94A10783
:102A300024C08932910519F40E9493051EC080328A
:102A4000910559F48091EF039091F00320910104D6
:102A500030910204821B930B0CC0819771F480911A
:102A6000EF039091F0032091010430910204820F52
:102A7000931F9093F0038093EF0381E08093CB0347
:102A800008958031910521F480910C048F5F06C078
:102A90008131910549F480910C04815080930C049C
:102AA00081E08093D80312C08032910511F481E057
:102AB00004C08132910521F482E08093000406C0B5
:102AC000CB9721F40E94B80B80930C0481E0809393
:102AD000CB0308958031910521F480910C048F5F20
:102AE00006C08131910549F480910C048150809396
:102AF0000C0481E08093D80312C08032910511F458
:102B000081E004C08132910521F482E080930004C9
:102B100006C0CB9721F40E94B80B80930C0481E08F
:102B20008093CB03089581E08093CB0308950F93A6
:102B30001F93CF93DF93EC018B010E94E0078091FC
:102B40000B04833019F410920B04DCC08091CE0387
:102B5000811105C0B801CE010E941B1128C081302F
:102B600029F4B801CE010E94721121C0823029F4EB
:102B7000B801CE010E94F6141AC0833029F4B801BE
:102B8000CE010E940A1513C0843029F4B801CE0189
:102B90000E9441150CC0853029F4B801CE010E9475
:102BA0006A1505C0863019F481E08093CB03C632E4
:102BB000D10551F51092CB030E94630185E893E0A3
:102BC0000E94500161E080E00E945C0181E993E095
:102BD0000E94500160E070E08AE793E40E945D008B
:102BE00041E050E06FE070E084E190E00E94C102BB
:102BF00041E050E06FE070E084E190E00E94EA0282
:102C000081E08093CB0338C0CF30D10589F4011522
:102C1000110531F40E94770182E380937C002CC07F
:102C20000130110549F50E9477010E94EE0724C08A
:102C3000CE32D10549F441E050E061E070E080E03F
:102C400090E00E94C10227C0C232D10549F441E0A0
:102C500050E061E070E080E090E00E94EA022DC068
:102C6000C432D10549F441E050E06FE070E084E106
:102C700090E00E94C1022BC0C332D10561F441E053
:102C800050E06FE070E084E190E0DF91CF911F9120
:102C90000F910C94EA02CC32D10531F4DF91CF913F
:102CA0001F910F910C947808CD32D10531F4DF914A
:102CB000CF911F910F910C949208CE30D10539F429
:102CC0000130110521F581E080937E0020C0C436DB
:102CD000D105E9F48091CC03813069F41092CC03E2
:102CE00060E070E08AEF93E40E94E9070E948803A5
:102CF00010927C000CC081110AC081E08093CC034B
:102D00000E948C030E94770182E380937C00DF9114
:102D1000CF911F910F910895CF93DF9300D000D0F2
:102D2000CDB7DEB720917C0027FD0DC06B837C837F
:102D300089839A830E94770122E320937C009A8101
:102D400089817C816B810F900F900F900F90DF91A4
:102D5000CF910C9497151092D5031092D403209123
:102D60007D008091CF03223079F0332727FD309505
:102D700090E02817390731F481E090E09093D50373
:102D80008093D4038091CF0380937D000895CF93E7
:102D90008091CB03813021F41092CB030E94E81084
:102DA0008091ED03813009F061C01092D703109239
:102DB000ED0380910B04833091F40E94E0070E94A0
:102DC000770182E380937C008BE993E09F938F935C
:102DD0000E94F61F0E9400050F900F902CC00E94C9
:102DE0007404813041F480910B04811104C00E946D
:102DF00012060E94700482E080930B040E948404F7
:102E0000893419F40E94930507C0893619F40E9489
:102E1000120602C0882319F081E08093CB030E9440
:102E2000D91A813041F40E94E0070E9412060E94E4
:102E30006E180E945E188091CE038450823010F08C
:102E40000E945F078091CE03823019F481E0809365
:102E5000CB0380917C0018161CF4815080937C0079
:102E600080917C00811102C00E94B601C0917E0059
:102E7000C130E1F410927E008091CE0380930C0467
:102E80001092CE031092CA0381E090E09093020466
:102E90008093010460E070E08BE390E00E948C1668
:102EA00080910C048093CA03C093CB030E94540406
:102EB000892B91F08EE190E00E9449000E94540419
:102EC000892B51F060E070E084E690E00E948C165F
:102ED00084E690E00E9449008091D303882391F01A
:102EE0008091D00381110EC00E94AB168091D10356
:102EF0006091D4037091D50390E00E948C16CF911D
:102F00000C944C04CF910895982F92959F708F70D8
:102F10002AE0929F800D112408956AE00E94591CB6
:102F2000292F30E1839FC0011124822B0895EF9255
:102F3000FF921F93CF93DF9300D0CDB7DEB7F82E6B
:102F4000162F49835A830E946A0380EA0E947603FF
:102F50008F2D0E9476034981E42E5A81F52E140F9D
:102F60001E1531F0F70181917F010E947603F8CFA1
:102F70000F900F90DF91CF911F91FF90EF900C94E5
:102F80007003CF93DF931F92CDB7DEB76983AE0195
:102F90004F5F5F4F61E00E9497170F90DF91CF91D5
:102FA0000895EF92FF921F93CF93DF9300D0CDB798
:102FB000DEB7F82E162F49835A830E946A0380EAEF
:102FC0000E9476038F2D0E9476030E946A0381EA95
:102FD0000E94760311504981E42E5A81F52E1F3F3D
:102FE00059F081E0111101C080E00E947D03F701DA
:102FF00081937F011150F3CF0F900F90DF91CF910C
:103000001F91FF90EF900C947003CF93DF931F926A
:10301000CDB7DEB7AE014F5F5F4F61E00E94D117C1
:1030200089810F90DF91CF91089580E00E9405186B
:10303000682F606880E00C94C11780E00E9405183A
:10304000682F6F7780E00C94C11780E00E9405180C
:10305000881F8827881F089588E00E9405188770B8
:103060000895CF93C82F88E00E940518682F6C77C9
:10307000C7706C2B88E0CF910C94C11780E00E9440
:103080000518682F6F7B80E00C94C11780E00E94C8
:103090000518682F606480E00C94C11780E00E94DE
:1030A0000518682F677F80E00C94C11780E00E94AC
:1030B0000518682F686080E00C94C11780E00E94BA
:1030C0000518682F6E7F80E00C94C11780E00E9485
:1030D0000518682F616080E00C94C11780E00E94A1
:1030E0000518682F6D7F80E00C94C11780E00E9466
:1030F0000518682F626080E00C94C1171F93CF936E
:10310000DF931F92CDB7DEB7182F79830E94C117C6
:103110007981672F81E0810F0F90DF91CF911F910F
:103120000C94C1171F93CF93DF93182F0E9405189B
:10313000C82FD0E081E0810F0E9405189E01382B36
:10314000C901DF91CF911F9108952F923F924F9225
:103150005F926F927F928F929F92AF92BF92CF9227
:10316000DF92EF92FF920F931F93CF93DF93CDB730
:10317000DEB72B970FB6F894DEBF0FBECDBF1C0194
:103180003B012A012A873B870E944E180E9446185D
:10319000AE014F5F5F4F67E081E00E94D1170E9450
:1031A0003E180E945618AE01485F5F4F62E080E112
:1031B0000E94D11789810E9484172A853B85F901D5
:1031C00080838A810E948417F20180838B810E9410
:1031D0008417F30180838C810E948417F10180831E
:1031E0007D80872D8F730E948417F80180831E8154
:1031F000812F8F710E948417F60180831295169596
:103200001770F7011083098510E0102F00278885BB
:10321000082B98012370332772947694769493E068
:103220007922872D90E02817390731F00F5F1F4F63
:10323000B80180E10E947E18F501118300838F811F
:103240000E948417F40180832B960FB6F894DEBF9A
:103250000FBECDBFDF91CF911F910F91FF90EF90E7
:10326000DF90CF90BF90AF909F908F907F906F90A6
:103270005F904F903F902F9008958F92AF92BF92A2
:10328000CF92EF92FF920F93CF93DF93CDB7DEB73C
:103290002B970FB6F894DEBF0FBECDBFF82E822F4E
:1032A0004A876B870E948D1789834A85842F0E94E5
:1032B0008D178A836B85862F0E948D178B838F2DA8
:1032C0000E948D178C83802F0E948D179A2D9295C6
:1032D000990F990F907C982B9D838C2D0E948D17B0
:1032E00090E2E99E700111248E298E83A886B9860A
:1032F000882D0E948D178F830E941518AE014F5F95
:103300005F4F67E081E00E949717AE01485F5F4F13
:1033100062E080E10E9497172B960FB6F894DEBF0B
:103320000FBECDBFDF91CF910F91FF90EF90CF9067
:10333000BF90AF908F90089588E00E940518682F85
:103340006F7B88E00C94C11788E00E940518682FF5
:10335000606488E00C94C11788E00E940518682F0B
:103360006F7788E00C94C11788E00E940518682FD9
:10337000606888E00C94C11788E00E940518881FD7
:103380008827881F089588E00E940518682F677FA6
:1033900088E00C94C11788E00E940518682F6860C7
:1033A00088E00C94C11780E00E940518682F6F7C9C
:1033B00080E00E94C11780E00E940518682F6460B9
:1033C00080E00E94C1170E943E180E94561884E0B7
:1033D0000E940518682F6F7384E00E94C1170E9435
:1033E0006E180E945E180E941D1882E00E9431181B
:1033F0000E94CB190E94A4190C94B41988E00E9471
:10340000051883FB882780F90895CF93C82F88E09B
:103410000E940518682F6F7C80E1C89F90011124DD
:103420002073622B88E0CF910C94C11788E00E9432
:103430000518807382958F7008954F925F926F92F6
:103440007F928F929F92AF92BF92CF92DF92EF9234
:10345000FF920F931F93CF93DF93CDB7DEB72797DC
:103460000FB6F894DEBF0FBECDBF5C014B013A0131
:103470002901AE014F5F5F4F67E089E00E94D117DD
:1034800089810E948417F20180838A810E948417B7
:10349000F30180838B810E948417F40180838C81E7
:1034A0000E948417F50180838D810E948417F801A2
:1034B00080830E94161A823019F48E818F7703C0A0
:1034C0008E810E948417F70180838F810E94841768
:1034D000F601808327960FB6F894DEBF0FBECDBFEE
:1034E000DF91CF911F910F91FF90EF90DF90CF90E0
:1034F000BF90AF909F908F907F906F905F904F9014
:103500000895CF92EF92FF920F931F93CF93DF9383
:10351000CDB7DEB72A970FB6F894DEBF0FBECDBF8A
:10352000F82E288749876A870E94161A182F28853F
:10353000822F0E948D1789834985842F0E948D17C1
:103540008A836A85862F0E948D178B838F2D0E9418
:103550008D178C83123019F48E2D8F7709C013309C
:1035600041F4802F0E948D178D838E2D0E948D1720
:103570008E838C2D0E948D178F83AE014F5F5F4F1E
:1035800067E089E00E9497172A960FB6F894DEBF8D
:103590000FBECDBFDF91CF911F910F91FF90EF90A4
:1035A000CF90089588E00E94051886FB882780F94F
:1035B000089580E00E9405188170089580E00E94BF
:1035C0000518869581700895CF92DF92EF92FF9251
:1035D0000F931F9326EDC22E23E0D22E35EFE32E5C
:1035E00033E0F32E0DE014E021EF33E043E054E04C
:1035F00064EF73E082EF93E00E941D1A1F910F9118
:10360000FF90EF90DF90CF9008958F929F92AF92AE
:10361000BF92CF92DF92EF92FF920F931F9346EDEE
:10362000842E43E0942E54E0A52E54E0B52E65EF91
:10363000C62E63E0D62E76E0E72E74E0F72E0DE07E
:1036400014E021EF33E043E054E064EF73E082EFF5
:1036500093E00E94A5181F910F91FF90EF90DF90CB
:10366000CF90BF90AF909F908F900895882319F0CE
:10367000D89AD09A0895D0980895D89899B3892F58
:10368000817090FF15C0D09A84EF91E00E945400A1
:10369000D09886E490E00E94540084EF91E0C899AD
:1036A00004C00E94540081E008950E94540080E00C
:1036B0000895CF93DF93D82FD898C8E0D09AD0FF41
:1036C00008C087E090E00E945400D09886E490E023
:1036D00007C086E490E00E945400D09887E090E014
:1036E0000E945400D695C15049F7DF91CF910895BB
:1036F0000E943D1B882339F08CEC0E94591B84E406
:103700000E94591B8FEF0895CF93DF93D098D8E094
:10371000C0E0D09A87E090E00E945400D09887E003
:1037200090E00E945400C695C899C06886E490E075
:103730000E945400D15069F78C2FDF91CF910895EA
:103740000E943D1B882389F08CEC0E94591B8EEB54
:103750000E94591B0E94841B809307040E94841BB3
:103760008093080481E090E0089580E090E008955F
:103770000E94781B8823F1F087E094E00E94A01B50
:103780006091080470E0762F662780910704680F27
:10379000711D882777FD8095982F0E94931D20E04A
:1037A00030E040E85DE30E94471E1092070410924B
:1037B0000804089560E070E0CB01089585B5886045
:1037C00085BD8FEF83BD89B7806889BF089585B5B2
:1037D000876085BD089585B58E7F85BD08951F924C
:1037E0000F920FB60F9211248F938091D7038431DB
:1037F00019F481E08093ED038091D7038F5F80936C
:10380000D7038F910F900FBE0F901F9018958F9A2E
:1038100088EE93E00E9449000E94790184E690E0DE
:103820000E9459030E94D3190E94B81B0E94DE1BFC
:103830000E94E71B0E9490030E94A7050E948C0330
:10384000C1E0C093CC030E9477010E94EE07C093B1
:103850000B048BEA93E00E9450018CED95E00E94EE
:10386000490061E088E00E945C0189EB93E00E94DE
:10387000500188EE93E00E94490041E050E06FE083
:1038800070E084E190E00E94C1020E9463010E9406
:10389000C71682E08093CA0360E070E08BE390E09B
:1038A0000E948C1683E080930B0478940E94C716C4
:1038B000FDCF991B79E004C0991F961708F0961B5D
:1038C000881F7A95C9F780950895AA1BBB1B51E103
:1038D00007C0AA1FBB1FA617B70710F0A61BB70B80
:1038E000881F991F5A95A9F780959095BC01CD0125
:1038F00008950E94801CB7FF0895821B930B0895C2
:10390000A29FB001B39FC001A39F700D811D112420
:10391000911DB29F700D811D1124911D0895505865
:10392000BB27AA270ED075C166D130F06BD120F02D
:1039300031F49F3F11F41EF45BC10EF4E095E7FBF8
:1039400051C1E92F77D180F3BA1762077307840753
:10395000950718F071F49EF58FC10EF4E0950B2ECB
:10396000BA2FA02D0B01B90190010C01CA01A001D1
:103970001124FF27591B99F0593F50F4503E68F12C
:103980001A16F040A22F232F342F4427585FF3CF6D
:10399000469537952795A795F0405395C9F77EF43E
:1039A0001F16BA0B620B730B840BBAF09150A1F087
:1039B000FF0FBB1F661F771F881FC2F70EC0BA0F0D
:1039C000621F731F841F48F4879577956795B79595
:1039D000F7959E3F08F0B3CF9395880F08F099278D
:1039E000EE0F979587950895D9D008F481E0089552
:1039F0000CD00FC107D140F0FED030F021F45F3F72
:103A000019F0F0C0511139C1F3C014D198F39923C2
:103A1000C9F35523B1F3951B550BBB27AA27621792
:103A20007307840738F09F5F5F4F220F331F441FD7
:103A3000AA1FA9F333D00E2E3AF0E0E830D091500F
:103A40005040E695001CCAF729D0FE2F27D0660FFC
:103A5000771F881FBB1F261737074807AB07B0E83B
:103A600009F0BB0B802DBF01FF2793585F4F2AF051
:103A70009E3F510568F0B6C000C15F3FECF3983E31
:103A8000DCF3869577956795B795F7959F5FC9F7AE
:103A9000880F911D9695879597F90895E1E0660F37
:103AA000771F881FBB1F621773078407BA0720F0B0
:103AB000621B730B840BBA0BEE1F88F7E095089519
:103AC00004D06894B111D9C00895BCD088F09F5734
:103AD00090F0B92F9927B751A0F0D1F0660F771F5A
:103AE000881F991F1AF0BA95C9F712C0B13081F03A
:103AF000C3D0B1E00895C0C0672F782F8827B85F82
:103B000039F0B93FCCF3869577956795B395D9F79A
:103B10003EF490958095709561957F4F8F4F9F4FA4
:103B20000895E89409C097FB3EF4909580957095B0
:103B300061957F4F8F4F9F4F9923A9F0F92F96E9F9
:103B4000BB279395F695879577956795B795F1116E
:103B5000F8CFFAF4BB0F11F460FF1BC06F5F7F4F0B
:103B60008F4F9F4F16C0882311F096E911C077231D
:103B700021F09EE8872F762F05C0662371F096E826
:103B8000862F70E060E02AF09A95660F771F881FF5
:103B9000DAF7880F9695879597F90895990F000899
:103BA000550FAA0BE0E8FEEF16161706E807F9070F
:103BB000C0F012161306E407F50798F0621B730BAA
:103BC000840B950B39F40A2661F0232B242B252B2B
:103BD00021F408950A2609F4A140A6958FEF811DCE
:103BE000811D089597F99F6780E870E060E008956F
:103BF0009FEF80EC089500240A9416161706180605
:103C00000906089500240A941216130614060506E0
:103C10000895092E0394000C11F4882352F0BB0F71
:103C200040F4BF2B11F460FF04C06F5F7F4F8F4FD4
:103C30009F4F089557FD9058440F551F59F05F3F0F
:103C400071F04795880F97FB991F61F09F3F79F0BE
:103C500087950895121613061406551FF2CF469540
:103C6000F1DF08C0161617061806991FF1CF8695C2
:103C70007105610508940895E894BB2766277727A6
:103C8000CB0197F908958ADF08F48FEF08950BD0E0
:103C9000C0CFB1DF28F0B6DF18F0952309F0A2CF2E
:103CA000A7CF1124EACFC6DFA0F3959FD1F3950FDC
:103CB00050E0551F629FF001729FBB27F00DB11DB0
:103CC000639FAA27F00DB11DAA1F649F6627B00D40
:103CD000A11D661F829F2227B00DA11D621F739F29
:103CE000B00DA11D621F839FA00D611D221F749F37
:103CF0003327A00D611D231F849F600D211D822F7E
:103D0000762F6A2F11249F5750408AF0E1F08823C4
:103D10004AF0EE0FFF1FBB1F661F771F881F9150D1
:103D20005040A9F79E3F510570F05CCFA6CF5F3F92
:103D3000ECF3983EDCF3869577956795B795F79504
:103D4000E7959F5FC1F7FE2B880F911D969587958C
:103D500097F90895CF93DF938230910510F482E0B4
:103D600090E0E0911204F091130420E030E0A0E034
:103D7000B0E0309739F14081518148175907B8F0C8
:103D80004817590771F482819381109729F013968F
:103D90009C938E9312972CC09093130480931204DB
:103DA00027C02115310531F04217530718F0A9013A
:103DB000DB0101C0EF019A01BD01DF010280F38147
:103DC000E02DD7CF21153105F9F0281B390B243010
:103DD000310580F48A819B816115710521F0FB0119
:103DE0009383828304C09093130480931204FE0192
:103DF000329644C0FE01E20FF31F8193919322504B
:103E00003109398328833AC020911004309111047C
:103E1000232B41F4209181003091820030931104D2
:103E20002093100420917F003091800021153105EE
:103E300041F42DB73EB74091830050918400241B7C
:103E4000350BE0911004F0911104E217F307A0F490
:103E50002E1B3F0B2817390778F0AC014E5F5F4FE0
:103E60002417350748F04E0F5F1F509311044093FD
:103E700010048193919302C0E0E0F0E0CF01DF9164
:103E8000CF910895CF93DF93009709F487C0FC0189
:103E9000329713821282C0911204D091130420979A
:103EA00081F420813181280F391F80911004909175
:103EB00011048217930779F5F0931104E09310042D
:103EC0006DC0DE0120E030E0AE17BF0750F412965F
:103ED0004D915C9113979D014115510509F1DA014E
:103EE000F3CFB383A28340815181840F951F8A173A
:103EF0009B0771F48D919C911197840F951F0296E9
:103F00009183808312968D919C91139793838283E2
:103F10002115310529F4F0931304E09312043EC0F7
:103F2000D9011396FC93EE9312974D915D91A40FD6
:103F3000B51FEA17FB0779F480819181840F951FE3
:103F40000296D90111969C938E9382819381139648
:103F50009C938E931297E0E0F0E08A819B8100971A
:103F600019F0FE01EC01F9CFCE01029628813981CA
:103F7000820F931F209110043091110428173907E4
:103F800069F4309729F4109213041092120402C0BD
:103F900013821282D0931104C0931004DF91CF9149
:103FA0000895BB274A3031F4992322F4BDE290955D
:103FB00081959F4F0C94DD1FBB27FB015527AA2736
:103FC000880F991FAA1FA41710F0A41B83955051A6
:103FD000B9F7A05DAA3308F0A95DA193009779F71E
:103FE000B111B1931192CB010C945722A0E0B0E033
:103FF000ECEFFFE10C940723FE013596619171917E
:10400000AF0180911604909117040E943E20E2E0D7
:104010000C94232360911604709117040E94672268
:1040200008950F931F93CF93DF93E0911604F091BF
:104030001704238121FF1BC0EC0100E010E08991EF
:104040006091160470911704DB011896ED91FC91B4
:104050001997882331F00995892B89F30FEF1FEF0A
:10406000EECF8AE00995892B11F4C80102C08FEFC9
:104070009FEFDF91CF911F910F910895ACE0B0E0D9
:10408000E4E4F0E20C94F7227C016B018A01FC016C
:1040900017821682838181FFBDC1CE0101964C013A
:1040A000F7019381F60193FD859193FF81916F0153
:1040B000882309F4ABC1853239F493FD859193FFD0
:1040C00081916F01853229F4B70190E00E94672247
:1040D000E7CF512C312C20E02032A0F48B3269F054
:1040E00030F4803259F0833269F420612CC08D3273
:1040F00039F0803339F4216026C02260246023C067
:10410000286021C027FD27C030ED380F3A3078F401
:1041100026FF06C0FAE05F9E300D1124532E13C017
:104120008AE0389E300D1124332E20620CC08E326E
:1041300021F426FD6BC1206406C08C3611F4206882
:1041400002C0883641F4F60193FD859193FF819179
:104150006F018111C1CF982F9F7D9554933028F422
:104160000C5F1F4FFFE3F9830DC0833631F08337B7
:1041700071F0833509F05BC022C0F801808189832A
:104180000E5F1F4F44244394512C540115C0380135
:10419000F2E06F0E711CF801A080B18026FF03C011
:1041A000652D70E002C06FEF7FEFC5012C870E9484
:1041B0004C222C0183012C852F77222E17C0380129
:1041C000F2E06F0E711CF801A080B18026FF03C0E1
:1041D000652D70E002C06FEF7FEFC5012C870E9454
:1041E00041222C012C852068222E830123FC1BC038
:1041F000832D90E048165906B0F4B70180E290E0B4
:104200000E9467223A94F4CFF50127FC859127FE9E
:1042100081915F01B70190E00E94672231103A94CA
:10422000F1E04F1A51084114510471F7E5C084368A
:1042300011F0893639F5F80127FF07C060817181D7
:10424000828193810C5F1F4F08C060817181882734
:1042500077FD8095982F0E5F1F4F2F76B22E97FF18
:1042600009C090958095709561957F4F8F4F9F4FB6
:104270002068B22E2AE030E0A4010E949922A82EE4
:10428000A81844C0853729F42F7EB22E2AE030E0EA
:1042900025C0F22FF97FBF2E8F36C1F018F4883574
:1042A00079F0B4C0803719F0883721F0AFC02F2FD4
:1042B0002061B22EB4FE0DC08B2D8460B82E09C0D3
:1042C00024FF0AC09F2F9660B92E06C028E030E078
:1042D00005C020E130E002C020E132E0F801B7FE85
:1042E00007C060817181828193810C5F1F4F06C07E
:1042F0006081718180E090E00E5F1F4FA4010E94F9
:104300009922A82EA818FB2DFF77BF2EB6FE0BC052
:104310002B2D2E7FA51450F4B4FE0AC0B2FC08C0A9
:104320002B2D2E7E05C07A2C2B2D03C07A2C01C09C
:10433000752C24FF0DC0FE01EA0DF11D8081803334
:1043400011F4297E09C022FF06C07394739404C03F
:10435000822F867809F0739423FD13C020FF06C0D6
:104360005A2C731418F4530C5718732C731468F4E4
:10437000B70180E290E02C870E94672273942C851D
:10438000F5CF731410F4371801C0312C24FF12C07C
:10439000B70180E390E02C870E9467222C8522FFE2
:1043A00017C021FF03C088E590E002C088E790E0D5
:1043B000B7010CC0822F867859F021FD02C080E23F
:1043C00001C08BE227FD8DE2B70190E00E946722D9
:1043D000A51438F4B70180E390E00E9467225A9454
:1043E000F7CFAA94F401EA0DF11D8081B70190E0A6
:1043F0000E946722A110F5CF332009F451CEB701F6
:1044000080E290E00E9467223A94F6CFF70186811D
:10441000978102C08FEF9FEF2C96E2E10C9413235B
:10442000DC01CB01FC01E199FECF06C0FFBBEEBB76
:10443000E09A31960DB20D9241505040B8F7089570
:10444000DC01A40FB51F4150504048F0CB01840F50
:10445000951F2E910E94312241505040D0F708956F
:10446000262FE199FECF9FBB8EBBE09A01970DB23C
:10447000021631F02DBB0FB6F894E29AE19A0FBE06
:104480000895FC010590615070400110D8F78095A7
:1044900090958E0F9F1F0895FC0161507040019010
:1044A0000110D8F7809590958E0F9F1F0895DC011D
:1044B000FC01672F71917723E1F7329704C07C915B
:1044C0006D9370836291AE17BF07C8F308950F9381
:1044D0001F93CF93DF93182F092FEB018B8181FD61
:1044E00003C08FEF9FEF20C082FF10C04E815F811D
:1044F0002C813D81421753077CF4E881F9819F01AB
:104500002F5F3F4F39832883108306C0E885F985E4
:10451000812F0995892B29F72E813F812F5F3F4FEE
:104520003F832E83812F902FDF91CF911F910F9189
:104530000895FA01AA27283051F1203181F1E89439
:104540006F936E7F6E5F7F4F8F4F9F4FAF4FB1E086
:104550003ED0B4E03CD0670F781F891F9A1FA11D81
:10456000680F791F8A1F911DA11D6A0F711D811D82
:10457000911DA11D20D009F468943F912AE0269F47
:1045800011243019305D3193DEF6CF010895462FA6
:104590004770405D4193B3E00FD0C9F7F6CF462F87
:1045A0004F70405D4A3318F0495D31FD40524193F0
:1045B00002D0A9F7EACFB4E0A695979587957795AD
:1045C0006795BA95C9F700976105710508959B0134
:1045D000AC010A2E06945795479537952795BA95BD
:1045E000C9F7620F731F841F951FA01D08952F9296
:1045F0003F924F925F926F927F928F929F92AF9273
:10460000BF92CF92DF92EF92FF920F931F93CF93BF
:10461000DF93CDB7DEB7CA1BDB0B0FB6F894DEBF56
:104620000FBECDBF09942A88398848885F846E847C
:104630007D848C849B84AA84B984C884DF80EE80C6
:10464000FD800C811B81AA81B981CE0FD11D0FB6CF
:10465000F894DEBF0FBECDBFED010895F894FFCFF3
:1046600000000001000000000000680400000000DD
:104670000002000000005C0400000000FF020100D6
:10468000001A04200041546D656761333220707256
:104690006F6772616D6162636465666768696A6BA2
:1046A0006C6D6E6F70717273747576777844617229
:1046B0006975737A204D2E2070726F6A2E797A3167
:1046C0003233343536373839303938373635343394
:1046D0003231214024060025643A253032643A25DF
:1046E00030326420253032643A253032643A253045
:1046F00032640020535A41464B41204E523A202505
:104700006420004F54574152434945005A414D4B94
:104710004E49454349450025643A253032643A25DF
:1047200030326420253032643A253032643A253004
:1047300032640A004272616B2064616E79636800C2
:1047400025642E20005261706F727420617761724F
:10475000796A6E792E20005261706F72742E20007B
:1047600050726F6772616D3A200050524F4752414C
:104770004D20474C4F574E590050524F4752414DD4
:1047800020544553544F575900435A5557414E49A9
:10479000450044414E45202D20454550524F4D0087
:1047A0004E41535441574120474F445A494E5900B6
:1047B0004E41535441574120414C41524D550050B8
:1047C0006E00577400537200437A00507400536FA8
:1047D000004E64007C002D2D2D2D2D2D2D005A41D5
:1047E000504953414E4F20474F445A494E45005778
:1047F000594C41435A4F4E4F20414C41524D005A63
:1048000041504953414E4F20414C41524D004D497A
:104810004E5554590053454B554E44590053455439
:104820004E452053454B554E4400445A49454E0091
:104830004D49455349414300524F4B00445A494565
:104840004E205459474F444E49410054494D45521A
:1048500000504F4E4945445A49414C454B0057542E
:104860004F52454B0053524F444100435A57415217
:1048700054454B0050494154454B00534F424F540F
:1048800041004E4945445A49454C4100414C415232
:104890004D20542E2057594C2E00414C41524D2052
:1048A000542E20574C2E00557374617720616C6133
:1048B000726D0055737461772074696D6572005470
:1048C000696D65722077796C61637A6F6E790054D7
:1048D000696D657220776C61637A6F6E7900416CE7
:1048E00061726D2077796C61637A6F6E7900416CCB
:1048F00061726D20636F647A69656E6E7900416CD8
:1049000061726D207479676F646E696F77790041A9
:104910006C61726D206D6965736965637A6E79008B
:104920004E5220005779626965727A2070726F6703
:1049300072616D3A003E3E3E003C3C3C005370725A
:104940006177647A2070727A6563682D0077797474
:104950007977616E69652055534200576974616AC1
:1049600021004C4344204844343437383000437AE3
:104970007974616D3A00437A79737A637A656E6906
:10498000652E2E2E004E6120706F637A6174656B08
:1049900000656B72616E752E2E2E004F637A656B0B
:1049A0006977616E69652E2E2E200041565220498E
:1049B0004E53504543544F5200446172656B204D35
:0249C0002E00C7
:040000050080007EF9
:00000001FF
