:100000000C942A000C9447000C9447000C94470071
:100010000C94E61A0C9447000C9404040C944700CA
:100020000C9447000C9447000C9447000C94470034
:100030000C9447000C9447000C9447000C94470024
:100040000C9447000C9447000C9447000C94470014
:100050000C94470011241FBECFE5D8E0DEBFCDBF12
:1000600013E0A0E6B0E0E0E6F4E402C005900D92F3
:10007000A236B107D9F723E0A2E6B3E001C01D9292
:10008000A73BB207E1F70E94FE1A0C942E220C94B3
:100090000000009741F0EFE9FFE03197F1F700C071
:1000A00000000197F6CF0895009731F025E02A95DA
:1000B000F1F700000197F8CF08958F929F92AF92C9
:1000C000BF92CF92DF92EF92FF924B015C0120E052
:1000D00030E04AE755E40E943A1D6B017C0120E0C4
:1000E00030E040E85FE30E94E71B87FD24C020E08A
:1000F0003FEF4FE757E4C701B6010E94361D1816BF
:10010000ACF420E030E040E251E4C501B4010E94CB
:100110003A1D0E94581C20E931E06115710581F0FB
:10012000C9010197F1F761507109F7CFC701B60115
:100130000E94581C02C061E070E0CB010197F1F70A
:10014000FF90EF90DF90CF90BF90AF909F908F90F7
:1001500008958F929F92AF92BF92CF92DF92EF92CB
:10016000FF924B015C012BEA3AEA4AEA50E40E9412
:100170003A1D6B017C0120E030E040E85FE30E9423
:10018000E71B87FD21C020E030E04FE753E4C701C3
:10019000B6010E94361D181694F420E030E04AE7BC
:1001A00054E4C501B4010E94EB1BFF90EF90DF9077
:1001B000CF90BF90AF909F908F900C945D00C7013F
:1001C000B6010E94581C01C061E06A95F1F7FF90EA
:1001D000EF90DF90CF90BF90AF909F908F90089559
:1001E0001F93CF93DF931F92CDB7DEB7182F0E94D6
:1001F000CF038CEA0E94DB03812F0E94DB030E9465
:10020000CF038DEA0E94DB0380E00E94E203898332
:100210000E94D50389810F90DF91CF911F9108959E
:100220001F93CF93DF931F92CDB7DEB7182F69834B
:100230000E94CF038CEA0E94DB03812F0E94DB0324
:100240006981862F0E94DB030E94D50385E090E040
:100250000F90DF91CF911F910C9449001F93CF9382
:10026000DF931F92CDB7DEB7182F79830E9410015C
:100270007981672F81E0810F0F90DF91CF911F91DE
:100280000C9410011F93CF93DF93182F0E94F0005E
:10029000C82FD0E081E0810F0E94F0009E01382B32
:1002A000C901DF91CF911F91089580FF02C0DC9AB0
:1002B00001C0DC9881FF02C0DD9A01C0DD9882FF99
:1002C00002C0DE9A01C0DE9883FF02C0DF9A089563
:1002D000DF98089589B382958170CD998260CE9917
:1002E0008460CF9988600895CF93DF93D498D59890
:1002F000D698D798DA9ADB9A0E946A0190E1899F92
:10030000E0011124DB98DB9A0E946A01DB98E7EC9C
:10031000F0E03197F1F700C000008C2BDF91CF9116
:100320000895D9980C947401CF93C82FD49AD59A74
:10033000D69AD79ADA98DB9A82958F700E945501E7
:10034000DB98DB9A8C2F0E945501DB980E9491016B
:1003500087FDFCCFCF910895D9980C949401D99A38
:100360000C949401D99A0C947401CF93DF93EC010F
:100370008991882319F00E94AF01FACFDF91CF91C4
:10038000089590E4699F800D112480680C94AC015D
:1003900081E00E94AC018FE39FE10197F1F700C07B
:1003A0000000089582E00E94AC018FE39FE1019775
:1003B000F1F700C000000895C09A0895CF93D49A31
:1003C000D59AD69AD79AD39AD19AD29A8FE59AEE9D
:1003D0000197F1F700C00000D998DB98DA98C3E0E4
:1003E000DB9A83E00E945501DB988FE19EE4019740
:1003F000F1F700C00000C15099F7DB9A82E00E943B
:100400005501DB988FE99FE00197F1F700C00000EC
:1004100088E20E94AC0188E00E94AC0181E00E9469
:10042000AC0186E00E94AC018CE00E94AC01B89A5D
:10043000CF910C94DC01C0980895CF93DF93CDB792
:10044000DEB761970FB6F894DEBF0FBECDBF4AE0AE
:10045000BE016F5F7F4F0E94C41E0E94B50161966E
:100460000FB6F894DEBF0FBECDBFDF91CF910895D8
:100470006F927F928F929F92AF92BF92CF92DF92B4
:10048000EF92FF920F931F93CF93DF9300D0CDB7DE
:10049000DEB76B017C0149835A830E94581C9B0183
:1004A00049815A8177FF04C022273327261B370B47
:1004B000293E334008F09EC08A014530510510F0B6
:1004C00004E010E0C701B6010E94531C4B015C011F
:1004D000CB010E941D0281E090E02AE0622E712C87
:1004E0002AE08017910740F4F3012E9F30012F9FDF
:1004F000700C11240196F5CF012B09F47BC082E327
:1005000093E00E94B501840197FE04C000271127E3
:1005100008191909B30180E090E00E94841C9B0136
:10052000AC01C701B6010E943A1D0E94531C9B01F9
:1005300077FF04C022273327261B370BB9018827F2
:1005400077FD8095982F0E94861C6B017C0193019A
:10055000D8010E946C1B0E94841C9B01AC01C70146
:10056000B6010E94821B0E94581C6B017C01AB01EA
:1005700081E090E02AE030E06AE04217530740F063
:100580000196F9016E9F90016F9F300D1124F5CFF8
:1005900041E02AE030E05AE06216730640F04F5F17
:1005A000B901569F9001579F300D1124F5CF01E0FE
:1005B00010E0A42EB12CA81AB90A0A151B0538F4AC
:1005C00080E090E00E941D020F5F1F4FF6CFC60132
:1005D0000F900F90DF91CF911F910F91FF90EF90AF
:1005E000DF90CF90BF90AF909F908F907F906F9053
:1005F0000C941D020F900F90DF91CF911F910F91DE
:10060000FF90EF90DF90CF90BF90AF909F908F9032
:100610007F906F900895CF93DF93CDB7DEB761974A
:100620000FB6F894DEBF0FBECDBF40E1BE016F5FD5
:100630007F4F0E94C41E0E94B50161960FB6F894C8
:10064000DEBF0FBECDBFDF91CF910895CF92DF9275
:10065000EF92FF920F931F93CF93DF938C016B0167
:100660007A01C0E0D0E0CC15DD0581F0E114F104A1
:1006700011F08CE101C084E10E94AC01011511056B
:1006800019F0C8010E9449002196EDCFDF91CF916A
:100690001F910F91FF90EF90DF90CF900895CF9230
:1006A000DF92EF92FF920F931F93CF93DF938C0112
:1006B0006B017A01C0E0D0E0CC15DD0581F0E114DA
:1006C000F10411F088E101C080E10E94AC01011544
:1006D000110519F0C8010E9449002196EDCFDF9164
:1006E000CF911F910F91FF90EF90DF90CF900895E1
:1006F0000F931F93CF93DF93EC018230910520F08D
:1007000082309105D9F40FC080E80E94AC0108E264
:1007100010E080E20E94AF0101501109011511059E
:10072000C1F7CD2B59F480EC0E94AC01C8E2D0E0B7
:1007300080E20E94AF0121972097D1F7DF91CF91FE
:100740001F910F9108958330910589F030F4813025
:10075000910549F0029749F008958430910549F0D8
:10076000059749F008958CE007C088E005C08EE049
:1007700003C08DE001C08FE00C94AC01BC0180E8A7
:100780009EE30E94581B862F603138F07727CB01FB
:10079000409797FD01969595879580B9089584EACD
:1007A00086BF06B607FEFDCF089584E986BF06B66C
:1007B00004FCFDCF089583B984E886BF06B607FE22
:1007C000FDCF089520E4829FC0011124846886BF74
:1007D00006B607FEFDCF83B108958EB5887F8EBD26
:1007E00008958EB585608EBD08958E98969A8EB5C3
:1007F0008F7B8EBD1092720389B7806289BF109281
:100800007303BC98C49A08951F920F920FB60F926B
:1008100011242F933F938F939F9386B597B5209183
:10082000660330916703821B930B26B537B530936F
:100830006703209366032EB530E423272EBD8F3146
:10084000910510F01092720320917203222319F087
:1008500021E02093650320917203211111C01092B1
:10086000640310926303109262032EB520642EBDC0
:10087000209172032F5F2093720322E0209365037F
:1008800020916503213009F05AC09C012A5031099A
:100890002531310510F01092650320916503213058
:1008A00009F04DC0429728F0809172038F5F8093CA
:1008B0007203809172038230E8F18091720380FDAF
:1008C00039C08091630390916403880F991F9093BE
:1008D0006403809363030EB406FE05C081609093A9
:1008E000640380936303809162038F5F809362034C
:1008F0008D3000F18091630390916403282F2F7352
:10090000209371039C01207C3770689415F836950C
:1009100027951694E1F72093700388279870892F04
:1009200086958695869580936F031092650381E086
:1009300080937303809172038F5F80937203809121
:100940006503811105C0109272038EB58F7B8EBD39
:100950009F918F913F912F910F900FBE0F901F90FD
:100960001895109273038FEF809371038093700337
:10097000089586B382958F7091E08927817090E009
:100980000895CF93C82F8A3019F48DE00E94C104D6
:100990005D9BFECFCCB9CF9108955F9BFECF8CB10C
:1009A000089561E08BEF0C946B1760E08BEF0C9473
:1009B0006B1780E0089590BD89B988E18AB986E80F
:1009C00080BD08955F9B02C08CB1089580E00895BA
:1009D00080EA089580E2089580E8089523E09695DE
:1009E00087952A95E1F70895CF93DF9398E0899F43
:1009F000E0011124803270F58C2F0E94F00080936A
:100A000096038C2F8F5F0E94F000809397038C2FAA
:100A10008E5F0E94F000809398038C2F8D5F0E9460
:100A2000F000809399038C2F8C5F0E94F0008093DC
:100A30009A038C2F8B5F0E94420190939C038093BA
:100A40009B038C2F895F0E94F00080939D03DF91B0
:100A5000CF910895BE017A95E199FECF48E050E02C
:100A600086E993E0DF91CF910C940321CF9360E06E
:100A700070E080E09FE30E94C50880919C038F9303
:100A800080919B038F9380919A031F928F93809103
:100A900099031F928F93809196031F928F93809159
:100AA00097031F928F93809198031F928F9387EDE6
:100AB00090E09F938F930E94E91E80919D03C4E66E
:100AC0006C2F0E944C1B2DB73EB7225F3F4F0FB6D5
:100AD000F8943EBF0FBE2DBF992301F11F929F9343
:100AE00083EF90E09F938F930E94E91E80919D0376
:100AF0006C2F0E944C1B0F900F900F900F90813025
:100B000019F483E091E004C0823041F48CE091E07C
:100B10009F938F930E94E91E0F900F908AE090E0C0
:100B2000CF910C94FD1E0E94191A8091A3038F93FC
:100B30008091A2038F9320919303822F992787FDA1
:100B400090959F932F932091AA03822F992787FD39
:100B500090959F932F932091A103822F992787FD32
:100B600090959F932F9320919203822F992787FD31
:100B700090959F932F9320919103822F992787FD22
:100B800090959F932F9387E191E09F938F930E947D
:100B9000E91E8DB79EB70E960FB6F8949EBF0FBE96
:100BA0008DBF08958EEF0E940B1833E096958795C0
:100BB0003A95E1F708958CEF0E940B1843E0969563
:100BC00087954A95E1F70895CF93C82F0E94DB05DA
:100BD00090E08C0F911D803A910510F0805A910998
:100BE000CF910C94F404FF920F931F93CF93DF9354
:100BF000F82E882329F0C0E0D0E000E411E009C01D
:100C000084E391E0DF91CF911F910F91FF900C94BD
:100C1000041F8C2F21969C2F91509F1578F40E94D1
:100C2000E405DF93CF931F930F930E94E91E0E9468
:100C300036050F900F900F900F90EBCFDF91CF9173
:100C40001F910F91FF90089585E491E09F938F93FA
:100C50000E94E91E0E9493050F900F9080EA0C9469
:100C6000F3058EEF0E940B18BC018CEF0C94F71764
:100C70000E94DB05813A70F060E070E08EEF0E9428
:100C8000F7170E94310660E070E08AE794E40E9462
:100C9000C50804C00E94D205813A70F78A98929ADA
:100CA0008B98939A8D98959A8C98949AA298AA9AD0
:100CB000A398AB9AA498AC9AA598AD9AA698AE9A28
:100CC000A798AF9A87E690E00E94DB048EE690E05A
:100CD0009093B4038093B30380E690E09093B203C3
:100CE0008093B1030895CF930E94DB05C82F0E9423
:100CF000D2058C1740F40E94D205C82F0E94DB0554
:100D000090EA9C0F06C00E94D205C82F0E94DB0506
:100D10009C2F981B892FCF91089587E591E09F9391
:100D20008F930E94E91E0E9493050E9473060E9401
:100D3000F3050F900F900C943106CF92DF92EF9253
:100D4000FF920F931F93CF93DF934091A1034093A2
:100D500096039091920390939703909191039093AF
:100D600098039091AA039093990390919303909381
:100D70009A032091A2033091A30330939C03209304
:100D80009B03062F10E0DD24D394D60E0E571C4F84
:100D9000F801908164E6C62EFD2D9C9DF00D112476
:100DA000F0939D0328E0829FE0011124803250F4EB
:100DB000EE24EA94F12CC7018C1B9D0B07977CF461
:100DC000C0E0D1E0E199FECFBE017A9548E050E065
:100DD00086E993E00E941321C85FD1093FC0642FC8
:100DE0008C2F0E941001609192038C2F8F5F0E94C4
:100DF0001001609191038C2F8E5F0E941001609111
:100E0000AA038C2F8D5F0E941001609193038C2F99
:100E10008C5F0E9410016091A2037091A3038C2F3C
:100E20008B5F0E942E01F80180818E01085F1F4FA9
:100E30006D2D8C9D600D11248C2F895F0E941001F7
:100E4000E01AF10AF7E0EF16F104B4F460E070E0A4
:100E500088EC92E40E94C508C0E0D0E08FEF93E0F8
:100E60008C1B9D0B079754F460E070E08AEF93E4CD
:100E70000E94C50800E010E0B80102C0BE017395F1
:100E80008EEFDF91CF911F910F91FF90EF90DF9048
:100E9000CF900C94F7170F931F93CF93DF930E947B
:100EA000D1040E94191AC2E8D3E010E08991882386
:100EB00019F10E94BC0885E090E00E9449000E9460
:100EC000D2058F3929F40E94DB058823F9F00FC081
:100ED0000E94DB05082F0E94D205202F30E090E011
:100EE00001962817390719F411C00E948D060E9437
:100EF000D205612F0E949D061F5F1A30B9F682E06D
:100F0000DF91CF911F910F910C94D4088091A80389
:100F1000833059F760E070E88BE395E40E94C508E0
:100F2000EBCF1092A703829903C081E08093A703BF
:100F30008091A70308951092A703839903C081E0CD
:100F40008093A7038091A70308951092A703859922
:100F500003C081E08093A7038091A70308951092B6
:100F6000A703849903C081E08093A7038091A7031E
:100F700008951092A7039A9903C081E08093A70374
:100F80008091A70308951092A7039B9903C081E065
:100F90008093A7038091A70308951092A7039C99BB
:100FA00003C081E08093A7038091A7030895109266
:100FB000A7039D9903C081E08093A7038091A703B5
:100FC00008951092A7039E9903C081E08093A70320
:100FD0008091A70308951092A7039F9903C081E011
:100FE0008093A7038091A7030895811102C00C94F8
:100FF0009107813011F40C949B07823011F40C940A
:10100000A507833011F40C94AF07843011F40C94CD
:10101000B907853011F40C94C307863011F40C9491
:10102000CD07873011F40C94D707883011F40C9455
:10103000E107893011F40C94EB078FEF08951F93AB
:10104000CF93DF93C8E7D3E010E0812F0E94F5072C
:1010500089931F5F1A30C9F7DF91CF911F910895CF
:10106000BF92CF92DF92EF92FF920F931F93CF9395
:10107000DF9378E7E72E73E0F72EC2E8D3E0D12CB8
:1010800000E010E0CC24C394E2E0BE2E8D2D0E943F
:10109000F507F7019081891741F0813011F4B8828A
:1010A00006C0811104C0C88202C0188202C001E0DB
:1010B00010E0F70181937F01D3942196FAE0DF12CB
:1010C000E5CF012B29F00E944B0781E080936B0351
:1010D000DF91CF911F910F91FF90EF90DF90CF9014
:1010E000BF900895CF93DF93C0E0D0E060E08C2FF5
:1010F0000E9410012196C11581E0D807B9F7C0E020
:10110000D0E0E199FECF60E0CE010E94342121962B
:10111000C11584E0D807A9F7DF91CF910C9431066F
:101120002F923F9210927503109274038091740372
:101130009091750320919403309195038217930742
:10114000C4F4D101ED91FC91E80FF91F80810E9458
:10115000AF0160E070E088E492E40E945D0080915D
:1011600074039091750301969093750380937403B3
:10117000DDCF3F902F900895979A60E070E080E86F
:101180009FE30E945D0097980895979A0E945D00E2
:101190009798089560E070E080E490E40E94C508AC
:1011A0008FEF80937C000895CF93DF931F92CDB78C
:1011B000DEB7811103C010927C0010C089830E94A9
:1011C000DC018981813029F40F90DF91CF910C945B
:1011D000CA08823019F482E380937C000F90DF917B
:1011E000CF9108950F931F93CF93DF932AE030E0C0
:1011F000C1E04AE08217930740F0CF5FB901469FF4
:101200009001479F300D1124F5CF30937503209343
:1012100074039093A00380939F0380E090E00E946A
:10122000780310927503109274038C2F90E0C7E23C
:10123000D0E0C81BD90B8C010D5F1F4F8091740348
:10124000909175038C179D07FCF460E00E94C1012A
:1012500080919F039091A0030E941D0261E0809104
:1012600074030E94C10180919F039091A0030E948A
:101270001D028091740390917503800F911F9093CC
:10128000750380937403DACF60E070E08AEF93E433
:101290000E945D000E94B10481E080936B03DF91A6
:1012A000CF911F910F91089520919F033091A0033A
:1012B0004AE0429FC001439F900D1124893E23E0E4
:1012C000920710F088EE93E09093A00380939F0321
:1012D00080919F039091A0030C94F20880919F034A
:1012E0009091A0036AE070E00E94581B611571059F
:1012F00029F07093A00360939F0306C081E090E003
:101300009093A00380939F0380919F039091A003EB
:101310000C94F208CF93DF93EC0110926B03809151
:10132000A803813009F460C00E94C80180E691E002
:101330000E94B501CE010E941D0261E080E00E9482
:10134000C101209719F48AE691E01CC0C130D10593
:1013500019F489E791E016C0C230D10519F489E883
:1013600091E010C0C330D10519F482E991E00AC0C0
:10137000C430D10519F480EA91E004C0259721F426
:1013800080EB91E00E94B5011092750310927403F6
:1013900080917403909175030597B4F460E070E058
:1013A00080EF91E40E945D0060E070E080EA90E4EC
:1013B0000E94C508809174039091750301969093E3
:1013C000750380937403E4CF60E070E08AEF93E4E8
:1013D0000E945D0041E050E06FE070E084E190E049
:1013E0000E9426030E94C8010E94B10481E08093FC
:1013F0006B03DF91CF910895811103C08FEB91E0D2
:101400001DC0813019F483EC91E018C0823019F4CA
:1014100087EC91E013C0833019F48BEC91E00EC09F
:10142000843019F48FEC91E009C0853019F483ED14
:1014300091E004C0863021F487ED91E00C94B50171
:10144000089560E080916D030E94C1018091910335
:101450008A3024F480E090E00E941D028091910384
:10146000992787FD90950E941D0282EE92E00E94CE
:10147000B501809192038A3024F480E090E00E94CC
:101480001D0280919203992787FD90950E941D026D
:1014900082EE92E00E94B5018091A1038A3024F48B
:1014A00080E090E00E941D028091A103992787FDB2
:1014B00090950E941D0282EE92E00E94B5018091FB
:1014C00090038A3024F480E090E00E941D02809115
:1014D0009003992787FD90950C941D020E94210A84
:1014E00061E080916D030E94C1018091AA038A305E
:1014F00024F480E090E00E941D028091AA039927C5
:1015000087FD90950E941D0282EE92E00E94B50137
:10151000809193038A3024F480E090E00E941D02C1
:1015200080919303992787FD90950E941D0282EE7A
:1015300092E00E94B5018091A2039091A3030E94C2
:101540001D0261E08DE00E94C1018091A4030C9412
:10155000FC09CF93C82F81110E94210A61E080917C
:101560006D030E94C101C230C1F5809193038111C6
:1015700003C08BED91E02EC010927503109274039E
:101580002091740330917503273031050CF580915B
:101590009303992787FD909502C0959587952A9585
:1015A000E2F780FF0BC083EE91E00E94B5018091CD
:1015B00074039091750301960E941D02809174033B
:1015C0009091750301969093750380937403D8CF1F
:1015D00083EE91E0CF910C94B501C33019F5809161
:1015E000AA038A3024F480E090E00E941D028091DA
:1015F000AA03992787FD90950E941D0282EE92E032
:101600000E94B501809193038A3024F480E090E039
:101610000E941D0280919303992787FD9095CF9199
:101620000C941D02CF910895423041F420919F0304
:101630003091A00331952195310909C0413029F439
:1016400020919F033091A00302C020E030E061119F
:1016500006C090919103920F9093910317C061304F
:1016600031F490919203920F909392030FC06230E5
:1016700031F49091A103920F9093A10307C06330BE
:1016800029F490919003920F90939003882311F086
:10169000833031F5643031F48091AA03820F809356
:1016A000AA030895653021F480919303820F7EC0D0
:1016B00081117EC0663059F48091A2039091A303FA
:1016C000820F931F9093A3038093A2030895673022
:1016D00009F06EC08091A403820F8093A403089543
:1016E000823009F065C0643069F4413021F48091A2
:1016F000930381605BC0423009F05AC0809193032C
:101700008E7F54C0653069F4413021F48091930399
:1017100082604CC0423009F04BC0809193038D7FB2
:1017200045C0663061F4413021F4809193038460B8
:101730003DC04230E9F5809193038B7F37C067301D
:1017400061F4413021F48091930388602FC04230CE
:1017500079F580919303877F29C0683061F4413027
:1017600021F480919303806121C0423009F580917A
:1017700093038F7E1BC0693061F4413021F4809166
:101780009303806213C0423099F4809193038F7D5C
:101790000DC06A3069F4413021F480919303806474
:1017A00005C0423029F4809193038F7B809393038B
:1017B0000895CF93DF93D82FC62F6F3F51F4209118
:1017C0009F033091A0032230310580F081E090E04A
:1017D0000BC0643058F420919F033091A0032B304C
:1017E000310520F08AE090E00E94F208DD2311F03C
:1017F000D330F9F48CEF8C0F823058F420919F0392
:101800003091A0032B30310520F08AE090E00E9457
:10181000F208D1110EC0C73061F480919F039091FE
:10182000A003029730F081E090E0DF91CF910C941B
:10183000F208DF91CF910895882361F0813061F043
:10184000823021F0833021F486E008958BE0089502
:1018500080E0089588E0089584E00895CF93DF93B1
:10186000D82FC62F10926B0380E090E00E9478037F
:1018700060E080916D030E94C1018D2F0E941C0CBD
:101880004C2F552747FD5095282F30E0421753071E
:1018900069F4D11103C085EE91E05BC0D53019F435
:1018A00086EF91E056C086E092E053C0C11103C0BC
:1018B00088EA91E00EC0C13019F485E192E009C0D8
:1018C000C23019F48CE192E004C0C33021F484E208
:1018D00092E00E94B501DD2311F0D330B1F4C430A1
:1018E00019F481E392E035C0C53019F487E392E042
:1018F00030C0D11130C0C63019F48FE392E029C056
:10190000C73049F583E492E024C0D23021F5C430D9
:1019100019F482E592E01DC0C53019F48FE592E01C
:1019200018C0C63019F486E692E013C0C73019F427
:101930008CE692E00EC0C83019F485E792E009C049
:10194000C93019F48CE792E004C0CA3021F483E86E
:1019500092E00E94B50180E991E00E9449000E9456
:10196000B10481E080936B03DF91CF9108958111E1
:1019700003C08DE892E00EC0813019F48DE992E049
:1019800009C0823019F48DEA92E004C0833021F45A
:101990008EEB92E00C94B50108958091910387FF3E
:1019A00004C087E18093910304C0883114F0109241
:1019B00091038091920387FF04C08BE3809392038D
:1019C00004C08C3314F0109292038091A10387FF1E
:1019D00004C08BE38093A10304C08C3314F01092F5
:1019E000A1038091900387FF04C083E68093900356
:1019F0000895843614F01092900308959091930303
:101A0000191624F0823049F09CE005C09D302CF07E
:101A1000823019F091E09093930390919303492FB2
:101A20004D7F2091A2033091A3034130C9F095303E
:101A3000B9F059EF590F523098F09A3089F09C3034
:101A400079F0443079F0493069F0923069F4A901B5
:101A500043705527452B41F0811106C08CE105C02C
:101A60008FE103C08EE101C08DE14091AA031416FD
:101A700044F4552747FD509590E0841795071CF4D2
:101A800081E08093AA03213F88ED38071CF48FE0A2
:101A900097E205C02031374234F081EF98ED909302
:101AA000A3038093A2038091A40387FF04C086E070
:101AB0008093A4030895873014F01092A40308952E
:101AC0001F93CF93DF930E941D0282E393E00E9455
:101AD000B501809198038A3020F480E090E00E9464
:101AE0001D028091980390E00E941D0282EE92E018
:101AF0000E94B501809197038A3020F480E090E045
:101B00000E941D028091970390E00E941D0282EEC8
:101B100092E00E94B501809196038A3020F480E023
:101B200090E00E941D028091960390E00E941D02A9
:101B300083E491E00E94B501809199038A3020F4FA
:101B400080E090E00E941D028091990390E00E9445
:101B50001D0282EE92E00E94B50180919A038A30C4
:101B600020F480E090E00E941D0280919A0390E0B2
:101B70000E941D0282EE92E00E94B50180919B03BB
:101B800090919C030E941D0283E491E00E94B501A4
:101B900080919D0314E6612F0E944C1BC92FD0E059
:101BA000209721F18FEC92E00E94B501CE010E94B6
:101BB0001D0283E491E00E94B50180919D03612F95
:101BC0000E944C1B90E090937503809374038130C6
:101BD000910519F483E091E004C0029739F48CE098
:101BE00091E0DF91CF911F910C94B501DF91CF91DE
:101BF0001F910895CF93DF93EC0180916E038330A2
:101C000049F48C2F0E94E405CE010196DF91CF911B
:101C10000C94600D853029F48C2FDF91CF910C94BA
:101C2000B70CDF91CF9108950F931F93CF93DF935C
:101C3000EC018B016F3F8FEF780761F460E080E08B
:101C40000E94C10184E391E0DF91CF911F910F9138
:101C50000C94B501CF3F8FEFD80761F461E080E0CD
:101C60000E94C101CE010196DF91CF911F910F918A
:101C70000C94FA0D60E080E00E94C101CE010E9448
:101C8000FA0DC017D10751F7DF91CF911F910F9136
:101C9000089580919F039091A003029720F081E026
:101CA00090E00E94F20880916A0386301CF0109246
:101CB0006A0305C087FF03C085E080936A0380E064
:101CC00090E00E94780360E080E00E94C10183ED13
:101CD00092E00E94B50161E080E00E94C10184EEC3
:101CE00092E00E94B50180916A03992787FD909543
:101CF0000E941D0288EE92E00C94B50180E090E015
:101D00000E94780360E080E00E94C101809171032D
:101D100090E00E941D0260E086E00E94C101809177
:101D2000700390E00E941D0261E080E00E94C1010A
:101D300080916F0390E00C941D0210926D030E943D
:101D4000191A80E090E00E94780360E08BE00E9426
:101D5000C10180916C03811103C08FE093E004C046
:101D6000813021F483EE91E00E94B5010E946E0A59
:101D70008091A9038823F1F00E94091A85E18093DC
:101D80006D0360E082E10E94C10183EE91E00E9458
:101D9000B50161E082E10E94C10183EE91E00E9401
:101DA000B50161E080916D030E94C1018091A9039A
:101DB0000E94A90A60E08CE00E94C1010E94AF1A53
:101DC00041E050E00C94380280E090E00E947803FB
:101DD00080919F039091A0030B9720F08AE090E000
:101DE0000E94F20880918E0390918F038F3F9F4F46
:101DF0002CF40E94730690E001970CC00E947306B9
:101E000090E020918E0330918F032817390734F02A
:101E10008FEF9FEF90938F0380938E030E94730642
:101E2000682F70E06150710980918E0390918F034B
:101E30000C94140E8091A90387FD1092A903609160
:101E4000A90380E00E94D90B80E090E00E94780313
:101E50008091A9038830F9F4209190034091A10367
:101E600060919203809191030E948F182091A203A8
:101E70003091A303409193036091A4038091AA033E
:101E80000E94181910926B030E94C80181E0809390
:101E9000770380937E0040919E03442339F0609144
:101EA000A90380E00E94140B10929E030E94CD0CA7
:101EB00080E00E94FE0C10926D030E946E0A8091D9
:101EC0007703813039F46091A90380E00E942E0CE1
:101ED000109277030895EF920F93CF93DF93809141
:101EE000A9038F3F1CF48FEF8093A9036091A9038E
:101EF00080918E030E94D90B8091A9038F3F19F521
:101F000080E090E00E94780380918E0390918F038F
:101F10008F3F2FEF92071CF483E090E004C00497FA
:101F200034F08FEF9FEF90938F0380938E0363E0E5
:101F300070E080918E0390918F03DF91CF910F918C
:101F4000EF900C94140E80E090E00E947803C09112
:101F50008E03D0918F038C2F0E941C0C2091A9031B
:101F6000332727FD309590E02817390729F0CE0157
:101F70000196029708F044C081E080937E00809330
:101F80007703CF3F8FEFD807D9F1209729F40E942C
:101F900095190E94E71734C0C130D10569F40E9439
:101FA0009D19209190034091A1036091920380912B
:101FB00091030E94C51924C0C230D10579F40E9452
:101FC000AD19009190032091A1034091920360917B
:101FD0009103809193030E94E51912C0239781F425
:101FE0000E94BD19E09090030091A10320919203FB
:101FF00040919103609193038091AA030E94F51987
:1020000040919E03442341F06091A90380918E0387
:102010000E94140B10929E030E94CD0C80918E039F
:102020000E94FE0C10926D0380918E030E94A90AFB
:10203000809177038130A1F480918E0390918F037A
:10204000892B31F485E090E090938F0380938E0389
:102050006091A90380918E030E942E0C1092770349
:10206000DF91CF910F91EF90089580E090E00C9474
:1020700078038091A803833081F480E090E00E948F
:1020800078038CEE92E00E94B50161E080E00E944E
:10209000C1018CEF92E00C94B50180916E03811127
:1020A00002C00C94490E813011F40C947E0E8230E3
:1020B00011F40C949D0E833011F40C94E40E8430D2
:1020C00011F40C941A0F853011F40C946B0F8630B8
:1020D00011F40C94351008958B339105E1F580913E
:1020E0006A0380936E0390E00E948A0980916E03D8
:1020F000813009F442C0823039F40E941F080E94E6
:102100006B198093A90339C0833029F410928F038F
:1021100010928E0332C0843051F41092A90381E0F2
:102120008093770310929E030E94191A26C085306F
:1021300021F50E94091A8FEF8093A90381E0809313
:10214000770310929E030E946B1990E090938F0387
:1021500080938E0312C08032910531F480916A031E
:1021600090919F03890F07C0819739F480916A038A
:1021700090919F03891B80936A0381E080936B0396
:1021800008952F923F92AF92BF92CF92DF92EF923B
:10219000FF920F931F93CF93DF93CDB7DEB7C05558
:1021A000D1090FB6F894DEBF0FBECDBF6C018932E6
:1021B000910509F0F7C10E94ED0310926B030E9494
:1021C000C80188E290E0909395038093940380E5A2
:1021D000E5E8F0E0DE01119601900D928A95E1F7B5
:1021E00084E090E00E949D1D7C0110927503109286
:1021F000740358E2B52E00917403109175030230F8
:102200001105ACF580E590E00E949D1DF801EE0FF0
:10221000FF1FEE0DFF1D918380831092A90340E004
:10222000B09E9001B19E300D1124542FE42FFF2752
:10223000E7FDF0954F5FE832F10584F4DC01A50F6E
:10224000B11D57FDBA95E20FF31F61E070E06C0F0E
:102250007D1FE60FF71F50815C93E7CF5093A903D2
:102260000F5F1F4F1093750300937403C4CF109238
:1022700075031092740380917403909175038832F2
:10228000910594F4D701ED91FC91E80FF91F80813D
:102290000E94AF0180917403909175030196909311
:1022A000750380937403E7CF61E080E00E94C10171
:1022B00010927503109274038091740390917503CA
:1022C00088329105A4F4D7011296ED91FC911397F1
:1022D000E80FF91F80810E94AF01809174039091F3
:1022E000750301969093750380937403E5CF88E29C
:1022F00090E0909395038093940381E08093A903E9
:102300008091A903882309F41CC184E090E00E9415
:102310009D1D8C011092750310927403A09074039C
:10232000B0907503E2E0AE16B104BCF48091940362
:1023300090919503880F991F0E949D1DF501EE0F46
:10234000FF1FE00FF11F91838083BFEFAB1ABB0A21
:10235000B0927503A0927403E1CF0E94D201109253
:10236000750310927403809174039091750320910A
:10237000940330919503821793079CF4D801AD9094
:10238000BC90A80EB91E0E94B201F5018083809115
:102390007403909175030196909375038093740371
:1023A000E2CF61E080E00E94C101109275031092BB
:1023B000740380917403909175032091940330917C
:1023C000950382179307ACF4D8011296AD90BC9098
:1023D0001397A80EB91E0E94B201F5018083809167
:1023E0007403909175030196909375038093740321
:1023F000E0CF0E94C8018091940390919503409191
:10240000A90320E030E0281739070CF5F801A08176
:10241000B181A20FB31FF701A080B180A20EB31E3D
:102420006C91D5015C9165130EC0F801A281B38156
:10243000A20FB31FF701A280B380A20EB31E6C914E
:10244000D5015C91651340E02F5F3F4FDCCF409397
:10245000A90330937503209374030E94B904892B58
:1024600011F01092A9038091A903811105C0109267
:1024700075031092740348C0109275031092740390
:10248000809174039091750320919403309195038A
:102490008217930794F4D801ED91FC91E80FF91F8E
:1024A00080810E94AF018091740390917503019621
:1024B0009093750380937403E3CF61E080E00E9402
:1024C000C10110927503109274038091740390916E
:1024D00075032091940330919503821793073CF67E
:1024E000D8011296ED91FC911397E80FF91F8081A6
:1024F0000E94AF01809174039091750301969093AF
:10250000750380937403E1CFA0907403B0907503BA
:10251000E2E0AE16B1048CF4F501EE0FFF1FE00F00
:10252000F11F808191810E94351EBFEFAB1ABB0A5B
:10253000B0927503A0927403E7CFC8010E94351EC4
:10254000DFCE109275031092740300917403109102
:1025500075030230110584F4F801EE0FFF1FEE0D34
:10256000FF1D808191810E94351E0F5F1F4F1093C8
:10257000750300937403E9CFC7010E94351E0E94C2
:10258000BC0860E070E080E291E40E945D000E947F
:10259000BC0860E070E080E291E40E945D000E946F
:1025A000BC0858C18C30910509F056C10E94ED035A
:1025B00010926B030E94C80184E090E00E94A30384
:1025C00061E089E00E94C1018AE093E00E94B501C8
:1025D00060E070E08AEF93E40E945D000E94D20107
:1025E00081E193E00E94B50160E070E08AEF93E43E
:1025F0000E945D0041E050E061E070E080E090E02A
:102600000E94260360E070E08FE294E40E945D0087
:1026100082E090E00E94A30360E070E08FE294E427
:102620000E945D0081E090E00E94A30360E070E002
:102630008FE294E40E945D0082E090E00E94A30398
:1026400060E070E08FE294E40E945D0085E090E03D
:102650000E94A30360E070E08AE794E40E945D00BA
:1026600084E090E00E94A30340E050E061E070E06D
:1026700080E090E00E94260360E070E08AE794E446
:102680000E945D0040E050E061E070E080E090E09A
:102690000E944F0383E090E00E94A30360E070E09B
:1026A0008AE794E40E945D0085E090E00E94A30325
:1026B00061E080E00E94C1018DE193E00E94B501DC
:1026C00060E070E88BEB94E40E945D0061E089E0DB
:1026D0000E94C10186E090E090939503809394035B
:1026E0000E949D1D9A838983109275031092740332
:1026F0008091740390917503209194033091950318
:1027000082179307C4F409811A81080F191F0E94C8
:10271000B201D8018C9360E070E088EC92E40E94F2
:102720005D008091740390917503019690937503F9
:1027300080937403DDCF41E050E061E070E080E021
:1027400090E00E944F0360E070E88BEB94E40E94FD
:102750005D0083E090E00E94A30380E090E00E948F
:10276000780360E070E88BEB94E40E945D0061E028
:1027700080E00E94C101FE0131961F010E94900875
:1027800084E090E00E94A30360E089E00E94C10120
:102790000E94900861E088E00E94C10185E090E01D
:1027A0000E94A3030E94900860E081E00E94C101A2
:1027B0000E94900889819A810E94351E83E090E0F2
:1027C0000E94A30360E070E88BEB94E40E945D003C
:1027D00041E050E06FE070E084E190E00E94260369
:1027E00041E050E06FE070E084E190E00E944F0330
:1027F00081E090E00E94780384E090E00E94A303CF
:1028000060E070E08AE794E40E945D0041E050E0FF
:102810006FE070E084E190E00E944F0341E050E0FF
:102820006FE070E084E190E00E94260383E090E096
:102830000E94A30382E090E00E94780360E070E0D1
:102840008AEF93E40E945D000E94C80181E090E05D
:102850000E94A3030E94F103C6010E94A3030E94E9
:102860003910C05BDF4F0FB6F894DEBF0FBECDBF8F
:10287000DF91CF911F910F91FF90EF90DF90CF905C
:10288000BF90AF903F902F9008958A32910519F430
:102890000E94EF1704C0CB9711F40E94E71781E064
:1028A00080936B0308958C30910561F4613071055C
:1028B00069F50E94C80185E293E00E94B5010E947B
:1028C000720824C08932910519F40E9424061EC0A2
:1028D0008032910559F480918E0390918F0320915D
:1028E0009F033091A003821B930B0CC0819771F45E
:1028F00080918E0390918F0320919F033091A003CC
:10290000820F931F90938F0380938E0381E08093B7
:102910006B0308958031910521F48091A9038F5FA5
:1029200006C08131910549F48091A90381508093BB
:10293000A90381E08093770311C08032910511F4DF
:1029400081E004C08132910521F482E080939E03EE
:1029500005C0CB9719F488E08093A90381E08093A8
:102960006B0308958031910521F48091A9038F5F55
:1029700006C08131910549F48091A903815080936B
:10298000A90381E08093770336C08032910589F4F2
:102990008091A9038F3F59F480918E0390918F030A
:1029A00020919F033091A003821B930B13C081E001
:1029B00017C081329105B9F48091A9038F3F79F452
:1029C00080918E0390918F0320919F033091A003FB
:1029D000820F931F90938F0380938E030CC082E02D
:1029E00080939E0308C0CB9731F480918E030E94A0
:1029F0001C0C8093A90381E080936B0308950F93CF
:102A00001F93CF93DF93EC018B010E94BC08809150
:102A1000A803833019F41092A803D6C080916E03E6
:102A2000811105C0B801CE010E946C1022C0813016
:102A300029F4B801CE010E94C1101BC0823029F4D4
:102A4000B801CE010E94451414C0833029F4B801A6
:102A5000CE010E9453140DC0843029F4B801CE0178
:102A60000E948A1406C0853021F4B801CE010E946C
:102A7000B214C632D10551F510926B030E94C80101
:102A800084E393E00E94B50161E080E00E94C1010F
:102A900080E493E00E94B50160E070E08AE793E48F
:102AA0000E945D0041E050E06FE070E084E190E062
:102AB0000E94260341E050E06FE070E084E190E086
:102AC0000E944F0381E080936B0338C0CF30D10563
:102AD00089F40115110531F40E94DC0182E3809331
:102AE0007C002CC00130110549F50E94DC010E94D8
:102AF000CA0824C0CE32D10549F441E050E061E07B
:102B000070E080E090E00E94260327C0C232D10529
:102B100049F441E050E061E070E080E090E00E9424
:102B20004F032DC0C432D10549F441E050E06FE0BD
:102B300070E084E190E00E9426032BC0C332D105EF
:102B400061F441E050E06FE070E084E190E0DF91FB
:102B5000CF911F910F910C944F03CC32D10531F4DA
:102B6000DF91CF911F910F910C945409CD32D10573
:102B700031F4DF91CF911F910F910C946E09CE30FB
:102B8000D10539F40130110521F581E080937E00F3
:102B900020C0C436D105E9F480916C03813069F41A
:102BA00010926C0360E070E08AEF93E40E94C50825
:102BB0000E94ED0310927C000CC081110AC081E0DC
:102BC00080936C030E94F1030E94DC0182E38093F6
:102BD0007C00DF91CF911F910F910895CF93DF93E8
:102BE00000D000D0CDB7DEB720917C0027FD0DC00E
:102BF0006B837C8389839A830E94DC0122E3209388
:102C00007C009A8189817C816B810F900F900F905D
:102C10000F90DF91CF910C94FF14109275031092D6
:102C2000740320917D0080916F03223079F0332767
:102C300027FD309590E02817390731F481E090E0C6
:102C4000909375038093740380916F0380937D004C
:102C50000895CF9380916B03813021F410926B0320
:102C60000E94391080918C03813009F055C0109278
:102C7000760310928C038091A803833041F40E9464
:102C8000BC080E94DC0182E380937C002AC00E9481
:102C9000D904813041F48091A803811104C00E94BD
:102CA00024060E94D50482E08093A8030E94E204D7
:102CB000893419F40E94240607C0893619F40E9449
:102CC0008D0602C0882319F081E080936B030E9477
:102CD0008F19813031F40E94BC080E948D060E9439
:102CE000E71780916E038450823010F00E94300804
:102CF00080916E03823019F481E080936B038091A0
:102D00007C0018161CF4815080937C0080917C001C
:102D1000811102C00E941B02C0917E00C130E1F40B
:102D200010927E0080916E038093A90310926E032F
:102D300010926A0381E090E09093A00380939F0338
:102D400060E070E08BE390E00E94EE158091A903B3
:102D500080936A03C0936B030E94B904892B91F09E
:102D60008EE190E00E9449000E94B904892B51F045
:102D700060E070E084E690E00E94EE1584E690E06A
:102D80000E94490080917303882391F08091700321
:102D900081110EC00E940D16809171036091740321
:102DA0007091750390E00E94EE15CF910C94B104E0
:102DB000CF910895982F92959F708F702AE0929FDF
:102DC000800D112408956AE00E944C1B292F30E1E8
:102DD000839FC0011124822B08951F93CF93DF930B
:102DE0001F92CDB7DEB7182F0E94CF0382EA0E9450
:102DF000DB03812F0E94DB030E94CF0383EA0E9442
:102E0000DB0380E00E94E20389830E94D50389816D
:102E10000F90DF91CF911F910895EF92FF921F9332
:102E2000CF93DF9300D0CDB7DEB7F82E162F4983AE
:102E30005A830E94CF0382EA0E94DB038F2D0E94F7
:102E4000DB034981E42E5A81F52E140F1E1531F053
:102E5000F70181917F010E94DB03F8CF0F900F9063
:102E6000DF91CF911F91FF90EF900C94D503EF92DB
:102E7000FF921F93CF93DF9300D0CDB7DEB7F82E2C
:102E8000162F49835A830E94CF0382EA0E94DB03F4
:102E90008F2D0E94DB030E94CF0383EA0E94DB0395
:102EA00011504981E42E5A81F52E1F3F59F081E0DF
:102EB000111101C080E00E94E203F70181937F01BC
:102EC0001150F3CF0F900F90DF91CF911F91FF9092
:102ED000EF900C94D5031F93CF93DF931F92CDB740
:102EE000DEB7182F69830E94CF0382EA0E94DB03BA
:102EF000812F0E94DB036981862F0E94DB030F90E4
:102F0000DF91CF911F910C94D5030E94ED160C9484
:102F1000DA16CF93C82F862F0E94E316682F8C2FC6
:102F2000CF910C946B1780E00E94ED16682F6068BB
:102F300080E00C946B1780E00E94ED16682F6F778D
:102F400080E00C946B1780E00E94ED16682F6F7B79
:102F500080E00C946B1780E00E94ED16682F60648F
:102F600080E00C946B1780E00E94ED16682F677F5D
:102F700080E00C946B1780E00E94ED16682F627061
:102F800080E00E946B1780E00E94ED16682F64605D
:102F900080E00E946B170E94A3170E94B31784E081
:102FA0000E94ED16682F6F7384E00E946B1788E013
:102FB0000E94ED16682F606888E00C946B1780E023
:102FC0000E94ED16682F686080E00C946B1780E01B
:102FD0000E94ED16682F6D7F80E00C946B1780E0E7
:102FE0000E94ED16682F626080E00C946B171F93AF
:102FF000CF93DF931F92CDB7DEB7182F79830E944E
:103000006B177981672F81E0810F0F90DF91CF914E
:103010001F910C946B171F93CF93DF93182F0E946F
:10302000ED16C82FD0E081E0810F0E94ED169E01C1
:10303000382BC901DF91CF911F9108951F93CF9332
:10304000DF931F92CDB7DEB7182F862F49830E94DA
:10305000E3164981642F6295660F660F607C682BCA
:10306000812F0F90DF91CF911F910C946B171F93BD
:10307000CF93DF931F92CDB7DEB7182F862F4983EA
:103080000E94E316498190E2499FB0011124682B08
:10309000812F0F90DF91CF911F910C946B17AF92FE
:1030A000BF92CF92DF92EF92FF920F931F93CF9335
:1030B000DF9300D000D0CDB7DEB78C017B016A0171
:1030C00059010E94AB17AE014F5F5F4F64E081E092
:1030D0000E94371789810E94DA16F50180838A8160
:1030E0000E94DA16F60180838B810E94DA16F701BE
:1030F00080838C810E94DA16F80180830E94A317D6
:103100000F900F900F900F90DF91CF911F910F9123
:10311000FF90EF90DF90CF90BF90AF9008951F93F6
:10312000CF93DF93CDB7DEB727970FB6F894DEBF06
:103130000FBECDBF182F4E836F832D830E94931730
:103140008D810E94E31689834E81842F0E94E316AD
:103150008A836F81862F0E94E3168B83812F0E94C2
:10316000E3168C83AE014F5F5F4F64E081E00E9405
:103170000D170E949B1727960FB6F894DEBF0FBE5F
:10318000CDBFDF91CF911F910895CF92DF92EF9243
:10319000FF920F931F93CF93DF93EC017B016A01A2
:1031A00089010E94DF170E94AB1785E00E94ED168F
:1031B0000E94DA16888386E00E94ED160E94DA16D5
:1031C000F60180830E94B31786E00E94ED16829577
:1031D00086958770F701808385E00E94ED16F82EB2
:1031E00080E10E94ED16C82F81E10E94ED16D0E02B
:1031F000D82B9E0123703327F294F694F69483E043
:10320000F8228F2D90E02817390729F02196BE016A
:1032100080E10E94F717F801D183C083DF91CF913D
:103220001F910F91FF90EF90DF90CF900C94A31718
:10323000FF920F931F93CF93DF93F82E062F142F37
:10324000E901B90180E10E94F7170E949317AE01CE
:103250006F2D85E00E941E18402F612F86E00E948E
:103260003718DF91CF911F910F91FF900C949B170E
:10327000CF92DF92EF92FF920F931F93CF93DF9342
:10328000EC017B016A01890189E00E948517F80140
:1032900080838AE00E948517F60180838BE00E947C
:1032A0008517F70180838CE00E9485178883DF9162
:1032B000CF911F910F91FF90EF90DF90CF900895E5
:1032C000CF93C62F682F8DE00E9489176C2F8EE058
:1032D000CF910C94891788E00E94ED168073829537
:1032E0008F7008950F931F93CF93DF938C01EB01A1
:1032F0008DE00E948517F80180830E946B1982304F
:1033000029F48EE00E94ED168F7703C08EE00E94B4
:1033100085178883DF91CF911F910F91089580E0E9
:103320000E94ED1686958170089588E00E94ED1642
:10333000682F6F7C88E00C946B1788E00E94ED1674
:10334000682F606188E00E946B1788E00E94ED168C
:10335000682F6F7D88E00C946B1788E00E94ED1653
:10336000682F6F7E88E00E946B1788E00E94ED1640
:10337000682F606288E00C946B1788E00E94ED165D
:10338000682F606388E00C946B170F931F93CF93A3
:10339000DF931F92CDB7DEB7182F062F622F89E07B
:1033A00049830E9489174981642F8AE00E94891706
:1033B000602F8BE00E948917612F8CE00F90DF91C6
:1033C000CF911F910F910C9489170F93CF93C82F12
:1033D000862F642F422F202F0E94C5196C2F6F77E4
:1033E0008EE0CF910F910C946B17EF920F93CF93C8
:1033F000DF93C82FD62F842F622F402F2E2D0E94AF
:10340000C5196D2F8C2FDF91CF910F91EF900C94F8
:10341000601920E933E041EA53E062E973E081E9B1
:1034200093E00E94381963E973E08AEA93E00C9410
:10343000721920E933E041EA53E062E973E081E97F
:1034400093E00E944F1822EA33E043E953E064EA34
:1034500073E08AEA93E00C94C518882319F0D89A8F
:10346000D09A0895D0980895D89899B3892F8170EB
:1034700090FF15C0D09A84EF91E00E945400D0983C
:1034800086E490E00E94540084EF91E0C89904C063
:103490000E94540081E008950E94540080E0089545
:1034A000CF93DF93D82FD898C8E0D09AD0FF08C028
:1034B00087E090E00E945400D09886E490E007C036
:1034C00086E490E00E945400D09887E090E00E944B
:1034D0005400D695C15049F7DF91CF9108950E94CD
:1034E000341A882339F08CEC0E94501A84E40E942C
:1034F000501A8FEF0895CF93DF93D098D8E0C0E0B3
:10350000D09A87E090E00E945400D09887E090E045
:103510000E945400C695C899C06886E490E00E9455
:103520005400D15069F78C2FDF91CF9108950E94FC
:10353000341A882389F08CEC0E94501A8EEB0E947A
:10354000501A0E947B1A8093A5030E947B1A8093D5
:10355000A60381E090E0089580E090E008950E9445
:103560006F1A8823F1F085EA93E00E94971A609120
:10357000A60370E0762F66278091A503680F711D62
:10358000882777FD8095982F0E94861C20E030E0E8
:1035900040E85DE30E943A1D1092A5031092A60335
:1035A000089560E070E0CB01089585B5886085BD21
:1035B0008FEF83BD89B7806889BF089585B587601F
:1035C00085BD089585B58E7F85BD08951F920F92A4
:1035D0000FB60F9211248F9380917603843119F4E2
:1035E00081E080938C03809176038F5F80937603D4
:1035F0008F910F900FBE0F901F9018958F9A0E9479
:10360000DE0184E690E00E94BE030E94BB170E9488
:10361000AF1A0E94D51A0E94DE1A0E94F5030E947A
:1036200038060E94F103C1E0C0936C030E94DC01E4
:103630000E94CA08C093A8038AE493E00E94B501DF
:103640008CED95E00E94490061E088E00E94C10194
:1036500088E593E00E94B50188EE93E00E9449005E
:1036600041E050E06FE070E084E190E00E942603CA
:103670000E94C8010E94291682E080936A0360E0DC
:1036800070E08BE390E00E94EE1583E08093A80346
:1036900078940E942916FDCF991B79E004C0991FE8
:1036A000961708F0961B881F7A95C9F7809508959C
:1036B000AA1BBB1B51E107C0AA1FBB1FA617B70758
:1036C00010F0A61BB70B881F991F5A95A9F7809574
:1036D0009095BC01CD0108950E94731BB7FF08951A
:1036E000821B930B0895A29FB001B39FC001A39FBB
:1036F000700D811D1124911DB29F700D811D11242B
:10370000911D08955058BB27AA270ED075C166D1C8
:1037100030F06BD120F031F49F3F11F41EF45BC107
:103720000EF4E095E7FB51C1E92F77D180F3BA178A
:10373000620773078407950718F071F49EF58FC12F
:103740000EF4E0950B2EBA2FA02D0B01B9019001BC
:103750000C01CA01A0011124FF27591B99F0593F00
:1037600050F4503E68F11A16F040A22F232F342F48
:103770004427585FF3CF469537952795A795F04096
:103780005395C9F77EF41F16BA0B620B730B840BAB
:10379000BAF09150A1F0FF0FBB1F661F771F881F63
:1037A000C2F70EC0BA0F621F731F841F48F48795BB
:1037B00077956795B795F7959E3F08F0B3CF9395AA
:1037C000880F08F09927EE0F979587950895D9D01F
:1037D00008F481E008950CD00FC107D140F0FED06D
:1037E00030F021F45F3F19F0F0C0511139C1F3C03E
:1037F00014D198F39923C9F35523B1F3951B550BB5
:10380000BB27AA2762177307840738F09F5F5F4FB3
:10381000220F331F441FAA1FA9F333D00E2E3AF0F4
:10382000E0E830D091505040E695001CCAF729D00E
:10383000FE2F27D0660F771F881FBB1F261737075D
:103840004807AB07B0E809F0BB0B802DBF01FF278D
:1038500093585F4F2AF09E3F510568F0B6C000C1F3
:103860005F3FECF3983EDCF3869577956795B795C7
:10387000F7959F5FC9F7880F911D9695879597F9E2
:103880000895E1E0660F771F881FBB1F621773075B
:103890008407BA0720F0621B730B840BBA0BEE1F70
:1038A00088F7E095089504D06894B111D9C00895BF
:1038B000BCD088F09F5790F0B92F9927B751A0F04E
:1038C000D1F0660F771F881F991F1AF0BA95C9F7B4
:1038D00012C0B13081F0C3D0B1E00895C0C0672FED
:1038E000782F8827B85F39F0B93FCCF38695779564
:1038F0006795B395D9F73EF490958095709561954D
:103900007F4F8F4F9F4F0895E89409C097FB3EF477
:1039100090958095709561957F4F8F4F9F4F99231C
:10392000A9F0F92F96E9BB279395F695879577959A
:103930006795B795F111F8CFFAF4BB0F11F460FF5A
:103940001BC06F5F7F4F8F4F9F4F16C0882311F0B2
:1039500096E911C0772321F09EE8872F762F05C0C6
:10396000662371F096E8862F70E060E02AF09A9561
:10397000660F771F881FDAF7880F9695879597F956
:103980000895990F0008550FAA0BE0E8FEEF1616F0
:103990001706E807F907C0F012161306E407F50743
:1039A00098F0621B730B840B950B39F40A2661F0B7
:1039B000232B242B252B21F408950A2609F4A1405A
:1039C000A6958FEF811D811D089597F99F6780E867
:1039D00070E060E008959FEF80EC089500240A9461
:1039E0001616170618060906089500240A941216DA
:1039F0001306140605060895092E0394000C11F40D
:103A0000882352F0BB0F40F4BF2B11F460FF04C0B9
:103A10006F5F7F4F8F4F9F4F089557FD9058440F12
:103A2000551F59F05F3F71F04795880F97FB991F1D
:103A300061F09F3F79F087950895121613061406DA
:103A4000551FF2CF4695F1DF08C016161706180667
:103A5000991FF1CF86957105610508940895E89442
:103A6000BB2766277727CB0197F908958ADF08F4EB
:103A70008FEF08950BD0C0CFB1DF28F0B6DF18F07C
:103A8000952309F0A2CFA7CF1124EACFC6DFA0F378
:103A9000959FD1F3950F50E0551F629FF001729FE3
:103AA000BB27F00DB11D639FAA27F00DB11DAA1F02
:103AB000649F6627B00DA11D661F829F2227B00D4F
:103AC000A11D621F739FB00DA11D621F839FA00DDA
:103AD000611D221F749F3327A00D611D231F849F2A
:103AE000600D211D822F762F6A2F11249F57504081
:103AF0008AF0E1F088234AF0EE0FFF1FBB1F661F1C
:103B0000771F881F91505040A9F79E3F510570F0D4
:103B10005CCFA6CF5F3FECF3983EDCF386957795BC
:103B20006795B795F795E7959F5FC1F7FE2B880FCF
:103B3000911D9695879597F90895CF93DF938230DD
:103B4000910510F482E090E0E091AF03F091B003B2
:103B500020E030E0A0E0B0E0309739F140815181C1
:103B600048175907B8F04817590771F482819381B3
:103B7000109729F013969C938E9312972CC09093D4
:103B8000B0038093AF0327C02115310531F04217F0
:103B9000530718F0A901DB0101C0EF019A01BD0133
:103BA000DF010280F381E02DD7CF21153105F9F037
:103BB000281B390B2430310580F48A819B816115E3
:103BC000710521F0FB019383828304C09093B003BD
:103BD0008093AF03FE01329644C0FE01E20FF31F53
:103BE0008193919322503109398328833AC02091DF
:103BF000AD033091AE03232B41F42091810030912D
:103C000082003093AE032093AD0320917F0030916A
:103C100080002115310541F42DB73EB74091830056
:103C200050918400241B350BE091AD03F091AE035D
:103C3000E217F307A0F42E1B3F0B2817390778F083
:103C4000AC014E5F5F4F2417350748F04E0F5F1FE2
:103C50005093AE034093AD038193919302C0E0E093
:103C6000F0E0CF01DF91CF910895CF93DF930097DC
:103C700009F487C0FC01329713821282C091AF030E
:103C8000D091B003209781F420813181280F391F12
:103C90008091AD039091AE038217930779F5F0936D
:103CA000AE03E093AD036DC0DE0120E030E0AE175F
:103CB000BF0750F412964D915C9113979D014115E9
:103CC000510509F1DA01F3CFB383A2834081518119
:103CD000840F951F8A179B0771F48D919C91119702
:103CE000840F951F02969183808312968D919C91EB
:103CF0001397938382832115310529F4F093B00340
:103D0000E093AF033EC0D9011396FC93EE93129754
:103D10004D915D91A40FB51FEA17FB0779F48081DF
:103D20009181840F951F0296D90111969C938E93D1
:103D30008281938113969C938E931297E0E0F0E03A
:103D40008A819B81009719F0FE01EC01F9CFCE0129
:103D5000029628813981820F931F2091AD03309103
:103D6000AE032817390769F4309729F41092B0038D
:103D70001092AF0302C013821282D093AE03C0939D
:103D8000AD03DF91CF910895BB274A3031F49923D9
:103D900022F4BDE2909581959F4F0C94D01EBB27D5
:103DA000FB015527AA27880F991FAA1FA41710F0F7
:103DB000A41B83955051B9F7A05DAA3308F0A95D03
:103DC000A193009779F7B111B1931192CB010C94A3
:103DD0005721A0E0B0E0EFEEFEE10C940722FE01D7
:103DE000359661917191AF018091B3039091B403C5
:103DF0000E94311FE2E00C9423226091B303709182
:103E0000B4030E94672108950F931F93CF93DF930C
:103E1000E091B303F091B403238121FF1BC0EC01B7
:103E200000E010E089916091B3037091B403DB016D
:103E30001896ED91FC911997882331F00995892BFB
:103E400089F30FEF1FEFEECF8AE00995892B11F46C
:103E5000C80102C08FEF9FEFDF91CF911F910F91AB
:103E60000895ACE0B0E0E7E3FFE10C94F7217C01BA
:103E70006B018A01FC0117821682838181FFBDC11B
:103E8000CE0101964C01F7019381F60193FD8591D6
:103E900093FF81916F01882309F4ABC1853239F416
:103EA00093FD859193FF81916F01853229F4B701CC
:103EB00090E00E946721E7CF512C312C20E0203286
:103EC000A0F48B3269F030F4803259F0833269F417
:103ED00020612CC08D3239F0803339F4216026C046
:103EE0002260246023C0286021C027FD27C030ED58
:103EF000380F3A3078F426FF06C0FAE05F9E300DA6
:103F00001124532E13C08AE0389E300D1124332E15
:103F100020620CC08E3221F426FD6BC1206406C0E5
:103F20008C3611F4206802C0883641F4F60193FD06
:103F3000859193FF81916F018111C1CF982F9F7D52
:103F40009554933028F40C5F1F4FFFE3F9830DC0A5
:103F5000833631F0833771F0833509F05BC022C0BE
:103F6000F801808189830E5F1F4F44244394512CB4
:103F7000540115C03801F2E06F0E711CF801A080E9
:103F8000B18026FF03C0652D70E002C06FEF7FEFA8
:103F9000C5012C870E944C212C0183012C852F7791
:103FA000222E17C03801F2E06F0E711CF801A080BC
:103FB000B18026FF03C0652D70E002C06FEF7FEF78
:103FC000C5012C870E9441212C012C852068222EBE
:103FD000830123FC1BC0832D90E048165906B0F4E2
:103FE000B70180E290E00E9467213A94F4CFF50196
:103FF00027FC859127FE81915F01B70190E00E9427
:10400000672131103A94F1E04F1A510841145104DC
:1040100071F7E5C0843611F0893639F5F80127FFCC
:1040200007C060817181828193810C5F1F4F08C03E
:1040300060817181882777FD8095982F0E5F1F4FD3
:104040002F76B22E97FF09C0909580957095619557
:104050007F4F8F4F9F4F2068B22E2AE030E0A4019F
:104060000E949921A82EA81844C0853729F42F7ED4
:10407000B22E2AE030E025C0F22FF97FBF2E8F3616
:10408000C1F018F4883579F0B4C0803719F088375A
:1040900021F0AFC02F2F2061B22EB4FE0DC08B2DAA
:1040A0008460B82E09C024FF0AC09F2F9660B92EE5
:1040B00006C028E030E005C020E130E002C020E189
:1040C00032E0F801B7FE07C060817181828193817F
:1040D0000C5F1F4F06C06081718180E090E00E5F31
:1040E0001F4FA4010E949921A82EA818FB2DFF772D
:1040F000BF2EB6FE0BC02B2D2E7FA51450F4B4FEA0
:104100000AC0B2FC08C02B2D2E7E05C07A2C2B2DA8
:1041100003C07A2C01C0752C24FF0DC0FE01EA0DEE
:10412000F11D8081803311F4297E09C022FF06C071
:104130007394739404C0822F867809F0739423FDDE
:1041400013C020FF06C05A2C731418F4530C5718D0
:10415000732C731468F4B70180E290E02C870E94FE
:10416000672173942C85F5CF731410F4371801C0B0
:10417000312C24FF12C0B70180E390E02C870E940D
:1041800067212C8522FF17C021FF03C088E590E03E
:1041900002C088E790E0B7010CC0822F867859F002
:1041A00021FD02C080E201C08BE227FD8DE2B70154
:1041B00090E00E946721A51438F4B70180E390E0F5
:1041C0000E9467215A94F7CFAA94F401EA0DF11DD9
:1041D0008081B70190E00E946721A110F5CF3320C4
:1041E00009F451CEB70180E290E00E9467213A9431
:1041F000F6CFF7018681978102C08FEF9FEF2C9653
:10420000E2E10C941322DC01CB01FC01E199FECF29
:1042100006C0FFBBEEBBE09A31960DB20D92415045
:104220005040B8F70895DC01A40FB51F415050402D
:1042300048F0CB01840F951F2E910E9424214150FC
:104240005040D0F70895262FE199FECF9FBB8EBB3B
:10425000E09A01970DB2021631F02DBB0FB6F8941B
:10426000E29AE19A0FBE0895262FE199FECF9FBBF7
:104270008EBB2DBB0FB6F894E29AE19A0FBE019661
:104280000895FC010590615070400110D8F78095A9
:1042900090958E0F9F1F0895FC0161507040019012
:1042A0000110D8F7809590958E0F9F1F0895DC011F
:1042B000FC01672F71917723E1F7329704C07C915D
:1042C0006D9370836291AE17BF07C8F308950F9383
:1042D0001F93CF93DF93182F092FEB018B8181FD63
:1042E00003C08FEF9FEF20C082FF10C04E815F811F
:1042F0002C813D81421753077CF4E881F9819F01AD
:104300002F5F3F4F39832883108306C0E885F985E6
:10431000812F0995892B29F72E813F812F5F3F4FF0
:104320003F832E83812F902FDF91CF911F910F918B
:104330000895FA01AA27283051F1203181F1E8943B
:104340006F936E7F6E5F7F4F8F4F9F4FAF4FB1E088
:104350003ED0B4E03CD0670F781F891F9A1FA11D83
:10436000680F791F8A1F911DA11D6A0F711D811D84
:10437000911DA11D20D009F468943F912AE0269F49
:1043800011243019305D3193DEF6CF010895462FA8
:104390004770405D4193B3E00FD0C9F7F6CF462F89
:1043A0004F70405D4A3318F0495D31FD40524193F2
:1043B00002D0A9F7EACFB4E0A695979587957795AF
:1043C0006795BA95C9F700976105710508959B0136
:1043D000AC010A2E06945795479537952795BA95BF
:1043E000C9F7620F731F841F951FA01D08952F9298
:1043F0003F924F925F926F927F928F929F92AF9275
:10440000BF92CF92DF92EF92FF920F931F93CF93C1
:10441000DF93CDB7DEB7CA1BDB0B0FB6F894DEBF58
:104420000FBECDBF09942A88398848885F846E847E
:104430007D848C849B84AA84B984C884DF80EE80C8
:10444000FD800C811B81AA81B981CE0FD11D0FB6D1
:10445000F894DEBF0FBECDBFED010895F894FFCFF5
:1044600000000001000000000000CD04000000007A
:10447000000200000000C10400000000FF02010073
:1044800000B703200041546D6567613332207072BC
:104490006F6772616D6162636465666768696A6BA4
:1044A0006C6D6E6F7071727374757677784461722B
:1044B0006975737A204D2E2070726F6A2E797A3169
:1044C0003233343536373839303938373635343396
:1044D00032312140240500253032643A25303264DF
:1044E0003A2530326420253032643A253032643A3D
:1044F00025640020535A41464B41204E523A202514
:104500006420004F54574152434945005A414D4B96
:104510004E494543494500253032643A25303264DE
:104520003A2530326420253032643A253032643AFC
:1045300025640A004272616B2064616E79636800D1
:1045400025642E20005261706F7274206177617251
:10455000796A6E792E20005261706F72742E20007D
:1045600050726F6772616D3A200050524F4752414E
:104570004D20474C4F574E590050524F4752414DD6
:1045800020544553544F575900435A5557414E49AB
:10459000450044414E45202D20454550524F4D0089
:1045A0004E41535441574120474F445A494E5900B8
:1045B0004E41535441574120414C41524D550050BA
:1045C0006E2E0057742E0053722E00437A2E005028
:1045D000742E00536F2E004E642E002D2D2D2D2D88
:1045E0002D2D007C005A41504953414E4F20474FDA
:1045F000445A494E450057594C41435A4F4E4F205B
:10460000414C41524D005A41504953414E4F204177
:104610004C41524D004D494E5554590053454B5550
:104620004E4459005345544E452053454B554E4436
:1046300000445A49454E004D4945534941430052B3
:104640004F4B00445A49454E205459474F444E4918
:104650004100504F4E4945445A49414C454B005743
:10466000544F52454B0053524F444100435A574117
:104670005254454B0050494154454B00534F424F13
:104680005441004E4945445A49454C4100416C61F2
:10469000726D2077796C61637A6F6E7900416C611D
:1046A000726D20636F647A69656E6E7900416C612A
:1046B000726D207479676F646E696F777900416CF1
:1046C00061726D206D6965736965637A6E79004EFC
:1046D0005220005779626965727A2070726F677232
:1046E000616D3A003E3E3E003C3C3C0053707261BE
:1046F00077647A2070727A6563682D0077797479AF
:1047000077616E69652055534200576974616A216B
:10471000004C4344204844343437383000437A79DD
:1047200074616D3A00437A79737A637A656E69656C
:104730002E2E2E004E6120706F637A6174656B00BF
:10474000656B72616E752E2E2E0041565220494EB9
:1047500053504543544F5200446172656B204D2EB7
:02476000000057
:040000050080007EF9
:00000001FF
