:100000000C9430000C944D000C944D000C944D0059
:100010000C946F1A0C944D000C946C050C944D00CC
:100020000C944D000C944D000C9473000C944D00F6
:100030000C944D000C944D000C944D000C944D000C
:100040000C944D000C944D000C944D000C944D00FC
:100050000C944D00C0F9A4B0999282D88090FFBF53
:1000600011241FBECFE5D8E0DEBFCDBF12E0A0E671
:10007000B0E0EEEDFFE302C005900D92A439B107A8
:10008000D9F722E0A4E9B2E001C01D92A43DB20775
:10009000E1F70E942F1B0C94ED1F0C9400008D9A29
:1000A000959A8C9A949AA29AAA9AA39AAB9AA49A8D
:1000B000AC9AA59AAD9AA69AAE9AA79AAF9AB89A10
:1000C000C09AB99AC19ABA9AC29ABB9AC39A83B78C
:1000D000886083BF83B7856083BF8EE48CBF89B798
:1000E000826089BF08951F920F920FB60F9211245C
:1000F0008F93EF93FF93C09AC19AC29AC39A80914B
:100100006000813019F4E091A10210C0823019F42E
:10011000E091A2020BC0843019F4E091A30206C062
:10012000883019F4E091A00201C0E0E0F0E0EC5A60
:10013000FF4FE491E0FF02C0959A01C09598E1FF5E
:1001400002C0949A01C09498E2FF02C0AA9A01C02A
:10015000AA98E3FF02C0AB9A01C0AB98E4FF02C0CB
:10016000AC9A01C0AC98E5FF02C0AD9A01C0AD9851
:10017000E6FF02C0AE9A01C0AE98E7FF02C0AF9A98
:1001800001C0AF9880916000813011F4C0980BC01D
:10019000823011F4C19807C0843011F4C29803C0B2
:1001A000883009F4C39880916000880F893008F086
:1001B00081E080936000FF91EF918F910F900FBECF
:1001C0000F901F9018958F929F92AF92BF92CF92EF
:1001D000DF92EF92FF920F931F93CF93DF938C01E7
:1001E00089519C4F873F9A4250F08BE08093A10247
:1001F0008093A2028093A3028093A002A1C0580121
:1002000017FF04C0AA24BB24A01AB10A8AE090E018
:1002100021E030E04AE0A816B9064CF02F5F3F4FCE
:10022000BC01469FC001479F900D1124F4CF690186
:10023000E0E0F0E08AE0E82EF12C9AE0892E912CA3
:100240004AE0C501B7010E94721BEC01E130F105E3
:1002500029F48091A002C81BD10919C0E230F10530
:1002600031F45091A3028091A00290E00CC0E330E1
:10027000F10569F46091A2028091A3025091A0025D
:1002800090E0860F911D850F911DC81BD90BC701EA
:10029000B4010E94721BCE010E94721B309719F4A8
:1002A0006093A00211C0E130F10519F46093A3023C
:1002B0000BC0E230F10519F46093A20205C0E330EF
:1002C000F10511F46093A102C701489F7001499F95
:1002D000F00C11243196E217F3070CF4B2CF8AE048
:1002E00025303105A4F42130310519F48093A3029F
:1002F0000BC02230310519F48093A20205C02330CF
:10030000310511F48093A1022F5F3F4FE9CF17FF12
:1003100017C091E0C916D10421F48BE08093A302A9
:100320000FC022E0C216D10421F48BE08093A20218
:1003300007C063E0C616D10419F48BE08093A102D4
:10034000DF91CF911F910F91FF90EF90DF90CF90B1
:10035000BF90AF909F908F900895009741F0EFE984
:10036000FFE03197F1F700C000000197F6CF089544
:10037000009731F025E02A95F1F700000197F8CFBA
:1003800008958F929F92AF92BF92CF92DF92EF9299
:10039000FF924B015C0120E030E04AE755E40E9407
:1003A000541D6B017C0120E030E040E85FE30E94D7
:1003B000011C87FD24C020E03FEF4FE757E4C70151
:1003C000B6010E94501D1816ACF420E030E040E267
:1003D00051E4C501B4010E94541D0E94721C20E921
:1003E00031E06115710581F0C9010197F1F76150A4
:1003F0007109F7CFC701B6010E94721C02C061E00B
:1004000070E0CB010197F1F7FF90EF90DF90CF9074
:10041000BF90AF909F908F9008958F929F92AF92D0
:10042000BF92CF92DF92EF92FF924B015C012BEAD9
:100430003AEA4AEA50E40E94541D6B017C0120E034
:1004400030E040E85FE30E94011C87FD21C020E00E
:1004500030E04FE753E4C701B6010E94501D181663
:1004600094F420E030E04AE754E4C501B4010E946E
:10047000051CFF90EF90DF90CF90BF90AF909F90C2
:100480008F900C94C101C701B6010E94721C01C07B
:1004900061E06A95F1F7FF90EF90DF90CF90BF9009
:1004A000AF909F908F9008951F93CF93DF931F92EB
:1004B000CDB7DEB7182F0E9437058CEA0E9443059E
:1004C000812F0E9443050E9437058DEA0E94430553
:1004D00080E00E944A0589830E943D0589810F9032
:1004E000DF91CF911F9108951F93CF93DF931F92B8
:1004F000CDB7DEB7182F69830E9437058CEA0E94BA
:100500004305812F0E9443056981862F0E94430580
:100510000E943D0585E090E00F90DF91CF911F9103
:100520000C94AD011F93CF93DF931F92CDB7DEB72D
:10053000182F79830E9474027981672F81E0810FDF
:100540000F90DF91CF911F910C9474021F93CF9362
:10055000DF93182F0E945402C82FD0E081E0810F52
:100560000E9454029E01382BC901DF91CF911F9147
:100570000895CF93C0E060E08C2F0E947402CF5F9B
:10058000CF3FC9F7CF91089580FF02C0DC9A01C028
:10059000DC9881FF02C0DD9A01C0DD9882FF02C0B5
:1005A000DE9A01C0DE9883FF02C0DF9A0895DF98CB
:1005B000089589B382958170CD998260CE998460C7
:1005C000CF9988600895CF93DF93D498D598D69823
:1005D000D798DA9ADB9A0E94D90290E1899FE001CC
:1005E0001124DB98DB9A0E94D902DB98E7ECF0E05B
:1005F0003197F1F700C000008C2BDF91CF91089567
:10060000D9980C94E302CF93C82FD49AD59AD69A4E
:10061000D79ADA98DB9A82958F700E94C402DB9891
:10062000DB9A8C2F0E94C402DB980E94000387FD96
:10063000FCCFCF910895D9980C940303D99A0C94C8
:100640000303D99A0C94E302CF93DF93EC018991D1
:10065000882319F00E941E03FACFDF91CF910895ED
:1006600090E4699F800D112480680C941B0381E045
:100670000E941B038FE39FE10197F1F700C0000088
:10068000089582E00E941B038FE39FE10197F1F739
:1006900000C000000895CF93D49AD59AD69AD79ADD
:1006A000D39AD19AD29A8FE59AEE0197F1F700C0CA
:1006B0000000D998DB98DA98C3E0DB9A83E00E94C7
:1006C000C402DB988FE19EE40197F1F700C00000BF
:1006D000C15099F7DB9A82E00E94C402DB988FE94F
:1006E0009FE00197F1F700C0000088E20E941B0321
:1006F00088E00E941B0381E00E941B0386E00E94A9
:100700001B038CE0CF910C941B03CF93DF93CDB7E9
:10071000DEB761970FB6F894DEBF0FBECDBF4AE0DB
:10072000BE016F5F7F4F0E943C1F0E9424036196B1
:100730000FB6F894DEBF0FBECDBFDF91CF91089505
:100740006F927F928F929F92AF92BF92CF92DF92E1
:10075000EF92FF920F931F93CF93DF9300D0CDB70B
:10076000DEB76B017C0149835A830E94721C9B0196
:1007700049815A8177FF04C022273327261B370B74
:10078000293E334008F09EC08A014530510510F0E3
:1007900004E010E0C701B6010E946D1C4B015C0132
:1007A000CB010E94850381E090E02AE0622E712C4B
:1007B0002AE08017910740F4F3012E9F30012F9F0C
:1007C000700C11240196F5CF012B09F47BC08CE746
:1007D00092E00E942403840197FE04C000271127A1
:1007E00008191909B30180E090E00E949E1C9B014A
:1007F000AC01C701B6010E94541D0E946D1C9B01F3
:1008000077FF04C022273327261B370BB90188271F
:1008100077FD8095982F0E94A01C6B017C019301AD
:10082000D8010E94861B0E949E1C9B01AC01C7013F
:10083000B6010E949C1B0E94721C6B017C01AB01E3
:1008400081E090E02AE030E06AE04217530740F090
:100850000196F9016E9F90016F9F300D1124F5CF25
:1008600041E02AE030E05AE06216730640F04F5F44
:10087000B901569F9001579F300D1124F5CF01E02B
:1008800010E0A42EB12CA81AB90A0A151B0538F4D9
:1008900080E090E00E9485030F5F1F4FF6CFC601F6
:1008A0000F900F90DF91CF911F910F91FF90EF90DC
:1008B000DF90CF90BF90AF909F908F907F906F9080
:1008C0000C9485030F900F90DF91CF911F910F91A2
:1008D000FF90EF90DF90CF90BF90AF909F908F9060
:1008E0007F906F900895CF93DF93CDB7DEB7619778
:1008F0000FB6F894DEBF0FBECDBF40E1BE016F5F03
:100900007F4F0E943C1F0E94240361960FB6F8940B
:10091000DEBF0FBECDBFDF91CF910895CF92DF92A2
:10092000EF92FF920F931F93CF93DF938C016B0194
:100930007A01C0E0D0E0CC15DD0581F0E114F104CE
:1009400011F08CE101C084E10E941B030115110527
:1009500019F0C8010E94AD012196EDCFDF91CF9132
:100960001F910F91FF90EF90DF90CF900895CF925D
:10097000DF92EF92FF920F931F93CF93DF938C013F
:100980006B017A01C0E0D0E0CC15DD0581F0E11407
:10099000F10411F088E101C080E10E941B03011500
:1009A000110519F0C8010E94AD012196EDCFDF912C
:1009B000CF911F910F91FF90EF90DF90CF9008950E
:1009C0000F931F93CF93DF93EC018230910520F0BA
:1009D00082309105D9F40FC080E80E941B0308E221
:1009E00010E080E20E941E0301501109011511055B
:1009F000C1F7CD2B59F480EC0E941B03C8E2D0E074
:100A000080E20E941E0321972097D1F7DF91CF91BA
:100A10001F910F9108958330910589F030F4813052
:100A2000910549F0029749F008958430910549F005
:100A3000059749F008958CE007C088E005C08EE076
:100A400003C08DE001C08FE00C941B03BC0180E863
:100A50009EE30E945E1B862F603138F07727CB0122
:100A6000409797FD01969595879580B9089584EAFA
:100A700086BF06B607FEFDCF089584E986BF06B699
:100A800004FCFDCF089583B984E886BF06B607FE4F
:100A9000FDCF089520E4829FC0011124846886BFA1
:100AA00006B607FEFDCF83B108958EB5887F8EBD53
:100AB00008958EB585608EBD08958E98969A8EB5F0
:100AC0008F7B8EBD1092A70289B7806289BF10927A
:100AD000A802BC98C49A08951F920F920FB60F9265
:100AE00011242F933F938F939F9386B597B52091B1
:100AF000980230919902821B930B26B537B530933B
:100B00009902209398022EB530E423272EBD8F3111
:100B1000910510F01092A7022091A702222319F04C
:100B200021E0209397022091A702211111C0109279
:100B3000960210929502109294022EB520642EBD5A
:100B40002091A7022F5F2093A70222E02093970213
:100B500020919702213009F05FC09C012A50310991
:100B60002531310510F01092970220919702213023
:100B700009F052C0429728F08091A7028F5F8093BE
:100B8000A7028091A702823008F441C08091A70299
:100B900080FD3DC08091950290919602880F991F2B
:100BA00090939602809395020EB406FE05C0816074
:100BB0009093960280939502809194028F5F809328
:100BC00094028D3020F18091A80281111BC0809188
:100BD000950290919602282F2F732093A6029C01D4
:100BE000207C3770689415F8369527951694E1F7B0
:100BF0002093A50288279870892F869586958695DB
:100C00008093A4021092970281E08093A8028091C1
:100C1000A7028F5F8093A70280919702811105C080
:100C20001092A7028EB58F7B8EBD9F918F913F91C1
:100C30002F910F900FBE0F901F90189586B382953D
:100C40008F7091E08927817090E008958A98929A38
:100C50008B98939A089580EA90E0089580E2089531
:100C600080E890E0089523E0969587952A95E1F72E
:100C70000895CF93DF93EC0133E0CC0FDD1F3A955D
:100C8000E1F7CF3FD10509F050F58C2F0E945402B7
:100C90008093BB028C2F8F5F0E9454028093BC0212
:100CA0008C2F8E5F0E9454028093BD028C2F8D5F2B
:100CB0000E9454028093BE028C2F8C5F0E945402CB
:100CC0008093BF028C2F8B5F0E94A6029093C1027B
:100CD0008093C0028C2F895F0E94540232C0E19938
:100CE000FECFCE019A950E94611F8093BB02CE0178
:100CF0008F5F91090E94611F8093BC02CE018E5FBD
:100D000091090E94611F8093BD02CE018D5F910900
:100D10000E94611F8093BE02CE018C5F91090E94E8
:100D2000611F8093BF02CE018B5F91090E94611FFA
:100D30009093C1028093C002CE01895F91090E9405
:100D4000611F8093C202DF91CF910895DF92EF92ED
:100D5000FF920F931F93CF93DF938EEF0E9466183D
:100D6000EC018F3F910511F008F0BFC08FEF90E0CC
:100D70008C1B9D0B8730910508F4B5C0DD24D394FE
:100D8000079709F0D12C0FEA12E0FF24F39454E600
:100D9000E52EF8018081882309F47EC00E9429088D
:100DA00082E390E00E94AD010E944A1AF2E0DF1651
:100DB00089F16091C6028C2F0E9474026091B70283
:100DC0008C2F8F5F0E9474026091B6028C2F8E5F11
:100DD0000E9474026091CD028C2F8D5F0E9474027C
:100DE0006091B8028C2F8C5F0E9474026091C702E0
:100DF0007091C8028C2F8B5F0E949202F801808153
:100E00006F2D8E9D600D1124CE01079628960E94AD
:100E1000740242C0E199FECF6091C602772767FD58
:100E20007095CE010E94671F6091B702772767FD1A
:100E30007095CE0101960E94671F6091B6027727D8
:100E400067FD7095CE0102960E94671F6091CD02EA
:100E5000772767FD7095CE0103960E94671F60910A
:100E6000B802772767FD7095CE0104960E94671F30
:100E70006091C7027091C802CE0105960E94671F5B
:100E8000F80180816F2D8E9D600D112470E0CE01E0
:100E9000079628960E94671FF3940F5F1F4FF3E099
:100EA000FF1277CF81E0D81207C060E070E88BE3D3
:100EB00095E40E9432080CC0E2E0DE1209C060E056
:100EC00070E08AE794E40E943208BE01739501C085
:100ED000BE018EEFDF91CF911F910F91FF90EF90A8
:100EE000DF900C945218C0E0D1E0DA9542E0D42EA5
:100EF0004ACF80B382FB882780F991E08927089543
:100F000080B383FB882780F991E0892708958111B8
:100F100002C00C947907813011F40C9480078FEF94
:100F2000089580E00E9487078093AD0281E00E94CF
:100F300087078093AE020895BF92CF92DF92EF921F
:100F4000FF920F931F93CF93DF936DEAE62E62E03B
:100F5000F62ECFEAD2E0D12C00E010E0CC24C394EE
:100F600072E0B72E8D2D0E948707F70190818917B7
:100F700041F0813011F4B88206C0811104C0C882EA
:100F800002C0188202C001E010E0F70181937F01E6
:100F9000D3942196F2E0DF12E5CF012B59F0DF91D7
:100FA000CF911F910F91FF90EF90DF90CF90BF9066
:100FB0000C94A606DF91CF911F910F91FF90EF90B7
:100FC000DF90CF90BF900895CF93DF930E94B90236
:100FD000C0E0D0E0E199FECF60E070E0CE010E9479
:100FE000671F2196CF3F83E0D807A1F760E070E04C
:100FF0008EEFDF91CF910C9452182F923F92109266
:10100000AA021092A9028091A9029091AA022091AD
:10101000B9023091BA0282179307C4F4D101ED915D
:10102000FC91E80FF91F80810E941E0360E070E0D0
:1010300088E492E40E94C1018091A9029091AA02E1
:1010400001969093AA028093A902DDCF3F902F9042
:101050000895979A60E070E080E89FE30E94C101E4
:1010600097980895979A0E94C101979808950F93B1
:101070001F93CF93DF932AE030E0C1E04AE082176C
:10108000930740F0CF5FB901469F9001479F300D15
:101090001124F5CF3093AA022093A9029093C502A0
:1010A0008093C40280E090E00E94E0041092AA02C3
:1010B0001092A9028C2F90E0C7E2D0E0C81BD90B98
:1010C0008C010D5F1F4F8091A9029091AA028C178D
:1010D0009D07FCF460E00E9430038091C40290916F
:1010E000C5020E94850361E08091A9020E9430033D
:1010F0008091C4029091C5020E9485038091A9024B
:101100009091AA02800F911F9093AA028093A90246
:10111000DACF60E070E08AEF93E40E94C10181E0E1
:1011200080939A02DF91CF911F910F9108952091A2
:10113000C4023091C5024AE0429FC001439F900D16
:101140001124893E23E0920710F088EE93E09093FB
:10115000C5028093C4028091C4029091C5020C9490
:1011600037088091C4029091C5026AE070E00E9445
:101170005E1B6115710529F07093C5026093C4026E
:1011800006C081E090E09093C5028093C4028091F4
:10119000C4029091C5020C943708CF93DF93EC0101
:1011A00010929A020E9437038FEB90E00E94240372
:1011B000CE010E94850361E080E00E943003209709
:1011C00019F489EC90E022C0C130D10519F488ED02
:1011D00090E01CC0C230D10519F488EE90E016C032
:1011E000C330D10519F486EF90E010C0C430D105AA
:1011F00019F48FEF90E00AC0C530D10519F48FE0E3
:1012000091E004C0269721F48EE191E00E9424032E
:101210001092AA021092A9028091A9029091AA02AA
:10122000059794F460E070E080E291E40E94C101CF
:101230000E9429088091A9029091AA020196909398
:10124000AA028093A902E8CF60E070E08AEF93E4FD
:101250000E94C10181E080939A02DF91CF910895AD
:10126000811103C08CE291E01DC0813019F480E34C
:1012700091E018C0823019F484E391E013C0833008
:1012800019F488E391E00EC0843019F48CE391E006
:1012900009C0853019F480E491E004C0863021F45F
:1012A00084E491E00C942403089560E080919E0210
:1012B0000E9430038091B6028A3024F480E090E0EE
:1012C0000E9485038091B602992787FD90950E9420
:1012D00085038DE692E00E9424038091B7028A3054
:1012E00024F480E090E00E9485038091B702992762
:1012F00087FD90950E9485038DE692E00E9424036D
:101300008091C6028A3024F480E090E00E94850338
:101310008091C602992787FD90950E9485038DE6EE
:1013200092E00E9424038091B5028A3024F480E088
:1013300090E00E9485038091B502992787FD9095E2
:101340000C9485030E94550961E080919E020E94E1
:1013500030038091CD028A3024F480E090E00E9436
:1013600085038091CD02992787FD90950E94850382
:101370008DE692E00E9424038091B8028A3024F422
:1013800080E090E00E9485038091B802992787FD54
:1013900090950E9485038DE692E00E94240380913F
:1013A000C7029091C8020E94850361E08DE00E940F
:1013B00030038091C9020C943009CF93C82F81115A
:1013C0000E94550961E080919E020E943003C23064
:1013D00081F58091B802811103C088E491E026C0B4
:1013E0001092AC022091AC022730F4F48091B80244
:1013F000992787FD909502C0959587952A95E2F7E4
:1014000080FF0CC080E591E00E9424038091AC0233
:10141000992787FD909501960E9485038091AC02E3
:101420008F5F8093AC02DECF80E591E0CF910C948A
:101430002403C33019F58091CD028A3024F480E072
:1014400090E00E9485038091CD02992787FD9095B9
:101450000E9485038DE692E00E9424038091B802E9
:101460008A3024F480E090E00E9485038091B802E5
:10147000992787FD9095CF910C948503CF9108957E
:10148000CF93DF93D82FC62F611103C087E091E07F
:101490000EC0613019F482E591E009C0623019F4A0
:1014A00089E591E004C0633021F481E691E00E9477
:1014B0002403DD2311F0D330B1F4C43019F48EE6E7
:1014C00091E035C0C53019F484E791E030C0D11106
:1014D00032C0C63019F48CE791E029C0C73059F505
:1014E00080E891E024C0D23031F5C43019F48FE89F
:1014F00091E01DC0C53019F48CE991E018C0C630E8
:1015000019F483EA91E013C0C73019F489EA91E035
:101510000EC0C83019F482EB91E009C0C93019F44B
:1015200089EB91E004C0CA3031F480EC91E0DF91A6
:10153000CF910C942403DF91CF910895423041F470
:101540002091C4023091C50231952195310909C01D
:10155000413029F42091C4023091C50202C020E03C
:1015600030E0611106C09091B602920F9093B602DE
:1015700017C0613031F49091B702920F9093B70287
:101580000FC0623031F49091C602920F9093C60260
:1015900007C0633029F49091B502920F9093B50281
:1015A000882311F0833031F5643031F48091CD021D
:1015B000820F8093CD020895653021F48091B802A6
:1015C000820F7EC081117EC0663059F48091C702BF
:1015D0009091C802820F931F9093C8028093C70214
:1015E0000895673009F06EC08091C902820F809320
:1015F000C9020895823009F065C0643069F4413051
:1016000021F48091B80281605BC0423009F05AC079
:101610008091B8028E7F54C0653069F4413021F466
:101620008091B80282604CC0423009F04BC080917A
:10163000B8028D7F45C0663061F4413021F480915D
:10164000B80284603DC04230E9F58091B8028B7FDA
:1016500037C0673061F4413021F48091B80288606E
:101660002FC0423079F58091B802877F29C0683059
:1016700061F4413021F48091B802806121C0423090
:1016800009F58091B8028F7E1BC0693061F441304A
:1016900021F48091B802806213C0423099F48091A5
:1016A000B8028F7D0DC06A3069F4413021F4809119
:1016B000B802806405C0423029F48091B8028F7B63
:1016C0008093B8020895CF93DF93D82FC62F6F3F32
:1016D00051F42091C4023091C5022230310580F0CE
:1016E00081E090E00BC0643058F42091C402309146
:1016F000C5022B30310520F08AE090E00E943708C7
:10170000DD2311F0D330F9F48CEF8C0F823058F4D4
:101710002091C4023091C5022B30310520F08AE0BF
:1017200090E00E943708D1110EC0C73061F480915B
:10173000C4029091C502029730F081E090E0DF9101
:10174000CF910C943708DF91CF910895882361F0F1
:10175000813061F0823021F0833021F486E00895F9
:101760008BE0089580E0089588E0089584E008956E
:10177000811103C08AEC91E00EC0813019F48AED2A
:1017800091E009C0823019F48AEE91E004C0833000
:1017900021F48BEF91E00C94240308958091B6021C
:1017A00087FF04C087E18093B60204C0883114F03B
:1017B0001092B6028091B70287FF04C08BE380933A
:1017C000B70204C08C3314F01092B7028091C602A5
:1017D00087FF04C08BE38093C60204C08C3314F0EF
:1017E0001092C6028091B50287FF04C083E6809301
:1017F000B5020895843614F01092B50208959091C0
:10180000B802191624F0823049F09CE005C09D30E2
:101810002CF0823019F091E09093B8029091B802C8
:10182000492F4D7F2091C7023091C8024130C9F045
:101830009530B9F059EF590F523098F09A3089F03D
:101840009C3079F0443079F0493069F0923069F495
:10185000A90143705527452B41F0811106C08CE149
:1018600005C08FE103C08EE101C08DE14091CD0242
:10187000141644F4552747FD509590E084179507BA
:101880001CF481E08093CD02213F88ED38071CF4E1
:101890008FE097E205C02031374234F081EF98EDB8
:1018A0009093C8028093C7028091C90287FF04C049
:1018B00086E08093C9020895873014F01092C9021F
:1018C00008951F93CF93DF930E9485038CE792E0E6
:1018D0000E9424038091BD028A3020F480E090E0D1
:1018E0000E9485038091BD0290E00E9485038DE6F1
:1018F00092E00E9424038091BC028A3020F480E0B0
:1019000090E00E9485038091BC0290E00E948503D4
:101910008DE692E00E9424038091BB028A3020F47D
:1019200080E090E00E9485038091BB0290E00E94DD
:10193000850380E392E00E9424038091BE028A30F6
:1019400020F480E090E00E9485038091BE0290E048
:101950000E9485038DE692E00E9424038091BF02DD
:101960008A3020F480E090E00E9485038091BF02DD
:1019700090E00E9485038DE692E00E94240380910E
:10198000C0029091C1020E94850380E392E00E9410
:1019900024038091C20214E6612F0E94521BC92FBA
:1019A000D0E0209721F18CE092E00E942403CE0148
:1019B0000E94850380E392E00E9424038091C2028A
:1019C000612F0E94521B90E09093AA028093A9027B
:1019D0008130910519F480E192E004C0029739F456
:1019E00089E192E0DF91CF911F910C942403DF9164
:1019F000CF911F910895CF93DF93EC0180919F02C7
:101A0000863049F4CE010E943906CE010196DF915D
:101A1000CF910C94610C853029F48C2FDF91CF91FC
:101A20000C94B80BDF91CF9108950F931F93CF9330
:101A3000DF93EC018B01CF3F8FEFD80739F060E0E7
:101A400080E00E943003CE010E94FB0CC017D1073A
:101A500061F061E080E00E943003CE010196DF91E9
:101A6000CF911F910F910C94FB0CDF91CF911F919F
:101A70000F91089580E090E00E94E00460E080E033
:101A80000E94300384E292E00E94240361E080E03F
:101A90000E9430038DE292E00E94240386E090E0F1
:101AA0000C94850380E090E00E94E00460E080E018
:101AB0000E9430038091A60290E00E94850360E0BE
:101AC00086E00E9430038091A50290E00E94850389
:101AD00061E080E00E9430038091A40290E00C94C9
:101AE000850380E090E00E94E00460E080E00E94D6
:101AF000300380919B02992787FD90950E94850372
:101B00008091CC021816CCF460E084E00E9430038F
:101B10002091A9023091AA0244E6429FC001439F4E
:101B2000900D11246AEF70E00E94721BCB010E949D
:101B3000850382E392E00C942403089510929E02A0
:101B40000E944A1A80E090E00E94E00460E08BE08E
:101B50000E94300380919D02811103C089E592E0CB
:101B600004C0813021F480E591E00E9424030E94AA
:101B7000A2090E943A1A85E180939E028091CC02CC
:101B8000882381F060E082E10E94300380E591E0EB
:101B90000E94240361E082E10E94300380E591E02D
:101BA0000E94240361E080919E020E943003809194
:101BB000CC020E94DD0960E08CE00E9430030E94AC
:101BC000091B41E050E00C94A0036091CC0280E03E
:101BD0000E94630B80E090E00E94E0048091CC02C0
:101BE00087FD1092CC028091CC02883049F520917B
:101BF000B5024091C6026091B7028091B6020E9480
:101C0000D5182091C7023091C8024091B802609166
:101C1000C9028091CD020E944F1910929A020E942F
:101C2000370384E392E00E94240384EF91E00E9452
:101C3000AD0180E090E00E94E00481E080936200CA
:101C40008091AC028130C1F4809162008130A1F0BA
:101C500060E080919E020E9430036091CC0280E09F
:101C60000E94400A80E991E00E94AD011092AC020E
:101C700080E090E00E94E0044091C302442339F0E8
:101C80006091CC0280E00E949E0A1092C3020E94E2
:101C9000CE0B80E00E94FF0B10929E020C94A209D2
:101CA000EF920F93CF93DF938091CC028F3F1CF480
:101CB0008FEF8093CC026091CC028091B3020E949E
:101CC000630B8091CC028F3F19F580E090E00E9479
:101CD000E0048091B3029091B4028F3F2FEF9207FE
:101CE0001CF483E090E004C0049734F08FEF9FEF82
:101CF0009093B4028093B30263E070E08091B302EA
:101D00009091B402DF91CF910F91EF900C94150D4B
:101D100080E090E00E94E004C091B302D091B40250
:101D20008C2F0E94A60B2091CC02332727FD3095E3
:101D300090E02817390729F0CE010196029708F0A4
:101D400051C081E080936200CF3F8FEFD80709F444
:101D500049C0209719F40E94C61934C0C130D1057A
:101D600069F40E94CE192091B5024091C60260919B
:101D7000B7028091B6020E94F61924C0C230D10584
:101D800079F40E94DE190091B5022091C6024091BB
:101D9000B7026091B6028091B8020E94161A12C072
:101DA000239781F40E94EE19E090B5020091C602DB
:101DB0002091B7024091B6026091B8028091CD02A5
:101DC0000E94261A10929A020E94370385E492E03C
:101DD0000E94240384EF91E00E94AD0180E090E036
:101DE0000E94E0048091AC028130C9F480916200CD
:101DF0008130A9F060E080919E020E9430036091E2
:101E0000CC028091B3020E94400A1092AC0280E999
:101E100091E00E94AD0180E090E00E94E0044091DA
:101E2000C302442341F06091CC028091B3020E942E
:101E30009E0A1092C3020E94CE0B8091B3020E94B0
:101E4000FF0B10929E028091B302DF91CF910F9110
:101E5000EF900C94DD09CF93DF9380E090E00E9437
:101E6000E0048091C4029091C5020B9720F08AE0B3
:101E700090E00E943708C091B302D091B402CF3FE6
:101E80008FEFD80724F40E942B06019708C00E9408
:101E90002B0601978C179D0730F48FEF9FEF9093DF
:101EA000B4028093B3020E942B06BC0161507109F9
:101EB0008091B3029091B402DF91CF910C94150DF3
:101EC00080919F02811102C00C943A0D813011F46F
:101ED0000C94520D823011F40C94710D833011F476
:101EE0000C949E0D843011F40C94E50D853011F4A2
:101EF0000C94500E863011F40C942B0F0895FF9221
:101F00000F931F93CF93DF93F82E0E94600F0091E1
:101F1000B9021091BA02C801880F991F0E94B71D1B
:101F2000EC0140919C0250E090E080E3FE01E40F60
:101F3000F51F61E3292F332727FD3095201731073F
:101F40005CF42417350711F4608304C0DE01A20F8E
:101F5000B31F8C939F5FEECF4091B9025091BA02AC
:101F600060919B0290E07AE0292F332727FD30957E
:101F700024173507A4F5FE01E20FF31F808181339A
:101F8000A1F4911103C06093A10227C0913019F40C
:101F90006093A20222C0923019F46093A3021DC084
:101FA0009330D9F46093A00218C0992311F0611105
:101FB00002C07093A102913011F0611102C07093C0
:101FC000A202923011F0611102C07093A30293300B
:101FD00011F0611102C07093A0029F5FC5CF909372
:101FE000C30281E0F81641F0CE01DF91CF911F913D
:101FF0000F91FF900C944F1E1092C3021BE0409172
:10200000C302842F992787FD90952091B9023091C2
:10201000BA028217930744F7FE01E80FF91F808187
:10202000803321F080919B0281111BC0411103C0BC
:102030001093A1020EC0413019F41093A20209C0FE
:10204000423019F41093A30204C0433011F41093EA
:10205000A0020E94290860E070E088EC92E40E94EF
:10206000C1018091C3028F5F8093C302C8CF81E01A
:1020700080939A0208952F923F92AF92BF92CF928F
:10208000DF92EF92FF920F931F93CF93DF93CDB721
:10209000DEB7C055D1090FB6F894DEBF0FBECDBF75
:1020A0006C018932910509F0F7C10E945505109223
:1020B0009A020E94370388E290E09093BA028093DC
:1020C000B90280E5EDE6F0E0DE01119601900D9297
:1020D0008A95E1F784E090E00E94B71D7C011092A0
:1020E000AA021092A902E8E2BE2E0091A902109164
:1020F000AA0202301105ACF580E590E00E94B71D00
:10210000F801EE0FFF1FEE0DFF1D918380831092EB
:10211000CC0240E0B09E9001B19E300D1124542FAE
:10212000E42FFF27E7FDF0954F5FE832F10584F4D7
:10213000DC01A50FB11D57FDBA95E20FF31F61E059
:1021400070E06C0F7D1FE60FF71F50815C93E7CFA7
:102150005093CC020F5F1F4F1093AA020093A90265
:10216000C4CF1092AA021092A9028091A902909164
:10217000AA028832910594F4D701ED91FC91E80F01
:10218000F91F80810E941E038091A9029091AA02EA
:1021900001969093AA028093A902E7CF61E080E0C4
:1021A0000E9430031092AA021092A9028091A90203
:1021B0009091AA0288329105A4F4D7011296ED916C
:1021C000FC911397E80FF91F80810E941E038091F4
:1021D000A9029091AA0201969093AA028093A90263
:1021E000E5CF88E290E09093BA028093B90281E053
:1021F0008093CC028091CC02882309F41CC184E036
:1022000090E00E94B71D8C011092AA021092A902C0
:10221000A090A902B090AA02E2E0AE16B104BCF40C
:102220008091B9029091BA02880F991F0E94B71D40
:10223000F501EE0FFF1FE00FF11F91838083BFEFC9
:10224000AB1ABB0AB092AA02A092A902E1CF0E94E7
:1022500041031092AA021092A9028091A9029091C2
:10226000AA022091B9023091BA02821793079CF416
:10227000D801AD90BC90A80EB91E0E942103F501B3
:1022800080838091A9029091AA0201969093AA025C
:102290008093A902E2CF61E080E00E9430031092B7
:1022A000AA021092A9028091A9029091AA022091FB
:1022B000B9023091BA0282179307ACF4D801129692
:1022C000AD90BC901397A80EB91E0E942103F50192
:1022D00080838091A9029091AA0201969093AA020C
:1022E0008093A902E0CF0E9437038091B9029091B8
:1022F000BA024091CC0220E030E0281739070CF5F3
:10230000F801A081B181A20FB31FF701A080B180B5
:10231000A20EB31E6C91D5015C9165130EC0F8013D
:10232000A281B381A20FB31FF701A280B380A20ED6
:10233000B31E6C91D5015C91651340E02F5F3F4F58
:10234000DCCF4093CC023093AA022093A9020E94D2
:102350001E06892B11F01092CC028091CC028111C3
:1023600005C01092AA021092A90248C01092AA02B7
:102370001092A9028091A9029091AA022091B9021B
:102380003091BA028217930794F4D801ED91FC9131
:10239000E80FF91F80810E941E038091A90290918D
:1023A000AA0201969093AA028093A902E3CF61E06A
:1023B00080E00E9430031092AA021092A90280913C
:1023C000A9029091AA022091B9023091BA02821713
:1023D00093073CF6D8011296ED91FC911397E80F04
:1023E000F91F80810E941E038091A9029091AA0288
:1023F00001969093AA028093A902E1CFA090A9022E
:10240000B090AA02E2E0AE16B1048CF4F501EE0F32
:10241000FF1FE00FF11F808191810E944F1EBFEFCF
:10242000AB1ABB0AB092AA02A092A902E7CFC801D8
:102430000E944F1EDFCE1092AA021092A9020091B4
:10244000A9021091AA020230110584F4F801EE0FDE
:10245000FF1FEE0DFF1D808191810E944F1E0F5FB7
:102460001F4F1093AA020093A902E9CFC7010E944F
:102470004F1E0E94290860E070E080E291E40E9413
:10248000C1010E94290860E070E080E291E40E94AE
:10249000C1010E94290858C18C30910509F056C12C
:1024A0000E94550510929A020E94370384E090E042
:1024B0000E940B0561E089E00E94300384E592E010
:1024C0000E94240360E070E08AEF93E40E94C1015F
:1024D0000E9441038BE592E00E94240360E070E0DB
:1024E0008AEF93E40E94C10141E050E061E070E0B6
:1024F00080E090E00E948E0460E070E08FE294E45F
:102500000E94C10182E090E00E940B0560E070E053
:102510008FE294E40E94C10181E090E00E940B05EB
:1025200060E070E08FE294E40E94C10182E090E0FC
:102530000E940B0560E070E08FE294E40E94C1010C
:1025400085E090E00E940B0560E070E08AE794E48B
:102550000E94C10184E090E00E940B0540E050E041
:1025600061E070E080E090E00E948E0460E070E046
:102570008AE794E40E94C10140E050E061E070E02D
:1025800080E090E00E94B70483E090E00E940B0599
:1025900060E070E08AE794E40E94C10185E090E089
:1025A0000E940B0561E080E00E94300387E692E024
:1025B0000E94240360E070E88BEB94E40E94C10168
:1025C00061E089E00E94300386E090E09093BA02D7
:1025D0008093B9020E94B71D9A8389831092AA0240
:1025E0001092A9028091A9029091AA022091B902A9
:1025F0003091BA0282179307C4F409811A81080F37
:10260000191F0E942103D8018C9360E070E088ECD0
:1026100092E40E94C1018091A9029091AA020196C0
:102620009093AA028093A902DDCF41E050E061E0DF
:1026300070E080E090E00E94B70460E070E88BEB0F
:1026400094E40E94C10183E090E00E940B0580E0C9
:1026500090E00E94E00460E070E88BEB94E40E945C
:10266000C10161E080E00E943003FE0131961F014C
:102670000E94FD0784E090E00E940B0560E089E085
:102680000E9430030E94FD0761E088E00E94300351
:1026900085E090E00E940B050E94FD0760E081E06C
:1026A0000E9430030E94FD0789819A810E944F1E7B
:1026B00083E090E00E940B0560E070E88BEB94E40F
:1026C0000E94C10141E050E06FE070E084E190E0E1
:1026D0000E948E0441E050E06FE070E084E190E001
:1026E0000E94B70481E090E00E94E00484E090E062
:1026F0000E940B0560E070E08AE794E40E94C1014B
:1027000041E050E06FE070E084E190E00E94B704A7
:1027100041E050E06FE070E084E190E00E948E04C0
:1027200083E090E00E940B0582E090E00E94E004CC
:1027300060E070E08AEF93E40E94C1010E943703D9
:1027400081E090E00E940B050E945905C6010E949D
:102750000B050E94600FC05BDF4F0FB6F894DEBF21
:102760000FBECDBFDF91CF911F910F91FF90EF90E2
:10277000DF90CF90BF90AF903F902F9008959F92A1
:10278000AF92BF92CF92DF92EF92FF920F931F937F
:10279000CF93DF93EC018B018932910521F08436D0
:1027A000910509F0D9C081E090E09093AA0280934E
:1027B000A9028093CC028EEEE82E82E0F82E6DEC1A
:1027C0007CEC8CEC9EE30E9432088091A9029091EF
:1027D000AA0201969093AA028093A9020E94600F18
:1027E0006091A9027091AA02C7010E94721B665FE4
:1027F0007F4F882777FD8095982F0E94A01C0E940C
:10280000C1010E941E06892B39F08091A902909186
:10281000AA028A3F910599F660E070E088E493E4AB
:102820000E94C1010E944A1A1092AC029091AC021F
:102830008091B502981744F40E942C1F8091AC023D
:102840008F5F8093AC02F2CFF6E0EF2EF12C99244B
:102850009394A4ECCA2EA9E0DA2EB7E0AB2EB12CEB
:102860008091A9029091AA02019709F44EC00E949A
:102870002C1FB7010E94721B8F5F8093CC02909235
:10288000AC022091AC028091CC026091A9027091BF
:10289000AA0282179CF1C6010E94721BCB0101960D
:1028A000B501621B710927FD73950E94721B882771
:1028B00077FD8095982F0E94A01C0E94C1010E9464
:1028C0002C1F6091B9027091BA020E94721B809312
:1028D0009C028091AC0280939B0280E00E947F0F5B
:1028E0000E94600F6DEC7CEC8CE49FE30E94320848
:1028F0008091AC028F5F8093AC02C3CF61507109AD
:102900007093AA026093A902ABCF82E090E090930B
:10291000AA028093A9028091AC02873094F467E008
:1029200070E0681B710987FD739583EE94E00E9447
:10293000721B882777FD8095982F0E94A01C0E940B
:10294000C1018FEF8093CC0281E00E947F0F109233
:10295000CC0281E080939A02CB33D10569F41092C6
:102960009B0210929C021092CC0281E00E947F0F89
:1029700081E080939A021EC0C733D10529F488EE06
:1029800093E00E94370816C0C633D10529F484E6C7
:1029900090E00E94370814C0C233D10519F48AE0D0
:1029A00090E005C0C433D10529F481E090E00E9495
:1029B00037081EC0C032D10519F483B7856005C041
:1029C000C132D10521F483B78A7F83BF11C02E970E
:1029D00079F40130110561F483B7856083BF8AE023
:1029E0008093A1028093A2028093A3028093A0020D
:1029F00081E080939A02DF91CF911F910F91FF9018
:102A0000EF90DF90CF90BF90AF909F9008958B3361
:102A1000910519F40E944A180FC08436910561F49B
:102A200080919D02813019F410929D0205C08111A0
:102A300003C081E080939D0281E080939A02089513
:102A40008031910521F48091CC028F5F06C08131E5
:102A5000910549F48091CC0281508093CC0281E0B1
:102A60008093AC0211C08032910511F481E004C062
:102A70008132910521F482E08093C30205C0CB9797
:102A800019F488E08093CC0281E080939A02089543
:102A90008031910521F48091CC028F5F06C0813195
:102AA000910549F48091CC0281508093CC0281E061
:102AB0008093AC0236C08032910589F48091CC02BB
:102AC0008F3F59F48091B3029091B4022091C402D7
:102AD0003091C502821B930B13C081E017C0813275
:102AE0009105B9F48091CC028F3F79F48091B302C3
:102AF0009091B4022091C4023091C502820F931FBD
:102B00009093B4028093B3020CC082E08093C3021E
:102B100008C0CB9731F48091B3020E94A60B80933A
:102B2000CC0281E080939A0208958C30910581F463
:102B300061307105A1F50E9437038FE692E00E9493
:102B400024030E94E4071092B4021092B30227C03B
:102B50008032910559F48091B3029091B402209192
:102B6000C4023091C502821B930B15C081329105BE
:102B700059F48091B3029091B4022091C402309133
:102B8000C502820F931F07C0CB9749F48EEF0E94B6
:102B900066180E9433069093B4028093B30281E0DA
:102BA00080939A0208950F931F93CF93DF93EC01C4
:102BB0008B010E94290880919F02811104C081E04D
:102BC00080939A0229C0813029F4B801CE010E9475
:102BD0003B1022C0823029F4B801CE010E94BF13FD
:102BE0001BC0833029F4B801CE010E94071514C020
:102BF000843029F4B801CE010E9420150DC0853023
:102C000029F4B801CE010E94481506C0863021F48F
:102C1000B801CE010E949515C632D10551F510922A
:102C20009A020E9437038EE792E00E94240361E03B
:102C300080E00E9430038AE892E00E94240360E072
:102C400070E08AE793E40E94C10141E050E06FE048
:102C500070E084E190E00E948E0441E050E06FE07B
:102C600070E084E190E00E94B70481E080939A02D2
:102C700036C0CE32D10549F441E050E061E070E069
:102C800080E090E00E948E042AC0C232D10549F44F
:102C900041E050E061E070E080E090E00E94B70425
:102CA00027C0C432D10561F441E050E06FE070E02C
:102CB00084E190E0DF91CF911F910F910C948E04ED
:102CC000C332D10561F441E050E06FE070E084E18F
:102CD00090E0DF91CF911F910F910C94B704CC320B
:102CE000D10531F4DF91CF911F910F910C9497088A
:102CF000CD32D10531F4DF91CF911F910F910C941A
:102D0000B1082E9731F40130110519F481E0809358
:102D10006200DF91CF911F910F910895FF920F9361
:102D20001F93CF93DF93EC018B0180919D02813043
:102D300011F40E94550580919F02811160C0C73037
:102D4000D10508F05CC0C0939F02CE010E94CD085F
:102D500080919F02813009F450C0823099F484E060
:102D600090E09093BA028093B9021092CC02109234
:102D7000AA021092A90283B7856083BF81E00E94F6
:102D80007F0F3AC0833049F40E9491070E94671A6E
:102D90000E94A2198093CC022FC0843059F4109263
:102DA000CC02FF24F394F092AC021092C3020E9472
:102DB0004A1A14C08530A9F40E943A1A8FEF809302
:102DC000CC02FF24F394F092AC021092C3020E9452
:102DD000A21990E09093B4028093B302F0929A0209
:102DE0000EC0863061F48EEF0E9466180E94330692
:102DF0009093B4028093B30281E080939A02809111
:102E00006200811104C0B801CE010E94D3158091E7
:102E10009D02813039F4DF91CF911F910F91FF9086
:102E20000C945905DF91CF911F910F91FF90089558
:102E30001092AA021092A902209161008091A4022E
:102E4000223079F0332727FD309590E02817390795
:102E500031F481E090E09093AA028093A9028091DE
:102E6000A4028093610008958091B102813061F4E1
:102E700080919F02833041F41092B1021092AB0214
:102E80000E949C070E94600F80919A02813021F479
:102E900010929A020E94600F80916200813011F5B9
:102EA0008AE08093A1028093A1028093A102809383
:102EB000A1021092620010929F0281E090E0909334
:102EC000C5028093C4028AE090E00E94AD0183B7FE
:102ED0008A7F83BF0E946B1A60E070E080E090E020
:102EE0000E948E160E941E06892B91F08EE190E0C2
:102EF0000E94AD010E941E06892B51F060E070E037
:102F000084E690E00E948E1684E690E00E94AD0177
:102F10008091A8028823B1F08091A502811112C08E
:102F20000E9418178091A6026091A9027091AA02CE
:102F300090E00E948E161092A8028FEF8093A60256
:102F40008093A5020895982F92959F708F702AE024
:102F5000929F800D112408956AE00E94521B292F30
:102F600030E1839FC0011124822B08951F93CF93DA
:102F7000DF931F92CDB7DEB7182F0E94370582EA84
:102F80000E944305812F0E9443050E94370583EA72
:102F90000E94430580E00E944A0589830E943D0506
:102FA00089810F90DF91CF911F9108951F93CF9347
:102FB000DF931F92CDB7DEB7182F69830E943705C4
:102FC00082EA0E944305812F0E9443056981862F72
:102FD0000E9443050F90DF91CF911F910C943D0506
:102FE0000E94B6170C94A317CF93C82F862F0E9468
:102FF000AC17682F8C2FCF910C94D61780E00E94CD
:10300000B617682F606880E00C94D61780E00E94A5
:10301000B617682F6F7780E00C94D61780E00E9477
:10302000B617682F6F7B80E00C94D61780E00E9463
:10303000B617682F606480E00C94D61780E00E9479
:10304000B617682F677F80E00C94D61780E00E9447
:10305000B617682F627080E00E94D61780E00E9449
:10306000B617682F646080E00E94D6170E940E1881
:103070000E941E1884E00E94B617682F6F7384E0C8
:103080000C94D61780E00E94B617682F686080E025
:103090000C94D61780E00E94B617682F6D7F80E0F1
:1030A0000C94D6171F93CF93DF931F92CDB7DEB743
:1030B000182F79830E94D6177981672F81E0810FBD
:1030C0000F90DF91CF911F910C94D6171F93CF9340
:1030D000DF93182F0E94B617C82FD0E081E0810F30
:1030E0000E94B6179E01382BC901DF91CF911F9125
:1030F00008951F93CF93DF931F92CDB7DEB7182F9C
:10310000862F49830E94AC174981642F6295660F10
:10311000660F607C682B812F0F90DF91CF911F91FC
:103120000C94D6171F93CF93DF931F92CDB7DEB7C2
:10313000182F862F49830E94AC17498190E2499F3E
:10314000B0011124682B812F0F90DF91CF911F9137
:103150000C94D617CF92DF92EF92FF920F931F93AA
:10316000CF93DF93EC017B016A0189010E9416185D
:1031700081E00E94F017F801808382E00E94F0173E
:10318000F601808383E00E94F017F701808384E0DA
:103190000E94F0178883DF91CF911F910F91FF90CC
:1031A000EF90DF90CF900C940E180F931F93CF9356
:1031B000DF9300D0CDB7DEB7182F062F29834A83BF
:1031C0000E94FE172981622F81E00E94F4174A8134
:1031D000642F82E00E94F417602F83E00E94F417AE
:1031E000612F84E00E94F4170F900F90DF91CF9130
:1031F0001F910F910C940618CF92DF92EF92FF92DD
:103200000F931F93CF93DF93EC017B016A01890138
:103210000E9442180E94161885E00E94B6170E946C
:10322000A317888386E00E94B6170E94A317F601B1
:1032300080830E941E1886E00E94B61782958695AC
:103240008770F701808385E00E94B617F82E80E131
:103250000E94B617C82F81E10E94B617D0E0D82B84
:103260009E0123703327F294F694F69483E0F822BB
:103270008F2D90E02817390729F02196BE0180E1B3
:103280000E945218F801D183C083DF91CF911F9122
:103290000F91FF90EF90DF90CF900C940E18FF925B
:1032A0000F931F93CF93DF93F82E062F142FE9016E
:1032B000B90180E10E9452180E94FE17AE016F2DE5
:1032C00085E00E947918402F612F86E00E949218B5
:1032D000DF91CF911F910F91FF900C940618CF9220
:1032E000DF92EF92FF920F931F93CF93DF93EC0146
:1032F0007B016A01890189E00E94F017F80180834F
:103300008AE00E94F017F60180838BE00E94F0179C
:10331000F70180838CE00E94F0178883DF91CF91C2
:103320001F910F91FF90EF90DF90CF900895CF9372
:10333000C62F682F8DE00E94F4176C2F8EE0CF917E
:103340000C94F41788E00E94B617807382958F70F2
:1033500008950F931F93CF93DF938C01EB018DE0C2
:103360000E94F017F80180830E94A219823029F48C
:103370008EE00E94B6178F7703C08EE00E94F01790
:103380008883DF91CF911F910F91089588E00E946B
:10339000B617682F6F7C88E00C94D61788E00E94DF
:1033A000B617682F606188E00E94D61788E00E94F7
:1033B000B617682F6F7D88E00C94D61788E00E94BE
:1033C000B617682F6F7E88E00E94D61788E00E94AB
:1033D000B617682F606288E00C94D61788E00E94C8
:1033E000B617682F606388E00C94D6170F931F936D
:1033F000CF93DF931F92CDB7DEB7182F062F622F22
:1034000089E049830E94F4174981642F8AE00E9471
:10341000F417602F8BE00E94F417612F8CE00F905F
:10342000DF91CF911F910F910C94F4170F93CF93CD
:10343000C82F862F642F422F202F0E94F6196C2F41
:103440006F778EE0CF910F910C94D617EF920F9378
:10345000CF93DF93C82FD62F842F622F402F2E2D8E
:103460000E94F6196D2F8C2FDF91CF910F91EF9065
:103470000C94971925EB32E046EC52E067EB72E0D2
:1034800086EB92E00E946F1968EB72E08DEC92E09F
:103490000C94A91925EB32E046EC52E067EB72E0A0
:1034A00086EB92E00E94AA1827EC32E048EB52E04B
:1034B00069EC72E08DEC92E00C94FC1885B58860A4
:1034C00085BD8FEF83BD89B7806889BF089585B5B5
:1034D000876085BD089585B58E7F85BD08951F924F
:1034E0000F920FB60F9211248F938091AB0284310B
:1034F00019F481E08093B1028091AB028F5F8093D9
:10350000AB028F910F900FBE0F901F9018958823DC
:1035100019F0D89AD09A0895D0980895D89899B368
:10352000892F817090FF15C0D09A84EF91E00E949E
:10353000B801D09886E490E00E94B80184EF91E051
:10354000C89904C00E94B80181E008950E94B801A2
:1035500080E00895CF93DF93D82FD898C8E0D09A11
:10356000D0FF08C087E090E00E94B801D09886E4C0
:1035700090E007C086E490E00E94B801D09887E010
:1035800090E00E94B801D695C15049F7DF91CF91E4
:1035900008950E948E1A882339F08CEC0E94AA1A92
:1035A00084E40E94AA1A8FEF0895CF93DF93D098F6
:1035B000D8E0C0E0D09A87E090E00E94B801D098AF
:1035C00087E090E00E94B801C695C899C06886E47B
:1035D00090E00E94B801D15069F78C2FDF91CF9114
:1035E00008950E948E1A882389F08CEC0E94AA1AF2
:1035F0008EEB0E94AA1A0E94D51A8093CA020E94DA
:10360000D51A8093CB0281E090E0089580E090E0AD
:1036100008950E94C91A8823F1F08AEC92E00E9472
:10362000F11A6091CB0270E0762F66278091CA0272
:10363000680F711D882777FD8095982F0E94A01C28
:1036400020E030E040E85DE30E94541D1092CA0281
:103650001092CB02089560E070E0CB0108950E94C3
:103660004B0384E690E00E9426050E9426188F9A5C
:103670000E94091B0E945E1A0E945D050E944F0075
:103680000E9426060E9434170E94590581E080930B
:103690009D02789468EE70E08EEF0E9452180E94AE
:1036A0003417FDCF991B79E004C0991F961708F0D5
:1036B000961B881F7A95C9F780950895AA1BBB1B96
:1036C00051E107C0AA1FBB1FA617B70710F0A61B22
:1036D000B70B881F991F5A95A9F780959095BC0143
:1036E000CD01089597FB072E16F4009407D077FDBF
:1036F00009D00E945E1B07FC05D03EF49095819591
:103700009F4F0895709561957F4F08950E948D1B7E
:10371000B7FF0895821B930B0895A29FB001B39F3A
:10372000C001A39F700D811D1124911DB29F700DCA
:10373000811D1124911D08955058BB27AA270ED032
:1037400075C166D130F06BD120F031F49F3F11F498
:103750001EF45BC10EF4E095E7FB51C1E92F77D170
:1037600080F3BA17620773078407950718F071F49E
:103770009EF58FC10EF4E0950B2EBA2FA02D0B01F4
:10378000B90190010C01CA01A0011124FF27591BA6
:1037900099F0593F50F4503E68F11A16F040A22FAC
:1037A000232F342F4427585FF3CF4695379527951D
:1037B000A795F0405395C9F77EF41F16BA0B620B1C
:1037C000730B840BBAF09150A1F0FF0FBB1F661F63
:1037D000771F881FC2F70EC0BA0F621F731F841FA6
:1037E00048F4879577956795B795F7959E3F08F0CC
:1037F000B3CF9395880F08F09927EE0F979587958B
:103800000895D9D008F481E008950CD00FC107D1F4
:1038100040F0FED030F021F45F3F19F0F0C05111BC
:1038200039C1F3C014D198F39923C9F35523B1F3E7
:10383000951B550BBB27AA2762177307840738F01F
:103840009F5F5F4F220F331F441FAA1FA9F333D07E
:103850000E2E3AF0E0E830D091505040E695001C32
:10386000CAF729D0FE2F27D0660F771F881FBB1FEE
:10387000261737074807AB07B0E809F0BB0B802DC8
:10388000BF01FF2793585F4F2AF09E3F510568F014
:10389000B6C000C15F3FECF3983EDCF386957795A8
:1038A0006795B795F7959F5FC9F7880F911D969516
:1038B000879597F90895E1E0660F771F881FBB1F72
:1038C000621773078407BA0720F0621B730B840B1F
:1038D000BA0BEE1F88F7E095089504D06894B111F3
:1038E000D9C00895BCD088F09F5790F0B92F992780
:1038F000B751A0F0D1F0660F771F881F991F1AF0FB
:10390000BA95C9F712C0B13081F0C3D0B1E00895C3
:10391000C0C0672F782F8827B85F39F0B93FCCF344
:10392000869577956795B395D9F73EF490958095F0
:10393000709561957F4F8F4F9F4F0895E89409C010
:1039400097FB3EF490958095709561957F4F8F4FD2
:103950009F4F9923A9F0F92F96E9BB279395F695E8
:10396000879577956795B795F111F8CFFAF4BB0F66
:1039700011F460FF1BC06F5F7F4F8F4F9F4F16C0CA
:10398000882311F096E911C0772321F09EE8872F54
:10399000762F05C0662371F096E8862F70E060E010
:1039A0002AF09A95660F771F881FDAF7880F969589
:1039B000879597F90895990F0008550FAA0BE0E82D
:1039C000FEEF16161706E807F907C0F012161306E1
:1039D000E407F50798F0621B730B840B950B39F421
:1039E0000A2661F0232B242B252B21F408950A2687
:1039F00009F4A140A6958FEF811D811D089597F9C7
:103A00009F6780E870E060E008959FEF80EC089584
:103A100000240A94161617061806090608950024AD
:103A20000A9412161306140605060895092E039427
:103A3000000C11F4882352F0BB0F40F4BF2B11F49B
:103A400060FF04C06F5F7F4F8F4F9F4F089557FDFA
:103A50009058440F551F59F05F3F71F04795880FFC
:103A600097FB991F61F09F3F79F087950895121693
:103A700013061406551FF2CF4695F1DF08C016163F
:103A800017061806991FF1CF8695710561050894F0
:103A90000895E894BB2766277727CB0197F9089507
:103AA0008ADF08F48FEF08950BD0C0CFB1DF28F084
:103AB000B6DF18F0952309F0A2CFA7CF1124EACFE3
:103AC000C6DFA0F3959FD1F3950F50E0551F629F7D
:103AD000F001729FBB27F00DB11D639FAA27F00D67
:103AE000B11DAA1F649F6627B00DA11D661F829F8E
:103AF0002227B00DA11D621F739FB00DA11D621F73
:103B0000839FA00D611D221F749F3327A00D611D8F
:103B1000231F849F600D211D822F762F6A2F112471
:103B20009F5750408AF0E1F088234AF0EE0FFF1FC4
:103B3000BB1F661F771F881F91505040A9F79E3FFB
:103B4000510570F05CCFA6CF5F3FECF3983EDCF3FD
:103B5000869577956795B795F795E7959F5FC1F738
:103B6000FE2B880F911D9695879597F90895CF9311
:103B7000DF938230910510F482E090E0E091D20270
:103B8000F091D30220E030E0A0E0B0E0309739F1CE
:103B90004081518148175907B8F04817590771F407
:103BA00082819381109729F013969C938E9312979C
:103BB0002CC09093D3028093D20227C021153105E7
:103BC00031F04217530718F0A901DB0101C0EF01E2
:103BD0009A01BD01DF010280F381E02DD7CF2115CD
:103BE0003105F9F0281B390B2430310580F48A8126
:103BF0009B816115710521F0FB019383828304C0D1
:103C00009093D3028093D202FE01329644C0FE010B
:103C1000E20FF31F81939193225031093983288356
:103C20003AC02091D0023091D102232B41F420914F
:103C30006500309166003093D1022093D00220912C
:103C40006300309164002115310541F42DB73EB772
:103C50004091670050916800241B350BE091D00221
:103C6000F091D102E217F307A0F42E1B3F0B2817A7
:103C7000390778F0AC014E5F5F4F2417350748F0E5
:103C80004E0F5F1F5093D1024093D00281939193C6
:103C900002C0E0E0F0E0CF01DF91CF910895CF9333
:103CA000DF93009709F487C0FC01329713821282D8
:103CB000C091D202D091D302209781F4208131812A
:103CC000280F391F8091D0029091D102821793075B
:103CD00079F5F093D102E093D0026DC0DE0120E0CF
:103CE00030E0AE17BF0750F412964D915C911397D8
:103CF0009D014115510509F1DA01F3CFB383A28388
:103D000040815181840F951F8A179B0771F48D9113
:103D10009C911197840F951F029691838083129630
:103D20008D919C911397938382832115310529F4FA
:103D3000F093D302E093D2023EC0D9011396FC93D4
:103D4000EE9312974D915D91A40FB51FEA17FB07F3
:103D500079F480819181840F951F0296D901119683
:103D60009C938E938281938113969C938E9312974A
:103D7000E0E0F0E08A819B81009719F0FE01EC0100
:103D8000F9CFCE01029628813981820F931F2091AD
:103D9000D0023091D1022817390769F4309729F4FD
:103DA0001092D3021092D20202C013821282D093D8
:103DB000D102C093D002DF91CF9108958F929F924C
:103DC000AF92BF92CF92DF92EF92FF92CF93DF93A9
:103DD000EC01688179818A819B816115710581057A
:103DE000910521F464E279ED8BE597E02DE133EF65
:103DF00041E050E00E94991F49015A019B01AC012A
:103E0000A7EAB1E40E94B81F6B017C01ACEEB4EFED
:103E1000A50194010E94C61FC60ED71EE81EF91EFA
:103E2000F7FE06C081E0C81AD108E10880E8F80A68
:103E3000C882D982EA82FB82C6019F77DF91CF9147
:103E4000FF90EF90DF90CF90BF90AF909F908F90BA
:103E500008950E94DE1E089589E690E00E94DE1E0D
:103E60000895A0E0B0E08093690090936A00A09369
:103E70006B00B0936C000895BB274A3031F499234E
:103E800022F4BDE2909581959F4F0C94481FBB276B
:103E9000FB015527AA27880F991FAA1FA41710F006
:103EA000A41B83955051B9F7A05DAA3308F0A95D12
:103EB000A193009779F7B111B1931192CB010C94B2
:103EC0006C1FA8E1B0E042E050E00C947E1F0E941D
:103ED0008C1F272F0C948D1FDC01FC01672F719123
:103EE0007723E1F7329704C07C916D9370836291E0
:103EF000AE17BF07C8F30895DC01CB01FC01E199BF
:103F0000FECF06C0FFBBEEBBE09A31960DB20D921C
:103F100041505040B8F70895262FE199FECF9FBB3E
:103F20008EBB2DBB0FB6F894E29AE19A0FBE0196B4
:103F30000895052E97FB1EF400940E94B01F57FDB4
:103F400007D00E94CB1F07FC03D04EF40C94B01F87
:103F500050954095309521953F4F4F4F5F4F0895B5
:103F600090958095709561957F4F8F4F9F4F0895E5
:103F70000E948D1BA59F900DB49F900DA49F800D56
:103F8000911D11240895B7FF0C94B81F0E94B81F0B
:103F9000821B930B0895A1E21A2EAA1BBB1BFD01E5
:103FA0000DC0AA1FBB1FEE1FFF1FA217B307E40718
:103FB000F50720F0A21BB30BE40BF50B661F771F70
:103FC000881F991F1A9469F7609570958095909550
:0E3FD0009B01AC01BD01CF010895F894FFCF15
:103FDE000102010000D40220000100000041546DD6
:103FEE0065676133322070726F6772616D616263F3
:103FFE006465666768696A6B6C6D6E6F70717273FB
:10400E0074757677784461726975737A204D2E20B7
:10401E0070726F6A2E797A313233343536373839D9
:10402E00303938373635343332312140240600509A
:10403E00726F6772616D3A200050524F4752414D78
:10404E0020474C4F574E590050524F4752414D202A
:10405E00544553544F5759004B4F53544B412044E2
:10406E004F2047525900435A5557414E4945004E2D
:10407E0041535441574120474F445A494E59004EDF
:10408E0041535441574120414C41524D55004441FA
:10409E004E45202D20454550524F4D00506E2E005E
:1040AE0057742E0053722E00437A2E0050742E0039
:1040BE00536F2E004E642E002D2D2D2D2D2D2D00E7
:1040CE007C004D494E5554590053454B554E44595D
:1040DE00005345544E452053454B554E4400445ACB
:1040EE0049454E004D49455349414300524F4B00FF
:1040FE00445A49454E205459474F444E4941005069
:10410E004F4E4945445A49414C454B0057544F5226
:10411E00454B0053524F444100435A574152544568
:10412E004B0050494154454B00534F424F544100B0
:10413E004E4945445A49454C4100416C61726D20CF
:10414E0077796C61637A6F6E7900416C61726D2064
:10415E00636F647A69656E6E7900416C61726D2071
:10416E007479676F646E696F777900416C61726DF7
:10417E00206D6965736965637A6E79004E52200011
:10418E004F54574152434945005A414D4B4E4945B4
:10419E00434945005779626965727A3A0030202D9D
:1041AE00200025005A41504953414E4F20474F445D
:1041BE005A494E45005A41504953414E4F20414CA9
:1041CE0041524D00576974616A21004C43442048A6
:1041DE0044343437383000437A7974616D3A004391
:1041EE007A79737A637A656E69652E2E2E004E612A
:1041FE0020706F637A6174656B00656B72616E75AA
:04420E002E2E2E0022
:040000050080006215
:00000001FF
