:100000000C942A000C9447000C9447000C94470071
:100010000C94311E0C9447000C949F030C944700E1
:100020000C9447000C9447000C9447000C94470034
:100030000C9447000C9447000C9447000C94470024
:100040000C9447000C9447000C9447000C94470014
:100050000C94470011241FBECFE5D8E0DEBFCDBF12
:1000600015E0A0E6B0E0E0E4FBE402C005900D92EC
:10007000A434B107D9F725E0A4E4B5E001C01D928E
:10008000A03AB207E1F70E946C1E0C949E250C94D6
:100090000000009741F0EFE9FFE03197F1F700C071
:1000A00000000197F6CF0895009731F025E02A95DA
:1000B000F1F700000197F8CF08958F929F92AF92C9
:1000C000BF92CF92DF92EF92FF924B015C0120E052
:1000D00030E04AE755E40E94B7206B017C0120E044
:1000E00030E040E85FE30E94641F87FD24C020E009
:1000F0003FEF4FE757E4C701B6010E94B32018163F
:10010000ACF420E030E040E251E4C501B4010E94CB
:10011000B7200E94D51F20E931E06115710581F0FB
:10012000C9010197F1F761507109F7CFC701B60115
:100130000E94D51F02C061E070E0CB010197F1F78A
:10014000FF90EF90DF90CF90BF90AF909F908F90F7
:1001500008958F929F92AF92BF92CF92DF92EF92CB
:10016000FF924B015C012BEA3AEA4AEA50E40E9412
:10017000B7206B017C0120E030E040E85FE30E94A3
:10018000641F87FD21C020E030E04FE753E4C70142
:10019000B6010E94B320181694F420E030E04AE73C
:1001A00054E4C501B4010E94681FFF90EF90DF90F6
:1001B000CF90BF90AF909F908F900C945D00C7013F
:1001C000B6010E94D51F01C061E06A95F1F7FF906A
:1001D000EF90DF90CF90BF90AF909F908F90089559
:1001E00080FF02C0DC9A01C0DC9881FF02C0DD9A6A
:1001F00001C0DD9882FF02C0DE9A01C0DE9883FF55
:1002000002C0DF9A0895DF98089589B382958170BE
:10021000CD998260CE998460CF9988600895CF93FC
:10022000DF93D498D598D698D798DA9ADB9A0E941B
:10023000050190E1899FE0011124DB98DB9A0E947F
:100240000501DB98E7ECF0E03197F1F700C0000022
:100250008C2BDF91CF910895D9980C940F01CF93F7
:10026000C82FD49AD59AD69AD79ADA98DB9A8295DB
:100270008F700E94F000DB98DB9A8C2F0E94F000B8
:10028000DB980E942C0187FDFCCFCF910895D9986F
:100290000C942F01D99A0C942F01D99A0C940F0128
:1002A000CF93DF93EC018991882319F00E944A01D2
:1002B000FACFDF91CF91089590E4699F800D1124CA
:1002C00080680C94470181E00E9447018FE39FE121
:1002D0000197F1F700C00000089582E00E944701F5
:1002E0008FE39FE10197F1F700C000000895C09AE5
:1002F0000895CF93D49AD59AD69AD79AD39AD19A69
:10030000D29A8FE59AEE0197F1F700C00000D998D4
:10031000DB98DA98C3E0DB9A83E00E94F000DB9878
:100320008FE19EE40197F1F700C00000C15099F7FA
:10033000DB9A82E00E94F000DB988FE99FE0019752
:10034000F1F700C0000088E20E94470188E00E94A7
:10035000470181E00E94470186E00E9447018CE04E
:100360000E944701B89ACF910C947701C0980895E4
:10037000CF93DF93CDB7DEB761970FB6F894DEBFAA
:100380000FBECDBF4AE0BE016F5F7F4F0E9441228A
:100390000E94500161960FB6F894DEBF0FBECDBF2C
:1003A000DF91CF9108956F927F928F929F92AF923B
:1003B000BF92CF92DF92EF92FF920F931F93CF9352
:1003C000DF9300D0CDB7DEB76B017C0149835A8340
:1003D0000E94D51F9B0149815A8177FF04C02227C3
:1003E0003327261B370B293E334008F09EC08A0175
:1003F0004530510510F004E010E0C701B6010E943D
:10040000D01F4B015C01CB010E94B80181E090E05C
:100410002AE0622E712C2AE08017910740F4F30144
:100420002E9F30012F9F700C11240196F5CF012BC8
:1004300009F47BC088EE94E00E945001840197FE8D
:1004400004C00027112708191909B30180E090E0C2
:100450000E9401209B01AC01C701B6010E94B72098
:100460000E94D01F9B0177FF04C022273327261B41
:10047000370BB901882777FD8095982F0E940320BC
:100480006B017C019301D8010E94E91E0E940120AA
:100490009B01AC01C701B6010E94FF1E0E94D51F3F
:1004A0006B017C01AB0181E090E02AE030E06AE082
:1004B0004217530740F00196F9016E9F90016F9F1C
:1004C000300D1124F5CF41E02AE030E05AE0621609
:1004D000730640F04F5FB901569F9001579F300D52
:1004E0001124F5CF01E010E0A42EB12CA81AB90A0E
:1004F0000A151B0538F480E090E00E94B8010F5FF8
:100500001F4FF6CFC6010F900F90DF91CF911F9133
:100510000F91FF90EF90DF90CF90BF90AF909F90A2
:100520008F907F906F900C94B8010F900F90DF9197
:10053000CF911F910F91FF90EF90DF90CF90BF90E0
:10054000AF909F908F907F906F900895CF93DF939F
:10055000CDB7DEB761970FB6F894DEBF0FBECDBF43
:1005600040E1BE016F5F7F4F0E9441220E94500117
:1005700061960FB6F894DEBF0FBECDBFDF91CF916D
:100580000895CF92DF92EF92FF920F931F93CF9334
:10059000DF938C016B017A01C0E0D0E0CC15DD0562
:1005A00081F0E114F10411F08CE101C084E10E94BA
:1005B00047010115110519F0C8010E944900219653
:1005C000EDCFDF91CF911F910F91FF90EF90DF90D2
:1005D000CF900895CF92DF92EF92FF920F931F93E7
:1005E000CF93DF938C016B017A01C0E0D0E0CC1592
:1005F000DD0581F0E114F10411F088E101C080E132
:100600000E9447010115110519F0C8010E94490017
:100610002196EDCFDF91CF911F910F91FF90EF9039
:10062000DF90CF9008950F931F93CF93DF93EC014A
:100630008230910520F082309105D9F40FC080E816
:100640000E94470108E210E080E20E944A01015046
:10065000110901151105C1F7CD2B59F480EC0E9449
:100660004701C8E2D0E080E20E944A01219720972A
:10067000D1F7DF91CF911F910F91089583309105AC
:1006800089F030F48130910549F0029749F00895DE
:100690008430910549F0059749F008958CE007C032
:1006A00088E005C08EE003C08DE001C08FE00C94AF
:1006B0004701BC0180E89EE30E94D51E862F603171
:1006C00038F07727CB01409797FD01969595879550
:1006D00080B9089584EA86BF06B607FEFDCF089567
:1006E00084E986BF06B604FCFDCF089583B984E88B
:1006F00086BF06B607FEFDCF089520E4829FC001A5
:100700001124846886BF06B607FEFDCF83B1089525
:100710008EB5887F8EBD08958EB585608EBD089597
:100720008E98969A8EB58F7B8EBD1092550589B79F
:10073000806289BF10925605BC98C49A08951F9292
:100740000F920FB60F9211242F933F938F939F9385
:1007500086B597B52091480530914905821B930BCA
:1007600026B537B530934905209348052EB530E4BA
:1007700023272EBD8F31910510F010925505209141
:100780005505222319F021E02093470520915505B6
:10079000211111C010924605109245051092440592
:1007A0002EB520642EBD209155052F5F2093550551
:1007B00022E02093470520914705213009F05AC0D7
:1007C0009C012A5031092531310510F0109247055E
:1007D00020914705213009F04DC0429728F08091C3
:1007E00055058F5F80935505809155058230E8F15E
:1007F0008091550580FD39C0809145059091460551
:10080000880F991F90934605809345050EB406FE08
:1008100005C081609093460580934505809144050D
:100820008F5F809344058D3000F180914505909154
:100830004605282F2F73209354059C01207C377088
:10084000689415F8369527951694E1F7209353058B
:1008500088279870892F869586958695809352056E
:100860001092470581E080935605809155058F5F72
:100870008093550580914705811105C0109255055B
:100880008EB58F7B8EBD9F918F913F912F910F9051
:100890000FBE0F901F901895109256058FEF809302
:1008A000540580935305089586B382958F7091E027
:1008B0008927817090E00895CF93C82F8A3019F46A
:1008C0008DE00E945C045D9BFECFCCB9CF91089572
:1008D0005F9BFECF8CB1089561E08BEF0C94051AFD
:1008E00060E08BEF0C94051A8BEF0E94491A91E09F
:1008F000811101C090E0892F089590BD89B988E1E8
:100900008AB986E880BD08955F9B02C08CB10895C6
:1009100080E0089580E8089523E0969587952A95CC
:10092000E1F7089528E0829FC0011124089598E01E
:10093000899FB0011124E199FECF48E050E08DE796
:1009400095E00C948024CF9360E070E080E09FE31A
:100950000E94E90780917D051F928F9380917E050B
:100960001F928F9380917F051F928F9380918005B6
:100970001F928F93809181051F928F9380918305A1
:100980008F93809182058F9386ED90E09F938F9354
:100990000E94662280918405C4E66C2F0E94C91EC5
:1009A0002DB73EB7225F3F4F0FB6F8943EBF0FBE44
:1009B0002DBF992301F11F929F9382EF90E09F93A7
:1009C0008F930E946622809184056C2F0E94C91E1D
:1009D0000F900F900F900F90813019F482E091E00A
:1009E00004C0823041F48BE091E09F938F930E948A
:1009F00066220F900F908AE090E0CF910C947A22BB
:100A00000E94431D20918805822F992787FD90958C
:100A10009F932F9320917905822F992787FD909599
:100A20009F932F9320917805822F992787FD90958A
:100A30009F932F9320919305822F992787FD90955F
:100A40009F932F9320917A05822F992787FD909568
:100A50009F932F9380918A058F93809189058F931F
:100A600086E191E09F938F930E9466228DB79EB797
:100A70000E960FB6F8949EBF0FBE8DBF08958EEFF1
:100A80000E94F31A33E0969587953A95E1F7089519
:100A90008CEF0E94F31A43E0969587954A95E1F70B
:100AA0000895CF93C82F0E94480590E08C0F911DA8
:100AB0008038910510F080589109CF910C949704DB
:100AC000FF920F931F93CF93DF93F82E811109C0EC
:100AD00083E391E0DF91CF911F910F91FF900C94F0
:100AE000812281E080934D05C0E0D0E00FE311E06A
:100AF0008C2F21969C2F91509F1578F40E945105C0
:100B0000DF93CF931F930F930E9466220E94A3044A
:100B10000F900F900F900F90EBCFDF91CF911F911F
:100B20000F91FF90089584E491E09F938F930E942A
:100B300066220E9400050F900F9080E80C946005DB
:100B40008EEF0E94F31ABC018CEF0C94E11A8CEF2B
:100B50000E94F31A8130944068F48EEF0E94F31AD9
:100B60008130944038F48CEF0E94F31A8EEF0E948B
:100B7000F31A0DC060E070E08EEF0E94E11A0E944F
:100B8000A00560E070E08AE794E40E94E9078A9893
:100B9000929A8B98939A8D98959A8C98949AA298F9
:100BA000AA9AA398AB9AA498AC9AA598AD9AA6983D
:100BB000AE9AA798AF9A87E690E00E947D048EE6F1
:100BC00090E090939D0580939C0580E690E0909343
:100BD0009B0580939A050895CF930E944805C82FDE
:100BE0000E943F0591E0C81390E0892FCF910895AE
:100BF000CF930E944805C82F0E943F058C1740F4F0
:100C00000E943F05C82F0E94480590E89C0F06C02F
:100C10000E943F05C82F0E9448059C2F981B892FD2
:100C2000CF9108950E94EC05811110C086E591E0F6
:100C30009F938F930E9466220E9400050E94F805F0
:100C40000E9460050F900F900C94A00560E070E08A
:100C500080EA90E40C94E907CF93DF9390918805A4
:100C600090937D059091790590937E0590917805FC
:100C700090937F05909193059093800590917A05CC
:100C8000909381052091890530918A0530938305E1
:100C90002093820591E0960FE62FF0E0E959FA4F94
:100CA000208134E6239F900D11249093840598E0D1
:100CB000899FE0011124E199FECF48E050E0BE0198
:100CC0008DE795E00E949024BE01685F7F4F8FEF13
:100CD00093E0861B970B079744F460E070E08AEF7F
:100CE00093E40E94E90760E070E08EEFDF91CF911E
:100CF0000C94E11A0F931F93CF93DF930E94431D2F
:100D0000C7E6D5E010E08991882319F10E94E00739
:100D100085E090E00E9449000E943F058F3729F44A
:100D20000E9448058823F9F00FC00E944805082F4B
:100D30000E943F05202F30E090E0019628173907E8
:100D400019F411C00E9412060E943F05612F0E94F3
:100D50002C061F5F1A30B9F682E0DF91CF911F9108
:100D60000F910C94EE0780919005833059F760E065
:100D700070E88BE395E40E94E9070E946C04E9CFD8
:100D800010928E05829903C081E080938E05809138
:100D90008E05089510928E05839903C081E080939B
:100DA0008E0580918E05089510928E05859903C059
:100DB00081E080938E0580918E05089510928E05B6
:100DC000849903C081E080938E0580918E050895FB
:100DD00010928E059A9903C081E080938E058091D0
:100DE0008E05089510928E059B9903C081E0809333
:100DF0008E0580918E05089510928E059C9903C0F2
:100E000081E080938E0580918E05089510928E0565
:100E10009D9903C081E080938E0580918E05089591
:100E200010928E059E9903C081E080938E0580917B
:100E30008E05089510928E059F9903C081E08093DE
:100E40008E0580918E050895811102C00C94C00614
:100E5000813011F40C94CA06823011F40C94D4063B
:100E6000833011F40C94DE06843011F40C94E806FF
:100E7000853011F40C94F206863011F40C94FC06C3
:100E8000873011F40C940607883011F40C94100785
:100E9000893011F40C941A078FEF08951F93CF93A4
:100EA000DF93CCE5D5E010E0812F0E9424078993E1
:100EB0001F5F1A30C9F7DF91CF911F910895BF923C
:100EC000CF92DF92EF92FF920F931F93CF93DF9316
:100ED0005CE5E52E55E0F52EC7E6D5E0D12C00E027
:100EE00010E0CC24C39462E0B62E8D2D0E9424071E
:100EF000F7019081891741F0813011F4B88206C062
:100F0000811104C0C88202C0188202C001E010E052
:100F1000F70181937F01D3942196FAE0DF12E5CFA8
:100F2000012B29F00E947A0681E080934D05DF9124
:100F3000CF911F910F91FF90EF90DF90CF90BF90D6
:100F40000895CF93DF93C0E0D0E0E199FECF60E059
:100F5000CE010E94A0242196C11584E0D807A9F7EC
:100F6000DF91CF910C94A0052F923F9210925805DB
:100F700010925705809157059091580520917B0557
:100F800030917C0582179307C4F4D101ED91FC9157
:100F9000E80FF91F80810E944A0160E070E088E458
:100FA00092E40E945D00809157059091580501964A
:100FB0009093580580935705DDCF3F902F9008956B
:100FC000979A60E070E080E89FE30E945D00979848
:100FD0000895979A0E945D0097980895CF93DF93A4
:100FE0001F92CDB7DEB7811103C010924E0517C016
:100FF00089830E9477018981813041F460E070E04B
:1010000080E490E40E94E9078FEF07C0823039F452
:1010100080914E058F3F19F082E380934E050F902B
:10102000DF91CF9108950F931F93CF93DF932AE021
:1010300030E0C1E04AE08217930740F0CF5FB9018A
:10104000469F9001479F300D1124F5CF30935805EE
:1010500020935705909387058093860580E090E064
:101060000E94130310925805109257058C2F90E0A0
:10107000C7E2D0E0C81BD90B8C010D5F1F4F8091D8
:101080005705909158058C179D07FCF460E00E946D
:101090005C0180918605909187050E94B80161E00E
:1010A000809157050E945C0180918605909187058B
:1010B0000E94B8018091570590915805800F911FAB
:1010C0009093580580935705DACF60E070E08AEF7F
:1010D00093E40E945D000E944C0481E080934D05E2
:1010E000DF91CF911F910F91089520918605309146
:1010F00087054AE0429FC001439F900D1124893E1D
:1011000023E0920710F088EE93E090938705809398
:10111000860580918605909187050C94130880912F
:101120008605909187056AE070E00E94D51E6115E2
:10113000710529F0709387056093860506C081E0EC
:1011400090E0909387058093860580918605909125
:1011500087050C941308CF93DF93EC0110924D0593
:1011600080919005813009F466C00E9463018FE58B
:1011700091E00E945001CE010E94B80161E080E040
:101180000E945C01209719F489E691E022C0C130E9
:10119000D10519F488E791E01CC0C230D10519F4DB
:1011A00088E891E016C0C330D10519F481E991E0D7
:1011B00010C0C430D10519F48FE991E00AC0C530E0
:1011C000D10519F48FEA91E004C0269721F48EEB43
:1011D00091E00E945001109258051092570580919D
:1011E0005705909158050597B4F460E070E080EFE2
:1011F00091E40E945D0060E070E080EA90E40E946B
:10120000E9078091570590915805019690935805EC
:1012100080935705E4CF60E070E08AEF93E40E948A
:101220005D0041E050E06FE070E084E190E00E94FA
:10123000C1020E9463010E944C0481E080934D052D
:10124000DF91CF910895811103C08EEC91E01DC014
:10125000813019F481ED91E018C0823019F484EDE9
:1012600091E013C0833019F487ED91E00EC0843013
:1012700019F48AED91E009C0853019F48DED91E003
:1012800004C0863021F480EE91E00C945001089562
:1012900060E0809150050E945C01809178058A3061
:1012A00024F480E090E00E94B801809178059927AD
:1012B00087FD90950E94B80189EF91E00E9450014E
:1012C000809179058A3024F480E090E00E94B80192
:1012D00080917905992787FD90950E94B80189EF43
:1012E00091E00E945001809188058A3024F480E0CA
:1012F00090E00E94B80180918805992787FD90951C
:101300000E94B80189EF91E00E9450018091770519
:101310008A3024F480E090E00E94B8018091770543
:10132000992787FD90950C94B8010E94480961E0C7
:10133000809150050E945C01809193058A3024F4CD
:1013400080E090E00E94B80180919305992787FD85
:1013500090950E94B80189EF91E00E945001809120
:101360007A058A3024F480E090E00E94B8018091F0
:101370007A05992787FD90950E94B80189EF91E041
:101380000E9450018091890590918A050E94B801C0
:1013900083EE91E00E94500180918B050E94230909
:1013A00083EE91E00E945001809159058A3024F427
:1013B00080E090E00E94B80180915905992787FD4F
:1013C00090950C94B80160E0809150050E945C01FA
:1013D000809159058A3024F480E090E00E94B801A1
:1013E00080915905992787FD90950C94B801CF936A
:1013F000C82F81110E94480961E0809150050E9428
:101400005C01C230C1F580917A05811103C085EE7F
:1014100091E02EC010925805109257052091570563
:1014200030915805273031050CF580917A059927C0
:1014300087FD909502C0959587952A95E2F780FFE4
:101440000BC083EE91E00E9450018091570590916E
:10145000580501960E94B801809157059091580552
:1014600001969093580580935705D8CF83EE91E06D
:10147000CF910C945001C33019F5809193058A30B7
:1014800024F480E090E00E94B801809193059927B0
:1014900087FD90950E94B80189EF91E00E9450016C
:1014A00080917A058A3024F480E090E00E94B801AF
:1014B00080917A05992787FD9095CF910C94B8017A
:1014C000CF91089550918505523041F48091860561
:1014D0009091870591958195910909C0513029F422
:1014E000809186059091870502C080E090E0409150
:1014F00091054E3F31F490918F05981B90938F0585
:10150000089530915105363021F44F3F09F0E2C083
:10151000CFC020918F05222319F0343009F0C4C0C8
:1015200020917405309175054F3F09F4C5C04111F4
:1015300006C060917805680F6093780517C0413048
:1015400031F460917905680F609379050FC04230DE
:1015500031F460918805680F6093880507C04330B7
:1015600029F460917705680F60937705211531059F
:1015700019F02330310561F5443031F49091930531
:10158000980F909393050895453031F490917A0522
:10159000980F90937A050895232B09F09BC046304D
:1015A00059F42091890530918A05280F391F30930D
:1015B0008A05209389050895473031F490918B0571
:1015C000980F90938B050895483009F083C07DC033
:1015D0002230310509F07EC0443069F4513021F4E5
:1015E00080917A0581605DC0523009F073C08091AE
:1015F0007A058E7F56C0453069F4513021F48091D0
:101600007A0582604EC0523009F064C080917A053C
:101610008D7F47C0463069F4513021F480917A05BE
:1016200084603FC0523009F055C080917A058B7FAD
:1016300038C0473069F4513021F480917A058860D0
:1016400030C0523009F046C080917A05877F29C0AA
:10165000483061F4513021F480917A05806121C0D5
:101660005230C1F580917A058F7E1BC0493061F4FC
:10167000513021F480917A05806213C0523051F5C7
:1016800080917A058F7D0DC04A3021F5513021F4CB
:1016900080917A05806405C05230E1F480917A052A
:1016A0008F7B80937A0508952130A1F44F3F59F440
:1016B0002091740530917505281B390B3093750501
:1016C000209374050895411105C090915905980F14
:1016D000909359050895809191058E5F823050F462
:1016E0008091860590918705029720F081E090E037
:1016F0000E94130880918F05882329F0909151054D
:10170000943009F047C080919105843050F4809165
:101710008605909187050B9720F08AE090E00E9463
:1017200013088091740590917505009711F0039747
:10173000B9F5809191058450823050F480918605EE
:10174000909187050B9720F08AE090E00E941308A3
:101750008091740590917505892B11F58091910503
:10176000873051F48091860590918705029720F08B
:1017700081E090E00E94130880919105883081F407
:1017800080918605909187050B9750F08AE090E054
:101790000C941308813021F480919105882381F302
:1017A000089580915105843009F1853029F58091A3
:1017B0008F05811110C08091740590917505009777
:1017C000D9F081309105A1F08230910599F003970D
:1017D00099F486E00895813079F4809174059091B0
:1017E0007505009749F0019739F408C089E008951C
:1017F00084E008958BE0089580E0089581E00895E5
:10180000CF93DF9310924D0580E090E00E94130388
:1018100060E080E00E945C01C0919105CF3F19F427
:101820008DEE91E036C0D0915105D63071F40E9412
:10183000D10B2C2F332727FD309590E0281739073F
:1018400009F0B3C08BEF91E024C080918F0588230D
:1018500019F0D43009F08CC00E94D10B90E02C2FED
:10186000332727FD309528173907B1F48091740587
:1018700090917505892B59F4D43019F484E092E0E5
:1018800008C0D53009F091C085E192E002C085E240
:1018900092E00E94500189C0C11103C087EA91E023
:1018A0000EC0C13019F484E392E009C0C23019F4CB
:1018B0008BE392E004C0C33021F483E492E00E9401
:1018C00050018091740590917505009719F083304F
:1018D000910531F580919105843019F480E592E00D
:1018E00004C0853021F486E592E00E945001809189
:1018F000740590917505892B09F057C08091910569
:10190000863019F48EE592E0C4CF873019F482E670
:1019100092E0BFCF883009F048C081E792E0B9CFAC
:10192000029709F042C080919105843019F487E74D
:1019300092E0AFCF853019F484E892E0AACF8630E8
:1019400019F48BE892E0A5CF873019F481E992E091
:10195000A0CF883019F48AE992E09BCF893019F43E
:1019600081EA92E096CF8A3001F588EA92E091CF41
:101970008130D9F40E94D10B90E02C2F332727FD22
:1019800030952817390771F4809174059091750589
:10199000009719F482EB92E07CCF019731F482EC4E
:1019A00092E077CFCC2309F4B8CF80E991E00E9490
:1019B00049000E944C0481E080934D05DF91CF9156
:1019C0000895811103C081ED92E004C0813021F4BB
:1019D0008DED92E00C9450010895811103C08EEEBC
:1019E00092E004C0813021F48FEF92E00C9450011A
:1019F0000895811103C08FE093E004C0813021F489
:101A00008EE193E00C9450010895811103C08CE2A3
:101A100093E004C0813021F48AE393E00C945001F8
:101A20000895811103C087E493E01DC0813019F44B
:101A300082E593E018C0823019F482E693E013C087
:101A4000833019F48FE693E00EC0843019F48BE7ED
:101A500093E009C0853019F488E893E004C086302B
:101A600021F482E993E00C9450010895811103C0A0
:101A70008DE993E004C0813021F48CEA93E00C946A
:101A800050010895811103C08AEB93E004C08130B6
:101A900021F489EC93E00C9450010895811103C066
:101AA00087ED93E018C0813019F484EE93E013C001
:101AB000823019F481EF93E00EC0833019F48BEF7C
:101AC00093E009C0843019F488E094E004C08530C4
:101AD00021F487E194E00C9450010895811103C032
:101AE00086E294E004C0813021F485E394E00C9414
:101AF00050010895811103C083E494E00EC0813049
:101B000019F483E594E009C0823019F483E694E087
:101B100004C0833021F484E794E00C9450010895CC
:101B20008091780587FF04C087E18093780504C021
:101B3000883114F0109278058091790587FF04C0F0
:101B40008BE38093790504C08C3314F010927905EF
:101B50008091880587FF04C08BE38093880504C0CB
:101B60008C3314F0109288058091770587FF04C0AC
:101B700083E6809377050895843614F010927705F4
:101B8000089580917A05181644F08091740590911B
:101B90007505029769F08CE009C08D304CF080919A
:101BA000740590917505029719F081E080937A058C
:101BB00020917A05322F3D7F8091890590918A0589
:101BC0003130E9F02530D9F049EF420F4230B8F01A
:101BD0002A30A9F02C3099F0343099F0393089F05E
:101BE000223089F49C0123703327232B61F020914C
:101BF000740530917505232B31F42CE105C02FE1DC
:101C000003C02EE101C02DE140919305141644F468
:101C1000552747FD509530E0241735071CF421E087
:101C20002093930589312CEF92071CF48FE097E203
:101C300005C08031974234F089E19CEF90938A058A
:101C40008093890580918B0587FF04C086E080938F
:101C50008B0504C0873014F010928B0580915905D4
:101C600087FF04C083E6809359050895843614F0F5
:101C70001092590508951F93CF93DF930E94B801E6
:101C800088EE94E00E945001809182059091830536
:101C90000E94B80189EF91E00E9450018091810576
:101CA0008A3020F480E090E00E94B80180918105A4
:101CB00090E00E94B80189EF91E00E94500180916C
:101CC00080058A3020F480E090E00E94B801809185
:101CD000800590E00E94B80185E195E00E945001E6
:101CE00080917F058A3020F480E090E00E94B80166
:101CF00080917F0590E00E94B80189EF91E00E94F9
:101D0000500180917E058A3020F480E090E00E94AE
:101D1000B80180917E0590E00E94B80189EF91E0C2
:101D20000E94500180917D058A3020F480E090E08F
:101D30000E94B80180917D0590E00E94B80185E184
:101D400095E00E9450018091840514E6612F0E9465
:101D5000C91EC92FD0E0209721F185E894E00E94A8
:101D60005001CE010E94B80185E195E00E9450012A
:101D700080918405612F0E94C91E90E090935805C0
:101D8000809357058130910519F482E091E004C0F9
:101D9000029739F48BE091E0DF91CF911F910C9481
:101DA0005001DF91CF911F910895CF93DF93EC0104
:101DB00080915105833049F48C2F0E945105CE014A
:101DC0000196DF91CF910C943B0E8530F9F4809110
:101DD00091058E3F29F48C2FDF91CF910C94E10C6B
:101DE00090918F05911108C08F3F09F048C08C2F4A
:101DF000DF91CF910C947A0D913009F040C08F3F64
:101E0000F1F58C2FDF91CF910C946E0D8630B9F5E2
:101E1000809191058E3F29F48C2FDF91CF910C9406
:101E20004E0D8F3F61F580918F05811105C08C2F7C
:101E3000DF91CF910C94ED0C813029F48C2FDF9140
:101E4000CF910C94F90C823029F48C2FDF91CF9133
:101E50000C94050D833029F48C2FDF91CF910C94D5
:101E6000110D843029F48C2FDF91CF910C94360D15
:101E7000853029F48C2FDF91CF910C94420DDF91A6
:101E8000CF9108950F931F93CF93DF93EC018B01B4
:101E90006F3F8FEF780761F460E080E00E945C01A3
:101EA00083E391E0DF91CF911F910F910C9450014A
:101EB000CF3F8FEFD80761F461E080E00E945C01C2
:101EC000CE010196DF91CF911F910F910C94D50E09
:101ED00060E080E00E945C01CE010E94D50EC01738
:101EE000D10751F7DF91CF911F910F910895809104
:101EF000860590918705029720F081E090E00E948E
:101F0000130880914C0587301CF010924C0505C0D9
:101F100087FF03C086E080934C0580E090E00E943C
:101F2000130360E080E00E945C0189E894E00E9475
:101F3000500161E080E00E945C018AE994E00E9427
:101F4000500180914C05992787FD90950E94B8011A
:101F50008EE994E00C94500180E090E00E9413031D
:101F600060E080E00E945C018091540590E00E9456
:101F7000B80160E086E00E945C018091530590E02A
:101F80000E94B80161E080E00E945C0180915205EE
:101F900090E00C94B801109250050E94431D80E01F
:101FA00090E00E94130360E08BE00E945C0180914E
:101FB0004F05811103C08AE295E004C0813021F40D
:101FC00083EE91E00E9450010E9495098091910555
:101FD000811103C080915B0581110E94221D8091B7
:101FE00091058823F1F083E18093500560E081E161
:101FF0000E945C0183EE91E00E94500180915005A7
:1020000061E082500E945C0183EE91E00E945001E9
:1020100061E0809150050E945C01809191050E94D1
:10202000F70980915B058823B9F085E2809350051C
:1020300060E083E20E945C0183EE91E00E94500127
:102040008091500561E082500E945C0183EE91E036
:102050000E9450010E94E30960E08CE00E945C0154
:102060000E94F61D41E050E00C94D30180E090E026
:102070000E94130380918605909187050B9720F0AD
:102080008AE090E00E941308809174059091750594
:102090008F3F9F4F2CF40E94F80590E001970CC0F1
:1020A0000E94F80590E0209174053091750528177D
:1020B000390734F08FEF9FEF909375058093740587
:1020C0000E94F805682F70E06150710980917405D5
:1020D000909175050C94420F8F92AF92BF92CF9260
:1020E000EF920F938091910587FD109291050E94C8
:1020F0006B0B80918505882321F00E94620A109263
:10210000850580E090E00E9413030E94D10B20918E
:102110009105332727FD309590E02817390701F501
:10212000A0908905B0908A0580905905C0907A05E5
:10213000E0908B05009193052091770540918805EB
:1021400060917905809178050E949F1B10924D0542
:102150000E94630181E080935B0580937D0008C04D
:102160000E94900D0E94C10D109250050E94950989
:1021700080915B05813021F40E94000C10925B0578
:102180000F91EF90CF90BF90AF908F900895CF9226
:10219000EF920F93CF93809191058E3F1CF48EEFB9
:1021A000809391050E946B0B80918505882321F017
:1021B0000E94620A1092850580915B058130B1F41E
:1021C000209191052F3F29F480918F0587FF0EC044
:1021D00008C021110BC0809174059091750597FF7F
:1021E00005C021502093910510925B0580E090E09E
:1021F0000E941303C091910580918F05CE3F19F580
:102200008F3F14F481E003C082301CF08FEF809385
:102210008F050E94221D80918F05811103C00E94AD
:10222000541C04C0813039F40E94101D90E090933A
:1022300075058093740580918F0561E070E09927A2
:1022400087FD909576C0811156C0CF3FB1F4809143
:102250007405909175058F3F2FEF92071CF483E072
:1022600090E004C0049734F08FEF9FEF90937505D2
:102270008093740563E070E058C00E94D10B2C2F4E
:10228000332727FD309590E02817390731F08091EA
:10229000740590917505892B19F581E080937D0077
:1022A00080935B05C0905905E0907A0500919305F5
:1022B0002091770540918805609179058091780596
:1022C0000E94BF1C809174050E94431C809174057C
:1022D00090917505892B09F06AC00E94D11A67C0D8
:1022E0000E94900D0E94C10D1092500580917405BE
:1022F0000E94F7095CC0813009F059C0CF3FE1F47A
:1023000080917405909175058F3F2FEF92071CF413
:1023100081E090E004C0029734F08FEF9FEF90933C
:1023200075058093740561E070E08091740590916B
:1023300075050E94420F3BC00E94D10B2C2F332702
:1023400027FD309590E02817390731F0809174050A
:1023500090917505892B29F581E080937D0080930C
:102360005B05C0905905E0907A0500919305209196
:1023700077054091880560917905809178050E94E4
:10238000BF1C8091740590917505009729F40E94F7
:10239000051C0E94C11A0BC0019749F40E940D1C34
:1023A00006C00E94C10D109250050E94E309809161
:1023B0005B05813041F4809191058F3F24F00E94AC
:1023C000000C10925B05CF910F91EF90CF90089584
:1023D000CF93809191058E3F1CF48EEF80939105F1
:1023E0000E946B0B80918505882321F00E94620A70
:1023F0001092850580915B058130B1F420919105A3
:102400002F3F29F480918F0587FF0EC008C021114E
:102410000BC0809174059091750597FF05C0215000
:102420002093910510925B0580E090E00E941303D9
:10243000C0919105CE3FB9F580918F058F3F14F47F
:1024400085E003C086301CF08FEF80938F0580916C
:102450008F05811103C00E941C1D18C0813019F422
:102460000E94171D13C0823019F40E94811A0EC0F9
:10247000833019F40E94891A09C0843019F40E942B
:10248000251C04C0853039F40E943C1C90E09093D8
:1024900075058093740580918F0565E070E099273C
:1024A00087FD909523C0CF3FE9F580918F0583305C
:1024B00020F09CEF980F9230E0F480917405909199
:1024C00075058F3F2FEF92071CF481E090E004C068
:1024D000029734F08FEF9FEF90937505809374050A
:1024E00061E070E080917405909175050E94420F43
:1024F00082C0833009F07FC080917405909175058A
:102500008F3F2FEF92071CF486E090E004C00797FE
:1025100034F08FEF9FEF909375058093740566E01C
:1025200070E0E0CF0E94D10B2C2F332727FD309590
:1025300090E02817390709F05EC081E080937D00A4
:1025400080935B0580918F0581110FC08091740588
:1025500090917505009719F40E94D11A4CC001970B
:1025600009F049C00E94D91A46C0813071F48091A7
:10257000740590917505009719F40E94C11A3BC02B
:102580000197C9F50E94C91A36C0823071F4809152
:10259000740590917505009719F40E94711A2BC06B
:1025A000019749F50E94791A26C0833029F4809159
:1025B00074050E94911A1FC0843071F480917405D3
:1025C00090917505009719F40E94151C14C001978D
:1025D00091F40E941D1C0FC0853069F48091740530
:1025E00090917505009719F40E942C1C04C0019766
:1025F00011F40E94341C80915B05813041F480917C
:1026000091058F3F24F00E94000C10925B05CF9142
:10261000089580919005833081F480E090E00E94DD
:10262000130382EA94E00E94500161E080E00E947E
:102630005C0182EB94E00C94500180915105811172
:1026400002C00C94770F813011F40C94AC0F8230DF
:1026500011F40C94CB0F833011F40C9436108430A9
:1026600011F40C946C10853011F40C94C710863062
:1026700011F40C94E81108958B339105D9F58091EC
:102680004C058093510590E00E94AB088091510564
:10269000813009F441C0823049F40E94541C809377
:1026A00091050E94101D80935B0536C08330E9F0D0
:1026B000843071F410929105109275051092740592
:1026C00081E080935B05109285050E94431D24C024
:1026D0008550823008F58EEF8093910581E08093DC
:1026E0005B051092850510928F051092750510926A
:1026F000740512C08032910531F480914C0590919F
:102700008605890F07C0819739F480914C05909117
:102710008605891B80934C0581E080934D050895C3
:102720002F923F92AF92BF92CF92DF92EF92FF92A1
:102730000F931F93CF93DF93CDB7DEB7C055D10969
:102740000FB6F894DEBF0FBECDBF6C018932910584
:1027500009F0F7C10E94880310924D050E946301A1
:1027600088E290E090937C0580937B0580E5E4E827
:10277000F0E0DE01119601900D928A95E1F784E078
:1027800090E00E941A217C01109258051092570582
:1027900058E2B52E009157051091580502301105E9
:1027A000ACF580E590E00E941A21F801EE0FFF1FC2
:1027B000EE0DFF1D918380831092910540E0B09E45
:1027C0009001B19E300D1124542FE42FFF27E7FD17
:1027D000F0954F5FE832F10584F4DC01A50FB11DDF
:1027E00057FDBA95E20FF31F61E070E06C0F7D1F9B
:1027F000E60FF71F50815C93E7CF509391050F5F71
:102800001F4F1093580500935705C4CF10925805D9
:10281000109257058091570590915805883291057F
:1028200094F4D701ED91FC91E80FF91F80810E948B
:102830004A0180915705909158050196909358054B
:1028400080935705E7CF61E080E00E945C01109221
:102850005805109257058091570590915805883278
:102860009105A4F4D7011296ED91FC911397E80F0E
:10287000F91F80810E944A01809157059091580567
:1028800001969093580580935705E5CF88E290E034
:1028900090937C0580937B0581E0809391058091E6
:1028A0009105882309F41CC184E090E00E941A215C
:1028B0008C011092580510925705A0905705B090C2
:1028C0005805E2E0AE16B104BCF480917B0590910E
:1028D0007C05880F991F0E941A21F501EE0FFF1F3A
:1028E000E00FF11F91838083BFEFAB1ABB0AB09258
:1028F0005805A0925705E1CF0E946D01109258052E
:1029000010925705809157059091580520917B05AD
:1029100030917C05821793079CF4D801AD90BC9050
:10292000A80EB91E0E944D01F501808380915705C4
:102930009091580501969093580580935705E2CFE2
:1029400061E080E00E945C011092580510925705EA
:10295000809157059091580520917B0530917C0519
:1029600082179307ACF4D8011296AD90BC901397E0
:10297000A80EB91E0E944D01F50180838091570574
:102980009091580501969093580580935705E0CF94
:102990000E94630180917B0590917C054091910597
:1029A00020E030E0281739070CF5F801A081B1814B
:1029B000A20FB31FF701A080B180A20EB31E6C91CD
:1029C000D5015C9165130EC0F801A281B381A20FFD
:1029D000B31FF701A280B380A20EB31E6C91D50184
:1029E0005C91651340E02F5F3F4FDCCF4093910532
:1029F00030935805209357050E945404892B11F0F9
:102A00001092910580919105811105C01092580591
:102A10001092570548C010925805109257058091A2
:102A200057059091580520917B0530917C058217C0
:102A3000930794F4D801ED91FC91E80FF91F808180
:102A40000E944A01809157059091580501969093F4
:102A5000580580935705E3CF61E080E00E945C0158
:102A6000109258051092570580915705909158057E
:102A700020917B0530917C05821793073CF6D801A5
:102A80001296ED91FC911397E80FF91F80810E9437
:102A90004A018091570590915805019690935805E9
:102AA00080935705E1CFA0905705B0905805E2E01C
:102AB000AE16B1048CF4F501EE0FFF1FE00FF11F0D
:102AC000808191810E94B221BFEFAB1ABB0AB09204
:102AD0005805A0925705E7CFC8010E94B221DFCE6A
:102AE00010925805109257050091570510915805FE
:102AF0000230110584F4F801EE0FFF1FEE0DFF1DEB
:102B0000808191810E94B2210F5F1F4F1093580561
:102B100000935705E9CFC7010E94B2210E94E00748
:102B200060E070E080E291E40E945D000E94E007B6
:102B300060E070E080E291E40E945D000E94E007A6
:102B400058C18C30910509F056C10E94880310923B
:102B50004D050E94630184E090E00E943E0361E025
:102B600089E00E945C0180EC94E00E94500160E0EA
:102B700070E08AEF93E40E945D000E946D0187EC93
:102B800094E00E94500160E070E08AEF93E40E94BC
:102B90005D0041E050E061E070E080E090E00E9484
:102BA000C10260E070E08FE294E40E945D0082E088
:102BB00090E00E943E0360E070E08FE294E40E94A7
:102BC0005D0081E090E00E943E0360E070E08FE2F3
:102BD00094E40E945D0082E090E00E943E0360E089
:102BE00070E08FE294E40E945D0085E090E00E9436
:102BF0003E0360E070E08AE794E40E945D0084E0B8
:102C000090E00E943E0340E050E061E070E080E030
:102C100090E00E94C10260E070E08AE794E40E94C4
:102C20005D0040E050E061E070E080E090E00E94F4
:102C3000EA0283E090E00E943E0360E070E08AE7F1
:102C400094E40E945D0085E090E00E943E0361E014
:102C500080E00E945C0183ED94E00E94500160E0FE
:102C600070E88BEB94E40E945D0061E089E00E94D3
:102C70005C0186E090E090937C0580937B050E9448
:102C80001A219A83898310925805109257058091D2
:102C900057059091580520917B0530917C0582174E
:102CA0009307C4F409811A81080F191F0E944D016E
:102CB000D8018C9360E070E088EC92E40E945D00A3
:102CC00080915705909158050196909358058093EF
:102CD0005705DDCF41E050E061E070E080E090E03A
:102CE0000E94EA0260E070E88BEB94E40E945D00D1
:102CF00083E090E00E943E0380E090E00E94130396
:102D000060E070E88BEB94E40E945D0061E080E09D
:102D10000E945C01FE0131961F010E94B40784E00D
:102D200090E00E943E0360E089E00E945C010E9406
:102D3000B40761E088E00E945C0185E090E00E94B9
:102D40003E030E94B40760E081E00E945C010E94A3
:102D5000B40789819A810E94B22183E090E00E94A9
:102D60003E0360E070E88BEB94E40E945D0041E07C
:102D700050E06FE070E084E190E00E94C10241E029
:102D800050E06FE070E084E190E00E94EA0281E0B0
:102D900090E00E94130384E090E00E943E0360E014
:102DA00070E08AE794E40E945D0041E050E06FE04B
:102DB00070E084E190E00E94EA0241E050E06FE0C0
:102DC00070E084E190E00E94C10283E090E00E9404
:102DD0003E0382E090E00E94130360E070E08AEF1F
:102DE00093E40E945D000E94630181E090E00E94F4
:102DF0003E030E948C03C6010E943E030E940913F9
:102E0000C05BDF4F0FB6F894DEBF0FBECDBFDF91C2
:102E1000CF911F910F91FF90EF90DF90CF90BF90D7
:102E2000AF903F902F90089581E080934D050895D5
:102E30008C30910561F46130710569F50E94630180
:102E40008BED94E00E9450010E94A10724C08932BA
:102E5000910519F40E9493051EC08032910559F422
:102E600080917405909175052091860530918705B4
:102E7000821B930B0CC0819771F480917405909123
:102E800075052091860530918705820F931F9093D9
:102E900075058093740581E080934D050895803118
:102EA000910521F4809191058F5F06C081319105D4
:102EB00049F48091910581508093910581E0809340
:102EC0005B0512C08032910511F481E004C08132AB
:102ED000910521F482E08093850506C0CB9721F40B
:102EE0000E94D10B8093910581E080934D05089558
:102EF0008031910521F4809191058F5F06C0813169
:102F0000910549F48091910581508093910581E06C
:102F100080935B0512C08032910511F481E004C0FA
:102F20008132910521F482E08093850506C0CB971C
:102F300021F40E94D10B8093910581E080934D058F
:102F400008958031910521F4809191058F5F06C02D
:102F50008131910549F480919105815080939105CB
:102F600081E080935B0512C08032910511F481E00D
:102F700004C08132910521F482E08093850506C06A
:102F8000CB9721F40E94D10B8093910581E080932F
:102F90004D0508950F931F93CF93DF93EC018B01A1
:102FA0000E94E00780919005833019F410929005FB
:102FB000E3C080915105811105C0B801CE010E9486
:102FC0003C1328C0813029F4B801CE010E9490132F
:102FD00021C0823021F481E080934D051BC08330F5
:102FE00029F4B801CE010E94181714C0843029F4C6
:102FF000B801CE010E944F170DC0853029F4B801E9
:10300000CE010E94781706C0863021F4B801CE01A7
:103010000E94A117C632D10551F510924D050E94AC
:1030200063018AEE94E00E94500161E080E00E941A
:103030005C0186EF94E00E94500160E070E08AE756
:1030400093E40E945D0041E050E06FE070E084E1B5
:1030500090E00E94C10241E050E06FE070E084E146
:1030600090E00E94EA0281E080934D053FC0CF309E
:10307000D105C1F40115110531F410924E0582E01D
:103080000E94EE0733C00130110581F50E947701DF
:1030900060E070E080E490E40E94E9078FEF8093A5
:1030A0004E0524C0CE32D10549F441E050E061E044
:1030B00070E080E090E00E94C10227C0C232D105DA
:1030C00049F441E050E061E070E080E090E00E946F
:1030D000EA022DC0C432D10549F441E050E06FE06E
:1030E00070E084E190E00E94C1022BC0C332D105A0
:1030F00061F441E050E06FE070E084E190E0DF9146
:10310000CF911F910F910C94EA02CC32D10531F48A
:10311000DF91CF911F910F910C947508CD32D1059D
:1031200031F4DF91CF911F910F910C948F08CE3025
:10313000D10539F40130110531F581E080937D002E
:1031400022C0C436D105F9F480914F05813069F46D
:1031500010924F0560E070E08AEF93E40E94E90767
:103160000E94880310924E050EC081110CC081E0B0
:1031700080934F050E948C0382E0DF91CF911F91D5
:103180000F910C94EE07DF91CF911F910F9108954D
:103190000F931F93CF93DF9300D0CDB7DEB78C0191
:1031A00080914E0587FD07C082E069837A830E9483
:1031B000EE077A816981C8010F900F90DF91CF915E
:1031C0001F910F910C94CA17109258051092570531
:1031D00020917C0080915205223079F0332727FD21
:1031E000309590E02817390731F481E090E0909312
:1031F0005805809357058091520580937C0008956F
:10320000CF9380914D05813021F410924D050E949D
:10321000091380917105813009F06CC01092760518
:103220001092710580919005833031F40E94E0077F
:1032300082E00E94EE0740C0811116C080E095E058
:103240009F938F930E9466220E9400050E9474043F
:103250000F900F90813041F487E195E00E94812228
:103260000E9412060E94700482E0809390050E94E2
:103270008404893419F40E94930507C0893619F42F
:103280000E94120602C0882319F081E080934D0548
:103290000E941C1D813061F482E00E94EE070E94B2
:1032A000E0070E9412060E94D11A0E94C11A04C0AF
:1032B0000E94171D813081F3809151058450823026
:1032C00018F00E945F0702C00E944E0780915105CE
:1032D000823019F481E080934D0580914E051816D7
:1032E0001CF4815080934E0580914E05811102C0DF
:1032F0000E94B601C0917D00C130E1F410927D00C2
:1033000080915105809391051092510510924C05C2
:1033100081E090E0909387058093860560E070E0FF
:103320008BE390E00E94C8188091910580934C0532
:10333000C0934D050E945404892B91F08EE190E0DA
:103340000E9449000E945404892B51F060E070E013
:1033500084E690E00E94C81884E690E00E9449004C
:1033600080915605882391F08091530581110EC0FC
:103370000E94E4188091540560915705709158059A
:1033800090E00E94C818CF910C944C04CF910895FE
:10339000982F92959F708F702AE0929F800D112434
:1033A00008956AE00E94C91E292F30E1839FC00161
:1033B0001124822B0895EF92FF921F93CF93DF93F6
:1033C00000D0CDB7DEB7F82E162F49835A830E945E
:1033D0006A0380EA0E9476038F2D0E94760349815A
:1033E000E42E5A81F52E140F1E1531F0F70181914C
:1033F0007F010E947603F8CF0F900F90DF91CF915D
:103400001F91FF90EF900C947003CF93DF931F9266
:10341000CDB7DEB76983AE014F5F5F4F61E00E94B9
:10342000DB190F90DF91CF910895EF92FF921F93D8
:10343000CF93DF9300D0CDB7DEB7F82E162F498398
:103440005A830E946A0380EA0E9476038F2D0E94AD
:1034500076030E946A0381EA0E9476031150498133
:10346000E42E5A81F52E1F3F59F081E0111101C061
:1034700080E00E947D03F70181937F011150F3CF1B
:103480000F900F90DF91CF911F91FF90EF900C94D0
:103490007003CF93DF931F92CDB7DEB7AE014F5FBE
:1034A0005F4F61E00E94151A89810F90DF91CF91E3
:1034B000089580E00E94491A682F6F7C80E00E9486
:1034C000051A80E00E94491A682F646080E00E941B
:1034D000051A84E00E94491A682F6F7384E00C94E7
:1034E000051A80E00E94491A682F606880E00C94F9
:1034F000051A80E00E94491A682F6F7780E00C94CB
:10350000051A80E00E94491A8095881F8827881F25
:10351000089588E00E94491A8770873009F486E090
:103520000895CF93C82F863009F4C7E088E00E9441
:10353000491A6C2F6770887F682B88E0CF910C94B4
:10354000051A80E00E94491A682F6F7B80E00C9476
:10355000051A80E00E94491A682F606480E00C948C
:10356000051A80E00E94491A682F677F80E00C945A
:10357000051A80E00E94491A682F686080E00C9468
:10358000051A80E00E94491A682F6E7F80E00C9433
:10359000051A80E00E94491A682F616080E00C944F
:1035A000051A80E00E94491A682F6D7F80E00C9414
:1035B000051A80E00E94491A682F626080E00C942E
:1035C000051ACF93DF9300D0CDB7DEB769837A8336
:1035D000AE014F5F5F4F62E00E94DB190F900F90CA
:1035E000DF91CF910895CF93DF9300D0CDB7DEB7B1
:1035F000AE014F5F5F4F62E00E94151A89812A81F8
:1036000090E0922B0F900F90DF91CF9108952F9221
:103610003F924F925F926F927F928F929F92AF9262
:10362000BF92CF92DF92EF92FF920F931F93CF93AF
:10363000DF93CDB7DEB72B970FB6F894DEBF0FBE82
:10364000CDBF1C013B012A012A873B870E94B11A8A
:103650000E94A91AAE014F5F5F4F67E081E00E94B0
:10366000151A0E94A11A0E94B91AAE01485F5F4F55
:1036700062E080E10E94151A89810E94C8192A859A
:103680003B85F90180838A810E94C819F2018083F9
:103690008B810E94C819F30180838C810E94C81914
:1036A000F10180837D80872D8F730E94C819F801F6
:1036B00080831E81812F8F710E94C819F60180833B
:1036C000129516951770F7011083098510E0102FD9
:1036D00000278885082B98012370332772947694ED
:1036E000769493E07922872D90E02817390731F0FE
:1036F0000F5F1F4FB80180E10E94E11AF5011183AD
:1037000000838F810E94C819F40180832B960FB625
:10371000F894DEBF0FBECDBFDF91CF911F910F9107
:10372000FF90EF90DF90CF90BF90AF909F908F90E1
:103730007F906F905F904F903F902F9008958F9261
:10374000AF92BF92CF92EF92FF920F93CF93DF93FE
:10375000CDB7DEB72B970FB6F894DEBF0FBECDBF47
:10376000F82E822F4A876B870E94D11989834A8558
:10377000842F0E94D1198A836B85862F0E94D119CC
:103780008B838F2D0E94D1198C83802F0E94D11999
:103790009A2D9295990F990F907C982B9D838C2D43
:1037A0000E94D11990E2E99E700111248E298E8326
:1037B000A886B986882D0E94D1198F830E94811A0C
:1037C000082F0E94711AAE014F5F5F4F67E081E0E2
:1037D0000E94DB19AE01485F5F4F62E080E10E940A
:1037E000DB19013011F40E94791A2B960FB6F89468
:1037F000DEBF0FBECDBFDF91CF910F91FF90EF9055
:10380000CF90BF90AF908F90089588E00E94491AA2
:10381000682F6F7B88E00C94051A88E00E94491A93
:10382000682F606488E00C94051A88E00E94491AA9
:10383000682F6F7788E00C94051A88E00E94491A77
:10384000682F606888E00C94051A88E00E94491A85
:10385000881F8827881F089588E00E94491A682FCA
:10386000677F88E00C94051A88E00E94491A682F47
:10387000686088E00C94051A88E00E94491A83FB6E
:10388000882780F90895CF93C82F88E00E94491AAD
:10389000682F6F7C80E1C89F900111242073622BF8
:1038A00088E0CF910C94051A88E00E94491A807331
:1038B00082958F7008954F925F926F927F928F9250
:1038C0009F92AF92BF92CF92DF92EF92FF920F93AF
:1038D0001F93CF93DF93CDB7DEB727970FB6F8943A
:1038E000DEBF0FBECDBF5C014B013A012901AE0125
:1038F0004F5F5F4F67E089E00E94151A89810E943F
:10390000C819F20180838A810E94C819F30180835B
:103910008B810E94C819F40180838C810E94C81990
:10392000F50180838D810E94C819F80180830E946F
:10393000541C823019F48E818F7703C08E810E94CF
:10394000C819F70180838F810E94C819F60180830E
:1039500027960FB6F894DEBF0FBECDBFDF91CF9193
:103960001F910F91FF90EF90DF90CF90BF90AF909D
:103970009F908F907F906F905F904F900895CF921F
:10398000EF92FF920F931F93CF93DF93CDB7DEB7E4
:103990002A970FB6F894DEBF0FBECDBFF82E28874A
:1039A00049876A870E94541C182F2885822F0E94FD
:1039B000D11989834985842F0E94D1198A836A8508
:1039C000862F0E94D1198B838F2D0E94D1198C8351
:1039D000123019F48E2D8F7709C0133041F4802FE7
:1039E0000E94D1198D838E2D0E94D1198E838C2D2A
:1039F0000E94D1198F83AE014F5F5F4F67E089E06E
:103A00000E94DB192A960FB6F894DEBF0FBECDBF19
:103A1000DF91CF911F910F91FF90EF90CF9008957C
:103A200088E00E94491A86FB882780F9089580E083
:103A30000E94491A8170089580E00E94491A869573
:103A400081700895CF92DF92EF92FF920F931F93B0
:103A500029E5C22E25E0D22E3AE7E32E35E0F32EFB
:103A600003E915E027E735E048E855E069E775E048
:103A700088E795E00E945B1C1F910F91FF90EF90EB
:103A8000DF90CF9008958F929F92AF92BF92CF9286
:103A9000DF92EF92FF920F931F9349E5842E45E04A
:103AA000942E59E8A52E55E0B52E6AE7C62E65E09E
:103AB000D62E7BE8E72E75E0F72E03E915E027E721
:103AC00035E048E855E069E775E088E795E00E9451
:103AD000071B1F910F91FF90EF90DF90CF90BF9049
:103AE000AF909F908F900895882319F0D89AD09A1C
:103AF0000895D0980895D89899B3892F817090FF30
:103B000015C0D09A84EF91E00E945400D09886E4CA
:103B100090E00E94540084EF91E0C89904C00E9494
:103B2000540081E008950E94540080E00895CF93EE
:103B3000DF93D82FD898C8E0D09AD0FF08C087E08C
:103B400090E00E945400D09886E490E007C086E49C
:103B500090E00E945400D09887E090E00E945400CA
:103B6000D695C15049F7DF91CF9108950E947B1DF2
:103B7000882339F08CEC0E94971D84E40E94971DE5
:103B80008FEF0895CF93DF93D098D8E0C0E0D09A1C
:103B900087E090E00E945400D09887E090E00E9477
:103BA0005400C695C899C06886E490E00E9454000D
:103BB000D15069F78C2FDF91CF9108950E947B1D22
:103BC000882389F08CEC0E94971D8EEB0E94971D34
:103BD0000E94C21D80938C050E94C21D80938D059A
:103BE00081E090E0089580E090E008950E94B61D85
:103BF0008823F1F08CE895E00E94DE1D60918D0530
:103C000070E0762F662780918C05680F711D8827DC
:103C100077FD8095982F0E94032020E030E040E857
:103C20005DE30E94B72010928C0510928D050895D7
:103C300060E070E0CB01089585B5886085BD8AE0BD
:103C400083BD89B7806889BF0895B99ABA9ABB9A2B
:103C5000089585B5876085BD089585B58E7F85BD3E
:103C600008951F920F920FB60F9211248F939F9376
:103C700080917605843119F481E0809371059091EB
:103C80005A0580917205981710F0C29A01C0C19828
:103C900090915A0580916605981710F0C49A01C05A
:103CA000C29890915A0580919205981718F088B3A0
:103CB00088BB01C0C398809176058F5F809376059D
:103CC00080915A058F5F80935A059F918F910F9035
:103CD0000FBE0F901F9018958F9A88EE93E00E9468
:103CE00049000E94790184E690E00E9459030E94F5
:103CF000591A0E94D11A0E94C11A0E94251E1092C0
:103D000072058FEF80936605109292050E94F61D52
:103D10000E941C1E0E94291E0E9490030E94A7055B
:103D20000E948C0381E080934F05809390058CE284
:103D300095E00E9450018CED95E00E94490061E001
:103D400088E00E945C018AE395E00E94500188EEC1
:103D500093E00E94490041E050E06FE070E084E1B0
:103D600090E00E94C1020E9463010E94001982E05B
:103D700080934C0560E070E08BE390E00E94C818EF
:103D800083E0809390050E944E0778940E9400196A
:103D9000FDCF991B79E004C0991F961708F0961B78
:103DA000881F7A95C9F780950895AA1BBB1B51E11E
:103DB00007C0AA1FBB1FA617B70710F0A61BB70B9B
:103DC000881F991F5A95A9F780959095BC01CD0140
:103DD00008950E94F01EB7FF0895821B930B08956B
:103DE000A29FB001B39FC001A39F700D811D11243C
:103DF000911DB29F700D811D1124911D0895505881
:103E0000BB27AA270ED075C166D130F06BD120F048
:103E100031F49F3F11F41EF45BC10EF4E095E7FB13
:103E200051C1E92F77D180F3BA176207730784076E
:103E3000950718F071F49EF58FC10EF4E0950B2EE6
:103E4000BA2FA02D0B01B90190010C01CA01A001EC
:103E50001124FF27591B99F0593F50F4503E68F147
:103E60001A16F040A22F232F342F4427585FF3CF88
:103E7000469537952795A795F0405395C9F77EF459
:103E80001F16BA0B620B730B840BBAF09150A1F0A2
:103E9000FF0FBB1F661F771F881FC2F70EC0BA0F28
:103EA000621F731F841F48F4879577956795B795B0
:103EB000F7959E3F08F0B3CF9395880F08F09927A8
:103EC000EE0F979587950895D9D008F481E008956D
:103ED0000CD00FC107D140F0FED030F021F45F3F8D
:103EE00019F0F0C0511139C1F3C014D198F39923DE
:103EF000C9F35523B1F3951B550BBB27AA276217AE
:103F00007307840738F09F5F5F4F220F331F441FF2
:103F1000AA1FA9F333D00E2E3AF0E0E830D091502A
:103F20005040E695001CCAF729D0FE2F27D0660F17
:103F3000771F881FBB1F261737074807AB07B0E856
:103F400009F0BB0B802DBF01FF2793585F4F2AF06C
:103F50009E3F510568F0B6C000C15F3FECF3983E4C
:103F6000DCF3869577956795B795F7959F5FC9F7C9
:103F7000880F911D9695879597F90895E1E0660F52
:103F8000771F881FBB1F621773078407BA0720F0CB
:103F9000621B730B840BBA0BEE1F88F7E095089534
:103FA00004D06894B111D9C00895BCD088F09F574F
:103FB00090F0B92F9927B751A0F0D1F0660F771F75
:103FC000881F991F1AF0BA95C9F712C0B13081F055
:103FD000C3D0B1E00895C0C0672F782F8827B85F9D
:103FE00039F0B93FCCF3869577956795B395D9F7B6
:103FF0003EF490958095709561957F4F8F4F9F4FC0
:104000000895E89409C097FB3EF4909580957095CB
:1040100061957F4F8F4F9F4F9923A9F0F92F96E914
:10402000BB279395F695879577956795B795F11189
:10403000F8CFFAF4BB0F11F460FF1BC06F5F7F4F26
:104040008F4F9F4F16C0882311F096E911C0772338
:1040500021F09EE8872F762F05C0662371F096E841
:10406000862F70E060E02AF09A95660F771F881F10
:10407000DAF7880F9695879597F90895990F0008B4
:10408000550FAA0BE0E8FEEF16161706E807F9072A
:10409000C0F012161306E407F50798F0621B730BC5
:1040A000840B950B39F40A2661F0232B242B252B46
:1040B00021F408950A2609F4A140A6958FEF811DE9
:1040C000811D089597F99F6780E870E060E008958A
:1040D0009FEF80EC089500240A9416161706180620
:1040E0000906089500240A941216130614060506FC
:1040F0000895092E0394000C11F4882352F0BB0F8D
:1041000040F4BF2B11F460FF04C06F5F7F4F8F4FEF
:104110009F4F089557FD9058440F551F59F05F3F2A
:1041200071F04795880F97FB991F61F09F3F79F0D9
:1041300087950895121613061406551FF2CF46955B
:10414000F1DF08C0161617061806991FF1CF8695DD
:104150007105610508940895E894BB2766277727C1
:10416000CB0197F908958ADF08F48FEF08950BD0FB
:10417000C0CFB1DF28F0B6DF18F0952309F0A2CF49
:10418000A7CF1124EACFC6DFA0F3959FD1F3950FF7
:1041900050E0551F629FF001729FBB27F00DB11DCB
:1041A000639FAA27F00DB11DAA1F649F6627B00D5B
:1041B000A11D661F829F2227B00DA11D621F739F44
:1041C000B00DA11D621F839FA00D611D221F749F52
:1041D0003327A00D611D231F849F600D211D822F99
:1041E000762F6A2F11249F5750408AF0E1F08823E0
:1041F0004AF0EE0FFF1FBB1F661F771F881F9150ED
:104200005040A9F79E3F510570F05CCFA6CF5F3FAD
:10421000ECF3983EDCF3869577956795B795F7951F
:10422000E7959F5FC1F7FE2B880F911D96958795A7
:1042300097F90895CF93DF938230910510F482E0CF
:1042400090E0E0919805F091990520E030E0A0E041
:10425000B0E0309739F14081518148175907B8F0E3
:104260004817590771F482819381109729F01396AA
:104270009C938E9312972CC09093990580939805E8
:1042800027C02115310531F04217530718F0A90155
:10429000DB0101C0EF019A01BD01DF010280F38162
:1042A000E02DD7CF21153105F9F0281B390B24302B
:1042B000310580F48A819B816115710521F0FB0134
:1042C0009383828304C09093990580939805FE019F
:1042D000329644C0FE01E20FF31F81939193225066
:1042E0003109398328833AC020919605309197058A
:1042F000232B41F420918000309181003093970569
:104300002093960520917E0030917F002115310584
:1043100041F42DB73EB74091820050918300241B99
:10432000350BE0919605F0919705E217F307A0F49D
:104330002E1B3F0B2817390778F0AC014E5F5F4FFB
:104340002417350748F04E0F5F1F50939705409391
:1043500096058193919302C0E0E0F0E0CF01DF91F8
:10436000CF910895CF93DF93009709F487C0FC01A4
:10437000329713821282C0919805D09199052097A7
:1043800081F420813181280F391F80919605909109
:1043900097058217930779F5F0939705E0939605B3
:1043A0006DC0DE0120E030E0AE17BF0750F412967A
:1043B0004D915C9113979D014115510509F1DA0169
:1043C000F3CFB383A28340815181840F951F8A1755
:1043D0009B0771F48D919C911197840F951F029604
:1043E0009183808312968D919C91139793838283FE
:1043F0002115310529F4F0939905E09398053EC005
:10440000D9011396FC93EE9312974D915D91A40FF1
:10441000B51FEA17FB0779F480819181840F951FFE
:104420000296D90111969C938E9382819381139663
:104430009C938E931297E0E0F0E08A819B81009735
:1044400019F0FE01EC01F9CFCE01029628813981E5
:10445000820F931F209196053091970528173907F1
:1044600069F4309729F4109299051092980502C0CA
:1044700013821282D0939705C0939605DF91CF9156
:104480000895BB274A3031F4992322F4BDE2909578
:1044900081959F4F0C944D22BB27FB015527AA27DE
:1044A000880F991FAA1FA41710F0A41B83955051C1
:1044B000B9F7A05DAA3308F0A95DA193009779F739
:1044C000B111B1931192CB010C94C724A0E0B0E0DC
:1044D000ECE6F2E20C947725FE013596619171913C
:1044E000AF0180919C0590919D050E94AE22E2E073
:1044F0000C94932560919C0570919D050E94D72492
:1045000008950F931F93CF93DF93E0919C05F09153
:104510009D05238121FF1BC0EC0100E010E0899183
:1045200060919C0570919D05DB011896ED91FC91C1
:104530001997882331F00995892B89F30FEF1FEF25
:10454000EECF8AE00995892B11F4C80102C08FEFE4
:104550009FEFDF91CF911F910F910895ACE0B0E0F4
:10456000E4EBF2E20C9467257C016B018A01FC010B
:1045700017821682838181FFBDC1CE0101964C0155
:10458000F7019381F60193FD859193FF81916F016E
:10459000882309F4ABC1853239F493FD859193FFEB
:1045A00081916F01853229F4B70190E00E94D724F0
:1045B000E7CF512C312C20E02032A0F48B3269F06F
:1045C00030F4803259F0833269F420612CC08D328E
:1045D00039F0803339F4216026C02260246023C082
:1045E000286021C027FD27C030ED380F3A3078F41D
:1045F00026FF06C0FAE05F9E300D1124532E13C033
:104600008AE0389E300D1124332E20620CC08E3289
:1046100021F426FD6BC1206406C08C3611F420689D
:1046200002C0883641F4F60193FD859193FF819194
:104630006F018111C1CF982F9F7D9554933028F43D
:104640000C5F1F4FFFE3F9830DC0833631F08337D2
:1046500071F0833509F05BC022C0F8018081898345
:104660000E5F1F4F44244394512C540115C0380150
:10467000F2E06F0E711CF801A080B18026FF03C02C
:10468000652D70E002C06FEF7FEFC5012C870E949F
:10469000BC242C0183012C852F77222E17C03801D2
:1046A000F2E06F0E711CF801A080B18026FF03C0FC
:1046B000652D70E002C06FEF7FEFC5012C870E946F
:1046C000B1242C012C852068222E830123FC1BC0E1
:1046D000832D90E048165906B0F4B70180E290E0CF
:1046E0000E94D7243A94F4CFF50127FC859127FE48
:1046F00081915F01B70190E00E94D72431103A9474
:10470000F1E04F1A51084114510471F7E5C08436A5
:1047100011F0893639F5F80127FF07C060817181F2
:10472000828193810C5F1F4F08C06081718188274F
:1047300077FD8095982F0E5F1F4F2F76B22E97FF33
:1047400009C090958095709561957F4F8F4F9F4FD1
:104750002068B22E2AE030E0A4010E940925A82E8C
:10476000A81844C0853729F42F7EB22E2AE030E005
:1047700025C0F22FF97FBF2E8F36C1F018F488358F
:1047800079F0B4C0803719F0883721F0AFC02F2FEF
:104790002061B22EB4FE0DC08B2D8460B82E09C0EE
:1047A00024FF0AC09F2F9660B92E06C028E030E093
:1047B00005C020E130E002C020E132E0F801B7FEA0
:1047C00007C060817181828193810C5F1F4F06C099
:1047D0006081718180E090E00E5F1F4FA4010E9414
:1047E0000925A82EA818FB2DFF77BF2EB6FE0BC0FB
:1047F0002B2D2E7FA51450F4B4FE0AC0B2FC08C0C5
:104800002B2D2E7E05C07A2C2B2D03C07A2C01C0B7
:10481000752C24FF0DC0FE01EA0DF11D808180334F
:1048200011F4297E09C022FF06C07394739404C05A
:10483000822F867809F0739423FD13C020FF06C0F1
:104840005A2C731418F4530C5718732C731468F4FF
:10485000B70180E290E02C870E94D72473942C85C6
:10486000F5CF731410F4371801C0312C24FF12C097
:10487000B70180E390E02C870E94D7242C8522FF8B
:1048800017C021FF03C088E590E002C088E790E0F0
:10489000B7010CC0822F867859F021FD02C080E25A
:1048A00001C08BE227FD8DE2B70190E00E94D72482
:1048B000A51438F4B70180E390E00E94D7245A94FD
:1048C000F7CFAA94F401EA0DF11D8081B70190E0C1
:1048D0000E94D724A110F5CF332009F451CEB7019F
:1048E00080E290E00E94D7243A94F6CFF7018681C7
:1048F000978102C08FEF9FEF2C96E2E10C94832505
:10490000DC01CB01FC01E199FECF06C0FFBBEEBB91
:10491000E09A31960DB20D9241505040B8F708958B
:10492000DC01A40FB51F4150504048F0CB01840F6B
:10493000951F2E910E94A12441505040D0F7089518
:10494000262FE199FECF9FBB8EBBE09A01970DB257
:10495000021631F02DBB0FB6F894E29AE19A0FBE21
:104960000895FC010590615070400110D8F78095C2
:1049700090958E0F9F1F0895FC016150704001902B
:104980000110D8F7809590958E0F9F1F0895DC0138
:10499000FC01672F71917723E1F7329704C07C9176
:1049A0006D9370836291AE17BF07C8F308950F939C
:1049B0001F93CF93DF93182F092FEB018B8181FD7C
:1049C00003C08FEF9FEF20C082FF10C04E815F8138
:1049D0002C813D81421753077CF4E881F9819F01C6
:1049E0002F5F3F4F39832883108306C0E885F98500
:1049F000812F0995892B29F72E813F812F5F3F4F0A
:104A00003F832E83812F902FDF91CF911F910F91A4
:104A10000895FA01AA27283051F1203181F1E89454
:104A20006F936E7F6E5F7F4F8F4F9F4FAF4FB1E0A1
:104A30003ED0B4E03CD0670F781F891F9A1FA11D9C
:104A4000680F791F8A1F911DA11D6A0F711D811D9D
:104A5000911DA11D20D009F468943F912AE0269F62
:104A600011243019305D3193DEF6CF010895462FC1
:104A70004770405D4193B3E00FD0C9F7F6CF462FA2
:104A80004F70405D4A3318F0495D31FD405241930B
:104A900002D0A9F7EACFB4E0A695979587957795C8
:104AA0006795BA95C9F700976105710508959B014F
:104AB000AC010A2E06945795479537952795BA95D8
:104AC000C9F7620F731F841F951FA01D08952F92B1
:104AD0003F924F925F926F927F928F929F92AF928E
:104AE000BF92CF92DF92EF92FF920F931F93CF93DB
:104AF000DF93CDB7DEB7CA1BDB0B0FB6F894DEBF72
:104B00000FBECDBF09942A88398848885F846E8497
:104B10007D848C849B84AA84B984C884DF80EE80E1
:104B2000FD800C811B81AA81B981CE0FD11D0FB6EA
:104B3000F894DEBF0FBECDBFED010895F894FFCF0E
:104B400000000001000000000000680400000000F8
:104B50000002000000005C040000000002010000F0
:104B6000A005200041546D65676133322070726F7B
:104B70006772616D6162636465666768696A6B6CC0
:104B80006D6E6F7071727374757677784461726947
:104B900075737A204D2E2070726F6A2E797A3132B9
:104BA00033343536373839303938373635343332AF
:104BB00031214024060025643A253032643A2530FC
:104BC000326420253032643A253032643A2530325E
:104BD000640020535A41464B41204E523A202564EE
:104BE00020004F54574152434945005A414D4B4EC6
:104BF00049454349450025643A253032643A253019
:104C0000326420253032643A253032643A2530321D
:104C1000640A004272616B2064616E7963680025EA
:104C2000642E20005261706F727420617761727916
:104C30006A6E792E20005261706F72742E200050BF
:104C4000726F6772616D3A200050524F4752414D6A
:104C500020474C4F574E590050524F4752414D201C
:104C6000544553544F575900435A5557414E49459F
:104C70000044414E45202D20454550524F4D004E99
:104C800041535441574120474F445A494E59004ED1
:104C900041535441574120414C41524D55005553C9
:104CA00054415749454E494120464C414700506EBA
:104CB00000577400537200437A00507400536F0021
:104CC0004E64007C002D2D2D2D2D2D2D0057594289
:104CD0004945525A205354414E3A005A4150495383
:104CE000414E4F005A41504953414E4F20474F4487
:104CF0005A494E450057594C41435A4F4E4F204157
:104D00004C41524D005A41504953414E4F20414C65
:104D100041524D004D494E5554590053454B554E47
:104D20004459005345544E452053454B554E44007D
:104D3000445A49454E004D49455349414300524F5D
:104D40004B00445A49454E205459474F444E49411F
:104D50000054494D455200504F4E4945445A49412F
:104D60004C454B0057544F52454B0053524F444112
:104D700000435A57415254454B0050494154454B0A
:104D800000534F424F5441004E4945445A49454C07
:104D90004100414C41524D2054494D2E2057594C11
:104DA0002E00414C41524D2054494D2E20574C2E3F
:104DB00000557374617720616C61726D0055737476
:104DC000617720616C61726D2074696D2E00466C94
:104DD00061676120616C61726D75204F46460046C7
:104DE0006C61676120616C61726D75204F4E004689
:104DF0006C6167612074696D2E204F464600466CD9
:104E00006167612074696D2E204F4E0052657A6F84
:104E10006E61746F72204F46460052657A6F6E6104
:104E2000746F72204F4E0054696D65722073746FF9
:104E3000700054696D657220732E2073656B756EFA
:104E4000640054696D65722073656B756E640054FF
:104E5000696D6572206D696E75740054696D657257
:104E600020676F647A696E0054696D657220646EA4
:104E7000690054696D6572207465737400416C61DA
:104E8000726D20696E742E204F464600416C61722F
:104E90006D20696E742E204F4E0054696D6572202E
:104EA000696E742E204F46460054696D6572206904
:104EB0006E742E204F4E00466C61676120616C61FC
:104EC000726D7500466C6167612074696D65726111
:104ED0000052657A6F6E61746F72005472796279F4
:104EE0002054696D6572610050727A6572772E2068
:104EF000616C61726D750050727A6572772E2074E4
:104F0000696D65726100416C61726D2054696D2E2E
:104F1000204F464600416C61726D2054696D2E2011
:104F20004F4E00416C61726D2077796C61637A6FCE
:104F30006E7900416C61726D20636F647A69656E91
:104F40006E7900416C61726D207479676F646E696F
:104F50006F777900416C61726D206D696573696569
:104F6000637A6E79004E5220005779626965727AD1
:104F70002070726F6772616D3A003E3E3E003C3CAD
:104F80003C005370726177647A2070727A6563684E
:104F90002D007779747977616E69652055534200E9
:104FA000576974616A21004C4344204844343437C3
:104FB000383000437A7974616D3A00437A79737AB4
:104FC000637A656E69652E2E2E004E6120706F63C8
:104FD0007A6174656B00656B72616E752E2E2E00A2
:104FE0004B6F6E696563206F637A656B6977616E7D
:104FF00069612E2E2E200044616E65206E69656BFE
:105000006F6D706C65746E652121210041565220D0
:10501000494E53504543544F5200446172656B20D2
:045020004D2E000011
:040000050080007DFA
:00000001FF
