:100000000C942A000C9447000C9447000C94470071
:100010000C947A230C9447000C9452030C944700E0
:100020000C9447000C9447000C9447000C94470034
:100030000C9447000C94A8240C94DA240C944700E8
:100040000C9447000C9447000C9447000C94470014
:100050000C94470011241FBECFE5D8E0DEBFCDBF12
:1000600016E0A0E6B0E0E4E2F9E502C005900D92EA
:10007000AC30B107D9F726E0ACE0B6E001C01D9284
:10008000AF3AB207E1F70E9410250C94902C0C9423
:100090000000009741F0EFE9FFE03197F1F700C071
:1000A00000000197F6CF0895009731F025E02A95DA
:1000B000F1F700000197F8CF08958F929F92AF92C9
:1000C000BF92CF92DF92EF92FF924B015C0120E052
:1000D00030E04AE755E40E949E276B017C0120E056
:1000E00030E040E85FE30E944B2687FD24C020E01B
:1000F0003FEF4FE757E4C701B6010E949A27181651
:10010000ACF420E030E040E251E4C501B4010E94CB
:100110009E270E94BC2620E931E06115710581F01F
:10012000C9010197F1F761507109F7CFC701B60115
:100130000E94BC2602C061E070E0CB010197F1F79C
:10014000FF90EF90DF90CF90BF90AF909F908F90F7
:1001500008958F929F92AF92BF92CF92DF92EF92CB
:10016000FF924B015C012BEA3AEA4AEA50E40E9412
:100170009E276B017C0120E030E040E85FE30E94B5
:100180004B2687FD21C020E030E04FE753E4C70154
:10019000B6010E949A27181694F420E030E04AE74E
:1001A00054E4C501B4010E944F26FF90EF90DF9008
:1001B000CF90BF90AF909F908F900C945D00C7013F
:1001C000B6010E94BC2601C061E06A95F1F7FF907C
:1001D000EF90DF90CF90BF90AF909F908F90089559
:1001E00080912706811102C087E201C0815080936F
:1001F0002706089580912706873219F41092270662
:1002000008958F5F80932706089580FF02C0DC9ACF
:1002100001C0DC9881FF02C0DD9A01C0DD9882FF39
:1002200002C0DE9A01C0DE9883FF02C0DF9A089503
:10023000DF98089589B382958170CD998260CE99B7
:100240008460CF9988600895CF93DF93D498D59830
:10025000D698D798DA9ADB9A0E941A0190E1899F82
:10026000E0011124DB98DB9A0E941A01DB98E7EC8D
:10027000F0E03197F1F700C000008C2BDF91CF91B7
:100280000895D9980C942401CF93C82FD49AD59A65
:10029000D69AD79ADA98DB9A82958F700E940501D8
:1002A000DB98DB9A8C2F0E940501DB980E944101AC
:1002B00087FDFCCFCF910895D9980C944401D99A29
:1002C0000C944401D99A0C942401CF93DF93EC0150
:1002D0008991882319F00E945F01FACFDF91CF91B5
:1002E000089590E4699F800D112480680C945C014E
:1002F00082E00E945C018FE39FE10197F1F700C06B
:100300000000109227060895C09A0895CF93D49ABA
:10031000D59AD69AD79AD39AD19AD29A8FE59AEE4D
:100320000197F1F700C00000D998DB98DA98C3E094
:10033000DB9A83E00E940501DB988FE19EE4019740
:10034000F1F700C00000C15099F7DB9A82E00E94EB
:100350000501DB988FE99FE00197F1F700C00000ED
:1003600088E20E945C0188E00E945C0181E00E94BA
:100370005C0186E00E945C018CE00E945C01B89AFE
:100380000E94840110922706CF910895C098089585
:10039000CF93DF93CDB7DEB761970FB6F894DEBF8A
:1003A0000FBECDBF4AE0BE016F5F7F4F0E94332971
:1003B0000E94650161960FB6F894DEBF0FBECDBFF7
:1003C000DF91CF910895CF93DF93CDB7DEB76197DB
:1003D0000FB6F894DEBF0FBECDBF40E1BE016F5F28
:1003E0007F4F0E9433290E94650161960FB6F894F1
:1003F000DEBF0FBECDBFDF91CF910895CF92DF92C8
:10040000EF92FF920F931F93CF93DF938C016B01B9
:100410007A01C0E0D0E0CC15DD05A1F0E114F104D3
:1004200031F08CE10E945C010E94F00003C084E185
:100430000E945C010115110519F0C8010E944900D4
:100440002196E9CFDF91CF911F910F91FF90EF900F
:10045000DF90CF900895CF92DF92EF92FF920F93AB
:100460001F93CF93DF938C016B017A01C0E0D0E042
:10047000CC15DD05A1F0E114F10431F088E10E9412
:100480005C010E94FA0003C080E10E945C0101153A
:10049000110519F0C8010E9449002196E9CFDF91AA
:1004A000CF911F910F91FF90EF90DF90CF90089523
:1004B000CF93DF931F92CDB7DEB789830E94780177
:1004C0008981682F70E0843148F441E050E080E099
:1004D00090E00F90DF91CF910C942B0288E290E096
:1004E000861B970B41E050E0BC0180E090E00F904C
:1004F000DF91CF910C94FE0181E00E945C018FE3BB
:100500009FE10197F1F700C00000809127060C944D
:1005100058028330910589F030F48130910549F01B
:10052000029749F008958430910549F0059749F004
:1005300008958CE007C088E005C08EE003C08DE020
:1005400001C08FE00C945C01BC0180E89EE30E9436
:100550008225862F603138F07727CB01409797FDB1
:1005600001969595879580B9089584EA86BF06B669
:1005700007FEFDCF089584E986BF06B604FCFDCFD3
:10058000089583B984E886BF06B607FEFDCF0895B7
:1005900020E4829FC0011124846886BF06B607FE4E
:1005A000FDCF83B10895EF92FF921F93CF93DF9316
:1005B00000D000D0CDB7DEB7142F2B833C836A83E5
:1005C00089830E94B50289810E94C1026A81862FB7
:1005D0000E94C1022B81E22E3C81F32E120F1E15C8
:1005E00031F0F70181917F010E94C102F8CF0F9095
:1005F0000F900F900F90DF91CF911F91FF90EF9090
:100600000C94BB02EF92FF921F93CF93DF9300D025
:100610001F92CDB7DEB7F82E142F2A833B83698350
:100620000E94B5028F2D0E94C1026981862F0E940F
:10063000C1020E94B50281E08F0D0E94C1021150DB
:100640002A81E22E3B81F32E1F3F59F081E01111E8
:1006500001C080E00E94C802F70181937F01115020
:10066000F3CF0F900F900F90DF91CF911F91FF90DC
:10067000EF900C94BB028EB5887F8EBD08958EB529
:1006800085608EBD08958E98969A8EB58F7B8EBDAF
:1006900010922B0689B7806289BF10922C06BC98F5
:1006A000C49A08951F920F920FB60F9211242F93A0
:1006B0003F938F939F9386B597B520911006309105
:1006C0001106821B930B26B537B530931106209384
:1006D00010062EB530E423272EBD8F31910510F082
:1006E00010922B0620912B06222319F021E0209353
:1006F0000F0620912B06211111C010920E061092A8
:100700000D0610920C062EB520642EBD20912B06EE
:100710002F5F20932B0622E020930F0620910F06D7
:10072000213009F05AC09C012A5031092531310588
:1007300010F010920F0620910F06213009F04DC0E5
:10074000429728F080912B068F5F80932B06809133
:100750002B068230E8F180912B0680FD39C0809114
:100760000D0690910E06880F991F90930E068093A8
:100770000D060EB406FE05C0816090930E068093B0
:100780000D0680910C068F5F80930C068D3000F172
:1007900080910D0690910E06282F2F7320932A0624
:1007A0009C01207C3770689415F83695279516942F
:1007B000E1F72093290688279870892F86958695DA
:1007C00086958093280610920F0681E080932C0670
:1007D00080912B068F5F80932B0680910F068111ED
:1007E00005C010922B068EB58F7B8EBD9F918F9189
:1007F0003F912F910F900FBE0F901F9018958FEF84
:1008000080932906089586B382958F7091E0892799
:10081000817090E00895CF93C82F8BEF0E94F71E50
:1008200061E070E001C0660FCA95EAF7682B8BEFB4
:10083000CF910C94E51ECF93C82F8BEF0E94F71E2B
:1008400061E070E001C0660FCA95EAF76095682321
:100850008BEFCF910C94E51ECF93C82F8BEF0E94A6
:10086000F71E90E041E050E00C2E02C0440F551FEF
:100870000A94E2F78423952302C095958795CA953B
:10088000E2F7CF91089580E8089523E09695879543
:100890002A95E1F7089528E0829FC0011124089568
:1008A00098E0899FB0011124E199FECF48E050E023
:1008B0008AE596E00C94722BCF9360E070E080E0C4
:1008C0009FE30E94FA0A80915A061F928F938091AB
:1008D0005B061F928F9380915C061F928F9380918D
:1008E0005D061F928F9380915E061F928F93809179
:1008F00060068F9380915F068F9388E790E09F93C7
:100900008F930E94582980916106C4E66C2F0E9443
:1009100076252DB73EB7225F3F4F0FB6F8943EBF06
:100920000FBE2DBF992301F11F929F9386E990E09E
:100930009F938F930E945829809161066C2F0E948B
:1009400076250F900F900F900F90813019F486EA62
:1009500090E004C0823041F48FEA90E09F938F933F
:100960000E9458290F900F908AE090E0CF910C944C
:100970006C290E94E20A0E946E2220916506822F55
:10098000992787FD90959F932F9320915606822F4C
:10099000992787FD90959F932F9320915506822F3D
:1009A000992787FD90959F932F9320917406822F0E
:1009B000992787FD90959F932F9320915706822F1B
:1009C000992787FD90959F932F93809167068F932A
:1009D000809166068F938AEB90E09F938F930E949D
:1009E00058298DB79EB70E960FB6F8949EBF0FBECE
:1009F0008DBF089589ED90E09F938F930E945829B1
:100A00000E94B90460912D0670912E0680912F06E8
:100A10009091300642E00E94F709282F332727FDE6
:100A200030953F938F937F936F9388EE90E09F93E1
:100A30008F930E9458298DB79EB708960FB6F894E9
:100A40009EBF0FBE8DBF08958EEF0E949F1F33E0A3
:100A5000969587953A95E1F708958CEF0E949F1F30
:100A600043E0969587954A95E1F70895CF93C82F6F
:100A70000E942D0590E08C0F911D8038910510F09B
:100A800080589109CF910C945004FF920F931F93BB
:100A9000CF93DF93F82E811109C082E091E0DF91BE
:100AA000CF911F910F91FF900C94732981E0809357
:100AB0001506C0E0D0E00EE011E08C2F21969C2FAF
:100AC00091509F1578F40E943605DF93CF931F93C2
:100AD0000F930E9458290E945C040F900F900F9072
:100AE0000F90EBCFDF91CF911F910F91FF90089561
:100AF00085E191E09F938F930E9458290E94B90449
:100B00000F900F9080E80C9445058EEF0E949F1F78
:100B1000BC018CEF0C948B1F8CEF0E949F1F8130C7
:100B2000944068F48EEF0E949F1F8130944038F407
:100B30008CEF0E949F1F8EEF0E949F1F11C060E0EC
:100B400070E08EEF0E948B1F0E94850588E291E085
:100B50000E94732960E070E08AE794E40E94FA0A38
:100B60008A98929A8B98939A8D98959A8C98949A41
:100B7000A298AA9AA398AB9AA498AC9AA598AD9A71
:100B8000A698AE9AA798AF9A0895CF930E942D0584
:100B9000C82F0E94240591E0C81390E0892FCF91BF
:100BA0000895CF930E942D05C82F0E9424058C170D
:100BB00040F40E942405C82F0E942D0590E89C0F48
:100BC00006C00E942405C82F0E942D059C2F981B4B
:100BD000892FCF9108950E94C505811110C08AE424
:100BE00091E09F938F930E9458290E94B9040E941C
:100BF000D1050E9445050F900F900C94850560E08B
:100C000070E080EA90E40C94FA0ACF93DF9390911D
:100C1000650690935A069091560690935B069091C4
:100C2000550690935C069091740690935D069091A2
:100C3000570690935E0620916606309167063093C2
:100C4000600620935F0691E0960FE62FF0E0EF5BE1
:100C5000F94F208134E6239F900D11249093610673
:100C600098E0899FE0011124E199FECF48E050E02F
:100C7000BE018AE596E00E94822BBE01685F7F4F2D
:100C80008FEF93E0861B970B079744F460E070E0CA
:100C90008AEF93E40E94FA0A60E070E08EEFDF9141
:100CA000CF910C948B1FCF930E9424058F3731F482
:100CB0000E942D0591E0882389F00FC00E942D0528
:100CC000C82F0E9424054C2F50E0282F30E02F5FC2
:100CD0003F4F91E04217530709F090E0892FCF91E1
:100CE00008950E94C505811111C00E942D058F37FE
:100CF00019F460E070E007C00E942D058F5F98E056
:100D0000899FB00111248CEF0C948B1F08951F93C1
:100D1000CF93DF930E946E22C1E4D6E010E0899168
:100D20008823C1F00E945306813079F480916D06CA
:100D3000833049F460E070E08AEF94E40E94FA0A9C
:100D40000E94710602C00E94EB050E942405612FDB
:100D50000E9405061F5F1A3011F782E0DF91CF91E4
:100D60001F910C94090B80B382FB882780F90895AA
:100D700080B383FB882780F9089580B385FB88279B
:100D800080F9089580B382958170089583B382FBC2
:100D9000882780F9089583B383FB882780F9089515
:100DA00083B382958170089583B385FB882780F98A
:100DB000089583B386FB882780F90895811102C0C6
:100DC0000C94B306813011F40C94B806823011F4FF
:100DD0000C94BD06833011F40C94C206843011F4D7
:100DE0000C94C606853011F40C94CB06863011F4B1
:100DF0000C94D006873011F40C94D406883011F48A
:100E00000C94D906893029F483B3881F8827881F5A
:100E100008958FEF08951F93CF93DF93C6E3D6E035
:100E200010E0812F0E94DE0689931F5F1A30C9F7F8
:100E3000DF91CF911F910895BF92CF92DF92EF92F1
:100E4000FF920F931F93CF93DF9356E3E52E56E067
:100E5000F52EC1E4D6E0D12C00E010E0CC24C39400
:100E600062E0B62E8D2D0E94DE06F7019081891773
:100E700041F0813011F4B88206C0811104C0C882EB
:100E800002C0188202C001E010E0F70181937F01E7
:100E9000D3942196FAE0DF12E5CF012BA9F00E944E
:100EA000D50A0E94870660E070E086E993E40E941C
:100EB000FA0ADF91CF911F910F91FF90EF90DF9091
:100EC000CF90BF900C947A0ADF91CF911F910F9130
:100ED000FF90EF90DF90CF90BF90089583B3881F6D
:100EE0008827881F0895CF93DF93C0E0D0E0E19971
:100EF000FECF60E0CE010E94922B2196C11584E0C6
:100F0000D807A9F7DF91CF910C9485052F923F92D6
:100F1000109232061092310680913106909132067D
:100F2000209158063091590682179307C4F4D101D5
:100F3000ED91FC91E80FF91F80810E945F0160E054
:100F400070E088E492E40E945D0080913106909107
:100F5000320601969093320680933106DDCF3F90A2
:100F60002F900895FF920F931F93CF93DF93C8E2C2
:100F7000D0E0D0935906C0935806F09027068AE037
:100F800090E00E946C291092320610923106CF191F
:100F9000D109809131069091320660915806709186
:100FA000590686179707BCF48C0F9D1F0E94962543
:100FB00040971CF483E290E002C08CE290E00E9433
:100FC0006C298091310690913206019690933206F9
:100FD00080933106DECF8AE090E00E946C2984E0A5
:100FE00090E00E940128EC01109232061092310626
:100FF000009131061091320602301105B4F480914F
:10100000580690915906880F991F0E940128F801EF
:10101000EE0FFF1FEC0FFD1F918380830F5F1F4FAB
:101020001093320600933106E3CF0E9478011092AC
:10103000320610923106809131069091320620914D
:101040005806309159068217930794F40881198144
:10105000080F191F0E946201F801808380913106F8
:101060009091320601969093320680933106E3CF39
:1010700061E080E00E947101109232061092310608
:101080008091310690913206209158063091590690
:101090008217930794F40A811B81080F191F0E947D
:1010A0006201F801808380913106909132060196A9
:1010B0009093320680933106E3CF8F2D0E94580221
:1010C00010923206109231068091310690913206CC
:1010D0002091580630915906821793078CF4E881C5
:1010E000F981E80FF91F80810E94C12380913106A8
:1010F0009091320601969093320680933106E4CFA8
:101100008AE090E00E946C2910923206109231061B
:1011100080913106909132062091580630915906FF
:101120008217930794F4EA81FB81E80FF91F80810D
:101130000E94C12320913106309132062F5F3F4F2C
:101140003093320620933106E3CF8AE090E00E948C
:101150006C29109232061092310608E210E00F1945
:101160001109809131069091320660915806709174
:10117000590686179707BCF4800F911F0E94962589
:1011800040971CF483E290E002C087E290E00E9466
:101190006C29809131069091320601969093320627
:1011A00080933106DECF80E091E00E947329109297
:1011B000320610923106009131061091320602304B
:1011C000110584F4F801EE0FFF1FEC0FFD1F808165
:1011D00091810E9499280F5F1F4F10933206009350
:1011E0003106E9CFCE01DF91CF911F910F91FF9092
:1011F0000C9499284F925F926F927F928F929F9258
:10120000AF92BF92CF92DF92EF92FF924B015C01BF
:10121000E0E0F0E061E070E080E090E0E42EF12CAE
:10122000EE15FF0544F4AAE0B0E09B01AC010E947A
:10123000CC253196F5CFF0933206E09331060E942B
:10124000E8262B013C019B01AC01C501B4010E94C1
:101250009E276B017C0120E030E0A9010E944B2613
:1012600020E030E040E05FE387FF05C0C701B60142
:101270000E94E62504C0C701B6010E94E7250E942E
:10128000B7260E94EA26A30192010E944F26FF90F2
:10129000EF90DF90CF90BF90AF909F908F907F9016
:1012A0006F905F904F9008958F929F92AF92BF92F0
:1012B000CF92DF92EF92FF926B017C010E94EA26AF
:1012C0009F770E94B7264B015C01E1E0F0E02AE045
:1012D00030E040E050E082169306A406B50640F0E8
:1012E0003196AAE0B0E00E94CC259B01AC01F3CF7F
:1012F000F7FC31968E2FFF90EF90DF90CF90BF904C
:10130000AF909F908F900895EF92FF921F93CF938D
:10131000DF931F92CDB7DEB7F62E182FE42E60E0D4
:101320008091180679830E9471018F2D7981972F02
:101330000E94C80180E795E00E9465011092320684
:1013400010923106612F772767FD7095872F972FB1
:101350000E945409F12CE81AF108209131063091CD
:1013600032062E153F057CF489E595E00E94650163
:1013700020913106309132062F5F3F4F3093320675
:1013800020933106EACF812F992787FD90950F9002
:10139000DF91CF911F91FF90EF900C94C801CF92F5
:1013A000DF92EF92FF92CF93C82F882777FD809529
:1013B000982F0E94EA266B017C016C2F772767FD2E
:1013C0007095872F972F0E94EA2620E030E048ECA6
:1013D00052E40E944F269B01AC01C701B6010E9456
:1013E000E725CF91FF90EF90DF90CF9008956F9217
:1013F0007F928F929F92AF92BF92CF92DF92EF92A5
:10140000FF920F931F93CF93DF931F92CDB7DEB759
:10141000142F0E94FA086B017C014B015C01E894D7
:10142000B7F820E030E046E953E4C501B4010E947A
:101430009A27181624F400E010E080E04AC0412FFB
:10144000133008F042E0C701B60149830E94B72675
:101450008B01C501B4010E94BC264B015C0180E0F8
:1014600090E066246394712C498150E02AE084174F
:10147000950744F4B301269F3001279F700C112477
:101480000196F5CF9093320680933106B30180E048
:1014900090E00E94E8269B01AC01C701B6010E94C2
:1014A0009E276B017C01E894F7F8689CB001699C69
:1014B000700D789C700D112480E090E00E94E82669
:1014C0009B01AC01C701B6010E94E6250E94BC2623
:1014D000862FB8010F90DF91CF911F910F91FF9050
:1014E000EF90DF90CF90BF90AF909F908F907F90C4
:1014F0006F90089520911E0690EC920F90931E0617
:1015000080E4820F80934C0680911D06811105C0F6
:10151000209340069093720604C090934006209357
:101520007206903889F590911C06911102C091E0E5
:1015300003C0913019F492E090931C0690911C0620
:10154000913041F4811103C0109240060895109229
:1015500072060895923041F4811103C01092720610
:1015600010C0109240060DC0933071F410921C060A
:10157000811104C081E080931D06089510921D061C
:10158000089583E080931C0608958FEF80934C06A6
:101590001092400610927206089510924C068FEF3A
:1015A0008093400610927206089510924C06109295
:1015B00040068FEF809372060895109240061092B5
:1015C000720608958FEF80934C06809340068093B7
:1015D0007206089510924C06109240061092720600
:1015E0000895979A60E070E080E89FE30E945D00B4
:1015F00097980895979A0E945D009798089560E0E3
:1016000070E080E490E40E94FA0A8FEF809317065E
:101610000895CF93DF931F92CDB7DEB7811103C03A
:101620001092170614C089830E9484018981813039
:1016300029F40F90DF91CF910C94FF0A823039F496
:10164000809117068F3F19F082E3809317060F9061
:10165000DF91CF9108951F93CF93DF93EC01109109
:10166000270690936406809363060E9478010E9487
:101670007C0284E591E00E94650161E080E00E94C7
:101680007101CE010E94C8010E94B20760E070E0C3
:101690008AEF93E40E945D000E94FF03812FDF9197
:1016A000CF911F910C9458022091630630916406EB
:1016B0004AE0429FC001439F900D1124893E23E0E0
:1016C000920710F088EE93E090936406809363068F
:1016D00080916306909164060C942B0B80916306B5
:1016E000909164066AE070E00E94822561157105A0
:1016F00029F0709364066093630606C081E090E071
:1017000090936406809363068091630690916406CB
:101710000C942B0BCF93DF93EC0180916D068130FD
:1017200009F472C00E9478010E947C028AE591E06F
:101730000E946501CE010E94C80161E080E00E9424
:101740007101209719F484E691E028C0C130D105D9
:1017500019F483E791E022C0C230D10519F483E87F
:1017600091E01CC0C330D10519F48CE891E016C09B
:10177000C430D10519F48AE991E010C0C530D10513
:1017800019F48AEA91E00AC0C630D10519F489EB50
:1017900091E004C0279721F489EC91E00E94650153
:1017A0000E94B207109232061092310680913106E3
:1017B000909132060597B4F460E070E080EF91E418
:1017C0000E945D0060E070E080EA90E40E94FA0A06
:1017D0008091310690913206019690933206809363
:1017E0003106E4CF60E070E08AEF93E40E945D0090
:1017F00041E050E06FE070E084E190E00E94FE0183
:101800000E9478010E947C02DF91CF910C94FF032B
:10181000CF93DF93C82FD09127060E9478010E94B2
:101820007C028C2F0E942C04813041F5C13099F448
:1018300089ED91E00E94650161E080E00E94710104
:1018400085EE91E00E94650160E070E080E291E445
:101850000E94FA0A23C0C23019F482EF91E028C036
:10186000C330D9F581E092E00E9465010E94CD0A63
:101870000E943F0382E00E94090B2FC0C130A1F4F7
:1018800089ED91E00E94650161E080E00E947101B4
:101890008AE092E00E9465010E94F10A82E00E94C3
:1018A000090B0E94FA0419C0C23029F48AE192E0BF
:1018B0000E94650112C0C33081F48EE192E00E9463
:1018C00065010E94D50A60E070E08AEF93E40E940F
:1018D000FA0A0E943B03109217060E94B20760E0CA
:1018E00070E08AEF93E40E945D000E94FF038D2F59
:1018F0000E94580281E080931506DF91CF910895F0
:10190000811103C088E292E01DC0813019F48BE29E
:1019100092E018C0823019F48EE292E013C0833056
:1019200019F481E392E00EC0843019F484E392E06C
:1019300009C0853019F487E392E004C0863021F4B1
:101940008AE392E00C946501089560E080911806A6
:101950000E947101809155068A3024F480E090E065
:101960000E94C80180915506992787FD90950E9495
:10197000C8018DE492E00E946501809156068A308C
:1019800024F480E090E00E94C801809156069927D7
:1019900087FD90950E94C8018DE492E00E94650148
:1019A000809165068A3024F480E090E00E94C801AE
:1019B00080916506992787FD90950E94C8018DE466
:1019C00092E00E946501809153068A3024F480E001
:1019D00090E00E94C80180915306992787FD909559
:1019E0000C94C801CF93DF930E94A50C61E0809115
:1019F00018060E947101809174068A3024F480E0F8
:101A000090E00E94C80180917406992787FD909507
:101A10000E94C8018DE492E00E9465018091570602
:101A20008A3024F480E090E00E94C801809157063B
:101A3000992787FD90950E94C8018DE492E00E944D
:101A400065016091660670916706882777FD80952D
:101A5000982F0E945409853008F084E010923206D5
:101A600010923106C4E0D0E0C81BD1098091310644
:101A7000909132068C179D0774F48DE392E00E94DA
:101A8000650180913106909132060196909332065D
:101A900080933106EBCF80916606909167060E9495
:101AA000C8018FE392E00E946501809168060E9460
:101AB000800C8FE392E00E946501809133068A30AA
:101AC00024F480E090E00E94C801809133069927B9
:101AD00087FD9095DF91CF910C94C80160E08091D3
:101AE00018060E947101809133068A3024F480E048
:101AF00090E00E94C80180913306992787FD909558
:101B00000C94C801CF93C82F81110E94A50C61E0ED
:101B1000809118060E947101C230B1F51092320610
:101B200010923106809131069091320607973CF56C
:101B30008FE392E00E946501809131069091320618
:101B400020915706332727FD3095082E02C0359582
:101B500027950A94E2F720FF04C001960E94C8016D
:101B600004C08DE392E00E9465018091310690915E
:101B7000320601969093320680933106D3CF8FE3DD
:101B800092E0CF910C946501C33019F580917406F1
:101B90008A3024F480E090E00E94C80180917406AD
:101BA000992787FD90950E94C8018DE492E00E94DC
:101BB0006501809157068A3024F480E090E00E940D
:101BC000C80180915706992787FD9095CF910C9475
:101BD000C801CF91089550916206523041F480912E
:101BE00063069091640691958195910909C05130E1
:101BF00029F4809163069091640602C080E090E031
:101C000040916E064E3F31F490916C06981B909374
:101C10006C06089520911906263021F44F3F09F0F3
:101C200004C1ECC030916C06332331F02430F1F064
:101C3000273009F0DFC0F5C04F3F09F4DFC027307F
:101C4000C1F441110BC020916F0630917006280F2E
:101C5000391F3093700620936F062AC0413041F53A
:101C600020917106280F2093710622C04F3F09F47E
:101C7000C5C0411106C020915506280F2093550676
:101C800017C0413031F420915606280F2093560694
:101C90000FC0423031F420916506280F209365066D
:101CA00007C0433029F420915306280F2093530690
:101CB00020914E0630914F062115310519F0233041
:101CC000310561F5443031F490917406980F90938A
:101CD00074060895453031F490915706980F90930B
:101CE00057060895232B09F0A0C0463059F42091DF
:101CF000660630916706280F391F309367062093D8
:101D000066060895473031F490916806980F9093D5
:101D100068060895483009F088C07DC0223031053A
:101D200009F083C0443069F4513021F480915706A2
:101D300081605DC0523009F078C0809157068E7F77
:101D400056C0453069F4513021F4809157068260C5
:101D50004EC0523009F069C0809157068D7F47C050
:101D6000463069F4513021F48091570684603FC0B9
:101D7000523009F05AC0809157068B7F38C04730E7
:101D800069F4513021F480915706886030C0523098
:101D900009F04BC080915706877F29C0483061F415
:101DA000513021F480915706806121C05230E9F50D
:101DB000809157068F7E1BC0493061F4513021F469
:101DC00080915706806213C0523079F58091570692
:101DD0008F7D0DC04A3049F5513021F4809157066E
:101DE000806405C0523009F5809157068F7B80933F
:101DF000570608953130C9F44F3F59F420914E06EB
:101E000030914F06281B390B30934F0620934E0616
:101E1000089541110AC090913306980F90933306AC
:101E200008954F3F09F00DCFE9CF089580916E06D8
:101E30008E5F823050F48091630690916406029721
:101E400020F081E090E00E942B0B90916C06809135
:101E50001906992329F0843019F0873009F05BC006
:101E600090916E068730E1F491110BC0809163066A
:101E7000909164068536910520F084E690E00E94FA
:101E80002B0B80916E06813069F4809163069091EE
:101E900064060B9738F08AE090E00E942B0B02C09A
:101EA000943098F380914E0690914F06009711F070
:101EB0000397B9F580916E068450823050F480917A
:101EC0006306909164060B9720F08AE090E00E94F0
:101ED0002B0B80914E0690914F06892B11F5809126
:101EE0006E06873051F480916306909164060297E4
:101EF00020F081E090E00E942B0B80916E068830EC
:101F000081F480916306909164060B9750F08AE00B
:101F100090E00C942B0B913021F480916E06882375
:101F200081F3089580916E0687FD43C09091190654
:101F30009430B1F1953021F590916C06911112C059
:101F400020914E0630914F062115310579F121304F
:101F5000310541F12230310539F12330310549F5A0
:101F600086E00895913029F520914E0630914F0674
:101F700021153105D9F021303105D9F481E00895DA
:101F8000963059F490916C06963098F420914E0654
:101F900030914F0637FF0AC00895973049F00895F1
:101FA00089E0089584E008958BE0089580E0089525
:101FB00082E008951F93CF93DF93C09127060E947C
:101FC00078010E947C02D0916E06DF3F19F481E413
:101FD00092E044C010911906163081F40E94920FCD
:101FE0002D2F332727FD309590E02817390709F06A
:101FF000D4C00E9478018FE492E030C080916C06DA
:10200000882329F0143019F0173009F0A4C00E9479
:10201000920F282F30E04D2F552747FD509542173E
:102020005307F9F40E94780120914E0630914F0633
:10203000232B91F480911906873019F488E592E0FA
:102040000DC0843019F487E692E008C0853009F0AD
:10205000A4C088E792E002C088E892E00E9465018F
:102060009CC0173051F4D11103C087E992E018C029
:10207000D130C1F485EA92E013C0D11103C082EAE5
:1020800091E00EC0D13019F482EB92E009C0D23059
:1020900019F489EB92E004C0D33021F481EC92E092
:1020A0000E94650120914E0630914F0621153105A1
:1020B00019F02330310531F580916E06843019F422
:1020C0008EEC92E004C0853021F484ED92E00E9411
:1020D000650120914E0630914F06232B09F05DC01B
:1020E00080916E06863019F48CED92E0B7CF873080
:1020F00019F480EE92E0B2CF883009F04EC08FEE36
:1021000092E0ACCF2230310509F047C080916E06D5
:10211000843019F485EF92E0A1CF853019F482E084
:1021200093E09CCF863019F489E093E097CF873015
:1021300019F48FE093E092CF883019F488E193E0AE
:102140008DCF893019F48FE193E088CF8A3029F55B
:1021500086E293E083CF813001F50E94920F282F11
:1021600030E04D2F552747FD50954217530791F406
:102170000E94780120914E0630914F0621153105BD
:1021800019F480E393E06ACF2130310531F480E423
:1021900093E064CFDD2309F4B2CF0E94B20780E957
:1021A00091E00E9449000E94FF038C2FDF91CF91A4
:1021B0001F910C945802811103C08FE493E004C076
:1021C000813021F48BE593E00C9465010895811131
:1021D00003C08CE693E004C0813021F48DE793E0E6
:1021E0000C9465010895811103C08DE893E004C04B
:1021F000813021F48CE993E00C94650108958111FC
:1022000003C08AEA93E004C0813021F488EB93E0B4
:102210000C9465010895811103C085EC93E01DC005
:10222000813019F480ED93E018C0823019F480EE0B
:1022300093E013C0833019F48DEE93E00EC0843028
:1022400019F489EF93E009C0853019F486E094E031
:1022500004C0863021F480E194E00C946501089577
:10226000811103C08BE194E004C0813021F48AE243
:1022700094E00C9465010895811103C088E394E013
:1022800004C0813021F487E494E00C946501089542
:10229000811103C085E594E018C0813019F482E60D
:1022A00094E013C0823019F48FE694E00EC08330BE
:1022B00019F489E794E009C0843019F486E894E0C1
:1022C00004C0853021F485E994E00C9465010895FB
:1022D000811103C084EA94E004C0813021F483EBCF
:1022E00094E00C9465010895811103C081EC94E0A1
:1022F0000EC0813019F481ED94E009C0823019F4E8
:1023000081EE94E004C0833021F482EF94E00C94D9
:102310006501089580916F06909170068F3E2EEFB3
:1023200092071CF48CE291E005C08D32914034F0AC
:102330008FEE9EEF9093700680936F0680917106EA
:1023400087FF04C083E68093710604C0843614F0CE
:102350001092710680916F06909170068C3221E088
:10236000920719F41092710608958F3E9E4F39F42A
:102370008091710680311CF08FE080937106089582
:102380008091550687FF04C087E18093550604C0FD
:10239000883114F0109255068091560687FF04C0CC
:1023A0008BE38093560604C08C3314F010925606CB
:1023B0008091650687FF04C08BE38093650604C0A7
:1023C0008C3314F0109265068091530687FF04C089
:1023D00083E6809353060895843614F010925306D2
:1023E000089580915706181644F080914E069091FA
:1023F0004F06029769F08CE009C08D304CF0809157
:102400004E0690914F06029719F081E0809357068F
:1024100020915706322F3D7F809166069091670686
:102420003130E9F02530D9F049EF420F4230B8F0B1
:102430002A30A9F02C3099F0343099F0393089F0F5
:10244000223089F49C0123703327232B61F02091E3
:102450004E0630914F06232B31F42CE105C02FE1BD
:1024600003C02EE101C02DE140917406141644F41E
:10247000552747FD509530E0241735071CF421E01F
:102480002093740689312CEF92071CF48FE097E2B9
:1024900005C08031974234F089E19CEF9093670644
:1024A000809366068091680687FF04C086E080936B
:1024B000680604C0873014F01092680680913306D5
:1024C00087FF04C083E6809333060895843614F0B2
:1024D000109233060895EF92FF920F931F93CF93BC
:1024E000DF930E94C80180E795E00E946501109289
:1024F00032061092310604E010E0E0903106F090D0
:102500003206C0915F06D0916006BE01882777FD34
:102510008095982F0E9454099801281B3109E216D2
:10252000F30674F48DE392E00E9465018091310618
:102530009091320601969093320680933106DDCF5A
:10254000CE010E94C8018DE492E00E946501809155
:102550005E068A3020F480E090E00E94C8018091FD
:102560005E0690E00E94C8018DE492E00E94650141
:1025700080915D068A3020F480E090E00E94C801DE
:1025800080915D0690E00E94C80185EC95E00E9474
:10259000650180915C068A3020F480E090E00E9422
:1025A000C80180915C0690E00E94C8018DE492E031
:1025B0000E94650180915B068A3020F480E090E003
:1025C0000E94C80180915B0690E00E94C8018DE4E2
:1025D00092E00E94650180915A068A3020F480E0E2
:1025E00090E00E94C80180915A0690E00E94C801C4
:1025F00085EC95E00E9465018091610614E6612FEB
:102600000E947625C92FD0E0209739F183E095E02C
:102610000E946501CE010E94C80185EC95E00E94F0
:10262000650180916106612F0E94762590E090936C
:102630003206809331068130910519F486EA90E0E4
:1026400004C0029751F48FEA90E0DF91CF911F917F
:102650000F91FF90EF900C946501DF91CF911F9146
:102660000F91FF90EF900895CF93DF93EC0180914D
:102670001906833049F48C2F0E943605CE0101964D
:10268000DF91CF910C946B128530F9F480916E0636
:102690008E3F29F48C2FDF91CF910C94DB10909119
:1026A0006C06911108C08F3F09F048C08C2FDF9154
:1026B000CF910C947411913009F040C08F3FF1F527
:1026C0008C2FDF91CF910C9468118630B9F58091F1
:1026D0006E068E3F29F48C2FDF91CF910C94481118
:1026E0008F3F61F580916C06811105C08C2FDF91C1
:1026F000CF910C94E710813029F48C2FDF91CF918A
:102700000C94F310823029F48C2FDF91CF910C942C
:10271000FF10833029F48C2FDF91CF910C940B1193
:10272000843029F48C2FDF91CF910C9430118530B7
:1027300029F48C2FDF91CF910C943C11DF91CF9134
:1027400008950F931F93CF93DF93EC018B016F3F9D
:102750008FEF780761F460E080E00E94710182E011
:1027600091E0DF91CF911F910F910C946501CF3FC4
:102770008FEFD80761F461E080E00E947101CE0123
:102780000196DF91CF911F910F910C94341360E06B
:1027900080E00E947101CE010E94341380912706CF
:1027A00090E00F9668E270E00E94962560E00E943B
:1027B00071018EE195E00E946501C017D107D9F63D
:1027C000DF91CF911F910F910895809163069091B1
:1027D0006406029720F081E090E00E942B0B80912C
:1027E000140688301CF01092140605C087FF03C041
:1027F00087E0809314060E947C0287E095E00E94A7
:10280000650161E084E00E94710188E195E00E9429
:10281000650180911406992787FD90950E94C80153
:102820008CE195E00C9465010E947C0280912A065F
:1028300090E00E94C80160E086E00E9471018091F2
:10284000290690E00E94C80161E080E00E947101C9
:102850008091280690E00C94C801109218060E94FE
:102860006E220E947C0260E08BE00E94710183E096
:102870000E942C04811103C080EF91E002C08FE31D
:1028800092E00E9465010E94F20C80916E06811117
:1028900003C08091350681110E94452280916E0609
:1028A0008823F1F083E18093180660E081E10E94C3
:1028B00071018FE392E00E9465018091180661E04A
:1028C00082500E9471018FE392E00E94650161E0F5
:1028D000809118060E94710180916E060E94820DFF
:1028E000809135068823B9F085E28093180660E070
:1028F00083E20E9471018FE392E00E946501809162
:10290000180661E082500E9471018FE392E00E94FC
:1029100065010E946E0D8CE08093180660912D0673
:1029200070912E0680912F069091300641E00E9412
:10293000F70941E00E94840908950E947C02809179
:102940006306909164060B9720F08AE090E00E9465
:102950002B0B80914E0690914F068F3F9F4F2CF48A
:102960000E94D10590E001970CC00E94D10590E033
:1029700020914E0630914F062817390734F08FEF1B
:102980009FEF90934F0680934E060E94D105682FCB
:1029900070E06150710980914E0690914F060C9441
:1029A000A1138F92AF92BF92CF92EF920F9380912B
:1029B00035068130A1F41092350680916E0687FDB0
:1029C00010926E060E94920F20916E06332727FD0B
:1029D000309590E02817390711F00E94DA0F0E9415
:1029E000160F80916206882321F00E94EB0D109251
:1029F00062060E94920F20916E06332727FD3095C4
:102A000090E028173907F9F4A0906606B0906706A1
:102A1000809173068F9380903306C0905706E090A4
:102A200068060091740620915306409165066091F6
:102A30005606809155060E94562081E08093350607
:102A4000809361000F900E947C020E94C0110E943E
:102A5000F111109218060F91EF90CF90BF90AF90A8
:102A60008F900C94F20CAF92CF92EF920F93CF9382
:102A700080913506813061F51092350680916E06A1
:102A80008E3F1CF48EEF80936E06C0916E06CF3F92
:102A900029F480916C0687FF0FC008C0C1110AC0DD
:102AA00080914E0690914F0697FF06C0C150C0938B
:102AB0006E060EC0CF3F64F00E94920F2C2F33277A
:102AC00027FD309590E02817390711F00E94DA0FA2
:102AD0000E94160F80916206882321F00E94EB0D60
:102AE000109262060E947C02C0916E0680916C0674
:102AF000CE3F19F58F3F14F481E003C082301CF003
:102B00008FEF80936C060E94452280916C068111A4
:102B100003C00E94592104C0813039F40E9433223D
:102B200090E090934F0680934E0680916C0661E092
:102B300070E0992787FD90951DC0811164C0CF3F3B
:102B400001F580914E0690914F068F3F2FEF92072F
:102B50001CF483E090E004C0049734F08FEF9FEF03
:102B600090934F0680934E0663E070E080914E068E
:102B700090914F06CF910F91EF90CF90AF900C9422
:102B8000A1130E94920F2C2F332727FD309590E040
:102B90002817390731F080914E0690914F06892B06
:102BA00019F581E08093610080933506A09073064B
:102BB000C0903306E09057060091740620915306AA
:102BC0004091650660915606809155060E94D0217D
:102BD00080914E060E94482180914E0690914F06AA
:102BE000892B11F40E947B1F0E94C0110E94F111D9
:102BF0001092180680914E06CF910F91EF90CF90D2
:102C0000AF900C94820D813009F059C0CF3FB1F4E0
:102C100080914E0690914F068F3F2FEF92071CF444
:102C200081E090E004C0029734F08FEF9FEF909323
:102C30004F0680934E0661E070E098CF0E94920F9D
:102C40002C2F332727FD309590E02817390731F0D6
:102C500080914E0690914F06892B31F581E080934B
:102C6000610080933506A0907306C0903306E09013
:102C700057060091740620915306409165066091B5
:102C80005606809155060E94D02180914E06909163
:102C90004F06009729F40E94D1200E946B1F04C0A8
:102CA000019711F40E94D9200E94F1111092180688
:102CB000CF910F91EF90CF90AF900C946E0DCF917C
:102CC0000F91EF90CF90AF900895CF9380913506FC
:102CD000813061F51092350680916E068E3F1CF4AE
:102CE0008EEF80936E06C0916E06CF3F29F48091DF
:102CF0006C0687FF0FC008C0C1110AC080914E0644
:102D000090914F0697FF06C0C150C0936E060EC04B
:102D1000CF3F64F00E94920F2C2F332727FD309570
:102D200090E02817390711F00E94DA0F0E94160F61
:102D300080916206882321F00E94EB0D10926206BA
:102D40000E947C02C0916E06CE3FB9F580916C0660
:102D50008F3F14F485E003C086301CF08FEF809322
:102D60006C0680916C06811103C00E943F2218C03E
:102D7000813019F40E943A2213C0823019F40E9463
:102D80002B1F0EC0833019F40E94331F09C08430FA
:102D900019F40E94F12004C0853039F40E94082102
:102DA00090E090934F0680934E0680916C0665E00C
:102DB00070E0992787FD909523C0CF3FE9F580917A
:102DC0006C06833020F09CEF980F9230E0F48091F5
:102DD0004E0690914F068F3F2FEF92071CF481E033
:102DE00090E004C0029734F08FEF9FEF90934F066E
:102DF00080934E0661E070E080914E0690914F0600
:102E0000CF910C94A113833009F080C080914E06BD
:102E100090914F068F3F2FEF92071CF486E090E0D1
:102E200004C0079734F08FEF9FEF90934F06809385
:102E30004E0666E070E0E0CF0E94920F2C2F332701
:102E400027FD309590E02817390709F05FC081E031
:102E5000809361008093350680916C0681110FC0CC
:102E600080914E0690914F06009719F4CF910C94E3
:102E70007B1F019709F04AC0CF910C94831F8130CA
:102E800071F480914E0690914F06009719F4CF91FE
:102E90000C946B1F0197D1F5CF910C94731F823066
:102EA00071F480914E0690914F06009719F4CF91DE
:102EB0000C941B1F019751F5CF910C94231F833065
:102EC00029F480914E06CF910C943B1F843071F40D
:102ED00080914E0690914F06009719F4CF910C9473
:102EE000E120019799F4CF910C94E920853071F499
:102EF00080914E0690914F06009719F4CF910C9453
:102F0000F820019719F4CF910C940021CF910895E6
:102F1000809135068130A1F41092350680916E06BD
:102F200087FD10926E060E94920F20916E06332745
:102F300027FD309590E02817390711F00E94DA0F2D
:102F40000E94160F80916206882321F00E94EB0DEB
:102F5000109262060E947C020E94920F20916E06DF
:102F6000332727FD309590E02817390769F40E9430
:102F7000191F2FE636E043E068EF0E94D30281E09C
:102F800080933506809361000E948A111092180682
:102F900060916F06709170068091710642E00C940A
:102FA000840980916D06833001F580E00E942C0435
:102FB000813071F40E947C0280E295E00E946501FC
:102FC00061E080E00E94710180E395E00C9465016E
:102FD00080E00E942C0481112AC00E947C0280E4BF
:102FE00095E00E9465010C94CD0A8091190681112B
:102FF00002C00C94E513813011F40C941414823047
:1030000011F40C942D14833011F40C949D1484301D
:1030100011F40C94D114853011F40C9433158630CE
:1030200011F40C946516873011F40C9488170895E8
:103030008B33910509F052C08091140680931906D4
:1030400090E00E948A0B80911906813009F458C0E3
:10305000823049F40E94592180936E060E943322E7
:10306000809335064DC08330F1F0843071F41092B6
:103070006E0610924F0610924E0681E08093350640
:10308000109262060E946E223BC09BEF980F923016
:1030900078F48EEF80936E0681E08093350610926F
:1030A000620610926C0610924F0610924E0628C0CF
:1030B000873031F510926E0610924F0610924E0630
:1030C00081E080933506109262060E94191F2FE658
:1030D00036E043E068EF0E94020312C0803291059F
:1030E00031F48091140690916306890F07C081978F
:1030F00039F48091140690916306891B809314061D
:1031000081E08093150608952F923F92EF92FF92EF
:103110000F931F93CF93DF9300D0CDB7DEB78C0111
:103120008C30910509F03AC10E943B030E947C0259
:1031300084E090E00E94890261E089E00E947101D0
:1031400088E495E00E94650160E070E08AEF93E416
:103150000E945D000E9478018FE495E00E94650165
:1031600060E070E08AEF93E40E945D0041E050E08F
:1031700061E070E080E090E00E94FE0160E070E0BD
:103180008FE294E40E945D0082E090E00E94890258
:1031900060E070E08FE294E40E945D0081E090E0E6
:1031A0000E94890260E070E08FE294E40E945D007A
:1031B00082E090E00E94890260E070E08FE294E497
:1031C0000E945D0085E090E00E94890260E070E06E
:1031D0008AE794E40E945D0084E090E00E94890206
:1031E00040E050E061E070E080E090E00E94FE018D
:1031F00060E070E08AE794E40E945D0040E050E007
:1032000061E070E080E090E00E942B0283E090E0BB
:103210000E94890260E070E08AE794E40E945D0009
:1032200085E090E00E94890261E080E00E947101E7
:103230008BE595E00E94650160E070E88BEB94E41B
:103240000E945D0061E089E00E94710186E090E0EB
:1032500090935906809358060E9401289A83898387
:10326000109232061092310680913106909132060A
:10327000209158063091590682179307C4F4E980CB
:10328000FA80E80EF91E0E946201F701808360E077
:1032900070E088EC92E40E945D008091310690918C
:1032A000320601969093320680933106DDCF41E0DD
:1032B00050E061E070E080E090E00E942B0260E06E
:1032C00070E88BEB94E40E945D0083E090E00E9444
:1032D00089020E947C0260E070E88BEB94E40E941B
:1032E0005D0061E080E00E947101CE0101961C0149
:1032F0000E94860784E090E00E94890260E089E0F5
:103300000E9471010E94860761E088E00E947101BD
:1033100085E090E00E9489020E94860760E081E0DB
:103320000E9471010E94860789819A810E949928D2
:1033300084E090E00E94890260E070E88BEB94E406
:103340000E945D0041E050E06FE070E084E190E0B9
:103350000E94FE0141E050E06FE070E084E190E007
:103360000E942B0241E050E06FE070E084E190E0C9
:103370000E942B0241E050E06FE070E084E190E0B9
:103380000E94FE0183E090E00E9489020E947C027C
:1033900081E090E00E9489020E943F0306301105FF
:1033A00018F4C8010E94890281E0809315060F90ED
:1033B0000F90DF91CF911F910F91FF90EF903F9071
:1033C0002F90089581E08093150608958C30910523
:1033D00061F46130710539F50E947C0283E695E065
:1033E0000E9465010E9473071EC08032910559F446
:1033F00080914E0690914F062091630630916406AD
:10340000821B930B0CC0819771F480914E069091B2
:103410004F062091630630916406820F931F9093AC
:103420004F0680934E0681E0809315060895803103
:10343000910521F420916E062F5F06C08131910520
:1034400049F420916E06215020936E0621E02093CE
:10345000350614C08032910511F481E004C0813238
:10346000910521F482E08093620611C08B339105AF
:1034700029F40E94920F80936E0609C00E9739F4CA
:10348000672B29F410926E0681E08093350681E067
:103490008093150608958031910521F420916E06E0
:1034A0002F5F06C08131910549F420916E062150AD
:1034B00020936E0621E02093350614C080329105DA
:1034C00011F481E004C08132910521F482E08093FF
:1034D000620615C08B33910529F40E94920F8093E8
:1034E0006E060DC00E9759F4672B49F480916E0655
:1034F00087FD05C010926E0681E08093350681E05D
:103500008093150608958031910521F420916E066F
:103510002F5F06C08131910549F420916E0621503C
:1035200020936E0621E02093350614C08032910569
:1035300011F481E004C08132910521F482E080938E
:10354000620612C08B33910529F40E94920F80937A
:103550006E060AC00E9741F4672B31F48EEF80930C
:103560006E0681E08093350681E08093150608950C
:103570008031910521F420916E062F5F06C08131C4
:10358000910549F420916E06215020936E0621E0AA
:103590002093350614C08032910511F481E004C0F7
:1035A0008132910521F482E08093620611C08B3351
:1035B000910529F40E94920F80936E0609C00E9720
:1035C00039F4672B29F410926E0681E0809335065A
:1035D00081E08093150608950F931F93CF93DF9397
:1035E000EC018B010E94F10A80911906811105C03E
:1035F000B801CE010E9418182FC0813029F4B801FB
:10360000CE010E94841828C0823021F481E080938A
:10361000150622C0833029F4B801CE010E94E619B4
:103620001BC0843029F4B801CE010E94171A14C0BF
:10363000853029F4B801CE010E944B1A0DC08630A6
:1036400029F4B801CE010E94831A06C0873021F404
:10365000B801CE010E94B81AC632D10551F50E94B8
:103660007C0282E795E00E94650161E080E00E94B3
:1036700071018EE795E00E9465010E94B20760E04B
:1036800070E08AE793E40E945D0041E050E06FE063
:1036900070E084E190E00E94FE0141E050E06FE0C4
:1036A00070E084E190E00E942B0281E08093150697
:1036B00037C0C932D10541F4809119068450823057
:1036C00078F10E9478052CC0CF30D10589F401151E
:1036D000110531F41092170682E00E94090B2CC0EC
:1036E0000130110549F50E9484010E94FF0A24C09F
:1036F000CE32D10549F441E050E061E070E080E075
:1037000090E00E94FE0130C0C232D10549F441E090
:1037100050E061E070E080E090E00E942B022DC05C
:10372000C432D10549F441E050E06FE070E084E13B
:1037300090E00E94FE012BC0C332D10561F441E04C
:1037400050E06FE070E084E190E0DF91CF911F9155
:103750000F910C942B02CC32D10531F4DF91CF9133
:103760001F910F910C94540BCD32D10531F4DF91A0
:10377000CF911F910F910C946E0BCE30D10539F47F
:1037800001301105D1F481E08093610016C0C43688
:10379000D10599F483E00E942C04813021F483E068
:1037A0000E941B0403C083E00E940B0483E0DF91AE
:1037B000CF911F910F910C94080CDF91CF911F9125
:1037C0000F9108950F931F93CF93DF9300D0CDB740
:1037D000DEB78C018091170687FD07C082E0698300
:1037E0007A830E94090B7A81698180916D0683300A
:1037F00019F0C8010E94EC1A80916D06833081F4A3
:1038000080E00E942C04813059F410926D0682E011
:103810000F900F90DF91CF911F910F910C94090B96
:103820000F900F90DF91CF911F910F9108951092FB
:1038300032061092310620916000809128062230D5
:1038400079F0332727FD309590E02817390731F4B8
:1038500081E090E0909332068093310680912806B3
:10386000809360000895CF92DF92EF92FF921F93B2
:10387000CF93DF9300D01F92CDB7DEB780911506AE
:10388000813059F4109215060E94D11782E00E94EF
:103890002C04813011F40E94B207809154068130CB
:1038A00099F41092540680916D068250823060F433
:1038B000809119068450823018F00E941C0704C0C1
:1038C0000E940B070E94EA0A80914B06813009F0A2
:1038D000FBC0109251061092500610924B06909128
:1038E0006D0680911B06933039F5811125C00E9429
:1038F0002C048130D9F40E94F10A82E00E94090B65
:1039000083E290E00E946C29109116061130E1F4D8
:1039100080E00E941B040E9484010E94FF0A109311
:103920001B0688E895E00E9473290EC080E00E9483
:103930000B0410926D0608C0813031F460E070E035
:1039400088EC92E40E94FA0A80916D06811117C0FA
:1039500081EA95E09F938F930E9458290E94B904B1
:103960000E9453060F900F90813031F487EC95E060
:103970000E9473290E94EB0582E080936D0680917E
:103980006D068250823008F085C0809119068450FF
:10399000823008F47FC00E947A0A0E942723809117
:1039A0006D06823009F076C080E290E00E946C29BA
:1039B0000E943A22813049F482E00E94090B0E9461
:1039C000F10A0E94EB050E946B1F0E94191F9E01C5
:1039D0002F5F3F4F43E068EF0E94020360912D0686
:1039E00070912E0680912F069091300642E00E9441
:1039F000F7090E94CF096B017C0169817A818B8173
:103A00000E94CF099B01AC01C701B6010E949A2711
:103A100018166CF481E00E942C04882321F0809118
:103A20001A0681110EC081E00E940B0407C081E0DC
:103A30000E942C04813029F40E941B0481E00E9422
:103A4000080C81E080931A060E942C04813041F416
:103A50000E94DD0A60E070E088E492E40E94FA0AC5
:103A60000E943F228130B1F482E00E94090B0E9443
:103A7000F10A81E00E942C04813041F48AEE95E045
:103A80009F938F930E9458290F900F900E94FA04E1
:103A90000E947B1F80911906823019F481E0809387
:103AA00015068091170618161CF48150809317068E
:103AB00080911706811102C00E94C6010E94530620
:103AC000813011F40E94C50A80916100813099F51E
:103AD0001092610081E090E00E94890280911906B5
:103AE0008450843068F40E94920F20916E06332730
:103AF00027FD309590E02817390711F40E94DA0F5E
:103B00008091190680936E06109219061092140681
:103B100081E090E0909364068093630660E070E03B
:103B20008BE390E00E94E21B80916E068093140666
:103B300081E0809315060E940304892B91F08EE1A9
:103B400090E00E9449000E940304892B51F060E03C
:103B500070E084E690E00E94E21B84E690E00E9420
:103B6000490080912C068823A1F0809129068111BB
:103B70000EC10E94171C10922C0680912A0660919B
:103B800031067091320690E00E94E21B0E94FF0312
:103B9000FEC00E942B248093520690916D069330B4
:103BA00099F4882389F0982F9F7D943569F08237A6
:103BB00021F481E080931606EAC060E070E08FEFA8
:103BC0009FEF0E94E21BE3C082E00E942C04813040
:103BD00009F0CAC080915206853629F460E070E091
:103BE0008BE390E0BFC0873729F460E070E080E2AB
:103BF00090E0B8C0833729F460E070E081E290E0A3
:103C0000B1C0843629F460E070E080E190E0AAC0A1
:103C1000813629F460E070E081E190E0A3C0813753
:103C200019F460E070E004C0813529F461E070E0CF
:103C30008EE090E097C08B3629F460E070E086E279
:103C400090E090C0863729F460E070E084E690E070
:103C500089C0803719F460E070E004C0803529F431
:103C600061E070E08FE090E07DC0833629F460E091
:103C700070E08CE090E076C08B3529F460E070E075
:103C80008EE290E06FC08D3529F460E070E082E252
:103C900090E068C08B3729F460E070E084E290E047
:103CA00061C08D3729F460E070E083E290E05AC093
:103CB000813229F460E070E089E290E053C08C33F7
:103CC00029F460E070E08DE290E04CC08E3329F47E
:103CD00060E070E08CE290E045C0803329F460E061
:103CE00070E080E090E03EC0813329F460E070E055
:103CF00081E090E037C0823329F460E070E082E038
:103D000090E030C0833329F460E070E083E090E01D
:103D100029C0843329F460E070E084E090E022C0A0
:103D2000853329F460E070E085E090E01BC08633C5
:103D300029F460E070E086E090E014C0873329F455
:103D400060E070E087E090E00DC0883329F460E027
:103D500070E088E090E006C0893331F460E070E004
:103D600089E090E00E94E21B80915206843779F44A
:103D700082E00E942C04813021F482E00E941B0426
:103D800003C082E00E940B0482E00E94080C0F90A6
:103D90000F900F90DF91CF911F91FF90EF90DF90E8
:103DA000CF900895982F92959F708F702AE0929FE0
:103DB000800D112408956AE00E947625292F30E1B4
:103DC000839FC0011124822B0895CF93DF931F920C
:103DD000CDB7DEB769839E012F5F3F4F41E0682F6B
:103DE00080EA0E94D3020F90DF91CF910895CF9384
:103DF000DF931F92CDB7DEB79E012F5F3F4F41E0AB
:103E0000682F80EA0E94020389810F90DF91CF9191
:103E1000089580E00E94F71E682F6F7C80E00E946A
:103E2000E51E80E00E94F71E682F646080E00C941D
:103E3000E51E80EA089580E00E94F71E682F606802
:103E400080E00C94E51E80E00E94F71E682F6F77DB
:103E500080E00C94E51E80E00E94F71E8095881F8C
:103E60008827881F089588E00E94F71E8770873092
:103E700009F486E00895CF93C82F863009F4C7E08F
:103E800088E00E94F71E6C2F6770887F682B88E09F
:103E9000CF910C94E51E80E00E94F71E682F6F7B87
:103EA00080E00C94E51E80E00E94F71E682F60649D
:103EB00080E00C94E51E80E00E94F71E682F677F6B
:103EC00080E00C94E51E80E00E94F71E682F686079
:103ED00080E00C94E51E80E00E94F71E682F6E7F44
:103EE00080E00C94E51E80E00E94F71E682F616060
:103EF00080E00C94E51E80E00E94F71E682F6D7F25
:103F000080E00C94E51E80E00E94F71E682F62603E
:103F100080E00C94E51ECF93DF9300D0CDB7DEB7E1
:103F200069837A839E012F5F3F4F42E0682F80EACA
:103F30000E94D3020F900F90DF91CF910895CF93FD
:103F4000DF9300D0CDB7DEB79E012F5F3F4F42E039
:103F5000682F80EA0E94020389812A8190E0922BD7
:103F60000F900F90DF91CF9108952F923F924F9233
:103F70005F926F927F928F929F92AF92BF92CF92F9
:103F8000DF92EF92FF920F931F93CF93DF93CDB702
:103F9000DEB72B970FB6F894DEBF0FBECDBF9B8761
:103FA0008A873B012A0119010E945B1F0E94531F4F
:103FB0009E012F5F3F4F47E061E080EA0E940203CD
:103FC0000E944B1F0E94631F9E01285F3F4F42E0EB
:103FD00060E180EA0E94020389810E94D21EF10101
:103FE00080838A810E94D21EF20180838B810E948D
:103FF000D21EF30180837C80872D8F730E94D21E96
:10400000EA85FB85808376FA772470F8E8A1F9A128
:1040100070827D80872D8F730E94D21EF80180836D
:104020001E81812F8F710E94D21EF601808312950E
:1040300016951770F7011083098510E0102F0027DF
:104040008885082B98012370332772947694769490
:1040500093E07922872D90E02817390731F00F5F20
:104060001F4FB80180E10E948B1FF501118300836F
:104070008F810E94D21EF40180832B960FB6F89494
:10408000DEBF0FBECDBFDF91CF911F910F91FF908B
:10409000EF90DF90CF90BF90AF909F908F907F90E8
:1040A0006F905F904F903F902F9008958F92AF92B6
:1040B000BF92CF92EF92FF920F931F93CF93DF9314
:1040C000CDB7DEB72B970FB6F894DEBF0FBECDBFCE
:1040D000F82E822F4A876B870E94DB1E89834A85D0
:1040E000842F0E94DB1E8A836B85862F0E94DB1E35
:1040F0008B838F2D0E94DB1E182F84E00E94F71EF9
:10410000912F9F738078982B288D80E4289F9001B1
:1041100011242074922B9C83802F0E94DB1E8F73AE
:104120009A2D9295990F990F907C982B9D838C2DA9
:104130000E94DB1E8F7190E2E99E700111248E298E
:104140008E83A886B986882D0E94DB1E8F830E94ED
:104150002B1F082F0E941B1F9E012F5F3F4F47E020
:1041600061E080EA0E94D3029E01285F3F4F42E057
:1041700060E180EA0E94D302013011F40E94231F03
:104180002B960FB6F894DEBF0FBECDBFDF91CF9157
:104190001F910F91FF90EF90CF90BF90AF908F90B5
:1041A000089588E00E94F71E682F6F7B88E00C94CA
:1041B000E51E88E00E94F71E682F606488E00C947A
:1041C000E51E88E00E94F71E682F6F7788E00C9448
:1041D000E51E88E00E94F71E682F606888E00C9456
:1041E000E51E88E00E94F71E881F8827881F089513
:1041F00088E00E94F71E682F677F88E00C94E51E18
:1042000088E00E94F71E682F686088E00C94E51E25
:1042100088E00E94F71E83FB882780F9089584E0D8
:104220000E94F71E682F6F7784E00E94E51E8CE0E5
:104230000E94F71E682F6F778CE00C94E51E84E0D7
:104240000E94F71E682F606884E00E94E51E8CE0E3
:104250000E94F71E682F60688CE00C94E51E84E0D5
:104260000E94F71E87FD07C084E00E94F71E87FFAB
:1042700009C08FEF08958CE00E94F71E87FFF4CFEE
:1042800081E008958CE00E94F71E880F880B089546
:10429000CF93C82F88E00E94F71E682F6F7C80E1C3
:1042A000C89F900111242073622B88E0CF910C9459
:1042B000E51E88E00E94F71E807382958F70089536
:1042C0002F923F924F925F926F927F928F929F9226
:1042D000AF92BF92CF92DF92EF92FF920F931F9314
:1042E000CF93DF93CDB7DEB727970FB6F894DEBF35
:1042F0000FBECDBF1C014B013A0129019E012F5F6A
:104300003F4F47E069E080EA0E94020389810E94F2
:10431000D21EF20180838A810E94D21EF301808323
:104320008B810E94D21EF40180839C80892D8F7323
:104330000E94D21EF101808396FA992490F8F5012B
:1043400090828D810E94D21EF80180830E945921A3
:10435000823019F48E818F7703C08E810E94D21E25
:10436000F70180838F810E94D21EF60180832796F9
:104370000FB6F894DEBF0FBECDBFDF91CF911F9176
:104380000F91FF90EF90DF90CF90BF90AF909F90F4
:104390008F907F906F905F904F903F902F900895F7
:1043A000AF92CF92DF92EF92FF920F931F93CF9332
:1043B000DF93CDB7DEB729970FB6F894DEBF0FBEF7
:1043C000CDBFF82ED22E488769870E945921182F19
:1043D0008D2D0E94DB1E89834885842F0E94DB1E61
:1043E0008A836985862F0E94DB1E8B838F2D0E9416
:1043F000DB1EF82E8CE00E94F71E9F2D9F738078A5
:10440000982B80E4A89E900111242074922B9C8309
:10441000123019F48E2D8F7709C0133041F4802F9C
:104420000E94DB1E8D838E2D0E94DB1E8E838C2DC1
:104430000E94DB1E8F839E012F5F3F4F47E069E0A4
:1044400080EA0E94D30229960FB6F894DEBF0FBE11
:10445000CDBFDF91CF911F910F91FF90EF90DF9033
:10446000CF90AF90089588E00E94F71E86FB8827C2
:1044700080F9089580E00E94F71E8170089580E021
:104480000E94F71E869581700895AF92BF92CF92D9
:10449000DF92EF92FF920F931F9323E7A22E26E065
:1044A000B22E33E3C32E36E0D32E47E5E42E46E0AA
:1044B000F42E04E716E023E536E045E656E066E52F
:1044C00076E085E596E00E9460211F910F91FF90B4
:1044D000EF90DF90CF90BF90AF9008958F929F9212
:1044E000AF92BF92CF92DF92EF92FF920F931F9302
:1044F00083E796E09F938F9353E3852E56E0952EA6
:1045000066E6A62E66E0B62E77E5C72E76E0D72EB5
:10451000E8E6EE2EE6E0FE2E04E716E023E536E0C0
:1045200045E656E066E576E085E596E00E94B51F33
:104530000F900F901F910F91FF90EF90DF90CF9011
:10454000BF90AF909F908F900895882319F0D89ACC
:10455000D09A0895D0980895D89899B3892F8170EA
:1045600090FF15C0D09A84EF91E00E945400D0983B
:1045700086E490E00E94540084EF91E0C89904C062
:104580000E94540081E008950E94540080E0089544
:10459000CF93DF93D82FD898C8E0D09AD0FF08C027
:1045A00087E090E00E945400D09886E490E007C035
:1045B00086E490E00E945400D09887E090E00E944A
:1045C0005400D695C15049F7DF91CF9108950E94CC
:1045D000AC22882339F08CEC0E94C82284E40E942B
:1045E000C8228FEF0895CF93DF93D098D8E0C0E032
:1045F000D09A87E090E00E945400D09887E090E045
:104600000E945400C695C899C06886E490E00E9454
:104610005400D15069F78C2FDF91CF9108950E94FB
:10462000AC22882389F08CEC0E94C8228EEB0E9479
:10463000C8220E94F322809369060E94F32280938D
:104640006A0681E090E0089580E090E008950E947D
:10465000E7228823F1F089E696E00E940F2360911B
:104660006A0670E0762F662780916906680F711DD3
:10467000882777FD8095982F0E94EA2620E030E079
:1046800040E85DE30E949E271092690610926A0638
:1046900003C060E070E0CB0160932D0670932E069E
:1046A00080932F0690933006089585B5886085BD68
:1046B00085E083BD89B7806889BF10923406109267
:1046C0005106109250061092540610924B0608950F
:1046D000B99ABA9ABB9A10924C0610924006109260
:1046E0007206089585B5876085BD089585B5887F74
:1046F00085BD08951F920F920FB60F9211242F932C
:104700003F938F939F9321E020935406809150060E
:10471000909151068C3D954011F420934B06909159
:10472000340680914C06981710F0C19A01C0C198C8
:104730009091340680914006981710F0C29A01C0FB
:10474000C2989091340680917206981710F0C39A1F
:1047500001C0C398809150069091510601969093A4
:10476000510680935006809134068F5F8093340603
:104770009F918F913F912F910F900FBE0F901F909F
:104780001895CF93C82F8A3019F48DE00E94C12369
:1047900020912106309122062F5F3F4F2F71332742
:1047A00040911F065091200624173507C9F3F901DF
:1047B000EB58F94FC0833093220620932106559A77
:1047C000CF9108959C0140E050E060E472E48FE0F6
:1047D00090E00E94AA252150310930BD29B988E115
:1047E0008AB986E880BD8AB188698AB98A98929A1E
:1047F00082E690E09093AC068093AB0608950C940B
:10480000C123CF93DF93EC018991882319F00E9493
:10481000C123FACFDF91CF910895CF93DF93CDB726
:10482000DEB764970FB6F894DEBF0FBECDBF462F3C
:1048300050E0BE016F5F7F4F0E942829CE01019694
:104840000E94012464960FB6F894DEBF0FBECDBF60
:10485000DF91CF9108952091230630912406809115
:104860002506909126062817390799F0809123068E
:104870009091240601968F70992790932406809337
:104880002306E0912306F0912406EB56F94F808130
:10489000089580E00895BF92CF92DF92EF92FF9249
:1048A0000F931F93CF93DF938C017B01C0E0D0E087
:1048B0006B0181E0C81AD1080E942B24B82E8823EE
:1048C00059F08DE0B81659F08B2D0E94C123F801E4
:1048D000EC0FFD1FB0822196CC15DD0569F7C00FE6
:1048E000D11FCE01801B910B8E159F0510F41992DC
:1048F000F8CFDF91CF911F910F91FF90EF90DF9054
:10490000CF90BF9008950F931F93CF93DF93C0E094
:10491000D0E00AE00E942B24182F8823D9F38D3091
:1049200071F00E94C123CE01089FE001099FD00DC4
:104930001124C10FD11D17FDDA95E097EBCF8AE066
:104940000E94C123CE01DF91CF911F910F91089555
:104950001F920F920FB60F9211242F933F938F93B4
:104960009F93EF93FF9380912506909126060196E1
:104970008F70992720912306309124068217930780
:1049800069F09093260680932506E0912506F09124
:1049900026068CB1EB56F94F808301C08CB1FF9194
:1049A000EF919F918F913F912F910F900FBE0F909C
:1049B0001F9018951F920F920FB60F9211242F93EC
:1049C0003F938F939F93EF93FF9320911F06309116
:1049D0002006809121069091220628173907A1F020
:1049E00080911F069091200601968F7199279093D0
:1049F000200680931F06E0911F06F0912006EB58D9
:104A0000F94F80818CB901C05598FF91EF919F912A
:104A10008F913F912F910F900FBE0F901F9018957F
:104A20008F9A88EE93E00E9449000E94860184E6F6
:104A300090E00E94A4020E94091F0E947B1F0E9416
:104A40006B1F0E940F210E9468230E9427230E944F
:104A500055230E9472230E9443030E948C0580E02C
:104A600091EE0E94E22383E00E942C04813019F42D
:104A70000E943F0302C00E943B03789481E0809330
:104A80006D0682EF95E00E9465018CED95E00E9435
:104A9000490061E086E00E94710180E096E00E949A
:104AA00065010E94B20788EE93E00E94490041E050
:104AB00050E06FE070E084E190E00E94FE010E940F
:104AC00078010E947C020E94331C82E080931406CD
:104AD00060E070E08BE390E00E94E21B83E0809353
:104AE0006D060E940B070E94331CFDCF991B79E0D5
:104AF00004C0991F961708F0961B881F7A95C9F76E
:104B000080950895AA1BBB1B51E107C0AA1FBB1FBC
:104B1000A617B70710F0A61BB70B881F991F5A9549
:104B2000A9F780959095BC01CD01089597FB072EBC
:104B300016F4009407D077FD09D00E94822507FC67
:104B400005D03EF4909581959F4F0895709561959D
:104B50007F4F0895A1E21A2EAA1BBB1BFD010DC0B9
:104B6000AA1FBB1FEE1FFF1FA217B307E407F5071D
:104B700020F0A21BB30BE40BF50B661F771F881FF9
:104B8000991F1A9469F760957095809590959B018F
:104B9000AC01BD01CF0108950E94D725A59F900DBE
:104BA000B49F900DA49F800D911D11240895A29F84
:104BB000B001B39FC001A39F700D811D1124911DF1
:104BC000B29F700D811D1124911D08955058BB276F
:104BD000AA270ED075C166D130F06BD120F031F428
:104BE0009F3F11F41EF45BC10EF4E095E7FB51C149
:104BF000E92F77D180F3BA17620773078407950707
:104C000018F071F49EF58FC10EF4E0950B2EBA2FBB
:104C1000A02D0B01B90190010C01CA01A0011124C2
:104C2000FF27591B99F0593F50F4503E68F11A166E
:104C3000F040A22F232F342F4427585FF3CF4695FF
:104C400037952795A795F0405395C9F77EF41F1621
:104C5000BA0B620B730B840BBAF09150A1F0FF0FEB
:104C6000BB1F661F771F881FC2F70EC0BA0F621FD7
:104C7000731F841F48F4879577956795B795F795C7
:104C80009E3F08F0B3CF9395880F08F09927EE0F59
:104C9000979587950895D9D008F481E008950CD0B0
:104CA0000FC107D140F0FED030F021F45F3F19F082
:104CB000F0C0511139C1F3C014D198F39923C9F34D
:104CC0005523B1F3951B550BBB27AA276217730712
:104CD000840738F09F5F5F4F220F331F441FAA1FC6
:104CE000A9F333D00E2E3AF0E0E830D09150504086
:104CF000E695001CCAF729D0FE2F27D0660F771F34
:104D0000881FBB1F261737074807AB07B0E809F015
:104D1000BB0B802DBF01FF2793585F4F2AF09E3FAA
:104D2000510568F0B6C000C15F3FECF3983EDCF37C
:104D3000869577956795B795F7959F5FC9F7880F23
:104D4000911D9695879597F90895E1E0660F771F75
:104D5000881FBB1F621773078407BA0720F0621B06
:104D6000730B840BBA0BEE1F88F7E095089504D0FF
:104D70006894B111D9C00895BCD088F09F5790F0C5
:104D8000B92F9927B751A0F0D1F0660F771F881F70
:104D9000991F1AF0BA95C9F712C0B13081F0C3D08B
:104DA000B1E00895C0C0672F782F8827B85F39F029
:104DB000B93FCCF3869577956795B395D9F73EF4CF
:104DC00090958095709561957F4F8F4F9F4F089577
:104DD000E89409C097FB3EF4909580957095619595
:104DE0007F4F8F4F9F4F9923A9F0F92F96E9BB274B
:104DF0009395F695879577956795B795F111F8CFC7
:104E0000FAF4BB0F11F460FF1BC06F5F7F4F8F4F31
:104E10009F4F16C0882311F096E911C0772321F027
:104E20009EE8872F762F05C0662371F096E8862FBF
:104E300070E060E02AF09A95660F771F881FDAF716
:104E4000880F9695879597F90895990F0008550F43
:104E5000AA0BE0E8FEEF16161706E807F907C0F000
:104E600012161306E407F50798F0621B730B840B08
:104E7000950B39F40A2661F0232B242B252B21F4E2
:104E800008950A2609F4A140A6958FEF811D811D82
:104E9000089597F99F6780E870E060E008959FEFBC
:104EA00080EC089500240A941616170618060906C1
:104EB000089500240A941216130614060506089590
:104EC000092E0394000C11F4882352F0BB0F40F418
:104ED000BF2B11F460FF04C06F5F7F4F8F4F9F4F58
:104EE000089557FD9058440F551F59F05F3F71F0DA
:104EF0004795880F97FB991F61F09F3F79F0879541
:104F00000895121613061406551FF2CF4695F1DFC9
:104F100008C0161617061806991FF1CF8695710559
:104F2000610508940895E894BB2766277727CB018D
:104F300097F908958ADF08F48FEF08950BD0C0CF5A
:104F4000B1DF28F0B6DF18F0952309F0A2CFA7CF84
:104F50001124EACFC6DFA0F3959FD1F3950F50E05F
:104F6000551F629FF001729FBB27F00DB11D639F1B
:104F7000AA27F00DB11DAA1F649F6627B00DA11DC1
:104F8000661F829F2227B00DA11D621F739FB00D67
:104F9000A11D621F839FA00D611D221F749F3327D7
:104FA000A00D611D231F849F600D211D822F762F70
:104FB0006A2F11249F5750408AF0E1F088234AF06D
:104FC000EE0FFF1FBB1F661F771F881F91505040B9
:104FD000A9F79E3F510570F05CCFA6CF5F3FECF381
:104FE000983EDCF3869577956795B795F795E795A5
:104FF0009F5FC1F7FE2B880F911D9695879597F9B6
:105000000895CF93DF938230910510F482E090E011
:10501000E091A706F091A80620E030E0A0E0B0E023
:10502000309739F14081518148175907B8F0481736
:10503000590771F482819381109729F013969C93FC
:105040008E9312972CC09093A8068093A70627C032
:105050002115310531F04217530718F0A901DB0182
:1050600001C0EF019A01BD01DF010280F381E02D53
:10507000D7CF21153105F9F0281B390B2430310524
:1050800080F48A819B816115710521F0FB01938376
:10509000828304C09093A8068093A706FE013296EF
:1050A00044C0FE01E20FF31F819391932250310916
:1050B000398328833AC02091A5063091A606232B78
:1050C00041F420917200309173003093A606209332
:1050D000A50620917000309171002115310541F431
:1050E0002DB73EB74091740050917500241B350BCD
:1050F000E091A506F091A606E217F307A0F42E1B97
:105100003F0B2817390778F0AC014E5F5F4F24172B
:10511000350748F04E0F5F1F5093A6064093A50633
:105120008193919302C0E0E0F0E0CF01DF91CF9155
:105130000895CF93DF93009709F487C0FC0132975D
:1051400013821282C091A706D091A806209781F4FD
:1051500020813181280F391F8091A5069091A606E4
:105160008217930779F5F093A606E093A5066DC024
:10517000DE0120E030E0AE17BF0750F412964D91EB
:105180005C9113979D014115510509F1DA01F3CFA7
:10519000B383A28340815181840F951F8A179B0797
:1051A00071F48D919C911197840F951F02969183B4
:1051B000808312968D919C911397938382832115FE
:1051C000310529F4F093A806E093A7063EC0D90163
:1051D0001396FC93EE9312974D915D91A40FB51F1A
:1051E000EA17FB0779F480819181840F951F02965D
:1051F000D90111969C938E938281938113969C93EF
:105200008E931297E0E0F0E08A819B81009719F07D
:10521000FE01EC01F9CFCE01029628813981820F7F
:10522000931F2091A5063091A6062817390769F427
:10523000309729F41092A8061092A70602C0138294
:105240001282D093A606C093A506DF91CF91089550
:105250004532510520F4423010F00C943329FB0103
:105260001082CB010895BB274A3031F4992322F4F0
:10527000BDE2909581959F4F0C943F29BB27FB0180
:105280005527AA27880F991FAA1FA41710F0A41B3F
:1052900083955051B9F7A05DAA3308F0A95DA19399
:1052A000009779F7B111B1931192CB010C94B92BFE
:1052B000A0E0B0E0EEE5F9E20C94692CFE01359631
:1052C00061917191AF018091AB069091AC060E9403
:1052D000A029E2E00C94852C6091AB067091AC069D
:1052E0000E94C92B08950F931F93CF93DF93E091F2
:1052F000AB06F091AC06238121FF1BC0EC0100E05E
:1053000010E089916091AB067091AC06DB011896B4
:10531000ED91FC911997882331F00995892B89F338
:105320000FEF1FEFEECF8AE00995892B11F4C8012A
:1053300002C08FEF9FEFDF91CF911F910F910895E2
:10534000ACE0B0E0E6EAF9E20C94592C7C016B0188
:105350008A01FC0117821682838181FFBDC1CE01C3
:1053600001964C01F7019381F60193FD859193FF1E
:1053700081916F01882309F4ABC1853239F493FD23
:10538000859193FF81916F01853229F4B70190E0F7
:105390000E94C92BE7CF512C312C20E02032A0F401
:1053A0008B3269F030F4803259F0833269F4206135
:1053B0002CC08D3239F0803339F4216026C0226050
:1053C000246023C0286021C027FD27C030ED380F9E
:1053D0003A3078F426FF06C0FAE05F9E300D1124C3
:1053E000532E13C08AE0389E300D1124332E2062D4
:1053F0000CC08E3221F426FD6BC1206406C08C36B1
:1054000011F4206802C0883641F4F60193FD8591BD
:1054100093FF81916F018111C1CF982F9F7D95548A
:10542000933028F40C5F1F4FFFE3F9830DC08336E0
:1054300031F0833771F0833509F05BC022C0F80189
:10544000808189830E5F1F4F44244394512C540163
:1054500015C03801F2E06F0E711CF801A080B18018
:1054600026FF03C0652D70E002C06FEF7FEFC5011E
:105470002C870E94AE2B2C0183012C852F77222EA6
:1054800017C03801F2E06F0E711CF801A080B180E6
:1054900026FF03C0652D70E002C06FEF7FEFC501EE
:1054A0002C870E94A32B2C012C852068222E83019F
:1054B00023FC1BC0832D90E048165906B0F4B701B9
:1054C00080E290E00E94C92B3A94F4CFF50127FCCA
:1054D000859127FE81915F01B70190E00E94C92B61
:1054E00031103A94F1E04F1A51084114510471F708
:1054F000E5C0843611F0893639F5F80127FF07C079
:1055000060817181828193810C5F1F4F08C060812F
:105510007181882777FD8095982F0E5F1F4F2F761A
:10552000B22E97FF09C090958095709561957F4F39
:105530008F4F9F4F2068B22E2AE030E0A4010E94D6
:10554000FB2BA82EA81844C0853729F42F7EB22E35
:105550002AE030E025C0F22FF97FBF2E8F36C1F050
:1055600018F4883579F0B4C0803719F0883721F005
:10557000AFC02F2F2061B22EB4FE0DC08B2D8460E2
:10558000B82E09C024FF0AC09F2F9660B92E06C00E
:1055900028E030E005C020E130E002C020E132E048
:1055A000F801B7FE07C060817181828193810C5F31
:1055B0001F4F06C06081718180E090E00E5F1F4F39
:1055C000A4010E94FB2BA82EA818FB2DFF77BF2E4D
:1055D000B6FE0BC02B2D2E7FA51450F4B4FE0AC0CE
:1055E000B2FC08C02B2D2E7E05C07A2C2B2D03C0BB
:1055F0007A2C01C0752C24FF0DC0FE01EA0DF11DAF
:105600008081803311F4297E09C022FF06C0739483
:10561000739404C0822F867809F0739423FD13C01D
:1056200020FF06C05A2C731418F4530C5718732C0F
:10563000731468F4B70180E290E02C870E94C92BB4
:1056400073942C85F5CF731410F4371801C0312CE6
:1056500024FF12C0B70180E390E02C870E94C92B81
:105660002C8522FF17C021FF03C088E590E002C00F
:1056700088E790E0B7010CC0822F867859F021FDB1
:1056800002C080E201C08BE227FD8DE2B70190E00D
:105690000E94C92BA51438F4B70180E390E00E9462
:1056A000C92B5A94F7CFAA94F401EA0DF11D808119
:1056B000B70190E00E94C92BA110F5CF332009F467
:1056C00051CEB70180E290E00E94C92B3A94F6CF08
:1056D000F7018681978102C08FEF9FEF2C96E2E160
:1056E0000C94752CDC01CB01FC01E199FECF06C0C6
:1056F000FFBBEEBBE09A31960DB20D924150504087
:10570000B8F70895DC01A40FB51F4150504048F090
:10571000CB01840F951F2E910E94932B4150504036
:10572000D0F70895262FE199FECF9FBB8EBBE09A5C
:1057300001970DB2021631F02DBB0FB6F894E29A24
:10574000E19A0FBE0895FC01059061507040011070
:10575000D8F7809590958E0F9F1F0895FC0161509A
:10576000704001900110D8F7809590958E0F9F1F83
:105770000895DC01FC01672F71917723E1F73297DF
:1057800004C07C916D9370836291AE17BF07C8F31C
:1057900008950F931F93CF93DF93182F092FEB01D9
:1057A0008B8181FD03C08FEF9FEF20C082FF10C06F
:1057B0004E815F812C813D81421753077CF4E88143
:1057C000F9819F012F5F3F4F39832883108306C0E3
:1057D000E885F985812F0995892B29F72E813F814D
:1057E0002F5F3F4F3F832E83812F902FDF91CF91EB
:1057F0001F910F910895FA01AA27283051F1203105
:1058000081F1E8946F936E7F6E5F7F4F8F4F9F4F54
:10581000AF4FB1E03ED0B4E03CD0670F781F891F96
:105820009A1FA11D680F791F8A1F911DA11D6A0F64
:10583000711D811D911DA11D20D009F468943F9117
:105840002AE0269F11243019305D3193DEF6CF0116
:105850000895462F4770405D4193B3E00FD0C9F7DC
:10586000F6CF462F4F70405D4A3318F0495D31FD49
:105870004052419302D0A9F7EACFB4E0A69597959C
:10588000879577956795BA95C9F700976105710572
:1058900008959B01AC010A2E0694579547953795BC
:1058A0002795BA95C9F7620F731F841F951FA01D16
:1058B00008952F923F924F925F926F927F928F92B4
:1058C0009F92AF92BF92CF92DF92EF92FF920F938F
:1058D0001F93CF93DF93CDB7DEB7CA1BDB0B0FB699
:1058E000F894DEBF0FBECDBF09942A883988488856
:1058F0005F846E847D848C849B84AA84B984C884EC
:10590000DF80EE80FD800C811B81AA81B981CE0FE2
:10591000D11D0FB6F894DEBF0FBECDBFED010895C7
:04592000F894FFCF29
:1059240002010000000200000000C123000000008A
:105934000000AF0620000700253034643A253032D9
:10594400643A2530326420253032643A253032649A
:105954003A2530326400204F4249454B54204E5280
:105964003A20256420004F54574152434945005A78
:10597400414D4B4E494543494500253034643A2551
:105984003032643A2530326420253032643A25308E
:1059940032643A253032640A000A54454D50455267
:1059A40041545552412E200025642E253032642066
:1059B40073746F706E692043656C736A75737A6172
:1059C4000A004272616B2064616E7963680025305D
:1059D40033642E20000A5241504F52542041574103
:1059E40052594A4E592E2000424C45444E452057A8
:1059F4004152544F53434920414452455355204B3F
:105A04004F4C454A4B49212121000A5241504F52E3
:105A1400542E20004B726F6B3A0050726F677261A4
:105A24006D3A200050524F4752414D20474C4F573A
:105A34004E590050524F4752414D20544553544FF4
:105A4400575900435A5557414E49450044414E4524
:105A5400202D20454550524F4D004E41535441573F
:105A64004120474F445A494E59004E4153544157DF
:105A74004120414C41524D550055535441574945DD
:105A84004E494120464C41470054454D502E204B31
:105A940052595459435A4E410054454D5045524170
:105AA40054555241004B52595459435A4E412121A5
:105AB40021005243352026205445524D494E414C35
:105AC4000050494C4F54204F4E00555354414249C5
:105AD4004C495A4F57414E412100524335005049D9
