:100000000C942A000C9447000C9447000C94470071
:100010000C94161C0C9447000C949F030C944700FE
:100020000C9447000C9447000C9447000C94470034
:100030000C9447000C9447000C9447000C94470024
:100040000C9447000C9447000C9447000C94470014
:100050000C94470011241FBECFE5D8E0DEBFCDBF12
:1000600013E0A0E6B0E0EEEAF6E402C005900D92DF
:10007000A63CB107D9F724E0A6ECB3E001C01D927D
:10008000AD31B207E1F70E942E1C0C9455230C945D
:100090000000009741F0EFE9FFE03197F1F700C071
:1000A00000000197F6CF0895009731F025E02A95DA
:1000B000F1F700000197F8CF08958F929F92AF92C9
:1000C000BF92CF92DF92EF92FF924B015C0120E052
:1000D00030E04AE755E40E946E1E6B017C0120E08F
:1000E00030E040E85FE30E941B1D87FD24C020E054
:1000F0003FEF4FE757E4C701B6010E946A1E18168A
:10010000ACF420E030E040E251E4C501B4010E94CB
:100110006E1E0E948C1D20E931E06115710581F091
:10012000C9010197F1F761507109F7CFC701B60115
:100130000E948C1D02C061E070E0CB010197F1F7D5
:10014000FF90EF90DF90CF90BF90AF909F908F90F7
:1001500008958F929F92AF92BF92CF92DF92EF92CB
:10016000FF924B015C012BEA3AEA4AEA50E40E9412
:100170006E1E6B017C0120E030E040E85FE30E94EE
:100180001B1D87FD21C020E030E04FE753E4C7018D
:10019000B6010E946A1E181694F420E030E04AE787
:1001A00054E4C501B4010E941F1DFF90EF90DF9041
:1001B000CF90BF90AF909F908F900C945D00C7013F
:1001C000B6010E948C1D01C061E06A95F1F7FF90B5
:1001D000EF90DF90CF90BF90AF909F908F90089559
:1001E00080FF02C0DC9A01C0DC9881FF02C0DD9A6A
:1001F00001C0DD9882FF02C0DE9A01C0DE9883FF55
:1002000002C0DF9A0895DF98089589B382958170BE
:10021000CD998260CE998460CF9988600895CF93FC
:10022000DF93D498D598D698D798DA9ADB9A0E941B
:10023000050190E1899FE0011124DB98DB9A0E947F
:100240000501DB98E7ECF0E03197F1F700C0000022
:100250008C2BDF91CF910895D9980C940F01CF93F7
:10026000C82FD49AD59AD69AD79ADA98DB9A8295DB
:100270008F700E94F000DB98DB9A8C2F0E94F000B8
:10028000DB980E942C0187FDFCCFCF910895D9986F
:100290000C942F01D99A0C942F01D99A0C940F0128
:1002A000CF93DF93EC018991882319F00E944A01D2
:1002B000FACFDF91CF91089590E4699F800D1124CA
:1002C00080680C94470181E00E9447018FE39FE121
:1002D0000197F1F700C00000089582E00E944701F5
:1002E0008FE39FE10197F1F700C000000895C09AE5
:1002F0000895CF93D49AD59AD69AD79AD39AD19A69
:10030000D29A8FE59AEE0197F1F700C00000D998D4
:10031000DB98DA98C3E0DB9A83E00E94F000DB9878
:100320008FE19EE40197F1F700C00000C15099F7FA
:10033000DB9A82E00E94F000DB988FE99FE0019752
:10034000F1F700C0000088E20E94470188E00E94A7
:10035000470181E00E94470186E00E9447018CE04E
:100360000E944701B89ACF910C947701C0980895E4
:10037000CF93DF93CDB7DEB761970FB6F894DEBFAA
:100380000FBECDBF4AE0BE016F5F7F4F0E94F81FD6
:100390000E94500161960FB6F894DEBF0FBECDBF2C
:1003A000DF91CF9108956F927F928F929F92AF923B
:1003B000BF92CF92DF92EF92FF920F931F93CF9352
:1003C000DF9300D0CDB7DEB76B017C0149835A8340
:1003D0000E948C1D9B0149815A8177FF04C022270E
:1003E0003327261B370B293E334008F09EC08A0175
:1003F0004530510510F004E010E0C701B6010E943D
:10040000871D4B015C01CB010E94B80181E090E0A7
:100410002AE0622E712C2AE08017910740F4F30144
:100420002E9F30012F9F700C11240196F5CF012BC8
:1004300009F47BC086E893E00E945001840197FE96
:1004400004C00027112708191909B30180E090E0C2
:100450000E94B81D9B01AC01C701B6010E946E1E2F
:100460000E94871D9B0177FF04C022273327261B8C
:10047000370BB901882777FD8095982F0E94BA1D08
:100480006B017C019301D8010E94A01C0E94B81D41
:100490009B01AC01C701B6010E94B61C0E948C1DD5
:1004A0006B017C01AB0181E090E02AE030E06AE082
:1004B0004217530740F00196F9016E9F90016F9F1C
:1004C000300D1124F5CF41E02AE030E05AE0621609
:1004D000730640F04F5FB901569F9001579F300D52
:1004E0001124F5CF01E010E0A42EB12CA81AB90A0E
:1004F0000A151B0538F480E090E00E94B8010F5FF8
:100500001F4FF6CFC6010F900F90DF91CF911F9133
:100510000F91FF90EF90DF90CF90BF90AF909F90A2
:100520008F907F906F900C94B8010F900F90DF9197
:10053000CF911F910F91FF90EF90DF90CF90BF90E0
:10054000AF909F908F907F906F900895CF93DF939F
:10055000CDB7DEB761970FB6F894DEBF0FBECDBF43
:1005600040E1BE016F5F7F4F0E94F81F0E94500163
:1005700061960FB6F894DEBF0FBECDBFDF91CF916D
:100580000895CF92DF92EF92FF920F931F93CF9334
:10059000DF938C016B017A01C0E0D0E0CC15DD0562
:1005A00081F0E114F10411F08CE101C084E10E94BA
:1005B00047010115110519F0C8010E944900219653
:1005C000EDCFDF91CF911F910F91FF90EF90DF90D2
:1005D000CF900895CF92DF92EF92FF920F931F93E7
:1005E000CF93DF938C016B017A01C0E0D0E0CC1592
:1005F000DD0581F0E114F10411F088E101C080E132
:100600000E9447010115110519F0C8010E94490017
:100610002196EDCFDF91CF911F910F91FF90EF9039
:10062000DF90CF9008950F931F93CF93DF93EC014A
:100630008230910520F082309105D9F40FC080E816
:100640000E94470108E210E080E20E944A01015046
:10065000110901151105C1F7CD2B59F480EC0E9449
:100660004701C8E2D0E080E20E944A01219720972A
:10067000D1F7DF91CF911F910F91089583309105AC
:1006800089F030F48130910549F0029749F00895DE
:100690008430910549F0059749F008958CE007C032
:1006A00088E005C08EE003C08DE001C08FE00C94AF
:1006B0004701BC0180E89EE30E948C1C862F6031BC
:1006C00038F07727CB01409797FD01969595879550
:1006D00080B9089584EA86BF06B607FEFDCF089567
:1006E00084E986BF06B604FCFDCF089583B984E88B
:1006F00086BF06B607FEFDCF089520E4829FC001A5
:100700001124846886BF06B607FEFDCF83B1089525
:100710008EB5887F8EBD08958EB585608EBD089597
:100720008E98969A8EB58F7B8EBD1092D60389B720
:10073000806289BF1092D703BC98C49A08951F9213
:100740000F920FB60F9211242F933F938F939F9385
:1007500086B597B52091CA033091CB03821B930BCA
:1007600026B537B53093CB032093CA032EB530E4BA
:1007700023272EBD8F31910510F01092D6032091C2
:10078000D603222319F021E02093C9032091D60338
:10079000211111C01092C8031092C7031092C60312
:1007A0002EB520642EBD2091D6032F5F2093D60353
:1007B00022E02093C9032091C903213009F05AC0D7
:1007C0009C012A5031092531310510F01092C903DE
:1007D0002091C903213009F04DC0429728F0809143
:1007E000D6038F5F8093D6038091D6038230E8F1E1
:1007F0008091D60380FD39C08091C7039091C803D2
:10080000880F991F9093C8038093C7030EB406FE08
:1008100005C081609093C8038093C7038091C6038D
:100820008F5F8093C6038D3000F18091C703909154
:10083000C803282F2F732093D5039C01207C377089
:10084000689415F8369527951694E1F72093D4030C
:1008500088279870892F8695869586958093D303EF
:100860001092C90381E08093D7038091D6038F5FF4
:100870008093D6038091C903811105C01092D603DD
:100880008EB58F7B8EBD9F918F913F912F910F9051
:100890000FBE0F901F9018951092D7038FEF809383
:1008A000D5038093D403089586B382958F7091E029
:1008B0008927817090E00895CF93C82F8A3019F46A
:1008C0008DE00E945C045D9BFECFCCB9CF91089572
:1008D0005F9BFECF8CB1089561E08BEF0C94E8171D
:1008E00060E08BEF0C94E8178BEF0E942C1891E0DE
:1008F000811101C090E0892F089590BD89B988E1E8
:100900008AB986E880BD08955F9B02C08CB10895C6
:1009100080E0089580E8089523E0969587952A95CC
:10092000E1F7089528E0829FC0011124089598E01E
:10093000899FB0011124E199FECF48E050E08BEF90
:1009400093E00C943722CF9360E070E080E09FE367
:100950000E94E9078091FB031F928F938091FC0313
:100960001F928F938091FD031F928F938091FE03BE
:100970001F928F938091FF031F928F9380910104A8
:100980008F93809100048F9387ED90E09F938F93D6
:100990000E941D2080910204C4E66C2F0E94801CDE
:1009A0002DB73EB7225F3F4F0FB6F8943EBF0FBE44
:1009B0002DBF992301F11F929F9383EF90E09F93A6
:1009C0008F930E941D20809102046C2F0E94801C36
:1009D0000F900F900F900F90813019F483E091E009
:1009E00004C0823041F48CE091E09F938F930E9489
:1009F0001D200F900F908AE090E0CF910C94312051
:100A00000E942C1B20910604822F992787FD909528
:100A10009F932F932091F703822F992787FD90951D
:100A20009F932F932091F603822F992787FD90950E
:100A30009F932F9320911004822F992787FD9095E3
:100A40009F932F932091F803822F992787FD9095EC
:100A50009F932F93809108048F93809107048F9325
:100A600087E191E09F938F930E941D208DB79EB7E1
:100A70000E960FB6F8949EBF0FBE8DBF08958EEFF1
:100A80000E94B91833E0969587953A95E1F7089555
:100A90008CEF0E94B91843E0969587954A95E1F747
:100AA0000895CF93C82F0E94480590E08C0F911DA8
:100AB0008038910510F080589109CF910C949704DB
:100AC000FF920F931F93CF93DF93F82E811109C0EC
:100AD00084E391E0DF91CF911F910F91FF900C94EF
:100AE000382081E08093CF03C0E0D0E000E411E043
:100AF0008C2F21969C2F91509F1578F40E945105C0
:100B0000DF93CF931F930F930E941D200E94A30495
:100B10000F900F900F900F90EBCFDF91CF911F911F
:100B20000F91FF90089585E491E09F938F930E9429
:100B30001D200E9400050F900F9080E80C94600526
:100B40008EEF0E94B918BC018CEF0C94A5188CEFA5
:100B50000E94B9188130944068F48EEF0E94B91851
:100B60008130944038F48CEF0E94B9188EEF0E94C7
:100B7000B9180DC060E070E08EEF0E94A5180E94C9
:100B8000A00560E070E08AE794E40E94E9078A9893
:100B9000929A8B98939A8D98959A8C98949AA298F9
:100BA000AA9AA398AB9AA498AC9AA598AD9AA6983D
:100BB000AE9AA798AF9A87E690E00E947D048EE6F1
:100BC00090E090931A048093190480E690E090934B
:100BD0001804809317040895CF930E944805C82FE6
:100BE0000E943F0591E0C81390E0892FCF910895AE
:100BF000CF930E944805C82F0E943F058C1740F4F0
:100C00000E943F05C82F0E94480590E89C0F06C02F
:100C10000E943F05C82F0E9448059C2F981B892FD2
:100C2000CF9108950E94EC05811110C087E591E0F5
:100C30009F938F930E941D200E9400050E94F8053B
:100C40000E9460050F900F900C94A00560E070E08A
:100C500080EA90E40C94E907CF93DF939091060427
:100C60009093FB039091F7039093FC039091F6030C
:100C70009093FD03909110049093FE039091F803DC
:100C80009093FF03209107043091080430930104EE
:100C90002093000491E0960FE62FF0E0E951FC4F1D
:100CA000208134E6239F900D11249093020498E054
:100CB000899FE0011124E199FECF48E050E0BE0198
:100CC0008BEF93E00E944722BE01685F7F4F8FEF5A
:100CD00093E0861B970B079744F460E070E08AEF7F
:100CE00093E40E94E90760E070E08EEFDF91CF911E
:100CF0000C94A5180F931F93CF93DF930E942C1B86
:100D0000C7EED3E010E08991882319F10E94E00733
:100D100085E090E00E9449000E943F058F3729F44A
:100D20000E9448058823F9F00FC00E944805082F4B
:100D30000E943F05202F30E090E0019628173907E8
:100D400019F411C00E9412060E943F05612F0E94F3
:100D50002C061F5F1A30B9F682E0DF91CF911F9108
:100D60000F910C94F80780910E04833059F760E0DE
:100D700070E88BE395E40E94E9070E946C04E9CFD8
:100D800010920C04829903C081E080930C0480913E
:100D90000C04089510920C04839903C081E08093A1
:100DA0000C0480910C04089510920C04859903C0E2
:100DB00081E080930C0480910C04089510920C043F
:100DC000849903C081E080930C0480910C04089501
:100DD00010920C049A9903C081E080930C048091D6
:100DE0000C04089510920C049B9903C081E0809339
:100DF0000C0480910C04089510920C049C9903C07B
:100E000081E080930C0480910C04089510920C04EE
:100E10009D9903C081E080930C0480910C04089597
:100E200010920C049E9903C081E080930C04809181
:100E30000C04089510920C049F9903C081E08093E4
:100E40000C0480910C040895811102C00C94C0061A
:100E5000813011F40C94CA06823011F40C94D4063B
:100E6000833011F40C94DE06843011F40C94E806FF
:100E7000853011F40C94F206863011F40C94FC06C3
:100E8000873011F40C940607883011F40C94100785
:100E9000893011F40C941A078FEF08951F93CF93A4
:100EA000DF93CDEDD3E010E0812F0E9424078993DA
:100EB0001F5F1A30C9F7DF91CF911F910895BF923C
:100EC000CF92DF92EF92FF920F931F93CF93DF9316
:100ED0005DEDE52E53E0F52EC7EED3E0D12C00E01A
:100EE00010E0CC24C39462E0B62E8D2D0E9424071E
:100EF000F7019081891741F0813011F4B88206C062
:100F0000811104C0C88202C0188202C001E010E052
:100F1000F70181937F01D3942196FAE0DF12E5CFA8
:100F2000012B29F00E947A0681E08093CF03DF91A4
:100F3000CF911F910F91FF90EF90DF90CF90BF90D6
:100F40000895CF93DF93C0E0D0E0E199FECF60E059
:100F5000CE010E9457222196C11584E0D807A9F737
:100F6000DF91CF910C94A0052F923F921092D9035C
:100F70001092D8038091D8039091D9032091F9035E
:100F80003091FA0382179307C4F4D101ED91FC91DB
:100F9000E80FF91F80810E944A0160E070E088E458
:100FA00092E40E945D008091D8039091D90301964C
:100FB0009093D9038093D803DDCF3F902F9008956D
:100FC000979A60E070E080E89FE30E945D00979848
:100FD0000895979A0E945D009798089560E070E0E8
:100FE00080E490E40E94E9078FEF80937C000895ED
:100FF000CF93DF931F92CDB7DEB7811103C010925C
:101000007C0010C089830E9477018981813029F496
:101010000F90DF91CF910C94EE07823019F482E3A8
:1010200080937C000F90DF91CF9108950F931F93D1
:10103000CF93DF932AE030E0C1E04AE082179307C4
:1010400040F0CF5FB901469F9001479F300D1124BA
:10105000F5CF3093D9032093D80390930504809360
:10106000040480E090E00E9413031092D9031092D0
:10107000D8038C2F90E0C7E2D0E0C81BD90B8C01BD
:101080000D5F1F4F8091D8039091D9038C179D0756
:10109000FCF460E00E945C018091040490910504DE
:1010A0000E94B80161E08091D8030E945C018091A8
:1010B0000404909105040E94B8018091D803909196
:1010C000D903800F911F9093D9038093D803DACF6F
:1010D00060E070E08AEF93E40E945D000E944C049F
:1010E00081E08093CF03DF91CF911F910F910895FD
:1010F00020910404309105044AE0429FC001439FBF
:10110000900D1124893E23E0920710F088EE93E0C1
:101110009093050480930404809104049091050445
:101120000C94160880910404909105046AE070E024
:101130000E948C1C6115710529F070930504609361
:10114000040406C081E090E09093050480930404B9
:1011500080910404909105040C941608CF93DF93BA
:10116000EC011092CF0380910E04813009F460C02D
:101170000E94630180E691E00E945001CE010E942E
:10118000B80161E080E00E945C01209719F48AE6D2
:1011900091E01CC0C130D10519F489E791E016C077
:1011A000C230D10519F489E891E010C0C330D105EF
:1011B00019F482E991E00AC0C430D10519F480EA3B
:1011C00091E004C0259721F480EB91E00E9450014A
:1011D0001092D9031092D8038091D8039091D9032B
:1011E0000597B4F460E070E080EF91E40E945D0048
:1011F00060E070E080EA90E40E94E9078091D80303
:101200009091D90301969093D9038093D803E4CFAA
:1012100060E070E08AEF93E40E945D0041E050E0FE
:101220006FE070E084E190E00E94C1020E946301DF
:101230000E944C0481E08093CF03DF91CF91089509
:10124000811103C08FEB91E01DC0813019F482EC55
:1012500091E018C0823019F485EC91E013C083301E
:1012600019F488EC91E00EC0843019F48BEC91E015
:1012700009C0853019F48EEC91E004C0863021F469
:1012800081ED91E00C945001089560E08091D103CC
:101290000E945C018091F6038A3024F480E090E0A3
:1012A0000E94B8018091F603992787FD90950E94CE
:1012B000B80186E393E00E9450018091F7038A30E1
:1012C00024F480E090E00E94B8018091F703992710
:1012D00087FD90950E94B80186E393E00E9450013B
:1012E000809106048A3024F480E090E00E94B801E6
:1012F00080910604992787FD90950E94B80186E3A6
:1013000093E00E9450018091F5038A3024F480E03C
:1013100090E00E94B8018091F503992787FD909590
:101320000C94B8010E94450961E08091D1030E94AC
:101330005C01809110048A3024F480E090E00E94E7
:10134000B80180911004992787FD90950E94B801FB
:1013500086E393E00E9450018091F8038A3024F4E0
:1013600080E090E00E94B8018091F803992787FD02
:1013700090950E94B80186E393E00E94500180910D
:101380000704909108040E94B80184ED91E00E9446
:101390005001809109040E94200984ED91E00E948F
:1013A00050018091DA038A3024F480E090E00E94BA
:1013B000B8018091DA03992787FD90950C94B801C4
:1013C00060E08091D1030E945C018091DA038A3051
:1013D00024F480E090E00E94B8018091DA0399271C
:1013E00087FD90950C94B801CF93C82F81110E946E
:1013F000450961E08091D1030E945C01C230C1F5D2
:101400008091F803811103C086ED91E02EC0109207
:10141000D9031092D8032091D8033091D9032730F3
:1014200031050CF58091F803992787FD909502C04E
:10143000959587952A95E2F780FF0BC084ED91E0A2
:101440000E9450018091D8039091D90301960E9487
:10145000B8018091D8039091D90301969093D90354
:101460008093D803D8CF84ED91E0CF910C945001B4
:10147000C33019F5809110048A3024F480E090E0A4
:101480000E94B80180911004992787FD90950E94D1
:10149000B80186E393E00E9450018091F8038A30FE
:1014A00024F480E090E00E94B8018091F80399272D
:1014B00087FD9095CF910C94B801CF9108955091EC
:1014C0000304523041F480910404909105049195F5
:1014D0008195910909C0513029F4809104049091BB
:1014E000050402C080E090E040910F0420910D04BB
:1014F0004E3F21F4281B20930D040895222329F048
:101500003091D203343009F0C4C02091F3033091FC
:10151000F4034F3F09F4C5C0411106C06091F603C2
:10152000680F6093F60317C0413031F46091F70300
:10153000680F6093F7030FC0423031F460910604E6
:10154000680F6093060407C0433029F46091F503E7
:10155000680F6093F5032115310519F0233031052B
:1015600061F5443031F490911004980F9093100479
:101570000895453031F49091F803980F9093F80353
:101580000895232B09F09BC0463059F4209107049D
:1015900030910804280F391F309308042093070462
:1015A0000895473031F490910904980F90930904FD
:1015B0000895483009F083C07DC02230310509F01C
:1015C0007EC0443069F4513021F48091F803816089
:1015D0005DC0523009F073C08091F8038E7F56C011
:1015E000453069F4513021F48091F80382604EC097
:1015F000523009F064C08091F8038D7F47C04630B7
:1016000069F4513021F48091F80384603FC0523076
:1016100009F055C08091F8038B7F38C0473069F4DA
:10162000513021F48091F803886030C0523009F0C5
:1016300046C08091F803877F29C0483061F451305B
:1016400021F48091F803806121C05230C1F580916E
:10165000F8038F7E1BC0493061F4513021F4809132
:10166000F803806213C0523051F58091F8038F7DEA
:101670000DC04A3021F5513021F48091F803806487
:1016800005C05230E1F48091F8038F7B8093F8031A
:1016900008952130A1F44F3F59F42091F303309184
:1016A000F403281B390B3093F4032093F3030895BC
:1016B000411105C09091DA03980F9093DA030895D1
:1016C00080910F048E5F823050F4809104049091D9
:1016D0000504029720F081E090E00E9416088091B6
:1016E0000D04882329F09091D203943009F047C06B
:1016F00080910F04843050F480910404909105048B
:101700000B9720F08AE090E00E9416088091F30386
:101710009091F403009711F00397B9F580910F04AD
:101720008450823050F480910404909105040B970A
:1017300020F08AE090E00E9416088091F3039091D7
:10174000F403892B11F580910F04873051F48091B7
:10175000040490910504029720F081E090E00E943B
:10176000160880910F04883081F4809104049091D0
:1017700005040B9750F08AE090E00C941608813035
:1017800021F480910F04882381F308958091D2037E
:10179000843001F1853021F580910D04811110C054
:1017A0008091F3039091F4030097D1F0813091057B
:1017B00099F08230910591F0039791F486E00895B5
:1017C000813071F42091F3033091F403213031051D
:1017D00039F407C089E0089584E008958BE0089506
:1017E00080E00895CF931092CF0380E090E00E94B4
:1017F000130360E080E00E945C0180910D04882367
:1018000029F09091D203943009F090C0C0910F0458
:101810000E94C60B2C2F332727FD309590E0281708
:101820003907B1F48091F3039091F403892B69F4A3
:101830008091D203843019F48EED91E05BC0853045
:1018400009F093C08FEE91E055C08FEF91E052C048
:10185000C11103C088EA91E00EC0C13019F48EE0D6
:1018600092E009C0C23019F485E192E004C0C330AF
:1018700021F48DE192E00E9450018091F303909158
:10188000F403009719F08330910531F580910F042E
:10189000843019F48AE292E004C0853021F480E3B8
:1018A00092E00E9450018091F3039091F403892B00
:1018B00009F05BC080910F04863019F488E392E050
:1018C00019C0873019F48CE392E014C0883009F015
:1018D0004CC08BE492E00EC0029709F046C08091A4
:1018E0000F04843019F481E592E004C0853029F4B6
:1018F0008EE592E00E94500138C0863019F485E6EA
:1019000092E0F8CF873019F48BE692E0F3CF88307D
:1019100019F484E792E0EECF893019F48BE792E076
:10192000E9CF8A3011F582E892E0E4CF8130E9F422
:10193000C0910F040E94C60B2C2F332727FD309532
:1019400090E02817390771F48091F3039091F40324
:10195000009719F48CE892E0CDCF019731F48AE931
:1019600092E0C8CFCC2309F4B4CF80E991E00E9483
:1019700049000E944C0481E08093CF03CF910895E9
:10198000811103C087EA92E004C0813021F483EB27
:1019900092E00C9450010895811103C084EC92E010
:1019A00004C0813021F483ED92E00C94500108953D
:1019B000811103C081EE92E00EC0813019F481EFF5
:1019C00092E009C0823019F481E093E004C08330D2
:1019D00021F482E193E00C94500108958091F60384
:1019E00087FF04C087E18093F60304C0883114F0B8
:1019F0001092F6038091F70387FF04C08BE3809376
:101A0000F70304C08C3314F01092F703809106049E
:101A100087FF04C08BE38093060404C08C3314F06A
:101A2000109206048091F50387FF04C083E680933B
:101A3000F5030895843614F01092F503089580910B
:101A4000F803181644F08091F3039091F403029781
:101A500069F08CE009C08D304CF08091F3039091D7
:101A6000F403029719F081E08093F8032091F803C2
:101A7000322F3D7F80910704909108043130E9F0C6
:101A80002530D9F049EF420F4230B8F02A30A9F0A2
:101A90002C3099F0343099F0393089F0223089F4C3
:101AA0009C0123703327232B61F02091F3033091A5
:101AB000F403232B31F42CE105C02FE103C02EE108
:101AC00001C02DE140911004141644F4552747FD40
:101AD000509530E0241735071CF421E020931004C2
:101AE00089312CEF92071CF48FE097E205C080311A
:101AF000974234F089E19CEF9093080480930704A7
:101B00008091090487FF04C086E08093090404C023
:101B1000873014F0109209048091DA0387FF04C023
:101B200083E68093DA030895843614F01092DA0382
:101B300008951F93CF93DF930E94B80186E893E046
:101B40000E94500180910004909101040E94B8010C
:101B500086E393E00E9450018091FF038A3020F4D5
:101B600080E090E00E94B8018091FF0390E00E9425
:101B7000B80186E393E00E9450018091FE038A3011
:101B800020F480E090E00E94B8018091FE0390E094
:101B90000E94B8018CEA93E00E9450018091FD03FD
:101BA0008A3020F480E090E00E94B8018091FD032B
:101BB00090E00E94B80186E393E00E94500180917A
:101BC000FC038A3020F480E090E00E94B80180910C
:101BD000FC0390E00E94B80186E393E00E9450016C
:101BE0008091FB038A3020F480E090E00E94B801ED
:101BF0008091FB0390E00E94B8018CEA93E00E9480
:101C000050018091020414E6612F0E94801CC92FAC
:101C1000D0E0209721F183E293E00E945001CE01B1
:101C20000E94B8018CEA93E00E9450018091020466
:101C3000612F0E94801C90E09093D9038093D80379
:101C40008130910519F483E091E004C0029739F4E2
:101C50008CE091E0DF91CF911F910C945001DF91C6
:101C6000CF911F910895CF93DF93EC018091D20320
:101C7000833049F48C2F0E945105CE010196DF91EB
:101C8000CF910C94990D8530E9F480910F048E3F2B
:101C900029F48C2FDF91CF910C94C00C90910D04FE
:101CA000911107C08F3F71F48C2FDF91CF910C946D
:101CB000D80C913039F48F3F29F48C2FDF91CF91DC
:101CC0000C94CC0CDF91CF9108950F931F93CF9379
:101CD000DF93EC018B016F3F8FEF780761F460E0D9
:101CE00080E00E945C0184E391E0DF91CF911F913D
:101CF0000F910C945001CF3F8FEFD80761F461E052
:101D000080E00E945C01CE010196DF91CF911F918E
:101D10000F910C94330E60E080E00E945C01CE01D4
:101D20000E94330EC017D10751F7DF91CF911F9159
:101D30000F9108958091040490910504029720F07A
:101D400081E090E00E9416088091CE0387301CF05D
:101D50001092CE0305C087FF03C086E08093CE03B8
:101D600080E090E00E94130360E080E00E945C014C
:101D700087E293E00E94500161E080E00E945C01F4
:101D800088E393E00E9450018091CE03992787FD5C
:101D900090950E94B8018CE393E00C94500180E090
:101DA00090E00E94130360E080E00E945C0180915B
:101DB000D50390E00E94B80160E086E00E945C01DB
:101DC0008091D40390E00E94B80161E080E00E941D
:101DD0005C018091D30390E00C94B8011092D10380
:101DE0000E942C1B80E090E00E94130360E08BE0D7
:101DF0000E945C018091D003811103C083E693E0CF
:101E000004C0813021F484ED91E00E9450010E94D1
:101E1000920980910F04811103C08091DC0381112C
:101E20000E940B1B80910F048823F1F083E18093C3
:101E3000D10360E081E10E945C0184ED91E00E94A9
:101E400050018091D10361E082500E945C0184EDD9
:101E500091E00E94500161E08091D1030E945C01F9
:101E600080910F040E94F4098091DC038823B9F06B
:101E700085E28093D10360E083E20E945C0184EDFF
:101E800091E00E9450018091D10361E082500E9454
:101E90005C0184ED91E00E9450010E94E00960E045
:101EA0008CE00E945C010E94DF1B41E050E00C943A
:101EB000D30180E090E00E9413038091040490918C
:101EC00005040B9720F08AE090E00E9416088091AC
:101ED000F3039091F4038F3F9F4F2CF40E94F80579
:101EE00090E001970CC00E94F80590E02091F30368
:101EF0003091F4032817390734F08FEF9FEF909358
:101F0000F4038093F3030E94F805682F70E061509A
:101F100071098091F3039091F4030C94650E8F92F4
:101F2000AF92BF92CF92EF920F9380910F0487FDF3
:101F300010920F040E94600B80E090E00E94130357
:101F400080910304882321F00E945F0A1092030409
:101F50000E94C60B20910F04332727FD309590E097
:101F60002817390711F5A0900704B0900804809055
:101F7000DA03C090F803E090090400911004209166
:101F8000F503409106046091F7038091F6030E94E7
:101F900064190E9444181092CF030E94630181E0EB
:101FA0008093DC0380937E0008C00E94EE0C0E94A8
:101FB0001F0D1092D1030E9492098091DC038130A1
:101FC00021F40E94F20B1092DC030F91EF90CF905E
:101FD000BF90AF908F900895CF92EF920F931F9381
:101FE000CF93DF9380910F048E3F1CF48EEF80938C
:101FF0000F048091DC03813079F580910F048E3FCE
:1020000091F40E940B1B80910D04811103C00E946A
:102010003D1A04C0813039F40E94F91A90E090937F
:10202000F4038093F30380910F048F3F31F4809188
:102030000D0487FF11C08EEF0DC081110DC080917E
:102040000D04823048F48091F3039091F40397FFDC
:1020500003C08FEF80930F040E94600B80E090E03C
:102060000E94130380910304882321F00E945F0AD9
:102070001092030410910F0480910D041E3F89F407
:102080008F3F14F481E003C082301CF08FEF809307
:102090000D0480910D0461E070E0992787FD909513
:1020A00075C0811155C0C091F303D091F4031F3F57
:1020B00091F4CF3F8FEFD8071CF483E090E004C089
:1020C000249734F08FEF9FEF9093F4038093F30302
:1020D00063E070E057C00E94C60B212F332727FD15
:1020E000309590E02817390711F0209731F581E0FD
:1020F00080937E008093DC03219609F47BC0C0901E
:10210000DA03E090F803009110042091F503409168
:1021100006046091F7038091F6030E94A81A80914B
:10212000F3030E942C1A8091F3039091F403892BFE
:1021300009F060C00E9495185DC00E94EE0C0E94DC
:102140001F0D1092D1038091F3030E94F40952C035
:10215000813009F04FC0C091F303D091F4031F3FC9
:10216000C1F4CF3F8FEFD8071CF481E090E004C0AA
:10217000229734F08FEF9FEF9093F4038093F30353
:1021800061E070E08091F3039091F4030E94650E8A
:1021900031C00E94C60B212F332727FD309590E0D8
:1021A0002817390711F02097F9F481E080937E0019
:1021B0008093DC03209719F40E94C3191BC0219758
:1021C000C9F4C090DA03E090F80300911004209164
:1021D000F503409106046091F7038091F6030E9495
:1021E000A81A0E94CB1906C00E941F0D1092D1039D
:1021F0000E94E0098091DC03813041F480910F045A
:1022000087FD04C00E94F20B1092DC03DF91CF9196
:102210001F910F91EF90CF90089580E090E00C9483
:10222000130380910E04833081F480E090E00E94DB
:10223000130380E493E00E94500161E080E00E947B
:102240005C0180E593E00C9450018091D2038111F0
:1022500002C00C949A0E813011F40C94CF0E82308F
:1022600011F40C94EE0E833011F40C94590F843059
:1022700011F40C948F0F853011F40C94EC0F863010
:1022800011F40C940D1108958B339105E1F58091B3
:10229000CE038093D20390E00E94AE088091D203D7
:1022A000813009F442C0823059F40E944E070E94E6
:1022B0003D1A80930F040E94F91A8093DC0335C005
:1022C0008330E1F0843071F410920F041092F40323
:1022D0001092F30381E08093DC03109203040E94C8
:1022E0002C1B23C0853009F58EEF80930F0481E00D
:1022F0008093DC031092030410920D041092F403F7
:102300001092F30312C08032910531F48091CE0314
:1023100090910404890F07C0819739F48091CE030E
:1023200090910404891B8093CE0381E08093CF03B6
:1023300008952F923F92AF92BF92CF92DF92EF9289
:10234000FF920F931F93CF93DF93CDB7DEB7C055A6
:10235000D1090FB6F894DEBF0FBECDBF6C01893234
:10236000910509F0F7C10E9488031092CF030E94E3
:10237000630188E290E09093FA038093F90380E58B
:10238000E5E8F0E0DE01119601900D928A95E1F703
:1023900084E090E00E94D11E7C011092D90310923B
:1023A000D80358E2B52E0091D8031091D90302301A
:1023B0001105ACF580E590E00E94D11EF801EE0F0A
:1023C000FF1FEE0DFF1D9183808310920F0440E0EC
:1023D000B09E9001B19E300D1124542FE42FFF27A1
:1023E000E7FDF0954F5FE832F10584F4DC01A50FBD
:1023F000B11D57FDBA95E20FF31F61E070E06C0F5D
:102400007D1FE60FF71F50815C93E7CF50930F04B9
:102410000F5F1F4F1093D9030093D803C4CF1092BE
:10242000D9031092D8038091D8039091D9038832B0
:10243000910594F4D701ED91FC91E80FF91F80818B
:102440000E944A018091D8039091D90301969093FC
:10245000D9038093D803E7CF61E080E00E945C015C
:102460001092D9031092D8038091D8039091D90388
:1024700088329105A4F4D7011296ED91FC9113973F
:10248000E80FF91F80810E944A018091D803909142
:10249000D90301969093D9038093D803E5CF88E2BE
:1024A00090E09093FA038093F90381E080930F0406
:1024B00080910F04882309F41CC184E090E00E94FD
:1024C000D11E8C011092D9031092D803A090D8038A
:1024D000B090D903E2E0AE16B104BCF48091F903E8
:1024E0009091FA03880F991F0E94D11EF501EE0FFB
:1024F000FF1FE00FF11F91838083BFEFAB1ABB0A70
:10250000B092D903A092D803E1CF0E946D0110923E
:10251000D9031092D8038091D8039091D9032091C8
:10252000F9033091FA03821793079CF4D801AD9018
:10253000BC90A80EB91E0E944D01F50180838091C8
:10254000D8039091D90301969093D9038093D8032F
:10255000E2CF61E080E00E945C011092D90310920A
:10256000D8038091D8039091D9032091F903309139
:10257000FA0382179307ACF4D8011296AD90BC9081
:102580001397A80EB91E0E944D01F501808380911A
:10259000D8039091D90301969093D9038093D803DF
:1025A000E0CF0E9463018091F9039091FA0340917A
:1025B0000F0420E030E0281739070CF5F801A0815E
:1025C000B181A20FB31FF701A080B180A20EB31E8C
:1025D0006C91D5015C9165130EC0F801A281B381A5
:1025E000A20FB31FF701A280B380A20EB31E6C919D
:1025F000D5015C91651340E02F5F3F4FDCCF4093E6
:102600000F043093D9032093D8030E945404892BDC
:1026100011F010920F0480910F04811105C01092E7
:10262000D9031092D80348C01092D9031092D8034E
:102630008091D8039091D9032091F9033091FA0346
:102640008217930794F4D801ED91FC91E80FF91FDC
:1026500080810E944A018091D8039091D90301960C
:102660009093D9038093D803E3CF61E080E00E9488
:102670005C011092D9031092D8038091D8039091F5
:10268000D9032091F9033091FA03821793073CF69E
:10269000D8011296ED91FC911397E80FF91F8081F4
:1026A0000E944A018091D8039091D903019690939A
:1026B000D9038093D803E1CFA090D803B090D90379
:1026C000E2E0AE16B1048CF4F501EE0FFF1FE00F4F
:1026D000F11F808191810E94691FBFEFAB1ABB0A75
:1026E000B092D903A092D803E7CFC8010E94691F16
:1026F000DFCE1092D9031092D8030091D803109125
:10270000D9030230110584F4F801EE0FFF1FEE0D1E
:10271000FF1D808191810E94691F0F5F1F4F1093E1
:10272000D9030093D803E9CFC7010E94691F0E9413
:10273000E00760E070E080E291E40E945D000E94AA
:10274000E00760E070E080E291E40E945D000E949A
:10275000E00758C18C30910509F056C10E948803EA
:102760001092CF030E94630184E090E00E943E0338
:1027700061E089E00E945C018EE593E00E945001D7
:1027800060E070E08AEF93E40E945D000E946D01BA
:1027900085E693E00E94500160E070E08AEF93E4E8
:1027A0000E945D0041E050E061E070E080E090E078
:1027B0000E94C10260E070E08FE294E40E945D003C
:1027C00082E090E00E943E0360E070E08FE294E4DB
:1027D0000E945D0081E090E00E943E0360E070E0B6
:1027E0008FE294E40E945D0082E090E00E943E034C
:1027F00060E070E08FE294E40E945D0085E090E08C
:102800000E943E0360E070E08AE794E40E945D006D
:1028100084E090E00E943E0340E050E061E070E020
:1028200080E090E00E94C10260E070E08AE794E4FA
:102830000E945D0040E050E061E070E080E090E0E8
:102840000E94EA0283E090E00E943E0360E070E0B4
:102850008AE794E40E945D0085E090E00E943E03D8
:1028600061E080E00E945C0181E793E00E945001FA
:1028700060E070E88BEB94E40E945D0061E089E029
:102880000E945C0186E090E09093FA038093F90344
:102890000E94D11E9A8389831092D9031092D80383
:1028A0008091D8039091D9032091F9033091FA03D4
:1028B00082179307C4F409811A81080F191F0E9417
:1028C0004D01D8018C9360E070E088EC92E40E94A6
:1028D0005D008091D8039091D90301969093D9031C
:1028E0008093D803DDCF41E050E061E070E080E00C
:1028F00090E00E94EA0260E070E88BEB94E40E94B2
:102900005D0083E090E00E943E0380E090E00E9442
:10291000130360E070E88BEB94E40E945D0061E0DB
:1029200080E00E945C01FE0131961F010E94B40705
:1029300084E090E00E943E0360E089E00E945C0138
:102940000E94B40761E088E00E945C0185E090E0AD
:102950000E943E030E94B40760E081E00E945C0197
:102960000E94B40789819A810E94691F83E090E0E8
:102970000E943E0360E070E88BEB94E40E945D00EF
:1029800041E050E06FE070E084E190E00E94C1021D
:1029900041E050E06FE070E084E190E00E94EA02E4
:1029A00081E090E00E94130384E090E00E943E03E7
:1029B00060E070E08AE794E40E945D0041E050E04E
:1029C0006FE070E084E190E00E94EA0241E050E0B4
:1029D0006FE070E084E190E00E94C10283E090E04B
:1029E0000E943E0382E090E00E94130360E070E0EA
:1029F0008AEF93E40E945D000E94630181E090E011
:102A00000E943E030E948C03C6010E943E030E9466
:102A10001111C05BDF4F0FB6F894DEBF0FBECDBF04
:102A2000DF91CF911F910F91FF90EF90DF90CF90AA
:102A3000BF90AF903F902F9008958A32910519F47E
:102A40000E949D180AC08932910519F40E948D18C0
:102A500004C0CB9711F40E94951881E08093CF03B6
:102A600008958C30910561F46130710569F50E941B
:102A7000630189E793E00E9450010E94A10724C0EE
:102A80008932910519F40E9493051EC08032910588
:102A900059F48091F3039091F40320910404309150
:102AA0000504821B930B0CC0819771F48091F30392
:102AB0009091F4032091040430910504820F931F38
:102AC0009093F4038093F30381E08093CF03089500
:102AD0008031910521F480910F048F5F06C0813110
:102AE000910549F480910F04815080930F0481E097
:102AF0008093DC0312C08032910511F481E004C0A0
:102B00008132910521F482E08093030406C0CB97C3
:102B100021F40E94C60B80930F0481E08093CF03C1
:102B200008958031910521F480910F048F5F06C0D4
:102B30008131910549F480910F04815080930F04F5
:102B400081E08093DC0312C08032910511F481E0B2
:102B500004C08132910521F482E08093030406C011
:102B6000CB9721F40E94C60B80930F0481E08093E1
:102B7000CF03089581E08093CF0308950F931F93AF
:102B8000CF93DF93EC018B010E94E00780910E044C
:102B9000833019F410920E04DCC08091D2038111AD
:102BA00005C0B801CE010E94441128C0813029F42B
:102BB000B801CE010E94991121C0823029F4B801D8
:102BC000CE010E941D151AC0833029F4B801CE0130
:102BD0000E94311513C0843029F4B801CE010E943F
:102BE00068150CC0853029F4B801CE010E949115FA
:102BF00005C0863019F481E08093CF03C632D10539
:102C000051F51092CF030E94630188E893E00E947F
:102C1000500161E080E00E945C0184E993E00E9441
:102C2000500160E070E08AE793E40E945D0041E0BB
:102C300050E06FE070E084E190E00E94C10241E06A
:102C400050E06FE070E084E190E00E94EA0281E0F1
:102C50008093CF0338C0CF30D10589F40115110519
:102C600031F40E94770182E380937C002CC0013014
:102C7000110549F50E9477010E94EE0724C0CE326B
:102C8000D10549F441E050E061E070E080E090E07F
:102C90000E94C10227C0C232D10549F441E050E090
:102CA00061E070E080E090E00E94EA022DC0C43252
:102CB000D10549F441E050E06FE070E084E190E03C
:102CC0000E94C1022BC0C332D10561F441E050E043
:102CD0006FE070E084E190E0DF91CF911F910F9160
:102CE0000C94EA02CC32D10531F4DF91CF911F91DF
:102CF0000F910C947808CD32D10531F4DF91CF914A
:102D00001F910F910C949208CE30D10539F4013007
:102D1000110521F581E080937E0020C0C436D105E5
:102D2000E9F48091D003813069F41092D00360E01F
:102D300070E08AEF93E40E94E9070E9488031092F2
:102D40007C000CC081110AC081E08093D0030E94F6
:102D50008C030E94770182E380937C00DF91CF9106
:102D60001F910F910895CF93DF9300D000D0CDB77E
:102D7000DEB720917C0027FD0DC06B837C838983A7
:102D80009A830E94770122E320937C009A818981B3
:102D90007C816B810F900F900F900F90DF91CF91FE
:102DA0000C94BE151092D9031092D80320917D0087
:102DB0008091D303223079F0332727FD309590E0BE
:102DC0002817390731F481E090E09093D90380937C
:102DD000D8038091D30380937D000895CF93809191
:102DE000CF03813021F41092CF030E941111809102
:102DF000F103813009F061C01092DB031092F103FE
:102E000080910E04833091F40E94E0070E947701C4
:102E100082E380937C008EE993E09F938F930E94DE
:102E20001D200E9400050F900F902CC00E9474047A
:102E3000813041F480910E04811104C00E94120679
:102E40000E94700482E080930E040E9484048934FE
:102E500019F40E94930507C0893619F40E941206DE
:102E600002C0882319F081E08093CF030E94001BE9
:102E7000813041F40E94E0070E9412060E949518DA
:102E80000E9485188091D2038450823010F00E94F5
:102E90005F078091D203823019F481E08093CF03E1
:102EA00080917C0018161CF4815080937C008091E6
:102EB0007C00811102C00E94B601C0917E00C13029
:102EC000E1F410927E008091D20380930F0410925F
:102ED000D2031092CE0381E090E09093050480939A
:102EE000040460E070E08BE390E00E94B3168091F0
:102EF0000F048093CE03C093CF030E945404892B08
:102F000091F08EE190E00E9449000E945404892BC8
:102F100051F060E070E084E690E00E94B31684E631
:102F200090E00E9449008091D703882391F080911E
:102F3000D40381110EC00E94D2168091D5036091F6
:102F4000D8037091D90390E00E94B316CF910C94EE
:102F50004C04CF910895982F92959F708F702AE01E
:102F6000929F800D112408956AE00E94801C292FF1
:102F700030E1839FC0011124822B0895EF92FF92CC
:102F80001F93CF93DF9300D0CDB7DEB7F82E162F67
:102F900049835A830E946A0380EA0E9476038F2D38
:102FA0000E9476034981E42E5A81F52E140F1E15D6
:102FB00031F0F70181917F010E947603F8CF0F90E5
:102FC0000F90DF91CF911F91FF90EF900C947003C1
:102FD000CF93DF931F92CDB7DEB76983AE014F5F0A
:102FE0005F4F61E00E94BE170F90DF91CF9108956F
:102FF000EF92FF921F93CF93DF9300D0CDB7DEB750
:10300000F82E162F49835A830E946A0380EA0E9491
:1030100076038F2D0E9476030E946A0381EA0E9444
:10302000760311504981E42E5A81F52E1F3F59F045
:1030300081E0111101C080E00E947D03F7018193BE
:103040007F011150F3CF0F900F90DF91CF911F911F
:10305000FF90EF900C947003CF93DF931F92CDB746
:10306000DEB7AE014F5F5F4F61E00E94F8178981C4
:103070000F90DF91CF91089580E00E942C18682F67
:10308000606880E00C94E81780E00E942C18682F9C
:103090006F7780E00C94E81780E00E942C18881F5E
:1030A0008827881F089588E00E942C18877008954B
:1030B000CF93C82F88E00E942C18682F6C77C770B8
:1030C0006C2B88E0CF910C94E81780E00E942C18BC
:1030D000682F6F7B80E00C94E81780E00E942C182A
:1030E000682F606480E00C94E81780E00E942C1840
:1030F000682F677F80E00C94E81780E00E942C180E
:10310000682F686080E00C94E81780E00E942C181B
:10311000682F6E7F80E00C94E81780E00E942C18E6
:10312000682F616080E00C94E81780E00E942C1802
:10313000682F6D7F80E00C94E81780E00E942C18C7
:10314000682F626080E00C94E8171F93CF93DF93A1
:103150001F92CDB7DEB7182F79830E94E8177981C7
:10316000672F81E0810F0F90DF91CF911F910C9419
:10317000E8171F93CF93DF93182F0E942C18C82FA6
:10318000D0E081E0810F0E942C189E01382BC901EC
:10319000DF91CF911F9108952F923F924F925F92AE
:1031A0006F927F928F929F92AF92BF92CF92DF9257
:1031B000EF92FF920F931F93CF93DF93CDB7DEB7BC
:1031C0002B970FB6F894DEBF0FBECDBF1C013B019D
:1031D0002A012A873B870E9475180E946D18AE014C
:1031E0004F5F5F4F67E081E00E94F8170E9465180B
:1031F0000E947D18AE01485F5F4F62E080E10E944F
:10320000F81789810E94AB172A853B85F9018083D5
:103210008A810E94AB17F20180838B810E94AB17D9
:10322000F30180838C810E94AB17F10180837D8044
:10323000872D8F730E94AB17F80180831E81812F29
:103240008F710E94AB17F601808312951695177047
:10325000F7011083098510E0102F00278885082BBF
:1032600098012370332772947694769493E07922B0
:10327000872D90E02817390731F00F5F1F4FB801F5
:1032800080E10E94A518F501118300838F810E94BF
:10329000AB17F40180832B960FB6F894DEBF0FBEF8
:1032A000CDBFDF91CF911F910F91FF90EF90DF90F5
:1032B000CF90BF90AF909F908F907F906F905F90D6
:1032C0004F903F902F9008958F92AF92BF92CF92E0
:1032D000EF92FF920F93CF93DF93CDB7DEB72B978B
:1032E0000FB6F894DEBF0FBECDBFF82E822F4A87EF
:1032F0006B870E94B41789834A85842F0E94B41774
:103300008A836B85862F0E94B4178B838F2D0E9432
:10331000B4178C83802F0E94B4179A2D9295990F21
:10332000990F907C982B9D838C2D0E94B41790E26E
:10333000E99E700111248E298E83A886B986882D76
:103340000E94B4178F830E943C18AE014F5F5F4FFD
:1033500067E081E00E94BE17AE01485F5F4F62E008
:1033600080E10E94BE172B960FB6F894DEBF0FBE09
:10337000CDBFDF91CF910F91FF90EF90CF90BF9095
:10338000AF908F90089588E00E942C18682F6F7B73
:1033900088E00C94E81788E00E942C18682F60647D
:1033A00088E00C94E81788E00E942C18682F6F774B
:1033B00088E00C94E81788E00E942C18682F606859
:1033C00088E00C94E81788E00E942C18881F882752
:1033D000881F089588E00E942C18682F677F88E076
:1033E0000C94E81788E00E942C18682F686088E029
:1033F0000C94E81780E00E942C18682F6F7C80E006
:103400000E94E81780E00E942C18682F646080E01A
:103410000E94E8170E9465180E947D1884E00E94AF
:103420002C18682F6F7384E00E94E8170E9495188B
:103430000E9485180E94441882E00E9458180E9439
:10344000F2190E94CB190C94DB1988E00E942C1809
:1034500083FB882780F90895CF93C82F88E00E94C6
:103460002C18682F6F7C80E1C89F90011124207375
:10347000622B88E0CF910C94E81788E00E942C180A
:10348000807382958F7008954F925F926F927F92B2
:103490008F929F92AF92BF92CF92DF92EF92FF9264
:1034A0000F931F93CF93DF93CDB7DEB727970FB658
:1034B000F894DEBF0FBECDBF5C014B013A0129017C
:1034C000AE014F5F5F4F67E089E00E94F817898186
:1034D0000E94AB17F20180838A810E94AB17F3012F
:1034E00080838B810E94AB17F40180838C810E94C2
:1034F000AB17F50180838D810E94AB17F8018083A3
:103500000E943D1A823019F48E818F7703C08E811C
:103510000E94AB17F70180838F810E94AB17F601E1
:10352000808327960FB6F894DEBF0FBECDBFDF9124
:10353000CF911F910F91FF90EF90DF90CF90BF90B0
:10354000AF909F908F907F906F905F904F90089575
:10355000CF92EF92FF920F931F93CF93DF93CDB74C
:10356000DEB72A970FB6F894DEBF0FBECDBFF82E98
:10357000288749876A870E943D1A182F2885822F3D
:103580000E94B41789834985842F0E94B4178A83C7
:103590006A85862F0E94B4178B838F2D0E94B417E3
:1035A0008C83123019F48E2D8F7709C0133041F4BB
:1035B000802F0E94B4178D838E2D0E94B4178E83A6
:1035C0008C2D0E94B4178F83AE014F5F5F4F67E071
:1035D00089E00E94BE172A960FB6F894DEBF0FBE90
:1035E000CDBFDF91CF911F910F91FF90EF90CF90C2
:1035F000089588E00E942C1886FB882780F908959A
:1036000080E00E942C188170089580E00E942C18A0
:10361000869581700895CF92DF92EF92FF920F937B
:103620001F932AEDC22E23E0D22E38EFE32E33E093
:10363000F32E00E114E025EF33E046E054E067EFBD
:1036400073E086EF93E00E94441A1F910F91FF9060
:10365000EF90DF90CF9008958F929F92AF92BF929C
:10366000CF92DF92EF92FF920F931F934AED842E39
:1036700043E0942E57E0A52E54E0B52E68EFC62EF9
:1036800063E0D62E79E0E72E74E0F72E00E114E037
:1036900025EF33E046E054E067EF73E086EF93E018
:1036A0000E94CC181F910F91FF90EF90DF90CF9068
:1036B000BF90AF909F908F900895882319F0D89A6B
:1036C000D09A0895D0980895D89899B3892F817089
:1036D00090FF15C0D09A84EF91E00E945400D098DA
:1036E00086E490E00E94540084EF91E0C89904C001
:1036F0000E94540081E008950E94540080E00895E3
:10370000CF93DF93D82FD898C8E0D09AD0FF08C0C5
:1037100087E090E00E945400D09886E490E007C0D3
:1037200086E490E00E945400D09887E090E00E94E8
:103730005400D695C15049F7DF91CF9108950E946A
:10374000641B882339F08CEC0E94801B84E40E9467
:10375000801B8FEF0895CF93DF93D098D8E0C0E01F
:10376000D09A87E090E00E945400D09887E090E0E3
:103770000E945400C695C899C06886E490E00E94F3
:103780005400D15069F78C2FDF91CF9108950E949A
:10379000641B882389F08CEC0E94801B8EEB0E94B6
:1037A000801B0E94AB1B80930A040E94AB1B80937A
:1037B0000B0481E090E0089580E090E008950E947D
:1037C0009F1B8823F1F08AE094E00E94C71B609160
:1037D0000B0470E0762F662780910A04680F711D34
:1037E000882777FD8095982F0E94BA1D20E030E051
:1037F00040E85DE30E946E1E10920A0410920B04D2
:10380000089560E070E0CB01089585B5886085BDBE
:103810008FEF83BD89B7806889BF089585B58760BC
:1038200085BD089585B58E7F85BD08951F920F9241
:103830000FB60F9211248F938091DB03843119F41A
:1038400081E08093F1038091DB038F5F8093DB0342
:103850008F910F900FBE0F901F9018958F9A88EE42
:1038600093E00E9449000E94790184E690E00E9462
:1038700059030E94FA190E94DF1B0E94051C0E9436
:103880000E1C0E9490030E94A7050E948C03C1E0B9
:10389000C093D0030E9477010E94EE07C0930E04EC
:1038A0008EEA93E00E9450018CED95E00E94490061
:1038B00061E088E00E945C018CEB93E00E94500183
:1038C00088EE93E00E94490041E050E06FE070E034
:1038D00084E190E00E94C1020E9463010E94EE1602
:1038E00082E08093CE0360E070E08BE390E00E9482
:1038F000B31683E080930E0478940E94EE16FDCFF9
:10390000991B79E004C0991F961708F0961B881F31
:103910007A95C9F780950895AA1BBB1B51E107C092
:10392000AA1FBB1FA617B70710F0A61BB70B881F4F
:10393000991F5A95A9F780959095BC01CD010895DE
:103940000E94A71CB7FF0895821B930B0895A29FA6
:10395000B001B39FC001A39F700D811D1124911D63
:10396000B29F700D811D1124911D08955058BB27E1
:10397000AA270ED075C166D130F06BD120F031F49A
:103980009F3F11F41EF45BC10EF4E095E7FB51C1BB
:10399000E92F77D180F3BA17620773078407950779
:1039A00018F071F49EF58FC10EF4E0950B2EBA2F2E
:1039B000A02D0B01B90190010C01CA01A001112435
:1039C000FF27591B99F0593F50F4503E68F11A16E1
:1039D000F040A22F232F342F4427585FF3CF469572
:1039E00037952795A795F0405395C9F77EF41F1694
:1039F000BA0B620B730B840BBAF09150A1F0FF0F5E
:103A0000BB1F661F771F881FC2F70EC0BA0F621F49
:103A1000731F841F48F4879577956795B795F79539
:103A20009E3F08F0B3CF9395880F08F09927EE0FCB
:103A3000979587950895D9D008F481E008950CD022
:103A40000FC107D140F0FED030F021F45F3F19F0F4
:103A5000F0C0511139C1F3C014D198F39923C9F3BF
:103A60005523B1F3951B550BBB27AA276217730784
:103A7000840738F09F5F5F4F220F331F441FAA1F38
:103A8000A9F333D00E2E3AF0E0E830D091505040F8
:103A9000E695001CCAF729D0FE2F27D0660F771FA6
:103AA000881FBB1F261737074807AB07B0E809F088
:103AB000BB0B802DBF01FF2793585F4F2AF09E3F1D
:103AC000510568F0B6C000C15F3FECF3983EDCF3EF
:103AD000869577956795B795F7959F5FC9F7880F96
:103AE000911D9695879597F90895E1E0660F771FE8
:103AF000881FBB1F621773078407BA0720F0621B79
:103B0000730B840BBA0BEE1F88F7E095089504D071
:103B10006894B111D9C00895BCD088F09F5790F037
:103B2000B92F9927B751A0F0D1F0660F771F881FE2
:103B3000991F1AF0BA95C9F712C0B13081F0C3D0FD
:103B4000B1E00895C0C0672F782F8827B85F39F09B
:103B5000B93FCCF3869577956795B395D9F73EF441
:103B600090958095709561957F4F8F4F9F4F0895E9
:103B7000E89409C097FB3EF4909580957095619507
:103B80007F4F8F4F9F4F9923A9F0F92F96E9BB27BD
:103B90009395F695879577956795B795F111F8CF39
:103BA000FAF4BB0F11F460FF1BC06F5F7F4F8F4FA4
:103BB0009F4F16C0882311F096E911C0772321F09A
:103BC0009EE8872F762F05C0662371F096E8862F32
:103BD00070E060E02AF09A95660F771F881FDAF789
:103BE000880F9695879597F90895990F0008550FB6
:103BF000AA0BE0E8FEEF16161706E807F907C0F073
:103C000012161306E407F50798F0621B730B840B7A
:103C1000950B39F40A2661F0232B242B252B21F454
:103C200008950A2609F4A140A6958FEF811D811DF4
:103C3000089597F99F6780E870E060E008959FEF2E
:103C400080EC089500240A94161617061806090633
:103C5000089500240A941216130614060506089502
:103C6000092E0394000C11F4882352F0BB0F40F48A
:103C7000BF2B11F460FF04C06F5F7F4F8F4F9F4FCA
:103C8000089557FD9058440F551F59F05F3F71F04C
:103C90004795880F97FB991F61F09F3F79F08795B3
:103CA0000895121613061406551FF2CF4695F1DF3C
:103CB00008C0161617061806991FF1CF86957105CC
:103CC000610508940895E894BB2766277727CB0100
:103CD00097F908958ADF08F48FEF08950BD0C0CFCD
:103CE000B1DF28F0B6DF18F0952309F0A2CFA7CFF7
:103CF0001124EACFC6DFA0F3959FD1F3950F50E0D2
:103D0000551F629FF001729FBB27F00DB11D639F8D
:103D1000AA27F00DB11DAA1F649F6627B00DA11D33
:103D2000661F829F2227B00DA11D621F739FB00DD9
:103D3000A11D621F839FA00D611D221F749F332749
:103D4000A00D611D231F849F600D211D822F762FE2
:103D50006A2F11249F5750408AF0E1F088234AF0DF
:103D6000EE0FFF1FBB1F661F771F881F915050402B
:103D7000A9F79E3F510570F05CCFA6CF5F3FECF3F3
:103D8000983EDCF3869577956795B795F795E79517
:103D90009F5FC1F7FE2B880F911D9695879597F928
:103DA0000895CF93DF938230910510F482E090E084
:103DB000E0911504F091160420E030E0A0E0B0E0BE
:103DC000309739F14081518148175907B8F04817A9
:103DD000590771F482819381109729F013969C936F
:103DE0008E9312972CC0909316048093150427C0CD
:103DF0002115310531F04217530718F0A901DB01F5
:103E000001C0EF019A01BD01DF010280F381E02DC5
:103E1000D7CF21153105F9F0281B390B2430310596
:103E200080F48A819B816115710521F0FB019383E8
:103E3000828304C09093160480931504FE01329689
:103E400044C0FE01E20FF31F819391932250310988
:103E5000398328833AC02091130430911404232B12
:103E600041F420918100309182003093140420931A
:103E7000130420917F00309180002115310541F419
:103E80002DB73EB74091830050918400241B350B21
:103E9000E0911304F0911404E217F307A0F42E1B31
:103EA0003F0B2817390778F0AC014E5F5F4F24179E
:103EB000350748F04E0F5F1F5093140440931304CE
:103EC0008193919302C0E0E0F0E0CF01DF91CF91C8
:103ED0000895CF93DF93009709F487C0FC013297D0
:103EE00013821282C0911504D0911604209781F498
:103EF00020813181280F391F80911304909114047F
:103F00008217930779F5F0931404E09313046DC0BE
:103F1000DE0120E030E0AE17BF0750F412964D915D
:103F20005C9113979D014115510509F1DA01F3CF19
:103F3000B383A28340815181840F951F8A179B0709
:103F400071F48D919C911197840F951F0296918326
:103F5000808312968D919C91139793838283211570
:103F6000310529F4F0931604E09315043EC0D901FD
:103F70001396FC93EE9312974D915D91A40FB51F8C
:103F8000EA17FB0779F480819181840F951F0296CF
:103F9000D90111969C938E938281938113969C9361
:103FA0008E931297E0E0F0E08A819B81009719F0F0
:103FB000FE01EC01F9CFCE01029628813981820FF2
:103FC000931F20911304309114042817390769F4C2
:103FD000309729F4109216041092150402C013822F
:103FE0001282D0931404C0931304DF91CF910895EB
:103FF000BB274A3031F4992322F4BDE29095819594
:104000009F4F0C940420BB27FB015527AA27880F3C
:10401000991FAA1FA41710F0A41B83955051B9F73C
:10402000A05DAA3308F0A95DA193009779F7B111BB
:10403000B1931192CB010C947E22A0E0B0E0E3E2B8
:10404000F0E20C942E23FE01359661917191AF013F
:104050008091190490911A040E946520E2E00C946A
:104060004A236091190470911A040E948E220895C7
:104070000F931F93CF93DF93E0911904F0911A04EB
:10408000238121FF1BC0EC0100E010E089916091C9
:10409000190470911A04DB011896ED91FC9119979F
:1040A000882331F00995892B89F30FEF1FEFEECFAD
:1040B0008AE00995892B11F4C80102C08FEF9FEFA8
:1040C000DF91CF911F910F910895ACE0B0E0EBE646
:1040D000F0E20C941E237C016B018A01FC01178223
:1040E0001682838181FFBDC1CE0101964C01F7018B
:1040F0009381F60193FD859193FF81916F01882350
:1041000009F4ABC1853239F493FD859193FF819118
:104110006F01853229F4B70190E00E948E22E7CF2B
:10412000512C312C20E02032A0F48B3269F030F495
:10413000803259F0833269F420612CC08D3239F01D
:10414000803339F4216026C02260246023C02860B7
:1041500021C027FD27C030ED380F3A3078F426FF14
:1041600006C0FAE05F9E300D1124532E13C08AE082
:10417000389E300D1124332E20620CC08E3221F473
:1041800026FD6BC1206406C08C3611F4206802C085
:10419000883641F4F60193FD859193FF81916F017B
:1041A0008111C1CF982F9F7D9554933028F40C5FD7
:1041B0001F4FFFE3F9830DC0833631F0833771F071
:1041C000833509F05BC022C0F801808189830E5FCE
:1041D0001F4F44244394512C540115C03801F2E080
:1041E0006F0E711CF801A080B18026FF03C0652D01
:1041F00070E002C06FEF7FEFC5012C870E94732231
:104200002C0183012C852F77222E17C03801F2E074
:104210006F0E711CF801A080B18026FF03C0652DD0
:1042200070E002C06FEF7FEFC5012C870E9468220B
:104230002C012C852068222E830123FC1BC0832D9A
:1042400090E048165906B0F4B70180E290E00E9471
:104250008E223A94F4CFF50127FC859127FE8191B7
:104260005F01B70190E00E948E2231103A94F1E094
:104270004F1A51084114510471F7E5C0843611F00A
:10428000893639F5F80127FF07C060817181828185
:1042900093810C5F1F4F08C060817181882777FD73
:1042A0008095982F0E5F1F4F2F76B22E97FF09C073
:1042B00090958095709561957F4F8F4F9F4F2068A7
:1042C000B22E2AE030E0A4010E94C022A82EA81835
:1042D00044C0853729F42F7EB22E2AE030E025C075
:1042E000F22FF97FBF2E8F36C1F018F4883579F0A0
:1042F000B4C0803719F0883721F0AFC02F2F20616C
:10430000B22EB4FE0DC08B2D8460B82E09C024FFE0
:104310000AC09F2F9660B92E06C028E030E005C085
:1043200020E130E002C020E132E0F801B7FE07C032
:1043300060817181828193810C5F1F4F06C0608113
:10434000718180E090E00E5F1F4FA4010E94C022A7
:10435000A82EA818FB2DFF77BF2EB6FE0BC02B2D65
:104360002E7FA51450F4B4FE0AC0B2FC08C02B2D59
:104370002E7E05C07A2C2B2D03C07A2C01C0752C03
:1043800024FF0DC0FE01EA0DF11D8081803311F480
:10439000297E09C022FF06C07394739404C0822F43
:1043A000867809F0739423FD13C020FF06C05A2CB1
:1043B000731418F4530C5718732C731468F4B70162
:1043C00080E290E02C870E948E2273942C85F5CF9A
:1043D000731410F4371801C0312C24FF12C0B70138
:1043E00080E390E02C870E948E222C8522FF17C04C
:1043F00021FF03C088E590E002C088E790E0B701A4
:104400000CC0822F867859F021FD02C080E201C0E5
:104410008BE227FD8DE2B70190E00E948E22A51469
:1044200038F4B70180E390E00E948E225A94F7CFCF
:10443000AA94F401EA0DF11D8081B70190E00E9479
:104440008E22A110F5CF332009F451CEB70180E2BE
:1044500090E00E948E223A94F6CFF70186819781F0
:1044600002C08FEF9FEF2C96E2E10C943A23DC011F
:10447000CB01FC01E199FECF06C0FFBBEEBBE09A89
:1044800031960DB20D9241505040B8F70895DC01BD
:10449000A40FB51F4150504048F0CB01840F951F29
:1044A0002E910E94582241505040D0F70895262F57
:1044B000E199FECF9FBB8EBBE09A01970DB2021629
:1044C00031F02DBB0FB6F894E29AE19A0FBE089531
:1044D000FC010590615070400110D8F780959095CF
:1044E0008E0F9F1F0895FC016150704001900110D4
:1044F000D8F7809590958E0F9F1F0895DC01FC01E1
:10450000672F71917723E1F7329704C07C916D9307
:1045100070836291AE17BF07C8F308950F931F937E
:10452000CF93DF93182F092FEB018B8181FD03C0FF
:104530008FEF9FEF20C082FF10C04E815F812C81E2
:104540003D81421753077CF4E881F9819F012F5F79
:104550003F4F39832883108306C0E885F985812F72
:104560000995892B29F72E813F812F5F3F4F3F838C
:104570002E83812F902FDF91CF911F910F9108955E
:10458000FA01AA27283051F1203181F1E8946F9384
:104590006E7F6E5F7F4F8F4F9F4FAF4FB1E03ED02A
:1045A000B4E03CD0670F781F891F9A1FA11D680FC8
:1045B000791F8A1F911DA11D6A0F711D811D911DFB
:1045C000A11D20D009F468943F912AE0269F112470
:1045D0003019305D3193DEF6CF010895462F4770D4
:1045E000405D4193B3E00FD0C9F7F6CF462F4F702F
:1045F000405D4A3318F0495D31FD4052419302D08D
:10460000A9F7EACFB4E0A695979587957795679532
:10461000BA95C9F700976105710508959B01AC0132
:104620000A2E06945795479537952795BA95C9F759
:10463000620F731F841F951FA01D08952F923F9234
:104640004F925F926F927F928F929F92AF92BF92A2
:10465000CF92DF92EF92FF920F931F93CF93DF934E
:10466000CDB7DEB7CA1BDB0B0FB6F894DEBF0FBEAB
:10467000CDBF09942A88398848885F846E847D84F8
:104680008C849B84AA84B984C884DF80EE80FD80FA
:104690000C811B81AA81B981CE0FD11D0FB6F89470
:0E46A000DEBF0FBECDBFED010895F894FFCF31
:1046AE00000000010000000000006804000000008F
:1046BE000002000000005C0400000000FF02010088
:1046CE00001D04200041546D656761333220707205
:1046DE006F6772616D6162636465666768696A6B54
:1046EE006C6D6E6F707172737475767778446172DB
:1046FE006975737A204D2E2070726F6A2E797A3119
:10470E003233343536373839303938373635343345
:10471E003231214024060025643A253032643A2590
:10472E0030326420253032643A253032643A2530F6
:10473E0032640020535A41464B41204E523A2025B6
:10474E006420004F54574152434945005A414D4B46
:10475E004E49454349450025643A253032643A2591
:10476E0030326420253032643A253032643A2530B6
:10477E0032640A004272616B2064616E7963680074
:10478E0025642E20005261706F7274206177617201
:10479E00796A6E792E20005261706F72742E20002D
:1047AE0050726F6772616D3A200050524F475241FE
:1047BE004D20474C4F574E590050524F4752414D86
:1047CE0020544553544F575900435A5557414E495B
:1047DE00450044414E45202D20454550524F4D0039
:1047EE004E41535441574120474F445A494E590068
:1047FE004E41535441574120414C41524D5500506A
:10480E006E00577400537200437A00507400536F59
:10481E00004E64007C002D2D2D2D2D2D2D005A4186
:10482E00504953414E4F20474F445A494E45005729
:10483E00594C41435A4F4E4F20414C41524D005A14
:10484E0041504953414E4F20414C41524D004D492C
:10485E004E5554590053454B554E445900534554EB
:10486E004E452053454B554E4400445A49454E0043
:10487E004D49455349414300524F4B00445A494517
:10488E004E205459474F444E49410054494D4552CC
:10489E0000504F4E4945445A49414C454B005754E0
:1048AE004F52454B0053524F444100435A574152C9
:1048BE0054454B0050494154454B00534F424F54C1
:1048CE0041004E4945445A49454C4100414C4152E4
:1048DE004D20542E2057594C2E00414C41524D2004
:1048EE00542E20574C2E00557374617720616C61E5
:1048FE00726D00557374617720616C61726D2074F6
:10490E00696D2E00416C61726D2054696D2E2057B9
:10491E00594C00416C61726D2054696D2E20574CBC
:10492E0000416C61726D2077796C61637A6F6E797C
:10493E0000416C61726D20636F647A69656E6E7989
:10494E0000416C61726D207479676F646E696F7768
:10495E007900416C61726D206D6965736965637A6A
:10496E006E79004E5220005779626965727A207016
:10497E00726F6772616D3A003E3E3E003C3C3C00F9
:10498E005370726177647A2070727A6563682D0055
:10499E007779747977616E6965205553420057694E
:1049AE0074616A21004C4344204844343437383013
:1049BE0000437A7974616D3A00437A79737A637A37
:1049CE00656E69652E2E2E004E6120706F637A61C2
:1049DE0074656B00656B72616E752E2E2E004F63C3
:1049EE007A656B6977616E69652E2E2E20004156B1
:1049FE005220494E53504543544F52004461726504
:064A0E006B204D2E00009C
:040000050080007EF9
:00000001FF
