:100000000C942A000C9447000C9447000C94470071
:100010000C94BD220C9447000C9450030C944700A0
:100020000C9447000C9447000C9447000C94470034
:100030000C9447000C94E7230C9419240C9447006B
:100040000C9447000C9447000C9447000C94470014
:100050000C94470011241FBECFE5D8E0DEBFCDBF12
:1000600016E0A0E6B0E0EEE9F7E502C005900D92DB
:10007000AE33B107D9F726E0AEE3B6E001C01D927A
:10008000A33EB207E1F70E944F240C94CD2B0C94B1
:100090000000009741F0EFE9FFE03197F1F700C071
:1000A00000000197F6CF0895009731F025E02A95DA
:1000B000F1F700000197F8CF08958F929F92AF92C9
:1000C000BF92CF92DF92EF92FF924B015C0120E052
:1000D00030E04AE755E40E94DB266B017C0120E01A
:1000E00030E040E85FE30E94882587FD24C020E0DF
:1000F0003FEF4FE757E4C701B6010E94D726181615
:10010000ACF420E030E040E251E4C501B4010E94CB
:10011000DB260E94F92520E931E06115710581F0A7
:10012000C9010197F1F761507109F7CFC701B60115
:100130000E94F92502C061E070E0CB010197F1F760
:10014000FF90EF90DF90CF90BF90AF909F908F90F7
:1001500008958F929F92AF92BF92CF92DF92EF92CB
:10016000FF924B015C012BEA3AEA4AEA50E40E9412
:10017000DB266B017C0120E030E040E85FE30E9479
:10018000882587FD21C020E030E04FE753E4C70118
:10019000B6010E94D726181694F420E030E04AE712
:1001A00054E4C501B4010E948C25FF90EF90DF90CC
:1001B000CF90BF90AF909F908F900C945D00C7013F
:1001C000B6010E94F92501C061E06A95F1F7FF9040
:1001D000EF90DF90CF90BF90AF909F908F90089559
:1001E00080915A06811102C087E201C0815080933C
:1001F0005A06089580915A06873219F410925A06C9
:1002000008958F5F80935A06089580FF02C0DC9A9C
:1002100001C0DC9881FF02C0DD9A01C0DD9882FF39
:1002200002C0DE9A01C0DE9883FF02C0DF9A089503
:10023000DF98089589B382958170CD998260CE99B7
:100240008460CF9988600895CF93DF93D498D59830
:10025000D698D798DA9ADB9A0E941A0190E1899F82
:10026000E0011124DB98DB9A0E941A01DB98E7EC8D
:10027000F0E03197F1F700C000008C2BDF91CF91B7
:100280000895D9980C942401CF93C82FD49AD59A65
:10029000D69AD79ADA98DB9A82958F700E940501D8
:1002A000DB98DB9A8C2F0E940501DB980E944101AC
:1002B00087FDFCCFCF910895D9980C944401D99A29
:1002C0000C944401D99A0C942401CF93DF93EC0150
:1002D0008991882319F00E945F01FACFDF91CF91B5
:1002E000089590E4699F800D112480680C945C014E
:1002F00081E00E945C018FE39FE10197F1F700C06C
:10030000000010925A06089582E00E945C018FE37B
:100310009FE10197F1F700C0000010925A0608957E
:10032000C09A0895CF93D49AD59AD69AD79AD39A49
:10033000D19AD29A8FE59AEE0197F1F700C00000AA
:10034000D998DB98DA98C3E0DB9A83E00E94050134
:10035000DB988FE19EE40197F1F700C00000C150E7
:1003600099F7DB9A82E00E940501DB988FE99FE014
:100370000197F1F700C0000088E20E945C0188E06C
:100380000E945C0181E00E945C0186E00E945C01A9
:100390008CE00E945C01B89A0E94900110925A066B
:1003A000CF910895C0980895CF93DF93CDB7DEB76E
:1003B00061970FB6F894DEBF0FBECDBF4AE0BE0115
:1003C0006F5F7F4F0E9470280E94650161960FB693
:1003D000F894DEBF0FBECDBFDF91CF910895CF93CC
:1003E000DF93CDB7DEB761970FB6F894DEBF0FBECF
:1003F000CDBF40E1BE016F5F7F4F0E9470280E9419
:10040000650161960FB6F894DEBF0FBECDBFDF91D8
:10041000CF910895CF92DF92EF92FF920F931F93A7
:10042000CF93DF938C016B017A01C0E0D0E0CC1553
:10043000DD05A1F0E114F10431F08CE10E945C01D2
:100440000E94F00003C084E10E945C0101151105C7
:1004500019F0C8010E9449002196E9CFDF91CF91A0
:100460001F910F91FF90EF90DF90CF900895CF9262
:10047000DF92EF92FF920F931F93CF93DF938C0144
:100480006B017A01C0E0D0E0CC15DD05A1F0E114EC
:10049000F10431F088E10E945C010E94FA0003C07F
:1004A00080E10E945C010115110519F0C8010E944C
:1004B00049002196E9CFDF91CF911F910F91FF90D5
:1004C000EF90DF90CF9008951F93CF93DF93EC01CF
:1004D0008230910520F082309105A9F40BC080E8AC
:1004E0000E945C0118E280E20E945F011150D9F77E
:1004F000CD2B49F480EC0E945C01C8E280E20E94AE
:100500005F01C150D9F7DF91CF911F9108958330DA
:10051000910589F030F48130910549F0029749F056
:1005200008958430910549F0059749F008958CE0CD
:1005300007C088E005C08EE003C08DE001C08FE0F9
:100540000C945C01BC0180E89EE30E94BF24862FCE
:10055000603138F07727CB01409797FD019695954C
:10056000879580B9089584EA86BF06B607FEFDCF59
:10057000089584E986BF06B604FCFDCF089583B9CB
:1005800084E886BF06B607FEFDCF089520E4829F6B
:10059000C0011124846886BF06B607FEFDCF83B173
:1005A0000895EF92FF921F93CF93DF9300D000D076
:1005B000CDB7DEB7142F2B833C836A8389830E94D7
:1005C000B30289810E94BF026A81862F0E94BF0206
:1005D0002B81E22E3C81F32E120F1E1531F0F70114
:1005E00081917F010E94BF02F8CF0F900F900F9072
:1005F0000F90DF91CF911F91FF90EF900C94B90273
:10060000EF92FF921F93CF93DF9300D01F92CDB74D
:10061000DEB7F82E142F2A833B8369830E94B3022E
:100620008F2D0E94BF026981862F0E94BF020E9407
:10063000B30281E08F0D0E94BF0211502A81E22E89
:100640003B81F32E1F3F59F081E0111101C080E082
:100650000E94C602F70181937F011150F3CF0F90E2
:100660000F900F90DF91CF911F91FF90EF900C941E
:10067000B9028EB5887F8EBD08958EB585608EBD1A
:1006800008958E98969A8EB58F7B8EBD10925E06D9
:1006900089B7806289BF10925F06BC98C49A08959A
:1006A0001F920F920FB60F9211242F933F938F93A7
:1006B0009F9386B597B52091420630914306821BE1
:1006C000930B26B537B530934306209342062EB5DB
:1006D00030E423272EBD8F31910510F010925E0675
:1006E00020915E06222319F021E0209341062091FB
:1006F0005E06211111C01092400610923F06109222
:100700003E062EB520642EBD20915E062F5F2093FD
:100710005E0622E02093410620914106213009F037
:100720005AC09C012A5031092531310510F0109230
:10073000410620914106213009F04DC0429728F032
:1007400080915E068F5F80935E0680915E068230A8
:10075000E8F180915E0680FD39C080913F0690915E
:100760004006880F991F9093400680933F060EB471
:1007700006FE05C081609093400680933F068091FD
:100780003E068F5F80933E068D3000F180913F06DC
:1007900090914006282F2F7320935D069C01207CAA
:1007A0003770689415F8369527951694E1F72093DD
:1007B0005C0688279870892F869586958695809304
:1007C0005B061092410681E080935F0680915E0691
:1007D0008F5F80935E0680914106811105C0109263
:1007E0005E068EB58F7B8EBD9F918F913F912F912D
:1007F0000F900FBE0F901F9018958FEF80935D069E
:1008000080935C06089586B382958F7091E0892766
:10081000817090E00895CF93C82F8BEF0E94441E03
:1008200061E070E001C0660FCA95EAF7682B8BEFB4
:10083000CF910C94321ECF93C82F8BEF0E94441E91
:1008400061E070E001C0660FCA95EAF76095682321
:100850008BEFCF910C94321ECF93C82F8BEF0E9459
:10086000441E90E041E050E00C2E02C0440F551FA2
:100870000A94E2F78423952302C095958795CA953B
:10088000E2F7CF91089580E8089523E09695879543
:100890002A95E1F7089528E0829FC0011124089568
:1008A00098E0899FB0011124E199FECF48E050E023
:1008B0008CE896E00C94AF2ACF9360E070E080E083
:1008C0009FE30E941C0B80918C061F928F93809156
:1008D0008D061F928F9380918E061F928F93809129
:1008E0008F061F928F93809190061F928F93809115
:1008F00092068F93809191068F9388E790E09F9363
:100900008F930E94952880919306C4E66C2F0E94D5
:10091000B3242DB73EB7225F3F4F0FB6F8943EBFCA
:100920000FBE2DBF992301F11F929F9386E990E09E
:100930009F938F930E949528809193066C2F0E941D
:10094000B3240F900F900F900F90813019F486EA26
:1009500090E004C0823041F48FEA90E09F938F933F
:100960000E9495280F900F908AE090E0CF910C9410
:10097000A9280E94040B0E94BB2120919706822F78
:10098000992787FD90959F932F9320918806822F1A
:10099000992787FD90959F932F9320918706822F0B
:1009A000992787FD90959F932F932091A606822FDC
:1009B000992787FD90959F932F9320918906822FE9
:1009C000992787FD90959F932F93809199068F93F8
:1009D000809198068F938AEB90E09F938F930E946B
:1009E00095288DB79EB70E960FB6F8949EBF0FBE92
:1009F0008DBF089589ED90E09F938F930E94952875
:100A00000E94B9046091600670916106809162064F
:100A10009091630642E00E94190A282F332727FD90
:100A200030953F938F937F936F9388EE90E09F93E1
:100A30008F930E9495288DB79EB708960FB6F894AD
:100A40009EBF0FBE8DBF08958EEF0E94EC1E33E057
:100A5000969587953A95E1F708958CEF0E94EC1EE4
:100A600043E0969587954A95E1F70895CF93C82F6F
:100A70000E942D0590E08C0F911D8038910510F09B
:100A800080589109CF910C945004FF920F931F93BB
:100A9000CF93DF93F82E811109C082E091E0DF91BE
:100AA000CF911F910F91FF900C94B02881E080931B
:100AB0004706C0E0D0E00EE011E08C2F21969C2F7D
:100AC00091509F1578F40E943605DF93CF931F93C2
:100AD0000F930E9495280E945C040F900F900F9036
:100AE0000F90EBCFDF91CF911F910F91FF90089561
:100AF00085E191E09F938F930E9495280E94B9040D
:100B00000F900F9080E80C9445058EEF0E94EC1E2C
:100B1000BC018CEF0C94D81E8CEF0E94EC1E81302F
:100B2000944068F48EEF0E94EC1E8130944038F4BB
:100B30008CEF0E94EC1E8EEF0E94EC1E11C060E054
:100B400070E08EEF0E94D81E0E94850588E291E039
:100B50000E94B02860E070E08AE794E40E941C0BD9
:100B60008A98929A8B98939A8D98959A8C98949A41
:100B7000A298AA9AA398AB9AA498AC9AA598AD9A71
:100B8000A698AE9AA798AF9A0895CF930E942D0584
:100B9000C82F0E94240591E0C81390E0892FCF91BF
:100BA0000895CF930E942D05C82F0E9424058C170D
:100BB00040F40E942405C82F0E942D0590E89C0F48
:100BC00006C00E942405C82F0E942D059C2F981B4B
:100BD000892FCF9108950E94C505811110C08AE424
:100BE00091E09F938F930E9495280E94B9040E94E0
:100BF000D1050E9445050F900F900C94850560E08B
:100C000070E080EA90E40C941C0BCF93DF939091FA
:100C1000970690938C069091880690938D069091FC
:100C2000870690938E069091A60690938F069091DA
:100C300089069093900620919806309199063093FA
:100C400092062093910691E0960FE62FF0E0EC5883
:100C5000F94F208134E6239F900D11249093930641
:100C600098E0899FE0011124E199FECF48E050E02F
:100C7000BE018CE896E00E94BF2ABE01685F7F4FEC
:100C80008FEF93E0861B970B079744F460E070E0CA
:100C90008AEF93E40E941C0B60E070E08EEFDF911E
:100CA000CF910C94D81ECF930E9424058F3731F436
:100CB0000E942D0591E0882389F00FC00E942D0528
:100CC000C82F0E9424054C2F50E0282F30E02F5FC2
:100CD0003F4F91E04217530709F090E0892FCF91E1
:100CE00008950E94C505811111C00E942D058F37FE
:100CF00019F460E070E007C00E942D058F5F98E056
:100D0000899FB00111248CEF0C94D81E08951F9375
:100D1000CF93DF930E94BB21C4E7D6E010E0899116
:100D20008823C1F00E945306813079F480919F0698
:100D3000833049F460E070E88BE395E40E941C0B7B
:100D40000E94710602C00E94EB050E942405612FDB
:100D50000E9405061F5F1A3011F782E0DF91CF91E4
:100D60001F910C942B0B80B382FB882780F9089588
:100D700080B383FB882780F9089580B385FB88279B
:100D800080F9089580B382958170089583B382FBC2
:100D9000882780F9089583B383FB882780F9089515
:100DA00083B382958170089583B385FB882780F98A
:100DB000089583B386FB882780F90895811102C0C6
:100DC0000C94B306813011F40C94B806823011F4FF
:100DD0000C94BD06833011F40C94C206843011F4D7
:100DE0000C94C606853011F40C94CB06863011F4B1
:100DF0000C94D006873011F40C94D406883011F48A
:100E00000C94D906893029F483B3881F8827881F5A
:100E100008958FEF08951F93CF93DF93C9E6D6E02F
:100E200010E0812F0E94DE0689931F5F1A30C9F7F8
:100E3000DF91CF911F910895BF92CF92DF92EF92F1
:100E4000FF920F931F93CF93DF9359E6E52E56E061
:100E5000F52EC4E7D6E0D12C00E010E0CC24C394FA
:100E600062E0B62E8D2D0E94DE06F7019081891773
:100E700041F0813011F4B88206C0811104C0C882EB
:100E800002C0188202C001E010E0F70181937F01E7
:100E9000D3942196FAE0DF12E5CF012BB1F00E9446
:100EA000F70A0E94870681E08093470660E070E0C1
:100EB00080E291E4DF91CF911F910F91FF90EF902D
:100EC000DF90CF90BF900C941C0BDF91CF911F91BE
:100ED0000F91FF90EF90DF90CF90BF90089583B374
:100EE000881F8827881F0895CF93DF93C0E0D0E044
:100EF000E199FECF60E0CE010E94CF2A2196C11574
:100F000084E0D807A9F7DF91CF910C9485052F9243
:100F10003F9210926506109264068091640690914B
:100F2000650620918A0630918B0682179307C4F4D8
:100F3000D101ED91FC91E80FF91F80810E945F01C2
:100F400060E070E088E492E40E945D0080916406B5
:100F50009091650601969093650680936406DDCFB7
:100F60003F902F900895EF92FF920F931F93CF938E
:100F7000DF93C8E2D0E0D0938B06C0938A0600913D
:100F80005A068AE090E00E94A92810926506109205
:100F90006406C01BD109809164069091650660913A
:100FA0008A0670918B0686179707BCF48C0F9D1FDD
:100FB0000E94D32440971CF483E290E002C08EE2AA
:100FC00090E00E94A92880916406909165060196A0
:100FD0009093650680936406DECF8AE090E00E94DD
:100FE000A92884E090E00E943E27EC01109265065B
:100FF00010926406E0906406F0906506E2E0EE165A
:10100000F104BCF480918A0690918B06880F991F99
:101010000E943E27F701EE0FFF1FEC0FFD1F91838B
:1010200080838FEFE81AF80AF0926506E092640672
:10103000E1CF0E94840110926506109264068091AF
:1010400064069091650620918A0630918B0682177E
:10105000930794F4E880F980E80EF91E0E9462017B
:10106000F7018083809164069091650601969093C4
:10107000650680936406E3CF61E080E00E94710121
:101080001092650610926406809164069091650640
:1010900020918A0630918B068217930794F4EA8098
:1010A000FB80E80EF91E0E946201F70180838091A7
:1010B0006406909165060196909365068093640698
:1010C000E3CF0E94840110E060918A0670918B0644
:1010D000CB0177FD0196959587950817190744F47C
:1010E00041E050E0B80180E090E00E94370208C083
:1010F000601B710B41E050E080E090E00E940A022A
:1011000010926506109264068091640690916506BF
:1011100020918A0630918B06821793078CF4E88120
:10112000F981E80FF91F80810E94002380916406F5
:101130009091650601969093650680936406E4CFCE
:101140008AE090E00E94A928109265061092640639
:10115000809164069091650620918A0630918B06F5
:10116000821793078CF4EA81FB81E80FF91F8081D5
:101170000E940023809164069091650601969093E9
:10118000650680936406E4CF1092650610926406AB
:10119000E0906406F090650682E0E816F1048CF4B5
:1011A000F701EE0FFF1FEC0FFD1F808191810E9460
:1011B000D627FFEFEF1AFF0AF0926506E092640669
:1011C000E7CFCE010E94D6278AE090E00E94A928AE
:1011D0001092650610926406C8E2D0E0C01BD10BE5
:1011E000809164069091650660918A0670918B06E5
:1011F00086179707BCF48C0F9D1F0E94D32440973D
:101200001CF483E290E002C08EE290E00E94A928E4
:10121000809164069091650601969093650680938F
:101220006406DECF80E091E0DF91CF911F910F91B6
:10123000FF90EF900C94B0284F925F926F927F9244
:101240008F929F92AF92BF92CF92DF92EF92FF92D6
:101250004B015C01E0E0F0E061E070E080E090E0F4
:10126000E42EF12CEE15FF0544F4AAE0B0E09B015A
:10127000AC010E9409253196F5CFF0936506E09305
:1012800064060E9425262B013C019B01AC01C5018F
:10129000B4010E94DB266B017C0120E030E0A90153
:1012A0000E94882520E030E040E05FE387FF05C032
:1012B000C701B6010E94232504C0C701B6010E94E0
:1012C00024250E94F4250E942726A30192010E9452
:1012D0008C25FF90EF90DF90CF90BF90AF909F90C4
:1012E0008F907F906F905F904F9008958F929F9214
:1012F000AF92BF92CF92DF92EF92FF926B017C018F
:101300000E9427269F770E94F4254B015C01E1E0B3
:10131000F0E02AE030E040E050E082169306A406B8
:10132000B50640F03196AAE0B0E00E9409259B0185
:10133000AC01F3CFF7FC31968E2FFF90EF90DF904A
:10134000CF90BF90AF909F908F900895EF92FF92B3
:101350001F93CF93DF931F92CDB7DEB7F62E182FD2
:10136000E42E60E080914B0679830E9471018F2DFD
:101370007981972F0E94D40183E295E00E94650154
:101380001092650610926406612F772767FD7095AD
:10139000872F972F0E947609F12CE81AF1082091E7
:1013A0006406309165062E153F057CF48CE095E0CF
:1013B0000E94650120916406309165062F5F3F4FC2
:1013C0003093650620936406EACF812F992787FD25
:1013D00090950F90DF91CF911F91FF90EF900C941B
:1013E000D401CF92DF92EF92FF92CF93C82F88273C
:1013F00077FD8095982F0E9427266B017C016C2F2A
:10140000772767FD7095872F972F0E94272620E06A
:1014100030E048EC52E40E948C259B01AC01C701EE
:10142000B6010E942425CF91FF90EF90DF90CF90DE
:1014300008956F927F928F929F92AF92BF92CF92B8
:10144000DF92EF92FF920F931F93CF93DF931F9240
:10145000CDB7DEB7142F0E941C096B017C014B0134
:101460005C01E894B7F820E030E046E953E4C501B8
:10147000B4010E94D726181624F400E010E080E0A2
:101480004AC0412F133008F042E0C701B60149833A
:101490000E94F4258B01C501B4010E94F9254B017E
:1014A0005C0180E090E066246394712C498150E0F7
:1014B0002AE08417950744F4B301269F3001279F43
:1014C000700C11240196F5CF909365068093640605
:1014D000B30180E090E00E9425269B01AC01C7018A
:1014E000B6010E94DB266B017C01E894F7F8689C4A
:1014F000B001699C700D789C700D112480E090E023
:101500000E9425269B01AC01C701B6010E9423253C
:101510000E94F925862FB8010F90DF91CF911F917E
:101520000F91FF90EF90DF90CF90BF90AF909F9082
:101530008F907F906F9008952091510690EC920FBC
:101540009093510680E4820F80937F06809150062D
:10155000811105C0209373069093A40604C0909354
:1015600073062093A406903889F590914F06911147
:1015700002C091E003C0913019F492E090934F06BD
:1015800090914F06913041F4811103C0109273067F
:1015900008951092A4060895923041F4811103C079
:1015A0001092A40610C0109273060DC0933071F40F
:1015B00010924F06811104C081E080935006089577
:1015C00010925006089583E080934F0608958FEFA0
:1015D00080937F06109273061092A40608951092CD
:1015E0007F068FEF809373061092A40608951092E1
:1015F0007F06109273068FEF8093A40608951092D1
:1016000073061092A40608958FEF80937F0680934F
:1016100073068093A406089510927F0610927306B5
:101620001092A4060895979A60E070E080E89FE326
:101630000E945D0097980895979A0E945D00979880
:10164000089560E070E080E490E40E941C0B8FEF4E
:10165000809349060895CF93DF931F92CDB7DEB7ED
:10166000811103C01092490614C089830E94900121
:101670008981813029F40F90DF91CF910C94210B57
:10168000823039F4809149068F3F19F082E38093CC
:1016900049060F90DF91CF9108950F931F93CF9339
:1016A000DF93EC01BC0180E090E00E947609182FE6
:1016B000D0939606C093950680E090E00E94640265
:1016C0001092650610926406812F90E0C7E2D0E088
:1016D000C81BD90B8C010D5F1F4F80916406909140
:1016E00065068C179D07FCF460E00E9471018091F3
:1016F0009506909196060E94D40161E0809164065F
:101700000E94710180919506909196060E94D401E5
:101710002091640630916506200F311F30936506D5
:1017200020936406DACF0E94B30760E070E08AEF8E
:1017300093E40E945D00DF91CF911F910F910C9473
:10174000FD0320919506309196064AE0429FC00124
:10175000439F900D1124893E23E0920710F088EEFC
:1017600093E09093960680939506809195069091CC
:1017700096060C944D0B80919506909196066AE022
:1017800070E00E94BF246115710529F070939606E0
:101790006093950606C081E090E090939606809352
:1017A000950680919506909196060C944D0BCF93DB
:1017B000DF93EC011092470680919F06813009F477
:1017C0006EC00E94780184E591E00E946501CE011F
:1017D0000E94D40161E080E00E947101209719F419
:1017E0008EE591E028C0C130D10519F48DE691E075
:1017F00022C0C230D10519F48DE791E01CC0C3307E
:10180000D10519F486E891E016C0C430D10519F469
:1018100084E991E010C0C530D10519F484EA91E063
:101820000AC0C630D10519F483EB91E004C02797B4
:1018300021F483EC91E00E9465010E94B3071092AD
:10184000650610926406809164069091650605977E
:10185000B4F460E070E080EF91E40E945D0060E02D
:1018600070E080EA90E40E941C0B809164069091E5
:10187000650601969093650680936406E4CF60E068
:1018800070E08AEF93E40E945D0041E050E06FE079
:1018900070E084E190E00E940A020E9478010E94B8
:1018A000FD0381E080934706DF91CF910895811178
:1018B00003C083ED91E01DC0813019F486ED91E005
:1018C00018C0823019F489ED91E013C0833019F407
:1018D0008CED91E00EC0843019F48FED91E009C0D9
:1018E000853019F482EE91E004C0863021F485EE53
:1018F00091E00C946501089560E080914B060E9490
:101900007101809187068A3024F480E090E00E9483
:10191000D40180918706992787FD90950E94D40174
:1019200080E092E00E946501809188068A3024F46C
:1019300080E090E00E94D40180918806992787FD7D
:1019400090950E94D40180E092E00E946501809110
:1019500097068A3024F480E090E00E94D4018091C0
:101960009706992787FD90950E94D40180E092E028
:101970000E946501809186068A3024F480E090E020
:101980000E94D40180918606992787FD90950C943A
:10199000D401CF93DF930E947C0C61E080914B06D1
:1019A0000E9471018091A6068A3024F480E090E0C4
:1019B0000E94D4018091A606992787FD90950E94E8
:1019C000D40180E092E00E946501809189068A300E
:1019D00024F480E090E00E94D40180918906992748
:1019E00087FD90950E94D40180E092E00E946501FD
:1019F0006091980670919906882777FD8095982FB9
:101A00000E947609853008F084E0109265061092F5
:101A10006406C4E0D0E0C81BD109809164069091AF
:101A200065068C179D0774F488EE91E00E946501AD
:101A30008091640690916506019690936506809367
:101A40006406EBCF80919806909199060E94D4018C
:101A50008AEE91E00E94650180919A060E94570CDF
:101A60008AEE91E00E946501809166068A3024F436
:101A700080E090E00E94D40180916606992787FD5E
:101A80009095DF91CF910C94D40160E080914B064A
:101A90000E947101809166068A3024F480E090E013
:101AA0000E94D40180916606992787FD90950C9439
:101AB000D401CF93C82F81110E947C0C61E08091EA
:101AC0004B060E947101C230C1F5809189068111D7
:101AD00003C08CEE91E02EC0109265061092640651
:101AE0002091640630916506273031050CF5809110
:101AF0008906992787FD909502C0959587952A9527
:101B0000E2F780FF0BC08AEE91E00E9465018091B0
:101B100064069091650601960E94D4018091640646
:101B20009091650601969093650680936406D8CFE0
:101B30008AEE91E0CF910C946501C33019F5809144
:101B4000A6068A3024F480E090E00E94D4018091BF
:101B5000A606992787FD90950E94D40180E092E027
:101B60000E946501809189068A3024F480E090E02B
:101B70000E94D40180918906992787FD9095CF9185
:101B80000C94D401CF91089550919406523041F4B1
:101B9000809195069091960691958195910909C03D
:101BA000513029F4809195069091960602C080E00C
:101BB00090E04091A0064E3F31F490919E06981B14
:101BC00090939E06089520914C06263021F44F3FB5
:101BD00009F004C1ECC030919E06332331F024306B
:101BE000F1F0273009F0DFC0F5C04F3F09F4DFC046
:101BF0002730C1F441110BC02091A1063091A206FB
:101C0000280F391F3093A2062093A1062AC0413025
:101C100041F52091A306280F2093A30622C04F3F31
:101C200009F4C5C0411106C020918706280F2093F2
:101C3000870617C0413031F420918806280F209381
:101C400088060FC0423031F420919706280F209368
:101C5000970607C0433029F420918606280F209369
:101C6000860620918106309182062115310519F0F2
:101C70002330310561F5443031F49091A606980F78
:101C80009093A6060895453031F490918906980FF7
:101C9000909389060895232B09F0A0C0463059F48B
:101CA0002091980630919906280F391F3093990694
:101CB000209398060895473031F490919A06980F32
:101CC00090939A060895483009F088C07DC022306C
:101CD000310509F083C0443069F4513021F480911A
:101CE000890681605DC0523009F078C08091890614
:101CF0008E7F56C0453069F4513021F480918906B9
:101D000082604EC0523009F069C0809189068D7F93
:101D100047C0463069F4513021F4809189068460CF
:101D20003FC0523009F05AC0809189068B7F38C07D
:101D3000473069F4513021F480918906886030C0C1
:101D4000523009F04BC080918906877F29C0483006
:101D500061F4513021F480918906806121C05230B4
:101D6000E9F5809189068F7E1BC0493061F45130BE
:101D700021F480918906806213C0523079F58091F8
:101D800089068F7D0DC04A3049F5513021F480918C
:101D90008906806405C0523009F5809189068F7BE1
:101DA0008093890608953130C9F44F3F59F420914A
:101DB000810630918206281B390B309382062093CE
:101DC0008106089541110AC090916606980F90937C
:101DD000660608954F3F09F00DCFE9CF0895809131
:101DE000A0068E5F823050F4809195069091960601
:101DF000029720F081E090E00E944D0B90919E06AA
:101E000080914C06992329F0843019F0873009F02D
:101E10005BC09091A0068730E1F491110BC08091D6
:101E20009506909196068536910520F084E690E01F
:101E30000E944D0B8091A006813069F48091950637
:101E4000909196060B9738F08AE090E00E944D0B37
:101E500002C0943098F38091810690918206009799
:101E600011F00397B9F58091A0068450823050F4A8
:101E700080919506909196060B9720F08AE090E06D
:101E80000E944D0B8091810690918206892B11F55D
:101E90008091A006873051F4809195069091960626
:101EA000029720F081E090E00E944D0B8091A00607
:101EB000883081F480919506909196060B9750F0AA
:101EC0008AE090E00C944D0B913021F48091A006B3
:101ED000882381F3089580914C06843091F18530F8
:101EE000F1F480919E0681110FC08091810690913E
:101EF0008206009781F18130910529F182309105A8
:101F000021F10397D9F423C08130C1F48091810677
:101F1000909182060097F9F0019781F41AC08630FB
:101F200059F480919E06863048F480918106909104
:101F3000820697FF10C002C0873079F08091A0061A
:101F4000089589E0089584E008958BE0089586E07F
:101F5000089581E0089580E0089582E00895CF9388
:101F6000DF931092470680E090E00E94640260E0F8
:101F700080E00E947101C091A006CF3F19F484EF68
:101F800091E03DC0D0914C06D63071F40E946B0FA9
:101F90002C2F332727FD309590E02817390709F0BB
:101FA000C6C082E092E02BC080919E06882329F073
:101FB000D43019F0D73009F09DC00E946B0F90E02B
:101FC0002C2F332727FD309528173907D9F4809116
:101FD000810690918206892B81F4D73019F48BE029
:101FE00092E00DC0D43019F48AE192E008C0D530F7
:101FF00009F09DC08BE292E002C08BE392E00E9468
:10200000650195C0D73051F4C11103C08AE492E054
:1020100018C0C130C1F488E592E013C0C11103C0FB
:102020008CE991E00EC0C13019F485E692E009C058
:10203000C23019F48CE692E004C0C33021F484E786
:1020400092E00E946501809181069091820600973E
:1020500019F08330910531F58091A006843019F490
:1020600081E892E004C0853021F487E892E00E9484
:1020700065018091810690918206892B09F057C0F5
:102080008091A006863019F48FE892E0B8CF8730AF
:1020900019F483E992E0B3CF883009F048C082EAAE
:1020A00092E0ADCF029709F042C08091A006843043
:1020B00019F488EA92E0A3CF853019F485EB92E019
:1020C0009ECF863019F48CEB92E099CF873019F4CB
:1020D00082EC92E094CF883019F48BEC92E08FCFB1
:1020E000893019F482ED92E08ACF8A3001F589EDCA
:1020F00092E085CF8130D9F40E946B0F90E02C2FB5
:10210000332727FD30952817390771F48091810610
:1021100090918206009719F483EE92E070CF0197B8
:1021200031F483EF92E06BCFCC2309F4B8CF80E990
:1021300091E00E9449000E94FD0381E080934706E0
:10214000DF91CF910895811103C082E093E004C034
:10215000813021F48EE093E00C94650108958111A3
:1021600003C08FE193E004C0813021F480E393E069
:102170000C9465010895811103C080E493E004C0CC
:10218000813021F48FE493E00C946501089581116E
:1021900003C08DE593E004C0813021F48BE693E029
:1021A0000C9465010895811103C088E793E01DC078
:1021B000813019F483E893E018C0823019F483E980
:1021C00093E013C0833019F480EA93E00EC08430AA
:1021D00019F48CEA93E009C0853019F489EB93E097
:1021E00004C0863021F483EC93E00C9465010895DB
:1021F000811103C08EEC93E004C0813021F48DED99
:1022000093E00C9465010895811103C08BEE93E077
:1022100004C0813021F48AEF93E00C9465010895A5
:10222000811103C088E094E018C0813019F485E181
:1022300094E013C0823019F482E294E00EC083303F
:1022400019F48CE294E009C0843019F489E394E035
:1022500004C0853021F488E494E00C94650108956D
:10226000811103C087E594E004C0813021F486E643
:1022700094E00C9465010895811103C084E794E013
:102280000EC0813019F484E894E009C0823019F45A
:1022900084E994E004C0833021F485EA94E00C944E
:1022A000650108958091A1069091A2068F3E2EEFC0
:1022B00092071CF48CE291E005C08D32914034F01D
:1022C0008FEE9EEF9093A2068093A1068091A306C5
:1022D00087FF04C083E68093A30604C0843614F00D
:1022E0001092A3068091A1069091A2068C3221E063
:1022F000920719F41092A30608958F3E9E4F39F469
:102300008091A30680311CF08FE08093A30608958E
:102310008091870687FF04C087E18093870604C009
:10232000883114F0109287068091880687FF04C0D8
:102330008BE38093880604C08C3314F010928806D7
:102340008091970687FF04C08BE38093970604C0B3
:102350008C3314F0109297068091860687FF04C094
:1023600083E6809386060895843614F010928606DC
:10237000089580918906181644F080918106909105
:102380008206029769F08CE009C08D304CF0809194
:10239000810690918206029719F081E08093890668
:1023A00020918906322F3D7F809198069091990661
:1023B0003130E9F02530D9F049EF420F4230B8F022
:1023C0002A30A9F02C3099F0343099F0393089F066
:1023D000223089F49C0123703327232B61F0209154
:1023E000810630918206232B31F42CE105C02FE1C8
:1023F00003C02EE101C02DE14091A606141644F45D
:10240000552747FD509530E0241735071CF421E08F
:102410002093A60689312CEF92071CF48FE097E2F7
:1024200005C08031974234F089E19CEF9093990682
:102430008093980680919A0687FF04C086E0809377
:102440009A0604C0873014F010929A0680916606AE
:1024500087FF04C083E6809366060895843614F0EF
:10246000109266060895EF92FF920F931F93CF93F9
:10247000DF930E94D40183E295E00E9465011092EF
:1024800065061092640604E010E0E0906406F090A7
:102490006506C0919106D0919206BE01882777FD0E
:1024A0008095982F0E9476099801281B3109E21621
:1024B000F30674F488EE91E00E9465018091640651
:1024C0009091650601969093650680936406DDCF32
:1024D000CE010E94D40180E092E00E9465018091CB
:1024E00090068A3020F480E090E00E94D401809130
:1024F000900690E00E94D40180E092E00E94650185
:1025000080918F068A3020F480E090E00E94D40110
:1025100080918F0690E00E94D40188E795E00E94A8
:10252000650180918E068A3020F480E090E00E9460
:10253000D40180918E0690E00E94D40180E092E068
:102540000E94650180918D068A3020F480E090E041
:102550000E94D40180918D0690E00E94D40180E019
:1025600092E00E94650180918C068A3020F480E020
:1025700090E00E94D40180918C0690E00E94D401EA
:1025800088E795E00E9465018091930614E6612F2B
:102590000E94B324C92FD0E0209739F186EB94E054
:1025A0000E946501CE010E94D40188E795E00E9457
:1025B000650180919306612F0E94B32490E090936F
:1025C0006506809364068130910519F486EA90E0EF
:1025D00004C0029751F48FEA90E0DF91CF911F91F0
:1025E0000F91FF90EF900C946501DF91CF911F91B7
:1025F0000F91FF90EF900895CF93DF93EC018091BE
:102600004C06833049F48C2F0E943605CE0101968A
:10261000DF91CF910C9433128530F9F48091A006AC
:102620008E3F29F48C2FDF91CF910C94A3109091C1
:102630009E06911108C08F3F09F048C08C2FDF9192
:10264000CF910C943C11913009F040C08F3FF1F5CF
:102650008C2FDF91CF910C9430118630B9F5809199
:10266000A0068E3F29F48C2FDF91CF910C9410118E
:102670008F3F61F580919E06811105C08C2FDF91FF
:10268000CF910C94AF10813029F48C2FDF91CF9132
:102690000C94BB10823029F48C2FDF91CF910C94D5
:1026A000C710833029F48C2FDF91CF910C94D31075
:1026B000843029F48C2FDF91CF910C94F810853061
:1026C00029F48C2FDF91CF910C940411DF91CF91DD
:1026D00008950F931F93CF93DF93EC018B016F3F0E
:1026E0008FEF780761F460E080E00E94710182E082
:1026F00091E0DF91CF911F910F910C946501CF3F35
:102700008FEFD80761F461E080E00E947101CE0193
:102710000196DF91CF911F910F910C94FC1260E014
:1027200080E00E947101CE010E94FC1280915A0645
:1027300090E00F9668E270E00E94D32460E00E946F
:10274000710181ED94E00E946501C017D107D9F6AF
:10275000DF91CF911F910F910895809195069091EF
:102760009606029720F081E090E00E944D0B809148
:10277000460688301CF01092460605C087FF03C04D
:1027800087E08093460680E090E00E94640260E06B
:1027900080E00E9471018AEB94E00E94650161E093
:1027A00084E00E9471018BEC94E00E9465018091AD
:1027B0004606992787FD90950E94D4018FEC94E0FE
:1027C0000C94650180E090E00E94640260E080E08B
:1027D0000E94710180915D0690E00E94D40160E04A
:1027E00086E00E94710180915C0690E00E94D40115
:1027F00061E080E00E94710180915B0690E00C94A2
:10280000D40110924B060E94BB2180E090E00E9410
:10281000640260E08BE00E94710180914A068111A0
:1028200003C08BEC95E004C0813021F48AEE91E086
:102830000E9465010E94C90C8091A006811103C00D
:102840008091680681110E9492218091A0068823C0
:10285000F1F083E180934B0660E081E10E94710119
:102860008AEE91E00E94650180914B0661E0825002
:102870000E9471018AEE91E00E94650161E0809101
:102880004B060E9471018091A0060E94590D809113
:1028900068068823B9F085E280934B0660E083E206
:1028A0000E9471018AEE91E00E94650180914B06C1
:1028B00061E082500E9471018AEE91E00E94650100
:1028C0000E94450D8CE080934B06609160067091EC
:1028D0006106809162069091630641E00E94190AA8
:1028E00041E00E94A609089580E090E00E94640201
:1028F00080919506909196060B9720F08AE090E0E3
:102900000E944D0B80918106909182068F3F9F4FD0
:102910002CF40E94D10590E001970CC00E94D105D3
:1029200090E020918106309182062817390734F013
:102930008FEF9FEF90938206809381060E94D105CE
:10294000682F70E061507109809181069091820634
:102950000C9469138F92AF92BF92CF92EF920F9324
:102960008091A00687FD1092A0060E94EF0E809134
:102970009406882321F00E94C40D1092940680E0F2
:1029800090E00E9464020E946B0F2091A006332702
:1029900027FD309590E02817390721F5A09098067B
:1029A000B09099068091A5068F9380906606C0909E
:1029B0008906E0909A060091A6062091860640912D
:1029C000970660918806809187060E94A31F109247
:1029D00047060E94780181E0809368068093610039
:1029E0000F9008C00E9488110E94B91110924B06E6
:1029F0000E94C90C80916806813021F40E94AF0FBB
:102A0000109268060F91EF90CF90BF90AF908F908B
:102A10000895AF92CF92EF920F93CF938091A0063B
:102A20008E3F1CF48EEF8093A0060E94EF0E8091E3
:102A30009406882321F00E94C40D10929406809180
:102A400068068130B1F42091A0062F3F29F48091CF
:102A50009E0687FF0EC008C021110BC08091810621
:102A60009091820697FF05C021502093A0061092F6
:102A7000680680E090E00E946402C091A006809108
:102A80009E06CE3F19F58F3F14F481E003C08230DB
:102A90001CF08FEF80939E060E94922180919E06EB
:102AA000811103C00E94A62004C0813039F40E9425
:102AB000802190E0909382068093810680919E060B
:102AC00061E070E0992787FD909578C0811158C02A
:102AD000CF3FB1F480918106909182068F3F2FEF16
:102AE00092071CF483E090E004C0049734F08FEF69
:102AF0009FEF909382068093810663E070E05AC056
:102B00000E946B0F2C2F332727FD309590E028175C
:102B1000390731F08091810690918206892B29F541
:102B200081E08093610080936806A090A506C09024
:102B30006606E09089060091A606209186064091DF
:102B4000970660918806809187060E941D218091DA
:102B500081060E9495208091810690918206892BA2
:102B600009F06CC00E94C81E69C00E9488110E94B2
:102B7000B91110924B06809181060E94590D5EC0DA
:102B8000813009F05BC0CF3FE1F4809181069091E4
:102B900082068F3F2FEF92071CF481E090E004C083
:102BA000029734F08FEF9FEF909382068093810617
:102BB00061E070E080918106909182060E94691325
:102BC0003DC00E946B0F2C2F332727FD309590E0DE
:102BD0002817390731F08091810690918206892B60
:102BE00039F581E08093610080936806A090A50686
:102BF000C0906606E09089060091A60620918606A0
:102C00004091970660918806809187060E941D2159
:102C10008091810690918206009729F40E941E20DF
:102C20000E94B81E0BC0019749F40E94262006C0DE
:102C30000E94B91110924B060E94450D80916806C2
:102C4000813041F48091A0068F3F24F00E94AF0FA5
:102C500010926806CF910F91EF90CF90AF900895AA
:102C6000CF938091A0068E3F1CF48EEF8093A00638
:102C70000E94EF0E80919406882321F00E94C40DDB
:102C800010929406809168068130B1F42091A006DC
:102C90002F3F29F480919E0687FF0EC008C02111A6
:102CA0000BC0809181069091820697FF05C021504C
:102CB0002093A0061092680680E090E00E946402D3
:102CC000C091A006CE3FB9F580919E068F3F14F4C7
:102CD00085E003C086301CF08FEF80939E068091C4
:102CE0009E06811103C00E948C2118C0813019F406
:102CF0000E94872113C0823019F40E94781E0EC0F2
:102D0000833019F40E94801E09C0843019F40E9497
:102D10003E2004C0853039F40E94552090E0909305
:102D200082068093810680919E0665E070E0992777
:102D300087FD909523C0CF3FE9F580919E068330B3
:102D400020F09CEF980F9230E0F4809181069091F2
:102D500082068F3F2FEF92071CF481E090E004C0C1
:102D6000029734F08FEF9FEF909382068093810655
:102D700061E070E080918106909182060E94691363
:102D800082C0833009F07FC08091810690918206D5
:102D90008F3F2FEF92071CF486E090E004C0079766
:102DA00034F08FEF9FEF909382068093810666E068
:102DB00070E0E0CF0E946B0F2C2F332727FD30955A
:102DC00090E02817390709F05EC081E08093610028
:102DD0008093680680919E0681110FC080918106C4
:102DE00090918206009719F40E94C81E4CC001976A
:102DF00009F049C00E94D01E46C0813071F4809114
:102E0000810690918206009719F40E94B81E3BC07B
:102E10000197C9F50E94C01E36C0823071F48091BE
:102E2000810690918206009719F40E94681E2BC0BB
:102E3000019749F50E94701E26C0833029F48091C5
:102E400081060E94881E1FC0843071F48091810623
:102E500090918206009719F40E942E2014C00197C9
:102E600091F40E9436200FC0853069F4809181066C
:102E700090918206009719F40E94452004C00197A2
:102E800011F40E944D2080916806813041F48091B8
:102E9000A0068F3F24F00E94AF0F10926806CF91DA
:102EA00008958091A00687FD1092A0060E94EF0E63
:102EB00080919406882321F00E94C40D10929406FC
:102EC00080E090E00E9464020E946B0F2091A006B7
:102ED000332727FD309590E02817390791F40E9499
:102EE000661E21EA36E043E068EF0E94D1021092AC
:102EF00047060E94780181E0809368068093610014
:102F00000DC00E94521110924B066091A106709163
:102F1000A2068091A30642E00E94A609809168065D
:102F2000813021F40E94AF0F1092680608958091BD
:102F30009F06833031F580E00E942C04813089F4B3
:102F400080E090E00E94640283ED94E00E946501BD
:102F500061E080E00E94710183EE94E00E946501CF
:102F600039C080E00E942C04811134C080E090E0E0
:102F70000E94640283EF94E00E9465010E94EF0AC0
:102F800029C080914C06811103C00E94AD1322C05C
:102F9000813019F40E94E2131DC0823019F40E949E
:102FA000011418C0833019F40E94741413C08430C3
:102FB00019F40E94AA140EC0853019F40E94091554
:102FC00009C0863019F40E94301604C0873011F40D
:102FD0000E9451170C94B3078B33910509F052C02E
:102FE0008091460680934C0690E00E94D70B80911A
:102FF0004C06813009F458C0823049F40E94A62062
:103000008093A0060E948021809368064DC0833083
:10301000F1F0843071F41092A006109282061092A2
:10302000810681E080936806109294060E94BB217D
:103030003BC09BEF980F923078F48EEF8093A00600
:1030400081E0809368061092940610929E0610927A
:1030500082061092810628C0873031F51092A006B2
:10306000109282061092810681E080936806109289
:1030700094060E94661E21EA36E043E068EF0E9453
:10308000000312C08032910531F480914606909180
:103090009506890F07C0819739F480914606909173
:1030A0009506891B8093460681E080934706089524
:1030B0002F923F92EF92FF920F931F93CF93DF9344
:1030C00000D0CDB7DEB78C018C30910509F056C128
:1030D0000E943903109247060E94780184E090E034
:1030E0000E94870261E089E00E9471018BEF94E009
:1030F0000E94650160E070E08AEF93E40E945D0049
:103100000E94840182E095E00E94650160E070E029
:103110008AEF93E40E945D0041E050E061E070E0DE
:1031200080E090E00E940A0260E070E08FE294E4A8
:103130000E945D0082E090E00E94870260E070E003
:103140008FE294E40E945D0081E090E00E9487029B
:1031500060E070E08FE294E40E945D0082E090E025
:103160000E94870260E070E08FE294E40E945D00BC
:1031700085E090E00E94870260E070E08AE794E4D6
:103180000E945D0084E090E00E94870240E050E0F1
:1031900061E070E080E090E00E940A0260E070E090
:1031A0008AE794E40E945D0040E050E061E070E056
:1031B00080E090E00E94370283E090E00E94870266
:1031C00060E070E08AE794E40E945D0085E090E0B2
:1031D0000E94870261E080E00E9471018EE095E02C
:1031E0000E94650160E070E88BEB94E40E945D0052
:1031F00061E089E00E94710186E090E090938B0687
:1032000080938A060E943E279A83898310926506DE
:1032100010926406809164069091650620918A065A
:1032200030918B0682179307C4F4E980FA80E80E88
:10323000F91E0E946201F701808360E070E088EC73
:1032400092E40E945D00809164069091650601966B
:103250009093650680936406DDCF41E050E061E025
:1032600070E080E090E00E94370260E070E88BEB55
:1032700094E40E945D0083E090E00E94870280E079
:1032800090E00E94640260E070E88BEB94E40E949E
:103290005D0061E080E00E947101CE0101961C0199
:1032A0000E94870784E090E00E94870260E089E046
:1032B0000E9471010E94870761E088E00E9471010D
:1032C00085E090E00E9487020E94870760E081E02D
:1032D0000E9471010E94870789819A810E94D627E6
:1032E00083E090E00E94870260E070E88BEB94E45A
:1032F0000E945D0041E050E06FE070E084E190E00A
:103300000E940A0241E050E06FE070E084E190E04A
:103310000E94370281E090E00E94640284E090E025
:103320000E94870260E070E08AE794E40E945D00FA
:1033300041E050E06FE070E084E190E00E943702ED
:1033400041E050E06FE070E084E190E00E940A020A
:1033500083E090E00E94870282E090E00E94640295
:1033600060E070E08AEF93E40E945D000E947801C3
:1033700081E090E00E9487020E943D030630110523
:1033800018F4C8010E9487020F900F90DF91CF912F
:103390001F910F91FF90EF903F902F90089581E043
:1033A0008093470608958C30910561F46130710572
:1033B00039F50E94780186E195E00E9465010E943E
:1033C00074071EC08032910559F480918106909156
:1033D00082062091950630919606821B930B0CC0B5
:1033E000819771F4809181069091820620919506D3
:1033F00030919606820F931F9093820680938106E8
:1034000081E08093470608958031910521F48091F1
:10341000A0068F5F06C08131910549F48091A00616
:1034200081508093A00681E08093680612C08032AC
:10343000910511F481E004C08132910521F482E00C
:103440008093940606C0CB9721F40E946B0F809363
:10345000A00681E08093470608958031910521F40C
:103460008091A0068F5F06C08131910549F480915B
:10347000A00681508093A00681E08093680612C068
:103480008032910511F481E004C08132910521F46C
:1034900082E08093940606C0CB9721F40E946B0FC4
:1034A0008093A00681E080934706089580319105BE
:1034B00021F48091A0068F5F06C08131910549F407
:1034C0008091A00681508093A00681E080936806D9
:1034D00012C08032910511F481E004C0813291055F
:1034E00021F482E08093940606C0CB9721F40E94D9
:1034F0006B0F8093A00681E080934706089580318A
:10350000910521F48091A0068F5F06C0813191055D
:1035100049F48091A00681508093A00681E08093B9
:10352000680612C08032910511F481E004C0813236
:10353000910521F482E08093940606C0CB9721F494
:103540000E946B0F8093A00681E080934706089548
:103550000F931F93CF93DF93EC018B010E94130B0A
:1035600080914C06811105C0B801CE010E94EC1774
:103570002FC0813029F4B801CE010E94581828C00C
:10358000823021F481E08093470622C0833029F401
:10359000B801CE010E94D3191BC0843029F4B801B0
:1035A000CE010E94041A14C0853029F4B801CE015E
:1035B0000E942D1A0DC0863029F4B801CE010E9458
:1035C000561A06C0873021F4B801CE010E947F1A36
:1035D000C632D10561F5109247060E94780185E256
:1035E00095E00E94650161E080E00E94710181E345
:1035F00095E00E9465010E94B30760E070E08AE7F1
:1036000093E40E945D0041E050E06FE070E084E1EF
:1036100090E00E940A0241E050E06FE070E084E137
:1036200090E00E94370281E08093470632C0C932A1
:10363000D10519F40E9478052CC0CF30D10589F44A
:103640000115110531F41092490682E00E942B0BFE
:103650002CC00130110549F50E9490010E94210BF8
:1036600024C0CE32D10549F441E050E061E070E081
:1036700080E090E00E940A022AC0C232D10549F4DB
:1036800041E050E061E070E080E090E00E943702AD
:1036900024C0C432D10549F441E050E06FE070E04D
:1036A00084E190E00E940A0222C0C332D10549F4AD
:1036B00041E050E06FE070E084E190E00E9437026A
:1036C00038C0CC32D10519F40E94A10B32C0CD32E2
:1036D000D10519F40E94BB0B2CC0CE30D10539F4B2
:1036E0000130110531F581E08093610022C0C436BC
:1036F000D105F9F480914A06813079F410924A0696
:103700000E94F70A60E070E08AEF93E40E941C0BCD
:103710000E943903109249060CC081110AC081E051
:1037200080934A060E94EF0A0E943D0382E00E94B5
:103730002B0B80914C06813031F4DF91CF911F919A
:103740000F910C949717DF91CF911F910F910895CE
:103750000F931F93CF93DF9300D0CDB7DEB78C01CB
:103760008091490687FD07C082E069837A830E94C1
:103770002B0B7A81698180919F06833019F0C801F3
:103780000E94A81A80919F06833081F480E00E94F5
:103790002C04813059F410929F0682E00F900F9014
:1037A000DF91CF911F910F910C942B0B0F900F90E5
:1037B000DF91CF911F910F9108951092650610929D
:1037C00064062091600080915B06223079F03327F7
:1037D00027FD309590E02817390731F481E090E01B
:1037E000909365068093640680915B0680936000E9
:1037F0000895CF92DF92EF92FF921F93CF93DF93C2
:1038000000D01F92CDB7DEB780914706813021F4FA
:10381000109247060E94971780917E06813009F02A
:1038200020C1109284061092830610927E06909119
:103830009F0680914E06933059F5811129C00E9450
:103840002C048130D9F40E94130B82E00E942B0BD0
:1038500083E290E00E94A92810914806113001F5FA
:1038600080E00E941B040E9490010E94210B109393
:103870004E068BE395E00E94B02812C080E00E94C3
:103880002C0481110DC00E940B0410929F0608C0E9
:10389000813031F460E070E088EC92E40E941C0B0F
:1038A00080919F06811117C084E595E09F938F93C7
:1038B0000E9495280E94B9040E9453060F900F9011
:1038C000813031F48AE795E00E94B0280E94EB0530
:1038D00082E080939F0680919F068250823008F09C
:1038E000A6C080914C068450823008F49CC00E948F
:1038F0009C0A0E9474220E941C0780919F068230BD
:1039000009F095C00E948721813049F482E00E942D
:103910002B0B0E94130B0E94EB050E94B81E0E9405
:10392000661E9E012F5F3F4F43E068EF0E94000339
:1039300060916006709161068091620690916306C5
:1039400042E00E94190A0E94F1096B017C01698121
:103950007A818B810E94F1099B01AC01C701B601FC
:103960000E94D7261816F4F481E00E942C048823C4
:1039700021F080914D0681112CC060E070E080E262
:1039800091E40E941C0B82E00E942B0B8DE995E0D4
:103990009F938F930E9495280E94FA0481E00E94D1
:1039A0000B0415C081E00E942C04813091F40E9428
:1039B000130B82E00E942B0B8DEC95E09F938F936D
:1039C0000E9495280E94FA0481E00E941B040F9037
:1039D0000F9081E080934D060E942C04813041F4C9
:1039E0000E94FF0A60E070E088E492E40E941C0BF1
:1039F0000E948C218130D9F482E00E942B0B0E941E
:103A0000130B81E00E942C04813041F48AEE95E092
:103A10009F938F930E9495280F900F900E94FA0415
:103A20000E94C81E04C00E940B070E940C0B8091CC
:103A30004C06823019F481E0809347068091490654
:103A400018161CF481508093490680914906811113
:103A500002C00E94D2010E945306813011F40E94DC
:103A6000E70A10916100113001F51092610081E0C8
:103A700090E00E94870280914C068093A0061092ED
:103A80004C061092460681E090E090939606809353
:103A9000950660E070E08BE390E00E94A81B8091A7
:103AA000A00680934606109347060E940304892BC4
:103AB00091F08EE190E00E9449000E940304892B5E
:103AC00051F060E070E084E690E00E94A81B84E67C
:103AD00090E00E94490080915F068823A1F08091C8
:103AE0005C068111A1C00E94DD1B10925F068091CF
:103AF0005D06609164067091650690E00E94A81BC7
:103B00000E94FD0391C00E946A23809385069091D4
:103B10009F06933071F4882309F486C0823721F41C
:103B200081E08093480680C060E070E080E090E033
:103B300079C0853629F460E070E08BE390E072C0D4
:103B4000873729F460E070E080E290E06BC0833753
:103B500029F460E070E081E290E064C0843629F4EA
:103B600060E070E080E190E05DC0813629F460E0C3
:103B700070E081E190E056C0813719F460E070E0B8
:103B800004C0813529F461E070E08EE090E04AC025
:103B90008B3629F460E070E086E290E043C0803725
:103BA00019F460E070E004C0803529F461E070E051
:103BB0008FE090E037C0843729F460E070E08CE05B
:103BC00090E030C08B3529F460E070E08EE290E048
:103BD00029C08D3529F460E070E082E290E022C0D7
:103BE0008B3729F460E070E084E290E01BC08D37F1
:103BF00029F460E070E083E290E014C0813229F49F
:103C000060E070E089E290E00DC08C3329F460E060
:103C100070E08DE290E006C08E3331F460E070E039
:103C20008CE290E00E94A81B0F900F900F90DF9104
:103C3000CF911F91FF90EF90DF90CF900895982F34
:103C400092959F708F702AE0929F800D11240895A5
:103C50006AE00E94B324292F30E1839FC001112420
:103C6000822B0895CF93DF931F92CDB7DEB7698380
:103C70009E012F5F3F4F41E0682F80EA0E94D102F2
:103C80000F90DF91CF910895CF93DF931F92CDB71F
:103C9000DEB79E012F5F3F4F41E0682F80EA0E9410
:103CA000000389810F90DF91CF91089580E00E94F9
:103CB000441E682F6F7C80E00E94321E80E00E94CC
:103CC000441E682F646080E00C94321E80EA0895E0
:103CD00080E00E94441E682F606880E00C94321ED1
:103CE00080E00E94441E682F6F7780E00C94321EA3
:103CF00080E00E94441E8095881F8827881F0895B1
:103D000088E00E94441E8770873009F486E0089599
:103D1000CF93C82F863009F4C7E088E00E94441E84
:103D20006C2F6770887F682B88E0CF910C94321ECF
:103D300080E00E94441E682F6F7B80E00C94321E4E
:103D400080E00E94441E682F606480E00C94321E64
:103D500080E00E94441E682F677F80E00C94321E32
:103D600080E00E94441E682F686080E00C94321E40
:103D700080E00E94441E682F6E7F80E00C94321E0B
:103D800080E00E94441E682F616080E00C94321E27
:103D900080E00E94441E682F6D7F80E00C94321EEC
:103DA00080E00E94441E682F626080E00C94321E06
:103DB000CF93DF9300D0CDB7DEB769837A839E01BE
:103DC0002F5F3F4F42E0682F80EA0E94D1020F90A0
:103DD0000F90DF91CF910895CF93DF9300D0CDB7AF
:103DE000DEB79E012F5F3F4F42E0682F80EA0E94BE
:103DF000000389812A8190E0922B0F900F90DF9130
:103E0000CF9108952F923F924F925F926F927F923F
:103E10008F929F92AF92BF92CF92DF92EF92FF92DA
:103E20000F931F93CF93DF93CDB7DEB72B970FB6CA
:103E3000F894DEBF0FBECDBF9B878A873B012A0166
:103E400019010E94A81E0E94A01E9E012F5F3F4FD5
:103E500047E061E080EA0E9400030E94981E0E94F1
:103E6000B01E9E01285F3F4F42E060E180EA0E9461
:103E7000000389810E941F1EF10180838A810E94B4
:103E80001F1EF20180838B810E941F1EF30180831D
:103E90007C80872D8F730E941F1EEA85FB8580839F
:103EA00076FA772470F8E8A1F9A170827D80872DD9
:103EB0008F730E941F1EF80180831E81812F8F71D6
:103EC0000E941F1EF6018083129516951770F70148
:103ED0001083098510E0102F00278885082B980192
:103EE0002370332772947694769493E07922872D09
:103EF00090E02817390731F00F5F1F4FB80180E1BC
:103F00000E94D81EF501118300838F810E941F1E1D
:103F1000F40180832B960FB6F894DEBF0FBECDBFA1
:103F2000DF91CF911F910F91FF90EF90DF90CF9095
:103F3000BF90AF909F908F907F906F905F904F90C9
:103F40003F902F9008958F92AF92BF92CF92EF92B1
:103F5000FF920F931F93CF93DF93CDB7DEB72B97CD
:103F60000FB6F894DEBF0FBECDBFF82E822F4A8762
:103F70006B870E94281E89834A85842F0E94281EF1
:103F80008A836B85862F0E94281E8B838F2D0E942B
:103F9000281E182F84E00E94441E912F9F73807862
:103FA000982B288D80E4289F900111242074922B57
:103FB0009C83802F0E94281E8F739A2D9295990FB3
:103FC000990F907C982B9D838C2D0E94281E8F71B9
:103FD00090E2E99E700111248E298E83A886B9860D
:103FE000882D0E94281E8F830E94781E082F0E9411
:103FF000681E9E012F5F3F4F47E061E080EA0E940C
:10400000D1029E01285F3F4F42E060E180EA0E94BA
:10401000D102013011F40E94701E2B960FB6F89455
:10402000DEBF0FBECDBFDF91CF911F910F91FF90EB
:10403000EF90CF90BF90AF908F90089588E00E944E
:10404000441E682F6F7B88E00C94321E88E00E942B
:10405000441E682F606488E00C94321E88E00E9441
:10406000441E682F6F7788E00C94321E88E00E940F
:10407000441E682F606888E00C94321E88E00E941D
:10408000441E881F8827881F089588E00E94441EC8
:10409000682F677F88E00C94321E88E00E94441EDF
:1040A000682F686088E00C94321E88E00E94441EED
:1040B00083FB882780F9089584E00E94441E682FBE
:1040C0006F7784E00E94321E8CE00E94441E682FAD
:1040D0006F778CE00C94321E84E00E94441E682F9F
:1040E000606884E00E94321E8CE00E94441E682FAB
:1040F00060688CE00C94321E84E00E94441E87FDB0
:1041000007C084E00E94441E87FF09C08FEF089516
:104110008CE00E94441E87FFF4CF81E008958CE07C
:104120000E94441E880F880B0895CF93C82F88E003
:104130000E94441E682F6F7C80E1C89F900111246B
:104140002073622B88E0CF910C94321E88E00E948D
:10415000441E807382958F7008952F923F924F92E4
:104160005F926F927F928F929F92AF92BF92CF9207
:10417000DF92EF92FF920F931F93CF93DF93CDB710
:10418000DEB727970FB6F894DEBF0FBECDBF1C0178
:104190004B013A0129019E012F5F3F4F47E069E043
:1041A00080EA0E94000389810E941F1EF201808321
:1041B0008A810E941F1EF30180838B810E941F1E33
:1041C000F40180839C80892D8F730E941F1EF10152
:1041D000808396FA992490F8F50190828D810E944F
:1041E0001F1EF80180830E94A620823019F48E8160
:1041F0008F7703C08E810E941F1EF70180838F81FD
:104200000E941F1EF601808327960FB6F894DEBF2A
:104210000FBECDBFDF91CF911F910F91FF90EF9017
:10422000DF90CF90BF90AF909F908F907F906F90D6
:104230005F904F903F902F900895AF92CF92DF9272
:10424000EF92FF920F931F93CF93DF93CDB7DEB71B
:1042500029970FB6F894DEBF0FBECDBFF82ED22E31
:10426000488769870E94A620182F8D2D0E94281E3E
:1042700089834885842F0E94281E8A836985862F1A
:104280000E94281E8B838F2D0E94281EF82E8CE002
:104290000E94441E9F2D9F738078982B80E4A89ED7
:1042A000900111242074922B9C83123019F48E2DCE
:1042B0008F7709C0133041F4802F0E94281E8D8310
:1042C0008E2D0E94281E8E838C2D0E94281E8F8387
:1042D0009E012F5F3F4F47E069E080EA0E94D102D4
:1042E00029960FB6F894DEBF0FBECDBFDF91CF91F8
:1042F0001F910F91FF90EF90DF90CF90AF900895B6
:1043000088E00E94441E86FB882780F9089580E09B
:104310000E94441E8170089580E00E94441E86958C
:1043200081700895AF92BF92CF92DF92EF92FF9289
:104330000F931F9325EAA22E26E0B22E36E6C32E57
:1043400036E0D32E49E8E42E46E0F42E06EA16E0E5
:1043500026E836E047E956E068E876E087E896E048
:104360000E94AD201F910F91FF90EF90DF90CF90B2
:10437000BF90AF9008958F929F92AF92BF92CF92CD
:10438000DF92EF92FF920F931F9385EA96E09F933F
:104390008F9356E6852E56E0952E68E9A62E66E0A8
:1043A000B62E79E8C72E76E0D72EEAE9EE2EE6E0C3
:1043B000FE2E06EA16E026E836E047E956E068E811
:1043C00076E087E896E00E94021F0F900F901F9101
:1043D0000F91FF90EF90DF90CF90BF90AF909F90A4
:1043E0008F900895882319F0D89AD09A0895D0987C
:1043F0000895D89899B3892F817090FF15C0D09AED
:1044000084EF91E00E945400D09886E490E00E94EE
:10441000540084EF91E0C89904C00E94540081E0E8
:1044200008950E94540080E00895CF93DF93D82F21
:10443000D898C8E0D09AD0FF08C087E090E00E94EA
:104440005400D09886E490E007C086E490E00E9493
:104450005400D09887E090E00E945400D695C15057
:1044600049F7DF91CF9108950E94F921882339F00F
:104470008CEC0E94152284E40E9415228FEF08958F
:10448000CF93DF93D098D8E0C0E0D09A87E090E057
:104490000E945400D09887E090E00E945400C69596
:1044A000C899C06886E490E00E945400D15069F732
:1044B0008C2FDF91CF9108950E94F921882389F0F4
:1044C0008CEC0E9415228EEB0E9415220E94402245
:1044D00080939B060E94402280939C0681E090E09E
:1044E000089580E090E008950E9434228823F1F03E
:1044F0008BE996E00E945C2260919C0670E0762F2A
:10450000662780919B06680F711D882777FD80952F
:10451000982F0E94272620E030E040E85DE30E94CB
:10452000DB2610929B0610929C0603C060E070E0B0
:10453000CB0160936006709361068093620690934E
:104540006306089585B5886085BD85E083BD89B71C
:10455000806889BF0895B99ABA9ABB9A10927F066B
:10456000109273061092A406089585B5876085BDE4
:10457000089585B5887F85BD08951F920F920FB667
:104580000F9211242F938F939F9380918306909184
:1045900084068C3D954019F481E080937E069091CD
:1045A000670680917F06981710F0C19A01C0C198E4
:1045B0009091670680917306981710F0C29A01C017
:1045C000C298909167068091A406981710F0C39A3C
:1045D00001C0C398809183069091840601969093C0
:1045E000840680938306809167068F5F80936706B9
:1045F0009F918F912F910F900FBE0F901F90189544
:10460000CF93C82F8A3019F48DE00E9400232091A7
:104610005406309155062F5F3F4F2F71332740913D
:1046200052065091530624173507C9F3F901E7558F
:10463000F94FC0833093550620935406559ACF9175
:1046400008959C0140E050E060E472E48FE090E067
:104650000E94E7242150310930BD29B988E18AB987
:1046600086E880BD8AB188698AB98A98929A82E67A
:1046700090E09093E0068093DF0608950C94002369
:10468000CF93DF93EC018991882319F00E940023D6
:10469000FACFDF91CF910895CF93DF93CDB7DEB7F7
:1046A00064970FB6F894DEBF0FBECDBF462F50E023
:1046B000BE016F5F7F4F0E946528CE0101960E9468
:1046C000402364960FB6F894DEBF0FBECDBFDF91D6
:1046D000CF91089520915606309157068091580643
:1046E000909159062817390799F0809156069091B4
:1046F000570601968F709927909357068093560618
:10470000E0915606F0915706E753F94F80810895DE
:1047100080E00895BF92CF92DF92EF92FF920F93C5
:104720001F93CF93DF938C017B01C0E0D0E06B013E
:1047300081E0C81AD1080E946A23B82E882359F054
:104740008DE0B81659F08B2D0E940023F801EC0F74
:10475000FD1FB0822196CC15DD0569F7C00FD11F72
:10476000CE01801B910B8E159F0510F41992F8CF86
:10477000DF91CF911F910F91FF90EF90DF90CF903D
:10478000BF9008950F931F93CF93DF93C0E0D0E0C5
:104790000AE00E946A23182F8823D9F38D3071F024
:1047A0000E940023CE01089FE001099FD00D112433
:1047B000C10FD11D17FDDA95E097EBCF8AE00E947B
:1047C0000023CE01DF91CF911F910F9108951F9289
:1047D0000F920FB60F9211242F933F938F939F93B5
:1047E000EF93FF93809158069091590601968F7030
:1047F000992720915606309157068217930769F042
:104800009093590680935806E0915806F091590606
:104810008CB1E753F94F808301C08CB1FF91EF91C8
:104820009F918F913F912F910F900FBE0F901F90EE
:1048300018951F920F920FB60F9211242F933F934A
:104840008F939F93EF93FF932091520630915306DD
:10485000809154069091550628173907A1F0809150
:1048600052069091530601968F71992790935306A3
:1048700080935206E0915206F0915306E755F94FA6
:1048800080818CB901C05598FF91EF919F918F91D4
:104890003F912F910F900FBE0F901F9018958F9AF8
:1048A00088EE93E00E9449000E94920184E690E025
:1048B0000E94A2020E94561E0E94C81E0E94B81E9C
:1048C0000E945C200E94AB220E9474220E94A222BD
:1048D0000E94B5220E9441030E948C0580E091EE67
:1048E0000E942123789482EF95E00E94B0280E94D4
:1048F0003D0381E080934A0680939F068BE096E01B
:104900000E9465018CED95E00E94490061E086E01F
:104910000E94710189E196E00E94650188EE93E0B2
:104920000E94490041E050E06FE070E084E190E0D7
:104930000E940A020E9478010E94F91B82E0809383
:10494000460660E070E08BE390E00E94A81B83E0E5
:1049500080939F060E940B0784E296E00E94B02895
:104960000E94F91BFDCF991B79E004C0991F96178F
:1049700008F0961B881F7A95C9F780950895AA1BA1
:10498000BB1B51E107C0AA1FBB1FA617B70710F03A
:10499000A61BB70B881F991F5A95A9F7809590956C
:1049A000BC01CD01089597FB072E16F4009407D0A3
:1049B00077FD09D00E94BF2407FC05D03EF49095F6
:1049C00081959F4F0895709561957F4F0895A1E25D
:1049D0001A2EAA1BBB1BFD010DC0AA1FBB1FEE1F79
:1049E000FF1FA217B307E407F50720F0A21BB30BC4
:1049F000E40BF50B661F771F881F991F1A9469F740
:104A000060957095809590959B01AC01BD01CF019B
:104A100008950E941425A59F900DB49F900DA49F0A
:104A2000800D911D11240895A29FB001B39FC00174
:104A3000A39F700D811D1124911DB29F700D811DCA
:104A40001124911D08955058BB27AA270ED075C177
:104A500066D130F06BD120F031F49F3F11F41EF499
:104A60005BC10EF4E095E7FB51C1E92F77D180F3EC
:104A7000BA17620773078407950718F071F49EF55B
:104A80008FC10EF4E0950B2EBA2FA02D0B01B901AA
:104A900090010C01CA01A0011124FF27591B99F0B4
:104AA000593F50F4503E68F11A16F040A22F232FC0
:104AB000342F4427585FF3CF469537952795A79510
:104AC000F0405395C9F77EF41F16BA0B620B730BB7
:104AD000840BBAF09150A1F0FF0FBB1F661F771F28
:104AE000881FC2F70EC0BA0F621F731F841F48F4DD
:104AF000879577956795B795F7959E3F08F0B3CF63
:104B00009395880F08F09927EE0F9795879508954C
:104B1000D9D008F481E008950CD00FC107D140F03E
:104B2000FED030F021F45F3F19F0F0C0511139C1CF
:104B3000F3C014D198F39923C9F35523B1F3951B0E
:104B4000550BBB27AA2762177307840738F09F5FAE
:104B50005F4F220F331F441FAA1FA9F333D00E2E1D
:104B60003AF0E0E830D091505040E695001CCAF78A
:104B700029D0FE2F27D0660F771F881FBB1F26174F
:104B800037074807AB07B0E809F0BB0B802DBF0122
:104B9000FF2793585F4F2AF09E3F510568F0B6C03B
:104BA00000C15F3FECF3983EDCF3869577956795FF
:104BB000B795F7959F5FC9F7880F911D96958795D3
:104BC00097F90895E1E0660F771F881FBB1F6217F2
:104BD00073078407BA0720F0621B730B840BBA0BB0
:104BE000EE1F88F7E095089504D06894B111D9C0FC
:104BF0000895BCD088F09F5790F0B92F9927B751EE
:104C0000A0F0D1F0660F771F881F991F1AF0BA9590
:104C1000C9F712C0B13081F0C3D0B1E00895C0C06F
:104C2000672F782F8827B85F39F0B93FCCF3869586
:104C300077956795B395D9F73EF4909580957095E3
:104C400061957F4F8F4F9F4F0895E89409C097FB60
:104C50003EF490958095709561957F4F8F4F9F4F53
:104C60009923A9F0F92F96E9BB279395F695879597
:104C700077956795B795F111F8CFFAF4BB0F11F45A
:104C800060FF1BC06F5F7F4F8F4F9F4F16C0882301
:104C900011F096E911C0772321F09EE8872F762F37
:104CA00005C0662371F096E8862F70E060E02AF078
:104CB0009A95660F771F881FDAF7880F9695879564
:104CC00097F90895990F0008550FAA0BE0E8FEEF39
:104CD00016161706E807F907C0F012161306E407C0
:104CE000F50798F0621B730B840B950B39F40A26B9
:104CF00061F0232B242B252B21F408950A2609F497
:104D0000A140A6958FEF811D811D089597F99F679A
:104D100080E870E060E008959FEF80EC0895002443
:104D20000A941616170618060906089500240A9410
:104D300012161306140605060895092E0394000C96
:104D400011F4882352F0BB0F40F4BF2B11F460FF25
:104D500004C06F5F7F4F8F4F9F4F089557FD90584E
:104D6000440F551F59F05F3F71F04795880F97FB2F
:104D7000991F61F09F3F79F08795089512161306E9
:104D80001406551FF2CF4695F1DF08C01616170618
:104D90001806991FF1CF869571056105089408954D
:104DA000E894BB2766277727CB0197F908958ADF18
:104DB00008F48FEF08950BD0C0CFB1DF28F0B6DF35
:104DC00018F0952309F0A2CFA7CF1124EACFC6DFB0
:104DD000A0F3959FD1F3950F50E0551F629FF0010E
:104DE000729FBB27F00DB11D639FAA27F00DB11D67
:104DF000AA1F649F6627B00DA11D661F829F2227F0
:104E0000B00DA11D621F739FB00DA11D621F839F76
:104E1000A00D611D221F749F3327A00D611D231F4C
:104E2000849F600D211D822F762F6A2F11249F579A
:104E300050408AF0E1F088234AF0EE0FFF1FBB1FBD
:104E4000661F771F881F91505040A9F79E3F51055C
:104E500070F05CCFA6CF5F3FECF3983EDCF3869515
:104E600077956795B795F795E7959F5FC1F7FE2B07
:104E7000880F911D9695879597F90895CF93DF93A5
:104E80008230910510F482E090E0E091DB06F09131
:104E9000DC0620E030E0A0E0B0E0309739F140815E
:104EA000518148175907B8F04817590771F48281A2
:104EB0009381109729F013969C938E9312972CC090
:104EC0009093DC068093DB0627C02115310531F075
:104ED0004217530718F0A901DB0101C0EF019A0145
:104EE000BD01DF010280F381E02DD7CF211531050F
:104EF000F9F0281B390B2430310580F48A819B811D
:104F00006115710521F0FB019383828304C09093A6
:104F1000DC068093DB06FE01329644C0FE01E20F00
:104F2000F31F8193919322503109398328833AC02A
:104F30002091D9063091DA06232B41F4209172009A
:104F4000309173003093DA062093D90620917000D7
:104F5000309171002115310541F42DB73EB74091D4
:104F6000740050917500241B350BE091D906F09127
:104F7000DA06E217F307A0F42E1B3F0B28173907B8
:104F800078F0AC014E5F5F4F2417350748F04E0FA5
:104F90005F1F5093DA064093D9068193919302C024
:104FA000E0E0F0E0CF01DF91CF910895CF93DF9360
:104FB000009709F487C0FC01329713821282C091D6
:104FC000DB06D091DC06209781F420813181280F07
:104FD000391F8091D9069091DA068217930779F5E7
:104FE000F093DA06E093D9066DC0DE0120E030E0F0
:104FF000AE17BF0750F412964D915C9113979D0127
:105000004115510509F1DA01F3CFB383A283408141
:105010005181840F951F8A179B0771F48D919C9184
:105020001197840F951F02969183808312968D911C
:105030009C911397938382832115310529F4F09372
:10504000DC06E093DB063EC0D9011396FC93EE9399
:1050500012974D915D91A40FB51FEA17FB0779F4E4
:1050600080819181840F951F0296D90111969C939E
:105070008E938281938113969C938E931297E0E096
:10508000F0E08A819B81009719F0FE01EC01F9CFD5
:10509000CE01029628813981820F931F2091D90673
:1050A0003091DA062817390769F4309729F41092FD
:1050B000DC061092DB0602C013821282D093DA065D
:1050C000C093D906DF91CF9108954532510520F460
:1050D000423010F00C947028FB011082CB0108952F
:1050E000BB274A3031F4992322F4BDE29095819593
:1050F0009F4F0C947C28BB27FB015527AA27880FBC
:10510000991FAA1FA41710F0A41B83955051B9F73B
:10511000A05DAA3308F0A95DA193009779F7B111BA
:10512000B1931192CB010C94F62AA0E0B0E0EBE928
:10513000F8E20C94A62BFE01359661917191AF01B6
:105140008091DF069091E0060E94DD28E2E00C9459
:10515000C22B6091DF067091E0060E94062B089535
:105160000F931F93CF93DF93E091DF06F091E0065A
:10517000238121FF1BC0EC0100E010E089916091C8
:10518000DF067091E006DB011896ED91FC9119970E
:10519000882331F00995892B89F30FEF1FEFEECFAC
:1051A0008AE00995892B11F4C80102C08FEF9FEFA7
:1051B000DF91CF911F910F910895ACE0B0E0E3EE45
:1051C000F8E20C94962B7C016B018A01FC0117829A
:1051D0001682838181FFBDC1CE0101964C01F7018A
:1051E0009381F60193FD859193FF81916F0188234F
:1051F00009F4ABC1853239F493FD859193FF819118
:105200006F01853229F4B70190E00E94062BE7CFA9
:10521000512C312C20E02032A0F48B3269F030F494
:10522000803259F0833269F420612CC08D3239F01C
:10523000803339F4216026C02260246023C02860B6
:1052400021C027FD27C030ED380F3A3078F426FF13
:1052500006C0FAE05F9E300D1124532E13C08AE081
:10526000389E300D1124332E20620CC08E3221F472
:1052700026FD6BC1206406C08C3611F4206802C084
:10528000883641F4F60193FD859193FF81916F017A
:105290008111C1CF982F9F7D9554933028F40C5FD6
:1052A0001F4FFFE3F9830DC0833631F0833771F070
:1052B000833509F05BC022C0F801808189830E5FCD
:1052C0001F4F44244394512C540115C03801F2E07F
:1052D0006F0E711CF801A080B18026FF03C0652D00
:1052E00070E002C06FEF7FEFC5012C870E94EB2AB0
:1052F0002C0183012C852F77222E17C03801F2E074
:105300006F0E711CF801A080B18026FF03C0652DCF
:1053100070E002C06FEF7FEFC5012C870E94E02A8A
:105320002C012C852068222E830123FC1BC0832D99
:1053300090E048165906B0F4B70180E290E00E9470
:10534000062B3A94F4CFF50127FC859127FE819135
:105350005F01B70190E00E94062B31103A94F1E012
:105360004F1A51084114510471F7E5C0843611F009
:10537000893639F5F80127FF07C060817181828184
:1053800093810C5F1F4F08C060817181882777FD72
:105390008095982F0E5F1F4F2F76B22E97FF09C072
:1053A00090958095709561957F4F8F4F9F4F2068A6
:1053B000B22E2AE030E0A4010E94382BA82EA818B3
:1053C00044C0853729F42F7EB22E2AE030E025C074
:1053D000F22FF97FBF2E8F36C1F018F4883579F09F
:1053E000B4C0803719F0883721F0AFC02F2F20616B
:1053F000B22EB4FE0DC08B2D8460B82E09C024FFE0
:105400000AC09F2F9660B92E06C028E030E005C084
:1054100020E130E002C020E132E0F801B7FE07C031
:1054200060817181828193810C5F1F4F06C0608112
:10543000718180E090E00E5F1F4FA4010E94382B25
:10544000A82EA818FB2DFF77BF2EB6FE0BC02B2D64
:105450002E7FA51450F4B4FE0AC0B2FC08C02B2D58
:105460002E7E05C07A2C2B2D03C07A2C01C0752C02
:1054700024FF0DC0FE01EA0DF11D8081803311F47F
:10548000297E09C022FF06C07394739404C0822F42
:10549000867809F0739423FD13C020FF06C05A2CB0
:1054A000731418F4530C5718732C731468F4B70161
:1054B00080E290E02C870E94062B73942C85F5CF18
:1054C000731410F4371801C0312C24FF12C0B70137
:1054D00080E390E02C870E94062B2C8522FF17C0CA
:1054E00021FF03C088E590E002C088E790E0B701A3
:1054F0000CC0822F867859F021FD02C080E201C0E5
:105500008BE227FD8DE2B70190E00E94062BA514E7
:1055100038F4B70180E390E00E94062B5A94F7CF4D
:10552000AA94F401EA0DF11D8081B70190E00E9478
:10553000062BA110F5CF332009F451CEB70180E23C
:1055400090E00E94062B3A94F6CFF701868197816E
:1055500002C08FEF9FEF2C96E2E10C94B22BDC019E
:10556000CB01FC01E199FECF06C0FFBBEEBBE09A88
:1055700031960DB20D9241505040B8F70895DC01BC
:10558000A40FB51F4150504048F0CB01840F951F28
:105590002E910E94D02A41505040D0F70895262FD6
:1055A000E199FECF9FBB8EBBE09A01970DB2021628
:1055B00031F02DBB0FB6F894E29AE19A0FBE089530
:1055C000FC010590615070400110D8F780959095CE
:1055D0008E0F9F1F0895FC016150704001900110D3
:1055E000D8F7809590958E0F9F1F0895DC01FC01E0
:1055F000672F71917723E1F7329704C07C916D9307
:1056000070836291AE17BF07C8F308950F931F937D
:10561000CF93DF93182F092FEB018B8181FD03C0FE
:105620008FEF9FEF20C082FF10C04E815F812C81E1
:105630003D81421753077CF4E881F9819F012F5F78
:105640003F4F39832883108306C0E885F985812F71
:105650000995892B29F72E813F812F5F3F4F3F838B
:105660002E83812F902FDF91CF911F910F9108955D
:10567000FA01AA27283051F1203181F1E8946F9383
:105680006E7F6E5F7F4F8F4F9F4FAF4FB1E03ED029
:10569000B4E03CD0670F781F891F9A1FA11D680FC7
:1056A000791F8A1F911DA11D6A0F711D811D911DFA
:1056B000A11D20D009F468943F912AE0269F11246F
:1056C0003019305D3193DEF6CF010895462F4770D3
:1056D000405D4193B3E00FD0C9F7F6CF462F4F702E
:1056E000405D4A3318F0495D31FD4052419302D08C
:1056F000A9F7EACFB4E0A695979587957795679532
:10570000BA95C9F700976105710508959B01AC0131
:105710000A2E06945795479537952795BA95C9F758
:10572000620F731F841F951FA01D08952F923F9233
:105730004F925F926F927F928F929F92AF92BF92A1
:10574000CF92DF92EF92FF920F931F93CF93DF934D
:10575000CDB7DEB7CA1BDB0B0FB6F894DEBF0FBEAA
:10576000CDBF09942A88398848885F846E847D84F7
:105770008C849B84AA84B984C884DF80EE80FD80F9
:105780000C811B81AA81B981CE0FD11D0FB6F8946F
:0E579000DEBF0FBECDBFED010895F894FFCF30
:10579E0002010000000200000000002300000000D3
:1057AE000000E30620000700253034643A2530322D
:1057BE00643A2530326420253032643A2530326422
:1057CE003A2530326400204F4249454B54204E5208
:1057DE003A20256420004F54574152434945005A00
:1057EE00414D4B4E494543494500253034643A25D9
:1057FE003032643A2530326420253032643A253016
:10580E0032643A253032640A000A54454D504552EE
:10581E0041545552412E200025642E2530326420ED
:10582E0073746F706E692043656C736A75737A61F9
:10583E000A004272616B2064616E796368002530E4
:10584E0033642E20000A5241504F5254204157418A
:10585E0052594A4E592E2000424C45444E4520572F
:10586E004152544F53434920414452455355204BC6
:10587E004F4C454A4B49212121000A5241504F526B
:10588E00542E200050726F6772616D3A2000505294
:10589E004F4752414D20474C4F574E590050524F93
:1058AE004752414D20544553544F575900435A5572
:1058BE0057414E49450044414E45202D2045455007
:1058CE00524F4D004E41535441574120474F445A79
:1058DE00494E59004E41535441574120414C41527B
:1058EE004D5500555354415749454E494120464C5C
:1058FE0041470054454D502E204B52595459435A4E
:10590E004E4100506E00577400537200437A00509F
:10591E007400536F004E64005F007C002D2D2D2D02
:10592E002D2D2D005759424945525A205354414E60
:10593E003A005A41504953414E4F005A4150495333
:10594E00414E4F2054454D502E005A41504953411F
:10595E004E4F20474F445A494E450057594C4143EC
:10596E005A4F4E4F20414C41524D005A41504953CF
:10597E00414E4F20414C41524D00435A2E2043413F
:10598E004C4B4F5749544100435A2E20554C414DD4
:10599E004B4F5741004D494E5554590053454B55A9
:1059AE004E4459005345544E452053454B554E4495
:1059BE0000445A49454E004D494553494143005212
:1059CE004F4B00445A49454E205459474F444E4977
:1059DE00410054494D455200504F4E4945445A4995
:1059EE00414C454B0057544F52454B0053524F4478
:1059FE004100435A57415254454B0050494154457A
:105A0E004B00534F424F5441004E4945445A49456D
:105A1E004C4100414C41524D2054494D2E20575976
:105A2E004C2E00414C41524D2054494D2E20574C86
:105A3E002E00557374617720616C61726D00557321
:105A4E0074617720616C61726D2074696D2E0046F1
:105A5E006C61676120616C61726D75204F46460006
:105A6E00466C61676120616C61726D75204F4E00EE
:105A7E00466C6167612074696D2E204F4646004664
:105A8E006C6167612074696D2E204F4E0052657AED
:105A9E006F6E61746F72204F46460052657A6F6E5C
:105AAE0061746F72204F4E0054696D65722073746D
:105ABE006F700054696D657220732E2073656B755F
:105ACE006E640054696D65722073656B756E64004B
