:100000000C942A000C9447000C9447000C94470071
:100010000C941C1B0C9447000C9404040C94470093
:100020000C9447000C9447000C9447000C94470034
:100030000C9447000C9447000C9447000C94470024
:100040000C9447000C9447000C9447000C94470014
:100050000C94470011241FBECFE5D8E0DEBFCDBF12
:1000600013E0A0E6B0E0EEEAF4E402C005900D92E1
:10007000A236B107D9F723E0A2E6B3E001C01D9292
:10008000A73BB207E1F70E94341B0C9455220C9455
:100090000000009741F0EFE9FFE03197F1F700C071
:1000A00000000197F6CF0895009731F025E02A95DA
:1000B000F1F700000197F8CF08958F929F92AF92C9
:1000C000BF92CF92DF92EF92FF924B015C0120E052
:1000D00030E04AE755E40E946F1D6B017C0120E08F
:1000E00030E040E85FE30E941C1C87FD24C020E054
:1000F0003FEF4FE757E4C701B6010E946B1D18168A
:10010000ACF420E030E040E251E4C501B4010E94CB
:100110006F1D0E948D1C20E931E06115710581F091
:10012000C9010197F1F761507109F7CFC701B60115
:100130000E948D1C02C061E070E0CB010197F1F7D5
:10014000FF90EF90DF90CF90BF90AF909F908F90F7
:1001500008958F929F92AF92BF92CF92DF92EF92CB
:10016000FF924B015C012BEA3AEA4AEA50E40E9412
:100170006F1D6B017C0120E030E040E85FE30E94EE
:100180001C1C87FD21C020E030E04FE753E4C7018D
:10019000B6010E946B1D181694F420E030E04AE787
:1001A00054E4C501B4010E94201CFF90EF90DF9041
:1001B000CF90BF90AF909F908F900C945D00C7013F
:1001C000B6010E948D1C01C061E06A95F1F7FF90B5
:1001D000EF90DF90CF90BF90AF909F908F90089559
:1001E0001F93CF93DF931F92CDB7DEB7182F0E94D6
:1001F000CF038CEA0E94DB03812F0E94DB030E9465
:10020000CF038DEA0E94DB0380E00E94E203898332
:100210000E94D50389810F90DF91CF911F9108959E
:100220001F93CF93DF931F92CDB7DEB7182F69834B
:100230000E94CF038CEA0E94DB03812F0E94DB0324
:100240006981862F0E94DB030E94D50385E090E040
:100250000F90DF91CF911F910C9449001F93CF9382
:10026000DF931F92CDB7DEB7182F79830E9410015C
:100270007981672F81E0810F0F90DF91CF911F91DE
:100280000C9410011F93CF93DF93182F0E94F0005E
:10029000C82FD0E081E0810F0E94F0009E01382B32
:1002A000C901DF91CF911F91089580FF02C0DC9AB0
:1002B00001C0DC9881FF02C0DD9A01C0DD9882FF99
:1002C00002C0DE9A01C0DE9883FF02C0DF9A089563
:1002D000DF98089589B382958170CD998260CE9917
:1002E0008460CF9988600895CF93DF93D498D59890
:1002F000D698D798DA9ADB9A0E946A0190E1899F92
:10030000E0011124DB98DB9A0E946A01DB98E7EC9C
:10031000F0E03197F1F700C000008C2BDF91CF9116
:100320000895D9980C947401CF93C82FD49AD59A74
:10033000D69AD79ADA98DB9A82958F700E945501E7
:10034000DB98DB9A8C2F0E945501DB980E9491016B
:1003500087FDFCCFCF910895D9980C949401D99A38
:100360000C949401D99A0C947401CF93DF93EC010F
:100370008991882319F00E94AF01FACFDF91CF91C4
:10038000089590E4699F800D112480680C94AC015D
:1003900081E00E94AC018FE39FE10197F1F700C07B
:1003A0000000089582E00E94AC018FE39FE1019775
:1003B000F1F700C000000895C09A0895CF93D49A31
:1003C000D59AD69AD79AD39AD19AD29A8FE59AEE9D
:1003D0000197F1F700C00000D998DB98DA98C3E0E4
:1003E000DB9A83E00E945501DB988FE19EE4019740
:1003F000F1F700C00000C15099F7DB9A82E00E943B
:100400005501DB988FE99FE00197F1F700C00000EC
:1004100088E20E94AC0188E00E94AC0181E00E9469
:10042000AC0186E00E94AC018CE00E94AC01B89A5D
:10043000CF910C94DC01C0980895CF93DF93CDB792
:10044000DEB761970FB6F894DEBF0FBECDBF4AE0AE
:10045000BE016F5F7F4F0E94F91E0E94B501619639
:100460000FB6F894DEBF0FBECDBFDF91CF910895D8
:100470006F927F928F929F92AF92BF92CF92DF92B4
:10048000EF92FF920F931F93CF93DF9300D0CDB7DE
:10049000DEB76B017C0149835A830E948D1C9B014E
:1004A00049815A8177FF04C022273327261B370B47
:1004B000293E334008F09EC08A014530510510F0B6
:1004C00004E010E0C701B6010E94881C4B015C01EA
:1004D000CB010E941D0281E090E02AE0622E712C87
:1004E0002AE08017910740F4F3012E9F30012F9FDF
:1004F000700C11240196F5CF012B09F47BC082E327
:1005000093E00E94B501840197FE04C000271127E3
:1005100008191909B30180E090E00E94B91C9B0101
:10052000AC01C701B6010E946F1D0E94881C9B018F
:1005300077FF04C022273327261B370BB9018827F2
:1005400077FD8095982F0E94BB1C6B017C01930165
:10055000D8010E94A11B0E94B91C9B01AC01C701DC
:10056000B6010E94B71B0E948D1C6B017C01AB0180
:1005700081E090E02AE030E06AE04217530740F063
:100580000196F9016E9F90016F9F300D1124F5CFF8
:1005900041E02AE030E05AE06216730640F04F5F17
:1005A000B901569F9001579F300D1124F5CF01E0FE
:1005B00010E0A42EB12CA81AB90A0A151B0538F4AC
:1005C00080E090E00E941D020F5F1F4FF6CFC60132
:1005D0000F900F90DF91CF911F910F91FF90EF90AF
:1005E000DF90CF90BF90AF909F908F907F906F9053
:1005F0000C941D020F900F90DF91CF911F910F91DE
:10060000FF90EF90DF90CF90BF90AF909F908F9032
:100610007F906F900895CF93DF93CDB7DEB761974A
:100620000FB6F894DEBF0FBECDBF40E1BE016F5FD5
:100630007F4F0E94F91E0E94B50161960FB6F89493
:10064000DEBF0FBECDBFDF91CF910895CF92DF9275
:10065000EF92FF920F931F93CF93DF938C016B0167
:100660007A01C0E0D0E0CC15DD0581F0E114F104A1
:1006700011F08CE101C084E10E94AC01011511056B
:1006800019F0C8010E9449002196EDCFDF91CF916A
:100690001F910F91FF90EF90DF90CF900895CF9230
:1006A000DF92EF92FF920F931F93CF93DF938C0112
:1006B0006B017A01C0E0D0E0CC15DD0581F0E114DA
:1006C000F10411F088E101C080E10E94AC01011544
:1006D000110519F0C8010E9449002196EDCFDF9164
:1006E000CF911F910F91FF90EF90DF90CF900895E1
:1006F0000F931F93CF93DF93EC018230910520F08D
:1007000082309105D9F40FC080E80E94AC0108E264
:1007100010E080E20E94AF0101501109011511059E
:10072000C1F7CD2B59F480EC0E94AC01C8E2D0E0B7
:1007300080E20E94AF0121972097D1F7DF91CF91FE
:100740001F910F9108958330910589F030F4813025
:10075000910549F0029749F008958430910549F0D8
:10076000059749F008958CE007C088E005C08EE049
:1007700003C08DE001C08FE00C94AC01BC0180E8A7
:100780009EE30E948D1B862F603138F07727CB01C6
:10079000409797FD01969595879580B9089584EACD
:1007A00086BF06B607FEFDCF089584E986BF06B66C
:1007B00004FCFDCF089583B984E886BF06B607FE22
:1007C000FDCF089520E4829FC0011124846886BF74
:1007D00006B607FEFDCF83B108958EB5887F8EBD26
:1007E00008958EB585608EBD08958E98969A8EB5C3
:1007F0008F7B8EBD1092720389B7806289BF109281
:100800007303BC98C49A08951F920F920FB60F926B
:1008100011242F933F938F939F9386B597B5209183
:10082000660330916703821B930B26B537B530936F
:100830006703209366032EB530E423272EBD8F3146
:10084000910510F01092720320917203222319F087
:1008500021E02093650320917203211111C01092B1
:10086000640310926303109262032EB520642EBDC0
:10087000209172032F5F2093720322E0209365037F
:1008800020916503213009F05AC09C012A5031099A
:100890002531310510F01092650320916503213058
:1008A00009F04DC0429728F0809172038F5F8093CA
:1008B0007203809172038230E8F18091720380FDAF
:1008C00039C08091630390916403880F991F9093BE
:1008D0006403809363030EB406FE05C081609093A9
:1008E000640380936303809162038F5F809362034C
:1008F0008D3000F18091630390916403282F2F7352
:10090000209371039C01207C3770689415F836950C
:1009100027951694E1F72093700388279870892F04
:1009200086958695869580936F031092650381E086
:1009300080937303809172038F5F80937203809121
:100940006503811105C0109272038EB58F7B8EBD39
:100950009F918F913F912F910F900FBE0F901F90FD
:10096000189586B382958F7091E08927817090E009
:100970000895109273038FEF809371038093700337
:100980000895CF93C82F8A3019F48DE00E94C104D6
:100990005D9BFECFCCB9CF9108955F9BFECF8CB10C
:1009A000089561E08BEF0C94A11760E08BEF0C943D
:1009B000A11780E0089590BD89B988E18AB986E8D9
:1009C00080BD08955F9B02C08CB1089580E00895BA
:1009D00080EA089580E2089580E8089523E09695DE
:1009E00087952A95E1F70895CF93DF9398E0899F43
:1009F000E0011124803250F58C2F0E94F00080938A
:100A000096038C2F8F5F0E94F000809397038C2FAA
:100A10008E5F0E94F000809398038C2F8D5F0E9460
:100A2000F000809399038C2F8C5F0E94F0008093DC
:100A30009A038C2F8B5F0E94420190939C038093BA
:100A40009B038C2F895F0E94F00032C0CE019A95E3
:100A5000E199FECF0E94382180939603CE018F5FEB
:100A600091090E94382180939703CE018E5F9109EE
:100A70000E94382180939803CE018D5F91090E94D6
:100A8000382180939903CE018C5F91090E9438210F
:100A900080939A03CE018B5F91090E94402190932D
:100AA0009C0380939B03CE01895F91090E943821AA
:100AB00080939D03DF91CF910895CF9360E070E024
:100AC00080E09FE30E940E0980919C038F938091A8
:100AD0009B038F9380919A031F928F938091990328
:100AE0001F928F93809196031F928F93809197030B
:100AF0001F928F93809198031F928F9387ED90E0C0
:100B00009F938F930E941E1F80919D03C4E66C2FBC
:100B10000E94811B2DB73EB7225F3F4F0FB6F8945E
:100B20003EBF0FBE2DBF992301F11F929F9383EF0C
:100B300090E09F938F930E941E1F80919D036C2FC6
:100B40000E94811B0F900F900F900F90813019F42D
:100B500083E091E004C0823041F48CE091E09F9307
:100B60008F930E941E1F0F900F908AE090E0CF910C
:100B70000C94321F0E944F1A8091A3038F9380918F
:100B8000A2038F9320919303822F992787FD90953D
:100B90009F932F932091AA03822F992787FD9095E9
:100BA0009F932F932091A103822F992787FD9095E2
:100BB0009F932F9320919203822F992787FD9095E1
:100BC0009F932F9320919103822F992787FD9095D2
:100BD0009F932F9387E191E09F938F930E941E1F15
:100BE0008DB79EB70E960FB6F8949EBF0FBE8DBF01
:100BF00008958EEF0E94411833E0969587953A95B7
:100C0000E1F708958CEF0E94411843E0969587958F
:100C10004A95E1F70895CF93C82F0E94020690E00D
:100C20008C0F911D803A910510F0805A9109CF9157
:100C30000C94F404FF920F931F93CF93DF93F82E3D
:100C4000882329F0C0E0D0E000E411E005C084E38F
:100C500091E00E94391F15C08C2F21969C2F915036
:100C60009F1578F40E940B06DF93CF931F930F9389
:100C70000E941E1F0E945D050F900F900F900F9015
:100C8000EBCFDF91CF911F910F91FF900C94D50482
:100C900085E491E09F938F930E941E1F0E94BA05E6
:100CA0000F900F9080EA0C941A068EEF0E94411864
:100CB000BC018CEF0C942D180E940206813A70F052
:100CC00060E070E08EEF0E942D180E94550660E0F3
:100CD00070E08AE794E40E940E0904C00E94F905BE
:100CE000813A70F78A98929A8B98939A8D98959AF0
:100CF0008C98949AA298AA9AA398AB9AA498AC9A22
:100D0000A598AD9AA698AE9AA798AF9A87E690E074
:100D10000E94DB048EE690E09093B4038093B303CB
:100D200080E690E09093B2038093B1030895CF934F
:100D30000E940206C82F0E94F9058C1740F40E94F9
:100D4000F905C82F0E94020690EA9C0F06C00E9477
:100D5000F905C82F0E9402069C2F981B892FCF915E
:100D6000089587E591E09F938F930E941E1F0E9434
:100D7000BA050E9497060E941A060F900F900C94D5
:100D80005506DF92EF92FF920F931F93CF93DF935D
:100D9000D62E38E0839FE0011124803258F4EE24EF
:100DA000EA94F12CC7018C1B9D0B07970CF055C0E2
:100DB000C0E0D1E0E199FECF8E010F5F1109609193
:100DC000A103CE019A950E944621E199FECF7E01B2
:100DD0008EEFE81AF10860919203C8010E94462143
:100DE000E199FECF8E010D5F110960919103C7015A
:100DF0000E944621E199FECF7E019CEFE91AF1089D
:100E00006091AA03C8010E944621E199FECF8E019C
:100E10000B5F110960919303C7010E944621E1997C
:100E2000FECF6091A2037091A303C8010E945321D9
:100E3000CE01895F9109ED2DF0E0EE57FC4F208146
:100E400061E06D0D34E6239F600D1124E199FECF22
:100E5000C85FD1090E94462145C06091A1038C2F33
:100E60000E941001609192038C2F8F5F0E941001ED
:100E7000609191038C2F8E5F0E9410016091AA03F4
:100E80008C2F8D5F0E941001609193038C2F8C5FDB
:100E90000E9410016091A2037091A3038C2F8B5FBD
:100EA0000E942E01ED2DF0E0EE57FC4F80818E0167
:100EB000085F1F4F61E06D0D94E6899F600D11245E
:100EC0008C2F895F0E941001E01AF10A37E0E316C7
:100ED000F104B4F460E070E088EC92E40E940E0942
:100EE000C0E0D0E08FEF93E08C1B9D0B079754F48C
:100EF00060E070E08AEF93E40E940E0900E010E0E9
:100F0000B80102C0BE0173958EEFDF91CF911F91A2
:100F10000F91FF90EF90DF900C942D180F931F937B
:100F2000CF93DF930E94D1040E944F1AC2E8D3E00E
:100F300010E08991882319F10E94050985E090E06D
:100F40000E9449000E94F9058F3929F40E94020687
:100F50008823F9F00FC00E940206082F0E94F905AD
:100F6000202F30E090E001962817390719F411C0BE
:100F70000E94B1060E94F905612F0E94C1061F5F01
:100F80001A30B9F682E0DF91CF911F910F910C9446
:100F90001D098091A803833059F760E070E88BE366
:100FA00095E40E940E09EBCF1092A703829903C02B
:100FB00081E08093A7038091A70308951092A7036F
:100FC000839903C081E08093A7038091A7030895CC
:100FD0001092A703859903C081E08093A7038091B5
:100FE000A70308951092A703849903C081E080931A
:100FF000A7038091A70308951092A7039A9903C0AD
:1010000081E08093A7038091A70308951092A7031E
:101010009B9903C081E08093A7038091A703089563
:101020001092A7039C9903C081E08093A70380914D
:10103000A70308951092A7039D9903C081E08093B0
:10104000A7038091A70308951092A7039E9903C058
:1010500081E08093A7038091A70308951092A703CE
:101060009F9903C081E08093A7038091A70308950F
:10107000811102C00C94D407813011F40C94DE0766
:10108000823011F40C94E807833011F40C94F207C9
:10109000843011F40C94FC07853011F40C9406088C
:1010A000863011F40C941008873011F40C941A084F
:1010B000883011F40C942408893011F40C942E0813
:1010C0008FEF08951F93CF93DF93C8E7D3E010E02D
:1010D000812F0E94380889931F5F1A30C9F7DF916A
:1010E000CF911F910895BF92CF92DF92EF92FF921E
:1010F0000F931F93CF93DF9368E7E62E63E0F62EFE
:10110000C2E8D3E0D12C00E010E0CC24C39472E01C
:10111000B72E8D2D0E943808F7019081891741F074
:10112000813011F4B88206C0811104C0C88202C0A7
:10113000188202C001E010E0F70181937F01D3948F
:101140002196FAE0DF12E5CF012B59F0DF91CF9124
:101150001F910F91FF90EF90DF90CF90BF900C9474
:101160008E07DF91CF911F910F91FF90EF90DF904D
:10117000CF90BF900895CF93DF93C0E0D0E060E0C0
:101180008C2F0E9410012196C11581E0D807B9F774
:10119000C0E0D0E0E199FECF60E0CE010E944621A0
:1011A0002196C11584E0D807A9F7DF91CF910C945F
:1011B00055062F923F9210927503109274038091FE
:1011C00074039091750320919403309195038217D5
:1011D0009307C4F4D101ED91FC91E80FF91F8081D0
:1011E0000E94AF0160E070E088E492E40E945D003C
:1011F0008091740390917503019690937503809389
:101200007403DDCF3F902F900895979A60E070E0CF
:1012100080E89FE30E945D0097980895979A0E9446
:101220005D009798089560E070E080E490E40E948B
:101230000E0982E380937C000895811103C010920F
:101240007C000895813021F48FEF80937C00089515
:10125000823011F40C94130908950F931F93CF93C8
:10126000DF932AE030E0C1E04AE08217930740F0C4
:10127000CF5FB901469F9001479F300D1124F5CFF4
:1012800030937503209374039093A00380939F037E
:1012900080E090E00E94780310927503109274032E
:1012A0008C2F90E0C7E2D0E0C81BD90B8C010D5FFA
:1012B0001F4F80917403909175038C179D07FCF468
:1012C00060E00E94C10180919F039091A0030E9461
:1012D0001D0261E0809174030E94C10180919F030F
:1012E0009091A0030E941D02809174039091750358
:1012F000800F911F9093750380937403DACF60E0A1
:1013000070E08AEF93E40E945D0081E080936B03BC
:10131000DF91CF911F910F91089520919F033091FC
:10132000A0034AE0429FC001439F900D1124893ED3
:1013300023E0920710F088EE93E09093A00380934F
:101340009F0380919F039091A0030C942D0980919D
:101350009F039091A0036AE070E00E948D1B6115CD
:10136000710529F07093A00360939F0306C081E08C
:1013700090E09093A00380939F0380919F039091AE
:10138000A0030C942D09CF93DF93EC0110926B0313
:101390008091A803813009F460C00E94C80180E6F2
:1013A00091E00E94B501CE010E941D0261E080E043
:1013B0000E94C101209719F48AE691E01CC0C13057
:1013C000D10519F489E791E016C0C230D10519F4AE
:1013D00089E891E010C0C330D10519F482E991E0A9
:1013E0000AC0C430D10519F480EA91E004C0259701
:1013F00021F480EB91E00E94B501109275031092E8
:10140000740380917403909175030597B4F460E0C0
:1014100070E080EF91E40E945D0060E070E080EA9F
:1014200090E40E940E0980917403909175030196D7
:101430009093750380937403E4CF60E070E08AEFCB
:1014400093E40E945D0041E050E06FE070E084E1D1
:1014500090E00E9426030E94C80181E080936B0304
:10146000DF91CF910895811103C08FEB91E01DC0F2
:10147000813019F483EC91E018C0823019F487ECC4
:1014800091E013C0833019F48BEC91E00EC08430EE
:1014900019F48FEC91E009C0853019F483ED91E0E7
:1014A00004C0863021F487ED91E00C94B5010895D5
:1014B00060E080916D030E94C101809191038A30A8
:1014C00024F480E090E00E941D028091910399270E
:1014D00087FD90950E941D0282EE92E00E94B50168
:1014E000809192038A3024F480E090E00E941D02F3
:1014F00080919203992787FD90950E941D0282EEAC
:1015000092E00E94B5018091A1038A3024F480E02A
:1015100090E00E941D028091A103992787FD90957C
:101520000E941D0282EE92E00E94B501809190031C
:101530008A3024F480E090E00E941D0280919003A4
:10154000992787FD90950C941D020E94580A61E02E
:1015500080916D030E94C1018091AA038A3024F416
:1015600080E090E00E941D028091AA03992787FDE8
:1015700090950E941D0282EE92E00E94B50180913A
:1015800093038A3024F480E090E00E941D02809151
:101590009303992787FD90950E941D0282EE92E0A9
:1015A0000E94B5018091A2039091A3030E941D02A5
:1015B00061E08DE00E94C1018091A4030C94330A84
:1015C000CF93C82F81110E94580A61E080916D036A
:1015D0000E94C101C230C1F580919303811103C003
:1015E0008BED91E02EC01092750310927403209140
:1015F000740330917503273031050CF58091930306
:10160000992787FD909502C0959587952A95E2F7D1
:1016100080FF0BC083EE91E00E94B50180917403BE
:101620009091750301960E941D0280917403909120
:10163000750301969093750380937403D8CF83EE5E
:1016400091E0CF910C94B501C33019F58091AA03B4
:101650008A3024F480E090E00E941D028091AA0369
:10166000992787FD90950E941D0282EE92E00E94CC
:10167000B501809193038A3024F480E090E00E94C9
:101680001D0280919303992787FD9095CF910C942B
:101690001D02CF910895423041F420919F03309173
:1016A000A00331952195310909C0413029F42091D9
:1016B0009F033091A00302C020E030E0611106C01A
:1016C00090919103920F9093910317C0613031F480
:1016D00090919203920F909392030FC0623031F475
:1016E0009091A103920F9093A10307C0633029F456
:1016F00090919003920F90939003882311F0833080
:1017000031F5643031F48091AA03820F8093AA03EB
:101710000895653021F480919303820F7EC081117A
:101720007EC0663059F48091A2039091A303820F8A
:10173000931F9093A3038093A2030895673009F049
:101740006EC08091A403820F8093A4030895823019
:1017500009F065C0643069F4413021F4809193034D
:1017600081605BC0423009F05AC0809193038E7F44
:1017700054C0653069F4413021F480919303826054
:101780004CC0423009F04BC0809193038D7F45C01F
:10179000663061F4413021F48091930384603DC050
:1017A0004230E9F5809193038B7F37C0673061F455
:1017B000413021F48091930388602FC0423079F545
:1017C00080919303877F29C0683061F4413021F410
:1017D00080919303806121C0423009F58091930389
:1017E0008F7E1BC0693061F4413021F480919303F6
:1017F000806213C0423099F4809193038F7D0DC0B5
:101800006A3069F4413021F480919303806405C00B
:10181000423029F4809193038F7B80939303089542
:10182000CF93DF93D82FC62F6F3F51F420919F03A2
:101830003091A0032230310580F081E090E00BC0B0
:10184000643058F420919F033091A0032B30310570
:1018500020F08AE090E00E942D09DD2311F0D330C2
:10186000F9F48CEF8C0F823058F420919F03309163
:10187000A0032B30310520F08AE090E00E942D0972
:10188000D1110EC0C73061F480919F039091A003E5
:10189000029730F081E090E0DF91CF910C942D0918
:1018A000DF91CF910895882361F0813061F082301B
:1018B00021F0833021F486E008958BE0089580E0E4
:1018C000089588E0089584E00895CF93DF93D82F9A
:1018D000C62F10926B0380E090E00E94780360E0D6
:1018E00080916D030E94C1018D2F0E94530C4C2FDB
:1018F000552747FD5095282F30E04217530769F4CC
:10190000D11103C085EE91E05BC0D53019F486EFAC
:1019100091E056C086E092E053C0C11103C088EA4E
:1019200091E00EC0C13019F485E192E009C0C230E7
:1019300019F48CE192E004C0C33021F484E292E017
:101940000E94B501DD2311F0D330B1F4C43019F495
:1019500081E392E035C0C53019F487E392E030C0EE
:10196000D11130C0C63019F48FE392E029C0C730DE
:1019700049F583E492E024C0D23021F5C43019F453
:1019800082E592E01DC0C53019F48FE592E018C0E1
:10199000C63019F486E692E013C0C73019F48CE61D
:1019A00092E00EC0C83019F485E792E009C0C93052
:1019B00019F48CE792E004C0CA3021F483E892E085
:1019C0000E94B50180E991E00E94490081E0809386
:1019D0006B03DF91CF910895811103C08DE892E0F0
:1019E0000EC0813019F48DE992E009C0823019F4FB
:1019F0008DEA92E004C0833021F48EEB92E00C94E7
:101A0000B50108958091910387FF04C087E1809319
:101A1000910304C0883114F01092910380919203D5
:101A200087FF04C08BE38093920304C08C3314F0CF
:101A3000109292038091A10387FF04C08BE38093EF
:101A4000A10304C08C3314F01092A1038091900381
:101A500087FF04C083E6809390030895843614F0D2
:101A600010929003089590919303191624F08230F8
:101A700049F09CE005C09D302CF0823019F091E0D7
:101A80009093930390919303492F4D7F2091A2034C
:101A90003091A3034130C9F09530B9F059EF590F97
:101AA000523098F09A3089F09C3079F0443079F0D7
:101AB000493069F0923069F4A90143705527452BEC
:101AC00041F0811106C08CE105C08FE103C08EE1B9
:101AD00001C08DE14091AA03141644F4552747FD37
:101AE000509590E0841795071CF481E08093AA0339
:101AF000213F88ED38071CF48FE097E205C02031C4
:101B0000374234F081EF98ED9093A3038093A203C2
:101B10008091A40387FF04C086E08093A403089506
:101B2000873014F01092A40308951F93CF93DF938E
:101B30000E941D0282E393E00E94B5018091980308
:101B40008A3020F480E090E00E941D02809198038A
:101B500090E00E941D0282EE92E00E94B501809109
:101B600097038A3020F480E090E00E941D0280916B
:101B7000970390E00E941D0282EE92E00E94B50160
:101B8000809196038A3020F480E090E00E941D024C
:101B90008091960390E00E941D0283E491E00E94F0
:101BA000B501809199038A3020F480E090E00E9492
:101BB0001D028091990390E00E941D0282EE92E046
:101BC0000E94B50180919A038A3020F480E090E071
:101BD0000E941D0280919A0390E00E941D0282EEF5
:101BE00092E00E94B50180919B0390919C030E941A
:101BF0001D0283E491E00E94B50180919D0314E6EB
:101C0000612F0E94811BC92FD0E0209721F18FEC1A
:101C100092E00E94B501CE010E941D0283E491E092
:101C20000E94B50180919D03612F0E94811B90E06D
:101C300090937503809374038130910519F483E0C8
:101C400091E004C0029739F48CE091E0DF91CF91EC
:101C50001F910C94B501DF91CF911F910895CF93FF
:101C6000DF93EC0180916E03833049F48C2F0E9446
:101C70000B06CE010196DF91CF910C94950D853026
:101C800029F48C2FDF91CF910C94EC0CDF91CF9144
:101C900008950F931F93CF93DF93EC018B016F3F58
:101CA0008FEF780761F460E080E00E94C10184E377
:101CB00091E0DF91CF911F910F910C94B501CF3F2F
:101CC0008FEFD80761F461E080E00E94C101CE018E
:101CD0000196DF91CF911F910F910C942F0E60E030
:101CE00080E00E94C101CE010E942F0EC017D107D3
:101CF00051F7DF91CF911F910F91089580919F032C
:101D00009091A003029720F081E090E00E942D09BD
:101D100080916A0386301CF010926A0305C087FF29
:101D200003C085E080936A0380E090E00E9478031E
:101D300060E080E00E94C10183ED92E00E94B50165
:101D400061E080E00E94C10184EE92E00E94B50152
:101D500080916A03992787FD90950E941D0288EE65
:101D600092E00C94B50180E090E00E94780360E07E
:101D700080E00E94C1018091710390E00E941D02E9
:101D800060E086E00E94C1018091700390E00E94B3
:101D90001D0261E080E00E94C10180916F0390E02C
:101DA0000C941D0210926D030E944F1A80E090E087
:101DB0000E94780360E08BE00E94C10180916C0377
:101DC000811103C08FE093E004C0813021F483EEE1
:101DD00091E00E94B5010E94A50A8091A903882381
:101DE000F1F00E943F1A85E180936D0360E082E18B
:101DF0000E94C10183EE91E00E94B50161E082E1A1
:101E00000E94C10183EE91E00E94B50161E08091E2
:101E10006D030E94C1018091A9030E94E00A60E065
:101E20008CE00E94C1010E94E51A41E050E00C9450
:101E3000380280E090E00E94780380919F039091A7
:101E4000A0030B9720F08AE090E00E942D0980917A
:101E50008E0390918F038F3F9F4F2CF40E94970623
:101E600090E001970CC00E94970690E020918E03AD
:101E700030918F032817390734F08FEF9FEF90933D
:101E80008F0380938E030E949706682F70E0615045
:101E9000710980918E0390918F030C94490E80916B
:101EA000A90387FD1092A9036091A90380E00E9415
:101EB000100C80E090E00E9478038091A9038830A4
:101EC000F9F4209190034091A103609192038091D5
:101ED00091030E94C5182091A2033091A303409161
:101EE00093036091A4038091AA030E944E1910925B
:101EF0006B030E94C80181E08093770380937E008A
:101F000040919E03442339F06091A90380E00E9430
:101F10004B0B10929E030E94020D80E00E94330D35
:101F200010926D030E94A50A80917703813039F4E5
:101F30006091A90380E00E94650C109277030895D8
:101F4000EF920F93CF93DF938091A9038F3F1CF4FF
:101F50008FEF8093A9036091A90380918E030E9463
:101F6000100C8091A9038F3F19F580E090E00E944A
:101F7000780380918E0390918F038F3F2FEF92070C
:101F80001CF483E090E004C0049734F08FEF9FEFDF
:101F900090938F0380938E0363E070E080918E03B3
:101FA00090918F03DF91CF910F91EF900C94490E98
:101FB00080E090E00E947803C0918E03D0918F035F
:101FC0008C2F0E94530C2091A903332727FD3095B5
:101FD00090E02817390729F0CE010196029708F002
:101FE00044C081E080937E0080937703CF3F8FEFE2
:101FF000D807D9F1209729F40E94CB190E941D1807
:1020000034C0C130D10569F40E94D31920919003E6
:102010004091A10360919203809191030E94FB196A
:1020200024C0C230D10579F40E94E31900919003D5
:102030002091A103409192036091910380919303B9
:102040000E941B1A12C0239781F40E94F319E0909A
:1020500090030091A103209192034091910360911C
:1020600093038091AA030E942B1A40919E0344235C
:1020700041F06091A90380918E030E944B0B109256
:102080009E030E94020D80918E030E94330D1092D8
:102090006D0380918E030E94E00A80917703813066
:1020A000A1F480918E0390918F03892B31F485E008
:1020B00090E090938F0380938E036091A9038091A9
:1020C0008E030E94650C10927703DF91CF910F91E0
:1020D000EF90089580E090E00C9478038091A8033D
:1020E000833081F480E090E00E9478038CEE92E0EF
:1020F0000E94B50161E080E00E94C1018CEF92E096
:102100000C94B50180916E03811102C00C947E0E77
:10211000813011F40C94B30E823011F40C94D20E71
:10212000833011F40C94190F843011F40C944F0F78
:10213000853011F40C94A00F863011F40C946A10C1
:1021400008958B339105E1F580916A0380936E03C6
:1021500090E00E94C30980916E03813009F442C06F
:10216000823039F40E9462080E94A1198093A90369
:1021700039C0833029F410928F0310928E0332C03D
:10218000843051F41092A90381E080937703109278
:102190009E030E944F1A26C0853021F50E943F1AE7
:1021A0008FEF8093A90381E08093770310929E03C1
:1021B0000E94A11990E090938F0380938E0312C028
:1021C0008032910531F480916A0390919F03890FC9
:1021D00007C0819739F480916A0390919F03891B0E
:1021E00080936A0381E080936B0308952F923F925E
:1021F000AF92BF92CF92DF92EF92FF920F931F9315
:10220000CF93DF93CDB7DEB7C055D1090FB6F894A1
:10221000DEBF0FBECDBF6C018932910509F0F7C159
:102220000E94ED0310926B030E94C80188E290E0C7
:10223000909395038093940380E5E5E8F0E0DE0158
:10224000119601900D928A95E1F784E090E00E944A
:10225000D21D7C01109275031092740358E2B52EC2
:10226000009174031091750302301105ACF580E5FF
:1022700090E00E94D21DF801EE0FFF1FEE0DFF1D32
:10228000918380831092A90340E0B09E9001B19E9B
:10229000300D1124542FE42FFF27E7FDF0954F5FF9
:1022A000E832F10584F4DC01A50FB11D57FDBA95A4
:1022B000E20FF31F61E070E06C0F7D1FE60FF71F68
:1022C00050815C93E7CF5093A9030F5F1F4F10938A
:1022D000750300937403C4CF1092750310927403B6
:1022E00080917403909175038832910594F4D7011D
:1022F000ED91FC91E80FF91F80810E94AF01809160
:102300007403909175030196909375038093740301
:10231000E7CF61E080E00E94C10110927503109246
:102320007403809174039091750388329105A4F42D
:10233000D7011296ED91FC911397E80FF91F808158
:102340000E94AF0180917403909175030196909360
:10235000750380937403E5CF88E290E09093950332
:102360008093940381E08093A9038091A90388233B
:1023700009F41CC184E090E00E94D21D8C011092EF
:10238000750310927403A0907403B0907503E2E09B
:10239000AE16B104BCF48091940390919503880F1C
:1023A000991F0E94D21DF501EE0FFF1FE00FF11FD4
:1023B00091838083BFEFAB1ABB0AB0927503A092E2
:1023C0007403E1CF0E94D20110927503109274033E
:1023D000809174039091750320919403309195033B
:1023E000821793079CF4D801AD90BC90A80EB91E3B
:1023F0000E94B201F501808380917403909175036E
:1024000001969093750380937403E2CF61E080E0BE
:102410000E94C1011092750310927403809174039D
:10242000909175032091940330919503821793073F
:10243000ACF4D8011296AD90BC901397A80EB91EBB
:102440000E94B201F501808380917403909175031D
:1024500001969093750380937403E0CF0E94C801A6
:1024600080919403909195034091A90320E030E07E
:10247000281739070CF5F801A081B181A20FB31F0D
:10248000F701A080B180A20EB31E6C91D5015C91C2
:1024900065130EC0F801A281B381A20FB31FF7012B
:1024A000A280B380A20EB31E6C91D5015C9165131E
:1024B00040E02F5F3F4FDCCF4093A903309375037B
:1024C000209374030E94B104892B11F01092A90388
:1024D0008091A903811105C01092750310927403B5
:1024E00048C0109275031092740380917403909108
:1024F000750320919403309195038217930794F408
:10250000D801ED91FC91E80FF91F80810E94AF0185
:102510008091740390917503019690937503809355
:102520007403E3CF61E080E00E94C1011092750363
:102530001092740380917403909175032091940319
:1025400030919503821793073CF6D8011296ED91CE
:10255000FC911397E80FF91F80810E94AF018091D1
:10256000740390917503019690937503809374039F
:10257000E1CFA0907403B0907503E2E0AE16B10411
:102580008CF4F501EE0FFF1FE00FF11F80819181A8
:102590000E946A1EBFEFAB1ABB0AB0927503A092ED
:1025A0007403E7CFC8010E946A1EDFCE1092750344
:1025B0001092740300917403109175030230110599
:1025C00084F4F801EE0FFF1FEE0DFF1D8081918155
:1025D0000E946A1E0F5F1F4F1093750300937403D0
:1025E000E9CFC7010E946A1E0E94050960E070E001
:1025F00080E291E40E945D000E94050960E070E0C5
:1026000080E291E40E945D000E94050958C18C306F
:10261000910509F056C10E94ED0310926B030E94D0
:10262000C80184E090E00E94A30361E089E00E9479
:10263000C1018AE093E00E94B50160E070E08AEF9A
:1026400093E40E945D000E94D20181E193E00E9428
:10265000B50160E070E08AEF93E40E945D0041E024
:1026600050E061E070E080E090E00E94260360E0CE
:1026700070E08FE294E40E945D0082E090E00E94AE
:10268000A30360E070E08FE294E40E945D0081E0CB
:1026900090E00E94A30360E070E08FE294E40E9467
:1026A0005D0082E090E00E94A30360E070E08FE2B2
:1026B00094E40E945D0085E090E00E94A30360E046
:1026C00070E08AE794E40E945D0084E090E00E945C
:1026D000A30340E050E061E070E080E090E00E9401
:1026E000260360E070E08AE794E40E945D0040E029
:1026F00050E061E070E080E090E00E944F0383E0F2
:1027000090E00E94A30360E070E08AE794E40E94F6
:102710005D0085E090E00E94A30361E080E00E94FC
:10272000C1018DE193E00E94B50160E070E88BEBA0
:1027300094E40E945D0061E089E00E94C10186E0AE
:1027400090E090939503809394030E94D21D9A8306
:102750008983109275031092740380917403909191
:102760007503209194033091950382179307C4F465
:1027700009811A81080F191F0E94B201D8018C9398
:1027800060E070E088EC92E40E945D008091740348
:102790009091750301969093750380937403DDCF38
:1027A00041E050E061E070E080E090E00E944F0383
:1027B00060E070E88BEB94E40E945D0083E090E0C1
:1027C0000E94A30380E090E00E94780360E070E83C
:1027D0008BEB94E40E945D0061E080E00E94C10107
:1027E000FE0131961F010E94D90884E090E00E940A
:1027F000A30360E089E00E94C1010E94D90861E062
:1028000088E00E94C10185E090E00E94A3030E943D
:10281000D90860E081E00E94C1010E94D908898145
:102820009A810E946A1E83E090E00E94A30360E008
:1028300070E88BEB94E40E945D0041E050E06FE0B3
:1028400070E084E190E00E94260341E050E06FE0F8
:1028500070E084E190E00E944F0381E090E00E94EC
:10286000780384E090E00E94A30360E070E08AE7D0
:1028700094E40E945D0041E050E06FE070E084E18C
:1028800090E00E944F0341E050E06FE070E084E18F
:1028900090E00E94260383E090E00E94A30382E080
:1028A00090E00E94780360E070E08AEF93E40E9479
:1028B0005D000E94C80181E090E00E94A3030E9495
:1028C000F103C6010E94A3030E946E10C05BDF4F9C
:1028D0000FB6F894DEBF0FBECDBFDF91CF911F9131
:1028E0000F91FF90EF90DF90CF90BF90AF903F900F
:1028F0002F9008958A32910519F40E94251804C07A
:10290000CB9711F40E941D1881E080936B0308950A
:102910008C30910561F46130710569F50E94C80140
:1029200085E293E00E94B5010E94BB0824C0893271
:10293000910519F40E9448061EC08032910559F491
:1029400080918E0390918F0320919F033091A0037B
:10295000821B930B0CC0819771F480918E03909130
:102960008F0320919F033091A003820F931F9093B8
:102970008F0380938E0381E080936B0308958031F1
:10298000910521F48091A9038F5F06C081319105E3
:1029900049F48091A90381508093A90381E0809339
:1029A000770311C08032910511F481E004C08132B7
:1029B000910521F482E080939E0305C0CB9719F422
:1029C00088E08093A90381E080936B0308958031B0
:1029D000910521F48091A9038F5F06C08131910593
:1029E00049F48091A90381508093A90381E08093E9
:1029F000770336C08032910589F48091A9038F3F17
:102A000059F480918E0390918F0320919F03309110
:102A1000A003821B930B13C081E017C08132910584
:102A2000B9F48091A9038F3F79F480918E0390913E
:102A30008F0320919F033091A003820F931F9093E7
:102A40008F0380938E030CC082E080939E0308C0A6
:102A5000CB9731F480918E030E94530C8093A9038D
:102A600081E080936B0308950F931F93CF93DF93BF
:102A7000EC018B010E9405098091A803833019F4B1
:102A80001092A803CBC080916E03811105C0B801DC
:102A9000CE010E94A11022C0813029F4B801CE01DC
:102AA0000E94F6101BC0823029F4B801CE010E94AA
:102AB0007A1414C0833029F4B801CE010E9488141E
:102AC0000DC0843029F4B801CE010E94BF1406C0A5
:102AD000853021F4B801CE010E94E714C632D10539
:102AE00051F510926B030E94C80184E393E00E94A9
:102AF000B50161E080E00E94C10180E493E00E94A2
:102B0000B50160E070E08AE793E40E945D0041E077
:102B100050E06FE070E084E190E00E94260341E025
:102B200050E06FE070E084E190E00E944F0381E0AC
:102B300080936B033BC0CF30D105A1F40115110583
:102B400051F480917C00882319F010927C002EC0F3
:102B50000E9413092BC00130110541F58FEF8093BE
:102B60007C0024C0CE32D10549F441E050E061E060
:102B700070E080E090E00E94260327C0C232D105B9
:102B800049F441E050E061E070E080E090E00E94B4
:102B90004F032DC0C432D10549F441E050E06FE04D
:102BA00070E084E190E00E9426032BC0C332D1057F
:102BB00061F441E050E06FE070E084E190E0DF918B
:102BC000CF911F910F910C944F03CC32D10531F46A
:102BD000DF91CF911F910F910C948D09CD32D105CA
:102BE00031F4DF91CF911F910F910C94A709CE3052
:102BF000D10539F401301105F9F481E080937E00AC
:102C00001BC0C436D105C1F480916C03813061F4DE
:102C100010926C0380917C00882371F0DF91CF913A
:102C20001F910F910C941309811106C081E08093CC
:102C30006C038FEF80937C00DF91CF911F910F91F8
:102C40000895CF93DF9300D000D0CDB7DEB72091A9
:102C50006C03213051F46B837C8389839A830E94B7
:102C6000ED039A8189817C816B810E94341580916A
:102C70006C03813041F40F900F900F900F90DF9113
:102C8000CF910C94F1030F900F900F900F90DF9164
:102C9000CF910895109275031092740320917D00D6
:102CA00080916F03223079F0332727FD309590E033
:102CB0002817390731F481E090E0909375038093F1
:102CC000740380916F0380937D000895CF9380916A
:102CD0008C03813009F04EC01092760310928C0361
:102CE0008091A803833029F40E9405090E941309EA
:102CF00028C00E94D904813031F48091A803811149
:102D000002C00E94480682E08093A8030E94E20469
:102D1000893419F40E94480607C0893619F40E94C4
:102D2000B10602C0882319F081E080936B030E94F2
:102D3000C519813031F40E9405090E94B1060E9434
:102D40001D1880916E03823029F40E94730881E07F
:102D500080936B0380917C0018161CF48150809343
:102D60007C0080917C00811103C00E941B0202C084
:102D70000E94DC0180916B03813021F410926B037F
:102D80000E946E10C0917E00C130E1F410927E006E
:102D900080916E038093A90310926E0310926A03D0
:102DA00081E090E09093A00380939F0360E070E047
:102DB0008BE390E00E9421168091A90380936A031F
:102DC000C0936B030E94B104892B91F08EE190E0D7
:102DD0000E9449000E94B104892B51F060E070E02C
:102DE00084E690E00E94211684E690E00E9449006B
:102DF00080917303882391F08091700381110EC03C
:102E00000E944A168091710360917403709175035A
:102E100090E00E942116CF910C94B904CF910895AF
:102E2000982F92959F708F702AE0929F800D1124A9
:102E300008956AE00E94811B292F30E1839FC00121
:102E40001124822B08951F93CF93DF931F92CDB748
:102E5000DEB7182F0E94CF0382EA0E94DB03812F86
:102E60000E94DB030E94CF0383EA0E94DB0380E021
:102E70000E94E20389830E94D50389810F90DF912C
:102E8000CF911F910895EF92FF921F93CF93DF93FD
:102E900000D0CDB7DEB7F82E162F49835A830E9493
:102EA000CF0382EA0E94DB038F2D0E94DB0349815E
:102EB000E42E5A81F52E140F1E1531F0F701819181
:102EC0007F010E94DB03F8CF0F900F90DF91CF912D
:102ED0001F91FF90EF900C94D503EF92FF921F93F8
:102EE000CF93DF9300D0CDB7DEB7F82E162F4983EE
:102EF0005A830E94CF0382EA0E94DB038F2D0E9437
:102F0000DB030E94CF0383EA0E94DB031150498157
:102F1000E42E5A81F52E1F3F59F081E0111101C0B6
:102F200080E00E94E203F70181937F011150F3CF0B
:102F30000F900F90DF91CF911F91FF90EF900C9425
:102F4000D5031F93CF93DF931F92CDB7DEB7182F12
:102F500069830E94CF0382EA0E94DB03812F0E94D3
:102F6000DB036981862F0E94DB030F90DF91CF91F5
:102F70001F910C94D5030E9423170C941017CF9324
:102F8000C82F862F0E941917682F8C2FCF910C9471
:102F9000A11780E00E942317682F606880E00C94DE
:102FA000A11780E00E942317682F6F7780E00C94B0
:102FB000A11780E00E942317682F6F7B80E00C949C
:102FC000A11780E00E942317682F606480E00C94B2
:102FD000A11780E00E942317682F677F80E00C9480
:102FE000A11780E00E942317682F627080E00E9482
:102FF000A11780E00E942317682F646080E00E9480
:10300000A1170E94D9170E94E91784E00E94231794
:10301000682F6F7384E00E94A11788E00E94231735
:10302000682F606888E00C94A11780E00E94231745
:10303000682F686080E00C94A11780E00E9423173D
:10304000682F6D7F80E00C94A11780E00E94231709
:10305000682F626080E00C94A1171F93CF93DF93D9
:103060001F92CDB7DEB7182F79830E94A1177981FF
:10307000672F81E0810F0F90DF91CF911F910C940A
:10308000A1171F93CF93DF93182F0E942317C82FE8
:10309000D0E081E0810F0E9423179E01382BC901E7
:1030A000DF91CF911F9108951F93CF93DF931F92CC
:1030B000CDB7DEB7182F862F49830E941917498193
:1030C000642F6295660F660F607C682B812F0F90CE
:1030D000DF91CF911F910C94A1171F93CF93DF9392
:1030E0001F92CDB7DEB7182F862F49830E9419177C
:1030F000498190E2499FB0011124682B812F0F90E4
:10310000DF91CF911F910C94A117AF92BF92CF92F4
:10311000DF92EF92FF920F931F93CF93DF9300D034
:1031200000D0CDB7DEB78C017B016A0159010E9446
:10313000E117AE014F5F5F4F64E081E00E946D17C1
:1031400089810E941017F50180838A810E941017DF
:10315000F60180838B810E941017F70180838C8198
:103160000E941017F80180830E94D9170F900F90CA
:103170000F900F90DF91CF911F910F91FF90EF90E3
:10318000DF90CF90BF90AF9008951F93CF93DF93C0
:10319000CDB7DEB727970FB6F894DEBF0FBECDBF11
:1031A000182F4E836F832D830E94C9178D810E9433
:1031B000191789834E81842F0E9419178A836F8182
:1031C000862F0E9419178B83812F0E9419178C83D9
:1031D000AE014F5F5F4F64E081E00E9443170E94A1
:1031E000D11727960FB6F894DEBF0FBECDBFDF9183
:1031F000CF911F910895CF92DF92EF92FF920F939C
:103200001F93CF93DF93EC017B016A0189010E9438
:1032100015180E94E11785E00E9423170E941017DD
:10322000888386E00E9423170E941017F60180838E
:103230000E94E91786E00E94231782958695877081
:10324000F701808385E00E942317F82E80E10E9419
:103250002317C82F81E10E942317D0E0D82B9E01AD
:1032600023703327F294F694F69483E0F8228F2D9E
:1032700090E02817390729F02196BE0180E10E94CD
:103280002D18F801D183C083DF91CF911F910F9149
:10329000FF90EF90DF90CF900C94D917FF920F938F
:1032A0001F93CF93DF93F82E062F142FE901B90156
:1032B00080E10E942D180E94C917AE016F2D85E094
:1032C0000E945418402F612F86E00E946D18DF91F4
:1032D000CF911F910F91FF900C94D117CF92DF9255
:1032E000EF92FF920F931F93CF93DF93EC017B013B
:1032F0006A01890189E00E94BB17F80180838AE096
:103300000E94BB17F60180838BE00E94BB17F70178
:1033100080838CE00E94BB178883DF91CF911F913F
:103320000F91FF90EF90DF90CF900895CF93C62F2D
:10333000682F8DE00E94BF176C2F8EE0CF910C9408
:10334000BF1788E00E942317807382958F700895BD
:103350000F931F93CF93DF938C01EB018DE00E94BD
:10336000BB17F80180830E94A119823029F48EE0F6
:103370000E9423178F7703C08EE00E94BB178883BB
:10338000DF91CF911F910F91089580E00E94231744
:1033900086958170089588E00E942317682F6F7CBE
:1033A00088E00C94A11788E00E942317682F6061C1
:1033B00088E00E94A11788E00E942317682F6F7D84
:1033C00088E00C94A11788E00E942317682F6F7E75
:1033D00088E00E94A11788E00E942317682F60628E
:1033E00088E00C94A11788E00E942317682F60637F
:1033F00088E00C94A1170F931F93CF93DF931F9234
:10340000CDB7DEB7182F062F622F89E049830E94BF
:10341000BF174981642F8AE00E94BF17602F8BE09D
:103420000E94BF17612F8CE00F90DF91CF911F9109
:103430000F910C94BF170F93CF93C82F862F642F33
:10344000422F202F0E94FB196C2F6F778EE0CF91B7
:103450000F910C94A117EF920F93CF93DF93C82F86
:10346000D62F842F622F402F2E2D0E94FB196D2FF7
:103470008C2FDF91CF910F91EF900C94961920E94A
:1034800033E041EA53E062E973E081E993E00E94AE
:103490006E1963E973E08AEA93E00C94A81920E9B5
:1034A00033E041EA53E062E973E081E993E00E948E
:1034B000851822EA33E043E953E064EA73E08AEADC
:1034C00093E00C94FB18882319F0D89AD09A0895A9
:1034D000D0980895D89899B3892F817090FF15C01E
:1034E000D09A84EF91E00E945400D09886E490E056
:1034F0000E94540084EF91E0C89904C00E945400D7
:1035000081E008950E94540080E00895CF93DF93F6
:10351000D82FD898C8E0D09AD0FF08C087E090E0B4
:103520000E945400D09886E490E007C086E490E0C2
:103530000E945400D09887E090E00E945400D695F5
:10354000C15049F7DF91CF9108950E946A1A8823EC
:1035500039F08CEC0E94861A84E40E94861A8FEF60
:103560000895CF93DF93D098D8E0C0E0D09A87E059
:1035700090E00E945400D09887E090E00E945400B0
:10358000C695C899C06886E490E00E945400D15066
:1035900069F78C2FDF91CF9108950E946A1A8823D2
:1035A00089F08CEC0E94861A8EEB0E94861A0E948B
:1035B000B11A8093A5030E94B11A8093A60381E0FB
:1035C00090E0089580E090E008950E94A51A882375
:1035D000F1F085EA93E00E94CD1A6091A60370E0B5
:1035E000762F66278091A503680F711D882777FDC8
:1035F0008095982F0E94BB1C20E030E040E85DE3FE
:103600000E946F1D1092A5031092A603089560E01A
:1036100070E0CB01089585B5886085BD8FEF83BDCF
:1036200089B7806889BF089585B5876085BD08958D
:1036300085B58E7F85BD08951F920F920FB60F92AC
:1036400011248F9380917603843119F481E0809363
:103650008C03809176038F5F809376038F910F9018
:103660000FBE0F901F9018958F9A0E94DE0184E67E
:1036700090E00E94BE030E94F1170E94E51A0E948A
:103680000B1B0E94141B0E94F5030E945C060E9403
:10369000F10381E080936C039FEF90937C00809313
:1036A000A8038AE493E00E94B5018CED95E00E94A6
:1036B000490061E088E00E94C10188E593E00E9432
:1036C000B50188EE93E00E94490041E050E06FE0D0
:1036D00070E084E190E00E9426030E94C8010E94ED
:1036E000661682E080936A0360E070E08BE390E00E
:1036F0000E94211683E08093A80378940E946616A6
:10370000FDCF991B79E004C0991F961708F0961B0E
:10371000881F7A95C9F780950895AA1BBB1B51E1B4
:1037200007C0AA1FBB1FA617B70710F0A61BB70B31
:10373000881F991F5A95A9F780959095BC01CD01D6
:1037400008950E94A81BB7FF0895821B930B08954C
:10375000A29FB001B39FC001A39F700D811D1124D2
:10376000911DB29F700D811D1124911D0895505817
:10377000BB27AA270ED075C166D130F06BD120F0DF
:1037800031F49F3F11F41EF45BC10EF4E095E7FBAA
:1037900051C1E92F77D180F3BA1762077307840705
:1037A000950718F071F49EF58FC10EF4E0950B2E7D
:1037B000BA2FA02D0B01B90190010C01CA01A00183
:1037C0001124FF27591B99F0593F50F4503E68F1DE
:1037D0001A16F040A22F232F342F4427585FF3CF1F
:1037E000469537952795A795F0405395C9F77EF4F0
:1037F0001F16BA0B620B730B840BBAF09150A1F039
:10380000FF0FBB1F661F771F881FC2F70EC0BA0FBE
:10381000621F731F841F48F4879577956795B79546
:10382000F7959E3F08F0B3CF9395880F08F099273E
:10383000EE0F979587950895D9D008F481E0089503
:103840000CD00FC107D140F0FED030F021F45F3F23
:1038500019F0F0C0511139C1F3C014D198F3992374
:10386000C9F35523B1F3951B550BBB27AA27621744
:103870007307840738F09F5F5F4F220F331F441F89
:10388000AA1FA9F333D00E2E3AF0E0E830D09150C1
:103890005040E695001CCAF729D0FE2F27D0660FAE
:1038A000771F881FBB1F261737074807AB07B0E8ED
:1038B00009F0BB0B802DBF01FF2793585F4F2AF003
:1038C0009E3F510568F0B6C000C15F3FECF3983EE3
:1038D000DCF3869577956795B795F7959F5FC9F760
:1038E000880F911D9695879597F90895E1E0660FE9
:1038F000771F881FBB1F621773078407BA0720F062
:10390000621B730B840BBA0BEE1F88F7E0950895CA
:1039100004D06894B111D9C00895BCD088F09F57E5
:1039200090F0B92F9927B751A0F0D1F0660F771F0B
:10393000881F991F1AF0BA95C9F712C0B13081F0EB
:10394000C3D0B1E00895C0C0672F782F8827B85F33
:1039500039F0B93FCCF3869577956795B395D9F74C
:103960003EF490958095709561957F4F8F4F9F4F56
:103970000895E89409C097FB3EF490958095709562
:1039800061957F4F8F4F9F4F9923A9F0F92F96E9AB
:10399000BB279395F695879577956795B795F11120
:1039A000F8CFFAF4BB0F11F460FF1BC06F5F7F4FBD
:1039B0008F4F9F4F16C0882311F096E911C07723CF
:1039C00021F09EE8872F762F05C0662371F096E8D8
:1039D000862F70E060E02AF09A95660F771F881FA7
:1039E000DAF7880F9695879597F90895990F00084B
:1039F000550FAA0BE0E8FEEF16161706E807F907C1
:103A0000C0F012161306E407F50798F0621B730B5B
:103A1000840B950B39F40A2661F0232B242B252BDC
:103A200021F408950A2609F4A140A6958FEF811D7F
:103A3000811D089597F99F6780E870E060E0089520
:103A40009FEF80EC089500240A94161617061806B6
:103A50000906089500240A94121613061406050692
:103A60000895092E0394000C11F4882352F0BB0F23
:103A700040F4BF2B11F460FF04C06F5F7F4F8F4F86
:103A80009F4F089557FD9058440F551F59F05F3FC1
:103A900071F04795880F97FB991F61F09F3F79F070
:103AA00087950895121613061406551FF2CF4695F2
:103AB000F1DF08C0161617061806991FF1CF869574
:103AC0007105610508940895E894BB276627772758
:103AD000CB0197F908958ADF08F48FEF08950BD092
:103AE000C0CFB1DF28F0B6DF18F0952309F0A2CFE0
:103AF000A7CF1124EACFC6DFA0F3959FD1F3950F8E
:103B000050E0551F629FF001729FBB27F00DB11D61
:103B1000639FAA27F00DB11DAA1F649F6627B00DF1
:103B2000A11D661F829F2227B00DA11D621F739FDA
:103B3000B00DA11D621F839FA00D611D221F749FE8
:103B40003327A00D611D231F849F600D211D822F2F
:103B5000762F6A2F11249F5750408AF0E1F0882376
:103B60004AF0EE0FFF1FBB1F661F771F881F915083
:103B70005040A9F79E3F510570F05CCFA6CF5F3F44
:103B8000ECF3983EDCF3869577956795B795F795B6
:103B9000E7959F5FC1F7FE2B880F911D969587953E
:103BA00097F90895CF93DF938230910510F482E066
:103BB00090E0E091AF03F091B00320E030E0A0E0AE
:103BC000B0E0309739F14081518148175907B8F07A
:103BD0004817590771F482819381109729F0139641
:103BE0009C938E9312972CC09093B0038093AF0355
:103BF00027C02115310531F04217530718F0A901EC
:103C0000DB0101C0EF019A01BD01DF010280F381F8
:103C1000E02DD7CF21153105F9F0281B390B2430C1
:103C2000310580F48A819B816115710521F0FB01CA
:103C30009383828304C09093B0038093AF03FE010B
:103C4000329644C0FE01E20FF31F819391932250FC
:103C50003109398328833AC02091AD033091AE03F6
:103C6000232B41F420918100309182003093AE03E8
:103C70002093AD0320917F00309180002115310504
:103C800041F42DB73EB74091830050918400241B2E
:103C9000350BE091AD03F091AE03E217F307A0F40A
:103CA0002E1B3F0B2817390778F0AC014E5F5F4F92
:103CB0002417350748F04E0F5F1F5093AE03409313
:103CC000AD038193919302C0E0E0F0E0CF01DF917A
:103CD000CF910895CF93DF93009709F487C0FC013B
:103CE000329713821282C091AF03D091B003209714
:103CF00081F420813181280F391F8091AD0390918B
:103D0000AE038217930779F5F093AE03E093AD030A
:103D10006DC0DE0120E030E0AE17BF0750F4129610
:103D20004D915C9113979D014115510509F1DA01FF
:103D3000F3CFB383A28340815181840F951F8A17EB
:103D40009B0771F48D919C911197840F951F02969A
:103D50009183808312968D919C9113979383828394
:103D60002115310529F4F093B003E093AF033EC071
:103D7000D9011396FC93EE9312974D915D91A40F88
:103D8000B51FEA17FB0779F480819181840F951F95
:103D90000296D90111969C938E93828193811396FA
:103DA0009C938E931297E0E0F0E08A819B810097CC
:103DB00019F0FE01EC01F9CFCE010296288139817C
:103DC000820F931F2091AD033091AE03281739075E
:103DD00069F4309729F41092B0031092AF0302C037
:103DE00013821282D093AE03C093AD03DF91CF91C3
:103DF0000895BB274A3031F4992322F4BDE290950F
:103E000081959F4F0C94051FBB27FB015527AA27BF
:103E1000880F991FAA1FA41710F0A41B8395505157
:103E2000B9F7A05DAA3308F0A95DA193009779F7CF
:103E3000B111B1931192CB010C946E21A0E0B0E0CE
:103E4000E4E2FFE10C942E22FE013596619171911E
:103E5000AF018091B3039091B4030E94661FE2E02A
:103E60000C944A226091B3037091B4030E947E21A6
:103E700008950F931F93CF93DF93E091B303F091D5
:103E8000B403238121FF1BC0EC0100E010E0899105
:103E90006091B3037091B403DB011896ED91FC912E
:103EA0001997882331F00995892B89F30FEF1FEFBC
:103EB000EECF8AE00995892B11F4C80102C08FEF7B
:103EC0009FEFDF91CF911F910F910895ACE0B0E08B
:103ED000ECE6FFE10C941E227C016B018A01FC01DF
:103EE00017821682838181FFBDC1CE0101964C01EC
:103EF000F7019381F60193FD859193FF81916F0105
:103F0000882309F4ABC1853239F493FD859193FF81
:103F100081916F01853229F4B70190E00E947E21E2
:103F2000E7CF512C312C20E02032A0F48B3269F005
:103F300030F4803259F0833269F420612CC08D3224
:103F400039F0803339F4216026C02260246023C018
:103F5000286021C027FD27C030ED380F3A3078F4B3
:103F600026FF06C0FAE05F9E300D1124532E13C0C9
:103F70008AE0389E300D1124332E20620CC08E3220
:103F800021F426FD6BC1206406C08C3611F4206834
:103F900002C0883641F4F60193FD859193FF81912B
:103FA0006F018111C1CF982F9F7D9554933028F4D4
:103FB0000C5F1F4FFFE3F9830DC0833631F0833769
:103FC00071F0833509F05BC022C0F80180818983DC
:103FD0000E5F1F4F44244394512C540115C03801E7
:103FE000F2E06F0E711CF801A080B18026FF03C0C3
:103FF000652D70E002C06FEF7FEFC5012C870E9436
:1040000063212C0183012C852F77222E17C03801C4
:10401000F2E06F0E711CF801A080B18026FF03C092
:10402000652D70E002C06FEF7FEFC5012C870E9405
:1040300058212C012C852068222E830123FC1BC0D3
:10404000832D90E048165906B0F4B70180E290E065
:104050000E947E213A94F4CFF50127FC859127FE3A
:1040600081915F01B70190E00E947E2131103A9466
:10407000F1E04F1A51084114510471F7E5C084363C
:1040800011F0893639F5F80127FF07C06081718189
:10409000828193810C5F1F4F08C0608171818827E6
:1040A00077FD8095982F0E5F1F4F2F76B22E97FFCA
:1040B00009C090958095709561957F4F8F4F9F4F68
:1040C0002068B22E2AE030E0A4010E94B021A82E80
:1040D000A81844C0853729F42F7EB22E2AE030E09C
:1040E00025C0F22FF97FBF2E8F36C1F018F4883526
:1040F00079F0B4C0803719F0883721F0AFC02F2F86
:104100002061B22EB4FE0DC08B2D8460B82E09C084
:1041100024FF0AC09F2F9660B92E06C028E030E029
:1041200005C020E130E002C020E132E0F801B7FE36
:1041300007C060817181828193810C5F1F4F06C02F
:104140006081718180E090E00E5F1F4FA4010E94AA
:10415000B021A82EA818FB2DFF77BF2EB6FE0BC0EE
:104160002B2D2E7FA51450F4B4FE0AC0B2FC08C05B
:104170002B2D2E7E05C07A2C2B2D03C07A2C01C04E
:10418000752C24FF0DC0FE01EA0DF11D80818033E6
:1041900011F4297E09C022FF06C07394739404C0F1
:1041A000822F867809F0739423FD13C020FF06C088
:1041B0005A2C731418F4530C5718732C731468F496
:1041C000B70180E290E02C870E947E2173942C85B9
:1041D000F5CF731410F4371801C0312C24FF12C02E
:1041E000B70180E390E02C870E947E212C8522FF7E
:1041F00017C021FF03C088E590E002C088E790E087
:10420000B7010CC0822F867859F021FD02C080E2F0
:1042100001C08BE227FD8DE2B70190E00E947E2174
:10422000A51438F4B70180E390E00E947E215A94EF
:10423000F7CFAA94F401EA0DF11D8081B70190E057
:104240000E947E21A110F5CF332009F451CEB70191
:1042500080E290E00E947E213A94F6CFF7018681B9
:10426000978102C08FEF9FEF2C96E2E10C943A22E7
:10427000E199FECF9FBB8EBBE09A99278DB308953D
:10428000A8E1B0E042E050E00C941022262FE19922
:10429000FECF9FBB8EBB2DBB0FB6F894E29AE19A7E
:1042A0000FBE019608950E944621272F0C944721A6
:1042B000FC010590615070400110D8F780959095F1
:1042C0008E0F9F1F0895FC016150704001900110F6
:1042D000D8F7809590958E0F9F1F0895DC01FC0103
:1042E000672F71917723E1F7329704C07C916D932A
:1042F00070836291AE17BF07C8F308950F931F93A1
:10430000CF93DF93182F092FEB018B8181FD03C021
:104310008FEF9FEF20C082FF10C04E815F812C8104
:104320003D81421753077CF4E881F9819F012F5F9B
:104330003F4F39832883108306C0E885F985812F94
:104340000995892B29F72E813F812F5F3F4F3F83AE
:104350002E83812F902FDF91CF911F910F91089580
:10436000FA01AA27283051F1203181F1E8946F93A6
:104370006E7F6E5F7F4F8F4F9F4FAF4FB1E03ED04C
:10438000B4E03CD0670F781F891F9A1FA11D680FEA
:10439000791F8A1F911DA11D6A0F711D811D911D1D
:1043A000A11D20D009F468943F912AE0269F112492
:1043B0003019305D3193DEF6CF010895462F4770F6
:1043C000405D4193B3E00FD0C9F7F6CF462F4F7051
:1043D000405D4A3318F0495D31FD4052419302D0AF
:1043E000A9F7EACFB4E0A695979587957795679555
:1043F000BA95C9F700976105710508959B01AC0155
:104400000A2E06945795479537952795BA95C9F77B
:10441000620F731F841F951FA01D0895DC01CB013F
:10442000FC01E199FECF06C0FFBBEEBBE09A3196DE
:104430000DB20D9241505040B8F708952F923F921F
:104440004F925F926F927F928F929F92AF92BF92A4
:10445000CF92DF92EF92FF920F931F93CF93DF9350
:10446000CDB7DEB7CA1BDB0B0FB6F894DEBF0FBEAD
:10447000CDBF09942A88398848885F846E847D84FA
:104480008C849B84AA84B984C884DF80EE80FD80FC
:104490000C811B81AA81B981CE0FD11D0FB6F89472
:0E44A000DEBF0FBECDBFED010895F894FFCF33
:1044AE0000000001000000000000CD04000000002C
:1044BE00000200000000C10400000000FF02010025
:1044CE0000B703200041546D65676133322070726E
:1044DE006F6772616D6162636465666768696A6B56
:1044EE006C6D6E6F707172737475767778446172DD
:1044FE006975737A204D2E2070726F6A2E797A311B
:10450E003233343536373839303938373635343347
:10451E0032312140240500253032643A2530326490
:10452E003A2530326420253032643A253032643AEE
:10453E0025640020535A41464B41204E523A2025C5
:10454E006420004F54574152434945005A414D4B48
:10455E004E494543494500253032643A2530326490
:10456E003A2530326420253032643A253032643AAE
:10457E0025640A004272616B2064616E7963680083
:10458E0025642E20005261706F7274206177617203
:10459E00796A6E792E20005261706F72742E20002F
:1045AE0050726F6772616D3A200050524F47524100
:1045BE004D20474C4F574E590050524F4752414D88
:1045CE0020544553544F575900435A5557414E495D
:1045DE00450044414E45202D20454550524F4D003B
:1045EE004E41535441574120474F445A494E59006A
:1045FE004E41535441574120414C41524D5500506C
:10460E006E2E0057742E0053722E00437A2E0050D9
:10461E00742E00536F2E004E642E002D2D2D2D2D39
:10462E002D2D007C005A41504953414E4F20474F8B
:10463E00445A494E450057594C41435A4F4E4F200C
:10464E00414C41524D005A41504953414E4F204129
:10465E004C41524D004D494E5554590053454B5502
:10466E004E4459005345544E452053454B554E44E8
:10467E0000445A49454E004D494553494143005265
:10468E004F4B00445A49454E205459474F444E49CA
:10469E004100504F4E4945445A49414C454B0057F5
:1046AE00544F52454B0053524F444100435A5741C9
:1046BE005254454B0050494154454B00534F424FC5
:1046CE005441004E4945445A49454C4100416C61A4
:1046DE00726D2077796C61637A6F6E7900416C61CF
:1046EE00726D20636F647A69656E6E7900416C61DC
:1046FE00726D207479676F646E696F777900416CA3
:10470E0061726D206D6965736965637A6E79004EAD
:10471E005220005779626965727A2070726F6772E3
:10472E00616D3A003E3E3E003C3C3C00537072616F
:10473E0077647A2070727A6563682D007779747960
:10474E0077616E69652055534200576974616A211D
:10475E00004C4344204844343437383000437A798F
:10476E0074616D3A00437A79737A637A656E69651E
:10477E002E2E2E004E6120706F637A6174656B0071
:10478E00656B72616E752E2E2E0041565220494E6B
:10479E0053504543544F5200446172656B204D2E69
:0247AE00000009
:040000050080007EF9
:00000001FF
