:100000000C943E000C945B000C945B000C945B0021
:100010000C9476180C945B000C945B050C945B00BC
:100020000C945B000C945B000C9481000C945B00BE
:100030000C945B000C945B000C945B000C945B00D4
:100040000C945B000C945B000C945B000C945B00C4
:100050000C945B006E0B850BA90B8F0CDD0C470D10
:10006000F60D220F78128012A913C013CE130E14AE
:10007000C0F9A4B0999282D88090FFBF11241FBE0E
:10008000CFE5D8E0DEBFCDBF12E0A0E6B0E0E0ED06
:10009000FBE302C005900D92A432B107D9F722E02C
:1000A000A4E2B2E001C01D92A236B207E1F70E94BD
:1000B00036190C94E61D0C9400008D9A959A8C9A32
:1000C000949AA29AAA9AA39AAB9AA49AAC9AA59A3D
:1000D000AD9AA69AAE9AA79AAF9AB89AC09AB99AC8
:1000E000C19ABA9AC29ABB9AC39A83B7886083BFEF
:1000F00083B7856083BF8EE48CBF89B7826089BF78
:1001000008951F920F920FB60F9211248F93EF93C1
:10011000FF93C09AC19AC29AC39A809160008130BD
:1001200019F4E091310210C0823019F4E0913202EA
:100130000BC0843019F4E091330206C0883019F402
:10014000E091300201C0E0E0F0E0E059FF4FE491BF
:10015000E0FF02C0959A01C09598E1FF02C0949A11
:1001600001C09498E2FF02C0AA9A01C0AA98E3FFD6
:1001700002C0AB9A01C0AB98E4FF02C0AC9A01C0C8
:10018000AC98E5FF02C0AD9A01C0AD98E6FF02C091
:10019000AE9A01C0AE98E7FF02C0AF9A01C0AF9817
:1001A00080916000813011F4C0980BC0823011F44E
:1001B000C19807C0843011F4C29803C0883009F494
:1001C000C39880916000880F893008F081E08093A7
:1001D0006000FF91EF918F910F900FBE0F901F90D5
:1001E00018958F929F92AF92BF92CF92DF92EF922B
:1001F000FF920F931F93CF93DF938C0189519C4FF4
:10020000873F9A4250F08BE0809331028093320214
:100210008093330280933002A1C0580117FF04C0BD
:10022000AA24BB24A01AB10A8AE090E021E030E0C1
:100230004AE0A816B9064CF02F5F3F4FBC01469F1D
:10024000C001479F900D1124F4CF6901E0E0F0E078
:100250008AE0E82EF12C9AE0892E912C4AE0C50123
:10026000B7010E948D19EC01E130F10529F480916C
:100270003002C81BD10919C0E230F10531F45091A8
:1002800033028091300290E00CC0E330F10569F454
:1002900060913202809133025091300290E0860FDB
:1002A000911D850F911DC81BD90BC701B4010E9478
:1002B0008D19CE010E948D19309719F46093300288
:1002C00011C0E130F10519F4609333020BC0E23044
:1002D000F10519F46093320205C0E330F10511F421
:1002E00060933102C701489F7001499FF00C1124AF
:1002F0003196E217F3070CF4B2CF8AE025303105CE
:10030000A4F42130310519F4809333020BC022305C
:10031000310519F48093320205C02330310511F400
:10032000809331022F5F3F4FE9CF17FF17C091E055
:10033000C916D10421F48BE0809333020FC022E070
:10034000C216D10421F48BE08093320207C063E02F
:10035000C616D10419F48BE080933102DF91CF915E
:100360001F910F91FF90EF90DF90CF90BF90AF90D3
:100370009F908F900895009741F0EFE9FFE031974B
:10038000F1F700C000000197F6CF0895009731F013
:1003900025E02A95F1F700000197F8CF08958F9294
:1003A0009F92AF92BF92CF92DF92EF92FF924B015A
:1003B0005C0120E030E04AE755E40E94751B6B01C8
:1003C0007C0120E030E040E85FE30E94221A87FDD4
:1003D00024C020E03FEF4FE757E4C701B6010E9479
:1003E000711B1816ACF420E030E040E251E4C50186
:1003F000B4010E94751B0E94931A20E931E0611537
:10040000710581F0C9010197F1F761507109F7CFCA
:10041000C701B6010E94931A02C061E070E0CB01EF
:100420000197F1F7FF90EF90DF90CF90BF90AF90E2
:100430009F908F9008958F929F92AF92BF92CF928C
:10044000DF92EF92FF924B015C012BEA3AEA4AEA13
:1004500050E40E94751B6B017C0120E030E040E815
:100460005FE30E94221A87FD21C020E030E04FE7C1
:1004700053E4C701B6010E94711B181694F420E0E2
:1004800030E04AE754E4C501B4010E94261AFF9007
:10049000EF90DF90CF90BF90AF909F908F900C9493
:1004A000CF01C701B6010E94931A01C061E06A95AD
:1004B000F1F7FF90EF90DF90CF90BF90AF909F90BB
:1004C0008F9008951F93CF93DF931F92CDB7DEB720
:1004D000182F0E9426058CEA0E943205812F0E9467
:1004E00032050E9426058DEA0E94320580E00E94B6
:1004F000390589830E942C0589810F90DF91CF9166
:100500001F9108951F93CF93DF931F92CDB7DEB74E
:10051000182F69830E9426058CEA0E943205812FDC
:100520000E9432056981862F0E9432050E942C05A7
:1005300085E090E00F90DF91CF911F910C94BB016B
:100540001F93CF93DF931F92CDB7DEB7182F798318
:100550000E9482027981672F81E0810F0F90DF91E5
:10056000CF911F910C9482021F93CF93DF93182F8A
:100570000E946202C82FD0E081E0810F0E946202D7
:100580009E01382BC901DF91CF911F910895CF9320
:10059000C0E060E08C2F0E948202CF5FCF3FC9F79E
:1005A000CF91089580FF02C0DC9A01C0DC9881FFE2
:1005B00002C0DD9A01C0DD9882FF02C0DE9A01C050
:1005C000DE9883FF02C0DF9A0895DF98089589B30B
:1005D00082958170CD998260CE998460CF99886030
:1005E0000895CF93DF93D498D598D698D798DA9A70
:1005F000DB9A0E94E70290E1899FE0011124DB98D9
:10060000DB9A0E94E702DB98E7ECF0E03197F1F724
:1006100000C000008C2BDF91CF910895D9980C94E5
:10062000F102CF93C82FD49AD59AD69AD79ADA984E
:10063000DB9A82958F700E94D202DB98DB9A8C2F16
:100640000E94D202DB980E940E0387FDFCCFCF915F
:100650000895D9980C941103D99A0C941103D99A3E
:100660000C94F102CF93DF93EC018991882319F068
:100670000E942C03FACFDF91CF91089590E4699FF7
:10068000800D112480680C94290381E00E942903C5
:100690008FE39FE10197F1F700C00000089582E029
:1006A0000E9429038FE39FE10197F1F700C000004A
:1006B0000895CF93D49AD59AD69AD79AD39AD19AA5
:1006C000D29A8FE59AEE0197F1F700C00000D99811
:1006D000DB98DA98C3E0DB9A83E00E94D202DB98D1
:1006E0008FE19EE40197F1F700C00000C15099F737
:1006F000DB9A82E00E94D202DB988FE99FE00197AB
:10070000F1F700C0000088E20E94290388E00E94FF
:10071000290381E00E94290386E00E9429038CE0DE
:10072000CF910C942903CF93DF93CDB7DEB76197B8
:100730000FB6F894DEBF0FBECDBF4AE0BE016F5FBB
:100740007F4F0E945D1D0E94320361960FB6F894A0
:10075000DEBF0FBECDBFDF91CF9108958F929F92E4
:10076000AF92BF92CF92DF92EF92FF920F931F93BF
:10077000CF93DF934B015C018A014530510510F0A6
:1007800004E010E0C501B4010E948E1A6B017C01E7
:10079000CB010E94930381E090E0CAE0D0E02AE020
:1007A0008017910740F4AE01249FE001259FD00DF2
:1007B00011240196F5CF012B09F477C082E292E073
:1007C0000E9432038601D7FE04C0002711270C19AE
:1007D0001D09BE0180E090E00E94BF1A9B01AC01A0
:1007E000C501B4010E94751B0E948E1A9B0177FF00
:1007F00004C022273327261B370BB901882777FD32
:100800008095982F0E94C11A6B017C019E01D8012E
:100810000E94A7190E94BF1A9B01AC01C701B60133
:100820000E94BD190E94931A6B017C01AB0181E00B
:1008300090E02AE030E06AE04217530740F001966A
:10084000F9016E9F90016F9F300D1124F5CF41E0AB
:100850002AE030E05AE0C217D30740F04F5FB901F9
:10086000569F9001579F300D1124F5CF01E010E005
:10087000C42FD0E0C81BD90B0C171D0738F480E03B
:1008800090E00E9493030F5F1F4FF6CFC601DF91E8
:10089000CF911F910F91FF90EF90DF90CF90BF907D
:1008A000AF909F908F900C949303DF91CF911F9105
:1008B0000F91FF90EF90DF90CF90BF90AF909F90FF
:1008C0008F900895CF93DF93CDB7DEB761970FB6C2
:1008D000F894DEBF0FBECDBF40E1BE016F5F7F4F1A
:1008E0000E945D1D0E94320361960FB6F894DEBF30
:1008F0000FBECDBFDF91CF910895CF92DF92EF92DF
:10090000FF920F931F93CF93DF938C016B017A01BA
:10091000C0E0D0E0CC15DD0581F0E114F10411F068
:100920008CE101C084E10E9429030115110519F031
:10093000C8010E94BB012196EDCFDF91CF911F919D
:100940000F91FF90EF90DF90CF900895CF92DF92BC
:10095000EF92FF920F931F93CF93DF938C016B0164
:100960007A01C0E0D0E0CC15DD0581F0E114F1049E
:1009700011F088E101C080E10E94290301151105F1
:1009800019F0C8010E94BB012196EDCFDF91CF91F4
:100990001F910F91FF90EF90DF90CF9008950F93EC
:1009A0001F93CF93DF93EC018230910520F08230CA
:1009B0009105D9F40FC080E80E94290308E210E0F5
:1009C00080E20E942C030150110901151105C1F7A5
:1009D000CD2B59F480EC0E942903C8E2D0E080E2DC
:1009E0000E942C0321972097D1F7DF91CF911F917F
:1009F0000F9108958330910589F030F4813091058D
:100A000049F0029749F008958430910549F005971F
:100A100049F008958CE007C088E005C08EE003C06F
:100A20008DE001C08FE00C942903BC0180E89EE3B7
:100A30000E947919862F603138F07727CB014097D3
:100A400097FD01969595879580B9089584EA86BFAC
:100A500006B607FEFDCF089584E986BF06B604FCFE
:100A6000FDCF089583B984E886BF06B607FEFDCFA3
:100A70000895882311F084EC01C084E886BF06B68F
:100A800007FEFDCF83B108958EB5887F8EBD089592
:100A90008EB585608EBD08958E98969A8EB58F7BA3
:100AA0008EBD1092370289B7806289BF10923802DA
:100AB000BC98C49A08951F920F920FB60F921124FA
:100AC0002F933F938F939F9386B597B520912802DC
:100AD00030912902821B930B26B537B5309329023A
:100AE000209328022EB530E423272EBD8F319105A7
:100AF00010F01092370220913702222319F021E0E2
:100B00002093270220913702211111C01092260252
:100B100010922502109224022EB520642EBD209141
:100B200037022F5F2093370222E020932702209183
:100B30002702213009F05FC09C012A50310925317C
:100B4000310510F01092270220912702213009F080
:100B500052C0429728F0809137028F5F809337020E
:100B600080913702823008F441C08091370280FDC5
:100B70003DC08091250290912602880F991F909385
:100B80002602809325020EB406FE05C08160909374
:100B9000260280932502809124028F5F8093240295
:100BA0008D3020F18091380281111BC08091250287
:100BB00090912602282F2F73209336029C01207CCF
:100BC0003770689415F8369527951694E1F72093B9
:100BD000350288279870892F86958695869580930B
:100BE00034021092270281E080933802809137020C
:100BF0008F5F8093370280912702811105C0109288
:100C000037028EB58F7B8EBD9F918F913F912F9133
:100C10000F900FBE0F901F90189586B382958F701E
:100C200091E08927817090E008958A98929A8B9834
:100C3000939A089580E208958695869586950895FD
:100C4000CF93C82FCC0FCC0FCC0F8C2F0E946202F9
:100C50008093490281E08C0F0E94620280934A02D5
:100C600082E08C0F0E94620280934B0283E08C0F23
:100C70000E94620280934C0284E08C0F0E94620208
:100C800080934D0285E08C0F0E94B40290934F0236
:100C900080934E0287E08C0F0E9462028093500284
:100CA000CF910895EF92FF920F931F93CF93DF930D
:100CB00080E991E00E94BB018FEF0E94D815182FA8
:100CC0002FEF30E0281B31092730310514F0F12CCB
:100CD00003C0FF24F39410E0CFE3D2E001E084E608
:100CE000E82E89918823C9F10E94600782E390E091
:100CF0000E94BB010E94591860915402812F0E94EA
:100D000082026091450281E0810F0E94820260911F
:100D1000440282E0810F0E94820260915B0283E0C4
:100D2000810F0E9482026091460284E0810F0E943E
:100D30008202609155027091560285E0810F0E94F7
:100D4000A002FE0131978081602F8E9D600D1124DD
:100D500087E0810F0E948202185F0F5F033009F065
:100D6000C0CF612F8FEF0E94F815112319F081E099
:100D7000F8120CC060E070E08AE794E4DF91CF9154
:100D80001F910F91FF90EF900C946907DF91CF9125
:100D90001F910F91FF90EF90089580B382FB8827F9
:100DA00080F991E08927089580B383FB882780F933
:100DB00091E089270895811102C00C94CD068130FD
:100DC00011F40C94D4068FEF089580E00E94DB06A6
:100DD00080933D0281E00E94DB0680933E020895ED
:100DE000BF92CF92DF92EF92FF920F931F93CF9318
:100DF000DF930DE312E0CFE3D2E0D12CE12CF12C14
:100E0000CC24C39422E0B22E8D2D0E94DB06F80183
:100E10009081891749F0882311F0B88201C0C882F7
:100E2000EE24E394F12C01C01882F80181938F0124
:100E3000D3942196F2E0DF12E7CFEF2859F0DF914B
:100E4000CF911F910F91FF90EF90DF90CF90BF90C7
:100E50000C945206DF91CF911F910F91FF90EF906C
:100E6000DF90CF90BF9008952F923F9210923A0258
:100E7000109239028091390290913A0220914702F2
:100E80003091480282179307C4F4D101ED91FC918F
:100E9000E80FF91F80810E942C0360E070E088E475
:100EA00092E40E94CF018091390290913A0201961A
:100EB00090933A0280933902DDCF3F902F900895AE
:100EC000979A60E070E080E89FE30E94CF019798D6
:100ED0000895979A0E94CF0197980895CF93DF9332
:100EE000EC010E9445038FEB90E00E943203CE019B
:100EF0000E94930310923A021092390280913902B3
:100F000090913A02059794F460E070E080E291E4F9
:100F10000E94CF010E9460078091390290913A02AD
:100F2000019690933A0280933902E8CF60E070E036
:100F30008AEF93E40E94CF01DF91CF910C94450397
:100F4000811103C089EC90E01DC0813019F48DEC53
:100F500090E018C0823019F481ED90E013C0833026
:100F600019F485ED90E00EC0843019F489ED90E01D
:100F700009C0853019F48DED90E004C0863021F46D
:100F800081EE90E00C943203089560E080912E028F
:100F90000E943E03809144028A3024F480E090E075
:100FA0000E94930380914402992787FD90950E94A7
:100FB00093038CE092E00E943203809145028A30D4
:100FC00024F480E090E00E949303809145029927E9
:100FD00087FD90950E9493038CE092E00E9432037B
:100FE000809154028A3024F480E090E00E949303C0
:100FF00080915402992787FD90950E9493038CE07D
:1010000092E00E943203809143028A3024F480E00F
:1010100090E00E94930380914302992787FD909569
:101020000C9493030E94C50761E080912E020E94F8
:101030003E0380915B028A3024F480E090E00E94BD
:10104000930380915B02992787FD90950E949303FB
:101050008CE092E00E943203809146028A3024F4B0
:1010600080E090E00E94930380914602992787FDDB
:1010700090950E9493038CE092E00E94320380914D
:101080005502909156020E94930361E08DE00E9408
:101090003E03809157020C94A007823079F580912D
:1010A0004602811103C085EE90E026C010923C02FA
:1010B00020913C022730F4F480914602992787FD65
:1010C000909502C0959587952A95E2F780FF0CC010
:1010D0008DEE90E00E94320380913C02992787FDBB
:1010E000909501960E94930380913C028F5F8093BC
:1010F0003C02DECF8DEE90E00C943203833011F58C
:1011000080915B028A3024F480E090E00E94930397
:1011100080915B02992787FD90950E9493038CE054
:1011200092E00E943203809146028A3024F480E0EB
:1011300090E00E94930380914602992787FD909545
:101140000C9493030895CF93DF93D82FC62F61118A
:1011500003C08FEE90E00EC0613019F487EF90E08D
:1011600009C0623019F48EEF90E004C0633021F4BE
:1011700086E091E00E943203DD2311F0D330B1F418
:10118000C43019F483E191E035C0C53019F489E128
:1011900091E030C0D11132C0C63019F481E291E043
:1011A00029C0C73059F585E291E024C0D23031F52D
:1011B000C43019F484E391E01DC0C53019F481E412
:1011C00091E018C0C63019F488E491E013C0C7302C
:1011D00019F48EE491E00EC0C83019F487E591E06F
:1011E00009C0C93019F48EE591E004C0CA3031F469
:1011F00085E691E0DF91CF910C943203DF91CF919E
:101200000895423041F420915202309153023195B9
:101210002195310909C0413029F4209152023091C1
:10122000530202C020E030E0611106C090914402F8
:10123000920F9093440217C0613031F490914502AF
:10124000920F909345020FC0623031F49091540296
:10125000920F9093540207C0633029F49091430297
:10126000920F90934302882311F0833031F564305C
:1012700031F480915B02820F80935B0208956530A8
:1012800021F480914602820F7EC081117EC06630BB
:1012900059F48091550290915602820F931F9093BA
:1012A0005602809355020895673009F06EC0809110
:1012B0005702820F809357020895823009F065C06B
:1012C000643069F4413021F48091460281605BC052
:1012D000423009F05AC0809146028E7F54C065307A
:1012E00069F4413021F4809146028D6F4CC0423048
:1012F00009F04BC0809146028D7F45C0663061F495
:10130000413021F4809146028B6F3DC04230E9F5B7
:10131000809146028B7F37C0673061F4413021F401
:1013200080914602876F2FC0423079F58091460246
:10133000877F29C0683061F4413021F480914602F2
:101340008F6E21C0423009F5809146028F7E1BC00E
:10135000693061F4413021F4809146028F6D13C0F1
:10136000423099F4809146028F7D0DC06A3069F455
:10137000413021F4809146028F6B05C0423029F440
:10138000809146028F7B809346020895882361F006
:10139000813061F0823021F0833021F486E00895BD
:1013A0008BE0089580E0089588E0089585E0089531
:1013B000811103C08FE691E00EC0813019F48FE7F0
:1013C00091E009C0823019F48FE891E004C08330C5
:1013D00021F480EA91E00C94320308958091440254
:1013E00087FF04C087E18093440204C0883114F071
:1013F000109244028091450287FF04C08BE38093E2
:10140000450204C08C3314F01092450280915402BE
:1014100087FF04C08BE38093540204C08C3314F024
:10142000109254028091430287FF04C083E68093A8
:1014300043020895843614F0109243020895909167
:101440004602191614F09CE003C09D301CF091E098
:101450009093460290914602492F4D7F209155026C
:10146000309156024130D9F09530C9F059EF590FFB
:101470005230A8F09A3099F09C3089F0443089F0CD
:10148000493079F0923039F4A90143705527452B42
:1014900061F0813041F0882341F080E007C08FE1A6
:1014A00005C08EE103C08CE101C08DE140915B027B
:1014B000141644F4552747FD509590E0841795077E
:1014C0001CF481E080935B02213F88ED38071CF417
:1014D0008FE097E205C02031374234F081EF98ED7C
:1014E00090935602809355028091570287FF04C063
:1014F00086E0809357020895873014F010925702C7
:101500000895CF93DF93992787FD90950E949303C9
:1015100082E292E00E94320380914B028A3020F4F2
:1015200080E090E00E94930380914B0290E00E9443
:1015300093038CE092E00E94320380914A028A3049
:1015400020F480E090E00E94930380914A0290E0B2
:101550000E9493038CE092E00E9432038091490242
:101560008A3020F480E090E00E9493038091490249
:1015700090E00E94930385ED91E00E9432038091F8
:101580004C028A3020F480E090E00E949303809126
:101590004C0290E00E9493038CE092E00E943203A0
:1015A00080914D028A3020F480E090E00E94930305
:1015B00080914D0290E00E9493038CE092E00E94A3
:1015C000320380914E0290914F020E94930385ED69
:1015D00091E00E94320380915002C4E66C2F0E9479
:1015E0006D19D92F992321F181EB91E00E943203EB
:1015F0008D2F90E00E94930385ED91E00E943203CD
:10160000809150026C2F0E946D1990E090933A02E5
:10161000809339028130910519F485EB91E004C083
:10162000029731F48EEB91E0DF91CF910C9432036D
:10163000DF91CF9108950F931F93CF93DF93EC0128
:101640008B010097B1F060E080E00E943E03809142
:101650002F02863041F48C2F81500E9420068C2F5F
:101660000E94810A06C0853021F48C2F81500E948F
:10167000D809C017D107E1F061E080E00E943E0385
:1016800080912F02863059F48C2F0E9420068C2FD7
:101690008F5FDF91CF911F910F910C94810A85305C
:1016A00039F48C2FDF91CF911F910F910C94D809B1
:1016B000DF91CF911F910F910895EF920F931F9398
:1016C000CF93DF9380912F0290E08730910508F04F
:1016D000C0C2FC01E65DFF4F0C94A11980E090E0D0
:1016E0000E94CF0460E080E00E943E0389EC91E01C
:1016F0000E94320361E080E00E943E0382ED91E0AF
:101700000E94320386E090E01DC080E090E00E94DD
:10171000CF0460E080E00E943E038091360290E0BA
:101720000E94930360E086E00E943E0380913502B0
:1017300090E00E94930361E080E00E943E0380916C
:10174000340290E0DF91CF911F910F91EF900C94B4
:10175000930380E090E00E94CF0460E080E00E946C
:101760003E0380912A02992787FD90950E9493035A
:101770000091470210914802C801880F991F0E94EA
:10178000D81BEC0150915A0215161CF05F3F09F06E
:10179000BEC020912B0230E040E060E3FE01E20F8A
:1017A000F31F71E3842F992787FD90958017910788
:1017B0005CF48217930711F4708304C0DE01A80F54
:1017C000B91F6C934F5FEECF409351021516CCF4C6
:1017D00060E084E00E943E032091390230913A0299
:1017E00044E6429FC001439F900D11246AEF70E0D0
:1017F0000E948D19CB010E94930387ED91E00E9416
:101800003203209147023091480250912A0240E071
:101810006AE0842F992787FD909582179307A4F596
:10182000FE01E80FF91F80818133A1F4411103C04B
:101830005093310227C0413019F45093320222C034
:10184000423019F4509333021DC04330D9F4509301
:10185000300218C0442311F0511102C060933102CC
:10186000413011F0511102C060933202423011F048
:10187000511102C060933302433011F0511102C084
:10188000609330024F5FC5CF4093510280915A025E
:101890008F3FE9F5109251021BE040915102842FD5
:1018A000992787FD90952091470230914802821731
:1018B00093075CF5FE01E80FF91F8081803321F06A
:1018C00080912A0281111BC0411103C01093310283
:1018D0000EC0413019F41093320209C0423019F49D
:1018E0001093330204C0433011F4109330020E946D
:1018F000600760E070E088EC92E40E94CF01809184
:1019000051028F5F80935102C8CF10925A02CE01CC
:10191000DF91CF911F910F91EF900C94701C10925A
:101920002E020E94591880E090E00E94CF0460E0EF
:101930008BE00E943E0380912D02811103C081EF54
:1019400091E004C0813021F48DEE90E00E943203DA
:101950000E9412080E94491885E180932E0280910E
:101960005A02882391F060E082E10E943E038DEEEE
:1019700090E00E94320361E082E10E943E038DEE1E
:1019800090E00E9432030E94C50761E080912E0220
:101990000E943E0380915A020E944D0860E08CE054
:1019A0000E943E030E94101941E050E0DF91CF9168
:1019B0001F910F91EF900C94AE0380E090E00E9495
:1019C000CF0480915A0287FD10925A0280915A02E8
:1019D000883039F5209143024091540260914502CC
:1019E000809144020E94E4162091550230915602E3
:1019F000409146026091570280915B020E945E17FF
:101A00000E94450360E080E00E943E0389ED91E082
:101A10000E94320384EF91E00E94BB0181E0809339
:101A2000620080913C028130A1F460E080912E023E
:101A30000E943E0360915A0280E00E94A308109227
:101A40003C0280E991E00E94BB0180E090E00E94AE
:101A5000CF0460915A0280E00E94C30E409151026F
:101A6000442339F060915A0280E00E9401091092EB
:101A700051020E94EE0981E00E941F0A10922E027C
:101A8000DF91CF911F910F91EF900C94120880E09D
:101A900090E00E94CF0480915A028F3F1CF48FEF98
:101AA00080935A02D0915A02C0914202DF3F79F4EA
:101AB000C7FF04C084E08093420204C0C53014F024
:101AC000109242028091420264E070E0B8C08C2F14
:101AD0000E94C6094D2F552747FD5095282F30E00D
:101AE0004217530709F046C0CC2309F440C0C13067
:101AF00069F40E94DD1720914302409154026091E5
:101B00004502809144020E94051823C0C23079F436
:101B10000E94ED170091430220915402409145022A
:101B200060914402809146020E94251812C0C33081
:101B300081F40E94FD17E09043020091540220912D
:101B40004502409144026091460280915B020E94EE
:101B500035180E94450360E080E00E943E0383EE5A
:101B600091E00E94320384EF91E00E94BB0181E08A
:101B70008093620080913C028130A9F460E0809102
:101B80002E020E943E0360915A02809142020E94FE
:101B9000A30810923C0280E991E00E94BB0180E022
:101BA00090E00E94CF0460915A02809142020E940C
:101BB000C30E40915102442341F060915A0280913A
:101BC00042020E940109109251020E94EE09809186
:101BD00042020E941F0A10922E0280914202DF915F
:101BE000CF911F910F91EF900C944D0880E090E001
:101BF0000E94CF0480915202909153020B9720F0E3
:101C00008AE090E00E942F0EC0915A02C7FF05C0E3
:101C10000E941A0680935A020CC00E941A062C2FAA
:101C2000332727FD309590E08217930714F4109224
:101C30005A020E941A06682F70E080915A02992772
:101C400087FD9095DF91CF911F910F91EF900C94AC
:101C50001B0BDF91CF911F910F91EF9008950F9380
:101C60001F93CF93DF932AE030E0C1E04AE0821770
:101C7000930740F0CF5FB901469F9001479F300D19
:101C80001124F5CF30933A022093390290935302F6
:101C90008093520280E090E00E94CF0410923A02BA
:101CA000109239028C2F90E0C7E2D0E0C81BD90B0C
:101CB0008C010D5F1F4F8091390290913A028C1771
:101CC0009D07FCF460E00E943E03809152029091D7
:101CD00053020E94930361E0809139020E943E0307
:101CE00080915202909153020E9493038091390295
:101CF00090913A02800F911F90933A02809339029B
:101D0000DACF60E070E08AEF93E40E94CF01DF91C8
:101D1000CF911F910F910C945D0B20915202309145
:101D200053024AE0429FC001439F900D1124893E17
:101D300023E0920710F088EE93E090935302809393
:101D4000520280915202909153020C942F0E809176
:101D50005202909153026AE070E00E947919611575
:101D6000710529F0709353026093520206C081E01E
:101D700090E090935302809352028091520290918E
:101D800053020C942F0ECF93DF93C82FD62F6430BD
:101D900058F420915202309153022B30310520F03B
:101DA0008AE090E00E942F0ECC2311F0C330F9F4AA
:101DB0008CEF8D0F823058F42091520230915302F3
:101DC0002B30310520F08AE090E00E942F0EC111E7
:101DD0000EC0D73061F48091520290915302029765
:101DE00030F081E090E0DF91CF910C942F0EDF91E5
:101DF000CF9108952F923F927F928F929F92AF92B0
:101E0000BF92CF92DF92EF92FF920F931F93CF93E7
:101E1000DF93CDB7DEB7C055D1090FB6F894DEBF5A
:101E20000FBECDBF8C017B010E94600740912F0245
:101E300050E04730510508F021C5FA01EF5CFF4F33
:101E40000C94A1190C30110509F4FDC109321105DA
:101E500009F012C50E9444050E94450388E290E003
:101E6000909348028093470280E5EDE6F0E0DE01C2
:101E7000119601900D928A95E1F784E090E00E941E
:101E8000D81B5C0110923A021092390248E2942E5B
:101E9000C0903902D0903A0282E0C816D104B4F55D
:101EA00080E590E00E94D81BF601EE0FFF1FEA0DBF
:101EB000FB1D9183808310925A0240E09C9C90010C
:101EC0009D9C300D1124542FE42FFF27E7FDF09542
:101ED0004F5FE832F10584F4DC01A50FB11D57FD19
:101EE000BA95E20FF31F61E070E06C0F7D1FE60F03
:101EF000F71F50815C93E7CF50935A027FEFC71AC8
:101F0000D70AD0923A02C0923902C2CF10923A0256
:101F1000109239028091390290913A0288329105EB
:101F200094F4D501ED91FC91E80FF91F80810E9496
:101F30002C038091390290913A02019690933A02D3
:101F400080933902E7CF61E080E00E943E03109267
:101F50003A02109239028091390290913A02883205
:101F60009105A4F4D5011296ED91FC911397E80F19
:101F7000F91F80810E942C038091390290913A02CE
:101F8000019690933A0280933902E5CF88E290E07F
:101F9000909348028093470281E080935A02809197
:101FA0005A02882309F41CC184E090E00E94D81BE7
:101FB0006C0110923A02109239028090390290908E
:101FC0003A02E2E08E169104BCF4809147029091AF
:101FD0004802880F991F0E94D81BF401EE0FFF1FC3
:101FE000EC0DFD1D91838083BFEF8B1A9B0A9092AD
:101FF0003A0280923902E1CF0E944F0310923A02D6
:10200000109239028091390290913A022091470250
:1020100030914802821793079CF4D6018D909C90D2
:10202000880E991E0E942F03F4018083809139024B
:1020300090913A02019690933A0280933902E2CF4E
:1020400061E080E00E943E0310923A021092390251
:102050008091390290913A022091470230914802D2
:1020600082179307ACF4D60112968D909C9013972B
:10207000880E991E0E942F03F401808380913902FB
:1020800090913A02019690933A0280933902E0CF00
:102090000E944503809147029091480240915A0264
:1020A00020E030E0281739070CF5F601A081B18156
:1020B000A20FB31FF50180809180820E931E6C9158
:1020C000D4015C9165130EC0F601A281B381A20F09
:1020D000B31FF50182809380820E931E6C91D40110
:1020E0005C91651340E02F5F3F4FDCCF40935A0275
:1020F00030933A02209339020E940D06892B11F089
:1021000010925A0280915A02811105C010923A022F
:102110001092390248C010923A021092390280910E
:10212000390290913A022091470230914802821779
:10213000930794F4D601ED91FC91E80FF91F80818B
:102140000E942C038091390290913A02019690935B
:102150003A0280933902E3CF61E080E00E943E03BF
:1021600010923A02109239028091390290913A020B
:102170002091470230914802821793073CF6D6011E
:102180001296ED91FC911397E80FF91F80810E9440
:102190002C038091390290913A02019690933A0271
:1021A00080933902E1CF8090390290903A02E2E0C8
:1021B0008E1691048CF4F401EE0FFF1FEC0DFD1D43
:1021C000808191810E94701CBFEF8B1A9B0A9092B4
:1021D0003A0280923902E7CFC6010E94701CDFCE1E
:1021E00010923A0210923902C0903902D0903A020D
:1021F00062E0C616D1048CF4F601EE0FFF1FEA0D63
:10220000FB1D808191810E94701CFFEFCF1ADF0AB5
:10221000D0923A02C0923902E7CFC5010E94701CE9
:102220000E94600760E070E080E291E40E94CF01CC
:102230000E94600760E070E080E291E40E94CF01BC
:102240000E94600752C10E9444050E94450384E039
:1022500090E00E94FA0461E089E00E943E0383EF6F
:1022600091E00E94320360E070E08AEF93E40E9404
:10227000CF010E944F038AEF91E00E94320360E099
:1022800070E08AEF93E40E94CF0141E050E061E00A
:1022900070E080E090E00E947D0460E070E08FE2FA
:1022A00094E40E94CF0182E090E00E94FA0460E092
:1022B00070E08FE294E40E94CF0181E090E00E9400
:1022C000FA0460E070E08FE294E40E94CF0182E0C3
:1022D00090E00E94FA0460E070E08FE294E40E94D3
:1022E000CF0185E090E00E94FA0460E070E08AE7A8
:1022F00094E40E94CF0184E090E00E94FA0440E060
:1023000050E061E070E080E090E00E947D0460E0D9
:1023100070E08AE794E40E94CF0140E050E061E081
:1023200070E080E090E00E94A60483E090E00E94CC
:10233000FA0460E070E08AE794E40E94CF0185E04F
:1023400090E00E94FA0461E080E00E943E0386E093
:1023500092E00E94320360E070E88BEB94E40E940C
:10236000CF0161E089E00E943E0386E090E0909317
:102370004802809347020E94D81B9A838983109257
:102380003A02109239028091390290913A022091DA
:1023900047023091480282179307C4F4C980DA805B
:1023A000C80ED91E0E942F03D6018C9360E070E006
:1023B00088EC92E40E94CF018091390290913A0218
:1023C000019690933A0280933902DDCF41E050E0CC
:1023D00061E070E080E090E00E94A60460E070E8B8
:1023E0008BEB94E40E94CF0183E090E00E94FA041A
:1023F00080E090E00E94CF0460E070E88BEB94E412
:102400000E94CF0161E080E00E943E03FE01319610
:102410001F010E94340784E090E00E94FA0460E00B
:1024200089E00E943E030E94340761E088E00E9438
:102430003E0385E090E00E94FA040E94340760E0C9
:1024400081E00E943E030E94340789819A810E94A4
:10245000701C83E090E00E94FA0460E070E88BEB6F
:1024600094E40E94CF0141E050E06FE070E084E12D
:1024700090E00E947D0441E050E06FE070E084E174
:1024800090E00E94A60481E090E00E94CF0484E0E6
:1024900090E00E94FA0460E070E08AE794E40E9411
:1024A000CF0141E050E06FE070E084E190E00E94F5
:1024B000A60441E050E06FE070E084E190E00E940B
:1024C0007D0483E090E00E94FA0482E090E00E94A4
:1024D000CF0460E070E08AEF93E40E94CF010E9495
:1024E000450381E090E00E94FA040E944805C4C1BF
:1024F000C8010E94FA040436110509F0BDC132C2B8
:102500000233110509F404C194F40032110509F4F1
:1025100007C12CF40E30110509F409C1ADC1013217
:10252000110509F400C109321105C9F0A5C107332D
:10253000110509F4EAC05CF40433110509F4EDC097
:102540000633110509F098C184E690E0E3C00B332F
:10255000110509F4D0C00436110509F08DC181E0E0
:1025600090E090933A028093390280935A026EEE83
:10257000C62E62E0D62E6DEC7CEC8CEC9EE30E94C5
:1025800069078091390290913A02019690933A023C
:10259000809339020E945D0B6091390270913A027A
:1025A000C6010E948D19665F7F4F882777FD809551
:1025B000982F0E94C11A0E94CF010E940D06892BFC
:1025C00039F08091390290913A028A3F910599F64B
:1025D00060E070E088E493E40E94CF010E94591803
:1025E00010923C0290913C0280914302981744F46F
:1025F0000E944D1D80913C028F5F80933C02F2CF80
:1026000036E0C32ED12C7724739444ECA42E49E0F9
:10261000B42E57E0852E912C8091390290913A0288
:10262000019709F44BC00E944D1DB6010E948D19FF
:102630008F5F80935A0270923C0220913C028091FD
:102640005A026091390270913A02821784F1C501F1
:102650000E948D19CB010196B401621B710927FDFF
:1026600073950E948D19882777FD8095982F0E9479
:10267000C11A0E94CF010E944D1D609147027091C6
:1026800048020E948D1980932B0280913C02809316
:102690002A020E945D0B6DEC7CEC8CE49FE30E94AF
:1026A000690780913C028F5F80933C02C6CF6150E6
:1026B000710970933A0260933902AECF82E090E0E4
:1026C00090933A028093390280913C028730BCF4A7
:1026D00067E070E0681B710987FD739583EE94E0F5
:1026E0000E948D19882777FD8095982F0E94C11A26
:1026F0000E94CF0104C010922A0210922B028FEF89
:1027000080935A020E945D0BB7C088EE93E002C02E
:102710008AE090E00E942F0EAFC081E090E0FACFF7
:1027200083B7856002C083B78A7F83BFA5C0B1E04D
:10273000EB16F10409F0A0C083B7856083BF8AE07F
:10274000809331028093320280933302809330026F
:1027500093C00B33110521F00436110521F08CC014
:102760000E946C1689C080912D02813019F410925C
:102770002D0282C0811180C081E080932D027CC037
:1027800000321105C9F174F00132110509F442C09B
:102790000B33110509F070C088E06CC000321105E0
:1027A00009F15CF400311105A1F00131110509F0C6
:1027B00063C080915A0281500FC001321105F1F0BF
:1027C0000B33110509F058C0809142020E94C609DE
:1027D00051C080915A028F5F80935A0281E08093AA
:1027E0003C024AC080915A028F3F31F480914202EC
:1027F00090915202891B0BC081E00DC080915A025A
:102800008F3F41F48091420290915202890F809350
:10281000420232C082E0809351022EC00032110584
:10282000F1F024F40C30110569F026C001321105D5
:10283000E1F00B33110501F58FEF0E94D8150E94CE
:102840001C0618C0E1E0EE16F104B1F40E94C702C4
:1028500060E08FEF0E94F81510925A020DC080912F
:102860005A0290915202891B05C080915A029091A0
:102870005202890F80935A020E945D0B04321105A7
:1028800009F452C05CF40232110509F446C00CF0A0
:1028900054C00E30110509F45FC064C00C3211053C
:1028A00009F454C06CF50632110509F05BC00E94B2
:1028B00045038EE092E00E94320361E080E00E94D6
:1028C0003E038AE192E00E94320360E070E08AE712
:1028D00093E40E94CF0141E050E06FE070E084E1BA
:1028E00090E00E947D0441E050E06FE070E084E100
:1028F00090E00E94A6040E9445030E945D0B32C036
:102900000D32110531F10E32110561F541E050E053
:1029100061E070E080E090E00DC041E050E061E0F7
:1029200070E080E090E00FC041E050E06FE070E0C8
:1029300084E190E00E947D0415C041E050E06FE02A
:1029400070E084E190E00E94A6040CC00E948D0E0D
:1029500009C00E94A70E06C0EA94EF2819F481E08E
:1029600080936200C05BDF4F0FB6F894DEBF0FBEEE
:10297000CDBFDF91CF911F910F91FF90EF90DF902E
:10298000CF90BF90AF909F908F907F903F902F906F
:1029900008950F931F93CF93DF93EC018B018091E8
:1029A0002D02813011F40E94440580912F02811183
:1029B0005CC0CE010197069708F057C0C0932F0264
:1029C000CE010E946E0780912F02833019F1B8F476
:1029D000813009F448C0823009F047C084E090E0BB
:1029E00090934802809347028FEF80935A0210928F
:1029F0003A021092390283B7856083BF34C08530B4
:102A000019F198F0863089F58FEF0E94D8150E9451
:102A10001C0627C00E94E50685B5876085BD81E05C
:102A200080932C020E94B1171CC00E94591810926A
:102A30005A0281E080933C0210925102B80184E373
:102A400090E00E94FA0E11C08FEF80935A0281E04D
:102A500080933C02109251020E94B117809342026F
:102A600002C080935A020E945D0B80916200811126
:102A700004C0B801CE010E94FA0E8091620081303C
:102A8000C9F41092620010922F0281E090E09093BE
:102A900053028093520210922C0283B78A7F83BF25
:102AA00085B58E7F85BD80912F0290E00E946E07D4
:102AB0000E945D0B80912D02813031F4DF91CF9126
:102AC0001F910F910C944805DF91CF911F910F91A9
:102AD000089580914102882351F080912F02833024
:102AE00031F40E945D0B1092410210923B020E9451
:102AF0000D06892BB1F060E070E080EF91E40E9458
:102B0000CF010E940D06892B31F060E070E084E671
:102B100090E00E94C91460E070E088EC92E40E94AA
:102B2000CF0180913802882379F18091350281119B
:102B30002BC010923A0210923902209161008091CC
:102B40003402223079F0332727FD309590E02817A2
:102B5000390731F481E090E090933A028093390292
:102B60008091340280936100809136026091390235
:102B700070913A0290E00E94C914109238028FEFCF
:102B800080933602809335020895982F92959F7016
:102B90008F702AE0929F800D112408956AE00E94B0
:102BA0006D19292F30E1839FC0011124822B0895D4
:102BB0001F93CF93DF931F92CDB7DEB7182F0E94DC
:102BC000260582EA0E943205812F0E9432050E946A
:102BD000260583EA0E94320580E00E943905898338
:102BE0000E942C0589810F90DF91CF911F9108954C
:102BF0001F93CF93DF931F92CDB7DEB7182F698352
:102C00000E94260582EA0E943205812F0E94320529
:102C10006981862F0E9432050F90DF91CF911F911D
:102C20000C942C050E94D8150C94C515CF93C82F71
:102C3000862F0E94CE15682F8C2FCF910C94F815FB
:102C400080E00E94D815682F606880E00C94F81529
:102C500080E00E94D815682F6F7780E00C94F815FB
:102C600080E00E94D815682F6F7B80E00C94F815E7
:102C700080E00E94D815682F606480E00C94F815FD
:102C800080E00E94D815682F677F80E00C94F815CB
:102C900060E080E00E94F81580E00E94D815682F5F
:102CA000646080E00E94F8150E9430160E94401671
:102CB00084E00E94D815682F6F7384E00E94F81595
:102CC00060E888E00C94F81580E00E94D815682F21
:102CD000686080E00C94F81580E00E94D815682F99
:102CE0006D7F80E00C94F8151F93CF93DF931F92B4
:102CF000CDB7DEB7182F79830E94F8157981672F39
:102D000081E0810F0F90DF91CF911F910C94F81506
:102D10001F93CF93DF931F92CDB7DEB7182F862F67
:102D200049830E94CE154981642F6295660F660F14
:102D3000607C682B812F0F90DF91CF911F910C94B5
:102D4000F8151F93CF93DF931F92CDB7DEB7182FDF
:102D5000862F49830E94CE15498190E2499FB00198
:102D60001124682B812F0F90DF91CF911F910C942C
:102D7000F815CF92DF92EF92FF920F931F93CF93AC
:102D8000DF93EC017B016A0189010E94381681E022
:102D90000E941216F801808382E00E941216F6014A
:102DA000808383E00E941216F701808384E00E94F2
:102DB00012168883DF91CF911F910F91FF90EF90B2
:102DC000DF90CF900C9430160F931F93CF93DF9327
:102DD00000D0CDB7DEB7182F062F29834A830E9473
:102DE00020162981622F81E00E9416164A81642FE5
:102DF00082E00E941616602F83E00E941616612F53
:102E000084E00E9416160F900F90DF91CF911F91D2
:102E10000F910C942816CF92DF92EF92FF920F93AE
:102E20001F93CF93DF93EC017B016A0189010E941C
:102E300064160E94381685E00E94D8150E94C515B8
:102E4000888386E00E94D8150E94C515F60180830C
:102E50000E94401686E00E94D8158295869587705C
:102E6000F701808385E00E94D815F82E80E10E944A
:102E7000D815C82F81E10E94D815D0E0D82B9E012B
:102E800023703327F294F694F69483E0F8228F2D82
:102E900090E02817390729F02196BE0180E10E94B1
:102EA0007416F801D183C083DF91CF911F910F91E8
:102EB000FF90EF90DF90CF900C943016FF920F931D
:102EC0001F93CF93DF93F82E062F142FE901B9013A
:102ED00080E10E9474160E942016AE016F2D85E0DD
:102EE0000E948816402F612F86E00E94A116DF9174
:102EF000CF911F910F91FF900C942816CF92DF92E3
:102F0000EF92FF920F931F93CF93DF93EC017B011E
:102F10006A01890189E00E941216F80180838AE023
:102F20000E941216F60180838BE00E941216F701B0
:102F300080838CE00E9412168883DF91CF911F91CD
:102F40000F91FF90EF90DF90CF900895CF93C62F11
:102F5000682F8DE00E9416166C2F8EE0CF910C9496
:102F6000161688E00E94D815807382958F70089598
:102F70000F931F93CF93DF938C01EB018DE00E94A1
:102F80001216F80180830E94B117823029F48EE076
:102F90000E94D8158F7703C08EE00E941216888396
:102FA000DF91CF911F910F91089588E00E94D8156D
:102FB000682F6F7C88E00C94F81588E00E94D81583
:102FC000682F606188E00E94F81588E00E94D8159B
:102FD000682F6F7D88E00C94F81588E00E94D81562
:102FE000682F6F7E88E00E94F81588E00E94D8154F
:102FF000682F606288E00C94F81588E00E94D8156C
:10300000682F606388E00C94F8150F931F93CF939B
:10301000DF931F92CDB7DEB7182F062F622F89E0FE
:1030200049830E9416164981642F8AE00E94161671
:10303000602F8BE00E941616612F8CE00F90DF91BD
:10304000CF911F910F910C9416160F93CF93C82F09
:10305000862F642F422F202F0E9405186C2F6F7728
:103060008EE0CF910F910C94F815EF920F93CF93C0
:10307000DF93C82FD62F842F622F402F2E2D0E9432
:1030800005186D2F8C2FDF91CF910F91EF900C943D
:10309000A61723E432E044E552E065E472E084E4FC
:1030A00092E00E947E1766E472E08BE592E00C9459
:1030B000B81723E432E044E552E065E472E084E4CA
:1030C00092E00E94B91625E532E046E452E067E559
:1030D00072E08BE592E00C940B1785B5886085BD96
:1030E0008FEF83BD89B7806889BF08951F920F92C3
:1030F0000FB60F9211248F9380913B02843119F403
:1031000081E08093410280913B028F5F80933B027C
:103110008F910F900FBE0F901F901895882319F074
:10312000D89AD09A0895D0980895D89899B3892FAD
:10313000817090FF15C0D09A84EF91E00E94C60183
:10314000D09886E490E00E94C60184EF91E0C8998F
:1031500004C00E94C60181E008950E94C60180E07B
:103160000895CF93DF93D82FD898C8E0D09AD0FF96
:1031700008C087E090E00E94C601D09886E490E005
:1031800007C086E490E00E94C601D09887E090E0F6
:103190000E94C601D695C15049F7DF91CF9108959D
:1031A0000E949518882339F08CEC0E94B11884E4B1
:1031B0000E94B1188FEF0895CF93DF93D098D8E095
:1031C000C0E0D09A87E090E00E94C601D09887E0E6
:1031D00090E00E94C601C695C899C06886E490E058
:1031E0000E94C601D15069F78C2FDF91CF910895CD
:1031F0000E949518882389F08CEC0E94B1188EEB00
:103200000E94B1180E94DC18809358020E94DC18BA
:103210008093590281E090E0089580E090E0089565
:103220000E94D0188823F1F088E592E00E94F818F7
:103230006091590270E0762F662780915802680FDE
:10324000711D882777FD8095982F0E94C11A20E074
:1032500030E040E85DE30E94751B10925802109226
:103260005902089560E070E0CB01089584E690E093
:103270000E9415050E9448168F9A0E9410190E94FC
:103280006D180E9459030E944C050E945D000E9427
:1032900015060E94ED1709E12DE24EE165E085EF8C
:1032A0000E942518789460E070E080E090E00E9431
:1032B000C91460E070E085E090E00E94C9140E94AB
:1032C000480581E080932D020E94691580912C02AF
:1032D0008130D1F70E94F006F7CF991B79E004C046
:1032E000991F961708F0961B881F7A95C9F7809545
:1032F0000895AA1BBB1B51E107C0AA1FBB1FA6173D
:10330000B70710F0A61BB70B881F991F5A95A9F78E
:1033100080959095BC01CD01089597FB072E16F47A
:10332000009407D077FD09D00E94791907FC05D0D9
:103330003EF4909581959F4F0895709561957F4FCC
:103340000895EE0FFF1F0590F491E02D09940E945F
:10335000AE19B7FF0895821B930B0895A29FB00189
:10336000B39FC001A39F700D811D1124911DB29FB9
:10337000700D811D1124911D08955058BB27AA2757
:103380000ED075C166D130F06BD120F031F49F3F83
:1033900011F41EF45BC10EF4E095E7FB51C1E92F77
:1033A00077D180F3BA17620773078407950718F07F
:1033B00071F49EF58FC10EF4E0950B2EBA2FA02D5F
:1033C0000B01B90190010C01CA01A0011124FF27D2
:1033D000591B99F0593F50F4503E68F11A16F040CD
:1033E000A22F232F342F4427585FF3CF46953795CC
:1033F0002795A795F0405395C9F77EF41F16BA0B91
:10340000620B730B840BBAF09150A1F0FF0FBB1F3E
:10341000661F771F881FC2F70EC0BA0F621F731F87
:10342000841F48F4879577956795B795F7959E3FE4
:1034300008F0B3CF9395880F08F09927EE0F979572
:1034400087950895D9D008F481E008950CD00FC174
:1034500007D140F0FED030F021F45F3F19F0F0C00A
:10346000511139C1F3C014D198F39923C9F35523ED
:10347000B1F3951B550BBB27AA2762177307840767
:1034800038F09F5F5F4F220F331F441FAA1FA9F31D
:1034900033D00E2E3AF0E0E830D091505040E6950F
:1034A000001CCAF729D0FE2F27D0660F771F881F70
:1034B000BB1F261737074807AB07B0E809F0BB0B5F
:1034C000802DBF01FF2793585F4F2AF09E3F510583
:1034D00068F0B6C000C15F3FECF3983EDCF3869520
:1034E00077956795B795F7959F5FC9F7880F911DF9
:1034F0009695879597F90895E1E0660F771F881FE5
:10350000BB1F621773078407BA0720F0621B730B97
:10351000840BBA0BEE1F88F7E095089504D06894E9
:10352000B111D9C00895BCD088F09F5790F0B92F41
:103530009927B751A0F0D1F0660F771F881F991F08
:103540001AF0BA95C9F712C0B13081F0C3D0B1E01A
:103550000895C0C0672F782F8827B85F39F0B93F2A
:10356000CCF3869577956795B395D9F73EF490950A
:103570008095709561957F4F8F4F9F4F0895E89488
:1035800009C097FB3EF490958095709561957F4FAB
:103590008F4F9F4F9923A9F0F92F96E9BB27939559
:1035A000F695879577956795B795F111F8CFFAF469
:1035B000BB0F11F460FF1BC06F5F7F4F8F4F9F4F9A
:1035C00016C0882311F096E911C0772321F09EE8F8
:1035D000872F762F05C0662371F096E8862F70E05E
:1035E00060E02AF09A95660F771F881FDAF7880F38
:1035F0009695879597F90895990F0008550FAA0B8E
:10360000E0E8FEEF16161706E807F907C0F01216F5
:103610001306E407F50798F0621B730B840B950BF8
:1036200039F40A2661F0232B242B252B21F408954D
:103630000A2609F4A140A6958FEF811D811D0895EA
:1036400097F99F6780E870E060E008959FEF80EC55
:10365000089500240A9416161706180609060895F8
:1036600000240A9412161306140605060895092E5E
:103670000394000C11F4882352F0BB0F40F4BF2BCD
:1036800011F460FF04C06F5F7F4F8F4F9F4F08950D
:1036900057FD9058440F551F59F05F3F71F0479503
:1036A000880F97FB991F61F09F3F79F087950895E8
:1036B000121613061406551FF2CF4695F1DF08C007
:1036C000161617061806991FF1CF86957105610524
:1036D00008940895E894BB2766277727CB0197F9CC
:1036E00008958ADF08F48FEF08950BD0C0CFB1DFC3
:1036F00028F0B6DF18F0952309F0A2CFA7CF112448
:10370000EACFC6DFA0F3959FD1F3950F50E0551F88
:10371000629FF001729FBB27F00DB11D639FAA2726
:10372000F00DB11DAA1F649F6627B00DA11D661F75
:10373000829F2227B00DA11D621F739FB00DA11D96
:10374000621F839FA00D611D221F749F3327A00D50
:10375000611D231F849F600D211D822F762F6A2FEC
:1037600011249F5750408AF0E1F088234AF0EE0F71
:10377000FF1FBB1F661F771F881F91505040A9F77E
:103780009E3F510570F05CCFA6CF5F3FECF3983EB3
:10379000DCF3869577956795B795F795E7959F5FE5
:1037A000C1F7FE2B880F911D9695879597F908957F
:1037B000CF93DF938230910510F482E090E0E091A6
:1037C0006002F091610220E030E0A0E0B0E03097CC
:1037D00039F14081518148175907B8F04817590706
:1037E00071F482819381109729F013969C938E93A4
:1037F00012972CC0909361028093600227C021151C
:10380000310531F04217530718F0A901DB0101C05F
:10381000EF019A01BD01DF010280F381E02DD7CFD6
:1038200021153105F9F0281B390B2430310580F4BE
:103830008A819B816115710521F0FB01938382834D
:1038400004C09093610280936002FE01329644C0EE
:10385000FE01E20FF31F81939193225031093983C6
:1038600028833AC020915E0230915F02232B41F4FD
:10387000209165003091660030935F0220935E02D4
:1038800020916300309164002115310541F42DB77A
:103890003EB74091670050916800241B350BE091C2
:1038A0005E02F0915F02E217F307A0F42E1B3F0BBC
:1038B0002817390778F0AC014E5F5F4F24173507A2
:1038C00048F04E0F5F1F50935F0240935E0281935A
:1038D000919302C0E0E0F0E0CF01DF91CF91089535
:1038E000CF93DF93009709F487C0FC0132971382CE
:1038F0001282C0916002D0916102209781F42081F0
:103900003181280F391F80915E0290915F028217EA
:10391000930779F5F0935F02E0935E026DC0DE01DC
:1039200020E030E0AE17BF0750F412964D915C9145
:1039300013979D014115510509F1DA01F3CFB383C6
:10394000A28340815181840F951F8A179B0771F4D0
:103950008D919C911197840F951F0296918380837E
:1039600012968D919C911397938382832115310533
:1039700029F4F0936102E09360023EC0D9011396EE
:10398000FC93EE9312974D915D91A40FB51FEA172A
:10399000FB0779F480819181840F951F0296D901EC
:1039A00011969C938E938281938113969C938E9310
:1039B0001297E0E0F0E08A819B81009719F0FE0108
:1039C000EC01F9CFCE01029628813981820F931F35
:1039D00020915E0230915F022817390769F4309711
:1039E00029F4109261021092600202C013821282C6
:1039F000D0935F02C0935E02DF91CF9108958F92C2
:103A00009F92AF92BF92CF92DF92EF92FF92CF93AD
:103A1000DF93EC01688179818A819B816115710551
:103A20008105910521F464E279ED8BE597E02DE1C4
:103A300033EF41E050E00E94921D49015A019B0181
:103A4000AC01A7EAB1E40E94B11D6B017C01ACEEB0
:103A5000B4EFA50194010E94BF1DC60ED71EE81E3B
:103A6000F91EF7FE06C081E0C81AD108E10880E817
:103A7000F80AC882D982EA82FB82C6019F77DF9169
:103A8000CF91FF90EF90DF90CF90BF90AF909F903D
:103A90008F9008950E94FF1C089589E690E00E948F
:103AA000FF1C0895A0E0B0E08093690090936A0045
:103AB000A0936B00B0936C000895BB274A3031F49B
:103AC000992322F4BDE2909581959F4F0C94691D36
:103AD000BB27FB015527AA27880F991FAA1FA417E8
:103AE00010F0A41B83955051B9F7A05DAA3308F0DC
:103AF000A95DA193009779F7B111B1931192CB0110
:103B00000C94821DDC01FC01672F71917723E1F792
:103B1000329704C07C916D9370836291AE17BF079A
:103B2000C8F30895052E97FB1EF400940E94A91D6A
:103B300057FD07D00E94C41D07FC03D04EF40C941F
:103B4000A91D50954095309521953F4F4F4F5F4FA0
:103B5000089590958095709561957F4F8F4F9F4FF9
:103B600008950E94AE19A59F900DB49F900DA49F3B
:103B7000800D911D11240895B7FF0C94B11D0E9472
:103B8000B11D821B930B0895A1E21A2EAA1BBB1B29
:103B9000FD010DC0AA1FBB1FEE1FFF1FA217B30719
:103BA000E407F50720F0A21BB30BE40BF50B661F2F
:103BB000771F881F991F1A9469F7609570958095F3
:103BC00090959B01AC01BD01CF010895F894FFCF02
:103BD0000102010000620220000100000041546D5A
:103BE00065676133322070726F6772616D61626305
:103BF0006465666768696A6B6C6D6E6F707172730D
:103C000074757677784461726975737A204D2E20C9
:103C100070726F6A2E797A313233343536373839EB
:103C200030393837363534333231214024060050AC
:103C3000726F6772616D3A2000506E2E0057742EBD
:103C40000053722E00437A2E0050742E00536F2EB4
:103C5000004E642E002D2D2D2D2D2D2D007C004786
:103C60004F445A494E59004D494E555459005345F9
:103C70004B554E4459005345544E452053454B55E2
:103C80004E4400445A49454E004D4945534941432D
:103C900000524F4B00445A49454E205459474F4417
:103CA0004E494100504F4E4945445A49414C454BBD
:103CB0000057544F52454B0053524F444100435A12
:103CC00057415254454B0050494154454B00534FC6
:103CD000424F5441004E4945445A49454C410041E8
:103CE0006C61726D2077796C61637A6F6E790041D7
:103CF0006C61726D20636F647A69656E6E790041E4
:103D00006C61726D207479676F646E696F7779008A
:103D1000416C61726D206D6965736965637A6E7956
:103D2000004E5220004F54574152434945005A41DA
:103D30004D4B4E4945434945005779626965727A52
:103D40003A0031202D200025005A41504953414E60
:103D50004F21005A41504953414E4F20414C41524E
:103D60004D2100576974616A21004C434420484446
:103D7000343437383000437A7974616D3A004E61DB
:103D800020706F637A6174656B00656B72616E752C
:043D90002E2E2E00A5
:040000050080006215
:00000001FF
