:100000000C9430000C944D000C944D000C944D0059
:100010000C9433190C944D000C946C050C944D0009
:100020000C944D000C944D000C9473000C944D00F6
:100030000C944D000C944D000C944D000C944D000C
:100040000C944D000C944D000C944D000C944D00FC
:100050000C944D00C0F9A4B0999282D88090FFBF53
:1000600011241FBECFE5D8E0DEBFCDBF12E0A0E671
:10007000B0E0EAE2FDE302C005900D92A438B107BA
:10008000D9F722E0A4E8B2E001C01D92A33CB20778
:10009000E1F70E94F3190C94931E0C9400008D9AC2
:1000A000959A8C9A949AA29AAA9AA39AAB9AA49A8D
:1000B000AC9AA59AAD9AA69AAE9AA79AAF9AB89A10
:1000C000C09AB99AC19ABA9AC29ABB9AC39A83B78C
:1000D000886083BF83B7856083BF8EE48CBF89B798
:1000E000826089BF08951F920F920FB60F9211245C
:1000F0008F93EF93FF93C09AC19AC29AC39A80914B
:100100006000813019F4E091920210C0823019F43D
:10011000E09193020BC0843019F4E091940206C080
:10012000883019F4E091910201C0E0E0F0E0EC5A6F
:10013000FF4FE491E0FF02C0959A01C09598E1FF5E
:1001400002C0949A01C09498E2FF02C0AA9A01C02A
:10015000AA98E3FF02C0AB9A01C0AB98E4FF02C0CB
:10016000AC9A01C0AC98E5FF02C0AD9A01C0AD9851
:10017000E6FF02C0AE9A01C0AE98E7FF02C0AF9A98
:1001800001C0AF9880916000813011F4C0980BC01D
:10019000823011F4C19807C0843011F4C29803C0B2
:1001A000883009F4C39880916000880F893008F086
:1001B00081E080936000FF91EF918F910F900FBECF
:1001C0000F901F9018958F929F92AF92BF92CF92EF
:1001D000DF92EF92FF920F931F93CF93DF938C01E7
:1001E00089519C4F873F9A4250F08BE08093920256
:1001F000809393028093940280939102A1C058014E
:1002000017FF04C0AA24BB24A01AB10A8AE090E018
:1002100021E030E04AE0A816B9064CF02F5F3F4FCE
:10022000BC01469FC001479F900D1124F4CF690186
:10023000E0E0F0E08AE0E82EF12C9AE0892E912CA3
:100240004AE0C501B7010E94401AEC01E130F10516
:1002500029F480919102C81BD10919C0E230F1053F
:1002600031F4509194028091910290E00CC0E330FF
:10027000F10569F46091930280919402509191028A
:1002800090E0860F911D850F911DC81BD90BC701EA
:10029000B4010E94401ACE010E94401A309719F40E
:1002A0006093910211C0E130F10519F4609394025A
:1002B0000BC0E230F10519F46093930205C0E330FE
:1002C000F10511F460939202C701489F7001499FA4
:1002D000F00C11243196E217F3070CF4B2CF8AE048
:1002E00025303105A4F42130310519F480939402AE
:1002F0000BC02230310519F48093930205C02330DE
:10030000310511F4809392022F5F3F4FE9CF17FF21
:1003100017C091E0C916D10421F48BE080939402B8
:100320000FC022E0C216D10421F48BE08093930227
:1003300007C063E0C616D10419F48BE080939202E3
:10034000DF91CF911F910F91FF90EF90DF90CF90B1
:10035000BF90AF909F908F900895009741F0EFE984
:10036000FFE03197F1F700C000000197F6CF089544
:10037000009731F025E02A95F1F700000197F8CFBA
:1003800008958F929F92AF92BF92CF92DF92EF9299
:10039000FF924B015C0120E030E04AE755E40E9407
:1003A000221C6B017C0120E030E040E85FE30E940A
:1003B000CF1A87FD24C020E03FEF4FE757E4C70185
:1003C000B6010E941E1C1816ACF420E030E040E29A
:1003D00051E4C501B4010E94221C0E94401B20E987
:1003E00031E06115710581F0C9010197F1F76150A4
:1003F0007109F7CFC701B6010E94401B02C061E03E
:1004000070E0CB010197F1F7FF90EF90DF90CF9074
:10041000BF90AF909F908F9008958F929F92AF92D0
:10042000BF92CF92DF92EF92FF924B015C012BEAD9
:100430003AEA4AEA50E40E94221C6B017C0120E067
:1004400030E040E85FE30E94CF1A87FD21C020E042
:1004500030E04FE753E4C701B6010E941E1C181696
:1004600094F420E030E04AE754E4C501B4010E946E
:10047000D31AFF90EF90DF90CF90BF90AF909F90F6
:100480008F900C94C101C701B6010E94401B01C0AE
:1004900061E06A95F1F7FF90EF90DF90CF90BF9009
:1004A000AF909F908F9008951F93CF93DF931F92EB
:1004B000CDB7DEB7182F0E9437058CEA0E9443059E
:1004C000812F0E9443050E9437058DEA0E94430553
:1004D00080E00E944A0589830E943D0589810F9032
:1004E000DF91CF911F9108951F93CF93DF931F92B8
:1004F000CDB7DEB7182F69830E9437058CEA0E94BA
:100500004305812F0E9443056981862F0E94430580
:100510000E943D0585E090E00F90DF91CF911F9103
:100520000C94AD011F93CF93DF931F92CDB7DEB72D
:10053000182F79830E9474027981672F81E0810FDF
:100540000F90DF91CF911F910C9474021F93CF9362
:10055000DF93182F0E945402C82FD0E081E0810F52
:100560000E9454029E01382BC901DF91CF911F9147
:100570000895CF93C0E060E08C2F0E947402CF5F9B
:10058000CF3FC9F7CF91089580FF02C0DC9A01C028
:10059000DC9881FF02C0DD9A01C0DD9882FF02C0B5
:1005A000DE9A01C0DE9883FF02C0DF9A0895DF98CB
:1005B000089589B382958170CD998260CE998460C7
:1005C000CF9988600895CF93DF93D498D598D69823
:1005D000D798DA9ADB9A0E94D90290E1899FE001CC
:1005E0001124DB98DB9A0E94D902DB98E7ECF0E05B
:1005F0003197F1F700C000008C2BDF91CF91089567
:10060000D9980C94E302CF93C82FD49AD59AD69A4E
:10061000D79ADA98DB9A82958F700E94C402DB9891
:10062000DB9A8C2F0E94C402DB980E94000387FD96
:10063000FCCFCF910895D9980C940303D99A0C94C8
:100640000303D99A0C94E302CF93DF93EC018991D1
:10065000882319F00E941E03FACFDF91CF910895ED
:1006600090E4699F800D112480680C941B0381E045
:100670000E941B038FE39FE10197F1F700C0000088
:10068000089582E00E941B038FE39FE10197F1F739
:1006900000C000000895CF93D49AD59AD69AD79ADD
:1006A000D39AD19AD29A8FE59AEE0197F1F700C0CA
:1006B0000000D998DB98DA98C3E0DB9A83E00E94C7
:1006C000C402DB988FE19EE40197F1F700C00000BF
:1006D000C15099F7DB9A82E00E94C402DB988FE94F
:1006E0009FE00197F1F700C0000088E20E941B0321
:1006F00088E00E941B0381E00E941B0386E00E94A9
:100700001B038CE0CF910C941B03CF93DF93CDB7E9
:10071000DEB761970FB6F894DEBF0FBECDBF4AE0DB
:10072000BE016F5F7F4F0E940A1E0E9424036196E4
:100730000FB6F894DEBF0FBECDBFDF91CF91089505
:100740006F927F928F929F92AF92BF92CF92DF92E1
:10075000EF92FF920F931F93CF93DF9300D0CDB70B
:10076000DEB76B017C0149835A830E94401B9B01C9
:1007700049815A8177FF04C022273327261B370B74
:10078000293E334008F09EC08A014530510510F0E3
:1007900004E010E0C701B6010E943B1B4B015C0165
:1007A000CB010E94850381E090E02AE0622E712C4B
:1007B0002AE08017910740F4F3012E9F30012F9F0C
:1007C000700C11240196F5CF012B09F47BC081E850
:1007D00092E00E942403840197FE04C000271127A1
:1007E00008191909B30180E090E00E946C1B9B017D
:1007F000AC01C701B6010E94221C0E943B1B9B0159
:1008000077FF04C022273327261B370BB90188271F
:1008100077FD8095982F0E946E1B6B017C019301E0
:10082000D8010E94541A0E946C1B9B01AC01C701A5
:10083000B6010E946A1A0E94401B6B017C01AB0149
:1008400081E090E02AE030E06AE04217530740F090
:100850000196F9016E9F90016F9F300D1124F5CF25
:1008600041E02AE030E05AE06216730640F04F5F44
:10087000B901569F9001579F300D1124F5CF01E02B
:1008800010E0A42EB12CA81AB90A0A151B0538F4D9
:1008900080E090E00E9485030F5F1F4FF6CFC601F6
:1008A0000F900F90DF91CF911F910F91FF90EF90DC
:1008B000DF90CF90BF90AF909F908F907F906F9080
:1008C0000C9485030F900F90DF91CF911F910F91A2
:1008D000FF90EF90DF90CF90BF90AF909F908F9060
:1008E0007F906F900895CF93DF93CDB7DEB7619778
:1008F0000FB6F894DEBF0FBECDBF40E1BE016F5F03
:100900007F4F0E940A1E0E94240361960FB6F8943E
:10091000DEBF0FBECDBFDF91CF910895CF92DF92A2
:10092000EF92FF920F931F93CF93DF938C016B0194
:100930007A01C0E0D0E0CC15DD0581F0E114F104CE
:1009400011F08CE101C084E10E941B030115110527
:1009500019F0C8010E94AD012196EDCFDF91CF9132
:100960001F910F91FF90EF90DF90CF900895CF925D
:10097000DF92EF92FF920F931F93CF93DF938C013F
:100980006B017A01C0E0D0E0CC15DD0581F0E11407
:10099000F10411F088E101C080E10E941B03011500
:1009A000110519F0C8010E94AD012196EDCFDF912C
:1009B000CF911F910F91FF90EF90DF90CF9008950E
:1009C0000F931F93CF93DF93EC018230910520F0BA
:1009D00082309105D9F40FC080E80E941B0308E221
:1009E00010E080E20E941E0301501109011511055B
:1009F000C1F7CD2B59F480EC0E941B03C8E2D0E074
:100A000080E20E941E0321972097D1F7DF91CF91BA
:100A10001F910F9108958330910589F030F4813052
:100A2000910549F0029749F008958430910549F005
:100A3000059749F008958CE007C088E005C08EE076
:100A400003C08DE001C08FE00C941B03BC0180E863
:100A50009EE30E942C1A862F603138F07727CB0155
:100A6000409797FD01969595879580B9089584EAFA
:100A700086BF06B607FEFDCF089584E986BF06B699
:100A800004FCFDCF089583B984E886BF06B607FE4F
:100A9000FDCF0895882311F084EC01C084E886BF5F
:100AA00006B607FEFDCF83B108958EB5887F8EBD53
:100AB00008958EB585608EBD08958E98969A8EB5F0
:100AC0008F7B8EBD1092980289B7806289BF109289
:100AD0009902BC98C49A08951F920F920FB60F9274
:100AE00011242F933F938F939F9386B597B52091B1
:100AF000880230918902821B930B26B537B530935B
:100B00008902209388022EB530E423272EBD8F3131
:100B1000910510F01092980220919802222319F06A
:100B200021E02093870220919802211111C0109298
:100B3000860210928502109284022EB520642EBD8A
:100B4000209198022F5F2093980222E02093870241
:100B500020918702213009F05FC09C012A503109A1
:100B60002531310510F01092870220918702213043
:100B700009F052C0429728F0809198028F5F8093CD
:100B8000980280919802823008F441C080919802C6
:100B900080FD3DC08091850290918602880F991F4B
:100BA00090938602809385020EB406FE05C0816094
:100BB0009093860280938502809184028F5F809358
:100BC00084028D3020F18091990281111BC08091A7
:100BD000850290918602282F2F73209397029C0103
:100BE000207C3770689415F8369527951694E1F7B0
:100BF0002093960288279870892F869586958695EA
:100C0000809395021092870281E0809399028091EF
:100C100098028F5F8093980280918702811105C0AE
:100C2000109298028EB58F7B8EBD9F918F913F91D0
:100C30002F910F900FBE0F901F90189586B382953D
:100C40008F7091E08927817090E008958A98929A38
:100C50008B98939A089580E2089586958695869557
:100C60000895CF93C82FCC0FCC0FCC0F8C2F0E94A0
:100C700054028093AA0281E08C0F0E945402809358
:100C8000AB0282E08C0F0E9454028093AC0283E09E
:100C90008C0F0E9454028093AD0284E08C0F0E945E
:100CA00054028093AE0285E08C0F0E94A6029093BE
:100CB000B0028093AF0287E08C0F0E9454028093B1
:100CC000B102CF910895EF92FF920F931F93CF93AC
:100CD000DF9380E991E00E94AD018FEF0E949916A9
:100CE000182F2FEF30E0281B31092730310514F081
:100CF000F12C03C0FF24F39410E0C0EAD2E001E03D
:100D000084E6E82E89918823C9F10E94710782E365
:100D100090E00E94AD010E9416196091B502812FEA
:100D20000E9474026091A60281E0810F0E94740209
:100D30006091A50282E0810F0E9474026091BC0262
:100D400083E0810F0E9474026091A70284E0810F0A
:100D50000E9474026091B6027091B70285E0810F23
:100D60000E949202FE0131978081602F8E9D600D5E
:100D7000112487E0810F0E947402185F0F5F033017
:100D800009F0C0CF612F8FEF0E94B916112319F01F
:100D900081E0F8120CC060E070E08AE794E4DF9133
:100DA000CF911F910F91FF90EF900C947A07DF91F4
:100DB000CF911F910F91FF90EF90089580B382FB28
:100DC000882780F991E08927089580B383FB8827DD
:100DD00080F991E089270895811102C00C94DE0604
:100DE000813011F40C94E5068FEF089580E00E94A5
:100DF000EC0680939E0281E00E94EC0680939F02A5
:100E00000895BF92CF92DF92EF92FF920F931F93BC
:100E1000CF93DF930EE912E0C0EAD2E0D12CE12CAF
:100E2000F12CCC24C39422E0B22E8D2D0E94EC062E
:100E3000F8019081891749F0882311F0B88201C028
:100E4000C882EE24E394F12C01C01882F80181934A
:100E50008F01D3942196F2E0DF12E7CFEF2859F00B
:100E6000DF91CF911F910F91FF90EF90DF90CF9086
:100E7000BF900C946306DF91CF911F910F91FF906B
:100E8000EF90DF90CF90BF9008952F923F921092F5
:100E90009B0210929A0280919A0290919B0220915B
:100EA000A8023091A90282179307C4F4D101ED91F1
:100EB000FC91E80FF91F80810E941E0360E070E042
:100EC00088E492E40E94C10180919A0290919B0271
:100ED000019690939B0280939A02DDCF3F902F90D2
:100EE0000895979A60E070E080E89FE30E94C10156
:100EF00097980895979A0E94C101979808950F9323
:100F00001F93CF93DF932AE030E0C1E04AE08217DD
:100F1000930740F0CF5FB901469F9001479F300D86
:100F20001124F5CF30939B0220939A029093B40240
:100F30008093B30280E090E00E94E00410929B0254
:100F400010929A028C2F90E0C7E2D0E0C81BD90B18
:100F50008C010D5F1F4F80919A0290919B028C171C
:100F60009D07FCF460E00E9430038091B3029091F1
:100F7000B4020E94850361E080919A020E943003CE
:100F80008091B3029091B4020E94850380919A02ED
:100F900090919B02800F911F90939B0280939A02E5
:100FA000DACF60E070E08AEF93E40E94C10181E053
:100FB00080938A02DF91CF911F910F910895209124
:100FC000B3023091B4024AE0429FC001439F900DAA
:100FD0001124893E23E0920710F088EE93E090936D
:100FE000B4028093B3028091B3029091B4020C9446
:100FF0007F078091B3029091B4026AE070E00E9492
:101000002C1A6115710529F07093B4026093B30234
:1010100006C081E090E09093B4028093B302809187
:10102000B3029091B4020C947F07CF93DF93EC014D
:1010300010928A020E9437038FEB90E00E942403F3
:10104000CE010E94850361E080E00E94300320977A
:1010500019F489EC90E022C0C130D10519F488ED73
:1010600090E01CC0C230D10519F488EE90E016C0A3
:10107000C330D10519F486EF90E010C0C430D1051B
:1010800019F48FEF90E00AC0C530D10519F48FE054
:1010900091E004C0269721F48EE191E00E942403A0
:1010A00010929B0210929A0280919A0290919B0258
:1010B000059794F460E070E080E291E40E94C10141
:1010C0000E94710780919A0290919B0201969093E1
:1010D0009B0280939A02E8CF60E070E08AEF93E48D
:1010E0000E94C10181E080938A02DF91CF9108952F
:1010F000811103C08CE291E01DC0813019F480E3BE
:1011000091E018C0823019F484E391E013C0833079
:1011100019F488E391E00EC0843019F48CE391E077
:1011200009C0853019F480E491E004C0863021F4D0
:1011300084E491E00C942403089560E080918F0290
:101140000E9430038091A5028A3024F480E090E070
:101150000E9485038091A502992787FD90950E94A2
:1011600085038BE692E00E9424038091A6028A30D8
:1011700024F480E090E00E9485038091A6029927E4
:1011800087FD90950E9485038BE692E00E942403E0
:101190008091B5028A3024F480E090E00E948503BB
:1011A0008091B502992787FD90950E9485038BE673
:1011B00092E00E9424038091A4028A3024F480E00B
:1011C00090E00E9485038091A402992787FD909565
:1011D0000C9485030E949D0861E080918F020E941B
:1011E00030038091BC028A3024F480E090E00E94B9
:1011F00085038091BC02992787FD90950E94850305
:101200008BE692E00E9424038091A7028A3024F4A6
:1012100080E090E00E9485038091A702992787FDD6
:1012200090950E9485038BE692E00E9424038091B2
:10123000B6029091B7020E94850361E08DE00E94A2
:1012400030038091B8020C947808CF93C82F811195
:101250000E949D0861E080918F020E943003C2309D
:1012600081F58091A702811103C088E491E026C036
:1012700010929D0220919D022730F4F48091A702E4
:10128000992787FD909502C0959587952A95E2F755
:1012900080FF0CC080E591E00E94240380919D02B4
:1012A000992787FD909501960E94850380919D0264
:1012B0008F5F80939D02DECF80E591E0CF910C940B
:1012C0002403C33019F58091BC028A3024F480E0F5
:1012D00090E00E9485038091BC02992787FD90953C
:1012E0000E9485038BE692E00E9424038091A7026E
:1012F0008A3024F480E090E00E9485038091A70268
:10130000992787FD9095CF910C948503CF910895EF
:10131000CF93DF93D82FC62F611103C087E091E0F0
:101320000EC0613019F482E591E009C0623019F411
:1013300089E591E004C0633021F481E691E00E94E8
:101340002403DD2311F0D330B1F4C43019F48EE658
:1013500091E035C0C53019F484E791E030C0D11177
:1013600032C0C63019F48CE791E029C0C73059F576
:1013700080E891E024C0D23031F5C43019F48FE810
:1013800091E01DC0C53019F48CE991E018C0C63059
:1013900019F483EA91E013C0C73019F489EA91E0A7
:1013A0000EC0C83019F482EB91E009C0C93019F4BD
:1013B00089EB91E004C0CA3031F480EC91E0DF9118
:1013C000CF910C942403DF91CF910895423041F4E2
:1013D0002091B3023091B40231952195310909C0B1
:1013E000413029F42091B3023091B40202C020E0D0
:1013F00030E0611106C09091A502920F9093A50272
:1014000017C0613031F49091A602920F9093A6021A
:101410000FC0623031F49091B502920F9093B502F3
:1014200007C0633029F49091A402920F9093A40214
:10143000882311F0833031F5643031F48091BC029F
:10144000820F8093BC020895653021F48091A70239
:10145000820F7EC081117EC0663059F48091B60241
:101460009091B702820F931F9093B7028093B602B8
:101470000895673009F06EC08091B802820F8093A2
:10148000B8020895823009F065C0643069F44130D3
:1014900021F48091A70281605BC0423009F05AC0FC
:1014A0008091A7028E7F54C0653069F4413021F4E9
:1014B0008091A70282604CC0423009F04BC08091FD
:1014C000A7028D7F45C0663061F4413021F48091E0
:1014D000A70284603DC04230E9F58091A7028B7F6E
:1014E00037C0673061F4413021F48091A7028860F1
:1014F0002FC0423079F58091A702877F29C06830DC
:1015000061F4413021F48091A702806121C0423012
:1015100009F58091A7028F7E1BC0693061F44130CC
:1015200021F48091A702806213C0423099F4809127
:10153000A7028F7D0DC06A3069F4413021F480919B
:10154000A702806405C0423029F48091A7028F7BF6
:101550008093A7020895CF93DF93D82FC62F6F3FB4
:1015600051F42091B3023091B4022230310580F061
:1015700081E090E00BC0643058F42091B3023091C8
:10158000B4022B30310520F08AE090E00E947F0702
:10159000DD2311F0D330F9F48CEF8C0F823058F446
:1015A0002091B3023091B4022B30310520F08AE053
:1015B00090E00E947F07D1110EC0C73061F4809186
:1015C000B3029091B402029730F081E090E0DF9195
:1015D000CF910C947F07DF91CF910895882361F01C
:1015E000813061F0823021F0833021F486E008956B
:1015F0008BE0089580E0089588E0089584E00895E0
:10160000811103C08AEC91E00EC0813019F48AED9B
:1016100091E009C0823019F48AEE91E004C0833071
:1016200021F48BEF91E00C94240308958091A5029E
:1016300087FF04C087E18093A50204C0883114F0BD
:101640001092A5028091A60287FF04C08BE38093CD
:10165000A60204C08C3314F01092A6028091B50249
:1016600087FF04C08BE38093B50204C08C3314F071
:101670001092B5028091A40287FF04C083E6809394
:10168000A4020895843614F01092A4020895909153
:10169000A702191624F0823049F09CE005C09D3065
:1016A0002CF0823019F091E09093A7029091A7025C
:1016B000492F4D7F2091B6023091B7024130C9F0D9
:1016C0009530B9F059EF590F523098F09A3089F0AF
:1016D0009C3079F0443079F0493069F0923069F407
:1016E000A90143705527452B41F0811106C08CE1BB
:1016F00005C08FE103C08EE101C08DE14091BC02C5
:10170000141644F4552747FD509590E0841795072B
:101710001CF481E08093BC02213F88ED38071CF463
:101720008FE097E205C02031374234F081EF98ED29
:101730009093B7028093B6028091B80287FF04C0ED
:1017400086E08093B8020895873014F01092B802B2
:101750000895CF93DF93992787FD90950E94850385
:1017600081E892E00E9424038091AC028A3020F448
:1017700080E090E00E9485038091AC0290E00E949E
:1017800085038BE692E00E9424038091AB028A30AD
:1017900020F480E090E00E9485038091AB0290E00D
:1017A0000E9485038BE692E00E9424038091AA02A6
:1017B0008A3020F480E090E00E9485038091AA02A4
:1017C00090E00E94850380E392E00E9424038091D0
:1017D000AD028A3020F480E090E00E948503809181
:1017E000AD0290E00E9485038BE692E00E94240304
:1017F0008091AE028A3020F480E090E00E94850360
:101800008091AE0290E00E9485038BE692E00E94F8
:1018100024038091AF029091B0020E94850380E37F
:1018200092E00E9424038091B102C4E66C2F0E94D2
:10183000201AD92F992321F18CE092E00E942403F1
:101840008D2F90E00E94850380E392E00E942403A4
:101850008091B1026C2F0E94201A90E090939B021D
:1018600080939A028130910519F480E192E004C0DE
:10187000029731F489E192E0DF91CF910C94240337
:10188000DF91CF910895CF93C82F80919002863039
:1018900041F48C2F0E94310681E08C0FCF910C9483
:1018A000A90B853021F48C2FCF910C94000BCF9194
:1018B00008950F931F93CF93DF93EC018B01CF3FDC
:1018C0008FEFD80739F060E080E00E943003CE014E
:1018D0000E94430CC017D10761F061E080E00E94D4
:1018E0003003CE010196DF91CF911F910F910C949F
:1018F000430CDF91CF911F910F910895FF920F93A9
:101900001F93CF93DF93F82E0091A8021091A902A4
:10191000C801880F991F0E94851CEC0140918C0220
:1019200050E090E080E3FE01E40FF51F61E3292F12
:10193000332727FD3095201731075CF4241735072E
:1019400011F4608304C0DE01A20FB31F8C939F5F6C
:10195000EECF4091A8025091A90260918B0290E0D5
:101960007AE0292F332727FD309524173507A4F572
:10197000FE01E20FF31F80818133A1F4911103C0B6
:101980006093920227C0913019F46093930222C0B1
:10199000923019F4609394021DC09330D9F460938F
:1019A000910218C0992311F0611102C07093920244
:1019B000913011F0611102C070939302923011F0D6
:1019C000611102C070939402933011F0611102C052
:1019D000709391029F5FC5CF9093B20281E0F81699
:1019E00041F0CE01DF91CF911F910F91FF900C94A8
:1019F0001D1D1092B2021BE04091B202842F992764
:101A000087FD90952091A8023091A9028217930733
:101A100044F7FE01E80FF91F8081803321F08091A7
:101A20008B0281111BC0411103C0109392020EC0A2
:101A3000413019F41093930209C0423019F4109305
:101A4000940204C0433011F4109391020E94710774
:101A500060E070E088EC92E40E94C1018091B202E3
:101A60008F5F8093B202C8CF80E090E00E94E004D4
:101A700060E080E00E94300384E292E00E94240350
:101A800061E080E00E9430038DE292E00E94240336
:101A900086E090E00C94850380E090E00E94E004F2
:101AA00060E080E00E9430038091970290E00E9405
:101AB000850360E086E00E9430038091960290E00A
:101AC0000E94850361E080E00E94300380919502CE
:101AD00090E00C94850380E090E00E94E00460E0D8
:101AE00080E00E94300380918B02992787FD9095BA
:101AF0000C94850310928F020E94161980E090E0EA
:101B00000E94E00460E08BE00E94300380918E022E
:101B1000811103C087E592E004C0813021F480E5A3
:101B200091E00E9424030E94EA080E94061985E1C0
:101B300080938F028091BB02882381F060E082E174
:101B40000E94300380E591E00E94240361E082E17D
:101B50000E94300380E591E00E94240361E08091BF
:101B60008F020E9430038091BB020E94250960E031
:101B70008CE00E9430030E94CD1941E050E00C94AB
:101B8000A0036091BB0280E00E94AB0A80E090E07D
:101B90000E94E0048091BB0287FD1092BB028091FD
:101BA000BB02883049F52091A4024091B5026091B2
:101BB000A6028091A5020E94A1172091B602309141
:101BC000B7024091A7026091B8028091BC020E94C6
:101BD0001B1810928A020E94370382E392E00E944F
:101BE000240384EF91E00E94AD0180E090E00E9428
:101BF000E00481E08093620080919D028130C1F415
:101C0000809162008130A1F060E080918F020E949B
:101C100030036091BB0280E00E94880980E991E076
:101C20000E94AD0110929D0280E090E00E94E004CD
:101C30004091B202442339F06091BB0280E00E94DF
:101C4000E6091092B2020E94160B80E00E94470B38
:101C500010928F020C94EA08EF920F93CF93809129
:101C6000BB028F3F1CF48FEF8093BB026091BB02DD
:101C70008091A3020E94AB0AC091BB0280E090E079
:101C8000CF3FD1F40E94E0048091A3028F3F24F45F
:101C900083E08093A30204C0843014F0C093A302B5
:101CA0008091A30263E070E0992787FD9095CF9122
:101CB0000F91EF900C94590C0E94E004C091A30284
:101CC0008C2F0E94EE0A4091BB02552747FD50958C
:101CD000282F30E04217530729F081E08C0F823023
:101CE00008F04DC081E080936200CF3F09F447C007
:101CF000C11103C00E94921832C0C13069F40E9421
:101D00009A182091A4024091B5026091A602809198
:101D1000A5020E94C21823C0C23079F40E94AA18FA
:101D20000091A4022091B5024091A6026091A50203
:101D30008091A7020E94E21812C0C33081F40E9471
:101D4000BA18E090A4020091B5022091A602409139
:101D5000A5026091A7028091BC020E94F218109225
:101D60008A020E94370383E492E00E94240384EFF6
:101D700091E00E94AD0180E090E00E94E00480913B
:101D80009D028130C9F4809162008130A9F060E049
:101D900080918F020E9430036091BB028091A30268
:101DA0000E94880910929D0280E991E00E94AD0195
:101DB00080E090E00E94E0044091B202442341F0B0
:101DC0006091BB028091A3020E94E6091092B202C8
:101DD0000E94160B8091A3020E94470B10928F0263
:101DE0008091A302CF910F91EF900C94250980E090
:101DF00090E00E94E0048091B3029091B4020B97AE
:101E000020F08AE090E00E947F078091BB028F3F24
:101E100024F40E942B0681500CC00E942B0690E0F7
:101E20002091BB02332727FD3095281739071CF076
:101E30008FEF8093BB020E942B06682F70E06150E9
:101E400071098091BB02992787FD90950C94590CDC
:101E500080919002811102C00C94340D813011F4F4
:101E60000C944C0D823011F40C946B0D833011F4F2
:101E70000C947A0D843011F40C94C10D853011F45A
:101E80000C942C0E863011F40C94F70E08952F92BA
:101E90003F92CF92DF92EF92FF920F931F93CF93D7
:101EA000DF93CDB7DEB7C055D1090FB6F894DEBFCA
:101EB0000FBECDBF8932910509F0F7C10E945505CB
:101EC00010928A020E94370388E290E09093A90260
:101ED0008093A80280E5EDE6F0E0DE011196019026
:101EE0000D928A95E1F784E090E00E94851C7C01C8
:101EF00010929B0210929A02E8E2DE2E00919A0262
:101F000010919B0202301105ACF580E590E00E9433
:101F1000851CF801EE0FFF1FEE0DFF1D91838083DE
:101F20001092BB0240E0D09E9001D19E300D112452
:101F3000542FE42FFF27E7FDF0954F5FE832F105BE
:101F400084F4DC01A50FB11D57FDBA95E20FF31F14
:101F500061E070E06C0F7D1FE60FF71F50815C930E
:101F6000E7CF5093BB020F5F1F4F10939B0200936C
:101F70009A02C4CF10929B0210929A0280919A0208
:101F800090919B028832910594F4D701ED91FC91D8
:101F9000E80FF91F80810E941E0380919A029091A0
:101FA0009B02019690939B0280939A02E7CF61E097
:101FB00080E00E94300310929B0210929A0280915E
:101FC0009A0290919B0288329105A4F4D70112964F
:101FD000ED91FC911397E80FF91F80810E941E0379
:101FE00080919A0290919B02019690939B0280931C
:101FF0009A02E5CF88E290E09093A9028093A8022C
:1020000081E08093BB028091BB02882309F41CC14C
:1020100084E090E00E94851C8C0110929B0210923B
:102020009A02C0909A02D0909B02E2E0CE16D104B0
:10203000BCF48091A8029091A902880F991F0E9478
:10204000851CF601EE0FFF1FE00FF11F91838083C7
:10205000BFEFCB1ADB0AD0929B02C0929A02E1CF6B
:102060000E94410310929B0210929A0280919A0260
:1020700090919B022091A8023091A90282179307A8
:102080009CF4D801CD90DC90C80ED91E0E9421038B
:10209000F601808380919A0290919B020196909321
:1020A0009B0280939A02E2CF61E080E00E943003BD
:1020B00010929B0210929A0280919A0290919B0238
:1020C0002091A8023091A90282179307ACF4D8019D
:1020D0001296CD90DC901397C80ED91E0E94210352
:1020E000F601808380919A0290919B0201969093D1
:1020F0009B0280939A02E0CF0E9437038091A8024E
:102100009091A9024091BB0220E030E028173907E6
:102110000CF5F801A081B181A20FB31FF701C080B7
:10212000D180C20ED31E6C91D6015C9165130EC096
:10213000F801A281B381A20FB31FF701C280D3803F
:10214000C20ED31E6C91D6015C91651340E02F5FE7
:102150003F4FDCCF4093BB0230939B0220939A0207
:102160000E941E06892B11F01092BB028091BB02C7
:10217000811105C010929B0210929A0248C01092E1
:102180009B0210929A0280919A0290919B02209158
:10219000A8023091A9028217930794F4D801ED9117
:1021A000FC91E80FF91F80810E941E0380919A0222
:1021B00090919B02019690939B0280939A02E3CFA9
:1021C00061E080E00E94300310929B0210929A021C
:1021D00080919A0290919B022091A8023091A902CD
:1021E000821793073CF6D8011296ED91FC91139754
:1021F000E80FF91F80810E941E0380919A0290913E
:102200009B02019690939B0280939A02E1CFC0902B
:102210009A02D0909B02E2E0CE16D1048CF4F60133
:10222000EE0FFF1FE00FF11F808191810E941D1DA5
:10223000BFEFCB1ADB0AD0929B02C0929A02E7CF83
:10224000C8010E941D1DDFCE10929B0210929A02BF
:1022500000919A0210919B020230110584F4F8015A
:10226000EE0FFF1FEE0DFF1D808191810E941D1D4D
:102270000F5F1F4F10939B0200939A02E9CFC70193
:102280000E941D1D0E94710760E070E080E291E4F1
:102290000E94C1010E94710760E070E080E291E459
:1022A0000E94C1010E94710757C10C9709F056C1E5
:1022B0000E94550510928A020E94370384E090E044
:1022C0000E940B0561E089E00E94300382E592E004
:1022D0000E94240360E070E08AEF93E40E94C10151
:1022E0000E94410389E592E00E94240360E070E0CF
:1022F0008AEF93E40E94C10141E050E061E070E0A8
:1023000080E090E00E948E0460E070E08FE294E450
:102310000E94C10182E090E00E940B0560E070E045
:102320008FE294E40E94C10181E090E00E940B05DD
:1023300060E070E08FE294E40E94C10182E090E0EE
:102340000E940B0560E070E08FE294E40E94C101FE
:1023500085E090E00E940B0560E070E08AE794E47D
:102360000E94C10184E090E00E940B0540E050E033
:1023700061E070E080E090E00E948E0460E070E038
:102380008AE794E40E94C10140E050E061E070E01F
:1023900080E090E00E94B70483E090E00E940B058B
:1023A00060E070E08AE794E40E94C10185E090E07B
:1023B0000E940B0561E080E00E94300385E692E018
:1023C0000E94240360E070E88BEB94E40E94C1015A
:1023D00061E089E00E94300386E090E09093A902DA
:1023E0008093A8020E94851C9A83898310929B0285
:1023F00010929A0280919A0290919B022091A802D9
:102400003091A90282179307C4F409811A81080F39
:10241000191F0E942103D8018C9360E070E088ECC2
:1024200092E40E94C10180919A0290919B020196D0
:1024300090939B0280939A02DDCF41E050E061E0EF
:1024400070E080E090E00E94B70460E070E88BEB01
:1024500094E40E94C10183E090E00E940B0580E0BB
:1024600090E00E94E00460E070E88BEB94E40E944E
:10247000C10161E080E00E943003FE0131961F013E
:102480000E94450784E090E00E940B0560E089E02F
:102490000E9430030E94450761E088E00E943003FB
:1024A00085E090E00E940B050E94450760E081E016
:1024B0000E9430030E94450789819A810E941D1D58
:1024C00083E090E00E940B0560E070E88BEB94E401
:1024D0000E94C10141E050E06FE070E084E190E0D3
:1024E0000E948E0441E050E06FE070E084E190E0F3
:1024F0000E94B70481E090E00E94E00484E090E054
:102500000E940B0560E070E08AE794E40E94C1013C
:1025100041E050E06FE070E084E190E00E94B70499
:1025200041E050E06FE070E084E190E00E948E04B2
:1025300083E090E00E940B0582E090E00E94E004BE
:1025400060E070E08AEF93E40E94C1010E943703CB
:1025500081E090E00E940B050E94590581E0809384
:102560008A02C05BDF4F0FB6F894DEBF0FBECDBF4F
:10257000DF91CF911F910F91FF90EF90DF90CF905F
:102580003F902F900895CF93DF93EC010E940B05AD
:10259000C436D10519F081E080938A02DF91CF9192
:1025A00008959F92AF92BF92CF92DF92EF92FF92E7
:1025B0000F931F93CF93DF93EC018B018932910529
:1025C00021F08436910509F0D6C081E090E0909327
:1025D0009B0280939A028093BB02DD24D3948EEEFB
:1025E000E82E82E0F82E6DEC7CEC8CEC9EE30E94F1
:1025F0007A0760919A0270919B026F5F7F4F709390
:102600009B0260939A02D0928A02C7010E94401AEC
:10261000665F7F4F882777FD8095982F0E946E1BFD
:102620000E94C1010E941E06892B39F080919A02F6
:1026300090919B028A3F9105B1F660E070E088E4DA
:1026400093E40E94C1010E94161910929D0290917C
:102650009D028091A402981744F40E94FA1D809173
:102660009D028F5F80939D02F2CFF6E0EF2EF12C5A
:1026700099249394A4ECCA2EA9E0DA2EB7E0AB2EED
:10268000B12C80919A0290919B02019709F44CC061
:102690000E94FA1DB7010E94401A8F5F8093BB020F
:1026A00090929D0220919D028091BB0260919A02BE
:1026B00070919B0282178CF1C6010E94401ACB01D7
:1026C0000196B501621B710927FD73950E94401A9E
:1026D000882777FD8095982F0E946E1B0E94C1016C
:1026E0000E94FA1D6091A8027091A9020E94401AEE
:1026F00080938C0280919D0280938B0280E00E94E7
:102700007E0C6DEC7CEC8CE49FE30E947A07809158
:102710009D028F5F80939D02C5CF615071097093B8
:102720009B0260939A02ADCF82E090E090939B026F
:1027300080939A0280919D02873094F467E070E064
:10274000681B710987FD739583EE94E00E94401A1F
:10275000882777FD8095982F0E946E1B0E94C101EB
:102760008FEF8093BB0281E00E947E0C1092BB022F
:1027700081E080938A02CB33D10569F410928B02F9
:1027800010928C021092BB0281E00E947E0C81E0CC
:1027900080938A021EC0C733D10529F488EE93E0E6
:1027A0000E947F0716C0C633D10529F484E690E065
:1027B0000E947F0714C0C233D10519F48AE090E06B
:1027C00005C0C433D10529F481E090E00E947F0761
:1027D0001EC0C032D10519F483B7856005C0C1326F
:1027E000D10521F483B78A7F83BF11C02E9779F476
:1027F0000130110561F483B7856083BF8AE080935F
:10280000920280939302809394028093910281E0DC
:1028100080938A02DF91CF911F910F91FF90EF90EB
:10282000DF90CF90BF90AF909F9008958B3391052C
:1028300019F40E9429170FC08436910561F4809124
:102840008E02813019F410928E0205C0811103C0EE
:1028500081E080938E0281E080938A020895803126
:10286000910521F48091BB028F5F06C081319105F3
:1028700049F48091BB0281508093BB0281E0809338
:102880009D0211C08032910511F481E004C08132B3
:10289000910521F482E08093B20205C0CB9719F430
:1028A00088E08093BB0281E080938A0208958031A2
:1028B000910521F48091BB028F5F06C081319105A3
:1028C00049F48091BB0281508093BB0281E08093E8
:1028D0009D022AC08032910561F48091BB028F3F36
:1028E00031F48091A3029091B302891B0EC081E064
:1028F00010C08132910581F48091BB028F3F41F479
:102900008091A3029091B302890F8093A3020CC01F
:1029100082E08093B20208C0CB9731F48091A30289
:102920000E94EE0A8093BB0281E080938A020895A0
:102930008C30910561F46130710521F50E94B90276
:1029400060E08FEF0E94B9161092BB021BC080326C
:10295000910531F48091BB029091B302891B10C0A4
:102960008132910531F48091BB029091B302890FBD
:1029700007C0CB9739F48FEF0E9499160E942D065D
:102980008093BB0281E080938A0208950F931F9386
:10299000CF93DF93EC018B010E947107809190022D
:1029A000811105C0B801CE010E94470F29C08130B6
:1029B00029F4B801CE010E94C31222C0823029F44A
:1029C000B801CE010E94D1121BC0833029F4B80196
:1029D000CE010E94161414C0843029F4B801CE012F
:1029E0000E942F140DC0853029F4B801CE010E9439
:1029F000571406C0863021F4B801CE010E94981405
:102A0000C632D10551F510928A020E9437038DE635
:102A100092E00E94240361E080E00E94300389E795
:102A200092E00E94240360E070E08AE793E40E9451
:102A3000C10141E050E06FE070E084E190E00E946D
:102A40008E0441E050E06FE070E084E190E00E948D
:102A5000B70481E080938A0236C0CE32D10549F4B2
:102A600041E050E061E070E080E090E00E948E0480
:102A70002AC0C232D10549F441E050E061E070E083
:102A800080E090E00E94B70427C0C432D10561F411
:102A900041E050E06FE070E084E190E0DF91CF91A1
:102AA0001F910F910C948E04C332D10561F441E063
:102AB00050E06FE070E084E190E0DF91CF911F91F2
:102AC0000F910C94B704CC32D10531F4DF91CF9142
:102AD0001F910F910C94DF07CD32D10531F4DF91B6
:102AE000CF911F910F910C94F9072E9731F401307B
:102AF000110519F481E080936200DF91CF911F915D
:102B00000F910895FF920F931F93CF93DF93EC01E2
:102B10008B0180918E02813011F40E9455058091C5
:102B2000900281115DC0C730D10508F059C0C09333
:102B30009002CE010E94150880919002813009F424
:102B40004DC0823099F484E090E09093A902809384
:102B5000A8021092BB0210929B0210929A0283B7B5
:102B6000856083BF81E00E947E0C37C0833059F4BA
:102B70000E94F606FF24F394F0928D020E946E18D4
:102B80008093BB021EC0843059F41092BB02FF2414
:102B9000F394F0929D021092B2020E94161911C095
:102BA000853091F40E9406198FEF8093BB02FF24B9
:102BB000F394F0929D021092B2020E946E188093DC
:102BC000A302F0928A020CC0863051F48FEF0E946B
:102BD00099160E942D068093BB0281E080938A02A1
:102BE00080916200811104C0B801CE010E94C61418
:102BF00080918E02813039F4DF91CF911F910F9136
:102C0000FF900C945905DF91CF911F910F91FF9088
:102C100008958091A202813051F480919002833016
:102C200031F41092A20210929C020E94280F80910F
:102C300062008130A9F4109262001092900281E04B
:102C400090E09093B4028093B30210928D0283B708
:102C50008A7F83BF60E070E080E090E00E94821590
:102C600080918A02813021F410928A020E94280FFA
:102C70000E941E06892BB1F060E070E080EF91E4C5
:102C80000E94C1010E941E06892B31F060E070E0B5
:102C900084E690E00E94821560E070E088EC92E4A7
:102CA0000E94C10180919902882379F18091960256
:102CB00081112BC010929B0210929A022091610008
:102CC00080919502223079F0332727FD309590E0EE
:102CD0002817390731F481E090E090939B028093AC
:102CE0009A02809195028093610080919702609191
:102CF0009A0270919B0290E00E94821510929902B4
:102D00008FEF80939702809396020895982F929563
:102D10009F708F702AE0929F800D112408956AE0C1
:102D20000E94201A292F30E1839FC0011124822B99
:102D300008951F93CF93DF931F92CDB7DEB7182F5F
:102D40000E94370582EA0E944305812F0E944305B5
:102D50000E94370583EA0E94430580E00E944A05ED
:102D600089830E943D0589810F90DF91CF911F914A
:102D700008951F93CF93DF931F92CDB7DEB7182F1F
:102D800069830E94370582EA0E944305812F0E94D1
:102D900043056981862F0E9443050F90DF91CF91F3
:102DA0001F910C943D050E9499160C948616CF93A2
:102DB000C82F862F0E948F16682F8C2FCF910C94CE
:102DC000B91680E00E949916682F606880E00C9424
:102DD000B91680E00E949916682F6F7780E00C94F6
:102DE000B91680E00E949916682F6F7B80E00C94E2
:102DF000B91680E00E949916682F606480E00C94F8
:102E0000B91680E00E949916682F677F80E00C94C5
:102E1000B91660E080E00E94B91680E00E94991621
:102E2000682F646080E00E94B9160E94F1160E942B
:102E3000011784E00E949916682F6F7384E00C9448
:102E4000B91680E00E949916682F686080E00C94A3
:102E5000B91680E00E949916682F6D7F80E00C946F
:102E6000B9161F93CF93DF931F92CDB7DEB7182FFC
:102E700079830E94B9167981672F81E0810F0F90C5
:102E8000DF91CF911F910C94B9161F93CF93DF93CD
:102E90001F92CDB7DEB7182F862F49830E948F1659
:102EA0004981642F6295660F660F607C682B812FC5
:102EB0000F90DF91CF911F910C94B9161F93CF9370
:102EC000DF931F92CDB7DEB7182F862F49830E945C
:102ED0008F16498190E2499FB0011124682B812F00
:102EE0000F90DF91CF911F910C94B916CF92DF9282
:102EF000EF92FF920F931F93CF93DF93EC017B012F
:102F00006A0189010E94F91681E00E94D316F80136
:102F1000808382E00E94D316F601808383E00E94C2
:102F2000D316F701808384E00E94D3168883DF9153
:102F3000CF911F910F91FF90EF90DF90CF900C9465
:102F4000F1160F931F93CF93DF9300D0CDB7DEB769
:102F5000182F062F29834A830E94E1162981622FA8
:102F600081E00E94D7164A81642F82E00E94D71622
:102F7000602F83E00E94D716612F84E00E94D7164D
:102F80000F900F90DF91CF911F910F910C94E91644
:102F9000CF92DF92EF92FF920F931F93CF93DF9325
:102FA000EC017B016A0189010E9421170E94F91638
:102FB00085E00E9499160E948616888386E00E940A
:102FC00099160E948616F60180830E94011786E0FA
:102FD0000E949916829586958770F701808385E017
:102FE0000E949916F82E80E10E949916C82F81E15F
:102FF0000E949916D0E0D82B9E0123703327F294BB
:10300000F694F69483E0F8228F2D90E02817390784
:1030100029F02196BE0180E10E943117F801D18389
:10302000C083DF91CF911F910F91FF90EF90DF90C0
:10303000CF900C94F116FF920F931F93CF93DF93D1
:10304000F82E062F142FE901B90180E10E943117F3
:103050000E94E116AE016F2D85E00E944517402FBA
:10306000612F86E00E945E17DF91CF911F910F9133
:10307000FF900C94E916CF92DF92EF92FF920F939C
:103080001F93CF93DF93EC017B016A01890189E0F3
:103090000E94D316F80180838AE00E94D316F601BD
:1030A00080838BE00E94D316F70180838CE00E941E
:1030B000D3168883DF91CF911F910F91FF90EF90EE
:1030C000DF90CF900895CF93C62F682F8DE00E9498
:1030D000D7166C2F8EE0CF910C94D71688E00E9403
:1030E0009916807382958F7008950F931F93CF93D5
:1030F000DF938C01EB018DE00E94D316F8018083F1
:103100000E946E18823029F48EE00E9499168F7703
:1031100003C08EE00E94D3168883DF91CF911F9168
:103120000F91089588E00E949916682F6F7C88E0BF
:103130000C94B91688E00E949916682F606188E0A7
:103140000E94B91688E00E949916682F6F7D88E06A
:103150000C94B91688E00E949916682F6F7E88E05B
:103160000E94B91688E00E949916682F606288E074
:103170000C94B91688E00E949916682F606388E065
:103180000C94B9160F931F93CF93DF931F92CDB773
:10319000DEB7182F062F622F89E049830E94D716C9
:1031A0004981642F8AE00E94D716602F8BE00E942D
:1031B000D716612F8CE00F90DF91CF911F910F9167
:1031C0000C94D7160F93CF93C82F862F642F422FBE
:1031D000202F0E94C2186C2F6F778EE0CF910F9135
:1031E0000C94B916EF920F93CF93DF93C82FD62F7D
:1031F000842F622F402F2E2D0E94C2186D2F8C2FEE
:10320000DF91CF910F91EF900C94631824EA32E094
:1032100045EB52E066EA72E085EA92E00E943B18D4
:1032200067EA72E08CEB92E00C94751824EA32E0C5
:1032300045EB52E066EA72E085EA92E00E9476177A
:1032400026EB32E047EA52E068EB72E08CEB92E06A
:103250000C94C81785B5886085BD8FEF83BD89B78D
:10326000806889BF08951F920F920FB60F921124A4
:103270008F9380919C02843119F481E08093A202A3
:1032800080919C028F5F80939C028F910F900FBE64
:103290000F901F901895882319F0D89AD09A089506
:1032A000D0980895D89899B3892F817090FF15C050
:1032B000D09A84EF91E00E94B801D09886E490E023
:1032C0000E94B80184EF91E0C89904C00E94B8013F
:1032D00081E008950E94B80180E00895CF93DF93C4
:1032E000D82FD898C8E0D09AD0FF08C087E090E0E7
:1032F0000E94B801D09886E490E007C086E490E090
:103300000E94B801D09887E090E00E94B801D6955D
:10331000C15049F7DF91CF9108950E945219882337
:1033200039F08CEC0E946E1984E40E946E198FEFC4
:103330000895CF93DF93D098D8E0C0E0D09A87E08B
:1033400090E00E94B801D09887E090E00E94B80118
:10335000C695C899C06886E490E00E94B801D15033
:1033600069F78C2FDF91CF9108950E94521988231D
:1033700089F08CEC0E946E198EEB0E946E190E94EF
:1033800099198093B9020E9499198093BA0281E039
:1033900090E0089580E090E008950E948D198823C0
:1033A000F1F089EB92E00E94B5196091BA0270E0E9
:1033B000762F66278091B902680F711D882777FDE7
:1033C0008095982F0E946E1B20E030E040E85DE37E
:1033D0000E94221C1092B9021092BA02089560E075
:1033E00070E0CB0108950E944B0384E690E00E94B8
:1033F00026050E9409178F9A0E94CD190E942A194A
:103400000E945D050E944F000E94260685B58760D8
:1034100085BD0E94091660E070E083E090E00E94A4
:1034200082150E94590581E080938E0278940E9453
:10343000091680918D028130D1F70E940107F7CFE4
:10344000991B79E004C0991F961708F0961B881FF6
:103450007A95C9F780950895AA1BBB1B51E107C057
:10346000AA1FBB1FA617B70710F0A61BB70B881F14
:10347000991F5A95A9F780959095BC01CD010895A3
:1034800097FB072E16F4009407D077FD09D00E9411
:103490002C1A07FC05D03EF4909581959F4F089516
:1034A000709561957F4F08950E945B1AB7FF08954C
:1034B000821B930B0895A29FB001B39FC001A39FED
:1034C000700D811D1124911DB29F700D811D11245D
:1034D000911D08955058BB27AA270ED075C166D1FB
:1034E00030F06BD120F031F49F3F11F41EF45BC13A
:1034F0000EF4E095E7FB51C1E92F77D180F3BA17BD
:10350000620773078407950718F071F49EF58FC161
:103510000EF4E0950B2EBA2FA02D0B01B9019001EE
:103520000C01CA01A0011124FF27591B99F0593F32
:1035300050F4503E68F11A16F040A22F232F342F7A
:103540004427585FF3CF469537952795A795F040C8
:103550005395C9F77EF41F16BA0B620B730B840BDD
:10356000BAF09150A1F0FF0FBB1F661F771F881F95
:10357000C2F70EC0BA0F621F731F841F48F48795ED
:1035800077956795B795F7959E3F08F0B3CF9395DC
:10359000880F08F09927EE0F979587950895D9D051
:1035A00008F481E008950CD00FC107D140F0FED09F
:1035B00030F021F45F3F19F0F0C0511139C1F3C070
:1035C00014D198F39923C9F35523B1F3951B550BE7
:1035D000BB27AA2762177307840738F09F5F5F4FE6
:1035E000220F331F441FAA1FA9F333D00E2E3AF027
:1035F000E0E830D091505040E695001CCAF729D041
:10360000FE2F27D0660F771F881FBB1F261737078F
:103610004807AB07B0E809F0BB0B802DBF01FF27BF
:1036200093585F4F2AF09E3F510568F0B6C000C125
:103630005F3FECF3983EDCF3869577956795B795F9
:10364000F7959F5FC9F7880F911D9695879597F914
:103650000895E1E0660F771F881FBB1F621773078D
:103660008407BA0720F0621B730B840BBA0BEE1FA2
:1036700088F7E095089504D06894B111D9C00895F1
:10368000BCD088F09F5790F0B92F9927B751A0F080
:10369000D1F0660F771F881F991F1AF0BA95C9F7E6
:1036A00012C0B13081F0C3D0B1E00895C0C0672F1F
:1036B000782F8827B85F39F0B93FCCF38695779596
:1036C0006795B395D9F73EF490958095709561957F
:1036D0007F4F8F4F9F4F0895E89409C097FB3EF4AA
:1036E00090958095709561957F4F8F4F9F4F99234F
:1036F000A9F0F92F96E9BB279395F69587957795CD
:103700006795B795F111F8CFFAF4BB0F11F460FF8C
:103710001BC06F5F7F4F8F4F9F4F16C0882311F0E4
:1037200096E911C0772321F09EE8872F762F05C0F8
:10373000662371F096E8862F70E060E02AF09A9593
:10374000660F771F881FDAF7880F9695879597F988
:103750000895990F0008550FAA0BE0E8FEEF161622
:103760001706E807F907C0F012161306E407F50775
:1037700098F0621B730B840B950B39F40A2661F0E9
:10378000232B242B252B21F408950A2609F4A1408C
:10379000A6958FEF811D811D089597F99F6780E899
:1037A00070E060E008959FEF80EC089500240A9493
:1037B0001616170618060906089500240A9412160C
:1037C0001306140605060895092E0394000C11F43F
:1037D000882352F0BB0F40F4BF2B11F460FF04C0EC
:1037E0006F5F7F4F8F4F9F4F089557FD9058440F45
:1037F000551F59F05F3F71F04795880F97FB991F50
:1038000061F09F3F79F0879508951216130614060C
:10381000551FF2CF4695F1DF08C016161706180699
:10382000991FF1CF86957105610508940895E89474
:10383000BB2766277727CB0197F908958ADF08F41D
:103840008FEF08950BD0C0CFB1DF28F0B6DF18F0AE
:10385000952309F0A2CFA7CF1124EACFC6DFA0F3AA
:10386000959FD1F3950F50E0551F629FF001729F15
:10387000BB27F00DB11D639FAA27F00DB11DAA1F34
:10388000649F6627B00DA11D661F829F2227B00D81
:10389000A11D621F739FB00DA11D621F839FA00D0C
:1038A000611D221F749F3327A00D611D231F849F5C
:1038B000600D211D822F762F6A2F11249F575040B3
:1038C0008AF0E1F088234AF0EE0FFF1FBB1F661F4E
:1038D000771F881F91505040A9F79E3F510570F007
:1038E0005CCFA6CF5F3FECF3983EDCF386957795EF
:1038F0006795B795F795E7959F5FC1F7FE2B880F02
:10390000911D9695879597F90895CF93DF9382300F
:10391000910510F482E090E0E091C102F091C202C2
:1039200020E030E0A0E0B0E0309739F140815181F3
:1039300048175907B8F04817590771F482819381E5
:10394000109729F013969C938E9312972CC0909306
:10395000C2028093C10227C02115310531F0421700
:10396000530718F0A901DB0101C0EF019A01BD0165
:10397000DF010280F381E02DD7CF21153105F9F069
:10398000281B390B2430310580F48A819B81611515
:10399000710521F0FB019383828304C09093C202DE
:1039A0008093C102FE01329644C0FE01E20FF31F74
:1039B0008193919322503109398328833AC0209111
:1039C000BF023091C002232B41F420916500309159
:1039D00066003093C0022093BF02209163003091B3
:1039E00064002115310541F42DB73EB740916700C1
:1039F00050916800241B350BE091BF02F091C0028A
:103A0000E217F307A0F42E1B3F0B2817390778F0B5
:103A1000AC014E5F5F4F2417350748F04E0F5F1F14
:103A20005093C0024093BF028193919302C0E0E0A3
:103A3000F0E0CF01DF91CF910895CF93DF9300970E
:103A400009F487C0FC01329713821282C091C1022F
:103A5000D091C202209781F420813181280F391F33
:103A60008091BF029091C0028217930779F5F0937D
:103A7000C002E093BF026DC0DE0120E030E0AE176F
:103A8000BF0750F412964D915C9113979D0141151B
:103A9000510509F1DA01F3CFB383A283408151814B
:103AA000840F951F8A179B0771F48D919C91119734
:103AB000840F951F02969183808312968D919C911D
:103AC0001397938382832115310529F4F093C20261
:103AD000E093C1023EC0D9011396FC93EE93129776
:103AE0004D915D91A40FB51FEA17FB0779F4808112
:103AF0009181840F951F0296D90111969C938E9304
:103B00008281938113969C938E931297E0E0F0E06C
:103B10008A819B81009719F0FE01EC01F9CFCE015B
:103B2000029628813981820F931F2091BF02309124
:103B3000C0022817390769F4309729F41092C2029D
:103B40001092C10202C013821282D093C002C093AD
:103B5000BF02DF91CF9108958F929F92AF92BF9253
:103B6000CF92DF92EF92FF92CF93DF93EC016881C7
:103B700079818A819B81611571058105910521F407
:103B800064E279ED8BE597E02DE133EF41E050E021
:103B90000E943F1E49015A019B01AC01A7EAB1E412
:103BA0000E945E1E6B017C01ACEEB4EFA501940196
:103BB0000E946C1EC60ED71EE81EF91EF7FE06C038
:103BC00081E0C81AD108E10880E8F80AC882D982E1
:103BD000EA82FB82C6019F77DF91CF91FF90EF9041
:103BE000DF90CF90BF90AF909F908F9008950E94EC
:103BF000AC1D089589E690E00E94AC1D0895A0E0F8
:103C0000B0E08093690090936A00A0936B00B0933A
:103C10006C000895BB274A3031F4992322F4BDE2A9
:103C2000909581959F4F0C94161EBB27FB0155273D
:103C3000AA27880F991FAA1FA41710F0A41B839509
:103C40005051B9F7A05DAA3308F0A95DA193009780
:103C500079F7B111B1931192CB010C942F1EDC01B5
:103C6000FC01672F71917723E1F7329704C07C91B3
:103C70006D9370836291AE17BF07C8F30895052E48
:103C800097FB1EF400940E94561E57FD07D00E9419
:103C9000711E07FC03D04EF40C94561E50954095AF
:103CA000309521953F4F4F4F5F4F089590958095E8
:103CB000709561957F4F8F4F9F4F08950E945B1ABB
:103CC000A59F900DB49F900DA49F800D911D112470
:103CD0000895B7FF0C945E1E0E945E1E821B930B1C
:103CE0000895A1E21A2EAA1BBB1BFD010DC0AA1F3D
:103CF000BB1FEE1FFF1FA217B307E407F50720F055
:103D0000A21BB30BE40BF50B661F771F881F991FCF
:103D10001A9469F760957095809590959B01AC0118
:0A3D2000BD01CF010895F894FFCF14
:103D2A000102010000C30220000100000041546D9D
:103D3A0065676133322070726F6772616D616263A9
:103D4A006465666768696A6B6C6D6E6F70717273B1
:103D5A0074757677784461726975737A204D2E206E
:103D6A0070726F6A2E797A31323334353637383990
:103D7A003039383736353433323121402406005051
:103D8A00726F6772616D3A200050524F4752414D2F
:103D9A0020474C4F574E590050524F4752414D20E1
:103DAA00544553544F5759004B4F53544B41204499
:103DBA004F2047525900435A5557414E4945004EE4
:103DCA0041535441574120474F445A494E59004E96
:103DDA0041535441574120414C41524D55004441B1
:103DEA004E45202D20454550524F4D00506E2E0015
:103DFA0057742E0053722E00437A2E0050742E00F0
:103E0A00536F2E004E642E002D2D2D2D2D2D2D009D
:103E1A007C004D494E5554590053454B554E445913
:103E2A00005345544E452053454B554E4400445A81
:103E3A0049454E004D49455349414300524F4B00B5
:103E4A00445A49454E205459474F444E494100501F
:103E5A004F4E4945445A49414C454B0057544F52DD
:103E6A00454B0053524F444100435A57415254451F
:103E7A004B0050494154454B00534F424F54410067
:103E8A004E4945445A49454C4100416C61726D2086
:103E9A0077796C61637A6F6E7900416C61726D201B
:103EAA00636F647A69656E6E7900416C61726D2028
:103EBA007479676F646E696F777900416C61726DAE
:103ECA00206D6965736965637A6E79004E522000C8
:103EDA004F54574152434945005A414D4B4E49456B
:103EEA00434945005779626965727A3A0031202D53
:103EFA0020005A41504953414E4F20474F445A4996
:103F0A004E45005A41504953414E4F20414C41526F
:103F1A004D00576974616A21004C43442048443477
:103F2A003437383000437A7974616D3A004E612033
:103F3A00706F637A6174656B00656B72616E752E62
:043F4A002E2E000017
:040000050080006215
:00000001FF
