:100000000C9430000C944D000C944D000C944D0059
:100010000C94290E0C944D000C94F6030C944D0096
:100020000C944D000C944D000C9473000C944D00F6
:100030000C944D000C944D000C944D000C944D000C
:100040000C944D000C944D000C944D000C944D00FC
:100050000C944D00C0F9A4B0999282D88090FFBF53
:1000600011241FBECFE5D8E0DEBFCDBF11E0A0E672
:10007000B0E0E2E3F6E202C005900D92A830B107CD
:10008000D9F721E0A8E0B1E001C01D92A032B2078B
:10009000E1F70E94560E0C9417130C9400008D9AF1
:1000A000959A8C9A949AA29AAA9AA39AAB9AA49A8D
:1000B000AC9AA59AAD9AA69AAE9AA79AAF9AB89A10
:1000C000C09AB99AC19ABA9AC29ABB9AC39A83B78C
:1000D000886083BF83B7856083BF8EE48CBF89B798
:1000E000826089BF08951F920F920FB60F9211245C
:1000F0008F93EF93FF93C09AC19AC29AC39A80914B
:100100006000813019F4E091120110C0823019F4BE
:10011000E09113010BC0843019F4E091140106C082
:10012000883019F4E091110101C0E0E0F0E0EC5AF0
:10013000FF4FE491E0FF02C0959A01C09598E1FF5E
:1001400002C0949A01C09498E2FF02C0AA9A01C02A
:10015000AA98E3FF02C0AB9A01C0AB98E4FF02C0CB
:10016000AC9A01C0AC98E5FF02C0AD9A01C0AD9851
:10017000E6FF02C0AE9A01C0AE98E7FF02C0AF9A98
:1001800001C0AF9880916000813011F4C0980BC01D
:10019000823011F4C19807C0843011F4C29803C0B2
:1001A000883009F4C39880916000880F893008F086
:1001B00081E080936000FF91EF918F910F900FBECF
:1001C0000F901F9018958F929F92AF92BF92CF92EF
:1001D000DF92EF92FF920F931F93CF93DF938C01E7
:1001E00089519C4F873F9A4250F08BE080931201D7
:1001F000809313018093140180931101A1C05801D1
:1002000017FF04C0AA24BB24A01AB10A8AE090E018
:1002100021E030E04AE0A816B9064CF02F5F3F4FCE
:10022000BC01469FC001479F900D1124F4CF690186
:10023000E0E0F0E08AE0E82EF12C9AE0892E912CA3
:100240004AE0C501B7010E94210FEC01E130F10540
:1002500029F480911101C81BD10919C0E230F105C0
:1002600031F4509114018091110190E00CC0E33001
:10027000F10569F46091130180911401509111010D
:1002800090E0860F911D850F911DC81BD90BC701EA
:10029000B4010E94210FCE010E94210F309719F462
:1002A0006093110111C0E130F10519F4609314015C
:1002B0000BC0E230F10519F46093130105C0E3307F
:1002C000F10511F460931201C701489F7001499F25
:1002D000F00C11243196E217F3070CF4B2CF8AE048
:1002E00025303105A4F42130310519F4809314012F
:1002F0000BC02230310519F48093130105C023305F
:10030000310511F4809312012F5F3F4FE9CF17FFA2
:1003100017C091E0C916D10421F48BE08093140139
:100320000FC022E0C216D10421F48BE080931301A8
:1003300007C063E0C616D10419F48BE08093120164
:10034000DF91CF911F910F91FF90EF90DF90CF90B1
:10035000BF90AF909F908F900895009741F0EFE984
:10036000FFE03197F1F700C000000197F6CF089544
:10037000009731F025E02A95F1F700000197F8CFBA
:1003800008958F929F92AF92BF92CF92DF92EF9299
:10039000FF924B015C0120E030E04AE755E40E9407
:1003A00097106B017C0120E030E040E85FE30E94A1
:1003B000490F87FD24C020E03FEF4FE757E4C70116
:1003C000B6010E9493101816ACF420E030E040E231
:1003D00051E4C501B4010E9497100E94B50F20E9B5
:1003E00031E06115710581F0C9010197F1F76150A4
:1003F0007109F7CFC701B6010E94B50F02C061E0D5
:1004000070E0CB010197F1F7FF90EF90DF90CF9074
:10041000BF90AF909F908F9008958F929F92AF92D0
:10042000BF92CF92DF92EF92FF924B015C012BEAD9
:100430003AEA4AEA50E40E9497106B017C0120E0FE
:1004400030E040E85FE30E94490F87FD21C020E0D3
:1004500030E04FE753E4C701B6010E94931018162D
:1004600094F420E030E04AE754E4C501B4010E946E
:100470004D0FFF90EF90DF90CF90BF90AF909F9087
:100480008F900C94C101C701B6010E94B50F01C045
:1004900061E06A95F1F7FF90EF90DF90CF90BF9009
:1004A000AF909F908F90089580FF02C0DC9A01C0AA
:1004B000DC9881FF02C0DD9A01C0DD9882FF02C096
:1004C000DE9A01C0DE9883FF02C0DF9A0895DF98AC
:1004D000089589B382958170CD998260CE998460A8
:1004E000CF9988600895CF93DF93D498D598D69804
:1004F000D798DA9ADB9A0E94690290E1899FE0011D
:100500001124DB98DB9A0E946902DB98E7ECF0E0AB
:100510003197F1F700C000008C2BDF91CF91089547
:10052000D9980C947302CF93C82FD49AD59AD69A9F
:10053000D79ADA98DB9A82958F700E945402DB98E2
:10054000DB9A8C2F0E945402DB980E94900287FD58
:10055000FCCFCF910895D9980C949302D99A0C941A
:100560009302D99A0C947302CF93DF93EC01899193
:10057000882319F00E94AE02FACFDF91CF9108953F
:1005800090E4699F800D112480680C94AB0281E097
:100590000E94AB028FE39FE10197F1F700C00000DA
:1005A000089582E00E94AB028FE39FE10197F1F78B
:1005B00000C000000895CF93D49AD59AD69AD79ABE
:1005C000D39AD19AD29A8FE59AEE0197F1F700C0AB
:1005D0000000D998DB98DA98C3E0DB9A83E00E94A8
:1005E0005402DB988FE19EE40197F1F700C0000010
:1005F000C15099F7DB9A82E00E945402DB988FE9A0
:100600009FE00197F1F700C0000088E20E94AB0272
:1006100088E00E94AB0281E00E94AB0286E00E946B
:10062000AB028CE0CF910C94AB02CF93DF93CDB7AC
:10063000DEB761970FB6F894DEBF0FBECDBF4AE0BC
:10064000BE016F5F7F4F0E947F120E94B4026196CD
:100650000FB6F894DEBF0FBECDBFDF91CF910895E6
:10066000CF93DF93CDB7DEB761970FB6F894DEBFB7
:100670000FBECDBF40E1BE016F5F7F4F0E947F1272
:100680000E94B40261960FB6F894DEBF0FBECDBFD4
:10069000DF91CF910895CF92DF92EF92FF920F9367
:1006A0001F93CF93DF938C016B017A01C0E0D0E000
:1006B000CC15DD0581F0E114F10411F08CE101C0ED
:1006C00084E10E94AB020115110519F0C8010E94D6
:1006D000AD012196EDCFDF91CF911F910F91FF904A
:1006E000EF90DF90CF900895CF92DF92EF92FF923C
:1006F0000F931F93CF93DF938C016B017A01C0E0BE
:10070000D0E0CC15DD0581F0E114F10411F088E1B1
:1007100001C080E10E94AB020115110519F0C8016A
:100720000E94AD012196EDCFDF91CF911F910F91E6
:10073000FF90EF90DF90CF9008950F931F93CF938A
:10074000DF93EC018230910520F082309105D9F4DD
:100750000FC080E80E94AB0208E210E080E20E9435
:10076000AE020150110901151105C1F7CD2B59F445
:1007700080EC0E94AB02C8E2D0E080E20E94AE02B0
:1007800021972097D1F7DF91CF911F910F91089575
:100790008330910589F030F48130910549F002975A
:1007A00049F008958430910549F0059749F008957E
:1007B0008CE007C088E005C08EE003C08DE001C07A
:1007C0008FE00C94AB0208958E98969A8EB5856052
:1007D0008EBD8EB58F7B8EBD1092180189B7806259
:1007E00089BF10921901BC98C49A08951F920F9264
:1007F0000FB60F9211242F933F938F939F9386B53B
:1008000097B520910C0130910D01821B930B26B5F9
:1008100037B530930D0120930C012EB530E423271A
:100820002EBD8F31910510F0109218012091180102
:10083000222319F021E020930B01209118012111AE
:1008400011C010920A0110920901109208012EB5F0
:1008500020642EBD209118012F5F2093180122E003
:1008600020930B0120910B01213009F05FC09C0106
:100870002A5031092531310510F010920B012091D9
:100880000B01213009F052C0429728F080911801E5
:100890008F5F8093180180911801823008F441C065
:1008A0008091180180FD3DC08091090190910A015D
:1008B000880F991F90930A01809309010EB406FED8
:1008C00005C0816090930A0180930901809108011D
:1008D0008F5F809308018D3020F180911901811183
:1008E0001BC08091090190910A01282F2F7320933A
:1008F00017019C01207C3770689415F83695279570
:100900001694E1F72093160188279870892F869511
:10091000869586958093150110920B0181E0809356
:100920001901809118018F5F8093180180910B014C
:10093000811105C0109218018EB58F7B8EBD9F91DD
:100940008F913F912F910F900FBE0F901F90189590
:1009500086B382958F7091E08927817090E0089529
:1009600084EA86BF06B607FEFDCF089583B984E802
:1009700086BF06B607FEFDCF0895979A60E070E047
:1009800080E89FE30E94C10197980895979A0E947A
:10099000C101979808952F923F92CF93DF93E10181
:1009A000EA81FB81158E148EEA81FB81848D958D01
:1009B0002689378982179307ACF4E881F981E80F1B
:1009C000F91F80810E94AE0260E070E088E492E44A
:1009D0000E94C101EA81FB81848D958D0196958FDE
:1009E000848FE2CFDF91CF913F902F9008952F9287
:1009F0003F92CF92DF92EF92FF920F931F93CF938C
:100A0000DF938C01E1018AE090E09D8F8C8FEE24D2
:100A1000E394F12C4AE08C8D9D8D0817190758F04E
:100A20002FEFE21AF20A489F9001499F300D1124DE
:100A30003D8F2C8FF0CF1B8F0A8F80E090E00E94BB
:100A40009D031D8E1C8E87E2C82ED12CCE18DF0888
:100A500083E0E80EF11C8C8D9D8D8C159D05A4F412
:100A600060E00E94C002C8010E94150361E08C8D05
:100A70000E94C002C8010E9415038C8D9D8D8E0DB1
:100A80009F1D9D8F8C8FE7CF60E070E08AEF93E42D
:100A9000DF91CF911F910F91FF90EF90DF90CF905A
:100AA0003F902F900C94C1012F923F920F931F9370
:100AB000CF93DF938C01E1010E94C7028BEB90E0A2
:100AC0000E94B402C8010E9415031D8E1C8E8C8DDD
:100AD0009D8D059774F460E070E080E291E40E94DF
:100AE000C1010E94BD048C8D9D8D01969D8F8C8FC0
:100AF000EECF60E070E08AEF93E40E94C101DF91E5
:100B0000CF911F910F913F902F900C94C702CF93DC
:100B1000C82F0E94B00480EA0E94B6048C2F0E9465
:100B2000B6040E94B00481EA0E94B60484E886BF3D
:100B300006B607FEFDCF83B194E996BF06B604FC66
:100B4000FDCFCF91089580E00E94870580930F012B
:100B500080910F01827080930E0180910F010895A2
:100B60000E948705982F92959F708F702AE0929F20
:100B7000800D112408951F93CF93DF931F92CDB75B
:100B8000DEB7182F69830E94B00480EA0E94B60481
:100B9000812F0E94B6046981862F0E94B60484E9E1
:100BA00086BF06B604FCFDCF0F90DF91CF911F9159
:100BB00008950E94A30580910F01806880930F0122
:100BC00060910F0180E00C94BB050E94A305809109
:100BD0000F018F7780930F0160910F0180E00C94DB
:100BE000BB050E94A30580910F018F7B80930F01AD
:100BF00060910F0180E00C94BB050E94A3058091D9
:100C00000F01806480930F0160910F0180E00C94CC
:100C1000BB052F923F92EF92FF920F931F93CF93BA
:100C2000DF93E1018130910539F1FCF4892B09F062
:100C3000D5C180E090E00E949D0360E080E00E94CA
:100C4000C00285EC90E00E94B40261E080E00E9466
:100C5000C0028EEC90E0DF91CF911F910F91FF9039
:100C6000EF903F902F900C94B4028230910511F1D7
:100C7000039709F410C1B2C180E090E00E949D0387
:100C800060E080E00E94C0028091170190E00E9425
:100C9000150360E086E00E94C0028091160190E09A
:100CA0000E94150361E080E00E94C002809115015E
:100CB00090E08AC180E090E00E949D0360E080E0C7
:100CC0000E94C002888D998D0E941503EE88FF88CE
:100CD000C701880F991F0E94FA108C012C893D8949
:100CE000121613062CF02F3F8FEF380709F0C8C0FB
:100CF0001B8A1A8A60E371E38A899B898E159F0596
:100D00007CF448895989F801E80FF91F8417950781
:100D100011F4708301C0608301969B8B8A8BECCFAA
:100D200012161306BCF460E084E00E94C0022C8D11
:100D30003D8D44E6429FC001439F900D11246AEF10
:100D400070E00E94210FCB010E94150384ED90E01A
:100D50000E94B4021B8A1A8A8E899F896AE02A89B6
:100D60003B89281739070CF04BC0F801E20FF31F3D
:100D700040814133E1F42115310521F4488D409340
:100D8000120139C02130310521F4488D40931301FF
:100D900032C02230310521F4488D409314012BC01C
:100DA0002330310541F5488D4093110124C02115B0
:100DB000310521F0488D598D452B11F460931201B6
:100DC0002130310521F0488D598D452B11F4609368
:100DD00013012230310521F0488D598D452B11F436
:100DE000609314012330310521F0488D598D452B36
:100DF00011F4609311012F5F3F4F3B8B2A8BAFCFD4
:100E00008C899D890196E1F51B8A1A8A5BE0F52E93
:100E10002A893B898E899F89281739077CF5F80133
:100E2000E20FF31F8081803321F0888D998D892B0B
:100E3000F9F42115310519F4F092120111C0213095
:100E4000310519F4F09213010BC02230310519F469
:100E5000F092140105C02330310511F4F092110114
:100E60000E94BD0460E070E088EC92E40E94C10141
:100E70008A899B8901969B8B8A8BCACF1D8A1C8A83
:100E8000C801DF91CF911F910F91FF90EF903F909C
:100E90002F900C9492110E94FD0581E00E94B005F4
:100EA0008F8782E00E94B0058E8783E00E94B005A4
:100EB0008D8784E00E94B0058C870E94F1050E9416
:100EC000FD0585E00E948705F82E86E00E948705D3
:100ED00084FB222720F9220F922F990F990F920F4E
:100EE0008F70980F99870E94F1052F2D26952695D2
:100EF00026952670922F990F990F920F8F2D8F7034
:100F0000980F988780E10E948705082F81E10E9451
:100F1000870510E0182B980123703327F294F6947C
:100F2000F69443E0F4228F2D90E02817390751F012
:100F30000F5F1F4F602F80E10E94BB05612F81E191
:100F40000E94BB051B870A8760E070E088EC92E492
:100F50000E94C10180E090E00E949D0360E080E07B
:100F60000E94C0028C8590E00E94150360E083E03F
:100F70000E94C0028D8590E00E94150360E086E02B
:100F80000E94C0028E8590E00E94150360E089E017
:100F90000E94C0028F8590E00E94150361E080E00E
:100FA0000E94C002888590E00E94150361E083E002
:100FB0000E94C002898590E00E94150361E086E0EE
:100FC0000E94C0028A859B85DF91CF911F910F916E
:100FD000FF90EF903F902F900C941503DF91CF91ED
:100FE0001F910F91FF90EF903F902F9008952F92B7
:100FF0003F924F925F926F927F928F929F92AF92A9
:10100000BF92CF92DF92EF92FF920F931F93CF93F5
:10101000DF93CDB7DEB7C455D1090FB6F894DEBF64
:101020000FBECDBF6C017B014A0181018EB5887F67
:101030008EBDD6018D919C911197892B09F082C0AC
:10104000CB010197039708F07DC06D937C93CB0192
:101050000E945405F601808191818230910549F00A
:1010600083309105D9F0019709F06CC081E090E0E0
:1010700067C084E090E0D80157969C938E93569772
:101080008FEF9FEF55969C938E9354975D961C928D
:101090001E925C9783B7856083BF44C00E94BD04E5
:1010A000D6018D919C918130910581F034F4892B8A
:1010B000D9F4180180E090E015C08230910579F0F4
:1010C000039791F4180183E090E00CC081E090E078
:1010D0000E94C8031801F6018081918103C01801A4
:1010E00082E090E00E9409060E94BD04D6018D9125
:1010F0009C918130910591F034F4892B19F51801F8
:1011000080E090E01DC08230910571F00397D1F42A
:10111000180181E090E00E94F7040FC084E390E0A2
:101120000E94C803180109C0180181E090E00E94E4
:10113000F704D6018D919C9103C0F60180819181C5
:101140000E940906D80114968D919C911597892BC0
:1011500009F03BC565961FAF0EAF65970E94BD04B1
:10116000F601808191818130910509F462C31CF4FC
:10117000892B49F0B8C48230910509F45EC3039706
:1011800009F470C4B0C4FCE0EF16F10409F4F7C12F
:1011900069E2E616F10409F047C30E94C70288E23B
:1011A00090E0D80157969C938E93569780E5EBE696
:1011B000F0E0DE01119601900D928A95E1F784E04E
:1011C00090E00E94FA105C01F801158E148E58E22E
:1011D000552EF801648C758CF2E06F167104D4F50D
:1011E00080E590E00E94FA10F301EE0FFF1FEA0D78
:1011F000FB1D91838083D80155961C921E925497B3
:10120000569CA001579C500D1124F8012489358962
:1012100028323105B4F4DC01A20FB31FFA01E20F4A
:10122000F31F61E070E06C0F7D1FE60FF71F608118
:101230006C932F5F3F4FD80155963C932E93549754
:10124000E4CFFFEF6F1A7F0AD8015D967C926E9211
:101250005C97BFCFD8015D961C921E925C97D80117
:101260005C968D919C915D97883291057CF4D501B7
:10127000ED91FC91E80FF91F80810E94AE02F80108
:10128000848D958D0196958F848FE9CF61E080E004
:101290000E94C002F801158E148ED8015C968D91C3
:1012A0009C915D97883291058CF4D5011296ED9151
:1012B000FC911397E80FF91F80810E94AE02F8019C
:1012C000848D958D0196958F848FE7CF88E290E08D
:1012D00057969C938E93569781E090E055969C93F9
:1012E0008E935497F80184899589892B09F416C146
:1012F00084E090E00E94FA103C01F801158E148EF3
:10130000D8015C964D905C905D97B2E04B1651040D
:10131000BCF4D80156968D919C915797880F991FD0
:101320000E94FA10F201EE0FFF1FE60DF71D9183E8
:101330008083BFEF4B1A5B0AF801558E448EE0CFD5
:101340000E94D102F801158E148EF801848D958DBE
:101350002689378982179307A4F4D3014D905C90B6
:10136000480E591E0E94B102F2018083D8015C969A
:101370008D919C915D9701965D969C938E935C9761
:10138000E4CF61E080E00E94C002D8015D961C922B
:101390001E925C97D8015C968D919C915D975696B4
:1013A0002D913C9157978217930784F4F301428063
:1013B0005380480E591E0E94B102D2018C93F8014D
:1013C000848D958D0196958F848FE4CF0E94C702FE
:1013D000F801158E148E26893789F801848D958D34
:1013E0008217930744F5F301A081B181A80FB91FBB
:1013F000F50160817181680F791F5C91DB014C916F
:1014000054130FC0F301A281B381A80FB91FF501D6
:1014100062817381680F791F5C91DB014C915417D5
:1014200019F0F801158A148A0196D8015D969C93EB
:101430008E935C97D2CF0E94A804892B29F0D80103
:1014400055961C921E925497F80184899589892B90
:1014500031F4D8015D961C921E925C9742C0F8014F
:10146000158E148ED8015C968D919C915D97569641
:101470002D913C915797821793077CF4D301ED91FE
:10148000FC91E80FF91F80810E94AE02F801848D63
:10149000958D0196958F848FE5CF61E080E00E9465
:1014A000C002F801158E148ED8015C968D919C9126
:1014B0005D9756962D913C915797821793074CF65E
:1014C000D3011296ED91FC911397E80FF91F8081DB
:1014D0000E94AE02F801848D958D0196958F848FC0
:1014E000E3CFD8015C964D905C905D97B2E04B16CF
:1014F000510484F4F201EE0FFF1FE60DF71D808109
:1015000091810E949211BFEF4B1A5B0AF801558E30
:10151000448EE7CFC3010E949211E4CE158E148E43
:10152000F801648C758CF2E06F16710494F4F30189
:10153000EE0FFF1FEA0DFB1D808191810E94921129
:10154000FFEF6F1A7F0AD8015D967C926E925C97CE
:10155000E7CFC5010E9492110E94BD0460E070E0D7
:1015600080E291E40E94C1010E94BD0460E070E04D
:1015700080E291E40E94C1010E94BD0455C10E9415
:10158000C70284E090E00E94C80361E089E00E9405
:10159000C00286ED90E00E94B40260E070E08AEF45
:1015A00093E40E94C1010E94D1028DED90E00E945F
:1015B000B40260E070E08AEF93E40E94C10141E070
:1015C00050E061E070E080E090E00E944B0360E05A
:1015D00070E08FE294E40E94C10182E090E00E94FA
:1015E000C80360E070E08FE294E40E94C10181E0F2
:1015F00090E00E94C80360E070E08FE294E40E94F3
:10160000C10182E090E00E94C80360E070E08FE2D8
:1016100094E40E94C10185E090E00E94C80360E06C
:1016200070E08AE794E40E94C10184E090E00E94A7
:10163000C80340E050E061E070E080E090E00E948C
:101640004B0360E070E08AE794E40E94C10140E04F
:1016500050E061E070E080E090E00E94740383E07D
:1016600090E00E94C80360E070E08AE794E40E9482
:10167000C10185E090E00E94C80361E080E00E9423
:10168000C00289EE90E00E94B40260E070E88BEB4B
:1016900094E40E94C10161E089E00E94C00286E0FA
:1016A00090E0D80157969C938E9356970E94FA101B
:1016B00063969FAF8EAF6397F801158E148ED80195
:1016C0005C968D919C915D9756962D913C91579784
:1016D00082179307BCF46396AEACBFAC6397A80EB9
:1016E000B91E0E94B102D5018C9360E070E088ECD5
:1016F00092E40E94C101F801848D958D0196958F29
:10170000848FDDCF41E050E061E070E080E090E068
:101710000E94740360E070E88BEB94E40E94C101C6
:1017200083E090E00E94C80380E090E00E949D0367
:1017300060E070E88BEB94E40E94C10161E080E01E
:101740000E94C002FE01EF5AFF4F1F010E94CB040E
:1017500084E090E00E94C80360E089E00E94C0023B
:101760000E94CB0461E088E00E94C00285E090E026
:101770000E94C8030E94CB0460E081E00E94C00286
:101780000E94CB0463968EAD9FAD63970E94921129
:1017900083E090E00E94C80360E070E88BEB94E483
:1017A0000E94C10141E050E06FE070E084E190E010
:1017B0000E944B0341E050E06FE070E084E190E074
:1017C0000E94740381E090E00E949D0384E090E019
:1017D0000E94C80360E070E08AE794E40E94C101BF
:1017E00041E050E06FE070E084E190E00E9474031B
:1017F00041E050E06FE070E084E190E00E944B0334
:1018000083E090E00E94C80382E090E00E949D0384
:1018100060E070E08AEF93E40E94C1010E94C70279
:1018200081E090E00E94C8031801F6018081918157
:1018300058C1C7010E94C80350C1B2E3EB16F104BE
:1018400009F442C1B4F4F0E2EF16F10409F417C14F
:1018500034F47EE0E716F10409F418C13EC181E2D8
:10186000E816F10409F40EC199E2E916F104E1F079
:1018700034C1A7E3EA16F10409F422C15CF4E4E3FD
:10188000EE16F10409F424C1F6E3EF16F10409F4AD
:10189000F2C023C16BE3E616F10409F4CDC074E68F
:1018A000E716F10409F019C181E090E0D8015D96D6
:1018B0009C938E935C9755969C938E935497AEEE23
:1018C000AA2EA2E0BA2E6DEC7CEC8CEC9EE30E947A
:1018D000C604F801848D958D0196958F848F18012B
:1018E000D6018D919C910E940906F801648D758D39
:1018F000C5010E94210F665F7F4F882777FD809585
:10190000982F0E94E30F0E94C1010E94A804892B16
:1019100041F0D8015C968D919C915D978A3F91052D
:1019200091F660E070E088E493E40E94C1014424F1
:101930004394512CE4EC6E2EE9E07E2EF7E0AF2EBE
:10194000B12CF801848D958D019709F458C00E943F
:101950006F1266E070E00E94210F0196F801958BEE
:10196000848B57824682D80116962D913C91179709
:1019700054968D919C9155975C966D917C915D9755
:1019800082179307ACF1C3010E94210FCB0101968E
:10199000B501621B730B0E94210F882777FD80958C
:1019A000982F0E94E30F0E94C1010E946F12D8017C
:1019B00056966D917C9157970E94210FF801918B5B
:1019C000808B86819781918F808F1801D6018D91B0
:1019D0009C910E9409066DEC7CEC8CE49FE30E94D4
:1019E000C604F80186819781019697838683BBCFD1
:1019F000615071095D967C936E935C97A2CF82E0F3
:101A000090E0958F848F868197818730910584F44B
:101A100067E070E0681B790B83EE94E00E94210F71
:101A2000882777FD8095982F0E94E30F0E94C101BF
:101A30008FEF9FEFD8010BC0D80159961C921E92D0
:101A4000589751961C921E9250978FEF9FEF559684
:101A50009C938E9354971801F601808191810E9486
:101A600009063BC0B4E3EB16F10491F104F166E31F
:101A7000E616F10409F5180184E690E02CC083B75E
:101A8000856002C083B78A7F83BF27C0F1E08F16CD
:101A9000910419F583B7856083BF8AE080931201B2
:101AA00080931301809314018093110116C0F2E317
:101AB000EF16F10449F011C077E3E716F10469F479
:101AC000180188EE93E007C018018AE090E003C097
:101AD000180181E090E00E94F7041801D6018D9171
:101AE0009C910E940906B3E2EB16F10409F45AC076
:101AF0008CF4FEE0EF16F10409F460C062E2E61631
:101B0000F10409F062C041E050E061E070E080E083
:101B100090E04EC076E2E716F10481F08EE2E8161E
:101B2000F104C9F194E2E916F10409F04EC041E074
:101B300050E06FE070E084E190E03DC00E94C70299
:101B400081EF90E00E94B40261E080E00E94C00258
:101B50008DEF90E00E94B40260E070E08AE793E4C9
:101B60000E94C10141E050E06FE070E084E190E04C
:101B70000E944B0341E050E06FE070E084E190E0B0
:101B80000E9474030E94C7021801D6018D919C9196
:101B90000E9409061AC041E050E061E070E080E078
:101BA00090E009C041E050E06FE070E084E190E037
:101BB0000E944B030AC00E94740307C0B1E08B1659
:101BC000910419F4F80195828482D80114968D91BC
:101BD0009C9115970197A1F415961C921E9214974B
:101BE000F6011182108283B78A7F83BF180180813A
:101BF00091810E945405D6018D919C910E94090605
:101C00008EB585608EBDCC5ADF4F0FB6F894DEBF1F
:101C10000FBECDBFDF91CF911F910F91FF90EF903D
:101C2000DF90CF90BF90AF909F908F907F906F90FC
:101C30005F904F903F902F90089585B5886085BD47
:101C400085B5876085BD8AE083BD89B7806889BF17
:101C500008951F920F920FB60F9211242F933F9366
:101C60004F935F936F937F938F939F93AF93BF93A4
:101C7000EF93FF9380911001811102C00E946F12B7
:101C8000809110018F5F80931001FF91EF91BF91C0
:101C9000AF919F918F917F916F915F914F913F9104
:101CA0002F910F900FBE0F901F901895CF93DF9339
:101CB000CDB7DEB76E970FB6F894DEBF0FBECDBFBF
:101CC0001C821B8281E090E09E838D8382E090E005
:101CD0009A8389831C8E1B8E1A8A198A1A8E198EF2
:101CE0008F9A0E941D0E0E94DB020E94E4030E9454
:101CF0004F000E94E30311B888E480B960E070E00F
:101D00008AE794E40E94C10110920F0110920E0123
:101D100060E080E00E94BB0584E00E948705682F98
:101D20006F7384E00E94BB0560E988E00E94BB05F8
:101D300060E070E08AE794E40E94C1010E94D90546
:101D400060E081E00E94BB0561E082E00E94BB058B
:101D500067E183E00E94BB0569E184E00E94BB0566
:101D60000E94E5056CED80E10E94BB0567E081E122
:101D70000E94BB050E94D90566E085E00E94BB0574
:101D800062E086E00E94BB050E94E5057894CE01E2
:101D900001961C0140E050E060E070E002960E9475
:101DA000F707FF24FA9401E010E00E94A804892BB1
:101DB000D1F060E070E080EF91E40E94C1010E94E8
:101DC000A804892B51F0CE0101961C0140E050E09F
:101DD00064E670E002960E94F70760E070E088EC2D
:101DE00092E40E94C101809119018823F1F280914F
:101DF00016018111DACF1E8E1D8E89819A81823063
:101E0000910541F02091150130E08217930711F4FC
:101E10001E8F0D8F8091150190E09A8389836091C8
:101E200017014D8D5E8D70E0CE0101961C0102966A
:101E30000E94F70710921901F0921701F092160113
:101E4000B4CF97FB072E16F4009407D077FD09D086
:101E50000E94350F07FC05D03EF4909581959F4F69
:101E60000895709561957F4F0895AA1BBB1B51E1A2
:101E700007C0AA1FBB1FA617B70710F0A61BB70BFA
:101E8000881F991F5A95A9F780959095BC01CD019F
:101E90000895D4D008F481E008950CD00AC102D18D
:101EA00040F0F9D030F021F45F3F19F0EBC0511150
:101EB00034C1EEC00FD198F39923C9F35523B1F380
:101EC000951B550BBB27AA2762177307840738F0A9
:101ED0009F5F5F4F220F331F441FAA1FA9F333D008
:101EE0000E2E3AF0E0E830D091505040E695001CBC
:101EF000CAF729D0FE2F27D0660F771F881FBB1F78
:101F0000261737074807AB07B0E809F0BB0B802D51
:101F1000BF01FF2793585F4F2AF09E3F510568F09D
:101F2000B1C0FBC05F3FECF3983EDCF3869577953C
:101F30006795B795F7959F5FC9F7880F911D96959F
:101F4000879597F90895E1E0660F771F881FBB1FFB
:101F5000621773078407BA0720F0621B730B840BA8
:101F6000BA0BEE1F88F7E0950895BCD088F09F5714
:101F700090F0B92F9927B751A0F0D1F0660F771FD5
:101F8000881F991F1AF0BA95C9F712C0B13081F0B5
:101F9000C3D0B1E00895C0C0672F782F8827B85FFD
:101FA00039F0B93FCCF3869577956795B395D9F716
:101FB0003EF490958095709561957F4F8F4F9F4F20
:101FC0000895E89409C097FB3EF49095809570952C
:101FD00061957F4F8F4F9F4F9923A9F0F92F96E975
:101FE000BB279395F695879577956795B795F111EA
:101FF000F8CFFAF4BB0F11F460FF1BC06F5F7F4F87
:102000008F4F9F4F16C0882311F096E911C0772398
:1020100021F09EE8872F762F05C0662371F096E8A1
:10202000862F70E060E02AF09A95660F771F881F70
:10203000DAF7880F9695879597F90895990F000814
:10204000550FAA0BE0E8FEEF16161706E807F9078A
:10205000C0F012161306E407F50798F0621B730B25
:10206000840B950B39F40A2661F0232B242B252BA6
:1020700021F408950A2609F4A140A6958FEF811D49
:10208000811D089597F99F6780E870E060E00895EA
:102090009FEF80EC089500240A9416161706180680
:1020A0000906089500240A9412161306140605065C
:1020B0000895092E0394000C11F4882352F0BB0FED
:1020C00040F4BF2B11F460FF04C06F5F7F4F8F4F50
:1020D0009F4F089557FD9058440F551F59F05F3F8B
:1020E00071F04795880F97FB991F61F09F3F79F03A
:1020F00087950895121613061406551FF2CF4695BC
:10210000F1DF08C0161617061806991FF1CF86953D
:102110007105610508940895E894BB276627772721
:10212000CB0197F908958ADF08F48FEF08950BD05B
:10213000C0CFB1DF28F0B6DF18F0952309F0A2CFA9
:10214000A7CF1124EACFC6DFA0F3959FD1F3950F57
:1021500050E0551F629FF001729FBB27F00DB11D2B
:10216000639FAA27F00DB11DAA1F649F6627B00DBB
:10217000A11D661F829F2227B00DA11D621F739FA4
:10218000B00DA11D621F839FA00D611D221F749FB2
:102190003327A00D611D231F849F600D211D822FF9
:1021A000762F6A2F11249F5750408AF0E1F0882340
:1021B0004AF0EE0FFF1FBB1F661F771F881F91504D
:1021C0005040A9F79E3F510570F05CCFA6CF5F3F0E
:1021D000ECF3983EDCF3869577956795B795F79580
:1021E000E7959F5FC1F7FE2B880F911D9695879508
:1021F00097F90895CF93DF938230910510F482E030
:1022000090E0E0911E01F0911F0120E030E0A0E09D
:10221000B0E0309739F14081518148175907B8F043
:102220004817590771F482819381109729F013960A
:102230009C938E9312972CC090931F0180931E0144
:1022400027C02115310531F04217530718F0A901B5
:10225000DB0101C0EF019A01BD01DF010280F381C2
:10226000E02DD7CF21153105F9F0281B390B24308B
:10227000310580F48A819B816115710521F0FB0194
:102280009383828304C090931F0180931E01FE01FB
:10229000329644C0FE01E20FF31F819391932250C6
:1022A0003109398328833AC020911C0130911D01E6
:1022B000232B41F4209163003091640030931D0181
:1022C00020931C012091610030916200211531059D
:1022D00041F42DB73EB74091650050916600241B34
:1022E000350BE0911C01F0911D01E217F307A0F4FA
:1022F0002E1B3F0B2817390778F0AC014E5F5F4F5C
:102300002417350748F04E0F5F1F50931D0140936F
:102310001C018193919302C0E0E0F0E0CF01DF91D6
:10232000CF910895CF93DF93009709F487C0FC0104
:10233000329713821282C0911E01D0911F01209703
:1023400081F420813181280F391F80911C019091E7
:102350001D018217930779F5F0931D01E0931C018D
:102360006DC0DE0120E030E0AE17BF0750F41296DA
:102370004D915C9113979D014115510509F1DA01C9
:10238000F3CFB383A28340815181840F951F8A17B5
:102390009B0771F48D919C911197840F951F029664
:1023A0009183808312968D919C911397938382835E
:1023B0002115310529F4F0931F01E0931E013EC061
:1023C000D9011396FC93EE9312974D915D91A40F52
:1023D000B51FEA17FB0779F480819181840F951F5F
:1023E0000296D90111969C938E93828193811396C4
:1023F0009C938E931297E0E0F0E08A819B81009796
:1024000019F0FE01EC01F9CFCE0102962881398145
:10241000820F931F20911C0130911D01281739074D
:1024200069F4309729F410921F0110921E0102C026
:1024300013821282D0931D01C0931C01DF91CF91B2
:1024400008958F929F92AF92BF92CF92DF92EF92B8
:10245000FF92CF93DF93EC01688179818A819B8120
:10246000611571058105910521F464E279ED8BE533
:1024700097E02DE133EF41E050E00E94B4124901B2
:102480005A019B01AC01A7EAB1E40E94D3126B018F
:102490007C01ACEEB4EFA50194010E94E112C60EDE
:1024A000D71EE81EF91EF7FE06C081E0C81AD10843
:1024B000E10880E8F80AC882D982EA82FB82C60174
:1024C0009F77DF91CF91FF90EF90DF90CF90BF90FB
:1024D000AF909F908F9008950E942112089587E6F3
:1024E00090E00E9421120895A0E0B0E08093670080
:1024F00090936800A0936900B0936A000895BB2789
:102500004A3031F4992322F4BDE2909581959F4F92
:102510000C948B12BB27FB015527AA27880F991F04
:10252000AA1FA41710F0A41B83955051B9F7A05D02
:10253000AA3308F0A95DA193009779F7B111B1937F
:102540001192CB010C94A412DC01FC01672F719154
:102550007723E1F7329704C07C916D937083629189
:10256000AE17BF07C8F30895052E97FB1EF400941D
:102570000E94CB1257FD07D00E94E61207FC03D041
:102580004EF40C94CB1250954095309521953F4FC9
:102590004F4F5F4F089590958095709561957F4F4F
:1025A0008F4F9F4F08950E940813A59F900DB49FD1
:1025B000900DA49F800D911D11240895B7FF0C94D8
:1025C000D3120E94D312821B930B0895A1E21A2EFC
:1025D000AA1BBB1BFD010DC0AA1FBB1FEE1FFF1FC7
:1025E000A217B307E407F50720F0A21BB30BE40B17
:1025F000F50B661F771F881F991F1A9469F760955E
:102600007095809590959B01AC01BD01CF01089517
:10261000A29FB001B39FC001A39F700D811D112423
:10262000911DB29F700D811D1124911D0895F89484
:02263000FFCFDA
:10263200010000200120000100000041546D656787
:102642006133322070726F6772616D6162636465BB
:10265200666768696A6B6C6D6E6F707172737475A0
:102662007677784461726975737A204D2E20707284
:102672006F6A2E797A313233343536373839303918
:10268200383736353433323121402450726F677215
:10269200616D3A20005779626965727A3A00312099
:1026A2002D2033002500576974616A21004C434490
:1026B200204844343437383000437A7974616D3AB3
:1026C200004E6120706F637A6174656B00656B7296
:0826D200616E752E2E2E000032
:00000001FF
