:100000000C9430000C944D000C944D000C944D0059
:100010000C94920A0C944D000C9449040C944D00DD
:100020000C944D000C944D000C9464000C944D0005
:100030000C944D000C944D000C944D000C944D000C
:100040000C944D000C944D000C944D000C944D00FC
:100050000C944D00C0F9A4B0999282D88090FF0012
:1000600011241FBECFE5D4E0DEBFCDBF10E0A0E677
:10007000B0E0E8EDF4E202C005900D92AA3EB107AF
:10008000D9F711E0AAEEB0E001C01D92A535B10785
:10009000E1F70E94310A0C946A120C9400008FEF71
:1000A00084BB85BB87B38F6087BB88B38F6088BBF9
:1000B00083B7886083BF83B7856083BF8EE48CBFBE
:1000C00089B7826089BF08951F920F920FB60F9271
:1000D00011242F938F939F93EF93FF9388B38F6097
:1000E00088BB20916000213039F4E091F200F0E00B
:1000F000EC5AFF4FE4911AC0223039F4E091F3003A
:10010000F0E0EC5AFF4FE49111C0243039F4E09153
:10011000F400F0E0EC5AFF4FE49108C0283039F4C5
:10012000E091F100F0E0EC5AFF4FE491E5BB88B3B9
:10013000922F90959F70807F982B98BB822F880F6D
:1001400080936000893018F081E080936000FF9117
:10015000EF919F918F912F910F900FBE0F901F9055
:1001600018950F931F93CF93DF938C01815F984D68
:100170008F519E4410F000E010E0F80117FF04C01A
:10018000EE27FF27E01BF10BC1E0D0E02AE030E0D2
:100190000BC02196C901880F991F43E0220F331F1E
:1001A0004A95E1F7280F391FE217F30794F7C43097
:1001B000D105BCF0CF0168EE73E00E94B9106093E6
:1001C000F2008091F20090E028E13CEFAC01429F08
:1001D000C001439F900D529F900D1124E80FF91F0D
:1001E00003C08AE08093F200C330D105BCF0CF0198
:1001F00064E670E00E94B9106093F3008091F30010
:1002000090E02CE93FEFAC01429FC001439F900D6D
:10021000529F900D1124E80FF91F03C08AE08093CC
:10022000F3002197B9F0CF016AE070E00E94B910A5
:100230006093F4008091F40090E026EF3FEFAC0172
:10024000429FC001439F900D529F900D1124E80FD3
:10025000F91F03C08AE08093F400E093F100012BC2
:1002600019F48AE08093F100DF91CF911F910F91F3
:10027000089520EA3FE004C0F9013197F1F70197B2
:100280000097D1F7089535E004C0232F2A95F1F7A0
:1002900001970097D1F70895AF92BF92CF92DF9266
:1002A000EF92FF920F931F935B016C0120E030E00F
:1002B0004AE755E40E94890C7B018C0120E030E084
:1002C00040E85FE30E948F0E88231CF461E070E039
:1002D00024C0C801B70120E03FEF4FE757E40E9478
:1002E0002F0E1816B4F4C601B50120E030E040E24C
:1002F00051E40E94890C0E94B30A80E991E005C094
:10030000FC013197F1F76150704061157105C1F73B
:1003100007C0C801B7010E94B30ACB010197F1F7EA
:100320001F910F91FF90EF90DF90CF90BF90AF9013
:100330000895AF92BF92CF92DF92EF92FF920F9308
:100340001F935B016C012BEA3AEA4AEA50E40E94EF
:10035000890C7B018C0120E030E040E85FE30E94E3
:100360008F0E882314F461E019C0C801B70120E0A2
:1003700030E04FE753E40E942F0E18165CF4C601DC
:10038000B50120E030E04AE754E40E94830D0E946A
:100390004C0106C0C801B7010E94B30A6A95F1F783
:1003A0001F910F91FF90EF90DF90CF90BF90AF9093
:1003B000089580FF02C0DC9A01C0DC9881FF02C072
:1003C000DD9A01C0DD9882FF02C0DE9A01C0DE988E
:1003D00083FF02C0DF9A0895DF98089589B390E003
:1003E00024E0969587952A95E1F78170CD998260F2
:1003F000CE998460CF99886008951F93D498D5983A
:10040000D698D798D99ADB9A0E94EE01182F1295A8
:10041000107FDB98DB9A0E94EE01DB98812B1F9105
:100420000895DA980E94FD0108951F93182FD49A19
:10043000D59AD69AD79AD998DB9A82958F700E94CE
:10044000D901DB98DB9A812F0E94D901DB980E94A9
:10045000110287FDFCCF1F910895DA980E941502C2
:100460000895DA9A0E9415020895DA9A0E94FD0111
:100470000895CF93DF93EC0103C021960E943102CF
:1004800088818823D1F7DF91CF9108956295660F17
:10049000660F607C680F862F80680E942D02089589
:1004A00081E00E942D0280E49FE10197F1F7089519
:1004B00082E00E942D0280E49FE10197F1F7089508
:1004C0001F93CF93DF93D49AD59AD69AD79AD39A7B
:1004D000D29AD19A80E69AEE0197F1F7DA98DB98F2
:1004E000D99810E0C0E2DEE4DB9A83E00E94D901F3
:1004F000DB98CE010197F1F71F5F1330A9F7DB9A64
:1005000082E00E94D901DB9880EA9FE00197F1F731
:1005100088E20E942D0288E00E942D0281E00E9464
:100520002D0286E00E942D028CE00E942D02DF91B8
:10053000CF911F910895AF92BF92CF92DF92EF9229
:10054000FF920F931F93CF93DF938C016B017A017E
:10055000C0E0D0E030EAA32E3FE0B32E12C0E11499
:10056000F10411F08CE101C084E10E942D0201151B
:10057000110531F0C801F5013197F1F70197D9F76D
:100580002196CC15DD0558F3DF91CF911F910F9186
:10059000FF90EF90DF90CF90BF90AF900895AF9213
:1005A000BF92CF92DF92EF92FF920F931F93CF9360
:1005B000DF938C016B017A01C0E0D0E040EAA42E09
:1005C0004FE0B42E12C0E114F10411F088E101C033
:1005D00080E10E942D020115110531F0C801F501DD
:1005E0003197F1F70197D9F72196CC15DD0558F32E
:1005F000DF91CF911F910F91FF90EF90DF90CF90FF
:10060000BF90AF9008950F931F93CF93DF938C010A
:100610008230910570F480E060E00E944602C0E004
:10062000D0E081E690E00E9439022196C832D105DF
:10063000C1F70115110519F00230110571F480E0C0
:1006400061E00E944602C0E0D0E081E690E00E94B6
:1006500039022196C832D105C1F7DF91CF911F91A0
:100660000F9108958330910599F08430910530F40D
:100670008130910549F00297A1F408C084309105BA
:1006800049F0059771F40AC08CE005C088E003C00A
:100690008EE001C08DE00E942D0208958FE00E943F
:1006A0002D020895DA980E9415020895DA9A0E94A0
:1006B000150208950E94110290E0803809F091E03F
:1006C000892F0895CF93DF93EA01A62FB0E028E2A7
:1006D00030E0A29FF001A39FF00DB29FF00D112416
:1006E000E80FF11DEA50FF4F20E030E004C0819395
:1006F00021962F5F3F4F88818823C9F7A85BBE4FA3
:1007000081E08C93C901DF91CF91089520E030E022
:100710007FEF48E250E060E2F901EA5BFE4F708350
:10072000249FF001259FF00D349FF00D1124EA5015
:10073000FF4F80E090E06193019688329105D9F7F0
:100740002F5F3F4F2230310539F70895CF93DF9364
:100750009091F500E92FF0E0E85BFE4F808188235F
:1007600009F444C00E945A03882309F447C08091C9
:10077000F500A82FB0E0ED01CA5BDE4F48814F3F86
:1007800079F4AB59BF4F8C9180680E945203E0917D
:10079000F500F0E0EA5BFE4F80818F5F80832EC022
:1007A000242F332727FD309588E290E0A89FF001A1
:1007B000A99FF00DB89FF00D1124E20FF31FEA502E
:1007C000FF4F80814F5F48830E9456038091F50060
:1007D000E82FF0E0DF01AA5BBE4F8C91873271F405
:1007E0008FEF8C93E85BFE4F108208C0892F8F5FDC
:1007F0008093F500823011F41092F500DF91CF91D3
:100800000895DF93CF93CDB7DEB761970FB6F89415
:10081000DEBF0FBECDBFBE016F5F7F4F40E150E036
:100820000E9435120E94390261960FB6F894DEBF1D
:100830000FBECDBFCF91DF910895DF93CF93CDB79A
:10084000DEB761970FB6F894DEBF0FBECDBFBE0115
:100850006F5F7F4F4AE050E00E9435120E943902DC
:1008600061960FB6F894DEBF0FBECDBFCF91DF917A
:1008700008958E98969A8EB585608EBD8EB58F7BC5
:100880008EBD10924D0189B7806289BF10924E01D2
:1008900008951F920F920FB60F9211242F933F933A
:1008A0008F939F9326B537B58091EE009091EF001E
:1008B000281B390B86B597B59093EF008093EE0017
:1008C0008EB590E489278EBD2F31310510F010923E
:1008D0004D0180914D01882319F081E08093EA0059
:1008E00080914D01882389F41092EC001092EB0066
:1008F0001092ED008EB580648EBD80914D018F5FAA
:1009000080934D0182E08093EA008091EA0081307B
:1009100009F062C02A30310510F41092EA002F313C
:10092000310510F01092EA008091EA00813009F060
:1009300053C02231310528F080914D018F5F8093A3
:100940004D0180914D01823008F441C080914D01EC
:1009500080FD3DC08091EB009091EC00880F991FC5
:100960009093EC008093EB000EB406FE05C081600E
:100970009093EC008093EB008091ED008F5F80936B
:10098000ED008D3020F180914E018823D9F4209123
:10099000EB003091EC00822F8F7380934C01C901E2
:1009A000807C9770689415F8969587951694E1F772
:1009B00080934B0120703870832F8695869586959D
:1009C00080934A011092EA0081E080934E01809169
:1009D0004D018F5F80934D018091EA00882329F4B7
:1009E00010924D018EB58F7B8EBD9F918F913F915F
:1009F0002F910F900FBE0F901F9018952F923F923E
:100A0000CF93DF93E101EA81FB811782168214C044
:100A1000E881F981E20FF31F80810E94310260E0DA
:100A200070E088E492E40E944C01EA81FB818681B7
:100A30009781019697838683EA81FB81268137819E
:100A400084819581281739071CF3DF91CF913F905E
:100A50002F9008952F923F920F931F93CF93DF9380
:100A60008C01E1019987888780E090E00E94030370
:100A70001F821E8212C060E00E944602C8010E94CE
:100A80001D048E8161E00E944602C8010E941D047F
:100A90008E819F8108969F838E838E819F8188326D
:100AA00091054CF360E070E08AEF93E40E944C0102
:100AB000DF91CF911F910F913F902F9008950F9349
:100AC0001F938C01979A60E070E080E89FE30E949A
:100AD0004C0197980E94500289E690E00E943902EA
:100AE000C8010E941D0460E070E08AEF93E40E9458
:100AF0004C010E9450021F910F9108952F923F9236
:100B00000F931F93CF93DF938B01E1018130910508
:100B100051F1823091051CF4892B41F074C0823070
:100B20009105E1F1039709F06EC057C080E090E0B5
:100B30000E94030380E060E00E94460283E790E0A9
:100B40000E94390280E061E00E9446028CE790E05A
:100B50000E9439020E9486038FE061E042E850E083
:100B60000E94620350C080E090E00E94030380E096
:100B700060E00E944602C8010E941D0486E060E019
:100B80000E94460280914B0190E00E941D0480E08B
:100B900061E00E94460280914A0132C08A859B85AD
:100BA00027E2803192071CF080E197E205C0815F67
:100BB000984D24F480EF98ED9B878A8780E090E041
:100BC0000E9403038A859B850E94B10080E060E05B
:100BD0000E9446028A859B8514C080E090E00E94B6
:100BE000030380E060E00E94460280914F0190E0A4
:100BF0000E941D0480E061E00E9446028091500145
:100C000090E00E941D04DF91CF911F910F913F90C2
:100C10002F9008952F923F92AF92BF92CF92DF9282
:100C2000EF92FF920F931F93DF93CF9300D000D0EA
:100C3000CDB7DEB75C016B0171013C822B82979AC4
:100C400060E070E080E89FE30E944C019798D50136
:100C50008D919C918130910509F41BC282309105E0
:100C60001CF4892B49F019C38230910509F415C28F
:100C7000039709F012C3B3C2BCE0CB16D10409F448
:100C8000BCC0E9E2CE16D10409F0A4C20E94500211
:100C90008EE890E00E94390280E061E00E94460206
:100CA0008FE990E00E94390280E190E0D101159631
:100CB0009C938E931497F70184819581880F991FD7
:100CC0000E9417116C010E945802D70117961C92BE
:100CD0001E92169716C00E9435022C0C3D1CF10185
:100CE000808360E070E080E89FE30E944C01D701C0
:100CF00016968D919C911797019617969C938E93BB
:100D00001697F70126803780848195812816390649
:100D100014F380E061E00E944602D70114968D91A1
:100D20009C91159712C00E9435022C0C3D1CF101BC
:100D3000808360E070E080E89FE30E944C01D7016F
:100D400016968D919C911797019617969C938E936A
:100D50001697F7012680378084819581880F991F27
:100D60002816390604F30E945002D70117961C92E8
:100D70001E9216970BC0EC0DFD1D80810E94310262
:100D8000F70186819781019697838683D70116960E
:100D9000ED91FC91179714968D919C911597E817FA
:100DA000F9074CF380E061E00E944602F70184817C
:100DB0009581978386830FC0EC0DFD1D80810E9475
:100DC0003102D70116968D919C911797019617962F
:100DD0009C938E931697D7011696ED91FC911797D9
:100DE00014968D919C911597880F991FE817F90714
:100DF0001CF3C6010E94D7115ECF0E94500289E009
:100E000061E00E94460280EB90E00E94390260E0BF
:100E100070E08AEF93E40E944C010E94580287EB35
:100E200090E00E94390260E070E08AEF93E40E9453
:100E30004C0180E090E061E070E041E050E00E9411
:100E40009B0260E070E08FE294E40E944C0182E03B
:100E500090E00E94320360E070E08FE294E40E9430
:100E60004C0181E090E00E94320360E070E08FE28C
:100E700094E40E944C0182E090E00E94320360E022
:100E800070E08FE294E40E944C0185E090E00E94C3
:100E9000320360E070E08AE794E40E944C0184E051
:100EA00090E00E94320380E090E061E070E040E07A
:100EB00050E00E949B0260E070E08AE794E40E94A8
:100EC0004C0180E090E061E070E040E050E00E9482
:100ED000CF0283E090E00E94320360E070E08AE796
:100EE00094E40E944C0185E090E00E94320380E08F
:100EF00061E00E9446028FEB90E00E94390260E0C0
:100F000070E88BEB94E40E944C0189E061E00E9460
:100F1000460286E090E0F101958384830E941711D8
:100F200089839A83D10117961C921E92169718C036
:100F300009811A81020F131F0E943502F801808374
:100F400060E070E088EC92E40E944C01D7011696B4
:100F50008D919C911797019617969C938E93169757
:100F6000F70126813781848195812817390704F399
:100F700080E090E061E070E041E050E00E94CF024C
:100F800060E070E88BEB94E40E944C0183E090E019
:100F90000E94320380E090E00E94030360E070E86A
:100FA0008BEB94E40E944C0180E061E00E944602D9
:100FB0008E010F5F1F4F18010E94FE0484E090E035
:100FC0000E94320389E060E00E9446020E94FE0413
:100FD00088E061E00E94460285E090E00E943203D2
:100FE0000E94FE0481E060E00E9446020E94FE042E
:100FF00089819A810E94D71183E090E00E94320398
:1010000060E070E88BEB94E40E944C0184E190E096
:101010006FE070E041E050E00E949B0284E190E0CC
:101020006FE070E041E050E00E94CF0281E090E08C
:101030000E94030384E090E00E94320360E070E0CD
:101040008AE794E40E944C0184E190E06FE070E054
:1010500041E050E00E94CF0284E190E06FE070E058
:1010600041E050E00E949B0283E090E00E94320346
:1010700082E090E00E94030360E070E08AEF93E476
:101080000E944C010E94500281E090E00E943203D5
:10109000A1C0C6010E943203F9C0F2E3CF16D10409
:1010A00009F472C083E3C816D104D4F4A1E1CA16CE
:1010B000D10409F476C0B2E1CB16D10434F4E0E1F6
:1010C000CE16D10409F086C07CC0F0E2CF16D10460
:1010D00009F460C081E2C816D10409F07BC05DC08C
:1010E000A6E3CA16D10409F44AC0B7E3CB16D1046B
:1010F00034F4E4E3CE16D10409F06CC048C0F7E341
:10110000CF16D104C9F18BE3C816D10409F062C02F
:1011100089E08093F2001092F3001092F400109294
:10112000F10060E070E08AE794E40E944C0185E001
:101130008093F20086E08093F30087E08093F400D0
:1011400088E08093F10060E070E08AE794E40E9418
:101150004C0181E08093F20082E08093F30083E011
:101160008093F40084E08093F10060E070E08AE70F
:1011700094E40E944C012EC088EE93E002C084E605
:1011800090E00E942A0526C08AE090E0FACF81E034
:1011900090E0F7CF83B7856002C083B78A7F83BFB3
:1011A00019C0D1011A968D919C911B9718962D917B
:1011B0003C911997821B930B1B969C938E931A97C5
:1011C00009C0F1018285938520853185820F931FA7
:1011D000938782871701D5018D919C915BC0B1E205
:1011E000CB16D10409F44AC0E2E2CE16D10474F45D
:1011F000F1E1CF16D10469F180E2C816D104C1F142
:10120000A0E1CA16D10409F041C029C0B4E3CB164D
:10121000D104E1F0E5E3CE16D1042CF4F2E3CF16CD
:10122000D104A1F510C086E3C816D10439F0A7E3B4
:10123000CA16D10459F588EE93E002C084E690E026
:101240000E942A0523C08AE090E0FACF81E090E076
:10125000F7CF80914F01F1019085891B06C08091E5
:101260004F01D10118969C91890F80934F010EC0B8
:1012700080915001F1019085890F06C08091500145
:10128000D10118969C91891B809350011701F5019B
:1012900080819181B6010E947E05F3E2CF16D104D0
:1012A00009F456C084E2C816D1045CF4AEE0CA1654
:1012B000D10409F45FC0B2E2CB16D10409F05FC0DB
:1012C0003DC0E6E2CE16D10451F0FEE2CF16D104C5
:1012D000D1F184E2C816D10409F051C042C00E9485
:1012E000500287EC90E00E94390280E061E00E94A9
:1012F000460282ED90E00E94390260E070E08AE7E9
:1013000093E40E944C0184E190E06FE070E041E0E2
:1013100050E00E949B0284E190E06FE070E041E0C9
:1013200050E00E94CF020E9450021701D5018D911A
:101330009C9166E270E00E947E0521C080E090E012
:1013400061E070E009C080E090E061E070E00DC015
:1013500084E190E06FE070E041E050E00E949B0289
:101360000EC084E190E06FE070E041E050E00E9448
:10137000CF0205C081E090E0F701938382830F9054
:101380000F900F900F90CF91DF911F910F91FF90D1
:10139000EF90DF90CF90BF90AF903F902F90089547
:1013A0002F923F92EF92FF920F931F93CF93DF9371
:1013B0008C017B01E101FC0180819181892B41F548
:1013C000CB010197039720F571836083CB010E94C5
:1013D0005F05F801808191818230910559F0833059
:1013E000910561F00197A1F481E090E0B7010E94BE
:1013F0007E050EC083B7856083BF05C0C80161E06C
:1014000070E00E940A06C80164E370E00E940A06C8
:101410008A819B81892B29F41E01C801B7010E9492
:101420000A068A819B81019799F41B821A82F8012E
:101430001182108283B78A7F83BF80E090E00E9490
:101440005F051E01F80180819181B7010E947E0530
:10145000DF91CF911F910F91FF90EF903F902F90D0
:1014600008952F923F92FF920F931F93DF93CF9394
:10147000CDB7DEB72C970FB6F894DEBF0FBECDBF49
:101480001C861B861A8619861A82198281E090E0D2
:101490009C838B838F9A0E94800A0E9460020E9424
:1014A00039040E944F0078948E010F5F1F4F18017E
:1014B000C80160E070E00E94D009F02E012F1FEFFC
:1014C0000E94A60380914E018823D1F380914B01A5
:1014D0008823B1F78EB5887F8EBD60914C012F2C8B
:1014E000302E8F2D902F70E00E94D00910924E0167
:1014F00010934C0110934B018EB585608EBDE0CFEB
:1015000081B38C6081BB82B38C6082BB85B58860FF
:1015100085BD85B5856085BD8AE083BD89B7806856
:1015200089BF08951F920F920FB60F9211248F93C7
:101530009F939091F00080914F01981710F0929A2C
:1015400001C0929880915001981710F0939A01C0B1
:1015500093989F5F9093F0009F918F910F900FBE93
:101560000F901F901895EF92FF920F931F937B019E
:101570008C0120E030E040E05FE40E945F0E8823B1
:101580008CF0C801B70120E030E040E05FE40E9449
:101590002B0C0E94BF0E9B01AC01205030404040FC
:1015A000504806C0C801B7010E94BF0E9B01AC01A4
:1015B000B901CA011F910F91FF90EF900895A0E02B
:1015C000B0E0E5EEFAE00C94E010DC012B01FA014A
:1015D0009C91923008F439C1EB018881823008F483
:1015E00033C1943069F4843009F02FC111969C9175
:1015F00011978981981709F428C1ACEDB0E025C195
:10160000843009F421C18230A9F4923009F01DC15F
:101610009A01AD0188E0EA010990AE01E901099261
:101620009E018150C1F7E201898111969C91892325
:10163000818308C1923009F407C112962D903C9025
:101640001397EB018A819B811496AD90BD90CD904C
:10165000DC901797EC80FD800E811F819101281B83
:10166000390BB90137FF04C066277727621B730B5C
:10167000603271050CF061C0121613066CF537016B
:101680004801062E04C096948794779467940A9430
:10169000D2F721E030E040E050E004C0220F331FD9
:1016A000441F551F6A95D2F72150304040405040AA
:1016B0002E213F214023512321153105410551059C
:1016C00021F021E030E040E050E079018A01E62895
:1016D000F728082919293CC0232BD1F1260E371EE3
:1016E00035014601062E04C096948794779467943A
:1016F0000A94D2F721E030E040E050E004C0220F2D
:10170000331F441F551F6A95D2F721503040404087
:1017100050402A213B214C215D21211531054105F5
:10172000510521F021E030E040E050E059016A012C
:10173000A628B728C828D9280BC0821593052CF0F5
:101740001C01AA24BB24650103C0EE24FF248701E9
:1017500011969C91D20111968C91981709F445C06D
:10176000992339F0A80197012A193B094C095D0911
:1017700006C0A60195012E193F09400B510B57FDDC
:1017800008C01182338222822483358346835783A3
:101790001DC081E081833382228288279927DC0162
:1017A000821B930BA40BB50B84839583A683B7830D
:1017B0000DC0220F331F441F551F248335834683DA
:1017C000578382819381019793838283248135811A
:1017D00046815781DA01C9010197A109B1098F5FDB
:1017E0009F4FAF4FBF4328F30BC0918333822282B8
:1017F000EA0CFB1C0C1D1D1DE482F5820683178379
:1018000083E08083248135814681578157FF1AC048
:10181000C901AA2797FDA095BA2F81709070A0707A
:10182000B0705695479537952795822B932BA42B0F
:10183000B52B84839583A683B78382819381019698
:1018400093838283DF0101C0D201CD01CDB7DEB722
:10185000E2E10C94FC10A0E2B0E0E1E3FCE00C94C7
:10186000EC1069837A838B839C832D833E834F8323
:101870005887E9E0EE2EF12CEC0EFD1ECE0101960C
:10188000B7010E94E80F8E010F5E1F4FCE01059633
:10189000B8010E94E80F8A8991E089278A8BC701E5
:1018A000B801AE01475E5F4F0E94DF0A0E94130F2E
:1018B000A096E6E00C940811A0E2B0E0E2E6FCE0BD
:1018C0000C94EC1069837A838B839C832D833E83F5
:1018D0004F835887F9E0EF2EF12CEC0EFD1ECE0160
:1018E0000196B7010E94E80F8E010F5E1F4FCE01D7
:1018F0000596B8010E94E80FC701B801AE01475E26
:101900005F4F0E94DF0A0E94130FA096E6E00C943E
:101910000811A0E2B0E0EFE8FCE00C94E01069836D
:101920007A838B839C832D833E834F835887CE019C
:101930000196BE01675F7F4F0E94E80FCE010596BA
:10194000BE016F5E7F4F0E94E80F9985923088F04C
:1019500089898230C8F0943019F4823051F404C07F
:10196000843029F4923081F48CED90E0C6C092303E
:1019700049F420E09A858A89981321E02A87CE01CC
:101980000996BBC0823049F420E09A858A89981371
:1019900021E02A8BCE014196B0C02D843E844F8435
:1019A00058886D887E888F88988CEE24FF24870164
:1019B000AA24BB24650140E050E060E070E0E0E074
:1019C000F0E0C10181709070892BE9F0E60CF71C02
:1019D000081D191D9A01AB012A0D3B1D4C1D5D1DF3
:1019E00080E090E0A0E0B0E0E614F70408051905F7
:1019F00020F481E090E0A0E0B0E0BA01A901480F36
:101A0000591F6A1F7B1FAA0CBB1CCC1CDD1C97FE38
:101A100008C081E090E0A0E0B0E0A82AB92ACA2A74
:101A2000DB2A3196E032F10549F0660C771C881C00
:101A3000991C5694479437942794C3CFFA85EA8922
:101A40002B893C898B859C85280F391F2E5F3F4F42
:101A500017C0CA0181709070892B61F016950795A7
:101A6000F794E79480E090E0A0E0B0E8E82AF92A53
:101A70000A2B1B2B76956795579547952F5F3F4F00
:101A800077FDE7CF0CC0440F551F661F771F17FD6A
:101A90004160EE0CFF1C001F111F215030404030F0
:101AA00090E0590790E0690790E4790760F32B8F85
:101AB0003C8FDB01CA018F779070A070B0708034CA
:101AC0009105A105B10561F447FD0AC0E114F104D7
:101AD0000105110529F0405C5F4F6F4F7F4F407843
:101AE0001A8EFE1711F081E08A8F4D8F5E8F6F8FF7
:101AF00078A383E0898FCE0149960E94130FA096A8
:101B0000E2E10C94FC10A8E1B0E0E9E8FDE00C94FF
:101B1000E81069837A838B839C832D833E834F8374
:101B20005887B9E0EB2EF12CEC0EFD1ECE0101968C
:101B3000B7010E94E80F8E010F5E1F4FCE01059680
:101B4000B8010E94E80F2985223008F47EC0398947
:101B5000323010F4B8017CC08A859A8989278A8737
:101B6000243011F0223031F4231709F06EC06CEDEF
:101B700070E06EC0343039F41D861E861F86188AC8
:101B80001C861B8604C0323021F484E08987B701AB
:101B90005FC02B853C858B899C89281B390B3C8732
:101BA0002B87ED84FE840F851889AD88BE88CF8889
:101BB000D88CEA14FB040C051D0540F4EE0CFF1C48
:101BC000001F111F215030403C872B8720E030E060
:101BD00040E050E080E090E0A0E0B0E460E070E041
:101BE000EA14FB040C051D0540F0282B392B4A2B69
:101BF0005B2BEA18FB080C091D09B695A79597956C
:101C00008795EE0CFF1C001F111F6F5F7F4F6F3118
:101C1000710531F7DA01C9018F779070A070B0704B
:101C200080349105A105B10561F427FD0AC0E114D6
:101C3000F1040105110529F0205C3F4F4F4F5F4F24
:101C400020782D873E874F87588BBE01675F7F4F77
:101C5000CB010E94130F6896EAE00C940411A8E1EE
:101C6000B0E0E5E3FEE00C94EC1069837A838B83AB
:101C70009C832D833E834F83588789E0E82EF12C87
:101C8000EC0EFD1ECE010196B7010E94E80F8E01F9
:101C90000F5E1F4FCE010596B8010E94E80F89859F
:101CA000823040F08989823028F0C701B8010E9453
:101CB000601001C08FEF6896E6E00C940811A8E16F
:101CC000B0E0E5E6FEE00C94EC1069837A838B8348
:101CD0009C832D833E834F83588789E0E82EF12C27
:101CE000EC0EFD1ECE010196B7010E94E80F8E0199
:101CF0000F5E1F4FCE010596B8010E94E80F89853F
:101D0000823040F08989823028F0C701B8010E94F2
:101D1000601001C08FEF6896E6E00C940811A8E10E
:101D2000B0E0E5E9FEE00C94EC1069837A838B83E4
:101D30009C832D833E834F83588789E0E82EF12CC6
:101D4000EC0EFD1ECE010196B7010E94E80F8E0138
:101D50000F5E1F4FCE010596B8010E94E80F8985DE
:101D6000823040F08989823028F0C701B8010E9492
:101D7000601001C081E06896E6E00C940811ACE0C8
:101D8000B0E0E5ECFEE00C94F01069837A838B837D
:101D90009C83CE010196BE016B5F7F4F0E94E80FCE
:101DA0008D81823061F1823050F1843021F48E8156
:101DB000882351F12EC02F81388537FD20C06E81D8
:101DC0002F3131051CF06623F9F023C08EE190E03D
:101DD000821B930B29853A854B855C8504C05695FB
:101DE0004795379527958A95D2F76623B1F0509598
:101DF0004095309521953F4F4F4F5F4F0EC020E0EB
:101E000030E040E050E009C02FEF3FEF4FEF5FE7D9
:101E100004C020E030E040E050E8B901CA012C964F
:101E2000E2E00C940C11DF92EF92FF920F931F935C
:101E3000FC01E480F58006811781D18080818230A9
:101E400048F480E090E0A0E1B0E0E82AF92A0A2B0B
:101E50001B2BA5C0843009F49FC0823021F4EE24EE
:101E6000FF24870105C0E114F1040105110519F4EF
:101E7000E0E0F0E096C0628173819FEF62387907FD
:101E80000CF05BC022E83FEF261B370B2A313105EF
:101E90002CF020E030E040E050E02AC0B801A7017B
:101EA000022E04C076956795579547950A94D2F708
:101EB00081E090E0A0E0B0E004C0880F991FAA1F65
:101EC000BB1F2A95D2F70197A109B1098E219F2145
:101ED000A023B1230097A105B10521F081E090E096
:101EE000A0E0B0E09A01AB01282B392B4A2B5B2BE9
:101EF000DA01C9018F779070A070B07080349105BD
:101F0000A105B10539F427FF09C0205C3F4F4F4FB1
:101F10005F4F04C0215C3F4F4F4F5F4FE0E0F0E068
:101F20002030A0E03A07A0E04A07A0E45A0710F0EA
:101F3000E1E0F0E079018A0127C06038710564F5BD
:101F4000FB01E158FF4FD801C7018F779070A07057
:101F5000B07080349105A105B10539F4E7FE0DC0DC
:101F600080E490E0A0E0B0E004C08FE390E0A0E067
:101F7000B0E0E80EF91E0A1F1B1F17FF05C01695DB
:101F80000795F794E794319687E016950795F794AF
:101F9000E7948A95D1F705C0EE24FF248701EFEF7F
:101FA000F0E06E2F679566276795902F9F77D794FF
:101FB000DD24D7948E2F8695492F462B582F5D29E7
:101FC000B701CA011F910F91FF90EF90DF90089524
:101FD000FC01DB01408151812281622F6F7770E02B
:101FE000221F2227221F9381892F880F822B282FBF
:101FF00030E0991F9927991F11969C9311972115ED
:102000003105A9F5411551056105710511F482E00D
:1020100037C082E89FEF13969C938E9312979A0194
:10202000AB0167E0220F331F441F551F6A95D1F79C
:1020300083E08C930DC0220F331F441F551F12964F
:102040008D919C911397019713969C938E93129761
:10205000203080E0380780E0480780E4580758F3D4
:1020600014962D933D934D935C93179708952F3FAE
:10207000310579F4411551056105710519F484E0C4
:102080008C93089564FF03C081E08C9312C01C926E
:1020900010C02F57304013963C932E93129783E035
:1020A0008C9387E0440F551F661F771F8A95D1F7E1
:1020B000706414964D935D936D937C931797089578
:1020C0001F93DC01FB019C91923008F447C0808192
:1020D000823008F443C0943051F411961C9184303E
:1020E00099F58181682F70E0611B71093FC08430D0
:1020F00021F0923031F48230B9F18181882389F165
:102100002DC011961C9111978230F1F08181181722
:10211000D9F412962D913C91139782819381821765
:10212000930794F028173907BCF014968D919D9170
:102130000D90BC91A02D24813581468157812817AF
:1021400039074A075B0718F4112341F00AC08217C8
:102150009307A407B50740F4112319F061E070E07C
:1021600005C06FEF7FEF02C060E070E0CB011F9110
:10217000089597FB092E07260AD077FD04D00CD0CE
:1021800006D000201AF4709561957F4F0895F6F7F8
:10219000909581959F4F0895AA1BBB1B51E107C0E5
:1021A000AA1FBB1FA617B70710F0A61BB70B881FE7
:1021B000991F5A95A9F780959095BC01CD01089576
:1021C0002F923F924F925F926F927F928F929F9247
:1021D000AF92BF92CF92DF92EF92FF920F931F9335
:1021E000CF93DF93CDB7DEB7CA1BDB0B0FB6F894E6
:1021F000DEBF0FBECDBF09942A88398848885F8426
:102200006E847D848C849B84AA84B984C884DF8096
:10221000EE80FD800C811B81AA81B981CE0FD11D7A
:102220000FB6F894DEBF0FBECDBFED010895CF937A
:10223000DF93682F792F8230910510F462E070E00F
:10224000A0915301B0915401CA2FDB2FE0E0F0E0E0
:1022500040E050E026C0888199818617970771F485
:102260008A819B81309719F09383828304C0909375
:10227000540180935301EC2FFD2F3BC06817790761
:1022800040F44115510519F08417950710F4482FB3
:10229000592FEC2FFD2F8A819B81282F392FC22F98
:1022A000D32F2097C1F641155105E9F1842F952FC1
:1022B000861B970B049710F4642F752FE0E0F0E075
:1022C00030C08D919C9111978417950711F5641773
:1022D000750789F412968D919C911397309719F098
:1022E0009383828304C09093540180935301EA2F17
:1022F000FB2F329657C0842F952F861B970BEA2F02
:10230000FB2FE80FF91F6193719302978D939C93B4
:1023100049C0EA2FFB2F82819381282F392FA22FCA
:10232000B32F109771F68091510190915201892B32
:1023300041F48091E6009091E700909352018093E0
:1023400051014091E8005091E9004115510541F4D7
:102350004DB75EB78091E4009091E500481B590BA2
:10236000209151013091520124173507C8F4842F70
:10237000952F821B930B8617970790F0462F572FA8
:102380004E5F5F4F8417950758F0420F531F5093CD
:10239000520140935101E22FF32F6193719302C0D8
:1023A000E0E0F0E08E2F9F2FDF91CF910895CF9343
:1023B000DF93009709F456C0C82FD92F22971B82AC
:1023C0001A82A0915301B0915401109711F140E08D
:1023D00050E0AC17BD0710F1BB83AA83EC2FFD2F93
:1023E00021913191E20FF31FAE17BF0779F48D9160
:1023F0009C911197280F391F2E5F3F4F39832883F7
:1024000012968D919C9113979B838A834115510558
:1024100081F4D0935401C093530124C012968D913E
:102420009C9113974A2F5B2F009719F0A82FB92F73
:10243000D0CFE42FF52FD383C28321913191E20FC6
:10244000F31FCE17DF0771F488819981280F391F98
:102450002E5F3F4FE42FF52F318320838A819B81AC
:1024600093838283DF91CF910895E62FF72F2E2F4C
:102470003F2FE8944230C4F04532B4F44A3029F496
:1024800097FB1EF4909581959F4F642F772784DEEC
:10249000805D8A330CF0895D8193862F972F00979A
:1024A000A1F716F45DE251931082822F932F00C0A2
:1024B000A82FB92FE82FF92F672F71917723E1F714
:1024C000329704C07C916D9370836291AE17BF0701
:0824D000C8F30895F894FFCF52
:1024D80001200028000040145450726F6772616D2B
:1024E8003A20005779626965727A3A0031202D20C6
:1024F80033006472756769204E61706973004154D6
:102508006D65676133322070726F6772616D004468
:1025180061726975737A204D616B617265772E00FF
:10252800576974616A21002844294172656B004328
:102538007A7974616D3A004B616C69627261636AA1
:102548006100656B72616E752E2E2E000000000012
:0A2558000000000020005501000003
:00000001FF
