:100000000C9430000C944D000C944D000C944D0059
:100010000C94940C0C944D000C945A030C944D00C9
:100020000C944D000C944D000C9464000C944D0005
:100030000C944D000C944D000C944D000C944D000C
:100040000C944D000C944D000C944D000C944D00FC
:100050000C944D00C0F9A4B0999282D88090FFBF53
:1000600011241FBECFE5D8E0DEBFCDBF11E0A0E672
:10007000B0E0E2E7F2E202C005900D92A830B107CD
:10008000D9F721E0A8E0B1E001C01D92AE31B2077E
:10009000E1F70E94C10C0C9437110C9400008FEF13
:1000A00084BB85BB87B38F6087BB88B38F6088BBF9
:1000B00083B7886083BF83B7856083BF8EE48CBFBE
:1000C00089B7826089BF08951F920F920FB60F9271
:1000D00011248F939F93EF93FF9388B38F6088BB16
:1000E00080916000813019F4E09110010EC08230DF
:1000F00019F4E091110109C0843019F4E091120162
:1001000004C0883039F4E0910F01F0E0EC5AFF4F61
:10011000E491E5BB98B38091600080958F70907FEB
:10012000892B88BB80916000880F893008F081E0BE
:1001300080936000FF91EF919F918F910F900FBE80
:100140000F901F901895CF93DF93FC01815F984D1E
:100150008F319E4410F0E0E0F0E0EF01F7FF04C0C3
:10016000CC27DD27CE1BDF0B9E014AE050E081E06B
:1001700090E06AE0C417D50744F00196DA016A9F5F
:10018000A0016B9F500D1124F5CF843091059CF098
:10019000CE0168EE73E00E94410D60931001409122
:1001A000100188E19CEF489F9001499F300D112478
:1001B0002C0F3D1F06C04AE040931001833091058B
:1001C00079F4C90164E670E00E94410D6093110169
:1001D00080911101B4E68B9F20193109112404C0CC
:1001E00040931101019779F0C9016AE070E00E9423
:1001F000410D60931201809112019AE0899F2019AC
:100200003109112402C04093120120930F01EF2BFA
:1002100019F48AE080930F01DF91CF910895009740
:1002200041F0EFE9FFE03197F1F700C000000197DE
:10023000F6CF0895009731F025E02A95F1F70000F8
:100240000197F8CF08958F929F92AF92BF92CF926D
:10025000DF92EF92FF924B015C0120E030E04AE731
:1002600055E40E94B70E6B017C0120E030E040E8CD
:100270005FE30E94690D87FD24C020E03FEF4FE758
:1002800057E4C701B6010E94B30E1816ACF420E083
:1002900030E040E251E4C501B4010E94B70E0E9473
:1002A000D50D20E931E06115710581F0C901019793
:1002B000F1F761507109F7CFC701B6010E94D50D62
:1002C00002C061E070E0CB010197F1F7FF90EF9081
:1002D000DF90CF90BF90AF909F908F9008958F92B6
:1002E0009F92AF92BF92CF92DF92EF92FF924B011B
:1002F0005C012BEA3AEA4AEA50E40E94B70E6B012D
:100300007C0120E030E040E85FE30E94690D87FD5A
:1003100021C020E030E04FE753E4C701B6010E945E
:10032000B30E181694F420E030E04AE754E4C50117
:10033000B4010E946D0DFF90EF90DF90CF90BF90C1
:10034000AF909F908F900C942301C701B6010E943B
:10035000D50D01C061E06A95F1F7FF90EF90DF9055
:10036000CF90BF90AF909F908F90089580FF02C074
:10037000DC9A01C0DC9881FF02C0DD9A01C0DD98E3
:1003800082FF02C0DE9A01C0DE9883FF02C0DF9ABE
:100390000895DF98089589B382958170CD99826020
:1003A000CE998460CF9988600895CF93DF93D498D5
:1003B000D598D698D798DA9ADB9A0E94CB0190E12B
:1003C000899FE0011124DB98DB9A0E94CB01DB9826
:1003D000E7ECF0E03197F1F700C000008C2BDF91E3
:1003E000CF910895D9980C94D501CF93C82FD49A62
:1003F000D59AD69AD79ADA98DB9A82958F700E940E
:10040000B601DB98DB9A8C2F0E94B601DB980E9424
:10041000F20187FDFCCFCF910895D9980C94F50196
:10042000D99A0C94F501D99A0C94D501CF93DF9306
:10043000EC018991882319F00E941002FACFDF9114
:10044000CF91089590E4699F800D112480680C94E9
:100450000D0281E00E940D028FE39FE10197F1F709
:1004600000C00000089582E00E940D028FE39FE12A
:100470000197F1F700C000000895CF93D49AD59A60
:10048000D69AD79AD39AD19AD29A8FE59AEE0197B3
:10049000F1F700C00000D998DB98DA98C3E0DB9A46
:1004A00083E00E94B601DB988FE19EE40197F1F7AB
:1004B00000C00000C15099F7DB9A82E00E94B601AB
:1004C000DB988FE99FE00197F1F700C0000088E218
:1004D0000E940D0288E00E940D0281E00E940D0240
:1004E00086E00E940D028CE0CF910C940D02CF9318
:1004F000DF93CDB7DEB761970FB6F894DEBF0FBEBE
:10050000CDBF4AE0BE016F5F7F4F0E949F100E94E7
:10051000160261960FB6F894DEBF0FBECDBFDF9115
:10052000CF910895CF93DF93CDB7DEB761970FB624
:10053000F894DEBF0FBECDBF40E1BE016F5F7F4FBD
:100540000E949F100E94160261960FB6F894DEBFBB
:100550000FBECDBFDF91CF910895CF92DF92EF9282
:10056000FF920F931F93CF93DF938C016B017A015E
:10057000C0E0D0E0CC15DD0581F0E114F10411F00C
:100580008CE101C084E10E940D020115110519F0F2
:10059000C8010E940F012196EDCFDF91CF911F91ED
:1005A0000F91FF90EF90DF90CF900895CF92DF9260
:1005B000EF92FF920F931F93CF93DF938C016B0108
:1005C0007A01C0E0D0E0CC15DD0581F0E114F10442
:1005D00011F088E101C080E10E940D0201151105B2
:1005E00019F0C8010E940F012196EDCFDF91CF9144
:1005F0001F910F91FF90EF90DF90CF9008950F9390
:100600001F93CF93DF93EC018230910520F082306D
:100610009105D9F40FC080E80E940D0208E210E0B5
:1006200080E20E9410020150110901151105C1F765
:10063000CD2B59F480EC0E940D02C8E2D0E080E29C
:100640000E94100221972097D1F7DF91CF911F913F
:100650000F9108958330910589F030F48130910530
:1006600049F0029749F008958430910549F00597C3
:1006700049F008958CE007C088E005C08EE003C013
:100680008DE001C08FE00C940D0208958E98969A2B
:100690008EB585608EBD8EB58F7B8EBD1092160196
:1006A00089B7806289BF1092170187B3807187BBB9
:1006B000C49A08951F920F920FB60F9211242F9390
:1006C0003F938F939F9386B597B520910C013091FE
:1006D0000D01821B930B26B537B530930D01209386
:1006E0000C012EB530E423272EBD8F31910510F07B
:1006F0001092160120911601222319F021E0209377
:100700000B0120911601211111C010920A011092C3
:100710000901109208012EB520642EBD209116010A
:100720002F5F2093160122E020930B0120910B01F3
:10073000213009F05FC09C012A5031092531310573
:1007400010F010920B0120910B01213009F052C0E2
:10075000429728F0809116018F5F80931601809157
:100760001601823008F441C08091160180FD3DC021
:100770008091090190910A01880F991F90930A01B5
:10078000809309010EB406FE05C0816090930A01B2
:1007900080930901809108018F5F809308018D305B
:1007A00020F18091170181111BC080910901909166
:1007B0000A01282F2F73209315019C01207C37708C
:1007C000689415F8369527951694E1F7209314014F
:1007D00088279870892F8695869586958093130132
:1007E00010920B0181E080931701809116018F5FB9
:1007F0008093160180910B01811105C010921601A2
:100800008EB58F7B8EBD9F918F913F912F910F90D1
:100810000FBE0F901F90189586B382958F7091E050
:100820008927817090E00895979A60E070E080E8F1
:100830009FE30E942301979808952F923F92CF93B0
:10084000DF93E101EA81FB81158A148AEA81FB8149
:10085000848995892089318982179307ACF4E881CE
:10086000F981E80FF91F80810E94100260E070E0BA
:1008700088E492E40E942301EA81FB8184899589BE
:100880000196958B848BE2CFDF91CF913F902F9093
:100890000895979A0E942301979808952F923F9266
:1008A0000F931F93CF93DF938C01E1019987888782
:1008B00080E090E00E94FF021D8A1C8A8C899D893D
:1008C000883291059CF460E00E942202C8010E94D7
:1008D000770261E08C890E942202C8010E9477029F
:1008E0008C899D8908969D8B8C8BE8CF60E070E0A9
:1008F0008AEF93E4DF91CF911F910F913F902F905A
:100900000C9423012F923F920F931F93CF93DF9369
:100910008C01E1010E9429028BEB90E00E941602FB
:10092000C8010E9477021D8A1C8A8C899D890597BF
:1009300074F460E070E080E291E40E9423010E9480
:1009400014048C899D8901969D8B8C8BEECF60E081
:1009500070E08AEF93E40E942301DF91CF911F9111
:100960000F913F902F900C9429022F923F92EF927B
:10097000FF920F931F93CF93DF93E1018130910595
:10098000D1F1FCF4892B09F049C180E090E00E948C
:10099000FF0260E080E00E94220285EC90E00E946D
:1009A000160261E080E00E9422028EEC90E0DF916E
:1009B000CF911F910F91FF90EF903F902F900C944B
:1009C000160282309105F1F1039709F027C180E00A
:1009D00090E00E94FF0260E080E00E94220261E05D
:1009E00080E0DF91CF911F910F91FF90EF903F90AA
:1009F0002F900C94220280E090E00E94FF0260E0C1
:100A000080E00E9422028091150190E00E9477020E
:100A100060E086E00E9422028091140190E00E9432
:100A2000770261E080E00E9422028091130190E051
:100A3000DF91CF911F910F91FF90EF903F902F90FA
:100A40000C94770280E090E00E94FF0260E080E07A
:100A50000E9422028A899B890E947702E888F9888D
:100A6000C701880F991F0E941A0F8C018E859F85E0
:100A7000181619061CF0019609F0C5C01D861C86C3
:100A800040E351E38C859D858E159F057CF42A8576
:100A90003B85F801E80FF91F8217930711F4508383
:100AA00001C0408301969D878C87ECCF60E084E095
:100AB0000E9422022C893D8944E6429FC001439F47
:100AC000900D11246AEF70E00E94410DCB010E944D
:100AD000770284ED90E00E9416021D861C868889AC
:100AE00099896AE02C853D85281739070CF04BC0A1
:100AF000F801E20FF31F40814133E1F42115310584
:100B000021F44A894093100139C02130310521F484
:100B10004A894093110132C02230310521F44A89BB
:100B2000409312012BC02330310541F54A8940938F
:100B30000F0124C02115310521F04A895B89452B1D
:100B400011F4609310012130310521F04A895B894D
:100B5000452B11F4609311012230310521F04A89AF
:100B60005B89452B11F4609312012330310521F08C
:100B70004A895B89452B11F460930F012F5F3F4F2A
:100B80003D872C87AFCF8E859F850196E1F51D8629
:100B90001C868BE0F82E2C853D858889998928173D
:100BA00039077CF5F801E20FF31F8081803321F0D3
:100BB0008A899B89892BF9F42115310519F4F09262
:100BC000100111C02130310519F4F09211010BC050
:100BD0002230310519F4F092120105C0233031059D
:100BE00011F4F0920F010E94140460E070E088ECB0
:100BF00092E40E9423018C859D8501969D878C87B8
:100C0000CACF1F861E86C801DF91CF911F910F9119
:100C1000FF90EF903F902F900C94B20FDF91CF9107
:100C20001F910F91FF90EF903F902F9008952F927A
:100C30003F924F925F926F927F928F929F92AF926C
:100C4000BF92CF92DF92EF92FF920F931F93CF93B9
:100C5000DF93CDB7DEB7C455D1090FB6F894DEBF28
:100C60000FBECDBF6C017B014A0181018EB5887F2B
:100C70008EBDD6018D919C911197892B09F082C070
:100C8000CB010197039708F07DC06D937C93CB0156
:100C90000E948204F601808191818230910549F0A1
:100CA00083309105D9F0019709F06CC081E090E0A4
:100CB00067C083B7856083BF84E090E0D801519618
:100CC0009C938E9350978FEF9FEF1F969C938E93DC
:100CD0001E9755961C921E92549744C00E9414046D
:100CE000D6018D919C918130910581F034F4892B4E
:100CF000D9F4180180E090E015C08230910579F0B8
:100D0000039791F4180183E090E00CC081E090E03B
:100D10000E942A031801F6018081918103C0180105
:100D200082E090E00E94B5040E941404D6018D91E7
:100D30009C918130910591F034F4892B19F51801BB
:100D400080E090E01DC08230910571F00397D1F4EE
:100D5000180181E090E00E944E040FC084E390E00F
:100D60000E942A03180109C0180181E090E00E9446
:100D70004E04D6018D919C9103C0F6018081918132
:100D80000E94B504D80114968D919C911597892BDA
:100D900009F086C565961FAF0EAF65970E941404D3
:100DA000F601808191818130910509F462C31CF4C0
:100DB000892B49F003C58230910509F45EC303977E
:100DC00009F4ADC4FBC4FCE0EF16F10409F4F7C16B
:100DD00069E2E616F10409F047C30E94290288E29D
:100DE00090E0D80151969C938E93509780E5EBE666
:100DF000F0E0DE01119601900D928A95E1F784E012
:100E000090E00E941A0F5C01F801158A148A48E2EA
:100E1000542EF80164887588F2E06F167104D4F5D9
:100E200080E590E00E941A0FF301EE0FFF1FEA0D1C
:100E3000FB1D91838083D8011F961C921E921E97E2
:100E4000569CA001579C500D1124F801268537852A
:100E500028323105B4F4DC01A20FB31FFA01E20F0E
:100E6000F31F61E070E06C0F7D1FE60FF71F6081DC
:100E70006C932F5F3F4FD8011F963C932E931E9784
:100E8000E4CFFFEF6F1A7F0AD80155967C926E92DD
:100E90005497BFCFD80155961C921E925497D801F3
:100EA00054968D919C915597883291057CF4D5018B
:100EB000ED91FC91E80FF91F80810E941002F8016A
:100EC000848995890196958B848BE9CF61E080E0D8
:100ED0000E942202F801158A148AD80154968D9135
:100EE0009C915597883291058CF4D5011296ED911D
:100EF000FC911397E80FF91F80810E941002F801FE
:100F0000848995890196958B848BE7CF88E290E060
:100F100051969C938E93509781E090E01F969C93FE
:100F20008E931E97F80186859785892B09F416C143
:100F300084E090E00E941A0F3C01F801158A148A9F
:100F4000D80154964D905C905597B2E04B165104E1
:100F5000BCF4D80150968D919C915197880F991FA0
:100F60000E941A0FF201EE0FFF1FE60DF71D91838D
:100F70008083BFEF4B1A5B0AF801558A448AE0CFA1
:100F80000E943302F801158A148AF8018489958930
:100F90002089318982179307A4F4D3014D905C9086
:100FA000480E591E0E941302F2018083D801549604
:100FB0008D919C915597019655969C938E9354973D
:100FC000E4CF61E080E00E942202D80155961C9295
:100FD0001E925497D80154968D919C915597509696
:100FE0002D913C9151978217930784F4F30142802D
:100FF0005380480E591E0E941302D2018C93F801AF
:10100000848995890196958B848BE4CF0E9429026F
:10101000F801158A148A20893189F8018489958913
:101020008217930744F5F301A081B181A80FB91F7E
:10103000F50160817181680F791F5C91DB014C9132
:1010400054130FC0F301A281B381A80FB91FF5019A
:1010500062817381680F791F5C91DB014C91541799
:1010600019F0F801178616860196D80155969C93BB
:101070008E935497D2CF0E940C04892B29F0D8016B
:101080001F961C921E921E97F80186859785892BC4
:1010900031F4D80155961C921E92549742C0F80123
:1010A000158A148AD80154968D919C915597509623
:1010B0002D913C915197821793077CF4D301ED91C8
:1010C000FC91E80FF91F80810E941002F8018489C9
:1010D00095890196958B848BE5CF61E080E00E9435
:1010E0002202F801158A148AD80154968D919C9198
:1010F000559750962D913C915197821793074CF636
:10110000D3011296ED91FC911397E80FF91F80819E
:101110000E941002F801848995890196958B848B31
:10112000E3CFD80154964D905C905597B2E04B16A2
:10113000510484F4F201EE0FFF1FE60DF71D8081CC
:1011400091810E94B20FBFEF4B1A5B0AF801558ADA
:10115000448AE7CFC3010E94B20FE4CE158A148AF5
:10116000F80164887588F2E06F16710494F4F30155
:10117000EE0FFF1FEA0DFB1D808191810E94B20FCF
:10118000FFEF6F1A7F0AD80155967C926E925497A2
:10119000E7CFC5010E94B20F0E94140460E070E026
:1011A00080E291E40E9423010E94140460E070E058
:1011B00080E291E40E9423010E94140455C10E9420
:1011C000290284E090E00E942A0361E089E00E9405
:1011D000220286ED90E00E94160260E070E08AEF45
:1011E00093E40E9423010E9433028DED90E00E945F
:1011F000160260E070E08AEF93E40E94230141E070
:1012000050E061E070E080E090E00E94AD0260E0BC
:1012100070E08FE294E40E94230182E090E00E945B
:101220002A0360E070E08FE294E40E94230181E0F1
:1012300090E00E942A0360E070E08FE294E40E9454
:10124000230182E090E00E942A0360E070E08FE2D8
:1012500094E40E94230185E090E00E942A0360E06C
:1012600070E08AE794E40E94230184E090E00E9409
:101270002A0340E050E061E070E080E090E00E94EE
:10128000AD0260E070E08AE794E40E94230140E050
:1012900050E061E070E080E090E00E94D60283E0E0
:1012A00090E00E942A0360E070E08AE794E40E94E4
:1012B000230185E090E00E942A0361E080E00E9423
:1012C000220289EE90E00E94160260E070E88BEB4B
:1012D00094E40E94230161E089E00E94220286E0FA
:1012E00090E0D80151969C938E9350970E941A0FCC
:1012F00063969FAF8EAF6397F801158A148AD80161
:1013000054968D919C91559750962D913C91519763
:1013100082179307BCF46396AEACBFAC6397A80E7C
:10132000B91E0E941302D5018C9360E070E088EC36
:1013300092E40E942301F801848995890196958B96
:10134000848BDDCF41E050E061E070E080E090E030
:101350000E94D60260E070E88BEB94E40E942301C7
:1013600083E090E00E942A0380E090E00E94FF0268
:1013700060E070E88BEB94E40E94230161E080E080
:101380000E942202FE01EF5AFF4F1F010E941D041E
:1013900084E090E00E942A0360E089E00E9422023B
:1013A0000E941D0461E088E00E94220285E090E036
:1013B0000E942A030E941D0460E081E00E94220234
:1013C0000E941D0463968EAD9FAD63970E94B20F7D
:1013D00083E090E00E942A0360E070E88BEB94E4E5
:1013E0000E94230141E050E06FE070E084E190E072
:1013F0000E94AD0241E050E06FE070E084E190E0D7
:101400000E94D60281E090E00E94FF0284E090E01A
:101410000E942A0360E070E08AE794E40E942301BE
:1014200041E050E06FE070E084E190E00E94D6027D
:1014300041E050E06FE070E084E190E00E94AD0296
:1014400083E090E00E942A0382E090E00E94FF0285
:1014500060E070E08AEF93E40E9423010E94290279
:1014600081E090E00E942A031801F60180819181B9
:10147000A3C1C7010E942A039BC1B9E2EB16F10484
:1014800009F448C03CF5F1E1EF16F10409F459C143
:10149000A4F47EE0E716F10409F463C180E1E816E4
:1014A000F10409F085C1F80182899389208531858D
:1014B000820F931F938B828B7BC190E2E916F1041C
:1014C00009F43BC1A1E2EA16F10409F071C183B746
:1014D0008A7F35C1B6E3EB16F10409F42AC15CF446
:1014E000F2E3EF16F10409F45AC164E3E616F104DD
:1014F00009F459C15DC17BE3E716F10409F4DCC0CE
:1015000084E6E816F10431F097E3E916F10409F4F2
:1015100042C14EC181E090E0D80155969C938E93D4
:1015200054971F969C938E931E976EEEA62E62E0A4
:10153000B62E6DEC7CEC8CE49EE30E944904F8012D
:10154000848995890196958B848B1801D6018D919C
:101550009C910E94B504F80164897589C5010E94B7
:10156000410D665F7F4F882777FD8095982F0E94F9
:10157000030E0E9423010E940C04892B41F0D80124
:1015800054968D919C9155978A3F910591F660E014
:1015900070E088E493E40E94230144244394512C96
:1015A00044EC642E49E0742E57E0A52EB12CF801CE
:1015B00084899589019709F458C00E948F1066E0CC
:1015C00070E00E94410D0196F80197878687578247
:1015D0004682D80116962D913C9117971E968D91B3
:1015E0009C911F9754966D917C9155978217930704
:1015F000ACF1C3010E94410DCB010196B501621B04
:10160000730B0E94410D882777FD8095982F0E94CB
:10161000030E0E9423010E948F10D80150966D91F5
:101620007C9151970E94410DF801938782878681B2
:101630009781938B828B1801D6018D919C910E948A
:10164000B50460E070E080E09FE30E944904F80187
:1016500086819781019697838683BBCF61507109FC
:1016600055967C936E935497A2CF82E090E0958B31
:10167000848B868197818730910584F467E070E0E0
:10168000681B790B83EE94E00E94410D882777FD5B
:101690008095982F0E94030E0E9423018FEF9FEFE9
:1016A000D8011F969C938E931E971801F601808196
:1016B00091810E94B5047CC088E293E20E94A3005D
:1016C00060E070E08AE794E40E9423018DE392E2F7
:1016D0000E94A30060E070E08AE794E40E94230186
:1016E00081EE90E10E94A30060E070E08AE794E45C
:1016F0000E94230185E89FEF0E94A30060E070E054
:101700008AE794E40E94230188E19CEF0E94A300F1
:1017100060E070E08AE794E40E94230149C0B4E3EA
:10172000EB16F10409F43FC06CF166E3E616F10430
:1017300071F5180184E690E039C083B7856083BFF6
:1017400037C0D80152968D919C91539718962D9140
:101750003C911997821B930B53969C938E935297AF
:1017600027C0F1E08F16910419F583B7856083BF18
:101770008AE080931001809311018093120180937D
:101780000F0116C0F2E3EF16F10449F011C077E340
:10179000E716F10469F4180188EE93E007C0180118
:1017A0008AE090E003C0180181E090E00E944E04BE
:1017B0001801D6018D919C910E94B504B3E2EB16FD
:1017C000F10409F45AC08CF4FEE0EF16F10409F4B8
:1017D00060C062E2E616F10409F062C041E050E048
:1017E00061E070E080E090E04EC076E2E716F10440
:1017F00081F08EE2E816F104C9F194E2E916F104F1
:1018000009F04EC041E050E06FE070E084E190E00C
:101810003DC00E94290281EF90E00E94160261E023
:1018200080E00E9422028DEF90E00E94160260E0AC
:1018300070E08AE793E40E94230141E050E06FE00A
:1018400070E084E190E00E94AD0241E050E06FE082
:1018500070E084E190E00E94D6020E942902180103
:10186000D6018D919C910E94B5041AC041E050E0D0
:1018700061E070E080E090E009C041E050E06FE09E
:1018800070E084E190E00E94AD020AC00E94D6029E
:1018900007C0B1E08B16910419F4F8019582848297
:1018A000D80114968D919C9115970197A1F41596E6
:1018B0001C921E921497F6011182108283B78A7FC0
:1018C00083BF1801808191810E948204D6018D918D
:1018D0009C910E94B5048EB585608EBDCC5ADF4FB9
:1018E0000FB6F894DEBF0FBECDBFDF91CF911F9131
:1018F0000F91FF90EF90DF90CF90BF90AF909F90AF
:101900008F907F906F905F904F903F902F900895B1
:1019100085B5886085BD85B5876085BD8AE083BD56
:1019200089B7806889BF08951F920F920FB60F92F2
:1019300011242F933F934F935F936F937F938F93D4
:101940009F93AF93BF93EF93FF9380910E0181110B
:1019500002C00E948F1080910E018F5F80930E0154
:10196000FF91EF91BF91AF919F918F917F916F9177
:101970005F914F913F912F910F900FBE0F901F904D
:101980001895CF93DF93CDB7DEB766970FB6F8946F
:10199000DEBF0FBECDBF1C821B8281E090E09E8324
:1019A0008D8382E090E09A8389831C861B861C8A43
:1019B0001B8A1A8619868F9A0E94880C0E943D0203
:1019C0000E9446030E944F000E9445037894CE0176
:1019D00001961C0140E050E060E070E002960E9439
:1019E0001706FF24FA9401E010E00E940C04892BF2
:1019F000D1F060E070E080EF91E40E9423010E944A
:101A00000C04892B51F0CE0101961C0140E050E0FE
:101A100064E670E002960E94170660E070E088ECD1
:101A200092E40E942301809117018823F1F28091B2
:101A300014018111DACF1E8A1D8A89819A81823030
:101A4000910541F02091130130E08217930711F4C2
:101A50001E8B0D8B8091130190E09A838983609196
:101A600015014D895E8970E0CE0101961C01029638
:101A70000E94170610921701F0921501F0921401BE
:101A8000B4CF97FB072E16F4009407D077FD09D04A
:101A90000E94550D07FC05D03EF4909581959F4F0F
:101AA0000895709561957F4F0895AA1BBB1B51E166
:101AB00007C0AA1FBB1FA617B70710F0A61BB70BBE
:101AC000881F991F5A95A9F780959095BC01CD0163
:101AD0000895D4D008F481E008950CD00AC102D151
:101AE00040F0F9D030F021F45F3F19F0EBC0511114
:101AF00034C1EEC00FD198F39923C9F35523B1F344
:101B0000951B550BBB27AA2762177307840738F06C
:101B10009F5F5F4F220F331F441FAA1FA9F333D0CB
:101B20000E2E3AF0E0E830D091505040E695001C7F
:101B3000CAF729D0FE2F27D0660F771F881FBB1F3B
:101B4000261737074807AB07B0E809F0BB0B802D15
:101B5000BF01FF2793585F4F2AF09E3F510568F061
:101B6000B1C0FBC05F3FECF3983EDCF38695779500
:101B70006795B795F7959F5FC9F7880F911D969563
:101B8000879597F90895E1E0660F771F881FBB1FBF
:101B9000621773078407BA0720F0621B730B840B6C
:101BA000BA0BEE1F88F7E0950895BCD088F09F57D8
:101BB00090F0B92F9927B751A0F0D1F0660F771F99
:101BC000881F991F1AF0BA95C9F712C0B13081F079
:101BD000C3D0B1E00895C0C0672F782F8827B85FC1
:101BE00039F0B93FCCF3869577956795B395D9F7DA
:101BF0003EF490958095709561957F4F8F4F9F4FE4
:101C00000895E89409C097FB3EF4909580957095EF
:101C100061957F4F8F4F9F4F9923A9F0F92F96E938
:101C2000BB279395F695879577956795B795F111AD
:101C3000F8CFFAF4BB0F11F460FF1BC06F5F7F4F4A
:101C40008F4F9F4F16C0882311F096E911C077235C
:101C500021F09EE8872F762F05C0662371F096E865
:101C6000862F70E060E02AF09A95660F771F881F34
:101C7000DAF7880F9695879597F90895990F0008D8
:101C8000550FAA0BE0E8FEEF16161706E807F9074E
:101C9000C0F012161306E407F50798F0621B730BE9
:101CA000840B950B39F40A2661F0232B242B252B6A
:101CB00021F408950A2609F4A140A6958FEF811D0D
:101CC000811D089597F99F6780E870E060E00895AE
:101CD0009FEF80EC089500240A9416161706180644
:101CE0000906089500240A94121613061406050620
:101CF0000895092E0394000C11F4882352F0BB0FB1
:101D000040F4BF2B11F460FF04C06F5F7F4F8F4F13
:101D10009F4F089557FD9058440F551F59F05F3F4E
:101D200071F04795880F97FB991F61F09F3F79F0FD
:101D300087950895121613061406551FF2CF46957F
:101D4000F1DF08C0161617061806991FF1CF869501
:101D50007105610508940895E894BB2766277727E5
:101D6000CB0197F908958ADF08F48FEF08950BD01F
:101D7000C0CFB1DF28F0B6DF18F0952309F0A2CF6D
:101D8000A7CF1124EACFC6DFA0F3959FD1F3950F1B
:101D900050E0551F629FF001729FBB27F00DB11DEF
:101DA000639FAA27F00DB11DAA1F649F6627B00D7F
:101DB000A11D661F829F2227B00DA11D621F739F68
:101DC000B00DA11D621F839FA00D611D221F749F76
:101DD0003327A00D611D231F849F600D211D822FBD
:101DE000762F6A2F11249F5750408AF0E1F0882304
:101DF0004AF0EE0FFF1FBB1F661F771F881F915011
:101E00005040A9F79E3F510570F05CCFA6CF5F3FD1
:101E1000ECF3983EDCF3869577956795B795F79543
:101E2000E7959F5FC1F7FE2B880F911D96958795CB
:101E300097F90895CF93DF938230910510F482E0F3
:101E400090E0E0911C01F0911D0120E030E0A0E065
:101E5000B0E0309739F14081518148175907B8F007
:101E60004817590771F482819381109729F01396CE
:101E70009C938E9312972CC090931D0180931C010C
:101E800027C02115310531F04217530718F0A90179
:101E9000DB0101C0EF019A01BD01DF010280F38186
:101EA000E02DD7CF21153105F9F0281B390B24304F
:101EB000310580F48A819B816115710521F0FB0158
:101EC0009383828304C090931D0180931C01FE01C3
:101ED000329644C0FE01E20FF31F8193919322508A
:101EE0003109398328833AC020911A0130911B01AE
:101EF000232B41F4209163003091640030931B0147
:101F000020931A0120916100309162002115310562
:101F100041F42DB73EB74091650050916600241BF7
:101F2000350BE0911A01F0911B01E217F307A0F4C1
:101F30002E1B3F0B2817390778F0AC014E5F5F4F1F
:101F40002417350748F04E0F5F1F50931B01409335
:101F50001A018193919302C0E0E0F0E0CF01DF919C
:101F6000CF910895CF93DF93009709F487C0FC01C8
:101F7000329713821282C0911C01D0911D012097CB
:101F800081F420813181280F391F80911A019091AD
:101F90001B018217930779F5F0931B01E0931A0157
:101FA0006DC0DE0120E030E0AE17BF0750F412969E
:101FB0004D915C9113979D014115510509F1DA018D
:101FC000F3CFB383A28340815181840F951F8A1779
:101FD0009B0771F48D919C911197840F951F029628
:101FE0009183808312968D919C9113979383828322
:101FF0002115310529F4F0931D01E0931C013EC029
:10200000D9011396FC93EE9312974D915D91A40F15
:10201000B51FEA17FB0779F480819181840F951F22
:102020000296D90111969C938E9382819381139687
:102030009C938E931297E0E0F0E08A819B81009759
:1020400019F0FE01EC01F9CFCE0102962881398109
:10205000820F931F20911A0130911B012817390715
:1020600069F4309729F410921D0110921C0102C0EE
:1020700013821282D0931B01C0931A01DF91CF917A
:1020800008958F929F92AF92BF92CF92DF92EF927C
:10209000FF92CF93DF93EC01688179818A819B81E4
:1020A000611571058105910521F464E279ED8BE5F7
:1020B00097E02DE133EF41E050E00E94D410490158
:1020C0005A019B01AC01A7EAB1E40E94F3106B0135
:1020D0007C01ACEEB4EFA50194010E940111C60E83
:1020E000D71EE81EF91EF7FE06C081E0C81AD10807
:1020F000E10880E8F80AC882D982EA82FB82C60138
:102100009F77DF91CF91FF90EF90DF90CF90BF90BE
:10211000AF909F908F9008950E944110089587E698
:1021200090E00E9441100895A0E0B0E08093670025
:1021300090936800A0936900B0936A000895BB274C
:102140004A3031F4992322F4BDE2909581959F4F56
:102150000C94AB10BB27FB015527AA27880F991FAA
:10216000AA1FA41710F0A41B83955051B9F7A05DC6
:10217000AA3308F0A95DA193009779F7B111B19343
:102180001192CB010C94C410DC01FC01672F7191FA
:102190007723E1F7329704C07C916D93708362914D
:1021A000AE17BF07C8F30895052E97FB1EF40094E1
:1021B0000E94EB1057FD07D00E94061107FC03D0C8
:1021C0004EF40C94EB1050954095309521953F4F6F
:1021D0004F4F5F4F089590958095709561957F4F13
:1021E0008F4F9F4F08950E942811A59F900DB49F77
:1021F000900DA49F800D911D11240895B7FF0C949C
:10220000F3100E94F310821B930B0895A1E21A2E83
:10221000AA1BBB1BFD010DC0AA1FBB1FEE1FFF1F8A
:10222000A217B307E407F50720F0A21BB30BE40BDA
:10223000F50B661F771F881F991F1A9469F7609521
:102240007095809590959B01AC01BD01CF010895DB
:10225000A29FB001B39FC001A39F700D811D1124E7
:10226000911DB29F700D811D1124911D0895F89448
:02227000FFCF9E
:102272000100001E0120000100000041546D65674D
:102282006133322070726F6772616D61626364657F
:10229200666768696A6B6C6D6E6F70717273747564
:1022A2007677784461726975737A204D2E20707248
:1022B2006F6A2E797A3132333435363738393039DC
:1022C200383736353433323121402450726F6772D9
:1022D200616D3A20005779626965727A3A0031205D
:1022E2002D2033002500576974616A21004C434454
:1022F200204844343437383000437A7974616D3A77
:10230200004E6120706F637A6174656B00656B7259
:08231200616E752E2E2E0000F5
:00000001FF
