:100000000C9430000C944D000C944D000C944D0059
:100010000C94B30F0C944D000C9499040C944D0067
:100020000C944D000C944D000C9473000C944D00F6
:100030000C944D000C944D000C944D000C944D000C
:100040000C944D000C944D000C944D000C944D00FC
:100050000C944D00C0F9A4B0999282D88090FFBF53
:1000600011241FBECFE5D8E0DEBFCDBF11E0A0E672
:10007000B0E0E6E4FBE202C005900D92A830B107C3
:10008000D9F721E0A8E0B1E001C01D92A032B2078B
:10009000E1F70E948F100C94A1150C9400008D9A2A
:1000A000959A8C9A949AA29AAA9AA39AAB9AA49A8D
:1000B000AC9AA59AAD9AA69AAE9AA79AAF9AB89A10
:1000C000C09AB99AC19ABA9AC29ABB9AC39A83B78C
:1000D000886083BF83B7856083BF8EE48CBF89B798
:1000E000826089BF08951F920F920FB60F9211245C
:1000F0008F93EF93FF93C09AC19AC29AC39A80914B
:100100006000813019F4E091100110C0823019F4C0
:10011000E09111010BC0843019F4E091120106C086
:10012000883019F4E0910F0101C0E0E0F0E0EC5AF2
:10013000FF4FE491E0FF02C0959A01C09598E1FF5E
:1001400002C0949A01C09498E2FF02C0AA9A01C02A
:10015000AA98E3FF02C0AB9A01C0AB98E4FF02C0CB
:10016000AC9A01C0AC98E5FF02C0AD9A01C0AD9851
:10017000E6FF02C0AE9A01C0AE98E7FF02C0AF9A98
:1001800001C0AF9880916000813011F4C0980BC01D
:10019000823011F4C19807C0843011F4C29803C0B2
:1001A000883009F4C39880916000880F893008F086
:1001B00081E080936000FF91EF918F910F900FBECF
:1001C0000F901F9018958F929F92AF92BF92CF92EF
:1001D000DF92EF92FF920F931F93CF93DF938C01E7
:1001E00089519C4F873F9A4250F08BE080931001D9
:1001F000809311018093120180930F01A1C05801D7
:1002000017FF04C0AA24BB24A01AB10A8AE090E018
:1002100021E030E04AE0A816B9064CF02F5F3F4FCE
:10022000BC01469FC001479F900D1124F4CF690186
:10023000E0E0F0E08AE0E82EF12C9AE0892E912CA3
:100240004AE0C501B7010E945511EC01E130F1050A
:1002500029F480910F01C81BD10919C0E230F105C2
:1002600031F45091120180910F0190E00CC0E33005
:10027000F10569F4609111018091120150910F0113
:1002800090E0860F911D850F911DC81BD90BC701EA
:10029000B4010E945511CE010E945511309719F4F6
:1002A00060930F0111C0E130F10519F46093120160
:1002B0000BC0E230F10519F46093110105C0E33081
:1002C000F10511F460931001C701489F7001499F27
:1002D000F00C11243196E217F3070CF4B2CF8AE048
:1002E00025303105A4F42130310519F48093120131
:1002F0000BC02230310519F48093110105C0233061
:10030000310511F4809310012F5F3F4FE9CF17FFA4
:1003100017C091E0C916D10421F48BE0809312013B
:100320000FC022E0C216D10421F48BE080931101AA
:1003300007C063E0C616D10419F48BE08093100166
:10034000DF91CF911F910F91FF90EF90DF90CF90B1
:10035000BF90AF909F908F900895009741F0EFE984
:10036000FFE03197F1F700C000000197F6CF089544
:10037000009731F025E02A95F1F700000197F8CFBA
:1003800008958F929F92AF92BF92CF92DF92EF9299
:10039000FF924B015C0120E030E04AE755E40E9407
:1003A00021136B017C0120E030E040E85FE30E9414
:1003B000CE1187FD24C020E03FEF4FE757E4C7018F
:1003C000B6010E941D131816ACF420E030E040E2A4
:1003D00051E4C501B4010E9421130E943F1220E99B
:1003E00031E06115710581F0C9010197F1F76150A4
:1003F0007109F7CFC701B6010E943F1202C061E048
:1004000070E0CB010197F1F7FF90EF90DF90CF9074
:10041000BF90AF909F908F9008958F929F92AF92D0
:10042000BF92CF92DF92EF92FF924B015C012BEAD9
:100430003AEA4AEA50E40E9421136B017C0120E071
:1004400030E040E85FE30E94CE1187FD21C020E04C
:1004500030E04FE753E4C701B6010E941D131816A0
:1004600094F420E030E04AE754E4C501B4010E946E
:10047000D211FF90EF90DF90CF90BF90AF909F9000
:100480008F900C94C101C701B6010E943F1201C0B8
:1004900061E06A95F1F7FF90EF90DF90CF90BF9009
:1004A000AF909F908F90089580FF02C0DC9A01C0AA
:1004B000DC9881FF02C0DD9A01C0DD9882FF02C096
:1004C000DE9A01C0DE9883FF02C0DF9A0895DF98AC
:1004D000089589B382958170CD998260CE998460A8
:1004E000CF9988600895CF93DF93D498D598D69804
:1004F000D798DA9ADB9A0E94690290E1899FE0011D
:100500001124DB98DB9A0E946902DB98E7ECF0E0AB
:100510003197F1F700C000008C2BDF91CF91089547
:10052000D9980C947302CF93C82FD49AD59AD69A9F
:10053000D79ADA98DB9A82958F700E945402DB98E2
:10054000DB9A8C2F0E945402DB980E94900287FD58
:10055000FCCFCF910895D9980C949302D99A0C941A
:100560009302D99A0C947302CF93DF93EC01899193
:10057000882319F00E94AE02FACFDF91CF9108953F
:1005800090E4699F800D112480680C94AB0281E097
:100590000E94AB028FE39FE10197F1F700C00000DA
:1005A000089582E00E94AB028FE39FE10197F1F78B
:1005B00000C000000895CF93D49AD59AD69AD79ABE
:1005C000D39AD19AD29A8FE59AEE0197F1F700C0AB
:1005D0000000D998DB98DA98C3E0DB9A83E00E94A8
:1005E0005402DB988FE19EE40197F1F700C0000010
:1005F000C15099F7DB9A82E00E945402DB988FE9A0
:100600009FE00197F1F700C0000088E20E94AB0272
:1006100088E00E94AB0281E00E94AB0286E00E946B
:10062000AB028CE0CF910C94AB02CF93DF93CDB7AC
:10063000DEB761970FB6F894DEBF0FBECDBF4AE0BC
:10064000BE016F5F7F4F0E9409150E94B402619640
:100650000FB6F894DEBF0FBECDBFDF91CF910895E6
:100660008F929F92AF92BF92CF92DF92EF92FF92C2
:100670000F931F93CF93DF936B017C018A01453069
:10068000510510F004E010E0C701B6010E943A12D3
:10069000CB010E94150381E090E0CAE0D0E02AE09F
:1006A0008017910740F4AE01249FE001259FD00DF3
:1006B00011240196F5CF012B09F468C085E091E083
:1006C0000E94B402C701B6010E943F12C69F90016A
:1006D000C79F300DD69F300D1124B90180E090E006
:1006E0000E946B124B015C01BE0180E090E00E9411
:1006F0006B129B01AC01C701B6010E942113A50139
:1007000094010E9469110E943A126B017C01AB01B5
:1007100081E090E02AE030E06AE04217530740F0C1
:100720000196F9016E9F90016F9F300D1124F5CF56
:1007300021E030E04AE050E06AE0C417D50748F015
:100740002F5F3F4FFA016E9FA0016F9F500D112444
:10075000F4CFC1E0D0E08901081B190BC017D10705
:1007600034F480E090E00E9415032196F7CFC60193
:10077000DF91CF911F910F91FF90EF90DF90CF907D
:10078000BF90AF909F908F900C941503DF91CF9105
:100790001F910F91FF90EF90DF90CF90BF90AF909F
:1007A0009F908F900895CF93DF93CDB7DEB7619779
:1007B0000FB6F894DEBF0FBECDBF40E1BE016F5F44
:1007C0007F4F0E9409150E94B40261960FB6F894FB
:1007D000DEBF0FBECDBFDF91CF910895CF92DF92E4
:1007E000EF92FF920F931F93CF93DF938C016B01D6
:1007F0007A01C0E0D0E0CC15DD0581F0E114F10410
:1008000011F08CE101C084E10E94AB0201151105D9
:1008100019F0C8010E94AD012196EDCFDF91CF9173
:100820001F910F91FF90EF90DF90CF900895CF929E
:10083000DF92EF92FF920F931F93CF93DF938C0180
:100840006B017A01C0E0D0E0CC15DD0581F0E11448
:10085000F10411F088E101C080E10E94AB020115B2
:10086000110519F0C8010E94AD012196EDCFDF916D
:10087000CF911F910F91FF90EF90DF90CF9008954F
:100880000F931F93CF93DF93EC018230910520F0FB
:1008900082309105D9F40FC080E80E94AB0208E2D3
:1008A00010E080E20E94AE0201501109011511050D
:1008B000C1F7CD2B59F480EC0E94AB02C8E2D0E026
:1008C00080E20E94AE0221972097D1F7DF91CF916D
:1008D0001F910F9108958330910589F030F4813094
:1008E000910549F0029749F008958430910549F047
:1008F000059749F008958CE007C088E005C08EE0B8
:1009000003C08DE001C08FE00C94AB0208958E9877
:10091000969A8EB585608EBD8EB58F7B8EBD1092FA
:10092000160189B7806289BF10921701BC98C49ADA
:1009300008951F920F920FB60F9211242F933F9399
:100940008F939F9386B597B520910C0130910D013F
:10095000821B930B26B537B530930D0120930C0104
:100960002EB530E423272EBD8F31910510F0109263
:10097000160120911601222319F021E020930B018A
:1009800020911601211111C010920A011092090143
:10099000109208012EB520642EBD209116012F5F04
:1009A0002093160122E020930B0120910B012130AE
:1009B00009F05FC09C012A5031092531310510F042
:1009C00010920B0120910B01213009F052C0429787
:1009D00028F0809116018F5F809316018091160197
:1009E000823008F441C08091160180FD3DC08091A5
:1009F000090190910A01880F991F90930A01809331
:100A000009010EB406FE05C0816090930A0180932F
:100A10000901809108018F5F809308018D3020F1DA
:100A20008091170181111BC08091090190910A01E9
:100A3000282F2F73209315019C01207C3770689418
:100A400015F8369527951694E1F720931401882719
:100A50009870892F869586958695809313011092BC
:100A60000B0181E080931701809116018F5F8093C5
:100A7000160180910B01811105C0109216018EB5EF
:100A80008F7B8EBD9F918F913F912F910F900FBEC5
:100A90000F901F90189586B382958F7091E08927EB
:100AA000817090E0089584EA86BF06B607FEFDCF08
:100AB000089583B984E886BF06B607FEFDCF089582
:100AC000979A60E070E080E89FE30E94C1019798E8
:100AD00008952F923F92CF93DF93E101EA81FB814A
:100AE000158E148EEA81FB81848D958D2689378938
:100AF00082179307ACF4E881F981E80FF91F808130
:100B00000E94AE0260E070E088E492E40E94C101BD
:100B1000EA81FB81848D958D0196958F848FE2CF3C
:100B2000DF91CF913F902F900895979A0E94C10135
:100B3000979808952F923F92CF92DF92EF92FF9273
:100B40000F931F93CF93DF938C01E1018AE090E034
:100B50009D8F8C8FEE24E394F12C4AE08C8D9D8D3B
:100B60000817190758F02FEFE21AF20A489F900170
:100B7000499F300D11243D8F2C8FF0CF1B8F0A8F92
:100B800080E090E00E9440041D8E1C8E87E2C82EFB
:100B9000D12CCE18DF0883E0E80EF11C8C8D9D8DE2
:100BA0008C159D05A4F460E00E94C002C8010E945B
:100BB000150361E08C8D0E94C002C8010E941503DC
:100BC0008C8D9D8D8E0D9F1D9D8F8C8FE7CF60E04E
:100BD00070E08AEF93E4DF91CF911F910F91FF9026
:100BE000EF90DF90CF903F902F900C94C1012F9207
:100BF0003F920F931F93CF93DF938C01E1010E94EB
:100C0000C7028BEB90E00E94B402C8010E9415035A
:100C10001D8E1C8E8C8D9D8D059774F460E070E0A8
:100C200080E291E40E94C1010E9460058C8D9D8D3F
:100C300001969D8F8C8FEECF60E070E08AEF93E499
:100C40000E94C101DF91CF911F910F913F902F9092
:100C50000C94C702CF93C82F0E94530582EA0E94CA
:100C600059058C2F0E9459050E94530583EA0E9462
:100C7000590584E886BF06B607FEFDCF83B194E927
:100C800096BF06B604FCFDCFCF9108950E942A06B8
:100C9000982F92959F708F702AE0929F800D11245B
:100CA00008951F93CF93DF931F92CDB7DEB7182F10
:100CB00069830E94530582EA0E945905812F0E9490
:100CC00059056981862F0E94590584E986BF06B6B9
:100CD00004FCFDCF0F90DF91CF911F91089580E02C
:100CE0000E942A06682F606880E00C94510680E01C
:100CF0000E942A06682F6F7780E00C94510680E0EE
:100D00000E942A06682F6F7B80E00C94510680E0D9
:100D10000E942A06682F606480E00C94510688E0E7
:100D20000E942A06682F6F7C88E00C94510688E0A8
:100D30000E942A06682F606188E00E94510688E0C0
:100D40000E942A06682F6F7D88E00C94510688E087
:100D50000E942A06682F606388E00C94510680E0A8
:100D60000E942A06682F6D7F80E00C9451062F9216
:100D70003F92EF92FF920F931F93CF93DF93E10186
:100D80008130910569F1FCF4892B09F048C280E0BB
:100D900090E00E94400460E080E00E94C00285EC88
:100DA00090E00E94B40261E080E00E94C0028EECFC
:100DB00090E0DF91CF911F910F91FF90EF903F90C6
:100DC0002F900C94B4028230910589F1039709F0B9
:100DD00026C280E090E00E9440041D8E1C8EBDC1A2
:100DE00080E090E00E94400460E080E00E94C00249
:100DF0008091150190E00E94150360E086E00E945A
:100E0000C0028091140190E00E94150361E080E02F
:100E10000E94C0028091130190E0DF91CF911F9159
:100E20000F91FF90EF903F902F900C94150380E06E
:100E300090E00E94400460E080E00E94C002888D43
:100E4000998D0E941503EE88FF88C701880F991FAE
:100E50000E9484138C012C893D89121613062CF0F4
:100E60002F3F8FEF380709F0C8C01B8A1A8A60E34A
:100E700071E38A899B898E159F057CF4488959897D
:100E8000F801E80FF91F8417950711F4708301C06A
:100E9000608301969B8B8A8BECCF12161306BCF4F1
:100EA00060E084E00E94C0022C8D3D8D44E6429FAC
:100EB000C001439F900D11246AEF70E00E9455110C
:100EC000CB010E94150384ED90E00E94B4021B8ABE
:100ED0001A8A8E899F896AE02A893B8928173907EF
:100EE0000CF04BC0F801E20FF31F40814133E1F4F5
:100EF0002115310521F4488D4093100139C021306E
:100F0000310521F4488D4093110132C02230310562
:100F100021F4488D409312012BC02330310541F557
:100F2000488D40930F0124C02115310521F0488DD3
:100F3000598D452B11F4609310012130310521F0BA
:100F4000488D598D452B11F46093110122303105E4
:100F500021F0488D598D452B11F4609312012330F7
:100F6000310521F0488D598D452B11F460930F0107
:100F70002F5F3F4F3B8B2A8BAFCF8C899D8901968A
:100F8000E1F51B8A1A8A5BE0F52E2A893B898E8956
:100F90009F89281739077CF5F801E20FF31F80813C
:100FA000803321F0888D998D892BF9F42115310535
:100FB00019F4F092100111C02130310519F4F092AA
:100FC00011010BC02230310519F4F092120105C055
:100FD0002330310511F4F0920F010E94600560E0AA
:100FE00070E088EC92E40E94C1018A899B89019695
:100FF0009B8B8A8BCACF1D8A1C8AC801DF91CF9137
:101000001F910F91FF90EF903F902F900C941C1424
:10101000009709F4A9C0019709F0FFC089E00E9478
:1010200046068F878AE00E9446068E878BE00E94E4
:1010300046068D878CE00E9446068C878DE00E94D4
:101040002A06282F2695269526952670922F990FE9
:10105000990F920F8F70980F98878EE00E942A0642
:1010600084FB222720F9220F922F990F990F920FBC
:101070008F70980F998718E160E0812F0E94C0025D
:101080008C858A3020F480E090E00E9415038C85E6
:1010900090E00E9415038FEE90E00E94B4028D85CF
:1010A0008A3020F480E090E00E9415038D8590E066
:1010B0000E9415038FEE90E00E94B4028E858A3064
:1010C00020F480E090E00E9415038E8590E00E945D
:1010D00015038FEE90E00E94B4028F858A3020F4D1
:1010E00080E090E00E9415038F8590E00E94150338
:1010F00061E0812F0E94C00288858A3020F480E060
:1011000090E00E941503888590E00E9415038FEE01
:1011100090E00E94B40289858A3020F480E090E05B
:101120000E941503898590E00E9415038FEE90E0E0
:101130000E94B4028A859B850E94150383EC90E08F
:101140000E94B4020E94691042E050E00E94300305
:101150008C8D9D8D01969D8F8C8F8C8D9D8D823079
:1011600091050CF455CF5BC00E94870681E00E9478
:1011700046068F8782E00E9446068E8783E00E94A3
:1011800046068D8784E00E9446068C870E947F0673
:101190000E94870685E00E942A06F82E86E00E94BB
:1011A0002A0684FB222720F9220F922F990F990FEC
:1011B000920F8F70980F99870E947F062F2D26958A
:1011C000269526952670922F990F990F920F8F2DA5
:1011D0008F70980F988780E10E942A06082F81E17E
:1011E0000E942A0610E0182B980123703327F294EE
:1011F000F694F69443E0F4228F2D90E028173907F7
:1012000051F00F5F1F4F602F80E10E945106612F48
:1012100081E10E9451061B870A8710E02DCFDF91E4
:10122000CF911F910F91FF90EF903F902F900895D5
:101230000E946F0664E081E00E94510663E082E054
:101240000E94510662E083E00E94510661E084E062
:101250000E9451060C94770667ED80E10E945106CA
:1012600067E081E10E9451060E946F0665EC85E00F
:101270000E94510666E086E00E9451060C947706B3
:101280002F923F924F925F926F927F928F929F9296
:10129000AF92BF92CF92DF92EF92FF920F931F9384
:1012A000CF93DF93CDB7DEB7C455D1090FB6F8940D
:1012B000DEBF0FBECDBF6C017B014A0181018EB53F
:1012C000887F8EBDD6018D919C911197892B09F055
:1012D00086C0CB010197039708F081C06D937C9382
:1012E000CB010E94F705F601808191818230910542
:1012F00049F083309105D9F0019709F070C081E081
:1013000090E06BC084E090E0D80157969C938E9358
:1013100056978FEF9FEF55969C938E9354975D96BB
:101320001C921E925C9783B7856083BF48C00E9461
:101330006005D6018D919C918130910581F034F446
:10134000892BD9F4180180E090E015C08230910516
:1013500079F0039791F4180183E090E00CC081E0EC
:1013600090E00E946B041801F6018081918103C016
:10137000180182E090E00E94B7060E946005D60145
:101380008D919C9181309105B1F034F4892B39F520
:10139000180180E090E021C08230910591F0039720
:1013A000F1F4180181E090E00E949A050E94A706DE
:1013B0000E94AF060FC084E390E00E946B04180106
:1013C00009C0180181E090E00E949A05D6018D9134
:1013D0009C9103C0F601808191810E94B706D801DB
:1013E00014968D919C911597892B09F067C5659688
:1013F0001FAF0EAF65970E946005F6018081918155
:101400008130910509F462C31CF4892B49F0E4C4CE
:101410008230910509F463C3039709F49BC4DCC4CB
:10142000FCE0EF16F10409F4F7C169E2E616F104F5
:1014300009F047C30E94C70288E290E0D80157969E
:101440009C938E93569780E5EBE6F0E0DE011196D3
:1014500001900D928A95E1F784E090E00E94841358
:101460005C01F801158E148E58E2552EF801648C3B
:10147000758CF2E06F167104D4F580E590E00E945F
:101480008413F301EE0FFF1FEA0DFB1D9183808390
:10149000D80155961C921E925497569CA001579CB9
:1014A000500D1124F8012489358928323105B4F40E
:1014B000DC01A20FB31FFA01E20FF31F61E070E03D
:1014C0006C0F7D1FE60FF71F60816C932F5F3F4FFE
:1014D000D80155963C932E935497E4CFFFEF6F1AA3
:1014E0007F0AD8015D967C926E925C97BFCFD8013F
:1014F0005D961C921E925C97D8015C968D919C9192
:101500005D97883291057CF4D501ED91FC91E80F4F
:10151000F91F80810E94AE02F801848D958D01969D
:10152000958F848FE9CF61E080E00E94C002F801CE
:10153000158E148ED8015C968D919C915D978832A2
:1015400091058CF4D5011296ED91FC911397E80F5B
:10155000F91F80810E94AE02F801848D958D01965D
:10156000958F848FE7CF88E290E057969C938E9377
:10157000569781E090E055969C938E935497F8018E
:1015800084899589892B09F416C184E090E00E9432
:1015900084133C01F801158E148ED8015C964D9091
:1015A0005C905D97B2E04B165104BCF4D80156969E
:1015B0008D919C915797880F991F0E948413F20177
:1015C000EE0FFF1FE60DF71D91838083BFEF4B1ACF
:1015D0005B0AF801558E448EE0CF0E94D102F801DB
:1015E000158E148EF801848D958D26893789821782
:1015F0009307A4F4D3014D905C90480E591E0E94AD
:10160000B102F2018083D8015C968D919C915D9727
:1016100001965D969C938E935C97E4CF61E080E0A9
:101620000E94C002D8015D961C921E925C97D80160
:101630005C968D919C915D9756962D913C91579714
:101640008217930784F4F30142805380480E591E99
:101650000E94B102D2018C93F801848D958D019680
:10166000958F848FE4CF0E94C702F801158E148EE7
:1016700026893789F801848D958D8217930744F563
:10168000F301A081B181A80FB91FF50160817181BB
:10169000680F791F5C91DB014C9154130FC0F3016B
:1016A000A281B381A80FB91FF50162817381680F10
:1016B000791F5C91DB014C91541719F0F801158AE0
:1016C000148A0196D8015D969C938E935C97D2CF35
:1016D0000E944B05892B29F0D80155961C921E9229
:1016E0005497F80184899589892B31F4D8015D9646
:1016F0001C921E925C9742C0F801158E148ED80180
:101700005C968D919C915D9756962D913C91579743
:10171000821793077CF4D301ED91FC91E80FF91F38
:1017200080810E94AE02F801848D958D0196958F7F
:10173000848FE5CF61E080E00E94C002F801158E41
:10174000148ED8015C968D919C915D9756962D9143
:101750003C915797821793074CF6D3011296ED915F
:10176000FC911397E80FF91F80810E94AE02F801E7
:10177000848D958D0196958F848FE3CFD8015C96EB
:101780004D905C905D97B2E04B16510484F4F201E9
:10179000EE0FFF1FE60DF71D808191810E941C1442
:1017A000BFEF4B1A5B0AF801558E448EE7CFC30199
:1017B0000E941C14E4CE158E148EF801648C758C76
:1017C000F2E06F16710494F4F301EE0FFF1FEA0DBF
:1017D000FB1D808191810E941C14FFEF6F1A7F0A0C
:1017E000D8015D967C926E925C97E7CFC5010E940E
:1017F0001C140E94600560E070E080E291E40E94A9
:10180000C1010E94600560E070E080E291E40E9406
:10181000C1010E94600555C10E94C70284E090E0AA
:101820000E946B0461E089E00E94C00286ED90E0B6
:101830000E94B40260E070E08AEF93E40E94C1016C
:101840000E94D1028DED90E00E94B40260E070E051
:101850008AEF93E40E94C10141E050E061E070E052
:1018600080E090E00E94EE0360E070E08FE294E49C
:101870000E94C10182E090E00E946B0460E070E091
:101880008FE294E40E94C10181E090E00E946B0429
:1018900060E070E08FE294E40E94C10182E090E099
:1018A0000E946B0460E070E08FE294E40E94C1014A
:1018B00085E090E00E946B0460E070E08AE794E4C9
:1018C0000E94C10184E090E00E946B0440E050E07F
:1018D00061E070E080E090E00E94EE0360E070E084
:1018E0008AE794E40E94C10140E050E061E070E0CA
:1018F00080E090E00E94170483E090E00E946B0477
:1019000060E070E08AE794E40E94C10185E090E025
:101910000E946B0461E080E00E94C00289EE90E0CA
:101920000E94B40260E070E88BEB94E40E94C10175
:1019300061E089E00E94C00286E090E0D8015796FD
:101940009C938E9356970E94841363969FAF8EAF9D
:101950006397F801158E148ED8015C968D919C9139
:101960005D9756962D913C91579782179307BCF43B
:101970006396AEACBFAC6397A80EB91E0E94B102CD
:10198000D5018C9360E070E088EC92E40E94C10184
:10199000F801848D958D0196958F848FDDCF41E080
:1019A00050E061E070E080E090E00E94170460E0A9
:1019B00070E88BEB94E40E94C10183E090E00E9408
:1019C0006B0480E090E00E94400460E070E88BEBE4
:1019D00094E40E94C10161E080E00E94C002FE0127
:1019E000EF5AFF4F1F010E94690584E090E00E94BA
:1019F0006B0460E089E00E94C0020E94690561E01A
:101A000088E00E94C00285E090E00E946B040E9482
:101A1000690560E081E00E94C0020E94690563964A
:101A20008EAD9FAD63970E941C1483E090E00E94EE
:101A30006B0460E070E88BEB94E40E94C10141E02C
:101A400050E06FE070E084E190E00E94EE0341E03E
:101A500050E06FE070E084E190E00E94170481E0C4
:101A600090E00E94400484E090E00E946B0460E0FB
:101A700070E08AE794E40E94C10141E050E06FE029
:101A800070E084E190E00E94170441E050E06FE0D4
:101A900070E084E190E00E94EE0383E090E00E9419
:101AA0006B0482E090E00E94400460E070E08AEF06
:101AB00093E40E94C1010E94C70281E090E00E946D
:101AC0006B041801F6018081918184C1C7010E94D5
:101AD0006B04F4E6EF16F10409F078C1EFC1B2E34C
:101AE000EB16F10409F460C1B4F4F0E2EF16F1046E
:101AF00009F417C134F47EE0E716F10409F418C1C3
:101B000065C181E2E816F10409F40EC199E2E91613
:101B1000F104F9F05BC1A7E3EA16F10409F4F7C098
:101B200074F4E4E3EE16F10409F4F5C0F6E3EF16FD
:101B3000F10409F04BC1180184E690E0EFC06BE3BB
:101B4000E616F10409F4CDC074E6E716F10409F0D5
:101B50003DC181E090E0D8015D969C938E935C97A7
:101B600055969C938E935497AEEEAA2EA2E0BA2E71
:101B70006DEC7CEC8CEC9EE30E949505F801848D65
:101B8000958D0196958F848F1801D6018D919C912A
:101B90000E94B706F801648D758DC5010E9455112C
:101BA000665F7F4F882777FD8095982F0E946D1282
:101BB0000E94C1010E944B05892B41F0D8015C961F
:101BC0008D919C915D978A3F910591F660E070E060
:101BD00088E493E40E94C10144244394512CE4EC32
:101BE0006E2EE9E07E2EF7E0AF2EB12CF801848D49
:101BF000958D019709F458C00E94F91466E070E0D1
:101C00000E9455110196F801958B848B578246826C
:101C1000D80116962D913C91179754968D919C91D1
:101C200055975C966D917C915D9782179307ACF107
:101C3000C3010E945511CB010196B501621B730BC4
:101C40000E945511882777FD8095982F0E946D126C
:101C50000E94C1010E94F914D80156966D917C91A1
:101C600057970E945511F801918B808B868197813F
:101C7000918F808F1801D6018D919C910E94B7069B
:101C80006DEC7CEC8CE49FE30E949505F801868165
:101C90009781019697838683BBCF615071095D96CA
:101CA0007C936E935C97A2CF82E090E0958F848FB7
:101CB000868197818730910584F467E070E0681B26
:101CC000790B83EE94E00E945511882777FD80956B
:101CD000982F0E946D120E94C1018FEF9FEFD801D3
:101CE0000BC0D80159961C921E92589751961C927F
:101CF0001E9250978FEF9FEF55969C938E9354971B
:101D00001801F601808191810E94B7065FC0180119
:101D100088EE93E003C0180181E090E00E949A05EC
:101D200055C083B7856002C083B78A7F83BF4EC02A
:101D3000F1E08F16910409F049C083B7856083BF35
:101D40008AE08093100180931101809312018093A7
:101D50000F013CC0B4E3EB16F10451F14CF4F9E28D
:101D6000EF16F10479F162E3E616F104E9F02EC012
:101D700077E3E716F10481F08BE3E816F104F9F05C
:101D800096E3E916F10411F5180184E690E00E944B
:101D90009A050E9497061AC0180188EE93E00E94E7
:101DA0009A050E948F0612C018018AE090E0B6CF13
:101DB000180181E090E00E949A050E94A7060E9407
:101DC000AF0604C00E9418090E942C091801D60110
:101DD0008D919C910E94B706B3E2EB16F10409F4D1
:101DE0005AC08CF4FEE0EF16F10409F460C062E220
:101DF000E616F10409F062C041E050E061E070E0F5
:101E000080E090E04EC076E2E716F10481F08EE2C9
:101E1000E816F104C9F194E2E916F10409F04EC0A4
:101E200041E050E06FE070E084E190E03DC00E944E
:101E3000C70281EF90E00E94B40261E080E00E945E
:101E4000C0028DEF90E00E94B40260E070E08AE78B
:101E500093E40E94C10141E050E06FE070E084E152
:101E600090E00E94EE0341E050E06FE070E084E11A
:101E700090E00E9417040E94C7021801D6018D91BC
:101E80009C910E94B7061AC041E050E061E070E00A
:101E900080E090E009C041E050E06FE070E084E154
:101EA00090E00E94EE030AC00E94170407C0B1E050
:101EB0008B16910419F4F80195828482D801149646
:101EC0008D919C9115970197A1F415961C921E92E5
:101ED0001497F6011182108283B78A7F83BF18019D
:101EE000808191810E94F705D6018D919C910E947D
:101EF000B7068EB585608EBDCC5ADF4F0FB6F8940D
:101F0000DEBF0FBECDBFDF91CF911F910F91FF902C
:101F1000EF90DF90CF90BF90AF909F908F907F9089
:101F20006F905F904F903F902F900895BC0180E894
:101F30009EE30E944111862F603138F07727CB0154
:101F4000409797FD01969595879580B9089585B539
:101F5000886085BD85B5876085BD8AE083BD89B70A
:101F6000806889BF08951F920F920FB60F921124B7
:101F70002F933F934F935F936F937F938F939F9391
:101F8000AF93BF93EF93FF9380910E01811102C035
:101F90000E94F91480910E018F5F80930E01FF91D2
:101FA000EF91BF91AF919F918F917F916F915F91D1
:101FB0004F913F912F910F900FBE0F901F9018954A
:101FC000882319F0D89AD09A0895D0980895D8986F
:101FD00099B3892F817090FF1FC0D09A8FEC97E042
:101FE0000197F1F700C00000D09887E191E00197D8
:101FF000F1F700C00000C89908C08FEC97E0019786
:10200000F1F700C0000081E008958FEC97E00197A0
:10201000F1F700C0000080E00895D89898E0D09AC9
:1020200080FF0BC025E22A95F1F70000D098E7E188
:10203000F1E03197F1F700C00AC0E7E1F1E0319734
:10204000F1F700C00000D098F5E2FA95F1F7000032
:102050008695915021F708950E94E70F882339F063
:102060008CEC0E940D1084E40E940D108FEF0895F7
:10207000D09898E080E0D09A25E22A95F1F7000008
:10208000D098E5E2EA95F1F700008695C899806856
:10209000E7E1F1E03197F1F700C00000915059F706
:1020A00008950E94E70F882389F08CEC0E940D10A0
:1020B0008EEB0E940D100E943810809318010E9430
:1020C00038108093190181E090E0089580E090E05D
:1020D00008950E942C108823F1F088E191E00E947D
:1020E00051106091190170E0762F662780911801D8
:1020F000680F711D882777FD8095982F0E946D12BB
:1021000020E030E040E85DE30E94211310921801C6
:1021100010921901089560E070E0CB010895CF930B
:10212000DF93CDB7DEB76E970FB6F894DEBF0FBE64
:10213000CDBF1C821B8281E090E09E838D8382E074
:1021400090E09A8389831C8E1B8E1A8A198A1A8EB4
:10215000198E88E480B960E080E00E94510680E03A
:102160000E942A06682F646080E00E94510684E085
:102170000E942A06682F6F7384E00E94510660E86F
:1021800088E00E94510664E089E00E94510668E000
:102190008AE00E94510662E08BE00E94510661E0F5
:1021A0008CE00E94510665E08DE00E94510666E0D9
:1021B0008EE00E9451068F9A0E94A70F0E94DB02B8
:1021C0000E9487040E944F000E9486047894CE01EA
:1021D00001961C0140E050E060E070E002960E9431
:1021E0004009FF24FA9401E010E00E944B05892B7E
:1021F000D1F060E070E080EF91E40E94C1010E94A4
:102200004B05892B51F0CE0101961C0140E050E0B6
:1022100064E670E002960E94400960E070E088EC9D
:1022200092E40E94C101809117018823F1F280910C
:1022300014018111DACF1E8E1D8E89819A81823020
:10224000910541F02091130130E08217930711F4BA
:102250001E8F0D8F8091130190E09A838983609186
:1022600015014D8D5E8D70E0CE0101961C01029628
:102270000E94400910921701F0921501F09214018A
:10228000B4CFAA1BBB1B51E107C0AA1FBB1FA617D7
:10229000B70710F0A61BB70B881F991F5A95A9F70F
:1022A00080959095BC01CD01089597FB072E16F4FB
:1022B000009407D077FD09D00E94411107FC05D09A
:1022C0003EF4909581959F4F0895709561957F4F4D
:1022D00008955058BB27AA270ED075C166D130F09B
:1022E0006BD120F031F49F3F11F41EF45BC10EF46A
:1022F000E095E7FB51C1E92F77D180F3BA17620768
:1023000073078407950718F071F49EF58FC10EF4DA
:10231000E0950B2EBA2FA02D0B01B90190010C01F5
:10232000CA01A0011124FF27591B99F0593F50F40D
:10233000503E68F11A16F040A22F232F342F442765
:10234000585FF3CF469537952795A795F04053955D
:10235000C9F77EF41F16BA0B620B730B840BBAF02D
:102360009150A1F0FF0FBB1F661F771F881FC2F798
:102370000EC0BA0F621F731F841F48F487957795AC
:102380006795B795F7959E3F08F0B3CF9395880F63
:1023900008F09927EE0F979587950895D9D008F4FE
:1023A00081E008950CD00FC107D140F0FED030F08D
:1023B00021F45F3F19F0F0C0511139C1F3C014D1BD
:1023C00098F39923C9F35523B1F3951B550BBB27FC
:1023D000AA2762177307840738F09F5F5F4F220FA9
:1023E000331F441FAA1FA9F333D00E2E3AF0E0E8A2
:1023F00030D091505040E695001CCAF729D0FE2FEE
:1024000027D0660F771F881FBB1F2617370748077F
:10241000AB07B0E809F0BB0B802DBF01FF27935835
:102420005F4F2AF09E3F510568F0B6C000C15F3F84
:10243000ECF3983EDCF3869577956795B795F7951D
:102440009F5FC9F7880F911D9695879597F9089515
:10245000E1E0660F771F881FBB1F621773078407B1
:10246000BA0720F0621B730B840BBA0BEE1F88F7C0
:10247000E095089504D06894B111D9C00895BCD0F6
:1024800088F09F5790F0B92F9927B751A0F0D1F05D
:10249000660F771F881F991F1AF0BA95C9F712C0E7
:1024A000B13081F0C3D0B1E00895C0C0672F782F5C
:1024B0008827B85F39F0B93FCCF386957795679553
:1024C000B395D9F73EF490958095709561957F4FBF
:1024D0008F4F9F4F0895E89409C097FB3EF4909565
:1024E0008095709561957F4F8F4F9F4F9923A9F0ED
:1024F000F92F96E9BB279395F6958795779567957C
:10250000B795F111F8CFFAF4BB0F11F460FF1BC0BF
:102510006F5F7F4F8F4F9F4F16C0882311F096E952
:1025200011C0772321F09EE8872F762F05C0662300
:1025300071F096E8862F70E060E02AF09A95660FB9
:10254000771F881FDAF7880F9695879597F9089572
:10255000990F0008550FAA0BE0E8FEEF16161706B4
:10256000E807F907C0F012161306E407F50798F01C
:10257000621B730B840B950B39F40A2661F0232B35
:10258000242B252B21F408950A2609F4A140A695B1
:102590008FEF811D811D089597F99F6780E870E096
:1025A00060E008959FEF80EC089500240A941616C9
:1025B000170618060906089500240A941216130631
:1025C000140605060895092E0394000C11F48823BF
:1025D00052F0BB0F40F4BF2B11F460FF04C06F5FDB
:1025E0007F4F8F4F9F4F089557FD9058440F551FB1
:1025F00059F05F3F71F04795880F97FB991F61F085
:102600009F3F79F087950895121613061406551FFB
:10261000F2CF4695F1DF08C0161617061806991F67
:10262000F1CF86957105610508940895E894BB275C
:1026300066277727CB0197F908958ADF08F48FEF93
:1026400008950BD0C0CFB1DF28F0B6DF18F0952386
:1026500009F0A2CFA7CF1124EACFC6DFA0F3959F40
:10266000D1F3950F50E0551F629FF001729FBB2779
:10267000F00DB11D639FAA27F00DB11DAA1F649F25
:102680006627B00DA11D661F829F2227B00DA11DD8
:10269000621F739FB00DA11D621F839FA00D611D5E
:1026A000221F749F3327A00D611D231F849F600D7F
:1026B000211D822F762F6A2F11249F5750408AF0B8
:1026C000E1F088234AF0EE0FFF1FBB1F661F771F44
:1026D000881F91505040A9F79E3F510570F05CCF84
:1026E000A6CF5F3FECF3983EDCF386957795679530
:1026F000B795F795E7959F5FC1F7FE2B880F911D62
:102700009695879597F90895CF93DF938230910539
:1027100010F482E090E0E0911E01F0911F0120E0B2
:1027200030E0A0E0B0E0309739F1408151814817A6
:102730005907B8F04817590771F4828193811097AF
:1027400029F013969C938E9312972CC090931F019F
:1027500080931E0127C02115310531F04217530720
:1027600018F0A901DB0101C0EF019A01BD01DF01F1
:102770000280F381E02DD7CF21153105F9F0281B18
:10278000390B2430310580F48A819B8161157105F4
:1027900021F0FB019383828304C090931F018093F7
:1027A0001E01FE01329644C0FE01E20FF31F819329
:1027B000919322503109398328833AC020911C011A
:1027C00030911D01232B41F420916300309164006E
:1027D00030931D0120931C01209161003091620013
:1027E0002115310541F42DB73EB740916500509158
:1027F0006600241B350BE0911C01F0911D01E217CE
:10280000F307A0F42E1B3F0B2817390778F0AC0113
:102810004E5F5F4F2417350748F04E0F5F1F5093F0
:102820001D0140931C018193919302C0E0E0F0E010
:10283000CF01DF91CF910895CF93DF93009709F4F3
:1028400087C0FC01329713821282C0911E01D09181
:102850001F01209781F420813181280F391F809139
:102860001C0190911D018217930779F5F0931D01CA
:10287000E0931C016DC0DE0120E030E0AE17BF0721
:1028800050F412964D915C9113979D01411551059D
:1028900009F1DA01F3CFB383A28340815181840F20
:1028A000951F8A179B0771F48D919C911197840F46
:1028B000951F02969183808312968D919C91139718
:1028C000938382832115310529F4F0931F01E0934E
:1028D0001E013EC0D9011396FC93EE9312974D91C1
:1028E0005D91A40FB51FEA17FB0779F480819181F0
:1028F000840F951F0296D90111969C938E93828125
:10290000938113969C938E931297E0E0F0E08A8176
:102910009B81009719F0FE01EC01F9CFCE010296E0
:1029200028813981820F931F20911C0130911D0154
:102930002817390769F4309729F410921F01109273
:102940001E0102C013821282D0931D01C0931C018C
:10295000DF91CF9108958F929F92AF92BF92CF92C5
:10296000DF92EF92FF92CF93DF93EC016881798140
:102970008A819B81611571058105910521F464E2CD
:1029800079ED8BE597E02DE133EF41E050E00E94D7
:102990003E1549015A019B01AC01A7EAB1E40E942E
:1029A0005D156B017C01ACEEB4EFA50194010E94B2
:1029B0006B15C60ED71EE81EF91EF7FE06C081E095
:1029C000C81AD108E10880E8F80AC882D982EA82E8
:1029D000FB82C6019F77DF91CF91FF90EF90DF9050
:1029E000CF90BF90AF909F908F9008950E94AB14AE
:1029F000089587E690E00E94AB140895A0E0B0E04F
:102A00008093670090936800A0936900B0936A0078
:102A10000895BB274A3031F4992322F4BDE2909502
:102A200081959F4F0C941515BB27FB015527AA27AD
:102A3000880F991FAA1FA41710F0A41B839550514B
:102A4000B9F7A05DAA3308F0A95DA193009779F7C3
:102A5000B111B1931192CB010C942E15DC01FC0144
:102A6000672F71917723E1F7329704C07C916D93C2
:102A700070836291AE17BF07C8F30895052E97FBC8
:102A80001EF400940E94551557FD07D00E94701542
:102A900007FC03D04EF40C94551550954095309595
:102AA00021953F4F4F4F5F4F0895909580957095BA
:102AB00061957F4F8F4F9F4F08950E949215A59F5C
:102AC000900DB49F900DA49F800D911D1124089529
:102AD000B7FF0C945D150E945D15821B930B089542
:102AE000A1E21A2EAA1BBB1BFD010DC0AA1FBB1F12
:102AF000EE1FFF1FA217B307E407F50720F0A21B84
:102B0000B30BE40BF50B661F771F881F991F1A94F0
:102B100069F760957095809590959B01AC01BD011A
:102B2000CF010895A29FB001B39FC001A39F700D74
:102B3000811D1124911DB29F700D811D1124911DC5
:062B40000895F894FFCF98
:102B4600010000200120000100000041546D65676E
:102B56006133322070726F6772616D6162636465A2
:102B6600666768696A6B6C6D6E6F70717273747587
:102B76007677784461726975737A204D2E2070726B
:102B86006F6A2E797A3132333435363738393039FF
:102B9600383736353433323121402450726F6772FC
:102BA600616D3A20005779626965727A3A00312080
:102BB6002D2033002500576974616A21004C434477
:102BC600204844343437383000437A7974616D3A9A
:102BD600004E6120706F637A6174656B00656B727D
:082BE600616E752E2E2E000019
:00000001FF
