:100000000C9445000C9462000C9462000C94620005
:100010000C94C9160C9462000C9454050C94620064
:100020000C9462000C9462000C9488000C946200A2
:100030000C9462000C9462000C9462000C946200B8
:100040000C9462000C9462000C9462000C946200A8
:100050000C94620054096B099209710A4C0BE70C6D
:10006000EA0CCE0DD20DD90DDD0DE10DF20DEE0D28
:10007000190E67117011BD12D8123C134013C0F94C
:10008000A4B0999282D88090FFBF11241FBECFE503
:10009000D8E0DEBFCDBF11E0A0E6B0E0ECE5F9E3CB
:1000A00002C005900D92AE38B107D9F721E0AEE855
:1000B000B1E001C01D92AC3BB207E1F70E9490177E
:1000C0000C94AC1C0C9400008D9A959A8C9A949A7E
:1000D000A29AAA9AA39AAB9AA49AAC9AA59AAD9A14
:1000E000A69AAE9AA79AAF9AB89AC09AB99AC19AA4
:1000F000BA9AC29ABB9AC39A83B7886083BF83B700
:10010000856083BF8EE48CBF89B7826089BF089504
:100110001F920F920FB60F9211248F93EF93FF93BC
:10012000C09AC19AC29AC39A80916000813019F432
:10013000E091950110C0823019F4E09196010BC056
:10014000843019F4E091970106C0883019F4E091E9
:10015000940101C0E0E0F0E0E258FF4FE491E0FFDD
:1001600002C0959A01C09598E1FF02C0949A01C01F
:100170009498E2FF02C0AA9A01C0AA98E3FF02C0C5
:10018000AB9A01C0AB98E4FF02C0AC9A01C0AC9836
:10019000E5FF02C0AD9A01C0AD98E6FF02C0AE9A7D
:1001A00001C0AE98E7FF02C0AF9A01C0AF9880913E
:1001B0006000813011F4C0980BC0823011F4C198F6
:1001C00007C0843011F4C29803C0883009F4C39882
:1001D00080916000880F893008F081E08093600092
:1001E000FF91EF918F910F900FBE0F901F90189578
:1001F0008F929F92AF92BF92CF92DF92EF92FF9237
:100200000F931F93CF93DF938C0189519C4F873FAE
:100210009A4250F08BE080939501809396018093F1
:10022000970180939401A1C0580117FF04C0AA242C
:10023000BB24A01AB10A8AE090E021E030E04AE055
:10024000A816B9064CF02F5F3F4FBC01469FC00176
:10025000479F900D1124F4CF6901E0E0F0E08AE0BF
:10026000E82EF12C9AE0892E912C4AE0C501B701C5
:100270000E945A18EC01E130F10529F480919401B3
:10028000C81BD10919C0E230F10531F45091970132
:100290008091940190E00CC0E330F10569F4609125
:1002A0009601809197015091940190E0860F911DE5
:1002B000850F911DC81BD90BC701B4010E945A18A4
:1002C000CE010E945A18309719F46093940111C01E
:1002D000E130F10519F4609397010BC0E230F105AC
:1002E00019F46093960105C0E330F10511F46093B1
:1002F0009501C701489F7001499FF00C1124319668
:10030000E217F3070CF4B2CF8AE025303105A4F4EC
:100310002130310519F4809397010BC0223031054B
:1003200019F48093960105C02330310511F48093B0
:1003300095012F5F3F4FE9CF17FF17C091E0C91616
:10034000D10421F48BE0809397010FC022E0C21604
:10035000D10421F48BE08093960107C063E0C616B8
:10036000D10419F48BE080939501DF91CF911F9117
:100370000F91FF90EF90DF90CF90BF90AF909F9044
:100380008F900895009741F0EFE9FFE03197F1F782
:1003900000C000000197F6CF0895009731F025E0E6
:1003A0002A95F1F700000197F8CF08958F929F9258
:1003B000AF92BF92CF92DF92EF92FF924B015C011E
:1003C00020E030E04AE755E40E942C1A6B017C01E2
:1003D00020E030E040E85FE30E94D91887FD24C0A8
:1003E00020E03FEF4FE757E4C701B6010E94281A0B
:1003F0001816ACF420E030E040E251E4C501B4014D
:100400000E942C1A0E944A1920E931E061157105F9
:1004100081F0C9010197F1F761507109F7CFC70168
:10042000B6010E944A1902C061E070E0CB01019759
:10043000F1F7FF90EF90DF90CF90BF90AF909F903B
:100440008F9008958F929F92AF92BF92CF92DF923A
:10045000EF92FF924B015C012BEA3AEA4AEA50E440
:100460000E942C1A6B017C0120E030E040E85FE341
:100470000E94D91887FD21C020E030E04FE753E407
:10048000C701B6010E94281A181694F420E030E043
:100490004AE754E4C501B4010E94DD18FF90EF90D3
:1004A000DF90CF90BF90AF909F908F900C94D6012B
:1004B000C701B6010E944A1901C061E06A95F1F7CF
:1004C000FF90EF90DF90CF90BF90AF909F908F9074
:1004D00008951F93CF93DF931F92CDB7DEB7182FE8
:1004E0000E941F058CEA0E942B05812F0E942B057C
:1004F0000E941F058DEA0E942B0580E00E943205B4
:1005000089830E94250589810F90DF91CF911F91EA
:1005100008951F93CF93DF931F92CDB7DEB7182FA7
:1005200069830E941F058CEA0E942B05812F0E947F
:100530002B056981862F0E942B050E9425058FE1DE
:100540009EE40197F1F700C000000F90DF91CF917A
:100550001F9108951F93CF93DF931F92CDB7DEB7FE
:10056000182F79830E9489027981672F81E0810F9A
:100570000F90DF91CF911F910C9489021F93CF931D
:10058000DF93182F0E946902C82FD0E081E0810F0D
:100590000E9469029E01382BC901DF91CF911F9102
:1005A0000895CF93C0E060E08C2F0E948902CF5F56
:1005B000CF3FC9F7CF91089580FF02C0DC9A01C0F8
:1005C000DC9881FF02C0DD9A01C0DD9882FF02C085
:1005D000DE9A01C0DE9883FF02C0DF9A0895DF989B
:1005E000089589B382958170CD998260CE99846097
:1005F000CF9988600895CF93DF93D498D598D698F3
:10060000D798DA9ADB9A0E94F10290E1899FE00183
:100610001124DB98DB9A0E94F102DB98E7ECF0E012
:100620003197F1F700C000008C2BDF91CF91089536
:10063000D9980C94FB02CF93C82FD49AD59AD69A06
:10064000D79ADA98DB9A82958F700E94DC02DB9849
:10065000DB9A8C2F0E94DC02DB980E94180387FD36
:10066000FCCFCF910895D9980C941B03D99A0C9480
:100670001B03D99A0C94FB02CF93DF93EC01899171
:10068000882319F00E943603FACFDF91CF910895A5
:1006900090E4699F800D112480680C94330381E0FD
:1006A0000E9433038FE39FE10197F1F700C0000040
:1006B000089582E00E9433038FE39FE10197F1F7F1
:1006C00000C000000895CF93D49AD59AD69AD79AAD
:1006D000D39AD19AD29A8FE59AEE0197F1F700C09A
:1006E0000000D998DB98DA98C3E0DB9A83E00E9497
:1006F000DC02DB988FE19EE40197F1F700C0000077
:10070000C15099F7DB9A82E00E94DC02DB988FE906
:100710009FE00197F1F700C0000088E20E943303D8
:1007200088E00E94330381E00E94330386E00E9448
:1007300033038CE0CF910C943303CF93DF93CDB789
:10074000DEB761970FB6F894DEBF0FBECDBF4AE0AB
:10075000BE016F5F7F4F0E94141C0E943C03619694
:100760000FB6F894DEBF0FBECDBFDF91CF910895D5
:100770008F929F92AF92BF92CF92DF92EF92FF92B1
:100780000F931F93CF93DF936B017C018A01453058
:10079000510510F004E010E0C701B6010E944519B0
:1007A000CB010E949D0381E090E0CAE0D0E02AE006
:1007B0008017910740F4AE01249FE001259FD00DE2
:1007C00011240196F5CF012B09F468C08BE891E064
:1007D0000E943C03C701B6010E944A19C69F9001BE
:1007E000C79F300DD69F300D1124B90180E090E0F5
:1007F0000E9476194B015C01BE0180E090E00E94EE
:1008000076199B01AC01C701B6010E942C1AA50103
:1008100094010E9474180E9445196B017C01AB0180
:1008200081E090E02AE030E06AE04217530740F0B0
:100830000196F9016E9F90016F9F300D1124F5CF45
:1008400021E030E04AE050E06AE0C417D50748F004
:100850002F5F3F4FFA016E9FA0016F9F500D112433
:10086000F4CFC1E0D0E08901081B190BC017D107F4
:1008700034F480E090E00E949D032196F7CFC601FA
:10088000DF91CF911F910F91FF90EF90DF90CF906C
:10089000BF90AF909F908F900C949D03DF91CF916C
:1008A0001F910F91FF90EF90DF90CF90BF90AF908E
:1008B0009F908F900895CF93DF93CDB7DEB7619768
:1008C0000FB6F894DEBF0FBECDBF40E1BE016F5F33
:1008D0007F4F0E94141C0E943C0361960FB6F8944F
:1008E000DEBF0FBECDBFDF91CF910895CF92DF92D3
:1008F000EF92FF920F931F93CF93DF938C016B01C5
:100900007A01C0E0D0E0CC15DD0581F0E114F104FE
:1009100011F08CE101C084E10E943303011511053F
:1009200019F0C8010E94C2012196EDCFDF91CF914D
:100930001F910F91FF90EF90DF90CF900895CF928D
:10094000DF92EF92FF920F931F93CF93DF938C016F
:100950006B017A01C0E0D0E0CC15DD0581F0E11437
:10096000F10411F088E101C080E10E943303011518
:10097000110519F0C8010E94C2012196EDCFDF9147
:10098000CF911F910F91FF90EF90DF90CF9008953E
:100990000F931F93CF93DF93EC018230910520F0EA
:1009A00082309105D9F40FC080E80E94330308E239
:1009B00010E080E20E943603015011090115110573
:1009C000C1F7CD2B59F480EC0E943303C8E2D0E08C
:1009D00080E20E94360321972097D1F7DF91CF91D3
:1009E0001F910F9108958330910589F030F4813083
:1009F000910549F0029749F008958430910549F036
:100A0000059749F008958CE007C088E005C08EE0A6
:100A100003C08DE001C08FE00C943303BC0180E87B
:100A20009EE30E944618862F603138F07727CB016D
:100A3000409797FD01969595879580B9089584EA2A
:100A400086BF06B607FEFDCF089584E986BF06B6C9
:100A500004FCFDCF089583B984E886BF06B607FE7F
:100A6000FDCF0895882311F084EC01C084E886BF8F
:100A700006B607FEFDCF83B108958EB5887F8EBD83
:100A800008958EB585608EBD08958E98969A8EB520
:100A90008F7B8EBD10929B0189B7806289BF1092B7
:100AA0009C01BC98C49A08951F920F920FB60F92A2
:100AB00011242F933F938F939F9386B597B52091E1
:100AC000920130919301821B930B26B537B5309379
:100AD0009301209392012EB530E423272EBD8F3150
:100AE000910510F010929B0120919B01222319F097
:100AF00021E02093910120919B01211111C01092BE
:100B0000900110928F0110928E012EB520642EBD9F
:100B100020919B012F5F20939B0122E02093910164
:100B200020919101213009F05FC09C012A503109C8
:100B30002531310510F01092910120919101213061
:100B400009F052C0429728F080919B018F5F8093FB
:100B50009B0180919B01823008F441C080919B01F0
:100B600080FD3DC080918F0190919001880F991F69
:100B70009093900180938F010EB406FE05C08160B2
:100B80009093900180938F0180918E018F5F80936D
:100B90008E018D3020F180919C0181111BC08091CC
:100BA0008F0190919001282F2F7320939A019C011F
:100BB000207C3770689415F8369527951694E1F7E0
:100BC0002093990188279870892F86958695869518
:100BD000809398011092910181E080939C01809113
:100BE0009B018F5F80939B0180919101811105C0D2
:100BF00010929B018EB58F7B8EBD9F918F913F91FF
:100C00002F910F900FBE0F901F90189586B382956D
:100C10008F7091E08927817090E008958A98929A68
:100C20008B98939A0895979A8FE99FE00197F1F72F
:100C300000C0000097980895089580E20895869571
:100C4000869586950895CF93C82FCC0FCC0FCC0FE7
:100C50008C2F0E9469028093A50181E08C0F0E9475
:100C600069028093A60182E08C0F0E946902809342
:100C7000A70183E08C0F0E9469028093A80184E0A1
:100C80008C0F0E9469028093A90185E08C0F0E945D
:100C9000BE029093AB018093AA0187E08C0F0E9463
:100CA00069028093AC01CF910895FF920F931F9337
:100CB000CF93DF9388EE93E00E94C2018FEF0E94F2
:100CC0002D14182F2FEF30E0281B31092730310564
:100CD0000CF410E0CFE9D1E001E084E6F82E899130
:100CE0008823C9F10E94130682E390E00E94C201AA
:100CF0000E94AC166091AD01812F0E948902609123
:100D0000A30181E0810F0E9489026091A20182E02B
:100D1000810F0E9489026091B10183E0810F0E94DE
:100D200089026091A40184E0810F0E948902609190
:100D3000AE017091AF0185E0810F0E94AA02FE0111
:100D400031978081602F8F9D600D112487E0810F86
:100D50000E948902185F0F5F033009F0C0CF612F36
:100D60008FEFDF91CF911F910F91FF900C944D1455
:100D700080B382FB882780F991E08927089580B3AA
:100D800083FB882780F991E089270895811102C0AB
:100D90000C94B806813011F40C94BF068FEF0895BF
:100DA00080E00E94C60680939D0181E00E94C606F5
:100DB00080939E010895BF92CF92DF92EF92FF92AF
:100DC0000F931F93CF93DF930DE911E0CFE9D1E0AB
:100DD000D12CE12CF12CCC24C39422E0B22E8D2D09
:100DE0000E94C606F8019081891749F0882311F006
:100DF000B88201C0C882EE24E394F12C01C01882AD
:100E0000F80181938F01D3942196F2E0DF12E7CFAE
:100E1000EF2859F0DF91CF911F910F91FF90EF9044
:100E2000DF90CF90BF900C945506DF91CF911F912A
:100E30000F91FF90EF90DF90CF90BF900895979A19
:100E400060E070E080E89FE30E94D60197980895E3
:100E50002F923F92CF93DF93E101EA81FB81168AC3
:100E6000158AEA81FB8185899689248535858217D3
:100E70009307ACF4E881F981E80FF91F80810E94A3
:100E8000360360E070E088E492E40E94D601EA81D3
:100E9000FB81858996890196968B858BE2CFDF91C0
:100EA000CF913F902F900895979A0E94D6019798DE
:100EB00008952F923F92CF92DF92EF92FF920F937D
:100EC0001F93CF93DF938C01E1018AE090E09E8B2A
:100ED0008D8BEE24E394F12C4AE08D899E890817CE
:100EE000190758F02FEFE21AF20A489F9001499F24
:100EF000300D11243E8B2D8BF0CF1C8B0B8B80E0A3
:100F000090E00E94C8041E8A1D8A87E2C82ED12C58
:100F1000CE18DF0883E0E80EF11C8D899E898C15C0
:100F20009D05A4F460E00E944803C8010E949D034F
:100F300061E08D890E944803C8010E949D038D894C
:100F40009E898E0D9F1D9E8B8D8BE7CF60E070E09C
:100F50008AEF93E4DF91CF911F910F91FF90EF9073
:100F6000DF90CF903F902F900C94D6012F923F921C
:100F70000F931F93CF93DF938C01E1010E944F03E6
:100F80008BEB90E00E943C03C8010E949D031E8AE7
:100F90001D8A8D899E89059774F460E070E080E277
:100FA00091E40E94D6010E941F078D899E890196B7
:100FB0009E8B8D8BEECF60E070E08AEF93E40E9411
:100FC000D601DF91CF911F910F913F902F900C94FC
:100FD0004F032F923F92CF93DF93E10160E08A8924
:100FE0000E9448038091A2018A3024F480E090E0BE
:100FF0000E949D038091A201992787FD90950E94F0
:101000009D0385E791E00E943C038091A3018A3013
:1010100024F480E090E00E949D038091A301992731
:1010200087FD90950E949D0385E791E00E943C0317
:101030008091AD018A3024F480E090E00E949D030D
:101040008091AD01992787FD90950E949D0385E7CA
:1010500091E00E943C038091A1018A3024F480E059
:1010600090E00E949D038091A101992787FD9095B2
:101070000E949D0361E08A890E9448038091B1012A
:101080008A3024F480E090E00E949D038091B101B9
:10109000992787FD90950E949D0385E791E00E9426
:1010A0003C038091A4018A3024F480E090E00E9407
:1010B0009D038091A401992787FD90950E949D032F
:1010C00085E791E00E943C038091AE019091AF01D1
:1010D0000E949D0361E08DE00E9448038091B00171
:1010E000811103C085EC90E01DC0813019F489ECBA
:1010F00090E018C0823019F48DEC90E013C083307A
:1011000019F481ED90E00EC0843019F485ED90E083
:1011100009C0853019F489ED90E004C0863041F4AF
:101120008DED90E0DF91CF913F902F900C943C0398
:10113000DF91CF913F902F9008952F923F92CF93C0
:10114000DF93C62F682F80E00E9448038C2F9927D9
:1011500087FD90950E949D0381EE90E00E943C03E4
:101160008091A7018A3020F480E090E00E949D03E6
:101170008091A70190E00E949D0385E791E00E9485
:101180003C038091A6018A3020F480E090E00E9428
:101190009D038091A60190E00E949D0385E791E068
:1011A0000E943C038091A5018A3020F480E090E009
:1011B0000E949D038091A50190E00E949D0387E01D
:1011C00091E00E943C038091A8018A3020F480E0E5
:1011D00090E00E949D038091A80190E00E949D03F1
:1011E00085E791E00E943C038091A9018A3020F4B8
:1011F00080E090E00E949D038091A90190E00E9410
:101200009D0385E791E00E943C038091AA019091A3
:10121000AB010E949D0387E091E00E943C03809116
:10122000AC01C4E66C2F0E943A18D92F992329F1FA
:1012300084EE90E00E943C038D2F90E00E949D037D
:1012400087E091E00E943C038091AC016C2F0E94EA
:101250003A1890E0F101968B858B8130910519F455
:1012600089EE90E004C0029741F481EF90E0DF91B5
:10127000CF913F902F900C943C03DF91CF913F9002
:101280002F9008952F923F92EF92FF920F931F930A
:10129000CF93DF93E1018730910508F0F4C3FC019F
:1012A000E65DFF4F0C946E1880E090E00E94C80449
:1012B00060E080E00E9448038BEF90E00E943C03D6
:1012C00061E080E00E94480384E091E00E943C03DA
:1012D000888999891DC080E090E00E94C80460E080
:1012E00080E00E94480380919A0190E00E949D0353
:1012F00060E086E00E9448038091990190E00E949E
:101300009D0361E080E00E9448038091980190E095
:10131000DF91CF911F910F91FF90EF903F902F9011
:101320000C949D0380E090E00E94C80460E080E09F
:101330000E9448038E859F850E949D03EC84FD8456
:10134000C701880F991F0E948F1A8C014B851416B4
:101350001CF04F3F09F0BAC01A8660E371E35A856A
:10136000852F992787FD90958E159F0574F4288504
:101370003985F801E80FF91F8217930711F470837C
:1013800001C060835F5F5A87EACF1416BCF460E047
:1013900084E00E9448032D893E8944E6429FC001B3
:1013A000439F900D11246AEF70E00E945A18CB0100
:1013B0000E949D0389E091E00E943C031A862C85DF
:1013C0003D855AE04A85842F992787FD909582179D
:1013D00093070CF041C0F801E80FF91F80818133B9
:1013E000C1F4411104C08E858093950132C0413013
:1013F00021F48E85809396012CC0423021F48E8595
:101400008093970126C0433021F58E858093940107
:1014100020C0442321F08E859F85892B11F45093A1
:101420009501413021F08E859F85892B11F45093D1
:101430009601423021F08E859F85892B11F45093BF
:101440009701433021F08E859F85892B11F45093AD
:1014500094014F5F4A87B6CF8B858F3FB9F51A86C7
:101460002BE0F22E4A85842F992787FD90952C85B5
:101470003D85821793074CF5F801E80FF91F80812D
:10148000803321F08E859F85892BD9F4411103C0CB
:10149000F09295010EC0413019F4F092960109C006
:1014A000423019F4F092970104C0433011F4F092E5
:1014B00094010E941F0760E070E088EC92E40E94B3
:1014C000D6018A858F5F8A87CDCF1B86C801DF91C1
:1014D000CF911F910F91FF90EF903F902F900C9420
:1014E000271B1A8A0E94AC1680E090E00E94C80474
:1014F00060E08BE00E9448038F81811103C085E189
:1015000091E004C0813021F48BE091E00E943C0323
:101510001E010E94E9070E949C1686E18A8B8B853A
:10152000882309F4A7C060E082E10E9448038BE0B1
:1015300091E00E943C0361E082E10E9448038BE05D
:1015400091E00E943C0360E08A890E9448038091F8
:10155000A2018A3024F480E090E00E949D038091F3
:10156000A201992787FD90950E949D0385E791E050
:101570000E943C038091A3018A3024F480E090E033
:101580000E949D038091A301992787FD90950E9459
:101590009D0385E791E00E943C038091AD018A3074
:1015A00024F480E090E00E949D038091AD01992792
:1015B00087FD90950E949D0385E791E00E943C0382
:1015C0008091A1018A3024F480E090E00E949D0384
:1015D0008091A101992787FD90950E949D0361E06C
:1015E0008A890E9448038B85823001F51E824E81D4
:1015F00047300CF03FC0842F992787FD90952091AC
:10160000A401332727FD309502C0359527954A95CB
:10161000E2F720FF03C001960E949D038BE091E05A
:101620000E943C038E818F5F8E83E1CF833011F562
:101630008091B1018A3024F480E090E00E949D0303
:101640008091B101992787FD90950E949D0385E7C0
:1016500091E00E943C038091A4018A3024F480E050
:1016600090E00E949D038091A401992787FD9095A9
:101670000E949D0360E08CE00E9448030E946A176C
:1016800041E050E0DF91CF911F910F91FF90EF90DB
:101690003F902F900C94B80380E090E00E94C80423
:1016A0008B8587FD1B868B85883041F52091A101B4
:1016B0004091AD016091A3018091A2010E94391572
:1016C0002091AE013091AF014091A4016091B00131
:1016D0008091B1010E94B3150E944F0360E080E049
:1016E0000E9448038DE091E00E943C0384EF91E06A
:1016F0000E94C20181E090E09D838C838E818130C5
:10170000D9F580E090E00E94C80460E08A890E94D8
:1017100048038B85811103C087E191E022C08130AD
:1017200019F48FE191E01DC0823019F486E291E056
:1017300018C0833019F48EE291E013C0843019F49C
:101740008BE391E00EC0853019F481E491E009C08B
:10175000863019F489E491E004C0873021F48DE4E7
:1017600091E00E943C031E828CE291E00E94C20143
:1017700080E090E00E94C8048A85882309F491C023
:10178000F091A201E091A3017091AD016091A101DE
:101790004091A4015091B1012091AE013091AF016F
:1017A0009091B0018130F1F58B85811105C08B8955
:1017B0008F0F8093A20174C0813029F48B898E0F22
:1017C0008093A3016DC0823029F48B89870F8093A9
:1017D000AD0166C0833029F48B89860F8093A10107
:1017E0005FC0843029F48B89850F8093B10158C084
:1017F000853029F48B89840F8093A40151C08630F1
:1018000049F48B899C89820F931F9093AF01809339
:10181000AE0146C0873009F043C08B89890F8093A1
:10182000B0013EC08230E1F58B85811105C08B8906
:10183000F81BF093A20134C0813029F48B89E81B96
:10184000E093A3012DC0823029F48B89781B70931B
:10185000AD0126C0833029F48B89681B6093A101F8
:101860001FC0843029F48B89581B5093B10118C0D4
:10187000853029F48B89481B4093A40111C0863020
:1018800049F48B899C89281B390B3093AF01209335
:10189000AE0106C0873021F48B89981B9093B0016C
:1018A0001A868091A20187FF04C087E18093A2017C
:1018B00004C0883114F01092A2018091A30187FF27
:1018C00004C08BE38093A30104C08C3314F0109206
:1018D000A3018091AD0187FF04C08BE38093AD012C
:1018E00004C08C3314F01092AD018091A10187FFE8
:1018F00004C083E68093A10104C0843614F01092E2
:10190000A1016091A401262F2D7F8091AE019091BD
:10191000AF012130B9F06530A9F039EF360F323020
:1019200088F06A3079F06C3069F0243069F0293041
:1019300059F0623059F49C0123703327232B41F076
:101940002CE107C02FE105C02EE103C020E001C05B
:101950002DE14091B101141644F4552747FD5095EF
:1019600030E0241735071CF421E02093B10116164E
:1019700014F02CE003C06D301CF021E02093A40192
:10198000813F28ED92071CF48FE097E205C080317B
:10199000974234F081EF98ED9093AF018093AE01C0
:1019A0008091B00187FF04C086E08093B00104C03D
:1019B000873014F01092B0011A8ADF91CF911F91F5
:1019C0000F91FF90EF903F902F900C94E90780E0EB
:1019D00090E038C080E090E00E94C8041B8517FFAB
:1019E00004C00E941D068B870BC00E941D06212F7C
:1019F000332727FD309590E0821793070CF41B8660
:101A00001B85111108C080E00E94230681E090E050
:101A10000E94C8042CC00E941D06412F552747FD77
:101A20005095282F30E08B85815042175307A4F042
:101A30000E9423066B8561501E0180E00E949D0874
:101A400082E090E0DF91CF911F910F91FF90EF9096
:101A50003F902F900C94C8040E9423066B85615020
:101A60001E0180E00E949D088B850E9423066B85E5
:101A700081E0DF91CF911F910F91FF90EF903F9008
:101A80002F900C949D08DF91CF911F910F91FF90A3
:101A9000EF903F902F9008952F923F924F925F9238
:101AA0006F927F928F929F92AF92BF92CF92DF926E
:101AB000EF92FF920F931F93CF93DF93CDB7DEB7D3
:101AC000C455D1090FB6F894DEBF0FBECDBF6C016F
:101AD0007B014A018101D10117968C91813011F46B
:101AE0000E943D05F6018081811189C0C7010197DF
:101AF000069708F084C0E0821801C7010E94B6076B
:101B0000D6018C91833031F190F48130F9F082303C
:101B100009F075C084E090E0F801958784878FEF25
:101B20008387168A158A83B7856083BF3FC0853057
:101B300009F458C0D0F0863009F061C00E941C063C
:101B40008FEF0E942D140E941F0650C0180181E0E3
:101B500090E053C00E94D00685B5876085BD81E0C6
:101B6000F80183830E94061641C00E94AC16D8017A
:101B70001B961C921B9781E016968C9316971A96CB
:101B80001C920E941F07F601808190E0873091052A
:101B9000B0F5FC01EF5CFF4F0C946E18180180E06B
:101BA00090E02BC084E390E00E94F304D6018C9176
:101BB00022C0180181E090E00CC0180183E090E0A1
:101BC0001CC081E090E0D80154969C938E9353976B
:101BD00018010E945907F60180810EC0180186E0A5
:101BE00090E00BC0180185E090E007C0D8011B967B
:101BF0008C93F6018081180190E00E944209D8017F
:101C000014968D919C911597892B09F0D4C56596F2
:101C10001FAF0EAF65970E941F07F601808190E00D
:101C20008730910508F055C5FC01E85CFF4F0C9426
:101C30006E18FCE0EF16F10409F4EFC129E2E21698
:101C4000F10409F016C50E943D050E944F0388E289
:101C500090E0D8011D969C938E931C9780E5EBE64F
:101C6000F0E0DE01119601900D928A95E1F784E093
:101C700090E00E948F1A5C01F801168A158A58E2DA
:101C8000552EF80165887688F2E06F167104C4F568
:101C900080E590E00E948F1AF301EE0FFF1FEA0D1E
:101CA000FB1D91838083D8011B961C92569CA0013A
:101CB000579C500D1124F8016385262F332727FDEB
:101CC0003095283231059CF4FC01E20FF31FDA0154
:101CD000A20FB31F21E030E02C0F3D1FA20FB31F56
:101CE0002C9120836F5FD8011B966C93E4CFFFEF9C
:101CF0006F1A7F0AD80156967C926E925597C1CF83
:101D0000D80156961C921E925597D80155968D91E2
:101D10009C915697883291057CF4D501ED91FC9108
:101D2000E80FF91F80810E943603F80185899689A2
:101D30000196968B858BE9CF61E080E00E94480395
:101D4000F801168A158AD80155968D919C9156975F
:101D5000883291058CF4D5011296ED91FC91139780
:101D6000E80FF91F80810E943603F8018589968962
:101D70000196968B858BE7CF88E290E01D969C9329
:101D80008E931C9781E01B968C93F80183858823A2
:101D900009F412C184E090E00E948F1A3C01F8011E
:101DA000168A158AD80155964D905C905697B2E0E8
:101DB0004B165104BCF4D8011C968D919C911D9733
:101DC000880F991F0E948F1AF201EE0FFF1FE60D78
:101DD000F71D91838083BFEF4B1A5B0AF801568A87
:101DE000458AE0CF0E945903F801168A158AF80146
:101DF000858996892485358582179307A4F4D301B4
:101E00004D905C90480E591E0E943903F201808368
:101E1000D80155968D919C915697019656969C9314
:101E20008E935597E4CF61E080E00E944803D8018B
:101E300056961C921E925597D80155968D919C915D
:101E400056971C962D913C911D978217930784F409
:101E5000F30142805380480E591E0E943903D2017B
:101E60008C93F801858996890196968B858BE4CFB2
:101E70000E944F03F801168A158A24853585F801DA
:101E800085899689821793073CF5F301A081B1817A
:101E9000A80FB91FF50160817181680F791F5C91EE
:101EA000DB014C9154130FC0F301A281B381A80F41
:101EB000B91FF50162817381680F791F5C91DB01A5
:101EC0004C91541711F0F80113860196D8015696DB
:101ED0009C938E935597D3CF0E940606892B19F0B9
:101EE000D8011B961C92F8018385811106C0D80188
:101EF00056961C921E92559742C0F801168A158A72
:101F0000D80155968D919C9156971C962D913C9198
:101F10001D97821793077CF4D301ED91FC91E80F94
:101F2000F91F80810E943603F80185899689019600
:101F3000968B858BE5CF61E080E00E944803F80135
:101F4000168A158AD80155968D919C9156971C96A4
:101F50002D913C911D97821793074CF6D301129651
:101F6000ED91FC911397E80FF91F80810E943603D1
:101F7000F801858996890196968B858BE3CFD801E8
:101F800055964D905C905697B2E04B16510484F4F0
:101F9000F201EE0FFF1FE60DF71D808191810E9477
:101FA000271BBFEF4B1A5B0AF801568A458AE7CF19
:101FB000C3010E94271BE9CE168A158AF80165889D
:101FC0007688F2E06F16710494F4F301EE0FFF1FB0
:101FD000EA0DFB1D808191810E94271BFFEF6F1A84
:101FE0007F0AD80156967C926E925597E7CFC5012D
:101FF0000E94271B0E941F0760E070E080E291E4CE
:102000000E94D6010E941F0760E070E080E291E428
:102010000E94D6010E941F0757C10E943D050E94E1
:102020004F0384E090E00E94F30461E089E00E94A5
:1020300048038CE591E00E943C0360E070E08AEF89
:1020400093E40E94D6010E94590383E691E00E9426
:102050003C0360E070E08AEF93E40E94D60141E027
:1020600050E061E070E080E090E00E94760460E083
:1020700070E08FE294E40E94D60182E090E00E943A
:10208000F30460E070E08FE294E40E94D60181E006
:1020900090E00E94F30460E070E08FE294E40E941C
:1020A000D60182E090E00E94F30460E070E08FE2ED
:1020B00094E40E94D60185E090E00E94F30460E081
:1020C00070E08AE794E40E94D60184E090E00E94E8
:1020D000F30440E050E061E070E080E090E00E94B6
:1020E000760460E070E08AE794E40E94D60140E064
:1020F00050E061E070E080E090E00E949F0483E0A7
:1021000090E00E94F30460E070E08AE794E40E94AB
:10211000D60185E090E00E94F30461E080E00E9437
:1021200048038FE691E00E943C0360E070E88BEB8F
:1021300094E40E94D60161E089E00E94480386E0B1
:1021400090E0D8011D969C938E931C970E948F1A45
:1021500063969FAF8EAF6397F801168A158AD801F0
:1021600055968D919C9156971C962D913C911D975B
:1021700082179307BCF46396AEACBFAC6397A80E0E
:10218000B91E0E943903D5018C9360E070E088ECA1
:1021900092E40E94D601F801858996890196968B72
:1021A000858BDDCF41E050E061E070E080E090E0C1
:1021B0000E949F0460E070E88BEB94E40E94D601DB
:1021C00083E090E00E94F30480E090E00E94C80465
:1021D00060E070E88BEB94E40E94D60161E080E05F
:1021E0000E944803FE01EF5AFF4F1F010E9428077B
:1021F00084E090E00E94F30460E089E00E944803DC
:102200000E94280761E088E00E94480385E090E092
:102210000E94F3040E94280760E081E00E944803C6
:102220000E94280763968EAD9FAD63970E94271B7F
:1022300083E090E00E94F30460E070E88BEB94E4AC
:102240000E94D60141E050E06FE070E084E190E050
:102250000E94760441E050E06FE070E084E190E09D
:102260000E949F0481E090E00E94C80484E090E016
:102270000E94F30460E070E08AE794E40E94D601D3
:1022800041E050E06FE070E084E190E00E949F0444
:1022900041E050E06FE070E084E190E00E9476045D
:1022A00083E090E00E94F30482E090E00E94C80482
:1022B00060E070E08AEF93E40E94D6010E944F0331
:1022C00081E090E00E94F3040E944105D2C1C70161
:1022D0000E94F304F4E6EF16F10409F0F4C16BC2B6
:1022E000B2E3EB16F10409F425C1B4F4F0E2EF1601
:1022F000F10409F429C134F43EE0E316F10409F4D1
:102300002AC1E1C181E2E816F10409F420C199E291
:10231000E916F104F9F0D7C1A7E3EA16F10409F4CC
:1023200005C174F4E4E3EE16F10409F409C1F6E31F
:10233000EF16F10409F0C7C1180184E690E0FDC072
:102340002BE3E216F10409F4DEC034E6E316F104EF
:1023500009F0B9C181E090E0D80156969C938E9324
:1023600055971B968C937EEEA72E72E0B72E6DECE0
:102370007CEC8CEC9EE30E945407F80185899689D9
:102380000196968B858BD6018C91180190E00E9466
:102390004209F80165897689C5010E945A18665F6D
:1023A0007F4F882777FD8095982F0E9478190E948B
:1023B000D6010E940606892B41F0D80155968D91D1
:1023C0009C9156978A3F910591F660E070E088E411
:1023D00093E40E94D6010E94AC16F8011682F8011F
:1023E00096818091A101981754F40E94041CD80191
:1023F00016968C9116978F5F16968C93F0CF46E0C9
:10240000442E512C54EC652E59E0752E67E0A62E13
:10241000B12CF80185899689019709F458C00E946A
:10242000041CB2010E945A188F5FD8011B968C932E
:102430001B97E1E01696EC93D80116962C9116970F
:102440001B968C911B9755966D917C915697821790
:10245000BCF1C3010E945A18CB010196B501621B61
:10246000710927FD73950E945A18882777FD80957A
:10247000982F0E9478190E94D6010E94041CD8014E
:102480001C966D917C911D970E945A18F8019187B6
:1024900080878681992787FD909597878687D601C3
:1024A0008C91180190E00E9442096DEC7CEC8CE468
:1024B0009FE30E945407F80186818F5F8683BCCF1B
:1024C0006150710956967C936E935597A2CF82E026
:1024D00090E0968B858B8681873094F467E070E07E
:1024E000681B710987FD739583EE94E00E945A186A
:1024F000882777FD8095982F0E9478190E94D60131
:102500008FEFD8010AC0D8011F961C921E921E9709
:1025100019961C921E9218978FEF1B968C93F601BA
:102520008081180190E00E944209CDC0180188EE18
:1025300093E003C018018AE090E00E945907C3C0ED
:10254000180181E090E0F9CF83B7856002C083B7BE
:102550008A7F83BFB8C0F1E08F16910409F0B3C041
:1025600083B7856083BF8AE080939501809396014D
:102570008093970180939401A6C0BBE3EB16F1040E
:1025800029F0E4E6EE16F10421F09DC00E94C1148A
:102590009AC0D80117968C911797813019F4179625
:1025A0001C9291C081118FC081E0F80187838BC09C
:1025B000B2E3EB16F10409F449C01CF5F1E1EF16A2
:1025C000F10409F44BC08CF430E1E316F10409F096
:1025D00050C0D8011B968C911B978F5F1B968C93D4
:1025E0001B9781E016968C9344C080E2E816F104B4
:1025F000E1F191E2E916F104E1F582E0F801828768
:1026000038C0A6E3EA16F104C1F03CF4E4E3EE16A8
:10261000F10479F581E090E012C0F7E3EF16F104E0
:1026200049F02BE3E216F10421F588E0D8011B966E
:102630008C931FC088EE93E00BC084E690E0F80115
:10264000948B838B18010E94590713C08AE090E095
:10265000D80154969C938E935397F4CFF8018385B9
:102660008150838781E0868304C081E0D8011A9677
:102670008C93F601808129C0180185E090E027C085
:10268000F0E2EF16F10499F021E2E216F104B9F05C
:102690003CE0E316F104B9F481E08816910499F462
:1026A0000E94D10260E08FEF0E944D140CC0D8014F
:1026B0001B968C911B9781501B968C9304C0F8013C
:1026C00083858F5F8387D6018C91180190E00E94EB
:1026D0004209B3E2EB16F10409F45AC08CF4FEE0AF
:1026E000EF16F10409F460C022E2E216F10409F0E9
:1026F00062C041E050E061E070E080E090E04EC0F8
:1027000036E2E316F10481F08EE2E816F104C9F135
:1027100094E2E916F10409F04EC041E050E06FE0A8
:1027200070E084E190E03DC00E944F0387E791E0B4
:102730000E943C0361E080E00E94480383E891E04E
:102740000E943C0360E070E08AE793E40E94D601B7
:1027500041E050E06FE070E084E190E00E94760498
:1027600041E050E06FE070E084E190E00E949F045F
:102770000E944F03D6018C91180190E00E944209FB
:102780001AC041E050E061E070E080E090E009C0F4
:1027900041E050E06FE070E084E190E00E94760458
:1027A0000AC00E949F0407C0B1E08B16910419F47F
:1027B000F80195828482D80114968D919C91159789
:1027C0000197C1F415961C921E921497F60110827F
:1027D00013961C9283B78A7F83BF85B58E7F85BD94
:1027E0008081180190E00E94B607D6018C9190E09C
:1027F0000E944209F8018781813011F40E9441054D
:10280000CC5ADF4F0FB6F894DEBF0FBECDBFDF91BD
:10281000CF911F910F91FF90EF90DF90CF90BF90DD
:10282000AF909F908F907F906F905F904F903F9070
:102830002F900895982F92959F708F702AE0929F05
:10284000800D112408956AE00E943A18292F30E182
:10285000839FC0011124822B08951F93CF93DF9390
:102860001F92CDB7DEB7182F0E941F0582EA0E9483
:102870002B05812F0E942B050E941F0583EA0E94D1
:102880002B0580E00E94320589830E9425058981FD
:102890000F90DF91CF911F9108951F93CF93DF93F6
:1028A0001F92CDB7DEB7182F69830E941F0582EAF9
:1028B0000E942B05812F0E942B056981862F0E9483
:1028C0002B050F90DF91CF911F910C9425050E944D
:1028D0002D140C941A14CF93C82F862F0E94231402
:1028E000682F8C2FCF910C944D1480E00E942D14F2
:1028F000682F606880E00C944D1480E00E942D14D5
:10290000682F6F7780E00C944D1480E00E942D14A6
:10291000682F6F7B80E00C944D1480E00E942D1492
:10292000682F606480E00C944D1480E00E942D14A8
:10293000682F677F80E00C944D1460E080E00E9477
:102940004D1480E00E942D14682F646080E00E9486
:102950004D140E9485140E94951484E00E942D1449
:10296000682F6F7384E00E944D1460E888E00C9437
:102970004D1480E00E942D14682F686080E00C9454
:102980004D1480E00E942D14682F6D7F80E00C9420
:102990004D141F93CF93DF931F92CDB7DEB7182F3F
:1029A00079830E944D147981672F81E0810F0F9008
:1029B000DF91CF911F910C944D141F93CF93DF9310
:1029C0001F92CDB7DEB7182F862F49830E9423149C
:1029D0004981642F6295660F660F607C682B812F9A
:1029E0000F90DF91CF911F910C944D141F93CF93B3
:1029F000DF931F92CDB7DEB7182F862F49830E9431
:102A00002314498190E2499FB0011124682B812F42
:102A10000F90DF91CF911F910C944D14CF92DF92C4
:102A2000EF92FF920F931F93CF93DF93EC017B0103
:102A30006A0189010E948D1481E00E946714F801E7
:102A4000808382E00E946714F601808383E00E9405
:102A50006714F701808384E00E9467148883DF9104
:102A6000CF911F910F91FF90EF90DF90CF900C943A
:102A700085140F931F93CF93DF9300D0CDB7DEB7AC
:102A8000182F062F29834A830E9475142981622FEB
:102A900081E00E946B144A81642F82E00E946B14D3
:102AA000602F83E00E946B14612F84E00E946B14FE
:102AB0000F900F90DF91CF911F910F910C947D1487
:102AC000CF92DF92EF92FF920F931F93CF93DF93FA
:102AD000EC017B016A0189010E94B9140E948D14E6
:102AE00085E00E942D140E941A14888386E00E94BB
:102AF0002D140E941A14F60180830E94951486E01A
:102B00000E942D14829586958770F701808385E059
:102B10000E942D14F82E80E10E942D14C82F81E10F
:102B20000E942D14D0E0D82B9E0123703327F294FD
:102B3000F694F69483E0F8228F2D90E02817390759
:102B400029F02196BE0180E10E94C914F801D183C9
:102B5000C083DF91CF911F910F91FF90EF90DF9095
:102B6000CF900C948514FF920F931F93CF93DF9314
:102B7000F82E062F142FE901B90180E10E94C91433
:102B80000E947514AE016F2D85E00E94DD14402F68
:102B9000612F86E00E94F614DF91CF911F910F9173
:102BA000FF900C947D14CF92DF92EF92FF920F93DF
:102BB0001F93CF93DF93EC017B016A01890189E0C8
:102BC0000E946714F80180838AE00E946714F6016E
:102BD00080838BE00E946714F70180838CE00E9461
:102BE00067148883DF91CF911F910F91FF90EF9031
:102BF000DF90CF900895CF93C62F682F8DE00E946D
:102C00006B146C2F8EE0CF910C946B1488E00E94B3
:102C10002D14807382958F7008950F931F93CF9317
:102C2000DF938C01EB018DE00E946714F801808333
:102C30000E940616823021F48EE00E942D1403C0FB
:102C40008EE00E9467148883DF91CF911F910F91CE
:102C5000089588E00E942D14682F6F7C88E00C9402
:102C60004D1488E00E942D14682F606188E00E9456
:102C70004D1488E00E942D14682F6F7D88E00C941D
:102C80004D1488E00E942D14682F6F7E88E00E940A
:102C90004D1488E00E942D14682F606288E00C9427
:102CA0004D1488E00E942D14682F606388E00C9416
:102CB0004D140F931F93CF93DF931F92CDB7DEB7C1
:102CC000182F062F622F89E049830E946B144981D7
:102CD000642F8AE00E946B14602F8BE00E946B14BB
:102CE000612F8CE00F90DF91CF911F910F910C9489
:102CF0006B140F93CF93C82F862F642F422F202F52
:102D00000E9459166C2F8EE0CF910F910C944D14A8
:102D1000EF920F93CF93DF93C82FD62F842F622F7C
:102D2000402F2E2D0E9459166D2F8C2FDF91CF91A1
:102D30000F91EF900C94FB1521EA31E04DEA51E040
:102D400063EA71E082EA91E00E94D31564EA71E0DF
:102D500081EB91E00C940D1621EA31E04DEA51E04F
:102D600063EA71E082EA91E00E940E152EEA31E0FA
:102D700044EA51E060EB71E081EB91E00C94601566
:102D800085B5886085BD8FEF83BD89B7806889BFB1
:102D900008951F920F920FB60F9211248F93809176
:102DA000B201843119F481E08093B3018091B201C2
:102DB0008F5F8093B2018F910F900FBE0F901F9085
:102DC0001895882319F0D89AD09A0895D098089524
:102DD000D89899B3892F817090FF1FC0D09A8FEC3B
:102DE00097E00197F1F700C00000D09887E191E0EB
:102DF0000197F1F700C00000C89908C08FEC97E078
:102E00000197F1F700C0000081E008958FEC97E092
:102E10000197F1F700C0000080E00895D89898E08D
:102E2000D09A80FF0BC025E22A95F1F70000D098D8
:102E3000E7E1F1E03197F1F700C00AC0E7E1F1E026
:102E40003197F1F700C00000D098F5E2FA95F1F75C
:102E500000008695915021F708950E94E816882376
:102E600039F08CEC0E940E1784E40E940E178FEF4D
:102E70000895D09898E080E0D09A25E22A95F1F75D
:102E80000000D098E5E2EA95F1F700008695C89930
:102E90008068E7E1F1E03197F1F700C00000915060
:102EA00059F708950E94E816882389F08CEC0E9457
:102EB0000E178EEB0E940E170E9439178093B401F3
:102EC0000E9439178093B50181E090E0089580E079
:102ED00090E008950E942D178823F1F084EB91E093
:102EE0000E9452176091B50170E0762F662780919D
:102EF000B401680F711D882777FD8095982F0E9477
:102F0000781920E030E040E85DE30E942C1A10922E
:102F1000B4011092B501089560E070E0CB0108950E
:102F2000CF93DF93CDB7DEB767970FB6F894DEBFC8
:102F30000FBECDBF86E090E09A8B898B1B8281E02B
:102F400090E09E838D8382E090E09A8389831D8A3E
:102F50001C8A1B8A18861C821A861986188A1F8664
:102F600084E690E00E940E050E949D148F9A0E94B4
:102F70006A170E94C0160E9463030E9445050E94C2
:102F800064000E940E067894CE0101961C0140E078
:102F900050E060E070E002960E944C0D0E944105F6
:102FA00081E08887FF24FA9401E010E08091B3016A
:102FB000882371F08B81833059F4CE0101961C0176
:102FC00083E090E00E9442091092B3011092B20196
:102FD0000E940606892BD1F060E070E080EF91E45A
:102FE0000E94D6010E940606892B51F0CE0101965F
:102FF0001C0140E050E064E670E002960E944C0D37
:1030000060E070E088EC92E40E94D60180919C011F
:10301000882349F180919901811125C01F8A1E8A58
:1030200089819A818230910541F02091980130E0A8
:103030008217930711F41F8B0E8B8091980190E0FB
:103040009A83898360919A014E895F8970E0CE01ED
:1030500001961C0102960E944C0D10929C01F09268
:103060009A01F09299018C81813009F09FCF0E94E2
:10307000DB069CCF991B79E004C0991F961708F0D6
:10308000961B881F7A95C9F780950895AA1BBB1BCC
:1030900051E107C0AA1FBB1FA617B70710F0A61B58
:1030A000B70B881F991F5A95A9F780959095BC0179
:1030B000CD01089597FB072E16F4009407D077FDF5
:1030C00009D00E94461807FC05D03EF490958195E2
:1030D0009F4F0895709561957F4F0895EE0FFF1FE4
:1030E0000590F491E02D09945058BB27AA270ED0E3
:1030F00075C166D130F06BD120F031F49F3F11F4EF
:103100001EF45BC10EF4E095E7FB51C1E92F77D1C6
:1031100080F3BA17620773078407950718F071F4F4
:103120009EF58FC10EF4E0950B2EBA2FA02D0B014A
:10313000B90190010C01CA01A0011124FF27591BFC
:1031400099F0593F50F4503E68F11A16F040A22F02
:10315000232F342F4427585FF3CF46953795279573
:10316000A795F0405395C9F77EF41F16BA0B620B72
:10317000730B840BBAF09150A1F0FF0FBB1F661FB9
:10318000771F881FC2F70EC0BA0F621F731F841FFC
:1031900048F4879577956795B795F7959E3F08F022
:1031A000B3CF9395880F08F09927EE0F97958795E1
:1031B0000895D9D008F481E008950CD00FC107D14B
:1031C00040F0FED030F021F45F3F19F0F0C0511113
:1031D00039C1F3C014D198F39923C9F35523B1F33E
:1031E000951B550BBB27AA2762177307840738F076
:1031F0009F5F5F4F220F331F441FAA1FA9F333D0D5
:103200000E2E3AF0E0E830D091505040E695001C88
:10321000CAF729D0FE2F27D0660F771F881FBB1F44
:10322000261737074807AB07B0E809F0BB0B802D1E
:10323000BF01FF2793585F4F2AF09E3F510568F06A
:10324000B6C000C15F3FECF3983EDCF386957795FE
:103250006795B795F7959F5FC9F7880F911D96956C
:10326000879597F90895E1E0660F771F881FBB1FC8
:10327000621773078407BA0720F0621B730B840B75
:10328000BA0BEE1F88F7E095089504D06894B11149
:10329000D9C00895BCD088F09F5790F0B92F9927D6
:1032A000B751A0F0D1F0660F771F881F991F1AF051
:1032B000BA95C9F712C0B13081F0C3D0B1E008951A
:1032C000C0C0672F782F8827B85F39F0B93FCCF39B
:1032D000869577956795B395D9F73EF49095809547
:1032E000709561957F4F8F4F9F4F0895E89409C067
:1032F00097FB3EF490958095709561957F4F8F4F29
:103300009F4F9923A9F0F92F96E9BB279395F6953E
:10331000879577956795B795F111F8CFFAF4BB0FBC
:1033200011F460FF1BC06F5F7F4F8F4F9F4F16C020
:10333000882311F096E911C0772321F09EE8872FAA
:10334000762F05C0662371F096E8862F70E060E066
:103350002AF09A95660F771F881FDAF7880F9695DF
:10336000879597F90895990F0008550FAA0BE0E883
:10337000FEEF16161706E807F907C0F01216130637
:10338000E407F50798F0621B730B840B950B39F477
:103390000A2661F0232B242B252B21F408950A26DD
:1033A00009F4A140A6958FEF811D811D089597F91D
:1033B0009F6780E870E060E008959FEF80EC0895DB
:1033C00000240A9416161706180609060895002404
:1033D0000A9412161306140605060895092E03947E
:1033E000000C11F4882352F0BB0F40F4BF2B11F4F2
:1033F00060FF04C06F5F7F4F8F4F9F4F089557FD51
:103400009058440F551F59F05F3F71F04795880F52
:1034100097FB991F61F09F3F79F0879508951216E9
:1034200013061406551FF2CF4695F1DF08C0161695
:1034300017061806991FF1CF869571056105089446
:103440000895E894BB2766277727CB0197F908955D
:103450008ADF08F48FEF08950BD0C0CFB1DF28F0DA
:10346000B6DF18F0952309F0A2CFA7CF1124EACF39
:10347000C6DFA0F3959FD1F3950F50E0551F629FD3
:10348000F001729FBB27F00DB11D639FAA27F00DBD
:10349000B11DAA1F649F6627B00DA11D661F829FE4
:1034A0002227B00DA11D621F739FB00DA11D621FC9
:1034B000839FA00D611D221F749F3327A00D611DE6
:1034C000231F849F600D211D822F762F6A2F1124C8
:1034D0009F5750408AF0E1F088234AF0EE0FFF1F1B
:1034E000BB1F661F771F881F91505040A9F79E3F52
:1034F000510570F05CCFA6CF5F3FECF3983EDCF354
:10350000869577956795B795F795E7959F5FC1F78E
:10351000FE2B880F911D9695879597F90895CF9367
:10352000DF938230910510F482E090E0E091BA01DF
:10353000F091BB0120E030E0A0E0B0E0309739F13D
:103540004081518148175907B8F04817590771F45D
:1035500082819381109729F013969C938E931297F2
:103560002CC09093BB018093BA0127C0211531056F
:1035700031F04217530718F0A901DB0101C0EF0138
:103580009A01BD01DF010280F381E02DD7CF211523
:103590003105F9F0281B390B2430310580F48A817C
:1035A0009B816115710521F0FB019383828304C027
:1035B0009093BB018093BA01FE01329644C0FE0194
:1035C000E20FF31F819391932250310939832883AD
:1035D0003AC02091B8013091B901232B41F42091D8
:1035E0006300309164003093B9012093B8012091B9
:1035F0006100309162002115310541F42DB73EB7CD
:103600004091650050916600241B350BE091B80194
:10361000F091B901E217F307A0F42E1B3F0B281716
:10362000390778F0AC014E5F5F4F2417350748F03B
:103630004E0F5F1F5093B9014093B801819391934E
:1036400002C0E0E0F0E0CF01DF91CF910895CF9389
:10365000DF93009709F487C0FC013297138212822E
:10366000C091BA01D091BB01209781F420813181B2
:10367000280F391F8091B8019091B90182179307E3
:1036800079F5F093B901E093B8016DC0DE0120E057
:1036900030E0AE17BF0750F412964D915C9113972E
:1036A0009D014115510509F1DA01F3CFB383A283DE
:1036B00040815181840F951F8A179B0771F48D916A
:1036C0009C911197840F951F029691838083129687
:1036D0008D919C911397938382832115310529F451
:1036E000F093BB01E093BA013EC0D9011396FC935D
:1036F000EE9312974D915D91A40FB51FEA17FB074A
:1037000079F480819181840F951F0296D9011196D9
:103710009C938E938281938113969C938E931297A0
:10372000E0E0F0E08A819B81009719F0FE01EC0156
:10373000F9CFCE01029628813981820F931F209103
:10374000B8013091B9012817390769F4309729F485
:103750001092BB011092BA0102C013821282D09360
:10376000B901C093B801DF91CF9108958F929F92D4
:10377000AF92BF92CF92DF92EF92FF92CF93DF93FF
:10378000EC01688179818A819B81611571058105D0
:10379000910521F464E279ED8BE597E02DE133EFBB
:1037A00041E050E00E94491C49015A019B01AC01D3
:1037B000A7EAB1E40E94681C6B017C01ACEEB4EF97
:1037C000A50194010E94761CC60ED71EE81EF91EA4
:1037D000F7FE06C081E0C81AD108E10880E8F80ABF
:1037E000C882D982EA82FB82C6019F77DF91CF919E
:1037F000FF90EF90DF90CF90BF90AF909F908F9011
:1038000008950E94B61B089587E690E00E94B61BBB
:103810000895A0E0B0E08093670090936800A093C3
:103820006900B0936A000895BB274A3031F49923A8
:1038300022F4BDE2909581959F4F0C94201CBB27EC
:10384000FB015527AA27880F991FAA1FA41710F05C
:10385000A41B83955051B9F7A05DAA3308F0A95D68
:10386000A193009779F7B111B1931192CB010C9408
:10387000391CDC01FC01672F71917723E1F7329746
:1038800004C07C916D9370836291AE17BF07C8F33B
:103890000895052E97FB1EF400940E94601C57FDAE
:1038A00007D00E947B1C07FC03D04EF40C94601CD4
:1038B00050954095309521953F4F4F4F5F4F08955C
:1038C00090958095709561957F4F8F4F9F4F08958C
:1038D0000E949D1CA59F900DB49F900DA49F800DEC
:1038E000911D11240895B7FF0C94681C0E94681C58
:1038F000821B930B0895A1E21A2EAA1BBB1BFD018C
:103900000DC0AA1FBB1FEE1FFF1FA217B307E407BE
:10391000F50720F0A21BB30BE40BF50B661F771F16
:10392000881F991F1A9469F76095709580959095F6
:103930009B01AC01BD01CF010895A29FB001B39FCF
:10394000C001A39F700D811D1124911DB29F700DA8
:0C395000811D1124911D0895F894FFCFF3
:10395C00010000BC0120000100000041546D6567AE
:10396C006133322070726F6772616D61626364657E
:10397C00666768696A6B6C6D6E6F70717273747563
:10398C007677784461726975737A204D2E20707247
:10399C006F6A2E797A3132333435363738393039DB
:1039AC00383736353433323121402450726F6772D8
:1039BC00616D3A2000506E2E0057742E0053722EFB
:1039CC0000437A2E0050742E00536F2E004E642E3E
:1039DC00002E20004E523A20004F54574152544171
:1039EC00005A414D4B4E4945544100577962696527
:1039FC00727A3A0031202D200025007C005A41506B
:103A0C004953414E4F2100474F445A494E59004D9E
:103A1C00494E5554590053454B554E445900534546
:103A2C00544E452053454B554E4400445A49454E3F
:103A3C00004D49455349414300524F4B00445A49AC
:103A4C00454E205459474F444E49410057697461C3
:103A5C006A21004C43442048443434373830004306
:103A6C007A7974616D3A004E6120706F637A61747B
:0E3A7C00656B00656B72616E752E2E2E00005C
:00000001FF
