:100000000C9430000C944D000C944D000C944D0059
:100010000C94B7080C944D000C9455030C944D00AF
:100020000C944D000C944D000C9464000C944D0005
:100030000C944D000C944D000C944D000C944D000C
:100040000C944D000C944D000C944D000C944D00FC
:100050000C944D00C0F9A4B0999282D88090FF0012
:1000600011241FBECFE5D8E0DEBFCDBF10E0A0E673
:10007000B0E0E6EFF8E102C005900D92A43DB107B3
:10008000D9F720E0A4EDB0E001C01D92AA3EB2076E
:10009000E1F70E943C090C94790C0C9400008FEF5E
:1000A00084BB85BB87B38F6087BB88B38F6088BBF9
:1000B00083B7886083BF83B7856083BF8EE48CBFBE
:1000C00089B7826089BF08951F920F920FB60F9271
:1000D00011248F939F93EF93FF9388B38F6088BB16
:1000E00080916000813019F4E091DC000EC0823014
:1000F00019F4E091DD0009C0843019F4E091DE00CC
:1001000004C0883039F4E091DB00F0E0EC5AFF4F96
:10011000E491E5BB98B38091600080958F70907FEB
:10012000892B88BB80916000880F893008F081E0BE
:1001300080936000FF91EF919F918F910F900FBE80
:100140000F901F901895CF93DF93FC01815F984D1E
:100150008F319E4410F0E0E0F0E0EF01F7FF04C0C3
:10016000CC27DD27CE1BDF0B9E014AE050E081E06B
:1001700090E06AE0C417D50744F00196DA016A9F5F
:10018000A0016B9F500D1124F5CF843091059CF098
:10019000CE0168EE73E00E9481096093DC0040911B
:1001A000DC0088E19CEF489F9001499F300D1124AD
:1001B0002C0F3D1F06C04AE04093DC0083309105C0
:1001C00079F4C90164E670E00E9481096093DD0062
:1001D0008091DD00B4E68B9F20193109112404C001
:1001E0004093DD00019779F0C9016AE070E00E9458
:1001F00081096093DE008091DE009AE0899F2019DA
:100200003109112402C04093DE002093DB00EF2B64
:1002100019F48AE08093DB00DF91CF910895009775
:1002200041F0EFE9FFE03197F1F700C000000197DE
:10023000F6CF0895009731F025E02A95F1F70000F8
:100240000197F8CF08958F929F92AF92BF92CF926D
:10025000DF92EF92FF924B015C0120E030E04AE731
:1002600055E40E94BA0A6B017C0120E030E040E8CE
:100270005FE30E94A90987FD24C020E03FEF4FE71C
:1002800057E4C701B6010E94B60A1816ACF420E084
:1002900030E040E251E4C501B4010E94BA0A0E9474
:1002A000150A20E931E06115710581F0C901019756
:1002B000F1F761507109F7CFC701B6010E94150A25
:1002C00002C061E070E0CB010197F1F7FF90EF9081
:1002D000DF90CF90BF90AF909F908F9008958F92B6
:1002E0009F92AF92BF92CF92DF92EF92FF924B011B
:1002F0005C012BEA3AEA4AEA50E40E94BA0A6B012E
:100300007C0120E030E040E85FE30E94A90987FD1E
:1003100021C020E030E04FE753E4C701B6010E945E
:10032000B60A181694F420E030E04AE754E4C50118
:10033000B4010E94AD09FF90EF90DF90CF90BF9085
:10034000AF909F908F900C942301C701B6010E943B
:10035000150A01C061E06A95F1F7FF90EF90DF9018
:10036000CF90BF90AF909F908F90089580FF02C074
:10037000DC9A01C0DC9881FF02C0DD9A01C0DD98E3
:1003800082FF02C0DE9A01C0DE9883FF02C0DF9ABE
:100390000895DF98089589B382958170CD99826020
:1003A000CE998460CF9988600895CF93DF93D498D5
:1003B000D598D698D798DA9ADB9A0E94CB0190E12B
:1003C000899FE0011124DB98DB9A0E94CB01DB9826
:1003D000E7ECF0E03197F1F700C000008C2BDF91E3
:1003E000CF910895D9980C94D501CF93C82FD49A62
:1003F000D59AD69AD79ADA98DB9A82958F700E940E
:10040000B601DB98DB9A8C2F0E94B601DB980E9424
:10041000F20187FDFCCFCF910895D9980C94F50196
:10042000D99A0C94F501D99A0C94D501CF93DF9306
:10043000EC018991882319F00E941002FACFDF9114
:10044000CF91089590E4699F800D112480680C94E9
:100450000D0281E00E940D028FE39FE10197F1F709
:1004600000C00000089582E00E940D028FE39FE12A
:100470000197F1F700C000000895CF93D49AD59A60
:10048000D69AD79AD39AD19AD29A8FE59AEE0197B3
:10049000F1F700C00000D998DB98DA98C3E0DB9A46
:1004A00083E00E94B601DB988FE19EE40197F1F7AB
:1004B00000C00000C15099F7DB9A82E00E94B601AB
:1004C000DB988FE99FE00197F1F700C0000088E218
:1004D0000E940D0288E00E940D0281E00E940D0240
:1004E00086E00E940D028CE0CF910C940D02CF9318
:1004F000DF93CDB7DEB761970FB6F894DEBF0FBEBE
:10050000CDBF4AE0BE016F5F7F4F0E94440C0E9446
:10051000160261960FB6F894DEBF0FBECDBFDF9115
:10052000CF910895CF93DF93CDB7DEB761970FB624
:10053000F894DEBF0FBECDBF40E1BE016F5F7F4FBD
:100540000E94440C0E94160261960FB6F894DEBF1A
:100550000FBECDBFDF91CF910895CF92DF92EF9282
:10056000FF920F931F93CF93DF938C016B017A015E
:10057000C0E0D0E0CC15DD0581F0E114F10411F00C
:100580008CE101C084E10E940D020115110519F0F2
:10059000C8010E940F012196EDCFDF91CF911F91ED
:1005A0000F91FF90EF90DF90CF900895CF92DF9260
:1005B000EF92FF920F931F93CF93DF938C016B0108
:1005C0007A01C0E0D0E0CC15DD0581F0E114F10442
:1005D00011F088E101C080E10E940D0201151105B2
:1005E00019F0C8010E940F012196EDCFDF91CF9144
:1005F0001F910F91FF90EF90DF90CF9008950F9390
:100600001F93CF93DF93EC018230910520F082306D
:100610009105D9F40FC080E80E940D0208E210E0B5
:1006200080E20E9410020150110901151105C1F765
:10063000CD2B59F480EC0E940D02C8E2D0E080E29C
:100640000E94100221972097D1F7DF91CF911F913F
:100650000F9108958330910589F030F48130910530
:1006600049F0029749F008958430910549F00597C3
:1006700049F008958CE007C088E005C08EE003C013
:100680008DE001C08FE00C940D028E98969A8EB585
:1006900085608EBD8EB58F7B8EBD1092E20089B7CE
:1006A000806289BF1092E30008951F920F920FB6E7
:1006B0000F9211242F933F938F939F9386B597B5F5
:1006C0002091D8003091D900821B930B26B537B505
:1006D0003093D9002093D8002EB530E423272EBDC7
:1006E0008F31910510F01092E2002091E200222358
:1006F00019F021E02093D7002091E200211111C0D0
:100700001092D6001092D5001092D4002EB520641D
:100710002EBD2091E2002F5F2093E20022E0209383
:10072000D7002091D700213009F05FC09C012A50EA
:1007300031092531310510F01092D7002091D700F2
:10074000213009F052C0429728F08091E2008F5F7B
:100750008093E2008091E200823008F441C08091F1
:10076000E20080FD3DC08091D5009091D600880FB9
:10077000991F9093D6008093D5000EB406FE05C055
:1007800081609093D6008093D5008091D4008F5FD4
:100790008093D4008D3020F18091E30081111BC043
:1007A0008091D5009091D600282F2F732093E100DF
:1007B0009C01207C3770689415F83695279516941F
:1007C000E1F72093E00088279870892F8695869519
:1007D00086958093DF001092D70081E08093E3003C
:1007E0008091E2008F5F8093E2008091D7008111B9
:1007F00005C01092E2008EB58F7B8EBD9F918F91C8
:100800003F912F910F900FBE0F901F901895979AC0
:1008100060E070E080E89FE30E94230197980895CC
:100820002F923F920F931F93CF93DF938C01E1019F
:100830000E94290289E690E00E941602C8010E94E7
:1008400077021B861A868A859B85059774F460E07B
:1008500070E080E291E40E9423010E9407048A85EF
:100860009B8501969B878A87EECF60E070E08AEFD8
:1008700093E40E942301DF91CF911F910F913F904C
:100880002F900C9429022F923F920F931F93CF9396
:10089000DF938B01E10181309105C1F1ECF4892BEB
:1008A00009F077C080E090E00E94FF0260E080E005
:1008B0000E94220283E790E00E94160261E080E03D
:1008C0000E9422028CE790E0DF91CF911F910F915F
:1008D0003F902F900C9416028230910591F103976E
:1008E00009F057C080E090E00E94FF0260E080E0E5
:1008F0000E9422028091E40090E00E94770261E071
:1009000080E00E9422028091E5003AC080E090E001
:100910000E94FF0260E080E00E942202C8010E9463
:10092000770260E086E00E9422028091E00090E081
:100930000E94770261E080E00E9422028091DF0045
:100940001FC088859985803127E292071CF080E1DD
:1009500097E205C0813F984D24F480EF98ED998788
:10096000888780E090E00E94FF02888599850E9438
:10097000A30060E080E00E9422028885998501C082
:1009800090E0DF91CF911F910F913F902F900C94A9
:100990007702DF91CF911F910F913F902F90089593
:1009A0002F923F92AF92BF92CF92DF92EF92FF923F
:1009B0000F931F93CF93DF9300D000D0CDB7DEB756
:1009C0006C017B0181013C822B820E940704F601AD
:1009D000808191818130910509F4EEC11CF4892B4D
:1009E00049F0C5C28230910509F4EAC1039709F4C0
:1009F00065C2BDC2FCE0EF16F10409F496C089E2BD
:100A0000E816F10409F0ACC20E94290282E890E0E5
:100A10000E94160261E080E00E94220283E990E0D9
:100A20000E94160280E190E0F10195838483F80131
:100A300084819581880F991F0E941D0B7C010E9463
:100A40003302F80113861286F8018285938524818A
:100A500035818217930774F46701C80ED91E0E946E
:100A60001302F6018083F8018285938501969387AE
:100A70008287EACF61E080E00E942202F80184814F
:100A8000958193878287F8012285338584819581BA
:100A9000880F991F2817390764F46701C20ED31E07
:100AA0000E941302F6018083F801828593850196E6
:100AB000E8CF0E942902F80113861286F801828588
:100AC000938524813581821793076CF4F701E80F31
:100AD000F91F80810E941002F8018285938501969A
:100AE00093878287EBCF61E080E00E942202F801C9
:100AF0008481958193878287F8012285338584815B
:100B00009581880F991F281739075CF4F701E20FC8
:100B1000F31F80810E941002F8018285938501965F
:100B2000E9CFC7010E94B50B82CF0E94290284E061
:100B300090E00E942A0361E089E00E94220284EA98
:100B400090E00E94160260E070E08AEF93E40E9459
:100B500023010E9433028BEA90E00E94160260E0BB
:100B600070E08AEF93E40E94230141E050E061E0ED
:100B700070E080E090E00E94AD0260E070E08FE203
:100B800094E40E94230182E090E00E942A0360E046
:100B900070E08FE294E40E94230181E090E00E94E3
:100BA0002A0360E070E08FE294E40E94230182E077
:100BB00090E00E942A0360E070E08FE294E40E94DB
:100BC000230185E090E00E942A0360E070E08AE75C
:100BD00094E40E94230184E090E00E942A0340E014
:100BE00050E061E070E080E090E00E94AD0260E0E3
:100BF00070E08AE794E40E94230140E050E061E065
:100C000070E080E090E00E94D60283E090E00E94D5
:100C10002A0360E070E08AE794E40E94230185E003
:100C200090E00E942A0361E080E00E94220287EBAC
:100C300090E00E94160260E070E88BEB94E40E9462
:100C4000230161E089E00E94220286E090E0F10148
:100C5000958384830E941D0B9A838983F1011386F7
:100C60001286F80182859385248135818217930746
:100C7000ACF4A980BA80A80EB91E0E941302F50137
:100C8000808360E070E088EC92E40E942301F80128
:100C900082859385019693878287E3CF41E050E078
:100CA00061E070E080E090E00E94D60260E070E8D1
:100CB0008BEB94E40E94230183E090E00E942A03DE
:100CC00080E090E00E94FF0260E070E88BEB94E42B
:100CD0000E94230161E080E00E942202CE01019681
:100CE0001C010E94DC0884E090E00E942A0360E07E
:100CF00089E00E9422020E94DC0861E088E00E94F4
:100D0000220285E090E00E942A030E94DC0860E055
:100D100081E00E9422020E94DC0889819A810E945F
:100D2000B50B83E090E00E942A0360E070E88BEB53
:100D300094E40E94230141E050E06FE070E084E120
:100D400090E00E94AD0241E050E06FE070E084E18D
:100D500090E00E94D60281E090E00E94FF0284E0D1
:100D600090E00E942A0360E070E08AE794E40E9429
:100D7000230141E050E06FE070E084E190E00E94E8
:100D8000D60241E050E06FE070E084E190E00E9424
:100D9000AD0283E090E00E942A0382E090E00E948E
:100DA000FF0260E070E08AEF93E40E9423010E945A
:100DB000290281E090E001C0C7010E942A03D0C04F
:100DC000F2E3EF16F10409F4AEC004F591E1E9167F
:100DD000F10409F469C06CF4F0E1EF16F10409F0D4
:100DE000BFC0F1018085918526813781820F931FD5
:100DF00062C080E2E816F10409F452C091E2E916FB
:100E0000F10409F0ADC083B78A7F4CC0E6E3EE166B
:100E1000F10409F482C034F484E3E816F10409F41F
:100E200086C09EC097E3E916F10409F472C0EBE3B3
:100E3000EE16F10409F094C089E08093DC00109272
:100E4000DD001092DE001092DB0060E070E08AE7C7
:100E500094E40E94230185E08093DC0086E0809387
:100E6000DD0087E08093DE0088E08093DB0060E0B7
:100E700070E08AE794E40E94230181E08093DC0023
:100E800082E08093DD0083E08093DE0084E0809345
:100E9000DB0060E070E08AE794E40E94230160C018
:100EA00083B7856083BF5CC0F10180859185268111
:100EB0003781821B930B9187808752C0F1E2EF1636
:100EC000F10409F446C09CF491E1E916F10499F1AA
:100ED000E0E2EE16F104B9F1F0E1EF16F10409F0E9
:100EE0003FC08091E400F1019681890F29C084E31D
:100EF000E816F104E1F02CF4E2E3EE16F10499F0C7
:100F00002FC0F6E3EF16F10441F087E3E816F10491
:100F100039F5180188EE93E003C0180184E690E0EB
:100F20000E9408091DC018018AE090E0F9CF18015D
:100F300081E090E0F5CF8091E400F1019681891B7A
:100F40008093E4000DC08091E500F1019681890F46
:100F500005C08091E500F1019681891B8093E50031
:100F60001801B701F601808191810E944304F3E2E8
:100F7000EF16F10409F45CC08CF49EE0E916F1046C
:100F800009F462C0E2E2EE16F10409F062C041E049
:100F900050E061E070E080E090E050C0F6E2EF16D3
:100FA000F10481F08EE2E816F104D9F194E2E91639
:100FB000F10409F04EC041E050E06FE070E084E1E0
:100FC00090E03FC00E9429028FEB90E00E94160241
:100FD00061E080E00E9422028AEC90E00E9416020A
:100FE00060E070E08AE793E40E94230141E050E072
:100FF0006FE070E084E190E00E94AD0241E050E0DB
:101000006FE070E084E190E00E94D6020E94290225
:10101000180166E270E0F601808191810E9443042C
:1010200018C041E050E061E070E080E090E009C06D
:1010300041E050E06FE070E084E190E00E94AD029A
:1010400008C00E94D60205C081E090E0F8019383B9
:1010500082830F900F900F900F90DF91CF911F918F
:101060000F91FF90EF90DF90CF90BF90AF903F90A7
:101070002F9008952F923F92EF92FF920F931F931C
:10108000CF93DF938C017B01E101FC018081918191
:10109000892B51F5CB010197039730F5718360835C
:1010A000CB010E941004F80180819181823091056A
:1010B00059F08330910569F00197B1F4B70181E0EF
:1010C00090E00E94430410C083B7856083BF1E0177
:1010D00006C01E0161E070E0C8010E94D00464E314
:1010E00070E0C8010E94D0048A819B81892B29F479
:1010F0001E01B701C8010E94D0048A819B8101971B
:10110000D9F41B821A82F8011182108283B78A7F78
:1011100083BF1E01808191810E941004B701F801F4
:1011200080819181DF91CF911F910F91FF90EF907E
:101130003F902F900C944304DF91CF911F910F911A
:10114000FF90EF903F902F90089581B38C6081BB0A
:1011500082B38C6082BB85B5886085BD85B58560AE
:1011600085BD8AE083BD89B7806889BF08951F92D5
:101170000F920FB60F9211248F939F938091E400EA
:101180009091DA00981710F0929A01C0929880918D
:10119000E5009091DA00981710F0939A01C09398A7
:1011A0008091DA008F5F8093DA009F918F910F908A
:1011B0000FBE0F901F9018952F923F92CF93DF9301
:1011C000E101EA81FB8113861286EA81FB81828537
:1011D00093852481358182179307ACF4E881F981E6
:1011E000E80FF91F80810E94100260E070E088E43F
:1011F00092E40E942301EA81FB8182859385019616
:1012000093878287E2CFDF91CF913F902F9008950F
:101210002F923F920F931F93CF93DF938C01E101A5
:101220009F838E8380E090E00E94FF021B861A86D7
:101230008A859B85883291059CF460E00E94220299
:10124000C8010E94770261E08A850E942202C801DB
:101250000E9477028A859B8508969B878A87E8CFBC
:1012600060E070E08AEF93E4DF91CF911F910F91DE
:101270003F902F900C942301CF93DF93CDB7DEB72F
:101280002C970FB6F894DEBF0FBECDBF1A86198615
:1012900018861F821A82198281E090E09C838B83DA
:1012A0008F9A0E94A5080E943D020E9445030E9459
:1012B0004F007894CE0101961C0160E070E0C101FE
:1012C0000E943A081FEF8091E3008823E1F38091A8
:1012D000E0008111F8CF8EB5887F8EBD6091E1006E
:1012E00070E0CE0101961C01C1010E943A081092E3
:1012F000E3001093E1001093E0008EB585608EBD91
:10130000E2CF97FB072E16F4009407D077FD09D0A3
:101310000E94950907FC05D03EF4909581959F4F5A
:101320000895709561957F4F0895AA1BBB1B51E1ED
:1013300007C0AA1FBB1FA617B70710F0A61BB70B45
:10134000881F991F5A95A9F780959095BC01CD01EA
:10135000089597D008F481E008950CD0CDC0C5D091
:1013600040F0BCD030F021F45F3F19F0AEC0511115
:10137000F7C0B1C0D2D098F39923C9F35523B1F384
:10138000951B550BBB27AA2762177307840738F0F4
:101390009F5F5F4F220F331F441FAA1FA9F333D053
:1013A0000E2E3AF0E0E830D091505040E695001C07
:1013B000CAF729D0FE2F27D0660F771F881FBB1FC3
:1013C000261737074807AB07B0E809F0BB0B802D9D
:1013D000BF01FF2793585F4F2AF09E3F510568F0E9
:1013E00074C0BEC05F3FECF3983EDCF38695779502
:1013F0006795B795F7959F5FC9F7880F911D9695EB
:10140000879597F90895E1E0660F771F881FBB1F46
:10141000621773078407BA0720F0621B730B840BF3
:10142000BA0BEE1F88F7E09508957FD088F09F579C
:1014300090F0B92F9927B751A0F0D1F0660F771F20
:10144000881F991F1AF0BA95C9F712C0B13081F000
:1014500086D0B1E0089583C0672F782F8827B85FC2
:1014600039F0B93FCCF3869577956795B395D9F761
:101470003EF490958095709561957F4F8F4F9F4F6B
:101480000895990F0008550FAA0BE0E8FEEF161615
:101490001706E807F907C0F012161306E407F50768
:1014A00098F0621B730B840B950B39F40A2661F0DC
:1014B000232B242B252B21F408950A2609F4A1407F
:1014C000A6958FEF811D811D089597F99F6780E88C
:1014D00070E060E008959FEF80EC089500240A9486
:1014E0001616170618060906089500240A941216FF
:1014F0001306140605060895092E0394000C11F432
:10150000882352F0BB0F40F4BF2B11F460FF04C0DE
:101510006F5F7F4F8F4F9F4F089557FD9058440F37
:10152000551F59F05F3F71F04795880F97FB991F42
:1015300061F09F3F79F087950895121613061406FF
:10154000551FF2CF4695F1DF08C01616170618068C
:10155000991FF1CF86957105610508940895E89467
:10156000BB2766277727CB0197F908958ADF08F410
:101570008FEF08950BD0C0CFB1DF28F0B6DF18F0A1
:10158000952309F0A2CFA7CF1124EACFC6DFA0F39D
:10159000959FD1F3950F50E0551F629FF001729F08
:1015A000BB27F00DB11D639FAA27F00DB11DAA1F27
:1015B000649F6627B00DA11D661F829F2227B00D74
:1015C000A11D621F739FB00DA11D621F839FA00DFF
:1015D000611D221F749F3327A00D611D231F849F4F
:1015E000600D211D822F762F6A2F11249F575040A6
:1015F0008AF0E1F088234AF0EE0FFF1FBB1F661F41
:10160000771F881F91505040A9F79E3F510570F0F9
:101610005CCFA6CF5F3FECF3983EDCF386957795E1
:101620006795B795F795E7959F5FC1F7FE2B880FF4
:10163000911D9695879597F90895CF93DF93823002
:10164000910510F482E090E0E091E800F091E9006B
:1016500020E030E0A0E0B0E0309739F140815181E6
:1016600048175907B8F04817590771F482819381D8
:10167000109729F013969C938E9312972CC09093F9
:10168000E9008093E80027C02115310531F04217A9
:10169000530718F0A901DB0101C0EF019A01BD0158
:1016A000DF010280F381E02DD7CF21153105F9F05C
:1016B000281B390B2430310580F48A819B81611508
:1016C000710521F0FB019383828304C09093E900AC
:1016D0008093E800FE01329644C0FE01E20FF31F42
:1016E0008193919322503109398328833AC0209104
:1016F000E6003091E700232B41F420916300309104
:1017000064003093E7002093E6002091610030915F
:1017100062002115310541F42DB73EB740916500B7
:1017200050916600241B350BE091E600F091E70034
:10173000E217F307A0F42E1B3F0B2817390778F0A8
:10174000AC014E5F5F4F2417350748F04E0F5F1F07
:101750005093E7004093E6008193919302C0E0E04C
:10176000F0E0CF01DF91CF910895CF93DF93009701
:1017700009F487C0FC01329713821282C091E800FD
:10178000D091E900209781F420813181280F391F01
:101790008091E6009091E7008217930779F5F09326
:1017A000E700E093E6006DC0DE0120E030E0AE1718
:1017B000BF0750F412964D915C9113979D0141150E
:1017C000510509F1DA01F3CFB383A283408151813E
:1017D000840F951F8A179B0771F48D919C91119727
:1017E000840F951F02969183808312968D919C9110
:1017F0001397938382832115310529F4F093E9002F
:10180000E093E8003EC0D9011396FC93EE93129743
:101810004D915D91A40FB51FEA17FB0779F4808104
:101820009181840F951F0296D90111969C938E93F6
:101830008281938113969C938E931297E0E0F0E05F
:101840008A819B81009719F0FE01EC01F9CFCE014E
:10185000029628813981820F931F2091E6003091F2
:10186000E7002817390769F4309729F41092E90046
:101870001092E80002C013821282D093E700C09356
:10188000E600DF91CF910895BB274A3031F49923C8
:1018900022F4BDE2909581959F4F0C94500CBB278C
:1018A000FB015527AA27880F991FAA1FA41710F01C
:1018B000A41B83955051B9F7A05DAA3308F0A95D28
:1018C000A193009779F7B111B1931192CB010C94C8
:1018D000690CDC01FC01672F71917723E1F73297E6
:1018E00004C07C916D9370836291AE17BF07C8F3FB
:0618F0000895F894FFCFFB
:1018F600010000EA002000280050726F6772616DD7
:101906003A20005779626965727A3A0031202D20B3
:10191600330041546D65676133322070726F6772B0
:10192600616D004461726975737A204D2E20707264
:101936006F6A2E00576974616A21004C434420483F
:1019460044343437383000437A7974616D3A004B49
:10195600616C69627261636A6100656B72616E7562
:041966002E2E2E00F3
:00000001FF
